:100000000C94B7250C94E8250C94E8250C94E8256D
:100010000C94E8250C94E8250C94E8250C94E8252C
:100020000C94E8250C94E8250C94E8250C94E8251C
:100030000C94E8250C94A1770C94E8250C94E82501
:100040000C94E8250C9498AE0C94E8250C94E825C3
:100050000C94E8250C94E8250C9459C40C94B6F93A
:100060000C94E8250C94546A0C94E8250C94E8252B
:100070000C94E8250C94E8250C94E8250C94E825CC
:100080000C94E8250C94E8250C94E8250C94E825BC
:100090000C94E8250C94E8250C94E8250C94E825AC
:1000A0000C94E8250C94E8250C94E8250C94E8259C
:1000B0000C94E8250C94E8250C94E8250C94E8258C
:1000C0000C94E8250C94E8250C94E8250C94E8257C
:1000D0000C94E8250C94E8250C94E8250C94E8256C
:1000E0000C94E825B9C4C8C4E4C4F3C40DC51CC548
:1000F00036C53AC53CC540C548C5A1F6A4F693F639
:1001000097F69DF6DBF6A8F6ACF6B2F6B6F6BAF6BA
:10011000C0F6C4F6C8F6DBF6CEF6D2F6D6F6D0F8C0
:10012000D5F8DAF8E4F8EEF867F9F8F800F908F924
:1001300012F91CF926F935F93FF967F949F953F92C
:100140005DF9084AD73B3BCE016E84BCBFFDC12F91
:100150003D6C74319ABD56833DDA3D00C77F11BEB8
:10016000D9E4BB4C3E916BAAAABE000000803F05BB
:10017000A84CCDB2D44EB93836A9020C50B99186EC
:1001800088083CA6AAAA2ABE000000803F000C9462
:1001900048C50C94A8BD0C94B5FA0C94C4F60C9404
:1001A000B2F60C94ACF60C94C0F60C9427B70C94F1
:1001B00086890C9449F90C944D8C0C945DF90C943F
:1001C00035F90C9437DC0C94C8C00C942EE90C94CF
:1001D000D6F60C94C2A60C9430770C9440C50C94BF
:1001E000DABC0C9426F90C9484F60C94E4F80C9484
:1001F000A4F60C9412F90C9400F90C9481FD0C9463
:10020000F2FD0C943AC50C9402830C94D0F80C9433
:10021000CAE70C94A8F60C943CC50C9410A70C9457
:1002200067F90C94A1E00C943FF90C945B770C9463
:10023000F3C40C94CEF60C94B6F60C9458CA0C94F5
:10024000898E0D94F1040C9441FB0C9493F60C945C
:1002500036C50C94D5F80C9497F60C9487EE0C9454
:1002600006970C943FDA0D9452020C94A1F60C946C
:10027000C8C40C94698C0C948DEE0C9400FA0C9408
:1002800013B70C94A2C20C94BAF60C94F4DC0C9440
:1002900057AD0C941CF90C943FDC0C9453F90C945E
:1002A000E4C40C941CC50C9439BF0C940DC50C947B
:1002B00047DC0C94F8F80C9477810C94B4C30C943C
:1002C00081EE0C94BDFF0D94C00B0C94C8F60C94F9
:1002D00008F90C9495920C945B8C0C946BBE0C9466
:1002E0009DF60C94DAF80C94FCBF0C94EEF80C9488
:1002F00005E20C94DBF60C942FDC0C94B9C40C943E
:1003000076BE0C94D2F60A00207A3A200020793A80
:10031000200020783A2000426564000A00207A3AE2
:10032000200020793A200020783A20002F00534402
:10033000207072696E74696E67206279746520003E
:100340004E6F74205344207072696E74696E67003A
:100350002E0044656C6574696F6E206661696C651A
:10036000642C2046696C653A200046696C652064FF
:10037000656C657465643A002E006F70656E20666A
:1003800061696C65642C2046696C653A20005049AF
:1003900044204175746F74756E652066696E69736B
:1003A000686564212050757420746865206C6173E1
:1003B00074204B702C204B6920616E64204B6420AC
:1003C000636F6E7374616E74732066726F6D2061FB
:1003D000626F766520696E746F20436F6E66696721
:1003E00075726174696F6E2E6800504944204175C2
:1003F000746F74756E65206661696C656421207424
:10040000696D656F75740020403A006F6B20543A37
:10041000006F6B20423A00504944204175746F745C
:10042000756E65206661696C6564212054656D7028
:100430006572617475726520746F6F206869676892
:1004400000204B643A2000204B693A2000204B707A
:100450003A200020436C6173736963205049442043
:10046000002054753A2000204B753A2000206D6121
:10047000783A2000206D696E3A200020643A20000E
:1004800020626961733A20002200556E6B6E6F77AF
:100490006E20636F6D6D616E643A20220043686167
:1004A0006E67652066696C616D656E74005A204FD9
:1004B0006666736574203A20007A5F6D61783A2031
:1004C000007A5F6D696E3A20005A204F6666736548
:1004D00074005A204F6666736574206F6B006C63FE
:1004E0006420636F6E74726173742076616C7565DD
:1004F0003A20007A5F6D61783A20007A5F6D696E0C
:100500003A2000795F6D61783A2000795F6D696EFD
:100510003A2000785F6D61783A2000785F6D696EEF
:100520003A2000205A3A0020593A0020436F756E55
:100530007420583A200020453A00205A3A002059A9
:100540003A00583A004649524D574152455F4E4194
:100550004D453A4D61726C696E20312E302E322B32
:1005600020446576656C6F706D656E742046726FA1
:100570006D204172636869766520534F555243453B
:100580005F434F44455F55524C3A68747470733AF8
:100590002F2F6769746875622E636F6D2F4D6172BE
:1005A0006C696E4669726D776172652F4D61726C10
:1005B000696E2050524F544F434F4C5F5645525333
:1005C000494F4E3A312E30204D414348494E455F08
:1005D000545950453A44495965205072656D6975C2
:1005E0006D2069332045585452554445525F434F5E
:1005F000554E543A3120555549443A303030303018
:100600003030302D303030302D303030302D3030F3
:1006100030302D3030303030303030303030300A03
:100620000044495965205072656D69756D206933C4
:10063000204F66662E0044495965205072656D69E9
:10064000756D2069332072656164792E004265649E
:1006500020646F6E652E0020423A0020453A005417
:100660003A004265642048656174696E672E0048EF
:10067000656174696E6720646F6E652E0020573A5D
:100680000020453A00543A0048656174696E672E4F
:100690002E2E002042403A0020403A00202F003AFF
:1006A00000205400202F0020423A00202F006F6BC2
:1006B00020543A000A0A005374616E646172642027
:1006C000446576696174696F6E3A20000A004D6571
:1006D000616E3A20000A002020207A3A200000793A
:1006E0003A2000783A20003F537065636966696577
:1006F00064206E756D626572206F66206C6567732D
:1007000020696E206D6F76656D656E74206E6F74F6
:1007100020706C61757361626C652E0A003F5370C6
:1007200065636966696564205920706F73697469CF
:100730006F6E206F7574206F662072616E67652E14
:100740000A003F53706563696669656420582070CC
:100750006F736974696F6E206F7574206F66207295
:10076000616E67652E0A003F53706563696669654F
:10077000642073616D706C652073697A65206E6F9B
:100780007420706C61757361626C652E0A00467529
:100790006C6C20737570706F72742061743A20688D
:1007A0007474703A2F2F33647072696E74626F6163
:1007B00072642E636F6D2F666F72756D2E70687028
:1007C0000A004D3438205A2D50726F6265205265F0
:1007D000706561746162696C6974792074657374A1
:1007E0002E20202056657273696F6E20322E3030B5
:1007F0000A003F566572626F7365204C6576656CC2
:10080000206E6F7420706C61757361626C652E0A66
:10081000002569206D696E2C2025692073656300B1
:10082000456E642066696C65206C6973740042656E
:1008300067696E2066696C65206C697374004E6F21
:10084000206D6F76652E0044495965205072656DA4
:1008500069756D2069332072656164792E00526577
:1008600073756D696E67207072696E740057616987
:100870007420666F7220757365722E2E2E000A002A
:10088000205A3A200020593A200020583A200042AD
:1008900065640020643A200020623A200045716EB1
:1008A00020636F656666696369656E74733A20617B
:1008B0003A2000486F6D6520582F59206265666F99
:1008C0007265205A00486F6D6520582F5920626567
:1008D000666F7265205A005A2070726F6265206FD1
:1008E00075742E20626564005A2070726F626520F4
:1008F0006F75742E2062656400486F6D6520582FF7
:1009000059206265666F7265205A00486F6D6520D8
:10091000582F59206265666F7265205A00536C65C6
:1009200065702E2E2E0053657474696E67732053A4
:10093000746F726564002044002049002020204D1F
:100940003330312050005049442073657474696E0F
:1009500067733A00205A0020590020204D3230366B
:10096000205800486F6D65206F6666736574202897
:100970006D6D293A00204500205A00205800204281
:100980000020540020204D32303520530041647641
:10099000616E636564207661726961626C65733A49
:1009A00020533D4D696E20666565647261746520F3
:1009B000286D6D2F73292C20543D4D696E20747263
:1009C0006176656C20666565647261746520286D6A
:1009D0006D2F73292C20423D6D696E696D756D20F8
:1009E0007365676D656E742074696D6520286D731D
:1009F000292C20583D6D6178696D756D20585920FE
:100A00006A65726B20286D6D2F73292C20205A3D4A
:100A10006D6178696D756D205A206A65726B20284A
:100A20006D6D2F73292C2020453D6D6178696D75A2
:100A30006D2045206A65726B20286D6D2F7329002B
:100A400020540020204D3230342053004163636530
:100A50006C65726174696F6E3A20533D61636365C2
:100A60006C65726174696F6E2C20543D726574728E
:100A700061637420616363656C65726174696F6E34
:100A800000204500205A0020590020204D323031EE
:100A90002058004D6178696D756D20416363656C08
:100AA00065726174696F6E20286D6D2F7332293AFB
:100AB00000204500205A0020590020204D323033BC
:100AC0002058004D6178696D756D206665656472AA
:100AD0006174657320286D6D2F73293A00204500DD
:100AE000205A0020590020204D39322058005374DC
:100AF0006570732070657220756E69743A00537466
:100B00006F7265642073657474696E6773207265B3
:100B1000747269657665640048617264636F6465C8
:100B2000642044656661756C742053657474696EE5
:100B30006773204C6F61646564002200656E717597
:100B400065696E672022004D383420582059205A9C
:100B5000204500256920686F757273202569206D16
:100B6000696E7574657300446F6E65207072696E8E
:100B700074696E672066696C650053544F50504528
:100B8000442E20005072696E7465722073746F7009
:100B90007065642064756520746F206572726F7271
:100BA000732E2046697820746865206572726F72B2
:100BB00020616E6420757365204D39393920746F5A
:100BC00020726573746172742E202854656D70658F
:100BD0007261747572652069732072657365742E15
:100BE0002053657420697420616674657220726593
:100BF0007374617274696E6729004E6F204C696E60
:100C000065204E756D62657220776974682063682F
:100C100065636B73756D2C204C617374204C696E29
:100C2000653A20004E6F20436865636B73756D20D5
:100C300077697468206C696E65206E756D62657287
:100C40002C204C617374204C696E653A20006368F7
:100C500065636B73756D206D69736D617463682C6A
:100C6000204C617374204C696E653A20004C696EAB
:100C700065204E756D626572206973206E6F7420F9
:100C80004C617374204C696E65204E756D6265729F
:100C90002B312C204C617374204C696E653A200016
:100CA0004D3131300053442063617264206F6B001A
:100CB0006F70656E526F6F74206661696C65640059
:100CC000766F6C756D652E696E6974206661696CEE
:100CD0006564004572726F723A00534420696E6910
:100CE00074206661696C006563686F3A00022020B9
:100CF000506C616E6E65724275666665724279749B
:100D000065733A20002046726565204D656D6F72EF
:100D1000793A200044656320313320323031360087
:100D2000436F6D70696C65643A20002844495945E9
:100D30002C205072656D69756D2900207C204175ED
:100D400074686F723A20004465632031332032307A
:100D500031362032333A30383A343800204C61731F
:100D60007420557064617465643A200020312E301F
:100D70002E322B004D61726C696E0020536F6674C9
:100D800077617265205265736574002057617463E2
:100D900068646F67205265736574002042726F77D4
:100DA0006E206F75742052657365740020457874E9
:100DB00065726E616C20526573657400506F776563
:100DC000725570007374617274006572726F722074
:100DD00077726974696E6720746F2066696C65004C
:100DE000656E6473746F7073206869743A205A007A
:100DF000205A3A00656E6473746F7073206869746A
:100E00003A20590020593A00656E6473746F70730C
:100E1000206869743A20580020583A00656E64735F
:100E2000746F7073206869743A2000446F6E652097
:100E3000736176696E672066696C652E006F6B0062
:100E40004D32390057726974696E6720746F20667D
:100E5000696C653A20002E006F70656E20666169CE
:100E60006C65642C2046696C653A20002E006F701A
:100E7000656E206661696C65642C2046696C653A14
:100E8000200046696C652073656C65637465640059
:100E90002053697A653A200046696C65206F706559
:100EA0006E65643A20002E006F70656E2066616981
:100EB0006C65642C2046696C653A20004E6F772083
:100EC00066726573682066696C653A20004E6F77BC
:100ED00020646F696E672066696C653A2000222085
:100EE000706F73002220706172656E743A22005335
:100EF0005542524F5554494E452043414C4C207465
:100F000061726765743A2200747279696E67207441
:100F10006F2063616C6C207375622D67636F64650D
:100F20002066696C6573207769746820746F6F2020
:100F30006D616E79206C6576656C732E204D41581D
:100F4000206C6576656C2069733A004D3234004D33
:100F50003233202573006175746F25692E67004D4B
:100F60006F766520302E316D6D004D6F76652031C6
:100F70006D6D004D6F76652031306D6D005072657E
:100F80007061726500526573746F72652066616985
:100F90006C73616665004C6F6164206D656D6F7286
:100FA000790053746F7265206D656D6F7279004CB6
:100FB000434420636F6E74726173740046696C61A0
:100FC0006D656E74004D6F74696F6E0054656D7061
:100FD00065726174757265004D61696E005072656D
:100FE000686561742041425320636F6E66005072E1
:100FF000656865617420504C4120636F6E660050D7
:1010000049442D43005049442D43005049442D4448
:10101000005049442D44005049442D490050494452
:101020002D49005049442D50005049442D50002076
:101030000220466163740020022046616374002030
:1010400002204D6178002002204D617800200220AE
:101050004D696E002002204D696E004F6666004F9C
:101060006E20004F6666004F6E20004175746F74ED
:10107000656D700046616E20737065656400466141
:101080006E207370656564004265640042656400AB
:101090004E6F7A7A6C65004E6F7A7A6C6500436F9A
:1010A0006E74726F6C0001050800FF0601210235A5
:1010B00020FFFF07FF06FF090050221656808080A0
:1010C000800080153353A0A0A00257575050F8500D
:1010D000F850500257572070A070287020133555D3
:1010E00080A040A02002475740A0A040A0A05025CB
:1010F00013538080801226564080808080401226C4
:10110000568040404040800245559060F06090021B
:1011100055552020F8202011335360408004415160
:10112000F011335340E040024656101020408080BA
:1011300012365640A0A0A0A04012365640C04040F3
:1011400040E00246566090106080F0024656F02063
:10115000601090600246562060A0F02020024656A3
:10116000F080E01090600246566080E0909060024F
:101170004656F01020204040024656609060909005
:1011800060024656609090701060122555C0C000F5
:10119000C0C0113656606000604080123656204054
:1011A00080804020034353F000F0123656804020E8
:1011B00020408012365640A0204000400158583050
:1011C0004898A8A8904030024656609090F09090C1
:1011D000024656E090E09090E00246566090808093
:1011E0009060024656E090909090E0024656F08063
:1011F000E08080F0024656F080E080808002465613
:10120000609080B090600246569090F0909090125E
:101210003656E040404040E002465670202020A074
:101220004002465690A0C0A0A09002465680808002
:101230008080F002465690F0F090909002465690D2
:10124000D0F0B0B090024656609090909060024608
:1012500056E09090E08080014757609090D0B06059
:1012600010024656E09090E0909002465660904002
:10127000209060123656E040404040400246569072
:1012800090909090600246569090909060600246D8
:1012900056909090F0F0900246569090606090903A
:1012A000025656888850202020024656F0102040D2
:1012B00080F0123656E080808080E00246568080C2
:1012C00040201010123656E020202020E016325226
:1012D00040A0014151F016225280400244547090C7
:1012E00090700246568080E09090E0123454608006
:1012F000806002465610107090907002445460B0A6
:10130000C060024656205040E04040014555609084
:101310007010600246568080E090909012365640E1
:1013200000C04040E01137572000202020A040029C
:101330004656808090E09090123656C04040404023
:10134000E0025454D0A8A8A8024454E0909090021F
:10135000445460909060014555E090E080800145E4
:10136000557090701010024454A0D08080123454F4
:1013700060C020C00246564040E040502002445425
:1013800090909070123454A0A0A04002545488A8A9
:10139000A850024454906060900145559090709020
:1013A00060024454F02040F0024757304020C020F3
:1013B0004030221656808080808080024757C020AF
:1013C00040304020C006425250A0FFFFFFFFFFFF09
:1013D000FFFFFFFFFFFFFFFFFFFFFFFFFFFFFFFF1D
:1013E000FFFFFFFFFFFFFFFFFFFFFF090050221677
:1013F000568000808080800146562070A0A070201A
:101400000246562050E04050A0025555887050705A
:10141000880256568850F820F8202217578080807E
:10142000008080800247577080E0907010E0173194
:1014300051A002565670A8C8C8A87014355560A0AF
:101440006000E003435350A050123353E0202014B7
:101450003151E002565670E8D8E8D870173151E0A3
:1014600015335340A04012355540E04000E014359C
:101470005540A02040E0143555C020C020C01622A1
:10148000524080014555909090E08002565678E891
:10149000E8682828241151801122524080143555C3
:1014A00040C04040E014355540A04000E0034353A5
:1014B000A050A0024757808080A060F020024757CC
:1014C0008080A0D010207002475780408060A0F03C
:1014D0002012365640004080A0400247574020600E
:1014E00090F0909002475720406090F09090024713
:1014F0005760906090F0909002475750A06090F035
:10150000909002475790006090F09090024757608B
:10151000906090F0909002465670A0A0F0A0B001AC
:101520004757609080809060400247574020F0808D
:10153000E080F00247572040F080E080F0024757FB
:101540006090F080E080F00247579000F080E080EB
:10155000F01237578040E0404040E01237572040BB
:10156000E0404040E012375740A0E0404040E012E9
:101570003757A000E0404040E00256567048E84827
:10158000487002475750A090D0B090900247574003
:10159000206090909060024757204060909090604B
:1015A0000247576090609090906002475750A0604B
:1015B0009090906002475790006090909060123336
:1015C00053A040A002465670B0B0D0D0E0024757BA
:1015D00040209090909060024757204090909090CB
:1015E000600247576090909090906002475790003B
:1015F0009090909060025757102088502020200231
:10160000465680E09090E0800246566090A0A09000
:10161000A00247574020007090907002475720402A
:1016200000709090700247572050007090907002A8
:10163000475750A00070909070024656500070902E
:10164000907002475760906070909070025454F010
:1016500068B078113555608080604002475740205F
:101660000060B0C06002475720400060B0C0600218
:10167000475760900060B0C060024656500060B0AE
:10168000C060123757804000C04040E012375720FA
:101690004000C04040E012375740A000C04040E04A
:1016A000123656A000C04040E0024757A040A010AC
:1016B00070906002475750A000E09090900247570A
:1016C000402000609090600247572040006090905A
:1016D000600247576090006090906002475750A0AA
:1016E00000609090600246569000609090601235C5
:1016F000554000E0004002445470B0D0E00247572B
:1017000040200090909070024757204000909090A9
:10171000700247576090009090907002465690007B
:101720009090907001485820400090907090600117
:1017300047578080E090E08080014757900090906C
:10174000709060000000000000000F00000000002A
:1017500000000F000000000000000F00000000006B
:1017600000000F000000000000000F00000000005B
:1017700000000F000000000000000F00000000004B
:1017800000000F000000000000000F00000000003B
:1017900000000F000000000000000F00000000002B
:1017A00000000F000000000000000F00000000001B
:1017B00000000F000000000000000F00000000000B
:1017C00000000F000000000000000F0000000000FB
:1017D00000000F000000000000000F0000000000EB
:1017E00000000F0FFFFFFFFFFFFFEF3000000000C2
:1017F000007FFF6000000000001FFF4000000000AD
:10180000000FFF4000000001800FFF83EFC00001C8
:101810008C07FF87FFE000018C03FF863860000122
:101820008001FF861863E0F98C7CFF861867F1FD64
:101830008CFE7F86186E318D8CC63F86186C398D74
:101840008CC71F86186C19818CC71F86186C19816C
:101850008CC71F86186F9F81CDC71F061867DF8052
:10186000EFC71F4418619F002FC22F4000000000E7
:1018700000002F200000000000004F1FFFFFFFFFAF
:10188000FFFF8F000000000000000F0000000000BC
:1018900000000F000000000000000F00000000002A
:1018A00000000F000000000000000F00000000001A
:1018B00000000F000000000000000F00000000000A
:1018C00000000F000000000000000F0000000000FA
:1018D00000000F000000000000000F0000000000EA
:1018E00000000F000000000000000F0000000000DA
:1018F00000000F000000000000000F0000000000CA
:1019000000000F000000000000000F0000000000B9
:1019100000000F000000000000000F0000000000A9
:1019200000000F00000000000000000000000000A8
:1019300000000000000000000000000000000000A7
:101940000000000000000000000000000000000097
:101950000000000000000000000000000000000087
:101960000000000000000000000000000000000077
:101970000000000000000000000000000000000067
:1019800000B02000B0200059002D2D3A2D2D000070
:1019900000000000000000000000007FFFE00000E9
:1019A000000000000000000000007000E0000000E7
:1019B00000000000000000000061F860000000006E
:1019C000000000000000000041F8200000000000BE
:1019D0000000000000000040F020000000000000B7
:1019E0000000000000004060200000000000000037
:1019F00000000000005801A07F80000000000000EF
:101A0000004104005C63A0FFC00000000000000073
:101A10002082005EF7A0FFC0000000000000002050
:101A200082005EF7A0FFC00000000000000041043B
:101A3000005C63A07F8000000000000000820800BE
:101A40005801A07F80000000000000010410004049
:101A50006020FFC00000000000000104100040F002
:101A600020FFC00000000000000082080041F820B4
:101A7000FFC00000000000000041040061F8603F6A
:101A800000000000000000000000007000E01E00E8
:101A900000000000000001FFFF807FFFE00C00005D
:101AA000000000000001FFFF8000000000000000B7
:101AB00000000000000000007FFFE00000000000C8
:101AC000000000000000007000E0000000000000C6
:101AD000000000000000630C600000000000000037
:101AE0000000000000470E20000000000000000081
:101AF000000000004F0F2000000000000000000068
:101B00000000005F0FA000000000000000000000C7
:101B100000005E07A07F800000000000000041047C
:101B200000406020FFC00000000000000020820094
:101B300040F020FFC00000000000000020820040B4
:101B4000F020FFC0000000000000004104004060E1
:101B5000207F80000000000000008208005E07A0D7
:101B60007F80000000000000010410005F0FA0FF54
:101B7000C0000000000000010410004F0F20FFC053
:101B800000000000000000820800470E20FFC00097
:101B9000000000000000410400630C603F000000F2
:101BA00000000000000000007000E01E00000000C7
:101BB00000000001FFFF807FFFE00C00000000003C
:101BC000000001FFFF800000004D383420582059EC
:101BD000205A2045004E6F205344206361726400F8
:101BE0005072696E742066726F6D20534400537496
:101BF0006F70207072696E7400526573756D652028
:101C00007072696E74005061757365207072696ED0
:101C10007400436F6E74726F6C0050726570617205
:101C2000650054756E6500496E666F20736372655A
:101C3000656E0000091200FC0A01E803D720FFFDD1
:101C40000EFD0BFD00000009000E010B0B09040046
:101C500080808080808080000080800404040903EC
:101C60000790909090080A0A090000242424FF2479
:101C700024FF242424070B0B0901FF107C929050B1
:101C8000381412927C10070A0A09010042A4A448E1
:101C90001010244A4A84070A0A09010060909090B3
:101CA0006062948894620104040904078080808043
:101CB000030C0C0903FF204040808080808080401E
:101CC0004020030C0C0903FF8040402020202020EE
:101CD00020404080070707090103109254385492AE
:101CE00010070707090101101010FE101010020460
:101CF000040904FEC0C04080070101090104FE027E
:101D00000202090400C0C0070A0A09010002040413
:101D100008101020404080070A0A09010038448258
:101D200082828282824438070A0A090100103050F8
:101D3000901010101010FE070A0A090100384482A2
:101D4000020408102040FE070A0A090100FE0204EE
:101D500008180402028478070A0A090100040C1416
:101D6000244484FE040404070A0A090100FE80805A
:101D700080F80402028478070A0A0901003C4080C6
:101D800080B8C482824438070A0A090100FE0204AE
:101D900004080810101010070A0A090100384482CC
:101DA00044384482824438070A0A090100384482D0
:101DB00082463A02020478020707090400C0C00004
:101DC0000000C0C00209090904FEC0C0000000C034
:101DD000C040800509090902000810204080402009
:101DE0001008070404090102FE0000FE05090909A4
:101DF0000200804020100810204080070A0A0901D4
:101E00000038448202040810100010070A0A090171
:101E10000038449AAAAAAAAA9C403C070A0A0901C7
:101E20000010282828447C44828282070A0A09017B
:101E300000F8848284F884828284F8070A0A0901FF
:101E4000003C42808080808080423C070A0A090171
:101E500000F88482828282828284F8070A0A090159
:101E600000FE808080F880808080FE070A0A0901D9
:101E700000FE808080F88080808080070A0A090147
:101E80000038448280808E82824438070A0A090121
:101E90000082828282FE8282828282050A0A09028E
:101EA00000F82020202020202020F8070A0A09011D
:101EB000003E080808080808888870070A0A09010F
:101EC0000082848890A0D088848282070A0A09014F
:101ED00000808080808080808080FE070A0A09015F
:101EE000008282C6AA928282828282070A0A09013D
:101EF000008282C2A2928A86828282070A0A09012D
:101F0000007C82828282828282827C070A0A0901A4
:101F100000F884828284F880808080080B0B09019D
:101F2000FF384482828282828A443A01070A0A097F
:101F30000100F884828284F890888482070A0A0962
:101F400001007C8280807C020202827C070A0A09EE
:101F50000100FE101010101010101010070A0A09CE
:101F6000010082828282828282824438070A0A09C0
:101F7000010082828244444428282810070A0A0962
:101F800001008282828292929292AA44070A0A09EE
:101F9000010082824428101028448282070A0A091C
:101FA000010082824428101010101010070A0A093C
:101FB0000100FE0204081020408080FE040C0C0981
:101FC00003FFF080808080808080808080F0070A1E
:101FD0000A09010080404020101008040402040C8B
:101FE0000C0902FFF010101010101010101010F05B
:101FF000070404090106102844820801010900FFB2
:10200000FF03030309030A804020070707090100B3
:102010007C02027E82867A070A0A0901008080809B
:10202000BCC2828282C2BC0707070901007C828091
:102030008080827C070A0A0901000202027A8682F5
:102040008282867A0707070901007C8282FE8082ED
:102050007C070A0A0901001C22222020F8202020E7
:1020600020070A0A0901FD7A84848478807C8282B0
:102070007C070A0A090100808080BCC282828282B9
:1020800082050A0A090200600000E02020202020CA
:10209000F8050D0D0902FD180000380808080808A9
:1020A00008888870070A0A09010080808084889067
:1020B000B0C88482050A0A090200E02020202020FE
:1020C000202020F8070707090100EC9292929292D3
:1020D00082070707090100BCC28282828282070749
:1020E000070901007C82828282827C070A0A090138
:1020F000FDB8C4828282C4B8808080070A0A0901C0
:10210000FD3A46828282463A020202070707090127
:10211000009C6242404040400707070901007C8262
:10212000807C02827C0709090901002020FC202014
:102130002020221C070707090100828282828286F2
:102140007A070707090100828244442828100707FC
:10215000070901008282929292AA440707070901A7
:102160000082442810284482070A0A0901FD4242DD
:102170002424241818109060070707090100FE04A2
:1021800008102040FE060B0B0902001C2020202016
:10219000C0202020201C010C0C0904FF80808080BE
:1021A0008080808080808080060B0B090100E01019
:1021B0001010100C10101010E00703030901076243
:1021C000928CFFFFFFFFFFFFFFFFFFFFFFFFFFFFFF
:1021D000FFFFFFFFFFFFFFFFFFFFFFFFFFFFFFFF0F
:1021E000FFFFFF00000009000E010B0B0904008037
:1021F00080000080808080808080060808090100BF
:1022000008789490A0A47840070A0A0901001C22CB
:102210002020F8202060A25C070606090103827CCA
:1022200044447C82070A0A090100828244287C1007
:102230007C101010010B0B0904FF8080808080004F
:102240008080808080040B0B0902FF60908060908A
:1022500090906010906003020209030BA0A008098F
:10226000090900013C4299A5A1A599423C0507072F
:10227000090103609070907800F8070808090101CF
:102280001224489090482412060404090102FC0418
:102290000404050101090204F80809090900013CC8
:1022A00042B9A5BDA9A5423C060101090109FC04EA
:1022B00004040903066090906007090909010110F0
:1022C0001010FE10101000FE0406060901046090B4
:1022D000106080F0040606090104609020109060F0
:1022E00003030309030A2040800709090901FE824C
:1022F00082828282C6BA8080070A0A0901007E8A29
:102300008A8A7A0A0A0A0A0A020202090404C0C076
:102310000403030902FD209060030606090104403E
:10232000C0404040E005060609010470888870003E
:10233000F807080809010190482412122448900760
:102340000A0A09010040C0404042E60A121A060784
:102350000A0A09010040C040404CF2020C101E075E
:102360000A0A0901006090201092660A121A0607F4
:102370000A0A0901001000101020408082827C07A8
:102380000E0E0901002010080010282828447C4463
:10239000828282070E0E09010008102000102828F2
:1023A00028447C44828282070E0E090100102844D2
:1023B0000010282828447C44828282070D0D0901E0
:1023C0000034580010282828447C44828282070D5B
:1023D0000D09010028280010282828447C44828206
:1023E00082070E0E09010010282810102828284402
:1023F0007C44828282070A0A0901001E2828284E8E
:10240000784888888E070D0D0901FD3C4280808048
:10241000808080423C082418070E0E09010020101D
:102420000800FE808080F880808080FE070E0E0904
:10243000010008102000FE808080F880808080FEEF
:10244000070E0E09010010284400FE808080F880ED
:10245000808080FE070D0D090100282800FE808085
:1024600080F880808080FE050E0E0902004020105A
:1024700000F82020202020202020F8050E0E090240
:102480000010204000F82020202020202020F805E7
:102490000E0E09020020508800F820202020202065
:1024A0002020F8050D0D090200505000F8202020D2
:1024B0002020202020F8070A0A090100784442421F
:1024C000F24242424478070D0D090100345800825F
:1024D00082C2A2928A86828282070E0E09010020A1
:1024E0001008007C82828282828282827C070E0EA9
:1024F000090100081020007C82828282828282820E
:102500007C070E0E090100102844007C8282828222
:10251000828282827C070D0D0901003458007C8282
:10252000828282828282827C070D0D090100282826
:10253000007C82828282828282827C070707090174
:102540000182442810284482070C0C0901FF027CF8
:10255000868A8A9292A2A2C27C80070E0E0901008E
:102560002010080082828282828282824438070E92
:102570000E090100081020008282828282828282FB
:102580004438070E0E09010010284400828282821E
:10259000828282824438070D0D09010028280082BA
:1025A000828282828282824438070E0E09010008EC
:1025B00010200082824428101010101010070A0A00
:1025C0000901008080FC828282FC808080060A0AE9
:1025D00009010038444448D04844444458070B0B90
:1025E000090100201008007C02027E82867A070B17
:1025F0000B090100081020007C02027E82867A0707
:102600000B0B090100102844007C02027E82867AAE
:10261000070A0A0901003458007C02027E82867A89
:10262000070A0A0901002828007C02027E82867AB5
:10263000070C0C09010010282810007C02027E8281
:10264000867A0707070901006C12127E90926C07C8
:102650000A0A0901FD7C82808080827C1048300754
:102660000B0B090100201008007C8282FE80827C16
:10267000070B0B090100081020007C8282FE80827B
:102680007C070B0B090100102844007C8282FE802D
:10269000827C070A0A0901002828007C8282FE80C9
:1026A000827C050C0C0902008040200000E0202004
:1026B000202020F8050C0C0902001020400000E04A
:1026C0002020202020F8050C0C0902002050880052
:1026D00000E02020202020F8050B0B0902005050BC
:1026E0000000E02020202020F8070B0B0901004803
:1026F0003050083C448282824438070A0A090100AB
:10270000345800BCC28282828282070B0B0901000E
:10271000201008007C82828282827C070B0B0901D8
:1027200000081020007C82828282827C070B0B09C9
:102730000100102844007C82828282827C070A0A7F
:102740000901003458007C82828282827C070A0A56
:102750000901002828007C82828282827C07090984
:1027600009010010381000FE00103810070909098F
:1027700001FF027C8A8A92A2A27C80070B0B0901CE
:1027800000402010008282828282867A070B0B0929
:102790000100081020008282828282867A070B0B59
:1027A000090100102844008282828282867A070A08
:1027B0000A0901002828008282828282867A070E16
:1027C0000E0901FD040810004242242424181810A8
:1027D0009060070B0B0901FE8080B8C4828282C41E
:1027E000B88080070D0D0901FD24240042422424F5
:1027F00024181810906000060900FE06018902FEE8
:1028000020FFFE07FE06FE00000006000701060688
:10281000060200808080800080030303060103A07D
:10282000A0A00507070600FF5050F850F8505005CB
:1028300009090600FE2070A8A07028A870200608CC
:10284000080600FF40A8481020485408050707065E
:1028500000FF609090609890680103030602038077
:1028600080800207070602FF40808080808040024F
:1028700007070602FF8040404040408005050506EE
:1028800000008850F850880505050600002020F853
:1028900020200204040602FEC0404080050101061B
:1028A0000002F8020202060200C0C0040606060189
:1028B0000010102040808004060606010060909001
:1028C00090906003060606010040C0404040E004CE
:1028D00006060601006090102040F004060606017E
:1028E00000F020601010E0050606060000103050D1
:1028F00090F810040606060100F080E01010E004D5
:1029000006060601006080E090906004060606015D
:1029100000F01010204040040606060100609060A0
:1029200090906004060606010060909070106002AE
:102930000505060200C0C000C0C00207070602FE6F
:10294000C0C000C04040800505050600001860803A
:102950006018050303060001F800F80505050600E8
:1029600000C0300830C00407070601006090106006
:102970004000400506060600007090A8B080700573
:102980000606060000205088F8888805060606001E
:1029900000F088F08888F004060606010060908048
:1029A000809060040606060100E090909090E0049C
:1029B0000606060100F080E08080F00406060601AD
:1029C00000F080E0808080040606060100609080B0
:1029D000B090600406060601009090F0909090037D
:1029E0000606060100E040404040E00506060600FD
:1029F0000038101010906004060606010090A0C078
:102A0000A090900406060601008080808080F0057A
:102A1000060606000088D8A8A888880406060601CD
:102A20000090D0B09090900506060600007088884F
:102A3000888870040606060100E09090E08080041B
:102A400007070601FF609090D0B0601004060606EC
:102A50000100E09090E0909004060606010060906E
:102A600040209060050606060000F8202020202067
:102A700004060606010090909090906004060606F9
:102A80000100909090F060600506060600008888BE
:102A9000A8A8D8880506060600008850202050887F
:102AA0000506060600008888502020200406060639
:102AB0000100F010204080F0030606060100E080CF
:102AC000808080E00406060601008080402010100F
:102AD000030606060100E020202020E0050303068F
:102AE00000032050880501010600FEF802020206DC
:102AF00002048040040404060100709090700406F3
:102B0000060601008080E09090E0040404060100C5
:102B1000708080700406060601001010709090709E
:102B200004040406010060B0C0700406060601003B
:102B3000205040E040400406060601FE6090907080
:102B400010600406060601008080E0909090030665
:102B5000060601004000C04040E00308080601FEF0
:102B6000200060202020A04004060606010080808E
:102B7000A0C0A090030606060100C040404040E00F
:102B8000050404060000D0A8A88804040406010077
:102B9000E0909090040404060100609090600406A8
:102BA000060601FEE09090E080800406060601FE25
:102BB000709090701010040404060100A0D0808072
:102BC00004040406010070C030E00406060601009B
:102BD0004040E040502004040406010090909070B2
:102BE00004040406010090906060050404060000DF
:102BF00088A8A850040404060100906060900406B0
:102C0000060601FE90909070906004040406010096
:102C1000F02040F0030707060100204040804040BC
:102C2000200107070602FF808080808080800307E4
:102C30000706010080404020404080040202060157
:102C40000350A0FFFFFFFFFFFFFFFFFFFFFFFFFF9E
:102C5000FFFFFFFFFFFFFFFFFFFFFFFFFFFFFFFF84
:102C6000FFFFFFFF00000006000701060606020046
:102C70008000808080800406060601FF2070A0A0EE
:102C800070200507070600FF304840F04040F80577
:102C90000505060000A8508850A805060606000095
:102CA0008850F820F8200107070602FF8080800086
:102CB0008080800407070601FF708060906010E04C
:102CC000030101060105A0060707060000788494A9
:102CD000A494847803050506010160A06000E00566
:102CE00005050600002850A0502804030306010033
:102CF000F01010040101060102F0060707060000AB
:102D00007884B4A4A48478040101060105F00403C6
:102D1000030601026090600507070600FF2020F807
:102D2000202000F803050506010140A02040E00333
:102D30000505060101C0204020C00202020602046F
:102D400040800405050601FF9090B0D0800506067E
:102D500006000078E8E868282801010106020280E0
:102D60000202020602FE408003050506010140C082
:102D70004040E003050506010140A04000E00505D4
:102D800005060000A0502850A00508080600FF40D6
:102D9000C04050703078100508080600FF40C04061
:102DA00050680810380508080600FFC0204030F0C1
:102DB0003078100407070601002000206080906032
:102DC0000507070600004020205070888805070787
:102DD00006000010202050708888050707060000B4
:102DE00020502050708888050707060000285020D2
:102DF0005070888805070706000050002050708832
:102E000088050707060000205020507088880506B6
:102E10000606000078A0F0A0A0B80408080601FE8D
:102E200060908080906020400407070601004020E9
:102E3000F080E080F00407070601002040F080E009
:102E400080F00407070601002050F080E080F004C5
:102E500007070601005000F080E080F00307070636
:102E600001008040E0404040E003070706010020E9
:102E700040E0404040E003070706010040A0E0407A
:102E80004040E0030707060100A000E0404040E0AA
:102E90000506060600007048E84848700407070663
:102EA000010050A090D0B0909004070706010040A8
:102EB0002060909090600407070601002040609019
:102EC0009090600407070601002050609090906089
:102ED00004070706010050A0609090906004070767
:102EE0000601005000609090906005050506000006
:102EF00088502050880408080601FF1070B0B0D038
:102F0000D0E0800407070601004020909090906078
:102F10000407070601002040909090906004070786
:102F20000601002050909090906004070706010071
:102F300050009090909060050707060000102088D0
:102F40005020202004060606010080E09090E080DA
:102F50000406060601006090A0A090A004070706E2
:102F600001004020007090907004070706010020C7
:102F70004000709090700407070601002050007018
:102F800090907004070706010050A00070909070A8
:102F900004060606010050007090907004070706B2
:102FA000010020502070909070050404060000700D
:102FB000A8B0780406060601FE70808070204004E8
:102FC000070706010040200060B0C0700407070634
:102FD000010020400060B0C0700407070601002017
:102FE000500060B0C070040606060100500060B0DA
:102FF000C070030707060100804000C04040E003A6
:103000000707060100204000C04040E00307070614
:10301000010040A000C04040E0030606060100A0F9
:1030200000C04040E00407070601003060107090C7
:10303000906004070706010050A000E09090900403
:103040000707060100402000609090600407070613
:1030500001002040006090906004070706010020F6
:1030600050006090906004070706010050A00060C7
:103070009090600406060601005000609090600584
:1030800005050600002000F80020040404060100E5
:1030900070B0D0E004070706010040200090909037
:1030A000700407070601002040009090907004070C
:1030B000070601002050009090907004060606015B
:1030C000005000909090700409090601FE20400015
:1030D0009090907090600408080601FE8080E09057
:1030E00090E080800408080601FE500090909070E7
:1030F000906020746F6F206C6F6E672065787472BB
:103100007573696F6E2070726576656E74656400A4
:1031100020636F6C6420657874727573696F6E20BC
:1031200070726576656E7465640043616E6E6F746F
:1031300020656E746572207375626469723A20004E
:1031400024F4D43050C38E20C2A24017828B701159
:10315000127A910D816CD90AA861E108C7586607F7
:10316000615143061E4B5D05C145A7041A41110478
:10317000093D9803713931034036DB026533910212
:10318000D4305402802E1D02632CEE01752AC50135
:10319000B028A001102781018F2564012B244B0149
:1031A000E0223401AC211F018D200D01801FFC00A5
:1031B000841EED00971DDF00B81CD200E61BC60080
:1031C000201BBC00641AB200B219A8000A19A000A2
:1031D0006A189900D117910040178B00B51684002A
:1031E00031167E00B31579003A157300C7146F00CD
:1031F00058146A00EE1366008813630025135E00FE
:10320000C7125B006C12570015125400C111510017
:1032100070114F0021114B00D61049008D1047004E
:103220004610440002104200C00F4000800F3E00D4
:10323000420F3C00060F3B00CB0E3800930E3700C8
:103240005C0E3500270E3400F30D3200C10D310045
:10325000900D3000600D2E00320D2D00050D2C005C
:10326000D90C2B00AE0C2900850C29005C0C270022
:10327000350C27000E0C2600E80B2400C40B24009C
:10328000A00B23007D0B23005A0B2100390B2100DA
:10329000180B2000F80A1F00D90A1E00BB0A1E00E6
:1032A0009D0A1D00800A1D00630A1C00470A1B00BE
:1032B0002C0A1B00110A1A00F7091A00DD0919006F
:1032C000C4091900AB091900920917007B091800FD
:1032D000630917004C09160036091600200916006C
:1032E0000A091500F5081500E0081400CC081400C0
:1032F000B8081400A4081400900813007D081200F8
:103300006B08130058081200460812003408110018
:10331000230811001208110001081100F007100025
:10332000E0071000D0071000C0071000B0070F0022
:10333000A107100091070E0083070F0074070F000C
:1033400065070E0057070E0049070E003B070D00EA
:103350002E070E0020070D0013070D0006070D00B5
:10336000F9060C00ED060D00E0060C00D4060C007A
:10337000C8060C00BC060C00B0060C00A4060B002E
:1033800099060C008D060B0082060B0077060B00D9
:103390006C060B0061060A0057060B004C060A007B
:1033A00042060A0038060A002E060A0024060A0011
:1033B0001A060A001006090007060A00FD050900A2
:1033C000F4050900EB050900E2050900D90509002B
:1033D000D0050900C7050900BE050900B5050800AC
:1033E000AD050800A50509009C0508009405080026
:1033F0008C050800840508007C0508007405080099
:103400006C050700650508005D0507005605080006
:103410004E0507004705070040050800380507006E
:10342000310507002A050700230507001C050600D3
:10343000160507000F05070008050600020507002E
:10344000FB040600F5040700EE040600E80406008D
:10345000E2040700DB040600D5040600CF040600E2
:10346000C9040600C3040600BD040600B704060034
:10347000B1040500AC040600A6040600A004050083
:103480009B04060095040500900406008A040500CC
:1034900085040500800406007A0405007504050013
:1034A000700405006B040500660405006104050056
:1034B0005C04050057040500520405004D04050096
:1034C00048040500430405003E0404003A040500D6
:1034D00035040500300404002C0405002704040012
:1034E000230405001E0404001A0404001604050049
:1034F000110404000D040400090405000404040080
:1035000000040400FC030400F8030400F4030400B6
:10351000F0030400EC030400E8030400E4030400E7
:10352000E0030400DC030400D8030400D403040017
:10353000D0030400CC030400C8030300C503030048
:1035400024F404D9201BC40C5C0E9804C4095F0247
:1035500065077101F405F900FB04B3004804870016
:10356000C10369005803550003034500BE023A0039
:103570008402310053022A0029022500040220009F
:10358000E4011C00C8011900AF01170098011400E4
:1035900084011300710110006101100051010E003F
:1035A00043010D0036010B002B010B0020010B0025
:1035B000150109000C01090003010800FB000800C7
:1035C000F3000800EB000700E4000600DE00060040
:1035D000D8000600D2000600CC000500C700050098
:1035E000C2000500BD000400B9000400B5000400DD
:1035F000B1000400AD000400A9000400A500030010
:10360000A20003009F0004009B0003009800030039
:103610009500020093000300900003008D0002005B
:103620008B00030088000200860002008400030073
:10363000810002007F0002007D0002007B0002008A
:103640007900020077000100760002007400020099
:1036500072000100710002006F0002006D000100A5
:103660006C0002006A0001006900020067000100AE
:1036700066000100650001006400020062000100B4
:1036800061000100600001005F0002005D000100B8
:103690005C0001005B0001005A00010059000100BC
:1036A00058000100570001005600010055000100BC
:1036B00054000100530000005300010052000100BB
:1036C00051000100500001004F0001004E000000B9
:1036D0004E0001004D0001004C0001004B000000B5
:1036E0004B0001004A0001004900010048000000B1
:1036F00048000100470001004600000046000100AC
:1037000045000000450001004400010043000000A6
:10371000430001004200000042000100410000009F
:1037200041000100400001003F0000003F00010097
:103730003E0000003E0001003D0000003D00010091
:103740003C0000003C0000003C0001003B00000089
:103750003B0001003A0000003A000100390000007F
:103760003900010038000000380000003800010076
:10377000370000003700010036000000360000006E
:103780003600010035000000350000003500010062
:103790003400000034000000340001003300000059
:1037A000330000003300010032000000320000004E
:1037B0003200010031000000310000003100010042
:1037C0003000000030000000300001002F00000039
:1037D0002F0000002F0000002F0001002E0000002D
:1037E0002E0000002E0001002D0000002D00000022
:1037F0002D0000002D0001002C0000002C00000016
:103800002C0000002C0001002B0000002B00000009
:103810002B0000002B0001002A0000002A000000FD
:103820002A0000002A0001002900000029000000F1
:1038300029000000290000002900010028000000E4
:1038400028000000280000002800000028000100D7
:1038500027000000270000002700000027000000CC
:1038600027000100260000002600000026000000BE
:1038700026000000260001002500000025000000B1
:1038800025000000250000002500000025000100A3
:103890002400000024000000240000002400000098
:1038A000240001002300000023000000230000008A
:1038B000230000002300000023000000230001007B
:1038C0002200000022000000220000002200000070
:1038D0002200000022000100210000002100000061
:1038E0002100000021000000210000002100000054
:1038F0002100010020000000200000002000000046
:103900002000000020000000200000002000000037
:10391000200001001F0000001F0000001F00000029
:103920001F0000001F0000001F0000001F0001001A
:103930001E0000001E0000001E0000001E0000000F
:1039400000060900FE070199032B20FFFE08FE0771
:10395000FE000000060000010707060200808080CC
:1039600080800080030303060104A0A0A0050707D0
:103970000600005050F850F85050050707060000A8
:103980002070A07028702005070706000048A85086
:103990002050A89005070706000040A0A040A8906E
:1039A0006801030306020480808003070706010004
:1039B00020408080804020030707060100804020CF
:1039C000202040800505050600018850F850880534
:1039D00005050600012020F820200303030601FF4F
:1039E000604080050101060003F80303030601FFA0
:1039F00040E04005070706000008081020408080CE
:103A00000507070600002050888888502005070712
:103A10000600002060A0202020F80507070600000F
:103A2000708808304080F8050707060000F8081085
:103A30003008887005070706000010305090F81015
:103A400010050707060000F880B0C8088870050751
:103A500007060000304080B0C888700507070600E0
:103A600000F8081010204040050707060000708885
:103A700088708888700507070600007088986808B5
:103A800010600307070601FF40E0400040E04003EC
:103A900007070601FF40E04000604080040707067A
:103AA000010010204080402010050303060002F8AA
:103AB00000F8040707060100804020102040800520
:103AC0000707060000708810202000200507070661
:103AD0000000708898A8B0807005070706000020D5
:103AE000508888F88888050707060000F048487065
:103AF0004848F005070706000070888080808870BD
:103B0000050707060000F04848484848F005070741
:103B1000060000F88080F08080F8050707060000A6
:103B2000F88080F08080800507070600007088809C
:103B300080988870050707060000888888F88888BC
:103B400088030707060100E04040404040E00507C9
:103B500007060000381010101090600507070600D7
:103B6000008890A0C0A0908805070706000080800C
:103B700080808080F80507070600008888D8A8881C
:103B800088880507070600008888C8A898888805DF
:103B90000707060000708888888888700507070670
:103BA0000000F08888F08080800508080600FF701B
:103BB00088888888A87008050707060000F08888AC
:103BC000F0A09088050707060000708880700888BC
:103BD00070050707060000F8202020202020050798
:103BE000070600008888888888887005070706000F
:103BF00000888888505050200507070600008888F4
:103C000088A8A8D888050707060000888850205093
:103C10008888050707060000888850202020200596
:103C20000707060000F80810204080F80307070681
:103C30000100E08080808080E005070706000080AA
:103C4000804020100808030707060100E02020201C
:103C50002020E0050303060004205088050101062A
:103C600000FFF80202020602068040050505060074
:103C70000070087888780507070600008080B0C8C3
:103C800088C8B005050506000070888088700507A3
:103C9000070600000808689888986805050506006A
:103CA000007088F88070050707060000304840F073
:103CB0004040400507070600FE788888780888702D
:103CC0000507070600008080B0C8888888030707BA
:103CD0000601004000C0404040E00409090601FE22
:103CE000100030101010909060050707060000804B
:103CF000808890E09088030707060100C04040409C
:103D00004040E0050505060000D0A8A8A8880505E4
:103D100005060000B0C88888880505050600007003
:103D2000888888700507070600FEB0C888C8B0807C
:103D3000800507070600FE6898889868080805054A
:103D400005060000B0C880808005050506000070EB
:103D5000807008F00507070600004040F04040482A
:103D60003005050506000088888898680505050661
:103D7000000088885050200505050600008888A8A6
:103D8000A850050505060000885020508805070743
:103D90000600FE88889868088870050505060000FA
:103DA000F8102040F8040707060100304020C0202A
:103DB00040300107070602008080808080808004F8
:103DC0000707060100C02040304020C0050303065D
:103DD000000448A89000000001000000000001005D
:103DE00000000000010000000000010000000000D1
:103DF00001000000000001000000000001000000C0
:103E000000000100000000000100000000000100AF
:103E100000000000010000000000010000000000A0
:103E2000010000000000010000000000010000008F
:103E3000000001000000000001000000000001007F
:103E40000000000001000000000001000000000070
:103E5000010000000000010000000000010000005F
:103E6000000001000000000001000000000001004F
:103E70000000000001000000000001000000000040
:103E8000010000000000010000000000010000002F
:103E9000000001000000000001000000000006001A
:103EA00000010707060200800080808080800507EF
:103EB000070600FF2078A0A0A078200507070600CD
:103EC00000304840E04048B0050505060000887015
:103ED0005070880508080600FF88885020F82020C8
:103EE000200107070602008080800080808005088E
:103EF000080600FF7080E090483808700301010652
:103F00000107A00507070600007088A8C8A88870E8
:103F10000406060601017090B05000F00605050683
:103F200000002448904824040202060102F0100414
:103F30000101060103F00507070600007088E8C8C4
:103F4000C88870050101060007F803030306010491
:103F500040A0400506060600002020F82020F804B6
:103F6000050506010360902040F0040505060103E5
:103F7000E0106010E002020206020640800506061C
:103F80000600FF888888C8B080050707060000780B
:103F9000E8E86828282801010106020380020202DD
:103FA0000602FE408003050506010340C04040E0D4
:103FB0000406060601016090906000F00605050603
:103FC000000090482448900609090600FF40C040C0
:103FD00040E40C143C040609090600FF40C04040C0
:103FE000E81404081C0509090600FFC0204020C889
:103FF00018287808050707060000200020204088C0
:10400000700508080600004020708888F888880538
:1040100008080600001020708888F88888050808BD
:104020000600002050708888F88888050808060077
:104030000048B0708888F888880508080600005095
:1040400000708888F88888050808060000205070ED
:104050008888F888880607070600003C50909CF086
:10406000909C0509090600FE708880808088702079
:104070004005080806000040F88080F08080F805C0
:10408000080806000010F88080F08080F805080815
:1040900006000020F88080F08080F80508080600FF
:1040A0000050F88080F08080F80308080601008046
:1040B00040E040404040E00308080601002040E0A6
:1040C00040404040E003080806010040A0E04040B6
:1040D0004040E0030808060100A000E040404040E6
:1040E000E0050707060000F04848E84848F00508E2
:1040F00008060000285088C8A8988888050808067F
:104100000000402070888888887005080806000034
:1041100010207088888888700508080600002050E4
:104120007088888888700508080600002850708804
:104130008888887005080806000050007088888804
:10414000887005050506000088502050880507077F
:10415000060000709898A8C8C870050808060000F6
:10416000402088888888887005080806000010208C
:104170008888888888700508080600002050008814
:10418000888888700508080600005000888888889C
:10419000887005080806000010208888502020201C
:1041A00005070706000080F088F08080800507077B
:1041B000060000708890A09088B0050808060000EE
:1041C0004020007008788878050808060000102054
:1041D00000700878887805080806000020500070F4
:1041E00008788878050808060000285000700878CC
:1041F0008878050707060000500070087888780561
:104200000808060000205020700878887806050508
:1042100006000078147C907C0507070600FE708875
:104220008088702040050808060000402000708843
:10423000F880700508080600001020007088F880DB
:10424000700508080600002050007088F88070058E
:10425000070706000050007088F880700308080601
:104260000100804000C0404040E003080806010013
:10427000408000C0404040E003080806010040A024
:1042800000C0404040E0060A0A0600FEA4A800FC68
:104290008480808084FC060A0A0600FE549400FC98
:1042A0008404040484FC050808060000285000B0BB
:1042B000C8888888050808060000402000708888A3
:1042C0008870040A0A0602FE304080909090909018
:1042D0009090040A0A0600FEC020109090909090E2
:1042E0009090060707060001448C8C8480403C06B1
:1042F000070706000188C4C4840408F00505050604
:1043000000012000F8002005080806000040F0C861
:104310008888987810050808060000E0F8888888E2
:104320008888F80505050600012030F830200508CA
:10433000080600002070F820202020E0050909066A
:1043400000FF2070A8A8B888885020050909060039
:10435000FFE080C0B0A8A83028280509090600FFA2
:10436000F8A88888888888A8F8050A0A0600FE2028
:104370005050505088A8A8887043617264207265BC
:104380006D6F766564004361726420696E73657257
:1043900074656400202D20496E76616C6964206527
:1043A00078747275646572206E756D626572202115
:1043B000001000C90210012C0140012201700118F7
:1043C00001B0010E01F00104015002FA00B002F048
:1043D000003003E600D003DC009004D2007005C872
:1043E00000A006BE000008B400B009AA00D00BA0CF
:1043F00000600E960060118C000015820020197874
:1044000000C01D6E00A0226400B0275A00902C50FE
:104410000000314600E0343C0010383200903A2869
:1044200000603C1E00A03D1400803E0A00203F00BA
:10443000004572723A204D415854454D50003A2083
:104440004578747275646572207377697463686502
:1044500064206F66662E204D415854454D5020749F
:1044600072696767657265642021004572723A203F
:104470004D494E54454D50003A204578747275644C
:104480006572207377697463686564206F66662E51
:10449000204D494E54454D502074726967676572CE
:1044A00065642021004572723A204D415854454DB3
:1044B00050204245440054656D7065726174757298
:1044C000652068656174656420626564207377693E
:1044D0007463686564206F66662E204D41585445AC
:1044E0004D502074726967676572656420212100F0
:1044F0004573746570732F6D6D00457374657073CB
:104500002F6D6D005A73746570732F6D6D005A7343
:10451000746570732F6D6D005973746570732F6DB2
:104520006D005973746570732F6D6D0058737465E9
:1045300070732F6D6D005873746570732F6D6D00FF
:10454000412D7265747261637400412D72657472DD
:1045500061637400416D6178206500416D61782070
:104560006500416D6178207A00416D6178207A00A4
:10457000416D6178207900416D6178207900416D4D
:104580006178207800416D6178207800565472611E
:1045900076206D696E005654726176206D696E00EA
:1045A000566D696E00566D696E00566D61782065B6
:1045B00000566D6178206500566D6178207A00564E
:1045C0006D6178207A00566D6178207900566D61B2
:1045D00078207900566D6178207800566D617820DA
:1045E000780056652D6A65726B0056652D6A657296
:1045F0006B00567A2D6A65726B00567A2D6A657269
:104600006B005678792D6A65726B005678792D6A41
:1046100065726B00416363656C00416363656C00A8
:104620005A204F6666736574005A204F666673653C
:104630007400436F6E74726F6C007C3C3E5E2B3D69
:104640003F2F5B5D3B2C2A225C00507265686561E0
:104650007420414253204265640050726568656170
:1046600074204142532031005072657061726500C0
:104670004D33303020533639382050323030004DF1
:1046800033303020533635392050323030004D6FC2
:1046900076652061786973004D383000537769740E
:1046A000636820706F776572206F6E004D3831003F
:1046B00053776974636820706F776572206F6666E0
:1046C00000436F6F6C646F776E0050726568656150
:1046D0007420414253005072656865617420504CEB
:1046E000410053657420686F6D65206F6666736561
:1046F000747300473238004175746F20686F6D65C0
:10470000004D38340044697361626C6520737465D0
:104710007070657273004D61696E00580059005ADF
:1047200000457874727564657200457874727564BA
:104730006572004D6F7665205A004D6F7665205981
:10474000004D6F76652058004D6F76652061786961
:10475000730053544F505045442E20005072696EE0
:104760007465722073746F70706564206475652061
:10477000746F206572726F72732E20466978207490
:104780006865206572726F7220616E642075736552
:10479000204D39393920746F2072657374617274D9
:1047A0002E202854656D706572617475726520697C
:1047B000732072657365742E2053657420697420AC
:1047C00061667465722072657374617274696E6774
:1047D000290000007A43000087430000484300009E
:1047E00000000000000000000000000000000000C9
:1047F0000000000000000000A0400000A0400000F9
:10480000004000007A430000874300004843FFFF58
:10481000FF2200656E717565696E67202200426136
:1048200062797374657070696E67205800426162C6
:10483000797374657070696E67205900426162799E
:104840007374657070696E67205A004D36303000A1
:104850004368616E67652066696C616D656E7400A2
:104860004261627973746570205A004261627973A3
:1048700074657020590042616279737465702058C4
:1048800000466C6F77203000466C6F772030004612
:104890006C6F7700466C6F770046616E20737065B1
:1048A00065640046616E20737065656400426564EE
:1048B00000426564004E6F7A7A6C65004E6F7A7ABA
:1048C0006C65005370656564005370656564004DE8
:1048D00061696E005072656865617420504C4120BA
:1048E000426564005072656865617420504C4120D7
:1048F00031005072657061726500526573656E6457
:104900003A20006F6B004B494C4C45442E20005020
:1049100072696E7465722068616C7465642E206BB8
:10492000696C6C28292063616C6C6564210000004F
:104930002100240027002A002D003000330001014F
:104940000000040107010A010000220025002800E0
:104950002B002E0031003400020100000501080187
:104960000B01000020002300260029002C002F004E
:1049700032000001000003010601090105050505DB
:10498000070508080808020202020A0A08080404C7
:1049900004040101010101010101030303030303F5
:1049A0000303040707070C0C0C0C0C0C0C0C020284
:1049B000020206060606060606060B0B0B0B0B0B81
:1049C0000B0B01021020200808102040102040800E
:1049D00002010201080402010102040810204080C3
:1049E0008040201008040201800402018040201051
:1049F000080402010804020101020408102040809A
:104A0000010204081020408000000A0B02090C0D6E
:104A10000E08070304010000000000000000000071
:104A20000000000000000000000000000000000086
:104A30000000000012111000000000000000000043
:104A400000000000000000000000000000004669B7
:104A50006C2E204469612E20310046696C2E204462
:104A600069612E2031004F6666004F6E20004F6650
:104A700066004F6E20004520696E206D6D33004347
:104A80006F6E74726F6C004C434420636F6E74726F
:104A9000617374004D3234004D323320257300F9B8
:104AA0002E2E004D61696E0053746F7265206D6526
:104AB0006D6F72790042656400426564004E6F7AE2
:104AC0007A6C65004E6F7A7A6C650046616E207371
:104AD000706565640046616E20737065656400549E
:104AE000656D70657261747572650053746F72657F
:104AF000206D656D6F7279004265640042656400E7
:104B00004E6F7A7A6C65004E6F7A7A6C65004661FA
:104B10006E2073706565640046616E207370656514
:104B2000640054656D7065726174757265004E4104
:104B30004E494E495459494E46CDCCCC3D0AD72317
:104B40003C17B7D13877CC2B329595E6241FB14F5F
:104B50000A000020410000C84200401C4620BCBEA4
:104B60004CCA1B0E5AAEC59D74002101630111246D
:104B70001FBECFEFD1E2DEBFCDBF00E00CBF15E01E
:104B8000A0E0B2E0E0E0F2E302E00BBF02C0079079
:104B90000D92AA34B107D9F725E1AAE4B5E001C026
:104BA0001D92A235B207E1F715E2C6EBD5E200E0AF
:104BB00006C021970109802FFE010F94140CC53BFC
:104BC000D10780E00807A9F70F9482050D94EE182D
:104BD0000C9400002F923F924F925F926F927F92BF
:104BE0008F929F92AF92BF92CF92DF92EF92FF92FD
:104BF0000F931F93CF93DF93CDB7DEB7CE56D1403F
:104C00000FB6F894DEBF0FBECDBF87E40E943F65AC
:104C1000F82E882311F40C945B3B0E9465650F9479
:104C2000A50D6C31710509F48CC19CF462307105DD
:104C300009F428C124F477FF3DC00C94165E63305C
:104C4000710509F42BC16430710509F433C10C946A
:104C5000165E6A35710511F40C94F63AFCF46D3168
:104C6000710509F4A9C46E31710511F00C94165E3A
:104C70000E9476AE0E94366380E090E0A0EFB3E43D
:104C80008093890290938A02A0938B02B0938C0246
:104C90000E942B64EFE8F8E00C949A3A6B357105AA
:104CA00011F40C94FA3A6C35710511F40C94FF3A36
:104CB0000C94165E8091551481110C94165E0E941E
:104CC00059F582EF94E10E94F1F00E94AAF96093F5
:104CD0001715709318158093191590931A158090D5
:104CE000F2149090F314A090F414B090F514CF5DEA
:104CF000DE4F88829982AA82BB82C152D140A5012F
:104D000094016091220C7091230C8091240C90915D
:104D1000250C0F947C154090F6145090F714609079
:104D2000F8147090F914E090FA14F090FB140091CC
:104D3000FC141091FD14CB5DDE4FE882F9820A83EA
:104D40001B83C552D14081117EC0A30192016091A5
:104D5000260C7091270C8091280C9091290C0F94AF
:104D60007C15811170C020E030E040E752E4609192
:104D7000890270918A0280918B0290918C020F942B
:104D8000330D4B015C0185E89EE09F938F93AEEF5E
:104D9000CA2EA4E1DA2ECB5DDE4FE880F9800A81CD
:104DA0001B81C552D140A3019201CF5DDE4F6881C6
:104DB00079818A819B81C152D1400E9408980F90CD
:104DC0000F908091F2149091F314A091F414B0918B
:104DD000F5148093220C9093230CA093240CB09391
:104DE000250C8091F6149091F714A091F814B091CD
:104DF000F9148093260C9093270CA093280CB09361
:104E0000290C8091FA149091FB14A091FC14B0919C
:104E1000FD1480932A0C90932B0CA0932C0CB09330
:104E20002D0C8091FE149091FF14A0910015B0916B
:104E3000011580932E0C90932F0CA093300CB093FF
:104E4000310C0C94165E6091910270919202072EC3
:104E5000000C880B990B0F948315209189023091D7
:104E60008A0240918B0250918C020F946D1020E0C9
:104E700030E040E752E40F94330D20E030E048EC9E
:104E800052E47DCF8091551481110C94165E0E94DE
:104E9000DEF581E00E94A3F10C94165E809155141A
:104EA00081110C94165E0E94DEF580E00E94A3F151
:104EB0000C94165E8DE199E00E9462BB80E50E9431
:104EC0003F65882339F00E9465650F94AC0D6B0136
:104ED0007C0103C0C12CD12C760183E50E943F6583
:104EE000882361F00E94656520E030E04AE754E4E1
:104EF0000F946D100F94AC0D6B017C010E9476AE87
:104F00000E94AAF9C60ED71EE81EF91E0E94AAF931
:104F100060931715709318158093191590931A15AF
:104F20000E94AAF96C157D058E059F0510F00C9462
:104F3000165E0E941BC880E00E94E0EE0E9499BBB2
:104F4000EFCF80E090E0A0E8BFE380932102909350
:104F50002202A0932302B093240210922502109201
:104F60002602109227021092280210922902109213
:104F70002A0210922B0210922C0210922D021092F3
:104F80002E0210922F0210923002809331029093E1
:104F90003202A0933302B093340210923502109281
:104FA0003602109237021092380210923902109293
:104FB0003A0210923B0210923C0210923D02109273
:104FC0003E0210923F021092400280934102909361
:104FD0004202A0934302B0934402809189029091CF
:104FE0008A02A0918B02B0918C028093520590931B
:104FF0005305A0935405B09355058091910290916B
:105000009202909351058093500584E690E090932E
:105010009202809391020E94AAF9609317157093EF
:1050200018158093191590931A1511E0109320020A
:105030008091220C9091230CA091240CB091250C0E
:105040008093F2149093F314A093F414B093F51496
:105050008091260C9091270CA091280CB091290CDE
:105060008093F6149093F714A093F814B093F91466
:1050700080912A0C90912B0CA0912C0CB0912D0CAE
:105080008093FA149093FB14A093FC14B093FD1436
:1050900080912E0C90912F0CA091300CB091310C7E
:1050A0008093FE149093FF14A0930015B093011504
:1050B0001092890210928A0210928B0210928C0236
:1050C00088E50E943F65882311F080E009C089E5EA
:1050D0000E943F658111F9CF8AE50E943F658127D3
:1050E0008093010281110C94195E88E50E943F654E
:1050F00081110C94195E8091010281110C941F5E44
:1051000089E50E943F6581110C941F5E88E50E942D
:105110003F658823D1F00E945A65672B682B692B65
:10512000A1F00E9465652091D1143091D214409174
:10513000D3145091D4140F94390C6093220C7093B3
:10514000230C8093240C9093250C89E50E943F65E5
:105150008823D1F00E945A65672B682B692BA1F038
:105160000E9465652091D5143091D6144091D714D2
:105170005091D8140F94390C6093260C7093270C1F
:105180008093280C9093290C80910102882309F4C4
:10519000A8C080E090E0A4E1B3E48093F21490937F
:1051A000F314A093F414B093F51480E090E0A3E21C
:1051B000B3E48093F6149093F714A093F814B0938B
:1051C000F914E0E1F8E4E4910DEFE002F0011124BC
:1051D000BF01FF0F880B990B0F9483156093FA148E
:1051E0007093FB148093FC149093FD1480E090E086
:1051F000A5E0B3E48093890290938A02A0938B0286
:10520000B0938C0210922A0C10922B0C10922C0C42
:1052100010922D0C2091260C3091270C4091280CD7
:105220005091290C6091220C7091230C8091240CD8
:105230009091250CE12CF12C87010E9451808090E7
:10524000890290908A02A0908B02B0908C02E0902C
:10525000FA14F090FB140091FC141091FD142091AD
:10526000F6143091F7144091F8145091F9146091AC
:10527000F2147091F3148091F4149091F514E5E810
:10528000FEE0FF93EF93FEEFCF2EF4E1DF2E0E94BE
:1052900008980E9476AE8091F2149091F314A09138
:1052A000F414B091F5148093220C9093230CA093E6
:1052B000240CB093250C8091F6149091F714A091D2
:1052C000F814B091F9148093260C9093270CA093B6
:1052D000280CB093290C82E090E00E9420E50F900A
:1052E0000F908AE50E943F65882309F4F5C08091FC
:1052F0007A0A882309F4A8C080917B0A882309F4DC
:10530000A3C08090220C9090230CA090240CB0900D
:10531000250C20E030E048EB51E4C501B4010F94C6
:10532000380C6B017C0120E030E0A9010F94990E4C
:1053300087FDADC020E030E04AE753E4C701B60185
:105340000F947C1518160CF4A2C04090260C5090B7
:10535000270C6090280C7090290C20E030E040EE83
:1053600051E4C301B2010F94380C6B017C0120E0C1
:1053700030E0A9010F94990E87FD89C020E030E04C
:1053800047E853E4C701B6010F947C1518160CF4D6
:105390007EC010922A0C10922B0C10922C0C1092A2
:1053A0002D0CE12CF12C8701A3019201C501B40160
:1053B0000E945180E0E1F8E4E4911DEFE102F00188
:1053C0001124BF01FF0F880B990B0F9483157B01EC
:1053D0008C016093FA147093FB148093FC149093E7
:1053E000FD148090B5149090B614A090B714B090AE
:1053F000B8148092890290928A02A0928B02B09295
:105400008C022091F6143091F7144091F8145091C9
:10541000F9146091F2147091F3148091F414909146
:10542000F514E5E8FEE0FF93EF93EEEFCE2EE4E116
:10543000DE2E0E9408980E9476AE82E090E00E94E4
:1054400020E50F900F9048C08BE099E00E9462BB6E
:10545000E7EEFCE08491882341F09091C00095FF35
:10546000FCCF8093C6003196F5CFE9EFF8E0849148
:10547000882341F09091C00095FFFCCF8093C60037
:105480003196F5CF8091C00085FFFCCF22C088EE19
:1054900098E00E9462BBE7EEFCE08491882341F033
:1054A0009091C00095FFFCCF8093C6003196F5CF58
:1054B000E7EDF8E08491882341F09091C00095FFDA
:1054C000FCCF8093C6003196F5CF8091C00085FF58
:1054D000FCCF8AE08093C6008AE50E943F6588235E
:1054E000D1F00E945A65672B682B692BA1F00E94AE
:1054F00065652091D9143091DA144091DB145091F4
:10550000DC140F94390C60932A0C70932B0C80934D
:105510002C0C90932D0C8091010281110C94255E2E
:105520008AE50E943F6581110C94255EE0902A0C6B
:10553000F0902B0C00912C0C10912D0C2091260C2E
:105540003091270C4091280C5091290C6091220C2D
:105550007091230C8091240C9091250C0E94518015
:10556000109220028091520590915305A09154050C
:10557000B09155058093890290938A02A0938B0283
:10558000B0938C02809150059091510590939202B6
:10559000809391020E94AAF96093171570931815D1
:1055A0008093191590931A1510928F0A10928E0AF3
:1055B00010928D0A0C94165E80917A0A882321F04D
:1055C00080917B0A811127C085EC98E00E9462BB24
:1055D000E7EEFCE08491882341F09091C00095FFB4
:1055E000FCCF8093C6003196F5CFE3EBF8E08491D1
:1055F000882341F09091C00095FFFCCF8093C600B6
:105600003196F5CF8091C00085FFFCCF8AE0809372
:10561000C6000C94165E0E9476AE80E090E0A0E892
:10562000BFE38093210290932202A0932302B093C0
:105630002402109225021092260210922702109244
:1056400028021092290210922A0210922B02109224
:105650002C0210922D0210922E0210922F02109204
:1056600030028093310290933202A0933302B093C0
:1056700034021092350210923602109237021092C4
:1056800038021092390210923A0210923B021092A4
:105690003C0210923D0210923E0210923F02109284
:1056A00040028093410290934202A0934302B09340
:1056B0004402CE018F5E9E4F0E941897CF5EDE4F50
:1056C000688179818A819B81C151D1406093220C8C
:1056D0007093230C8093240C9093250CCB5EDE4FAB
:1056E000288139814A815B81C551D1402093260CA4
:1056F0003093270C4093280C5093290CC75EDE4F43
:10570000E880F9800A811B81C951D140E0922A0CBE
:10571000F0922B0C00932C0C10932D0C0E945180B6
:105720000E94366380E090E0A0EFB3E480938902AA
:1057300090938A02A0938B02B0938C02612C712CFF
:10574000212C312C22E330E0C35CDE4F39832883E7
:10575000CD53D1404BE450E0C75DDE4F59834883C1
:10576000C952D14082E390E0CF5DDE4F99838883B8
:10577000C152D140C35DDE4F1882CD52D140882442
:105780008394912C8C0E9D1E860C971CCB5DDE4F56
:1057900099828882C552D140C15DDE4F398228820C
:1057A000CF52D140412C512CC35CDE4FA880B98030
:1057B000CD53D1400B2C000CCC08DD08C75CDE4F6C
:1057C000A882B982CA82DB82C953D140C15DDE4F53
:1057D000C880D980CF52D140CD2889F020E030E078
:1057E00040E450E460912A0C70912B0C80912C0CB9
:1057F00090912D0C0F94390C6B017C0105C0C12CCC
:10580000D12CB0E4EB2EFE2CC75CDE4F6881798191
:105810008A819B81C953D1400F948315CF5CDE4FA1
:10582000688379838A839B83C153D140CF5DDE4FE8
:1058300088809980C152D140B401990C880B990B92
:105840000F9483154B015C012091260C3091270C9D
:105850004091280C5091290C6091220C7091230CDE
:105860008091240C9091250C870176010E9462633F
:10587000C0902A0CD0902B0CE0902C0CF0902D0CAA
:1058800020E030E040EE51E4CF5CDE4F688179816A
:105890008A819B81C153D1400F94390CCB5CDE4F80
:1058A000688379838A839B83C553D14020E030E0AD
:1058B00048EB51E4C501B4010F94390C870176011E
:1058C000CB5CDE4F288139814A815B81C553D14051
:1058D0000E9462630E942B64C0902A0CD0902B0C13
:1058E000E0902C0CF0902D0CE7E1F3E084918823FC
:1058F00041F09091C00095FFFCCF8093C600319697
:10590000F5CFE2E1F3E08491882341F09091C0006B
:1059100095FFFCCF8093C6003196F5CF42E0C501DC
:10592000B4010E94E072EDE0F3E08491882341F03D
:105930009091C00095FFFCCF8093C6003196F5CFC3
:1059400042E0CF5CDE4F688179818A819B81C153BF
:10595000D1400E94E072E8E0F3E08491882341F0B6
:105960009091C00095FFFCCF8093C6003196F5CF93
:1059700042E0C701B6010E94E072E6E0F3E08491E4
:10598000882341F09091C00095FFFCCF8093C60022
:105990003196F5CFF201E60DF71D09EC10E00C0F82
:1059A0001D1FE00FF11FC082D182E282F382CB5D26
:1059B000DE4FA881B981C552D1408D929D92AD92A2
:1059C000BD92CB5DDE4FB983A883C552D140CF5C79
:1059D000DE4F88809980AA80BB80C153D1409096C9
:1059E0008D929D92AD92BC929397FD01EC5BFF4F1F
:1059F000812C912CA0E8AA2EAFE3BA2E808291824E
:105A0000A282B382C15DDE4F08811981CF52D1409D
:105A10000F5F1F4FC15DDE4F19830883CF52D14006
:105A2000CF5DDE4F88809980C152D140C75DDE4F87
:105A3000A880B980C952D1408A0C9B1CCF5DDE4F33
:105A400099828882C152D14004E0400E511C1CE072
:105A50004116510409F0BACE23E0220E311CC35C7A
:105A6000DE4F48815981CD53D1404B5A5F4FC35CC3
:105A7000DE4F59834883CD53D14059E02516310478
:105A8000B9F1C35DDE4F8880CD52D140811017C07F
:105A900005EB1FEFC75DDE4F19830883C952D14064
:105AA00028EC30E0CF5DDE4F39832883C152D140EE
:105AB00031E0C35DDE4F3883CD52D14015C04BE499
:105AC00050E0C75DDE4F59834883C952D14082E31D
:105AD00090E0CF5DDE4F99838883C152D140C35D92
