:100000000C94F10E0C94220F0C94220F0C94220FDE
:100010000C94220F0C94220F0C94220F0C94220F9C
:100020000C94220F0C94220F0C94220F0C94220F8C
:100030000C94220F0C9471BF0C94220F0C94220F7D
:100040000C94220F0C94B46A0C94220F0C94220F7F
:100050000C94220F0C94220F0C94C87C0C942CB995
:100060000C94220F0C948E150C94220F0C94220FDA
:100070000C94220F0C94220F0C94220F0C94220F3C
:100080000C94220F0C94220F0C94220F0C94220F2C
:100090000C94220F0C94220F0C94220F0C94220F1C
:1000A0000C94220F0C94220F0C94220F0C94220F0C
:1000B0000C94220F0C94220F0C94220F0C94220FFC
:1000C0000C94220F0C94220F0C94220F0C94220FEC
:1000D0000C94220F0C94220F0C94220F0C94220FDC
:1000E0000C94220F267D357D517D607D7A7D897D42
:1000F000A37DA77DA97DAD7DB57D6DBA72BA77BAB6
:1001000081BA8BBA04BB95BA9DBAA5BAAFBAB9BACF
:10011000C3BAD2BADCBA04BBE6BAF0BAFABA26BBA2
:1001200029BB18BB1CBB22BB60BB2DBB31BB37BB83
:100130003BBB3FBB45BB49BB4DBB60BB53BB57BB88
:100140005BBB084AD73B3BCE016E84BCBFFDC12FD1
:100150003D6C74319ABD56833DDA3D00C77F11BEB8
:10016000D9E4BB4C3E916BAAAABE000000803F05BB
:10017000A84CCDB2D44EB93836A9020C50B99186EC
:1001800088083CA6AAAA2ABE000000803F00486159
:100190007264636F6465642044656661756C742085
:1001A00053657474696E6773204C6F616465640095
:1001B00053746F7265642073657474696E6773201D
:1001C0007265747269657665640020440020490098
:1001D0002020204D33303120500050494420736599
:1001E0007474696E67733A00205A00205900202009
:1001F0004D323036205800486F6D65206F6666734B
:10020000657420286D6D293A00204500205A002091
:10021000580020420020540020204D323035205319
:1002200000416476616E6365642076617269616223
:100230006C65733A20533D4D696E20666565647246
:1002400061746520286D6D2F73292C20543D4D69F4
:100250006E2074726176656C206665656472617487
:100260006520286D6D2F73292C20423D6D696E69C4
:100270006D756D207365676D656E742074696D654D
:1002800020286D73292C20583D6D6178696D756D3E
:10029000205859206A65726B20286D6D2F73292CA8
:1002A00020205A3D6D6178696D756D205A206A6510
:1002B000726B20286D6D2F73292C2020453D6D61B8
:1002C00078696D756D2045206A65726B20286D6DAB
:1002D0002F73290020540020204D32303420530049
:1002E000416363656C65726174696F6E3A20533D5A
:1002F000616363656C65726174696F6E2C20543D37
:100300007265747261637420616363656C657261A8
:1003100074696F6E00204500205A0020590020208B
:100320004D3230312058004D6178696D756D204136
:100330006363656C65726174696F6E20286D6D2FE3
:100340007332293A00204500205A0020590020200D
:100350004D3230332058004D6178696D756D2066DF
:10036000656564726174657320286D6D2F73293A19
:1003700000204500205A0020590020204D3932200D
:10038000580053746570732070657220756E6974BF
:100390003A0053657474696E67732053746F7265A5
:1003A000640053544F505045442E20005072696EE3
:1003B0007465722073746F70706564206475652055
:1003C000746F206572726F72732E20466978207484
:1003D0006865206572726F7220616E642075736546
:1003E000204D39393920746F2072657374617274CD
:1003F0002E202854656D7065726174757265206970
:10040000732072657365742E20536574206974209F
:1004100061667465722072657374617274696E6767
:1004200029004B494C4C45442E20005072696E7493
:1004300065722068616C7465642E206B696C6C2831
:10044000292063616C6C656421006F6B00526573D9
:10045000656E643A20002200556E6B6E6F776E20D9
:10046000636F6D6D616E643A2022004368616E6750
:10047000652066696C616D656E74005A204F666612
:10048000736574203A20007A5F6D61783A20007AB3
:100490005F6D696E3A20005A204F6666736574007E
:1004A0005A204F6666736574206F6B007A5F6D61CA
:1004B000783A20007A5F6D696E3A2000795F6D614D
:1004C000783A2000795F6D696E3A2000785F6D613F
:1004D000783A2000785F6D696E3A2000205A3A0021
:1004E00020593A0020436F756E7420583A2000203E
:1004F000453A00205A3A0020593A00583A004649F5
:10050000524D574152455F4E414D453A4D61726CD7
:10051000696E20312E302E322B20446576656C6F4B
:10052000706D656E742046726F6D204172636869EC
:10053000766520534F555243455F434F44455F55C1
:10054000524C3A68747470733A2F2F6769746875E7
:10055000622E636F6D2F4D61726C696E4669726DAC
:10056000776172652F4D61726C696E2050524F54E5
:100570004F434F4C5F56455253494F4E3A312E3000
:10058000204D414348494E455F545950453A4D65C9
:100590006E64656C2045585452554445525F434F34
:1005A000554E543A3120555549443A303030303068
:1005B0003030302D303030302D303030302D303044
:1005C00030302D3030303030303030303030300A54
:1005D000004D656E64656C204F66662E004D656E3D
:1005E00064656C2072656164792E004265642064E4
:1005F0006F6E652E0020423A0020453A00543A00C2
:100600004265642048656174696E672E00486561C3
:1006100074696E6720646F6E652E0020573A002063
:10062000453A00543A0048656174696E672E2E2E73
:10063000002042403A0020403A00202F003A00209B
:100640005400202F0020423A00202F006F6B2054CE
:100650003A002569206D696E2C2025692073656339
:1006600000456E642066696C65206C697374004295
:100670006567696E2066696C65206C697374004EED
:100680006F206D6F76652E004D656E64656C20720F
:10069000656164792E00526573756D696E672070AF
:1006A00072696E74005761697420666F7220757389
:1006B00065722E2E2E00536C6565702E2E2E002531
:1006C0006920686F757273202569206D696E757475
:1006D000657300446F6E65207072696E74696E6731
:1006E0002066696C650053544F505045442E2000DD
:1006F0005072696E7465722073746F7070656420D7
:1007000064756520746F206572726F72732E204657
:10071000697820746865206572726F7220616E64FA
:1007200020757365204D39393920746F20726573D7
:10073000746172742E202854656D706572617475D1
:1007400072652069732072657365742E2053657419
:1007500020697420616674657220726573746172B9
:1007600074696E6729004E6F204C696E65204E7566
:100770006D626572207769746820636865636B7366
:10078000756D2C204C617374204C696E653A2000A5
:100790004E6F20436865636B73756D20776974686D
:1007A000206C696E65206E756D6265722C204C61DF
:1007B0007374204C696E653A2000636865636B73DF
:1007C000756D206D69736D617463682C204C617365
:1007D00074204C696E653A20004C696E65204E7538
:1007E0006D626572206973206E6F74204C61737442
:1007F000204C696E65204E756D6265722B312C2020
:100800004C617374204C696E653A20004D31313073
:1008100000446F6E6520736176696E672066696C4F
:10082000652E006F6B004D3239002020506C616ED8
:100830006E657242756666657242797465733A20B8
:10084000002046726565204D656D6F72793A200013
:100850004D6179203131203230313600436F6D7077
:10086000696C65643A200028444959452C204C6540
:10087000616453637265772900207C204175746838
:100880006F723A20004D617920313120323031369B
:100890002031383A35313A353700204C61737420B5
:1008A000557064617465643A200020312E302E3218
:1008B0002B004D61726C696E0020536F6674776116
:1008C00072652052657365740020576174636864B3
:1008D0006F67205265736574002042726F776E20D7
:1008E0006F75742052657365740020457874657265
:1008F0006E616C20526573657400506F7765725538
:1009000070007374617274002200656E71756569A0
:100910006E672022002200656E717565696E672022
:100920002200FFFFFF0000A0400000A040000000E8
:1009300040000048430000484300004843000000D6
:1009400000000000000000000000004843000048D4
:1009500043000048430000000000000000000000C9
:10096000006563686F3A004572726F723A007C3CB2
:100970003E5E2B3D3F2F5B5D3B2C2A225C004D38B9
:100980003420582059205A20450043616E6E6F7400
:1009900020656E746572207375626469723A200016
:1009A0004D3234004D3233202573006175746F254C
:1009B000692E67006572726F722077726974696E52
:1009C0006720746F2066696C65004E6F7420534415
:1009D000207072696E74696E67002F005344207036
:1009E00072696E74696E67206279746520002E00EA
:1009F00044656C6574696F6E206661696C65642C12
:100A00002046696C653A200046696C652064656C17
:100A1000657465643A002E006F70656E20666169CA
:100A20006C65642C2046696C653A200057726974C5
:100A3000696E6720746F2066696C653A20002E002D
:100A40006F70656E206661696C65642C2046696C08
:100A5000653A20002E006F70656E206661696C65D6
:100A6000642C2046696C653A200046696C652073E9
:100A7000656C6563746564002053697A653A20008B
:100A800046696C65206F70656E65643A20002E00C3
:100A90006F70656E206661696C65642C2046696CB8
:100AA000653A20004E6F772066726573682066692C
:100AB0006C653A20004E6F7720646F696E67206620
:100AC000696C653A20002220706F730022207061EB
:100AD00072656E743A2200535542524F5554494E36
:100AE000452043414C4C207461726765743A220082
:100AF000747279696E6720746F2063616C6C207307
:100B000075622D67636F64652066696C6573207715
:100B100069746820746F6F206D616E79206C6576E2
:100B2000656C732E204D4158206C6576656C20698C
:100B3000733A0053442063617264206F6B006F70DE
:100B4000656E526F6F74206661696C656400766FC4
:100B50006C756D652E696E6974206661696C65647B
:100B600000534420696E6974206661696C002074CA
:100B70006F6F206C6F6E6720657874727573696F24
:100B80006E2070726576656E7465640020636F6CAC
:100B90006420657874727573696F6E207072657603
:100BA000656E74656400656E6473746F707320683D
:100BB00069743A205A00205A3A00656E6473746F63
:100BC0007073206869743A20590020593A00656EA4
:100BD0006473746F7073206869743A2058002058E9
:100BE0003A00656E6473746F7073206869743A209C
:100BF0000024F4D43050C38E20C2A24017828B70E0
:100C000011127A910D816CD90AA861E108C7586662
:100C100007615143061E4B5D05C145A7041A4111EA
:100C200004093D9803713931034036DB0265339185
:100C300002D4305402802E1D02632CEE01752AC5A9
:100C400001B028A001102781018F2564012B244BBE
:100C500001E0223401AC211F018D200D01801FFC19
:100C600000841EED00971DDF00B81CD200E61BC6F5
:100C700000201BBC00641AB200B219A8000A19A017
:100C8000006A189900D117910040178B00B516849F
:100C90000031167E00B31579003A157300C7146F42
:100CA0000058146A00EE1366008813630025135E73
:100CB00000C7125B006C12570015125400C111518D
:100CC0000070114F0021114B00D61049008D1047C4
:100CD000004610440002104200C00F4000800F3E4A
:100CE00000420F3C00060F3B00CB0E3800930E373E
:100CF000005C0E3500270E3400F30D3200C10D31BB
:100D000000900D3000600D2E00320D2D00050D2CD1
:100D100000D90C2B00AE0C2900850C29005C0C2797
:100D200000350C27000E0C2600E80B2400C40B2411
:100D300000A00B23007D0B23005A0B2100390B214F
:100D400000180B2000F80A1F00D90A1E00BB0A1E5B
:100D5000009D0A1D00800A1D00630A1C00470A1B33
:100D6000002C0A1B00110A1A00F7091A00DD0919E4
:100D700000C4091900AB091900920917007B091872
:100D800000630917004C09160036091600200916E1
:100D9000000A091500F5081500E0081400CC081435
:100DA00000B8081400A4081400900813007D08126D
:100DB000006B08130058081200460812003408118E
:100DC00000230811001208110001081100F007109B
:100DD00000E0071000D0071000C0071000B0070F98
:100DE00000A107100091070E0083070F0074070F82
:100DF0000065070E0057070E0049070E003B070D60
:100E0000002E070E0020070D0013070D0006070D2A
:100E100000F9060C00ED060D00E0060C00D4060CEF
:100E200000C8060C00BC060C00B0060C00A4060BA3
:100E30000099060C008D060B0082060B0077060B4E
:100E4000006C060B0061060A0057060B004C060AF0
:100E50000042060A0038060A002E060A0024060A86
:100E6000001A060A001006090007060A00FD050917
:100E700000F4050900EB050900E2050900D90509A0
:100E800000D0050900C7050900BE050900B5050821
:100E900000AD050800A50509009C0508009405089B
:100EA000008C050800840508007C0508007405080E
:100EB000006C050700650508005D0507005605087C
:100EC000004E0507004705070040050800380507E4
:100ED00000310507002A050700230507001C050649
:100EE00000160507000F05070008050600020507A4
:100EF00000FB040600F5040700EE040600E8040603
:100F000000E2040700DB040600D5040600CF040657
:100F100000C9040600C3040600BD040600B70406A9
:100F200000B1040500AC040600A6040600A00405F8
:100F3000009B04060095040500900406008A040541
:100F40000085040500800406007A04050075040588
:100F500000700405006B04050066040500610405CB
:100F6000005C04050057040500520405004D04050B
:100F70000048040500430405003E0404003A04054B
:100F80000035040500300404002C04050027040487
:100F900000230405001E0404001A040400160405BE
:100FA00000110404000D04040009040500040404F5
:100FB0000000040400FC030400F8030400F403042C
:100FC00000F0030400EC030400E8030400E403045D
:100FD00000E0030400DC030400D8030400D403048D
:100FE00000D0030400CC030400C8030300C50303BE
:100FF0000024F404D9201BC40C5C0E9804C4095FBF
:101000000265077101F405F900FB04B30048048789
:1010100000C10369005803550003034500BE023AAE
:10102000008402310053022A002902250004022014
:1010300000E4011C00C8011900AF01170098011459
:101040000084011300710110006101100051010EB4
:101050000043010D0036010B002B010B0020010B9A
:1010600000150109000C01090003010800FB00083C
:1010700000F3000800EB000700E4000600DE0006B5
:1010800000D8000600D2000600CC000500C700050D
:1010900000C2000500BD000400B9000400B5000452
:1010A00000B1000400AD000400A9000400A5000385
:1010B00000A20003009F0004009B000300980003AF
:1010C000009500020093000300900003008D0002D1
:1010D000008B0003008800020086000200840003E9
:1010E00000810002007F0002007D0002007B000200
:1010F000007900020077000100760002007400020F
:101100000072000100710002006F0002006D00011A
:10111000006C0002006A0001006900020067000123
:101120000066000100650001006400020062000129
:101130000061000100600001005F0002005D00012D
:10114000005C0001005B0001005A00010059000131
:101150000058000100570001005600010055000131
:101160000054000100530000005300010052000130
:101170000051000100500001004F0001004E00002E
:10118000004E0001004D0001004C0001004B00002A
:10119000004B0001004A0001004900010048000026
:1011A0000048000100470001004600000046000121
:1011B000004500000045000100440001004300001C
:1011C0000043000100420000004200010041000015
:1011D0000041000100400001003F0000003F00010D
:1011E000003E0000003E0001003D0000003D000107
:1011F000003C0000003C0000003C0001003B0000FF
:10120000003B0001003A0000003A000100390000F4
:1012100000390001003800000038000000380001EB
:1012200000370000003700010036000000360000E3
:1012300000360001003500000035000000350001D7
:1012400000340000003400000034000100330000CE
:1012500000330000003300010032000000320000C3
:1012600000320001003100000031000000310001B7
:10127000003000000030000000300001002F0000AE
:10128000002F0000002F0000002F0001002E0000A2
:10129000002E0000002E0001002D0000002D000097
:1012A000002D0000002D0001002C0000002C00008B
:1012B000002C0000002C0001002B0000002B00007F
:1012C000002B0000002B0001002A0000002A000073
:1012D000002A0000002A0001002900000029000067
:1012E000002900000029000000290001002800005A
:1012F000002800000028000000280000002800014D
:101300000027000000270000002700000027000041
:101310000027000100260000002600000026000033
:101320000026000000260001002500000025000026
:101330000025000000250000002500000025000118
:10134000002400000024000000240000002400000D
:1013500000240001002300000023000000230000FF
:1013600000230000002300000023000000230001F0
:1013700000220000002200000022000000220000E5
:1013800000220000002200010021000000210000D6
:1013900000210000002100000021000000210000C9
:1013A00000210001002000000020000000200000BB
:1013B00000200000002000000020000000200000AD
:1013C00000200001001F0000001F0000001F00009F
:1013D000001F0000001F0000001F0000001F000190
:1013E000001E0000001E0000001E0000001E000085
:1013F000004572723A204D415854454D50204245A7
:10140000440054656D70657261747572652068651D
:1014100061746564206265642073776974636865CC
:1014200064206F66662E204D415854454D502074FF
:101430007269676765726564202121004572723A9E
:10144000204D494E54454D50003A204578747275F0
:10145000646572207377697463686564206F66667B
:101460002E204D494E54454D502074726967676572
:101470007265642021004572723A204D41585445EE
:101480004D50003A20457874727564657220737708
:10149000697463686564206F66662E204D415854F8
:1014A000454D50207472696767657265642021003C
:1014B000202D20496E76616C6964206578747275A0
:1014C000646572206E756D6265722021005049441A
:1014D000204175746F74756E652066696E697368F6
:1014E0006564212050757420746865206C61737484
:1014F000204B702C204B6920616E64204B6420636C
:101500006F6E7374616E74732066726F6D206162AA
:101510006F766520696E746F20436F6E66696775BC
:10152000726174696F6E2E68005049442041757471
:101530006F74756E65206661696C656421207469DD
:101540006D656F75740020403A006F6B20543A004F
:101550006F6B20423A00504944204175746F747596
:101560006E65206661696C6564212054656D7065E7
:1015700072617475726520746F6F206869676800A6
:10158000204B643A2000204B693A2000204B703AEF
:10159000200020436C61737369632050494420002C
:1015A0002054753A2000204B753A2000206D617858
:1015B0003A2000206D696E3A200020643A20002015
:1015C000626961733A200070012C0190012701B01B
:1015D000012201C0011D01F00118011002130130A8
:1015E000020E016002090190020401C002FF000026
:1015F00003FA004003F5008003F000D003EB002065
:1016000004E6007004E100E004DC004005D700C0FF
:1016100005D2004006CD00D006C8008007C30030C8
:1016200008BE00F008B900C009B400B00AAF00B0AD
:101630000BAA00D00CA500000EA000500F9B00C00C
:101640001096005012910000148C00C0158700B055
:10165000178200B0197D00D01B7800001E73004077
:10166000206E0090226900F024640040275F009003
:10167000295A00E02B5500102E500020304B00104E
:10168000324600E033410090353C0010373700709F
:10169000383200A0392D00B03A2800A03B2300606A
:1016A0003C1E00103D1900903D1400103E0F0070CC
:1016B0003E0A00C03E0500003F0000436172642006
:1016C00072656D6F766564004361726420696E7344
:1016D0006572746564004D333030205336393820DC
:1016E00050323030004D33303020533635392050B1
:1016F000323030002D2D3A2D2D002D2D2D0053444C
:1017000000205900012000012000426162797374B9
:10171000657070696E672058004261627973746504
:101720007070696E672059004261627973746570E8
:1017300070696E67205A004D363030004368616E24
:1017400067652066696C616D656E740042616279DF
:1017500073746570205A00426162797374657020F9
:1017600059004261627973746570205800466C6F4D
:1017700077203000466C6F77203000466C6F770022
:10178000466C6F770046616E207370656564004635
:10179000616E207370656564004265640042656433
:1017A000004E6F7A7A6C65004E6F7A7A6C650053E2
:1017B00070656564005370656564004D61696E0015
:1017C0005072656865617420504C41204265640028
:1017D0005072656865617420504C41203100507230
:1017E0006570617265005072656865617420414280
:1017F00053204265640050726568656174204142FF
:1018000053203100507265706172650058005900B4
:101810005A00457874727564657200457874727503
:10182000646572004D6F7665205A004D6F766520B5
:1018300059004D6F76652058004D6F7665206178B0
:101840006973004D6F766520302E316D6D004D6FE0
:10185000766520316D6D004D6F76652031306D6D90
:101860000050726570617265004D6F766520617819
:101870006973004D38300053776974636820706F66
:10188000776572206F6E004D38310053776974634D
:101890006820706F776572206F666600436F6F6CAB
:1018A000646F776E005072656865617420414253C1
:1018B000005072656865617420504C410053657436
:1018C00020686F6D65206F666673657473004732BC
:1018D00038004175746F20686F6D65004D383400B5
:1018E00044697361626C65207374657070657273AE
:1018F000004D61696E0053746F7265206D656D6F88
:1019000072790042656400426564004E6F7A7A6CB9
:1019100065004E6F7A7A6C650046616E2073706563
:1019200065640046616E2073706565640054656D82
:1019300070657261747572650053746F7265206DA5
:10194000656D6F72790042656400426564004E6F98
:101950007A7A6C65004E6F7A7A6C650046616E200B
:1019600073706565640046616E2073706565640020
:1019700054656D706572617475726500507265684A
:101980006561742041425320636F6E66005072653A
:101990006865617420504C4120636F6E6600504949
:1019A000442D43005049442D43005049442D4400E8
:1019B0005049442D44005049442D49005049442D7C
:1019C00049005049442D50005049442D50002002F8
:1019D0002046616374002002204661637400200287
:1019E000204D6178002002204D6178002002204DBA
:1019F000696E002002204D696E004F6666004F6ED2
:101A000020004F6666004F6E20004175746F74654C
:101A10006D700046616E2073706565640046616E8E
:101A20002073706565640042656400426564004E21
:101A30006F7A7A6C65004E6F7A7A6C6500436F6ED0
:101A400074726F6C004573746570732F6D6D004513
:101A500073746570732F6D6D005A73746570732F96
:101A60006D6D005A73746570732F6D6D00597374CA
:101A70006570732F6D6D005973746570732F6D6D84
:101A8000005873746570732F6D6D005873746570B2
:101A9000732F6D6D00412D72657472616374004126
:101AA0002D7265747261637400416D617820650008
:101AB000416D6178206500416D6178207A00416D4B
:101AC0006178207A00416D6178207900416D6178FC
:101AD000207900416D6178207800416D617820782F
:101AE000005654726176206D696E005654726176AC
:101AF000206D696E00566D696E00566D696E0056F8
:101B00006D6178206500566D6178206500566D61C5
:101B100078207A00566D6178207A00566D617820C1
:101B20007900566D6178207900566D6178207800D3
:101B3000566D617820780056652D6A65726B005687
:101B4000652D6A65726B00567A2D6A65726B005658
:101B50007A2D6A65726B005678792D6A65726B0012
:101B60005678792D6A65726B00416363656C00413C
:101B70006363656C00436F6E74726F6C0046696CD2
:101B80002E204469612E20310046696C2E20446964
:101B9000612E2031004F6666004F6E20004F666652
:101BA000004F6E20004520696E206D6D3300436F3D
:101BB0006E74726F6C00526573746F72652066612B
:101BC000696C73616665004C6F6164206D656D6F53
:101BD00072790053746F7265206D656D6F72790054
:101BE00046696C616D656E74004D6F74696F6E004F
:101BF00054656D7065726174757265004D61696ED2
:101C0000004D383420582059205A2045004D323498
:101C1000004D323320257300052E2E004D61696E74
:101C2000004E6F2053442063617264005072696EED
:101C3000742066726F6D2053440053746F7020706F
:101C400072696E7400526573756D65207072696E8D
:101C500074005061757365207072696E7400436F13
:101C60006E74726F6C0050726570617265005475AD
:101C70006E6500496E666F2073637265656E000065
:101C8000000A0B02090C0D0E0807030401000000F6
:101C90000000000000000000000000000000000044
:101CA0000000000000000000000000121110000001
:101CB0000000000000000000000000000000000024
:101CC0000000000000010210202008081020401031
:101CD00020408002010201080402010102040810F0
:101CE000204080804020100804020180040201800E
:101CF0004020100804020108040201010204081037
:101D000020408001020408102040800505050507D9
:101D10000508080808020202020A0A080804040466
:101D20000401010101010101010303030303030392
:101D300003040707070C0C0C0C0C0C0C0C02020221
:101D40000206060606060606060B0B0B0B0B0B0B14
:101D50000B000020002300260029002C002F003259
:101D60000000010000030106010901000022002516
:101D70000028002B002E0031003400020100000575
:101D80000108010B0100002100240027002A002D7A
:101D9000003000330001010000040107010A0102C4
:101DA0004E414E494E495459494E46CDCCCC3D0A40
:101DB000D7233C17B7D13877CC2B329595E6241F23
:101DC000B14F0A000020410000C84200401C4620DC
:101DD000BCBE4CCA1B0E5AAEC59D7400DD3AE1A6CE
:101DE000E13A11241FBECFEFD1E2DEBFCDBF00E04C
:101DF0000CBF14E0A0E0B2E0E6E8F6E901E00BBFBA
:101E000002C007900D92A03BB107D9F722E1A0EBE9
:101E1000B4E001C01D92AD37B207E1F71DE1C0EE9D
:101E2000DDE100E006C022970109FE010BBF0E9420
:101E3000DEC4CC3DD10780E00807A9F70E94D1BFDE
:101E40000C9432CB0C940000EF92FF920F931F93EF
:101E5000CF93DF931F92CDB7DEB78C017B01460F86
:101E6000F70161917F01F8018081918149830E948E
:101E70007BCAF80180819181019691838083498199
:101E80004E11EECF0F90DF91CF911F910F91FF90E8
:101E9000EF900895EF92FF920F931F93CF93DF93EC
:101EA0001F92CDB7DEB78C017B01460FF801808110
:101EB000918149830E9473CAF70181937F01F801E0
:101EC0008081918101969183808349814E11EECF6B
:101ED0000F90DF91CF911F910F91FF90EF90089598
:101EE0000F931F93CF93DF93CDB7DEB72C970FB629
:101EF000F894DEBF0FBECDBF80E390E3A0E3B0E077
:101F00008D839E83AF83B88704E610E01C870B8720
:101F100044E0BE016B5F7F4FCE010B9695DF40E141
:101F20006BE171E1CE010B968FDF40E16BE271E175
:101F3000CE010B9689DF40E16BE071E1CE010B969B
:101F400083DF44E063E071E1CE010B967DDF44E086
:101F50006FEF70E1CE010B9677DF44E067E071E14F
:101F6000CE010B9671DF44E06FEE70E1CE010B966F
:101F70006BDF44E06BE371E1CE010B9665DF44E07B
:101F80006BEF70E1CE010B965FDF44E067EF70E12D
:101F9000CE010B9659DF44E063EF70E1CE010B9662
:101FA00053DF4CE063E277E0CE010B964DDF42E079
:101FB00061E472E1CE010B9647DF42E06FE372E12C
:101FC000CE010B9641DF42E06DE372E1CE010B964C
:101FD0003BDF42E06BE372E1CE010B9635DF42E07E
:101FE00069E372E1CE010B962FDF42E067E372E115
:101FF000CE010B9629DF44E060E177E0CE010B963D
:1020000023DF44E062E672E0CE010B961DDF44E080
:102010006EE572E0CE010B9617DF44E06AE572E0F0
:10202000CE010B9611DF80E290E09A87898742E02B
:10203000BE01675F7F4FCE010B9606DF41E06FE385
:1020400077E0CE010B9600DF44E061E272E0CE0162
:102050000B96FADE86E591E3A3E3B0E089839A83E9
:10206000AB83BC831C870B8744E0BE016F5F7F4F4F
:10207000CE010B96E9DEE1E6F9E08491882341F098
:102080009091C00095FFFCCF8093C6003196F5CFAC
:10209000E2E9F3E08491882341F09091C00095FF3C
:1020A000FCCF8093C6003196F5CF8091C00085FFAC
:1020B000FCCF8AE08093C6002C960FB6F894DEBF62
:1020C0000FBECDBFDF91CF911F910F910895CF9398
:1020D000DF93C1E6D9E0FE018491882341F090911D
:1020E000C00095FFFCCF8093C6003196F5CFE2E8A3
:1020F000F3E08491882341F09091C00095FFFCCFDC
:102100008093C6003196F5CF8091C00085FFFCCF4B
:102110008AE08093C600FE018491E1E6F9E088231D
:1021200049F09091C00095FFFCCF8093C600319696
:102130008491F5CF40911B1150911C1160911D119C
:1021400070911E118AE793E00E94261940911F1199
:1021500050912011609121117091221187E793E035
:102160000E9426194091231150912411609125114C
:102170007091261184E793E00E942619409127115F
:10218000509128116091291170912A1181E793E0F3
:102190000E9426198091C00085FFFCCF8AE08093C1
:1021A000C600FE018491E1E6F9E0882349F09091B0
:1021B000C00095FFFCCF8093C60031968491F5CF87
:1021C000E7E5F3E08491882341F09091C00095FF0A
:1021D000FCCF8093C6003196F5CF8091C00085FF7B
:1021E000FCCF8AE08093C600FE018491E1E6F9E02D
:1021F000882349F09091C00095FFFCCF8093C600E2
:1022000031968491F5CF40912B1150912C11609112
:102210002D1170912E118EE493E00E9426194091A9
:102220002F115091301160913111709132118BE466
:1022300093E00E942619409133115091341160911E
:1022400035117091361188E493E00E94261940916F
:102250003711509138116091391170913A1185E41C
:1022600093E0F4D78091C00085FFFCCF8AE0809393
:10227000C600FE018491E1E6F9E0882349F09091DF
:10228000C00095FFFCCF8093C60031968491F5CFB6
:10229000E7E2F3E08491882341F09091C00095FF3C
:1022A000FCCF8093C6003196F5CF8091C00085FFAA
:1022B000FCCF8AE08093C600FE018491E1E6F9E05C
:1022C000882349F09091C00095FFFCCF8093C60011
:1022D00031968491F5CF40910B1150910C11609182
:1022E0000D1170910E118EE193E0C1D740910F1145
:1022F0005091101160911111709112118BE193E0C6
:10230000B6D740911311509114116091151170912D
:10231000161188E193E0ABD7409117115091181135
:102320006091191170911A1185E193E0A0D7809105
:10233000C00085FFFCCF8AE08093C600FE01849137
:10234000E1E6F9E0882349F09091C00095FFFCCFC9
:102350008093C60031968491F5CFE0EEF2E084914F
:10236000882341F09091C00095FFFCCF8093C60078
:102370003196F5CF8091C00085FFFCCF8AE0809335
:10238000C600FE018491E1E6F9E0882349F09091CE
:10239000C00095FFFCCF8093C60031968491F5CFA5
:1023A0004091031150910411609105117091061133
:1023B00087ED92E04BD74091FF1050910011609152
:1023C00001117091021184ED92E040D78091C0001C
:1023D00085FFFCCF8AE08093C600FE018491E1E690
:1023E000F9E0882349F09091C00095FFFCCF8093DD
:1023F000C60031968491F5CFE1E2F2E08491882322
:1024000041F09091C00095FFFCCF8093C6003196BB
:10241000F5CF8091C00085FFFCCF8AE08093C60095
:10242000FE018491E1E6F9E0882349F09091C00033
:1024300095FFFCCF8093C60031968491F5CF4091F3
:102440000711509108116091091170910A1188E1EA
:1024500092E0FCD64091EF105091F0106091F11095
:102460007091F21085E192E0F1D640913B115091CC
:102470003C1160913D1170913E1182E192E0F7D6DE
:102480004091FB105091FC106091FD107091FE1076
:102490008FE092E0DBD64091F7105091F8106091F8
:1024A000F9107091FA108CE092E0D0D64091F310C0
:1024B0005091F4106091F5107091F61089E092E05F
:1024C000C5D68091C00085FFFCCF8AE08093C6000E
:1024D000FE018491E1E6F9E0882349F09091C00083
:1024E00095FFFCCF8093C60031968491F5CFE7EF3E
:1024F000F1E08491882341F09091C00095FFFCCFDA
:102500008093C6003196F5CF8091C00085FFFCCF47
:102510008AE08093C600FE018491E1E6F9E0882319
:1025200049F09091C00095FFFCCF8093C600319692
:102530008491F5CF4091230750912407609125079E
:10254000709126078EEE91E081D640912707509139
:1025500028076091290770912A078BEE91E076D6C3
:1025600040912B0750912C0760912D0770912E07F9
:1025700088EE91E06BD68091C00085FFFCCF8AE0A9
:102580008093C600FE018491E1E6F9E0882349F0DA
:102590009091C00095FFFCCF8093C6003196849146
:1025A000F5CFEAEDF1E08491882341F09091C000ED
:1025B00095FFFCCF8093C6003196F5CF8091C00087
:1025C00085FFFCCF8AE08093C600FE01C491E1E65E
:1025D000F9E0CC2349F08091C00085FFFCCFC09387
:1025E000C6003196C491F5CF4091620250916302CA
:1025F000609164027091650280ED91E027D6609150
:102600005E0270915F0280916002909161020E946F
:10261000607EAB01BC018DEC91E018D660915A024E
:1026200070915B0280915C0290915D020E946C7ED1
:10263000AB01BC018AEC91E009D68091C00085FF16
:10264000FCCF8AE08093C600DF91CF910895AF92CE
:10265000BF92CF92DF92EF92FF920F931F93CF938F
:10266000DF93CDB7DEB7E0970FB6F894DEBF0FBEAD
:10267000CDBF80E1EFE7F2E0DE01919601900D928F
:102680008A95E1F780E1EFE8F2E0DE0151960190F2
:102690000D928A95E1F780E1EFE9F2E0DE01119613
:1026A00001900D928A95E1F76E0181E2C80ED11C6E
:1026B0008BE1E82E81E1F82E8E010F5E1F4F6BE259
:1026C00071E1AE014F5F5F4F9BE0A92E91E1B92E02
:1026D00020E030E0F60181919191A191B1916F01DB
:1026E000F70181939193A193B1937F01F8018191B7
:1026F0009191A191B1918F01FB0181939193A1934C
:10270000B193BF01FA0181919191A191B191AF0172
:10271000F50181939193A193B1935F012F5F3F4F97
:1027200024303105B9F60E94C16980E090E0AFE243
:10273000B4E48093031190930411A0930511B09316
:1027400006118093FF1090930011A0930111B09394
:102750000211109207111092081110920911109293
:102760000A1180E29EE4A0E0B0E080933B119093D8
:102770003C11A0933D11B0933E111092EF101092B6
:10278000F0101092F1101092F21080E090E0A0E7AB
:10279000B1E48093FB109093FC10A093FD10B093D4
:1027A000FE108DEC9CECACECBEE38093F7109093A4
:1027B000F810A093F910B093FA1080E090E0A0EE2A
:1027C000B0E48093F3109093F410A093F510B093BD
:1027D000F61010922B0710922C0710922D071092D2
:1027E0002E0710922707109228071092290710929F
:1027F0002A0710922307109224071092250710929F
:10280000260784EB90E0909342128093411282E37A
:1028100090E09093401280933F128FEF90E090935E
:102820003E1280933D1220EF30E030933C12209313
:102830003B122AE530E030933A12209339129093FC
:102840003812809337128AE999E9A1EBB1E48093B9
:10285000620290936302A0936402B093650261E701
:102860007DE38AE89FE30E945A7E60935E02709344
:102870005F02809360029093610260E070E084EEFA
:1028800092E40E94667E60935A0270935B0280938A
:102890005C0290935D020E94057580E090E0A0E8E4
:1028A000BFE38093560290935702A0935802B093CF
:1028B000590210923F0780E090E0A0E4B0E48093DA
:1028C000210290932202A0932302B09324020E943B
:1028D000A024E1E6F9E08491882341F09091C000C2
:1028E00095FFFCCF8093C6003196F5CFEEE8F1E07E
:1028F0008491882341F09091C00095FFFCCF809394
:10290000C6003196F5CF8091C00085FFFCCF8AE0EC
:102910008093C600E0960FB6F894DEBF0FBECDBF21
:10292000DF91CF911F910F91FF90EF90DF90CF90AB
:10293000BF90AF900895CF93DF93CDB7DEB72C97BC
:102940000FB6F894DEBF0FBECDBF84E690E09C8743
:102950008B8786E591E3A3E3B0E089839A83AB8319
:10296000BC8344E0BE016B5F7F4FCE010B9692DAD1
:1029700043E050E0BE016B5F7F4FCE0101960E94A5
:102980003AC8892B09F0BFC040E16BE171E1CE018B
:102990000B9680DA40E16BE271E1CE010B967ADAB8
:1029A00040E16BE071E1CE010B9674DA0E94C169DF
:1029B00044E063E071E1CE010B966CDA44E06FEF26
:1029C00070E1CE010B9666DA44E067E071E1CE017A
:1029D0000B9660DA44E06FEE70E1CE010B965ADAA6
:1029E00044E06BE371E1CE010B9654DA44E06BEF07
:1029F00070E1CE010B964EDA44E067EF70E1CE0154
:102A00000B9648DA44E063EF70E1CE010B9642DAB0
:102A10004CE063E277E0CE010B963CDA42E061E401
:102A200072E1CE010B9636DA42E06FE372E1CE013D
:102A30000B9630DA42E06DE372E1CE010B962ADAB2
:102A400042E06BE372E1CE010B9624DA42E069E3E7
:102A500072E1CE010B961EDA42E067E372E1CE012D
:102A60000B9618DA44E060E177E0CE010B9612DABB
:102A700044E062E672E0CE010B960CDA44E06EE5CB
:102A800072E0CE010B9606DA44E06AE572E0CE0110
:102A90000B9600DA42E0BE01675F7F4FCE010B96D6
:102AA000F9D941E06FE377E0CE010B96F3D944E02A
:102AB00061E272E0CE010B96EDD90E94A0240E9443
:102AC0000575E1E6F9E08491882341F09091C0001A
:102AD00095FFFCCF8093C6003196F5CFE0EBF1E097
:102AE0008491882341F09091C00095FFFCCF8093A2
:102AF000C6003196F5CF8091C00085FFFCCF8AE0FB
:102B00008093C60001C0A3DDE2DA2C960FB6F894DC
:102B1000DEBF0FBECDBFDF91CF9108951F920F9200
:102B20000FB60F9211240BB60F922F933F934F9332
:102B30005F936F938F939F93EF93FF936091C60082
:102B40002091310530913205C90101968F7799277F
:102B500040913305509134058417950741F0F901F0
:102B6000EF54FB4F60839093320580933105FF91C2
:102B7000EF919F918F916F915F914F913F912F9125
:102B80000F900BBE0F900FBE0F901F9018959A01DB
:102B9000AB01211581EE38074105510549F182E06D
:102BA0008093C00060E079E08DE390E00E94ACC4C7
:102BB0002150310941095109CA01B90122E030E02F
:102BC00040E050E00E94ACC43093C5002093C400A4
:102BD0008091C10080618093C1008091C1008860B4
:102BE0008093C1008091C10080688093C1000895E6
:102BF0001092C00020E130E0E7CF20913305309102
:102C0000340580913105909132058217930771F058
:102C1000F901EF54FB4F80812F5F3F4F2F77332710
:102C2000309334052093330590E008958FEF9FEFA4
:102C300008958091330590913405909332058093E7
:102C4000310508954F925F926F927F928F929F927B
:102C5000AF92BF92CF92DF92EF92FF920F931F93AA
:102C6000CF93DF93CDB7DEB7A0970FB6F894DEBF52
:102C70000FBECDBF5C014115510561057105E9F439
:102C800020E030E040E350E060E070E0A0960FB656
:102C9000F894DEBF0FBECDBFDF91CF911F910F9192
:102CA000FF90EF90DF90CF90BF90AF909F908F906C
:102CB0007F906F905F904F905BC08E010F5F1F4FB2
:102CC000C12CD12C76014801422E512C612C712C43
:102CD0008FEFC81AD80AE80AF80ACB01BA01A30193
:102CE00092010E948AC4CA01F80161938F01A9016F
:102CF000BC01411551056105710551F7F1E0CF1A8D
:102D0000D108E108F108F401EC0DFD1D80818A3045
:102D100010F440E301C047E3480F552747FD5095A5
:102D2000652F752F20E030E0C50122D081E0C81A60
:102D3000D108E108F108EFEFCE16DE06EE06FE063A
:102D400011F7A0960FB6F894DEBF0FBECDBFDF918E
:102D5000CF911F910F91FF90EF90DF90CF90BF9098
:102D6000AF909F908F907F906F905F904F9008955D
:102D70002115310539F48091C00085FFFCCF4093C7
:102D8000C60008952A30310509F41CC05BCFCF93EB
:102D9000DF93EC0120E030E04DE050E060E070E0D7
:102DA000E7DF20E030E04AE050E060E070E0CE0194
:102DB000DF91CF91DDCF9A01AB01662757FD60957A
:102DC000762FD6CFCF92DF92EF92FF92CF93DF9301
:102DD000EC016A017B0177FF0FC020E030E04DE29B
:102DE00050E060E070E0C4DFF094E094D094C094D0
:102DF000C11CD11CE11CF11C2AE0B701A601CE01C7
:102E0000DF91CF91FF90EF90DF90CF901BCF2115F6
:102E1000310539F48091C00085FFFCCF4093C60096
:102E2000089510CF9A01462F50E060E070E0EFCF98
:102E3000CF93DF93EC019A01AB0160E070E0E7DF34
:102E4000CE01DF91CF91A3CF8F929F92AF92BF928D
:102E5000CF92DF92EF92FF921F93CF93DF93EC011B
:102E60006A017B01122F20E030E0A901C701B60101
:102E70000E94B9C087FF0CC020E030E04DE250E076
:102E800060E070E0CE0174DFF7FAF094F7F8F094A8
:102E9000B12C60E070E080E09FE3B11641F020E0EB
:102EA00030E040E251E40E94C0C0B394F6CF9B01F1
:102EB000AC01C701B6010E94E0BF6B017C010E941A
:102EC0002DC14B015C010E9459C19B01AC01C7019E
:102ED000B6010E94DFBF6B017C012AE0B501A401AD
:102EE000CE01B0DE112361F0E8E8F4E0819188239F
:102EF00039F09091C00095FFFCCF8093C600F6CFCB
:102F0000112319F120E030E040E251E4C701B6019D
:102F10000E948EC36B017C010E9428C14B01AA2430
:102F200097FCA094BA2CB501A401CE014BDFC501DA
:102F3000B4010E945BC19B01AC01C701B6010E94B4
:102F4000DFBF6B017C011150DBCFDF91CF911F916F
:102F5000FF90EF90DF90CF90BF90AF909F908F90B9
:102F6000089572CFFC0165917591859194910895B2
:102F70002F923F924F925F926F927F928F929F9289
:102F8000AF92BF92CF92DF92EF92FF920F931F9377
:102F9000CF93DF9300D000D0CDB7DEB71C01FC018A
:102FA000EE5DF64F14919C01220F331F220F331F49
:102FB0003E832D83215D384F4901F9011082118232
:102FC000128213822BE337E047E357E063E377E0B5
:102FD0008FE297E00E94EF688D819E818F5C964F13
:102FE000C1DF6B017C01612F772767FD7095872F0B
:102FF000972F0E945BC12B013C012D813E81245003
:10300000394F590120E030E040EC5FE3C701B601E1
:103010000E948EC3A30192010E948EC3F5016083BA
:103020007183828393832D813E81255D3D4F3C8357
:103030002B83F901608171818281938160930B02FE
:1030400070930C0280930D0290930E0220E030E00A
:1030500040E752E40E94C0C02FE0C22E27E0D22EEB
:103060007B018C0128E037E044E057E060E077E046
:103070008CEF96E00E94195F0E947772F401108233
:103080001182128213822BE337E047E357E063E3B8
:1030900077E08FE297E00E94EF682D813E812B5D03
:1030A000364F3A832983C9015DDF9058A30192010D
:1030B0000E948EC3F501608371838283938320E035
:1030C00030E040E752E460910B0270910C02809175
:1030D0000D0290910E020E94C0C07B018C0128E07D
:1030E00037E044E057E060E077E08CEF96E00E9444
:1030F000195F0E94777289819A8134DF9B01AC014C
:103100000E94E0BFA30192010E948EC3F50160837B
:1031100071838283938320E030E040E05FE3EB81C2
:10312000FC8160817181828193810E948EC3609352
:103130000B0270930C0280930D0290930E0220E01C
:1031400030E040E752E40E94C0C07B018C0128E0DF
:1031500037E044E057E060E077E08CEF96E00E94D3
:10316000195F0E9477728D819E81835C964FFADE93
:103170000D811E810D5D184FF80120813181428142
:1031800053810E94E0BFF401608371838283938343
:103190008D819E818B5A964FE5DE2D813E81295E81
:1031A000384F7901F80120813181428153810E9499
:1031B000E0BFF70160837183828393838D819E8159
:1031C000875B964FCFDE2D813E812F5E3D4F79018B
:1031D000F80120813181428153810E94E0BFF701D3
:1031E0006083718382839383F40180819181A281C2
:1031F000B381F50180839183A283B38310920B0284
:1032000010920C0210920D0210920E020E94A46AFB
:10321000F101EC5EF84F81E0808326960FB6F894BA
:10322000DEBF0FBECDBFDF91CF911F910F91FF90F9
:10323000EF90DF90CF90BF90AF909F908F907F9056
:103240006F905F904F903F902F900895FC012491D4
:10325000222341F03091C00035FFFCCF2093C600FF
:103260000196F4CF22E030E080EB94E07ACEFC01CE
:103270002491222341F03091C00035FFFCCF2093F0
:10328000C6000196F4CF2AE030E080EB94E0BFCD99
:103290002091510530915205243031050CF06AC05F
:1032A000409153055091540560E6649F9001659FDD
:1032B000300D1124BC01C901855A9A4F0E9433C8B0
:1032C000E1E6F9E08491882341F09091C00095FFF8
:1032D000FCCF8093C6003196F5CFE7E1F9E0849109
:1032E000882341F09091C00095FFFCCF8093C600E9
:1032F0003196F5CF809153059091540520E6289F93
:10330000F001299FF00D1124E55AFA4F819188238D
:1033100039F09091C00095FFFCCF8093C600F6CFA6
:10332000E5E1F9E08491882341F09091C00095FF98
:10333000FCCF8093C6003196F5CF8091C00085FF09
:10334000FCCF8AE08093C60080915305909154058C
:10335000019664E070E00E9477C4909354058093D6
:103360005305809151059091520501969093520515
:1033700080935105089520915105309152052430D4
:1033800031050CF06AC0409153055091540560E638
:10339000649F9001659F300D1124BC01C901855ABD
:1033A0009A4F0E949AC7E1E6F9E08491882341F0A0
:1033B0009091C00095FFFCCF8093C6003196F5CF69
:1033C000EAE0F9E08491882341F09091C00095FFF4
:1033D000FCCF8093C6003196F5CF80915305909134
:1033E000540520E6289FF001299FF00D1124E55A8D
:1033F000FA4F8191882339F09091C00095FFFCCF5E
:103400008093C600F6CFE8E0F9E08491882341F08C
:103410009091C00095FFFCCF8093C6003196F5CF08
:103420008091C00085FFFCCF8AE08093C600809128
:10343000530590915405019664E070E00E9477C4B2
:1034400090935405809353058091510590915205B6
:103450000196909352058093510508959898A09AEB
:103460000895269A2E980895F9DFFBDF40E950ED84
:1034700063E070E080EB94E08ADBE2E0F9E08491C5
:10348000882341F09091C00095FFFCCF8093C60047
:103490003196F5CF8091C00085FFFCCF8AE0809304
:1034A000C60081E699E0FC012491222341F030918D
:1034B000C00035FFFCCF2093C6003196F5CF24B76E
:1034C00020FF14C0EAEFF8E03491332341F040913B
:1034D000C00045FFFCCF3093C6003196F5CF309148
:1034E000C00035FFFCCF3AE03093C60021FF14C086
:1034F000EAEEF8E03491332341F04091C00045FFFB
:10350000FCCF3093C6003196F5CF3091C00035FF27
:10351000FCCF3AE03093C60022FF14C0E9EDF8E09A
:103520003491332341F04091C00045FFFCCF3093EC
:10353000C6003196F5CF3091C00035FFFCCF3AE0A0
:103540003093C60023FF14C0E9ECF8E03491332334
:1035500041F04091C00045FFFCCF3093C60031964A
:10356000F5CF3091C00035FFFCCF3AE03093C60074
:1035700025FF14C0E9EBF8E02491222341F03091BB
:10358000C00035FFFCCF2093C6003196F5CF2091C7
:10359000C00025FFFCCF2AE02093C60014BEE2EB5A
:1035A000F8E02491222341F03091C00035FFFCCF98
:1035B0002093C6003196F5CFEAEAF8E02491222361
:1035C00041F03091C00035FFFCCF2093C60031960A
:1035D000F5CF2091C00025FFFCCF2AE02093C60044
:1035E000FC012491E1E6F9E0222349F03091C0008A
:1035F00035FFFCCF2093C60031962491F5CFEAE940
:10360000F8E02491222341F03091C00035FFFCCF37
:103610002093C6003196F5CFE5E8F8E02491222307
:1036200041F03091C00035FFFCCF2093C6003196A9
:10363000F5CFE9E7F8E02491222341F03091C00072
:1036400035FFFCCF2093C6003196F5CFE7E6F8E0D2
:103650002491222341F03091C00035FFFCCF20930C
:10366000C6003196F5CF2091C00025FFFCCF2AE09F
:103670002093C600ECE5F8E02491222341F030913C
:10368000C00035FFFCCF2093C6003196F5CFE0E5B2
:10369000F8E02491222341F03091C00035FFFCCFA7
:1036A0002093C6003196F5CF2091C00025FFFCCFB6
:1036B0002AE02093C600FC018491E1E6F9E088232A
:1036C00049F09091C00095FFFCCF8093C6003196E1
:1036D0008491F5CFE1E4F8E08491882341F0909162
:1036E000C00095FFFCCF8093C6003196F5CF0E94B5
:1036F000D2454AE050E0BC0180EB94E05CDBEAE2BA
:10370000F8E08491882341F09091C00095FFFCCFB0
:103710008093C6003196F5CF4AE050E060ED74E04A
:1037200080EB94E048DB8091C00085FFFCCF8AE00D
:103730008093C600109257051092580510925905B3
:1037400010925A05F8D80E9440770E94B35D0E94FB
:10375000E3710E94F293FFEF23ED80E3F1502040EC
:103760008040E1F700C00000089580914B059091E2
:103770004C0560E070E001960C94F1C480914B051B
:1037800090914C054AE050E060E070E001960C94A6
:1037900059C6682F772767FD7095209155053091A0
:1037A000560540E6429FC001439F900D1124855A63
:1037B0009A4F0E941FC890934C0580934B0521E0BF
:1037C000892B09F420E0822F08950E9476B9609336
:1037D0004705709348058093490590934A050895DD
:1037E0000E9476B960934705709348058093490518
:1037F00090934A05E0915505F0915605E95AFA4F24
:103800008081811114C0EAE4F4E08491882341F0BE
:103810009091C00095FFFCCF8093C6003196F5CF04
:103820008091C00085FFFCCF8AE08093C600089598
:1038300080EB94E0FED9EDE4F4E08491882341F03C
:103840009091C00095FFFCCF8093C6003196F5CFD4
:103850004091E0065091E1066091E2067091E30626
:103860004F5F5F4F6F4F7F4F2AE030E080EB94E077
:103870007FDA8091C00085FFFCCF8AE08093C6008C
:10388000AFCF8F929F92AF92BF92CF92DF92EF9283
:10389000FF920F931F93CF93DF9338E1E32E34E031
:1038A000F32E0FE217E0CCEFD6E042E4C42E47E05F
:1038B000D42EF70181917F016CDF882311F155DF50
:1038C0004B015C01F6018081811103C06091DB0630
:1038D00001C061E070E080E090E00E945BC1F8010F
:1038E00020813181428153810E948EC39B01AC01B2
:1038F000C501B4010E94E0BF688379838A839B83FA
:1039000009C0F80180819181A281B3818883998364
:10391000AA83BB830C5F1F4F2496FFEFCF1ADF0AE9
:103920008CE1E81684E0F80621F686E432DF88238D
:10393000D1F01BDF6B017C016093EC067093ED0608
:103940008093EE069093EF0620E030E0A9010E94FC
:10395000BCC2181644F4C0920B02D0920C02E09242
:103960000D02F0920E02DF91CF911F910F91FF9007
:10397000EF90DF90CF90BF90AF909F908F90089581
:1039800080DF89E406DF882351F0EFDE6093F006E4
:103990007093F1068093F2069093F30608C010929C
:1039A000F0061092F1061092F2061092F3068AE4E5
:1039B000F0DE882351F0D9DE6093F4067093F506AB
:1039C0008093F6069093F70608951092F4061092ED
:1039D000F5061092F6061092F7060895CF92DF9240
:1039E000EF92FF92CF93DF93EC01C0901707D09036
:1039F0001807E0901907F0901A07A701960168814F
:103A000079818A819B810E94B9C087FF04C0C882E6
:103A1000D982EA82FB82C0901B07D0901C07E090FD
:103A20001D07F0901E07A70196016C817D818E8194
:103A30009F810E94B9C087FF04C0CC82DD82EE82E4
:103A4000FF8220E030E0A90160911F0770912007FC
:103A500080912107909122070E94E0BF6B017C01B9
:103A60009B01AC01688579858A859B850E94B9C0D8
:103A700087FF04C0C886D986EA86FB86C0901102FB
:103A8000D0901202E0901302F0901402A701960168
:103A9000688179818A819B810E94BCC2181624F4B6
:103AA000C882D982EA82FB82C0901502D0901602A9
:103AB000E0901702F0901802A70196016C817D81B9
:103AC0008E819F810E94BCC2181624F4CC82DD82B4
:103AD000EE82FF82C0901902D0901A02E0901B0281
:103AE000F0901C02A7019601688579858A859B85DF
:103AF0000E94BCC2181624F4C886D986EA86FB86C2
:103B0000DF91CF91FF90EF90DF90CF900895CF920B
:103B1000DF92EF92FF920F931F938CEF96E05EDFA0
:103B20000E9476B9609347057093480580934905D4
:103B300090934A052091FC063091FD064091FE06C7
:103B40005091FF0660912F077091300780913107E7
:103B5000909132070E94B9C0811179C0209100076D
:103B6000309101074091020750910307609133079C
:103B70007091340780913507909136070E94B9C043
:103B8000811165C020E030E040E752E460910B0213
:103B900070910C0280910D0290910E020E94C0C0A3
:103BA0005FE0C52E57E0D52E7B018C0128E037E081
:103BB00044E057E060E077E08CEF96E00E94195F08
:103BC0008091FC069091FD06A091FE06B091FF0643
:103BD00080932F0790933007A0933107B09332075B
:103BE0008091000790910107A0910207B09103070F
:103BF0008093330790933407A0933507B09336072B
:103C00008091040790910507A0910607B0910707DE
:103C10008093370790933807A0933907B0933A07FA
:103C20008091080790910907A0910A07B0910B07AE
:103C300080933B0790933C07A0933D07B0933E07CA
:103C40001F910F91FF90EF90DF90CF9008956091BA
:103C5000290270912A02882777FD8095982F0E946B
:103C60005BC120910B0230910C0240910D025091EA
:103C70000E020E948EC320E030E040E752E40E9432
:103C8000C0C020E030E048EC52E488CFAF92BF9251
:103C9000CF92DF92EF92FF920F931F93CF93DF9318
:103CA000D82F2091F4063091F5064091F6065091F8
:103CB000F7066091F0067091F1068091F2069091FE
:103CC000F3060E94C9C2C62F172F082FF92E609144
:103CD000290270912A02882777FD8095982F0E94EB
:103CE0005BC120910B0230910C0240910D0250916A
:103CF0000E020E948EC320E030E040E752E40E94B2
:103D0000C0C020E030E048EC52E40E94C0C02091E6
:103D10000F072F93DF93FF920F931F93CF935B01B6
:103D20006C0162E0E62E01E020E040EF56E06CEF2F
:103D300076E08FE297E00E948B568091FC0690918E
:103D4000FD06A091FE06B091FF0680932F07909389
:103D50003007A0933107B09332078091000790910C
:103D60000107A0910207B091030780933307909356
:103D70003407A0933507B0933607809104079091DC
:103D80000507A0910607B091070780933707909326
:103D90003807A0933907B0933A07809108079091AC
:103DA0000907A0910A07B0910B0780933B079093F6
:103DB0003C07A0933D07B0933E070E9476B96093FD
:103DC0004705709348058093490590934A050F90E5
:103DD0000F900F900F900F900F90DF91CF911F9148
:103DE0000F91FF90EF90DF90CF90BF90AF9008952C
:103DF000F8940E94E2775F9A109214078A9A1092C0
:103E000015079FB7F894809108018160809308019D
:103E10009FBF10921607129A60E08CE00E9461BB6F
:103E2000E7E6F9E08491882341F09091C00095FF86
:103E3000FCCF8093C6003196F5CFEBE2F4E084919D
:103E4000882341F09091C00095FFFCCF8093C6007D
:103E50003196F5CF8091C00085FFFCCF8AE080933A
:103E6000C60082E294E00E9490937894C6E0D0E08D
:103E7000219749F068EC70E080E090E00E94A5B9DD
:103E80000E941094F5CFF894FFCF2F923F924F925B
:103E90005F926F927F928F929F92AF92BF92CF92DA
:103EA000DF92EF92FF920F931F93CF93DF93CDB7E3
:103EB000DEB76E970FB6F894DEBF0FBECDBFA0E69B
:103EC000BA2EB4E0EB2EF12C10EFC12E16E0D12E5D
:103ED0000AE0A02E992493948091310590913205A7
:103EE0002091330530913405821B930B8F779927EE
:103EF000892B09F418C280915105909152050497BD
:103F00000CF011C280EB94E00E94FD1580935005E7
:103F100020914E0530914F058A3061F08D3051F07F
:103F20008A3321F490914D05992321F02F353105E5
:103F30000CF41BC12115310509F435C180915305DD
:103F400090915405B89E3001B99E700C1124F30174
:103F5000E20FF31FE55AFA4F108220914D0521110F
:103F6000FFC0FC01E95AFA4F10828301055A1A4F2B
:103F70006EE470E0C8010E941FC80097F1F19093B1
:103F80004C0580934B05801B910B860D971D4AE0D5
:103F900050E060E070E0845A9A4F0E9459C66093E6
:103FA000E4067093E5068093E6069093E70640905A
:103FB000E0065090E1066090E2067090E3062FEF75
:103FC000421A520A620A720A00915305109154056E
:103FD000641575058605970509F4E8C0B09EC00113
:103FE000B19E900D11246CE078E0855A9A4F0E94A2
:103FF000D1C7892B09F0DAC069C16AE270E0C80153
:104000000E941FC8892B09F444C0E7E6F9E08491B7
:10401000882341F09091C00095FFFCCF8093C600AB
:104020003196F5CFE6E6F7E08491882341F0909150
:10403000C00095FFFCCF8093C6003196F5CF40912C
:10404000E0065091E1066091E2067091E3062AE0F5
:1040500030E080EB94E00E94B8168091C00085FFAC
:10406000FCCF8AE08093C60010924F0510924E0557
:10407000C0C28091E4069091E506A091E606B09159
:10408000E7068093E0069093E106A093E206B093E2
:10409000E3068091530590915405B89E8001B99E26
:1040A000100D1124C801855A9A4F3C0167E470E055
:1040B0000E941FC8009781F190934C0580934B0597
:1040C00086199709800F911F60E070E0845A9A4F1B
:1040D0000E94F1C40E9428C164307105E8F4809107
:1040E00039058823C9F0F6018491E0EFF6E08823D2
:1040F00049F09091C00095FFFCCF8093C6003196A7
:104100008491F5CF8091C00085FFFCCFA092C600BE
:1041100086EE96E00E94839300915305109154051A
:10412000B09EC001B19E900D11246FEE72E0855AD1
:104130009A4F0E942AC8892B09F45ADEC8010196B9
:10414000B7010E9477C490935405809353058091E2
:104150005105909152050196909352058093510517
:1041600010924F0510924E05B7CE8B3311F49092FA
:104170004D0590914D059111AFCE40915305509151
:104180005405B9016F5F7F4F70934F0560934E05E3
:10419000B49EF001B59EF00D1124E20FF31FE55A15
:1041A000FA4F808399CE10924D0523C2B09E300104
:1041B000B19E700C1124C301855A9A4F1C016AE20A
:1041C00070E00E941FC8009789F5E7E6F9E0849146
:1041D000882341F09091C00095FFFCCF8093C600EA
:1041E0003196F5CFE0E9F7E08491882341F0909192
:1041F000C00095FFFCCF8093C6003196F5CF40916B
:10420000E0065091E1066091E2067091E3062AE033
:1042100030E080EB94E00E94B8168091C00085FFEA
:10422000FCCF8AE08093C60003DB1ECF20E010E0C5
:10423000F301E20FF11DE55AFA4F30813A3219F0DD
:104240002F5F1327F5CF90934C0580934B05821970
:104250009309860D971D60E070E0845A9A4F0E9482
:10426000F1C40E9428C1212F30E02617370709F436
:1042700000CFE7E6F9E08491882341F09091C000F7
:1042800095FFFCCF8093C6003196F5CFEAEBF7E0BF
:104290008491882341F09091C00095FFFCCF8093DA
:1042A000C6003196F5CF4091E0065091E10660914D
:1042B000E2067091E3062AE030E080EB94E00E9491
:1042C000B8168091C00085FFFCCFABCFE7E6F9E0E0
:1042D0008491882341F09091C00095FFFCCF80939A
:1042E000C6003196F5CFE9EDF7E08491882341F0DF
:1042F0009091C00095FFFCCF8093C6003196F5CF1A
:104300004091E0065091E1066091E2067091E3066B
:104310002AE030E080EB94E00E94B8168091C00063
:1043200085FFFCCF7ECF80914807882309F461C1C7
:1043300080914E0590914F05892B09F05AC18091CB
:10434000510590915205892B11F410923705E8EE32
:104350002E2EE3E03E2E412C512CFCE3CF2ED12C0F
:10436000E12CF12C8E010F5F1F4F70E6672E772432
:1043700073944091C9095091CA096091CB09709119
:10438000CC098091C1099091C209A091C309B09153
:10439000C409481759076A077B0708F02AC18091AA
:1043A00051059091520504970CF023C18091370577
:1043B00081111FC180911C0990911D09A0911E09B6
:1043C000B0911F098093C9099093CA09A093CB09A2
:1043D000B093CC0984E199E00E94A43F482F8093D8
:1043E00050058A30B9F04D30A9F0433229F42091BC
:1043F0004D05211103C00EC04A33C9F320914E056B
:1044000030914F052F3531052CF48F3FFFEF9F077B
:1044100009F0D1C04091C9095091CA096091CB09F6
:104420007091CC098091C1099091C209A091C309F2
:10443000B091C409481759076A077B0708F481C07F
:10444000E3EDF6E08491882341F09091C00095FF60
:10445000FCCF8093C6003196F5CF8091C00085FFD8
:10446000FCCFFAE0F093C6000E9476B960933B055A
:1044700070933C0580933D0590933E0580903F05E9
:1044800090904005A0904105B090420568197909C7
:104490008A099B09A20191010E948AC449015A011B
:1044A000CA01B901A70196010E948AC4CA01B901D3
:1044B000A70196010E948AC47F936F93C501B4013E
:1044C00020E13EE040E050E00E948AC43F932F93F9
:1044D000AFEBB6E0BF93AF931F930F930E9457C803
:1044E000E1E6F9E084910FB6F894DEBF0FBECDBFD0
:1044F000882349F09091C00095FFFCCF8093C600BF
:1045000031968491F5CFF8018191882339F090910B
:10451000C00095FFFCCF8093C600F6CF8091C0000D
:1045200085FFFCCF3AE03093C600C8010E94A090FE
:1045300086E497E00E940F5661E086E497E00E94CF
:10454000475080915005833211F4709237052091C5
:104550004E0530914F052115310509F424CE809187
:10456000530590915405689EF001699EF00D112449
:10457000E20FF31FE55AFA4F1082FC01E95AFA4F95
:10458000708220915105309152052F5F3F4F30933B
:10459000520520935105019664E070E00E9477C4B3
:1045A000909354058093530510924D0510924F053A
:1045B00010924E05DECE4B3311F470924D054091B2
:1045C0004D054111D2CE4091530550915405B9018A
:1045D0006F5F7F4F70934F0560934E05649EF001AF
:1045E000659EF00D1124E20FF31FE55AFA4F808308
:1045F000C0CE6E960FB6F894DEBF0FBECDBFDF9172
:10460000CF911F910F91FF90EF90DF90CF90BF90CF
:10461000AF909F908F907F906F905F904F903F9062
:104620002F900895CF92DF92EF92FF920F931F93F6
:10463000CF93C82F809151059091520503970CF4A8
:1046400024DC0E9476B90091430510914405209125
:10465000450530914605C0904705D0904805E0904B
:104660004905F0904A056C197D098E099F090617C6
:1046700017072807390728F4012B022B032B09F011
:10468000B7DB4091070250910802609109027091D6
:104690000A02452B462B472B19F10E9476B900914F
:1046A0004705109148052091490530914A05601B46
:1046B000710B820B930B009107021091080220915D
:1046C000090230910A02061717072807390740F434
:1046D0009091E60B8091E50B981302C0CC2309F171
:1046E0008091350590913605909902C0019604C0DD
:1046F000181619062CF4019790933605809335050A
:104700008091350590913605803197420CF0B8CFF5
:10471000CF911F910F91FF90EF90DF90CF900C946D
:10472000FC5E5F9A109214078A9A109215079FB741
:10473000F894809108018160809308019FBF1092D6
:104740001607129ACDCF0E94E27780913905811128
:1047500038C081E0809339058091E0069091E106B0
:10476000A091E206B091E3068093DC069093DD060B
:10477000A093DE06B093DF06E7E6F9E08491882394
:1047800041F09091C00095FFFCCF8093C600319618
:10479000F5CFECEAF3E08491882341F09091C000DA
:1047A00095FFFCCF8093C6003196F5CF8091C00075
:1047B00085FFFCCF8AE08093C60082EA93E00C94E8
:1047C00083930895809139050895CF93DF93EC0189
:1047D00080910F0780933A0584E50E94C91B8111DF
:1047E00002C080E075C00E94B51B0E942DC160937D
:1047F0003A056623B1F3E1E6F9E08491882341F0BC
:104800009091C00095FFFCCF8093C6003196F5CF04
:10481000CD36D105B9F054F4C836D105B1F0C9365A
:10482000D10509F045C0E9E3F3E021C0CA3DD10557
:1048300031F0CD3DD105E1F5E4EFF2E036C0EBE03B
:10484000F3E029C0E2E2F3E01CC0E0E5F3E081918F
:10485000882371F19091C00095FFFCCF8093C60032
:10486000F6CF9091C00095FFFCCF8093C600819158
:104870008111F7CF1DC09091C00095FFFCCF8093B0
:10488000C60081918111F7CF13C09091C00095FFB0
:10489000FCCF8093C60081918111F7CF09C0909120
:1048A000C00095FFFCCF8093C60081918111F7CFA6
:1048B00040E050E060913A0580EB94E00E941217CE
:1048C0008091C00085FFFCCF8AE08093C60081E024
:1048D000DF91CF910895CF92DF92EF92FF922091D6
:1048E0003F072223F1F020E030E040E05FE30E9448
:1048F0008EC36B017C0120E030E0A9010E94B9C0A9
:10490000882379F0A7019601C701B6010E948EC3E2
:104910002BED3FE049E450E40E948EC39B01AC01C3
:1049200004C020E030E040E85FE360E070E080E851
:104930009FE30E94C0C0FF90EF90DF90CF9008955A
:1049400060912102709122028091230290912402B1
:10495000C2DF60931D0270931E0280931F0290932A
:10496000200208953F924F925F926F927F928F92B2
:104970009F92AF92BF92CF92DF92EF92FF920F93EE
:104980001F93CF93DF93CDB7DEB7E0970FB6F894C0
:10499000DEBF0FBECDBF87E40E94C91B882309F488
:1049A00017C20E94B51B0E9428C16430710509F42A
:1049B0003EC044F46230710521F174F577FF17C0F1
:1049C0000C945D386A35710509F4AEC134F46C316C
:1049D000710509F474C00C945D386B35710509F4E8
:1049E000A7C16C35710509F4A8C10C945D3880919C
:1049F000390581110C945D380E94411C88D80C94B3
:104A00005D388091390581110C945D380E94C01C7D
:104A100081E03CD90C945D388091390581110C946A
:104A20005D380E94C01C80E031D90C945D3886EB63
:104A300096E00E94839380E50E94C91B882339F089
:104A40000E94B51B0E942DC14B015C0103C0812C4B
:104A5000912C540183E50E94C91B882361F00E94B8
:104A6000B51B20E030E04AE754E40E948EC30E9468
:104A70002DC14B015C010E9477720E9476B96B01D7
:104A80007C01C80CD91CEA1CFB1C0E9476B96093FF
:104A90004705709348058093490590934A050E9405
:104AA00076B96C157D058E059F0510F00C945D3868
:104AB0000E94277580E0B6DD0E941094F0CF8091AF
:104AC0000B0290910C02A0910D02B0910E02809306
:104AD000E8069093E906A093EA06B093EB0680916E
:104AE000290290912A02909341078093400784E61F
:104AF00090E090932A02809329020E9476B96093F5
:104B00004705709348058093490590934A0581E0D5
:104B10000E94AB6A80912F0790913007A0913107D6
:104B2000B09132078093FC069093FD06A093FE0699
:104B3000B093FF068091330790913407A091350719
:104B4000B09136078093000790930107A093020766
:104B5000B09303078091370790913807A0913907E8
:104B6000B0913A078093040790930507A093060736
:104B7000B093070780913B0790913C07A0913D07B8
:104B8000B0913E078093080790930907A0930A0706
:104B9000B0930B0710920B0210920C0210920D02B0
:104BA00010920E0288E50E94C91B882311F090E044
:104BB0000AC089E50E94C91B8111F9CF8AE50E94CC
:104BC000C91B91E0982790930F0291110C946038C3
:104BD00088E50E94C91B81110C94603880910F02F6
:104BE00081110C94663889E50E94C91B81110C94CF
:104BF000663888E50E94C91B8823D1F00E94BE1B3D
:104C0000672B682B692BA1F00E94B51B209123070D
:104C10003091240740912507509126070E94E0BF5C
:104C200060932F077093300780933107909332077A
:104C300089E50E94C91B8823D1F00E94BE1B672B07
:104C4000682B692BA1F00E94B51B2091270730919A
:104C500028074091290750912A070E94E0BF6093DE
:104C6000330770933407809335079093360780910C
:104C70000F0281110C946C388AE50E94C91B8111C6
:104C80000C946C388AE50E94C91B8823D1F00E94DD
:104C9000BE1B672B682B692BA1F00E94B51B2091CE
:104CA0002B0730912C0740912D0750912E070E9421
:104CB000E0BF60933707709338078093390790936C
:104CC0003A072BE337E047E357E063E377E08FE20F
:104CD00097E00E94EF6880E00E94AB6A8091E8064E
:104CE0009091E906A091EA06B091EB0680930B0241
:104CF00090930C02A0930D02B0930E028091400796
:104D00009091410790932A02809329020E9476B9DC
:104D100060934705709348058093490590934A0531
:104D20000E94A46A0C945D381092DB060C945D38E6
:104D300081E08093DB060C945D3885E40E94C91BFA
:104D4000811102C00E94777268E1C62E64E0D62EFF
:104D500073E2E72E77E0F72E0FE217E0B12CF601B1
:104D600081916F010E94C91B882339F1F3E0BF12C2
:104D70000CC00E94B51BF80160837183828393830A
:104D80008BE397E00E94946918C00E94B51BF7015D
:104D900020813181428153810E94E0BFF80160830C
:104DA0007183828393832BE337E047E357E063E328
:104DB00077E08FE297E00E94EF68B394F4E0EF0EA3
:104DC000F11C0C5F1F4F24E0B212C9CF0C945D3868
:104DD0008DE40E94C91B882311F40C948C370E9427
:104DE000B51B0E9428C16037710509F46FC40CF02F
:104DF0008FC06F31710509F47EC3A4F5663171056A
:104E000009F422C2BCF46131710509F4D8C134F44B
:104E10006230710508F434C10C945D386431710559
:104E200009F4DEC10CF00AC26231710509F480C7D1
:104E30000C945D386A31710509F43AC23CF468316A
:104E4000710509F41FC20CF405C22CC26C31710546
:104E500009F442C20CF43AC26E31710509F471C210
:104E60000C945D386435710509F462C794F56035BA
:104E7000710509F447C754F46032710509F49FC203
:104E80006A32710509F4BEC30C945D386235710550
:104E900009F445C70CF047C70E94E2770E94777279
:104EA000129A0E94E07210920E0710920D0768EE9F
:104EB00073E080E090E00E94A5B9269A2E9A1092A5
:104EC000100281ED95E00E9483930E9410940C944F
:104ED0005D386936710509F40CC474F46C357105DC
:104EE00009F479C76836710509F4D3C365357105CE
:104EF00011F00C945D3854C76B36710509F4FCC68B
:104F00000CF4CAC66D36710509F4FFC40C945D3803
:104F10006C3D710511F40C94AA320CF054C06C383D
:104F2000710509F4D5C324F56537710509F4E1C7A6
:104F300064F46237710509F4F0C76337710511F045
:104F40000C945D38EEEFF4E0CFC76837710511F4CB
:104F50000C946C306937710511F40C94703067371C
:104F6000710511F00C945D38E6E7F3E00C947A30AB
:104F70006B3C710511F40C94F93184F4683C7105B3
:104F800011F40C946731693C710511F40C94D9311A
:104F90006E3B710511F00C945D3873C56D3C710565
:104FA00011F40C94353214F40C9415326E3C7105E6
:104FB00011F00C945D3808E114E083E2E82E87E0FC
:104FC000F82E0C949B32643F31E0730711F40C947B
:104FD0007C345CF56D3291E0790711F40C947033F8
:104FE00094F4623E710511F40C94DF326C32F1E0FE
:104FF0007F0711F40C943A336D3D710511F00C9458
:105000005D380C94B9326F3221E0720711F40C94C0
:10501000443414F40C9436346039714011F00C941B
:105020005D380E9477720C945D38683592E079079C
:1050300011F40C945A3594F4663FF1E07F0711F4B3
:105040000C94823414F40C947F34673F714011F057
:105050000C945D380E9467100C945D38603A83E0D0
:10506000780709F415C2673E93E0790711F40C94B0
:1050700075376335734011F00C945D380C948534AA
:1050800000914B0510914C050E5F1F4F80E50E946B
:10509000C91B882379F00E94B51B0E942DC16B01AA
:1050A0007C01BB24B394611571058105910531F430
:1050B000B12C04C0B12CC12CD12C760183E50E9407
:1050C000C91B882399F00E94B51B20E030E04AE715
:1050D00054E40E948EC30E942DC16B017C01AA245E
:1050E000A394611571058105910509F4A12C6AE26B
:1050F00070E0C8010E941FC8009711F0FC011082E7
:10510000F801CF0121912032E1F3B11007C0A110C5
:1051100005C0222319F00E94A09004C085EA96E001
:105120000E94839381E00E9480900E9477720E9487
:1051300076B960934705709348058093490590932D
:105140004A05C114D104E104F104A9F00E9476B922
:105150004B015C018C0C9D1CAE1CBF1C0E9476B9DF
:10516000681579058A059B05B8F40E94E2948111BF
:1051700013C00C9472380E94E094882311F40C94AC
:105180005D380E94E29481110AC00E94277580E078
:1051900049DA0E941094F5CF80E00E9480908091BF
:1051A0004807882331F086E996E00E9483930C94A7
:1051B0005D3888E896E00E9483930C945D388FE711
:1051C00096E00E9483935F988A989FB7F8948091A5
:1051D00008018E7F809308019FBF12980C945D3860
:1051E000EFE6F6E08491882341F09091C00095FFAE
:1051F000FCCF8093C6003196F5CF8091C00085FF2B
:10520000FCCF8AE08093C60086E497E00E94B54C0C
:10521000E1E6F6E08491882341F09091C00095FF8B
:10522000FCCF8093C6003196F5CF8091C00085FFFA
:10523000FCCF8AE08093C6000C945D3886E497E04A
:105240000E940E4D0C945D3886E497E00E94D24D8A
:105250000C945D3800914B0510914C050C5F1F4F6D
:105260006AE270E0C8010E941FC8009711F0FC01BB
:10527000108221E041E0B80186E497E00E94AB5142
:105280000C945D3886E497E00E94D64D0E9476B972
:1052900060933F05709340058093410590934205CC
:1052A0000C945D3886E497E00E94DD4D0C945D38E7
:1052B00080914907882311F40C945D3883E50E949E
:1052C000C91B81110C947B380C945D3886E497E0FF
:1052D0000E94814F0C945D3880914B0590914C0554
:1052E0006AE270E004960E941FC88C010097D9F012
:1052F000209155053091560540E6429FC001439FDD
:10530000900D11246EE470E0855A9A4F0E941FC8D8
:1053100060E270E00E941FC8019690934C05809354
:105320004B05F801108260914B0570914C056C5F44
:105330007F4F21E040E086E497E00E94AB510C945F
:105340005D3880914907882311F40C945D3860E042
:1053500086E497E00E943B5180914B0590914C056B
:105360006AE270E004960E941FC88C010097D9F091
:10537000209155053091560540E6429FC001439F5C
:10538000900D11246EE470E0855A9A4F0E941FC858
:1053900060E270E00E941FC8019690934C058093D4
:1053A0004B05F801108260914B0570914C056C5FC4
:1053B0007F4F86E497E00E94414E0C945D388091C7
:1053C000480781110E94777200914B0510914C059E
:1053D0000C5F1F4F6AE270E0C8010E941FC87C0189
:1053E00061E270E0C8010E941FC8009719F08C01AB
:1053F0000F5F1F4FE114F10411F0F701108280E5F7
:105400000E94C91BF82E20914B0530914C050217C4
:10541000130708F4F12C80914907882311F40C94A8
:105420005D3821E02F2541E0B80186E497E00E9435
:10543000AB5183E50E94C91B8823B9F020914B052D
:1054400030914C052017310780F40E94BE1BAB0140
:10545000BC014093C9095093CA096093CB0970936A
:10546000CC0984E199E00E946D4086E497E00E94B7
:10547000D64DF1100C945D380E9476B960933F05CB
:105480007093400580934105909342050C945D38DC
:1054900080914B0590914C056AE270E005960E9460
:1054A0001FC88C010097D9F0209155053091560501
:1054B00040E6429FC001439F900D11246EE470E0CE
:1054C000855A9A4F0E941FC860E270E00E941FC870
:1054D000019690934C0580934B05F80110826091E2
:1054E0004B0570914C056B5F7F4F86E497E00E94FF
:1054F000CA540C945D380E9476B960933B05709352
:105500003C0580933D0590933E0500913F05109129
:1055100040052091410530914205601B710B820BC3
:10552000930B28EE33E040E050E00E948AC4CA01A9
:10553000B9012CE330E040E050E00E948AC47F9340
:105540006F933F932F9382E596E09F938F93CE01C5
:1055500001969F938F930E9457C8E1E6F9E08491EA
:105560000FB6F894DEBF0FBECDBF882349F09091EF
:10557000C00095FFFCCF8093C60031968491F5CF93
:10558000FE0131968191882339F09091C00095FFFA
:10559000FCCF8093C600F6CF8091C00085FFFCCF82
:1055A0008AE08093C600CE0101960E94A09080916F
:1055B000BA10882311F40C945D381092BA1000913F
:1055C0000F0710E0000F111F01521E4EF8016081FD
:1055D0007181882777FD8095982F0E945BC120916B
:1055E00043023091440240914502509146020E948C
:1055F000BCC2181614F00C945D38F80111821082A8
:105600000C945D3883E50E94C91B882311F40C9427
:105610005D380E94B51B0E9428C1F62EE72E862F0A
:105620009E2D8C0180E50E94C91B882331F00F3F1D
:10563000110509F010F40C948B380DE010E0E0EE49
:10564000F3E0819191918017910711F40C945D38EA
:1056500024E0E831F207A9F70930110539F48F2D5C
:105660009E2D90930E0780930D0704C017FF02C074
:105670000C945D3861E0802F0E9461BB6F2D802FFC
:105680000E949ABB6F2D7E2D802F0E9449BA0C94E8
:105690005D3888E690E099D881110C945D3883E5F7
:1056A0000E94C91B882371F000913A050E94B51B26
:1056B00010E0000F111F01521E4E0E9428C1F80178
:1056C000718360830E94E1770C945D380E94F81E1C
:1056D00083E50E94C91B882311F40C945D380E9455
:1056E000B51B0E9428C17093DE116093DD110C94EC
:1056F0005D3889E690E069D881110C945D38ECE45E
:10570000F6E08491882341F09091C00095FFFCCF92
:105710008093C6003196F5CFE0913A0524E0E29FF0
:10572000F0011124E952FE4E408151816281738162
:1057300021E030E080EB94E00E94B117E9E4F6E06C
:105740008491882341F09091C00095FFFCCF809315
:10575000C6003196F5CFE0913A05F0E0EE0FFF1F5D
:10576000E152FE4E60817181882777FD8095982FE8
:105770000E945BC1AB01BC0121E030E080EB94E012
:105780000E94B117E5E4F6E08491882341F09091FE
:10579000C00095FFFCCF8093C6003196F5CF4091B5
:1057A000D1115091D2116091D3117091D41121E097
:1057B00030E080EB94E00E94B117E2E4F6E08491DF
:1057C000882341F09091C00095FFFCCF8093C600E4
:1057D0003196F5CF6091DD117091DE11882777FD4C
:1057E0008095982F0E945BC1AB01BC0121E030E0A5
:1057F00080EB94E00E94B117EFE3F6E084918823F8
:1058000041F09091C00095FFFCCF8093C600319687
:10581000F5CF4AE050E060E070E080EB94E00E9459
:10582000DB16EDE3F6E08491882341F09091C0000F
:1058300095FFFCCF8093C6003196F5CF4091D711EC
:105840005091D8116091D9117091DA1121E030E0B6
:1058500080EB94E00E94B117EAE3F6E0849188239C
:1058600041F09091C00095FFFCCF8093C600319627
:10587000F5CF6091DF117091E011882777FD809559
:10588000982F0E945BC1AB01BC0121E030E080EBAE
:1058900094E00E94B117E6E3F6E08491882341F09A
:1058A0009091C00095FFFCCF8093C6003196F5CF54
:1058B00080913A0590E00E941C754AE050E0BC01DE
:1058C00080EB94E00E94DB16E1E3F6E0849188230C
:1058D00041F09091C00095FFFCCF8093C6003196B7
:1058E000F5CF8FEF9FEF0E941C754AE050E0BC019E
:1058F00080EB94E00E94DB168091C00085FFFCCF16
:105900008AE08093C6000C94E8398DE690E00E940E
:10591000E52381110C945D3886E296E00E94839322
:105920001092BA1083E50E94C91B882391F0009160
:105930003A050E94B51B10E0000F111F01521E4EC8
:105940000E9428C1F8017183608381E08093060280
:1059500015C082E50E94C91B882381F000913A0599
:105960000E94B51B10E0000F111F01521E4E0E9435
:1059700028C1F801718360831092060283E50E94BA
:10598000C91B882351F00E94B51B6093430270939A
:105990004402809345029093460282E40E94C91B10
:1059A000882351F00E94B51B609347027093480210
:1059B0008093490290934A0286E40E94C91B88237F
:1059C00069F00E94B51B60933F0270934002809380
:1059D00041029093420281E08093BA100E94E177E5
:1059E0000E9476B94B015C0100913A0510E0F80184
:1059F000EE0FFF1FE152FE4E60817181882777FD17
:105A00008095982F0E945BC1F801EE0FFF1FEE0FEB
:105A1000FF1FE952FE4E11E0208131814281538106
:105A20000E94BCC218160CF010E0109338051092BA
:105A30000C07CC24CA94DC2C760148EE442E43E0BB
:105A4000542E612C712C5AE0352E80910C07811157
:105A50000C949238FFEFCF16DF06EF06FF0611F425
:105A60000C94AB38F7FE02C00C9492380E9476B9C1
:105A70006C197D0968357B4110F40C94AB380C949B
:105A8000923880E096E00E94839383E50E94C91BD0
:105A9000882361F00E94B51B0E9428C17093DE111B
:105AA0006093DD1181E0809306020FC082E50E94C1
:105AB000C91B882351F00E94B51B0E9428C1709316
:105AC000DE116093DD11109206020E9476B94B013F
:105AD0005C0110920C076091DD117091DE11882736
