:100000000C9409100C943A100C943A100C943A1079
:100010000C943A100C943A100C943A100C943A1038
:100020000C943A100C943A100C943A100C943A1028
:100030000C943A100C946AEA0C943A100C943A100E
:100040000C943A100C9482900C943A100C943A1040
:100050000C943A100C943A100C94AAA20C9425E437
:100060000C943A100C94C1160C943A100C943A105B
:100070000C943A100C943A100C943A100C943A10D8
:100080000C943A100C943A100C943A100C943A10C8
:100090000C943A100C943A100C943A100C943A10B8
:1000A0000C943A100C943A100C943A100C943A10A8
:1000B0000C943A100C943A100C943A100C943A1098
:1000C0000C943A100C943A100C943A100C943A1088
:1000D0000C943A100C943A100C943A100C943A1078
:1000E0000C943A1008A317A333A342A35CA36BA3F9
:1000F00085A389A38BA38FA397A366E56BE570E522
:100100007AE584E5FDE58EE596E59EE5A8E5B2E5B0
:10011000BCE5CBE5D5E5FDE5DFE5E9E5F3E51FE683
:1001200022E611E615E61BE659E626E62AE630E663
:1001300034E638E63EE642E646E659E64CE650E668
:1001400054E6084AD73B3BCE016E84BCBFFDC12FAD
:100150003D6C74319ABD56833DDA3D00C77F11BEB8
:10016000D9E4BB4C3E916BAAAABE000000803F05BB
:10017000A84CCDB2D44EB93836A9020C50B99186EC
:1001800088083CA6AAAA2ABE000000803F00486159
:100190007264636F6465642044656661756C742085
:1001A00053657474696E6773204C6F616465640095
:1001B00053746F7265642073657474696E6773201D
:1001C0007265747269657665640020440020490098
:1001D0002020204D33303120500050494420736599
:1001E0007474696E67733A00205A00205900202009
:1001F0004D323036205800486F6D65206F6666734B
:10020000657420286D6D293A00204500205A002091
:10021000580020420020540020204D323035205319
:1002200000416476616E6365642076617269616223
:100230006C65733A20533D4D696E20666565647246
:1002400061746520286D6D2F73292C20543D4D69F4
:100250006E2074726176656C206665656472617487
:100260006520286D6D2F73292C20423D6D696E69C4
:100270006D756D207365676D656E742074696D654D
:1002800020286D73292C20583D6D6178696D756D3E
:10029000205859206A65726B20286D6D2F73292CA8
:1002A00020205A3D6D6178696D756D205A206A6510
:1002B000726B20286D6D2F73292C2020453D6D61B8
:1002C00078696D756D2045206A65726B20286D6DAB
:1002D0002F73290020540020204D32303420530049
:1002E000416363656C65726174696F6E3A20533D5A
:1002F000616363656C65726174696F6E2C20543D37
:100300007265747261637420616363656C657261A8
:1003100074696F6E00204500205A0020590020208B
:100320004D3230312058004D6178696D756D204136
:100330006363656C65726174696F6E20286D6D2FE3
:100340007332293A00204500205A0020590020200D
:100350004D3230332058004D6178696D756D2066DF
:10036000656564726174657320286D6D2F73293A19
:1003700000204500205A0020590020204D3932200D
:10038000580053746570732070657220756E6974BF
:100390003A0053657474696E67732053746F7265A5
:1003A000640053544F505045442E20005072696EE3
:1003B0007465722073746F70706564206475652055
:1003C000746F206572726F72732E20466978207484
:1003D0006865206572726F7220616E642075736546
:1003E000204D39393920746F2072657374617274CD
:1003F0002E202854656D7065726174757265206970
:10040000732072657365742E20536574206974209F
:1004100061667465722072657374617274696E6767
:1004200029004B494C4C45442E20005072696E7493
:1004300065722068616C7465642E206B696C6C2831
:10044000292063616C6C656421006F6B00526573D9
:10045000656E643A20000A00207A3A200020793A3A
:10046000200020783A2000426564002200556E6B1F
:100470006E6F776E20636F6D6D616E643A2022003F
:100480004368616E67652066696C616D656E7400B6
:100490005A204F6666736574203A20007A5F6D615A
:1004A000783A20007A5F6D696E3A20005A204F66D4
:1004B00066736574005A204F6666736574206F6BAF
:1004C000007A5F6D61783A20007A5F6D696E3A203C
:1004D00000795F6D61783A2000795F6D696E3A202E
:1004E00000785F6D61783A2000785F6D696E3A2020
:1004F00000205A3A0020593A0020436F756E74204C
:10050000583A200020453A00205A3A0020593A0033
:10051000583A004649524D574152455F4E414D456C
:100520003A4D61726C696E20312E302E322B204490
:100530006576656C6F706D656E742046726F6D20A8
:100540004172636869766520534F555243455F4356
:100550004F44455F55524C3A68747470733A2F2F6C
:100560006769746875622E636F6D2F4D61726C6977
:100570006E4669726D776172652F4D61726C696E3E
:100580002050524F544F434F4C5F56455253494FA2
:100590004E3A312E30204D414348494E455F545923
:1005A00050453A4D656E64656C204558545255442B
:1005B00045525F434F554E543A3120555549443AC0
:1005C00030303030303030302D303030302D303031
:1005D00030302D303030302D303030303030303021
:1005E000303030300A004D656E64656C204F6666B1
:1005F0002E004D656E64656C2072656164792E0015
:1006000042656420646F6E652E0020423A002045EA
:100610003A00543A004265642048656174696E6727
:100620002E0048656174696E6720646F6E652E00E8
:1006300020573A0020453A00543A004865617469F1
:100640006E672E2E2E002042403A0020403A0020B5
:100650002F003A00205400202F0020423A00202F83
:10066000006F6B20543A000A0A005374616E646193
:10067000726420446576696174696F6E3A20000A7D
:10068000004D65616E3A20000A002020207A3A2051
:100690000000793A2000783A20003F537065636982
:1006A00066696564206E756D626572206F66206C88
:1006B00065677320696E206D6F76656D656E742059
:1006C0006E6F7420706C61757361626C652E0A00C8
:1006D0003F537065636966696564205920706F7364
:1006E0006974696F6E206F7574206F662072616E19
:1006F00067652E0A003F537065636966696564200B
:100700005820706F736974696F6E206F7574206FF5
:10071000662072616E67652E0A003F5370656369DB
:10072000666965642073616D706C652073697A65B4
:10073000206E6F7420706C61757361626C652E0A37
:100740000046756C6C20737570706F7274206174E4
:100750003A20687474703A2F2F33647072696E7423
:10076000626F6172642E636F6D2F666F72756D2E8E
:100770007068700A004D3438205A2D50726F6265CF
:10078000205265706561746162696C697479207466
:100790006573742E20202056657273696F6E203247
:1007A0002E30300A003F566572626F7365204C65CB
:1007B00076656C206E6F7420706C61757361626C0D
:1007C000652E0A002569206D696E2C20256920732D
:1007D000656300456E642066696C65206C6973749E
:1007E00000426567696E2066696C65206C69737488
:1007F000004E6F206D6F76652E004D656E64656CE2
:100800002072656164792E00526573756D696E673B
:10081000207072696E74005761697420666F72206F
:10082000757365722E2E2E000A00205A3A20002081
:10083000593A200020583A20004265640020643A6A
:10084000200020623A200045716E20636F65666665
:10085000696369656E74733A20613A2000486F6D70
:100860006520582F59206265666F7265205A0048CE
:100870006F6D6520582F59206265666F7265205A2A
:10088000005A2070726F6265206F75742E20626549
:1008900064005A2070726F6265206F75742E20623A
:1008A000656400486F6D6520582F59206265666F3A
:1008B0007265205A00486F6D6520582F5920626577
:1008C000666F7265205A00536C6565702E2E2E007F
:1008D000256920686F757273202569206D696E75B2
:1008E00074657300446F6E65207072696E74696E12
:1008F000672066696C650053544F505045442E2064
:10090000005072696E7465722073746F70706564E4
:100910002064756520746F206572726F72732E206B
:1009200046697820746865206572726F7220616E06
:100930006420757365204D39393920746F207265D4
:1009400073746172742E202854656D7065726174C1
:100950007572652069732072657365742E20536506
:1009600074206974206166746572207265737461A5
:100970007274696E6729004E6F204C696E65204E57
:10098000756D626572207769746820636865636B52
:1009900073756D2C204C617374204C696E653A2020
:1009A000004E6F20436865636B73756D20776974C3
:1009B00068206C696E65206E756D6265722C204CC6
:1009C000617374204C696E653A2000636865636BDF
:1009D00073756D206D69736D617463682C204C6153
:1009E0007374204C696E653A20004C696E65204E28
:1009F000756D626572206973206E6F74204C61732F
:100A000074204C696E65204E756D6265722B312CB9
:100A1000204C617374204C696E653A20004D313171
:100A20003000446F6E6520736176696E6720666979
:100A30006C652E006F6B004D3239002020506C61C8
:100A40006E6E657242756666657242797465733A58
:100A500020002046726565204D656D6F72793A20E1
:100A6000004D6179203131203230313600436F6DD5
:100A700070696C65643A200028444959452C205817
:100A80004C2B414C2900207C20417574686F723AD0
:100A900020004D617920313120323031362031381B
:100AA0003A35373A323500204C6173742055706402
:100AB000617465643A200020312E302E322B004DB7
:100AC00061726C696E0020536F6674776172652085
:100AD000526573657400205761746368646F6720A2
:100AE0005265736574002042726F776E206F757463
:100AF000205265736574002045787465726E616C70
:100B000020526573657400506F776572557000737D
:100B100074617274002200656E717565696E67207C
:100B200022002200656E717565696E67202200FFE4
:100B3000FFFF0000A0400000A040000000400000B7
:100B40007A43000087430000484300000000000093
:100B500000000000000000007A430000874300000E
:100B60004843000000000000000000000000656332
:100B7000686F3A004572726F723A007C3C3E5E2BA1
:100B80003D3F2F5B5D3B2C2A225C004D38342058C2
:100B90002059205A20450043616E6E6F7420656EA7
:100BA000746572207375626469723A20004D323444
:100BB000004D3233202573006175746F25692E67EF
:100BC000006572726F722077726974696E67207443
:100BD0006F2066696C65004E6F74205344207072FC
:100BE000696E74696E67002F005344207072696EDD
:100BF00074696E67206279746520002E0044656C0C
:100C00006574696F6E206661696C65642C20466945
:100C10006C653A200046696C652064656C65746596
:100C2000643A002E006F70656E206661696C6564C1
:100C30002C2046696C653A200057726974696E67AA
:100C400020746F2066696C653A20002E006F706515
:100C50006E206661696C65642C2046696C653A207B
:100C6000002E006F70656E206661696C65642C20D3
:100C700046696C653A200046696C652073656C6551
:100C800063746564002053697A653A200046696C94
:100C900065206F70656E65643A20002E006F706588
:100CA0006E206661696C65642C2046696C653A202B
:100CB000004E6F772066726573682066696C653ACE
:100CC00020004E6F7720646F696E672066696C65DF
:100CD0003A20002220706F73002220706172656ECE
:100CE000743A2200535542524F5554494E452043C1
:100CF000414C4C207461726765743A2200747279B9
:100D0000696E6720746F2063616C6C207375622D4F
:100D100067636F64652066696C65732077697468C2
:100D200020746F6F206D616E79206C6576656C73D1
:100D30002E204D4158206C6576656C2069733A0011
:100D400053442063617264206F6B006F70656E5254
:100D50006F6F74206661696C656400766F6C756D89
:100D6000652E696E6974206661696C656400534420
:100D700020696E6974206661696C0020746F6F2051
:100D80006C6F6E6720657874727573696F6E207012
:100D9000726576656E7465640020636F6C642065AF
:100DA0007874727573696F6E2070726576656E7493
:100DB000656400656E6473746F7073206869743A5B
:100DC000205A00205A3A00656E6473746F70732065
:100DD0006869743A20590020593A00656E6473744A
:100DE0006F7073206869743A20580020583A006583
:100DF0006E6473746F7073206869743A200024F411
:100E0000D43050C38E20C2A24017828B7011127A48
:100E1000910D816CD90AA861E108C7586607615134
:100E200043061E4B5D05C145A7041A411104093D47
:100E30009803713931034036DB0265339102D430B7
:100E40005402802E1D02632CEE01752AC501B028C4
:100E5000A001102781018F2564012B244B01E02282
:100E60003401AC211F018D200D01801FFC00841E68
:100E7000ED00971DDF00B81CD200E61BC600201B4A
:100E8000BC00641AB200B219A8000A19A0006A18BE
:100E90009900D117910040178B00B51684003116C8
:100EA0007E00B31579003A157300C7146F0058140B
:100EB0006A00EE1366008813630025135E00C712F4
:100EC0005B006C12570015125400C11151007011D3
:100ED0004F0021114B00D61049008D1047004610DD
:100EE000440002104200C00F4000800F3E00420F3D
:100EF0003C00060F3B00CB0E3800930E37005C0E13
:100F00003500270E3400F30D3200C10D3100900D75
:100F10003000600D2E00320D2D00050D2C00D90C77
:100F20002B00AE0C2900850C29005C0C2700350C29
:100F300027000E0C2600E80B2400C40B2400A00B95
:100F400023007D0B23005A0B2100390B2100180BC5
:100F50002000F80A1F00D90A1E00BB0A1E009D0AC5
:100F60001D00800A1D00630A1C00470A1B002C0A92
:100F70001B00110A1A00F7091A00DD091900C4093B
:100F80001900AB091900920917007B0918006309C1
:100F900017004C09160036091600200916000A0928
:100FA0001500F5081500E0081400CC081400B80876
:100FB0001400A4081400900813007D0812006B08A8
:100FC00013005808120046081200340811002308C4
:100FD00011001208110001081100F0071000E007CD
:100FE0001000D0071000C0071000B0070F00A107C5
:100FF000100091070E0083070F0074070F006507AC
:101000000E0057070E0049070E003B070D002E0784
:101010000E0020070D0013070D0006070D00F9064E
:101020000C00ED060D00E0060C00D4060C00C8060E
:101030000C00BC060C00B0060C00A4060B009906C0
:101040000C008D060B0082060B0077060B006C0669
:101050000B0061060A0057060B004C060A00420608
:101060000A0038060A002E060A0024060A001A069C
:101070000A001006090007060A00FD050900F4052C
:101080000900EB050900E2050900D9050900D005B2
:101090000900C7050900BE050900B5050800AD0532
:1010A0000800A50509009C050800940508008C05AA
:1010B0000800840508007C050800740508006C051C
:1010C0000700650508005D050700560508004E0588
:1010D00007004705070040050800380507003105EF
:1010E00007002A050700230507001C050600160552
:1010F00007000F0507000805060002050700FB04AE
:101100000600F5040700EE040600E8040600E20409
:101110000700DB040600D5040600CF040600C9045E
:101120000600C3040600BD040600B7040600B104AF
:101130000500AC040600A6040600A00405009B04FC
:10114000060095040500900406008A040500850445
:101150000500800406007A0405007504050070048B
:1011600005006B04050066040500610405005C04CD
:10117000050057040500520405004D04050048040D
:101180000500430405003E0404003A04050035044C
:101190000500300404002C04050027040400230487
:1011A00005001E0404001A040400160405001104BE
:1011B00004000D04040009040500040404000004F4
:1011C0000400FC030400F8030400F4030400F0032B
:1011D0000400EC030400E8030400E4030400E0035B
:1011E0000400DC030400D8030400D4030400D0038B
:1011F0000400CC030400C8030300C503030024F467
:1012000004D9201BC40C5C0E9804C4095F02650756
:101210007101F405F900FB04B30048048700C10321
:1012200069005803550003034500BE023A008402DA
:10123000310053022A002902250004022000E401A3
:101240001C00C8011900AF011700980114008401A7
:101250001300710110006101100051010E004301E3
:101260000D0036010B002B010B0020010B001501B6
:1012700009000C01090003010800FB000800F3004D
:101280000800EB000700E4000600DE000600D800BE
:101290000600D2000600CC000500C7000500C20011
:1012A0000500BD000400B9000400B5000400B10051
:1012B0000400AD000400A9000400A5000300A20082
:1012C00003009F0004009B000300980003009500AA
:1012D000020093000300900003008D0002008B00C9
:1012E00003008800020086000200840003008100E1
:1012F00002007F0002007D0002007B0002007900F6
:101300000200770001007600020074000200720003
:101310000100710002006F0002006D0001006C000E
:1013200002006A0001006900020067000100660017
:10133000010065000100640002006200010061001C
:101340000100600001005F0002005D0001005C0020
:1013500001005B0001005A00010059000100580023
:101360000100570001005600010055000100540023
:101370000100530000005300010052000100510021
:101380000100500001004F0001004E0000004E001F
:1013900001004D0001004C0001004B0000004B001B
:1013A00001004A0001004900010048000000480017
:1013B0000100470001004600000046000100450012
:1013C000000045000100440001004300000043000C
:1013D0000100420000004200010041000000410005
:1013E0000100400001003F0000003F0001003E00FE
:1013F00000003E0001003D0000003D0001003C00F7
:1014000000003C0000003C0001003B0000003B00ED
:1014100001003A0000003A000100390000003900E4
:1014200001003800000038000000380001003700DB
:1014300000003700010036000000360000003600D2
:1014400001003500000035000000350001003400C7
:1014500000003400000034000100330000003300BD
:1014600000003300010032000000320000003200B2
:1014700001003100000031000000310001003000A7
:10148000000030000000300001002F0000002F009D
:1014900000002F0000002F0001002E0000002E0091
:1014A00000002E0001002D0000002D0000002D0086
:1014B00000002D0001002C0000002C0000002C007A
:1014C00000002C0001002B0000002B0000002B006E
:1014D00000002B0001002A0000002A0000002A0062
:1014E00000002A0001002900000029000000290056
:1014F0000000290000002900010028000000280049
:10150000000028000000280000002800010027003B
:10151000000027000000270000002700000027002F
:101520000100260000002600000026000000260022
:101530000000260001002500000025000000250015
:101540000000250000002500000025000100240007
:1015500000002400000024000000240000002400FB
:1015600001002300000023000000230000002300EE
:1015700000002300000023000000230001002200DF
:1015800000002200000022000000220000002200D3
:1015900000002200010021000000210000002100C5
:1015A00000002100000021000000210000002100B7
:1015B00001002000000020000000200000002000AA
:1015C000000020000000200000002000000020009B
:1015D00001001F0000001F0000001F0000001F008E
:1015E00000001F0000001F0000001F0001001E007F
:1015F00000001E0000001E0000001E0000004572DA
:10160000723A204D415854454D50204245440054B3
:10161000656D706572617475726520686561746569
:101620006420626564207377697463686564206F01
:1016300066662E204D415854454D5020747269679E
:101640006765726564202121004572723A204D4918
:101650004E54454D50003A20457874727564657259
:10166000207377697463686564206F66662E204D09
:10167000494E54454D5020747269676765726564C0
:101680002021004572723A204D415854454D50007A
:101690003A20457874727564657220737769746353
:1016A000686564206F66662E204D415854454D5044
:1016B00020747269676765726564202100202D209F
:1016C000496E76616C6964206578747275646572C0
:1016D000206E756D6265722021005049442041756D
:1016E000746F74756E652066696E697368656421D0
:1016F0002050757420746865206C617374204B7081
:101700002C204B6920616E64204B6420636F6E73E4
:1017100074616E74732066726F6D2061626F76659E
:1017200020696E746F20436F6E66696775726174AD
:10173000696F6E2E6800504944204175746F74754E
:101740006E65206661696C6564212074696D656FE2
:1017500075740020403A006F6B20543A006F6B2084
:10176000423A00504944204175746F74756E65208B
:101770006661696C6564212054656D706572617481
:1017800075726520746F6F206869676800204B640C
:101790003A2000204B693A2000204B703A2000206C
:1017A000436C617373696320504944200020547571
:1017B0003A2000204B753A2000206D61783A2000D5
:1017C000206D696E3A200020643A20002062696131
:1017D000733A200070012C0190012701B001220111
:1017E000C0011D01F00118011002130130020E01A9
:1017F0006002090190020401C002FF000003FA0028
:101800004003F5008003F000D003EB002004E60065
:101810007004E100E004DC004005D700C005D20000
:101820004006CD00D006C8008007C3003008BE00C7
:10183000F008B900C009B400B00AAF00B00BAA00AC
:10184000D00CA500000EA000500F9B00C010960009
:101850005012910000148C00C0158700B017820050
:10186000B0197D00D01B7800001E730040206E0070
:1018700090226900F024640040275F0090295A00FC
:10188000E02B5500102E500020304B001032460047
:10189000E033410090353C0010373700703832009B
:1018A000A0392D00B03A2800A03B2300603C1E0068
:1018B000103D1900903D1400103E0F00703E0A00CC
:1018C000C03E0500003F0000436172642072656DF8
:1018D0006F766564004361726420696E736572742B
:1018E0006564004D33303020533639382050323063
:1018F00030004D33303020533635392050323030BF
:10190000002D2D3A2D2D002D2D2D00534400205952
:1019100000012000012000426162797374657070DB
:10192000696E6720580042616279737465707069EE
:101930006E67205900426162797374657070696ED8
:1019400067205A004D363030004368616E6765206D
:1019500066696C616D656E7400426162797374656D
:1019600070205A0042616279737465702059004298
:1019700061627973746570205800466C6F7720300F
:1019800000466C6F77203000466C6F7700466C6FB6
:10199000770046616E2073706565640046616E2055
:1019A00073706565640042656400426564004E6F53
:1019B0007A7A6C65004E6F7A7A6C65005370656553
:1019C00064005370656564004D61696E0050726516
:1019D0006865617420504C41204265640050726516
:1019E0006865617420504C4120310050726570610F
:1019F00072650050726568656174204142532042EF
:101A000065640050726568656174204142532031FD
:101A1000005072657061726500580059005A0045A7
:101A20007874727564657200457874727564657255
:101A3000004D6F7665205A004D6F76652059004D38
:101A40006F76652058004D6F766520617869730068
:101A50004D6F766520302E316D6D004D6F766520AF
:101A6000316D6D004D6F76652031306D6D005072B7
:101A70006570617265004D6F7665206178697300ED
:101A80004D38300053776974636820706F776572E2
:101A9000206F6E004D383100537769746368207091
:101AA0006F776572206F666600436F6F6C646F7747
:101AB0006E00507265686561742041425300507237
:101AC000656865617420504C410053657420686FEF
:101AD0006D65206F66667365747300473238004128
:101AE00075746F20686F6D65004D383400446973FC
:101AF00061626C65207374657070657273004D610E
:101B0000696E0053746F7265206D656D6F72790038
:101B100042656400426564004E6F7A7A6C65004EDF
:101B20006F7A7A6C650046616E207370656564003B
:101B300046616E2073706565640054656D706572F2
:101B400061747572650053746F7265206D656D6F99
:101B500072790042656400426564004E6F7A7A6C67
:101B600065004E6F7A7A6C650046616E2073706511
:101B700065640046616E2073706565640054656D30
:101B80007065726174757265005072656865617424
:101B90002041425320636F6E660050726568656134
:101BA0007420504C4120636F6E66005049442D43B1
:101BB000005049442D43005049442D4400504944AD
:101BC0002D44005049442D49005049442D490050AE
:101BD00049442D50005049442D50002002204661B8
:101BE00063740020022046616374002002204D616E
:101BF00078002002204D6178002002204D696E009F
:101C00002002204D696E004F6666004F6E20004F27
:101C10006666004F6E20004175746F74656D7000CC
:101C200046616E2073706565640046616E20737056
:101C30006565640042656400426564004E6F7A7AAF
:101C40006C65004E6F7A7A6C6500436F6E74726FCC
:101C50006C004573746570732F6D6D00457374650A
:101C600070732F6D6D005A73746570732F6D6D00F6
:101C70005A73746570732F6D6D005973746570734A
:101C80002F6D6D005973746570732F6D6D005873EF
:101C9000746570732F6D6D005873746570732F6D5C
:101CA0006D00412D7265747261637400412D72651F
:101CB000747261637400416D6178206500416D61EB
:101CC00078206500416D6178207A00416D6178204F
:101CD0007A00416D6178207900416D61782079004A
:101CE000416D6178207800416D617820780056540C
:101CF000726176206D696E005654726176206D694E
:101D00006E00566D696E00566D696E00566D617895
:101D1000206500566D6178206500566D6178207AE7
:101D200000566D6178207A00566D617820790056F2
:101D30006D6178207900566D6178207800566D616C
:101D40007820780056652D6A65726B0056652D6A9D
:101D500065726B00567A2D6A65726B00567A2D6A31
:101D600065726B005678792D6A65726B00567879CA
:101D70002D6A65726B00416363656C004163636546
:101D80006C005A204F6666736574005A204F666671
:101D900073657400436F6E74726F6C0046696C2ECD
:101DA000204469612E20310046696C2E204469610F
:101DB0002E2031004F6666004F6E20004F66660091
:101DC0004F6E20004520696E206D6D3300436F6EAD
:101DD00074726F6C00526573746F7265206661690E
:101DE0006C73616665004C6F6164206D656D6F7228
:101DF000790053746F7265206D656D6F727900465E
:101E0000696C616D656E74004D6F74696F6E00541E
:101E1000656D7065726174757265004D61696E0003
:101E20004D383420582059205A2045004D32340076
:101E30004D323320257300052E2E004D61696E0052
:101E40004E6F2053442063617264005072696E7457
:101E50002066726F6D2053440053746F702070724F
:101E6000696E7400526573756D65207072696E7469
:101E7000005061757365207072696E7400436F6EF7
:101E800074726F6C00507265706172650054756E8B
:101E90006500496E666F2073637265656E000A00A7
:101EA000207A3A200020793A200020783A20000059
:101EB000000A0B02090C0D0E0807030401000000C4
:101EC0000000000000000000000000000000000012
:101ED00000000000000000000000001211100000CF
:101EE00000000000000000000000000000000000F2
:101EF00000000000000102102020080810204010FF
:101F000020408002010201080402010102040810BD
:101F100020408080402010080402018004020180DB
:101F20004020100804020108040201010204081004
:101F300020408001020408102040800505050507A7
:101F40000508080808020202020A0A080804040434
:101F50000401010101010101010303030303030360
:101F600003040707070C0C0C0C0C0C0C0C020202EF
:101F70000206060606060606060B0B0B0B0B0B0BE2
:101F80000B000020002300260029002C002F003227
:101F900000000100000301060109010000220025E4
:101FA0000028002B002E0031003400020100000543
:101FB0000108010B0100002100240027002A002D48
:101FC000003000330001010000040107010A010292
:101FD0004E414E494E495459494E46CDCCCC3D0A0E
:101FE000D7233C17B7D13877CC2B329595E6241FF1
:101FF000B14F0A000020410000C84200401C4620AA
:10200000BCBE4CCA1B0E5AAEC59D7400034E2ECDED
:10201000074E11241FBECFEFD1E2DEBFCDBF00E0DF
:102020000CBF15E0A0E0B2E0E6ECFEEE01E00BBF75
:1020300002C007900D92AA31B107D9F722E1AAE1B7
:10204000B5E001C01D92A73EB207E1F710E2C0E182
:10205000D0E200E006C022970109FE010BBF0E94FA
:10206000D7EFCC30D10780E00807A9F70E94CAEA71
:102070000C9452F70C940000EF92FF920F931F9371
:10208000CF93DF931F92CDB7DEB78C017B01460F54
:10209000F70161917F01F8018081918149830E945C
:1020A0009BF6F8018081918101969183808349811B
:1020B0004E11EECF0F90DF91CF911F910F91FF90B6
:1020C000EF900895EF92FF920F931F93CF93DF93BA
:1020D0001F92CDB7DEB78C017B01460FF8018081DE
:1020E000918149830E9493F6F70181937F01F80162
:1020F0008081918101969183808349814E11EECF39
:102100000F90DF91CF911F910F91FF90EF90089565
:102110000F931F93CF93DF93CDB7DEB72C970FB6F6
:10212000F894DEBF0FBECDBF80E390E3A0E3B0E044
:102130008D839E83AF83B88704E610E01C870B87EE
:1021400044E0BE016B5F7F4FCE010B9695DF40E10F
:1021500065E871E1CE010B968FDF40E165E971E141
:10216000CE010B9689DF40E165E771E1CE010B9668
:1021700083DF44E06DE671E1CE010B967DDF44E044
:1021800069E671E1CE010B9677DF44E061E771E12A
:10219000CE010B9671DF44E069E571E1CE010B964B
:1021A0006BDF44E065EA71E1CE010B9665DF44E048
:1021B00065E671E1CE010B965FDF44E061E671E117
:1021C000CE010B9659DF44E06DE571E1CE010B962F
:1021D00053DF4CE06DE877E0CE010B964DDF42E037
:1021E0006BEA72E1CE010B9647DF42E069EA72E1E9
:1021F000CE010B9641DF42E067EA72E1CE010B9619
:102200003BDF42E065EA72E1CE010B9635DF42E04A
:1022100063EA72E1CE010B962FDF42E061EA72E1E0
:10222000CE010B9629DF44E06AE777E0CE010B96FA
:1022300023DF44E066E872E0CE010B961DDF44E048
:1022400062E872E0CE010B9617DF44E06EE772E0C1
:10225000CE010B9611DF80E290E09A87898742E0F9
:10226000BE01675F7F4FCE010B9606DF41E069EA52
:1022700077E0CE010B9600DF44E061E272E0CE0130
:102280000B96FADE86E591E3A3E3B0E089839A83B7
:10229000AB83BC831C870B8744E0BE016F5F7F4F1D
:1022A000CE010B96E9DEEEE6FBE08491882341F057
:1022B0009091C00095FFFCCF8093C6003196F5CF7A
:1022C000E2E9F3E08491882341F09091C00095FF0A
:1022D000FCCF8093C6003196F5CF8091C00085FF7A
:1022E000FCCF8AE08093C6002C960FB6F894DEBF30
:1022F0000FBECDBFDF91CF911F910F910895CF9366
:10230000DF93CEE6DBE0FE018491882341F09091DB
:10231000C00095FFFCCF8093C6003196F5CFE2E870
:10232000F3E08491882341F09091C00095FFFCCFA9
:102330008093C6003196F5CF8091C00085FFFCCF19
:102340008AE08093C600FE018491EEE6FBE08823DC
:1023500049F09091C00095FFFCCF8093C600319664
:102360008491F5CF4091851150918611609187112C
:10237000709188118AE793E00E94DD1C40918911D9
:1023800050918A1160918B1170918C1187E793E0C5
:102390000E94DD1C40918D1150918E1160918F1122
:1023A0007091901184E793E00E94DD1C409191119F
:1023B00050919211609193117091941181E793E083
:1023C0000E94DD1C8091C00085FFFCCF8AE08093D5
:1023D000C600FE018491EEE6FBE0882349F090916F
:1023E000C00095FFFCCF8093C60031968491F5CF55
:1023F000E7E5F3E08491882341F09091C00095FFD8
:10240000FCCF8093C6003196F5CF8091C00085FF48
:10241000FCCF8AE08093C600FE018491EEE6FBE0EB
:10242000882349F09091C00095FFFCCF8093C600AF
:1024300031968491F5CF409195115091961160910C
:102440009711709198118EE493E00E94DD1C4091E9
:10245000991150919A1160919B1170919C118BE48C
:1024600093E00E94DD1C40919D1150919E1160915E
:102470009F117091A01188E493E00E94DD1C4091AF
:10248000A1115091A2116091A3117091A41185E442
:1024900093E00E94DD1C8091C00085FFFCCF8AE0A4
:1024A0008093C600FE018491EEE6FBE0882349F0AC
:1024B0009091C00095FFFCCF8093C6003196849127
:1024C000F5CFE7E2F3E08491882341F09091C000DA
:1024D00095FFFCCF8093C6003196F5CF8091C00068
:1024E00085FFFCCF8AE08093C600FE018491EEE672
:1024F000FBE0882349F09091C00095FFFCCF8093CA
:10250000C60031968491F5CF4091751150917611A6
:1025100060917711709178118EE193E00E94FF1C19
:102520004091791150917A1160917B1170917C11D9
:102530008BE193E00E94FF1C40917D1150917E1130
:1025400060917F117091801188E193E00E94FF1CDF
:102550004091811150918211609183117091841189
:1025600085E193E00E94FF1C8091C00085FFFCCFB5
:102570008AE08093C600FE018491EEE6FBE08823AA
:1025800049F09091C00095FFFCCF8093C600319632
:102590008491F5CFE0EEF2E08491882341F09091B0
:1025A000C00095FFFCCF8093C6003196F5CF809197
:1025B000C00085FFFCCF8AE08093C600FE018491B5
:1025C000EEE6FBE0882349F09091C00095FFFCCF38
:1025D0008093C60031968491F5CF40916D11509152
:1025E0006E1160916F117091701187ED92E00E94F1
:1025F000DD1C4091691150916A1160916B117091CD
:102600006C1184ED92E00E94DD1C8091C00085FF7A
:10261000FCCF8AE08093C600FE018491EEE6FBE0E9
:10262000882349F09091C00095FFFCCF8093C600AD
:1026300031968491F5CFE1E2F2E08491882341F074
:102640009091C00095FFFCCF8093C6003196F5CFE6
:102650008091C00085FFFCCF8AE08093C600FE0118
:102660008491EEE6FBE0882349F09091C00095FF4D
:10267000FCCF8093C60031968491F5CF40917111C3
:1026800050917211609173117091741188E192E010
:102690000E94DD1C4091591150915A1160915B11BB
:1026A00070915C1185E192E00E94DD1C4091A511C2
:1026B0005091A6116091A7117091A81182E192E04A
:1026C0000E94FF1C40916511509166116091671145
:1026D000709168118FE092E00E94DD1C40916111C1
:1026E0005091621160916311709164118CE092E0DD
:1026F0000E94DD1C40915D1150915E1160915F114F
:102700007091601189E092E00E94DD1C8091C00010
:1027100085FFFCCF8AE08093C600FE018491EEE63F
:10272000FBE0882349F09091C00095FFFCCF809397
:10273000C60031968491F5CFE7EFF1E084918823CC
:1027400041F09091C00095FFFCCF8093C600319678
:10275000F5CF8091C00085FFFCCF8AE08093C60052
:10276000FE018491EEE6FBE0882349F09091C000E1
:1027700095FFFCCF8093C60031968491F5CF4091B0
:102780008D0750918E0760918F07709190078EEEA4
:1027900091E00E94DD1C4091910750919207609159
:1027A0009307709194078BEE91E00E94DD1C40919D
:1027B000950750919607609197077091980788EE5A
:1027C00091E00E94DD1C8091C00085FFFCCF8AE073
:1027D0008093C600FE018491EEE6FBE0882349F079
:1027E0009091C00095FFFCCF8093C60031968491F4
:1027F000F5CFEAEDF1E08491882341F09091C0009B
:1028000095FFFCCF8093C6003196F5CF8091C00034
:1028100085FFFCCF8AE08093C600FE01C491EEE6FE
:10282000FBE0CC2349F08091C00085FFFCCFC09332
:10283000C6003196C491F5CF40918602509187022F
:10284000609188027091890280ED91E00E94DD1C08
:10285000609182027091830280918402909185023E
:102860000E9442A4AB01BC018DEC91E00E94DD1CF2
:1028700060917E0270917F0280918002909181022E
:102880000E944EA4AB01BC018AEC91E00E94DD1CC9
:102890008091C00085FFFCCF8AE08093C600DF9165
:1028A000CF910895AF92BF92CF92DF92EF92FF92B5
:1028B0000F931F93CF93DF93CDB7DEB7E0970FB69B
:1028C000F894DEBF0FBECDBF80E1E3EAF2E0DE01A7
:1028D000919601900D928A95E1F780E1E3EBF2E0A9
:1028E000DE01519601900D928A95E1F780E1E3ECCB
:1028F000F2E0DE01119601900D928A95E1F76E01EA
:1029000081E2C80ED11C85E8E82E81E1F82E8E0107
:102910000F5E1F4F65E971E1AE014F5F5F4F95E7B5
:10292000A92E91E1B92E20E030E0F601819191913C
:10293000A191B1916F01F70181939193A193B1930B
:102940007F01F80181919191A191B1918F01FB01DA
:1029500081939193A193B193BF01FA0181919191D8
:10296000A191B191AF01F50181939193A193B1939D
:102970005F012F5F3F4F24303105B9F60E940D7E75
:1029800080E090E0AFE2B4E480936D1190936E111B
:10299000A0936F11B09370118093691190936A1195
:1029A000A0936B11B0936C1110927111109272116F
:1029B000109273111092741180E29EE4A0E0B0E0D6
:1029C0008093A5119093A611A093A711B093A8117D
:1029D0001092591110925A1110925B1110925C11C1
:1029E00080E090E0A0E7B1E48093651190936611D8
:1029F000A0936711B09368118DEC9CECACECBEE336
:102A00008093611190936211A0936311B09364114C
:102A100080E090E0A0EEB0E480935D1190935E11B1
:102A2000A0935F11B09360111092950710929607D2
:102A300010929707109298071092910710929207A0
:102A4000109293071092940710928D0710928E07A0
:102A500010928F071092900784EB90E09093AC1245
:102A60008093AB1282E390E09093AA128093A91214
:102A70008FEF90E09093A8128093A71220EF30E0A0
:102A80003093A6122093A5122AE530E03093A412C9
:102A90002093A3129093A2128093A11210927A070E
:102AA00010927B0710927C0710927D078AE999E9C2
:102AB000A1EBB1E48093860290938702A0938802F1
:102AC000B093890261E77DE38AE89FE30E943CA41A
:102AD00060938202709383028093840290938502B4
:102AE00060E070E084EE92E40E9448A460937E026D
:102AF00070937F0280938002909381020E94E79AF4
:102B000080E090E0A0E8BFE380937A0290937B029C
:102B1000A0937C02B0937D021092A90780E090E020
:102B2000A0E4B0E48093210290932202A0932302B8
:102B3000B09324020E94C028EEE6FBE08491882333
:102B400041F09091C00095FFFCCF8093C600319674
:102B5000F5CFEEE8F1E08491882341F09091C00038
:102B600095FFFCCF8093C6003196F5CF8091C000D1
:102B700085FFFCCF8AE08093C600E0960FB6F894FC
:102B8000DEBF0FBECDBFDF91CF911F910F91FF90A0
:102B9000EF90DF90CF90BF90AF900895CF93DF93E9
:102BA000CDB7DEB72C970FB6F894DEBF0FBECDBF02
:102BB00084E690E09C878B8786E591E3A3E3B0E011
:102BC00089839A83AB83BC8344E0BE016B5F7F4FF4
:102BD000CE010B9677DA43E050E0BE016B5F7F4F8A
:102BE000CE0101960E945AF4892B09F0BFC040E142
:102BF00065E871E1CE010B9665DA40E165E971E1C6
:102C0000CE010B965FDA40E165E771E1CE010B96EC
:102C100059DA0E940D7E44E06DE671E1CE010B961B
:102C200051DA44E069E671E1CE010B964BDA44E0FB
:102C300061E771E1CE010B9645DA44E069E571E1A7
:102C4000CE010B963FDA44E065EA71E1CE010B96C6
:102C500039DA44E065E671E1CE010B9633DA44E0FF
:102C600061E671E1CE010B962DDA44E06DE571E18C
:102C7000CE010B9627DA4CE06DE877E0CE010B969B
:102C800021DA42E06BEA72E1CE010B961BDA42E0F8
:102C900069EA72E1CE010B9615DA42E067EA72E169
:102CA000CE010B960FDA42E065EA72E1CE010B9697
:102CB00009DA42E063EA72E1CE010B9603DA42E000
:102CC00061EA72E1CE010B96FDD944E06AE777E054
:102CD000CE010B96F7D944E066E872E0CE010B9680
:102CE000F1D944E062E872E0CE010B96EBD944E002
:102CF0006EE772E0CE010B96E5D942E0BE01675F58
:102D00007F4FCE010B96DED941E069EA77E0CE0134
:102D10000B96D8D944E061E272E0CE010B96D2D98D
:102D20000E94C0280E94E79AEEE6FBE08491882387
:102D300041F09091C00095FFFCCF8093C600319682
:102D4000F5CFE0EBF1E08491882341F09091C00051
:102D500095FFFCCF8093C6003196F5CF8091C000DF
:102D600085FFFCCF8AE08093C60001C09BDDC7DAF7
:102D70002C960FB6F894DEBF0FBECDBFDF91CF917A
:102D800008951F920F920FB60F9211240BB60F9257
:102D90002F933F934F935F936F938F939F93EF93F3
:102DA000FF936091C60020919B0530919C05C9015D
:102DB00001968F77992740919D0550919E05841724
:102DC000950741F0F901E55EFA4F608390939C0509
:102DD00080939B05FF91EF919F918F916F915F91F0
:102DE0004F913F912F910F900BBE0F900FBE0F9000
:102DF0001F9018959A01AB01211581EE3807410506
:102E0000510549F182E08093C00060E079E08DE3F4
:102E100090E00E94A5EF2150310941095109CA01F2
:102E2000B90122E030E040E050E00E94A5EF30938D
:102E3000C5002093C4008091C10080618093C100CF
:102E40008091C10088608093C1008091C10080683A
:102E50008093C10008951092C00020E130E0E7CFD8
:102E600020919D0530919E0580919B0590919C0538
:102E70008217930771F0F901E55EFA4F80812F5FA9
:102E80003F4F2F77332730939E0520939D0590E089
:102E900008958FEF9FEF089580919D0590919E0575
:102EA00090939C0580939B0508954F925F926F923B
:102EB0007F928F929F92AF92BF92CF92DF92EF92CA
:102EC000FF920F931F93CF93DF93CDB7DEB7A097F9
:102ED0000FB6F894DEBF0FBECDBF5C0141155105A2
:102EE00061057105E9F420E030E040E350E060E086
:102EF00070E0A0960FB6F894DEBF0FBECDBFDF9195
:102F0000CF911F910F91FF90EF90DF90CF90BF90E6
:102F1000AF909F908F907F906F905F904F905BC02D
:102F20008E010F5F1F4FC12CD12C76014801422E1C
:102F3000512C612C712C8FEFC81AD80AE80AF80AB4
:102F4000CB01BA01A30192010E9483EFCA01F801EB
:102F500061938F01A901BC014115510561057105FE
:102F600051F7F1E0CF1AD108E108F108F401EC0DB6
:102F7000FD1D80818A3010F440E301C047E3480F13
:102F8000552747FD5095652F752F20E030E0C5018E
:102F900022D081E0C81AD108E108F108EFEFCE167F
:102FA000DE06EE06FE0611F7A0960FB6F894DEBF19
:102FB0000FBECDBFDF91CF911F910F91FF90EF908A
:102FC000DF90CF90BF90AF909F908F907F906F9049
:102FD0005F904F9008952115310539F48091C0001C
:102FE00085FFFCCF4093C60008952A30310509F4CF
:102FF0001CC05BCFCF93DF93EC0120E030E04DE0CD
:1030000050E060E070E0E7DF20E030E04AE050E0D0
:1030100060E070E0CE01DF91CF91DDCF9A01AB018E
:10302000662757FD6095762FD6CFCF92DF92EF922D
:10303000FF92CF93DF93EC016A017B0177FF0FC012
:1030400020E030E04DE250E060E070E0C4DFF0945A
:10305000E094D094C094C11CD11CE11CF11C2AE066
:10306000B701A601CE01DF91CF91FF90EF90DF90E5
:10307000CF901BCF2115310539F48091C00085FF19
:10308000FCCF4093C600089510CF9A01462F50E020
:1030900060E070E0EFCFCF93DF93EC019A01AB01DA
:1030A00060E070E0E7DFCE01DF91CF91A3CF8F9298
:1030B0009F92AF92BF92CF92DF92EF92FF921F93B7
:1030C000CF93DF93EC016A017B01122F20E030E007
:1030D000A901C701B6010E94B2EB87FF0CC020E036
:1030E00030E04DE250E060E070E0CE0174DFF7FACE
:1030F000F094F7F8F094B12C60E070E080E09FE38A
:10310000B11641F020E030E040E251E40E94B9EB1A
:10311000B394F6CF9B01AC01C701B6010E94D9EA76
:103120006B017C010E9426EC4B015C010E9452EC79
:103130009B01AC01C701B6010E94D8EA6B017C017A
:103140002AE0B501A401CE01B0DE112361F0E1EF68
:10315000F4E08191882339F09091C00095FFFCCF75
:103160008093C600F6CF112319F120E030E040E251
:1031700051E4C701B6010E9487EE6B017C010E94F9
:1031800021EC4B01AA2497FCA094BA2CB501A40110
:10319000CE014BDFC501B4010E9454EC9B01AC0190
:1031A000C701B6010E94D8EA6B017C011150DBCF48
:1031B000DF91CF911F91FF90EF90DF90CF90BF9064
:1031C000AF909F908F90089572CFFC01659175919B
:1031D00085919491089580910B0290910C02A09199
:1031E0000D02B0910E028093520790935307A09363
:1031F0005407B09355078091290290912A02909329
:10320000AB078093AA0784E690E090932A0280930C
:1032100029020E946FE46093B1057093B205809318
:10322000B3059093B40581E00C94799080E00E94FE
:1032300079908091520790915307A0915407B091D3
:10324000550780930B0290930C02A0930D02B0934C
:103250000E028091AA079091AB0790932A02809367
:1032600029020E946FE46093B1057093B2058093C8
:10327000B3059093B40508952F923F924F925F92B9
:103280006F927F928F929F92AF92BF92CF92DF9276
:10329000EF92FF920F931F93CF93DF93CDB7DEB7DB
:1032A0002C970FB6F894DEBF0FBECDBF69837A832B
:1032B0008B839C8329013A01ED82FE820F8318875C
:1032C00020910B0230910C0240910D0250910E02A0
:1032D00029873A874B875C8760913302709134026B
:1032E000809135029091360260930B0270930C022C
:1032F00080930D0290930E02A1EAB7E0ED92FD9249
:103300000D931C93139720E030E040E752E40E94B5
:10331000B9EB4B015C01EDE9F7E02081318142819D
:10332000538189E9282E87E0382ED1016D917D9156
:103330008D919C91A9E7B7E0BF93AF93E5EACE2EBC
:10334000E7E0DE2EED80FE800F8118850E9450722E
:103350000E94469880E090E0AAEFB5E480930B02CB
:1033600090930C02A0930D02B0930E0229813A8132
:103370004B815C81D1012D933D934D935C931397C9
:10338000EDE9F7E04082518262827382A1EAB7E000
:10339000ED90FD900D911C91A9E7B7E0BF93AF931D
:1033A000F5E58F2E982CF5E0AF2EF3E4BF2EA301A8
:1033B000920169817A818B819C810E9450720E9466
:1033C000469829853A854B855C8520930B0230937E
:1033D0000C0240930D0250930E020F900F900F902D
:1033E0000F902C960FB6F894DEBF0FBECDBFDF91C5
:1033F000CF911F910F91FF90EF90DF90CF90BF90F2
:10340000AF909F908F907F906F905F904F903F9084
:103410002F9008952F923F924F925F926F927F92DA
:103420008F929F92AF92BF92CF92DF92EF92FF92D4
:103430000F931F93CF93DF938BE492E00E94B3E04E
:10344000E3E3F2E0608171818281938160930B02FA
:1034500070930C0280930D0290930E0220E030E0F6
:1034600040E752E40E94B9EB4B015C01CDE9D7E0A3
:10347000288139814A815B81E9E9F7E060817181C6
:1034800082819381A9E72A2EA7E03A2E3F922F92BC
:10349000B5EACB2EB7E0DB2EE12CF12C00E211ECEB
:1034A0000E9450720E94469882E00E94AF984B01A1
:1034B0005C01288139814A815B81E9E9F7E060811B
:1034C000718182819381850174010E94FF7C8AE36E
:1034D0009BE07BDE9B01AC01C501B4010E94D9EAEF
:1034E0002B013C0120E030E040E752E460910B0208
:1034F00070910C0280910D0290910E020E94B9EB26
:103500004B015C01288139814A815B81E9E9F7E05F
:1035100060817181828193813F922F928301720138
:103520000E9450720E94469820E030E040E85EE33E
:10353000E3E3F2E060817181828193810E9487EEF2
:103540004B015C0160930B0270930C0280930D029F
:1035500090930E028AE39BE038DE6B017C0120E051
:1035600030E040E752E4C501B4010E94B9EB4B01E1
:103570005C01A7019601C701B6010E94D9EA9B012F
:10358000AC01C301B2010E94D8EA7B018C01288101
:1035900039814A815B81E9E9F7E06081718182814B
:1035A00093813F922F92F5EACF2EF7E0DF2E0E9413
:1035B00050720E94469882E00E94AF987B018C0175
:1035C0006093A1077093A2078093A3079093A40729
:1035D000288139814A815B81E9E9F7E06081718165
:1035E000828193810E94FF7C0F900F900F900F902B
:1035F0000F900F90DF91CF911F910F91FF90EF905F
:10360000DF90CF90BF90AF909F908F907F906F9002
:103610005F904F903F902F9008952F923F924F923E
:103620005F926F927F928F929F92AF92BF92CF9252
:10363000DF92EF92FF920F931F93CF93DF93CDB75B
:10364000DEB72A970FB6F894DEBF0FBECDBF9E83BC
:103650008D83FC01E15DF44FB490880F991F880FB2
:10366000991F9A8789878756984F9A838983DC01A7
:103670001D921D921D921C921397B1EA2B2EB7E05A
:103680003B2EF101E080F18002811381ADE9B7E0CA
:103690002D913D914D915C91E9E9F7E06081718157
:1036A00082819381E5EACE2EE7E0DE2E0E94FF7C48
:1036B00089859A85825C944F88DD6B017C016B2D36
:1036C000772767FD7095872F972F0E9454EC2B0169
:1036D0003C0129853A852A59384F3C832B8320E0C9
:1036E00030E040EC5FE3C701B6010E9487EEA30122
:1036F00092010E9487EEAB81BC816D937D938D9387
:103700009C931397E985FA85E55DFD4FF887EF8374
:10371000608171818281938160930B0270930C02AE
:1037200080930D0290930E0220E030E040E752E4D7
:103730000E94B9EB4B015C01AEE6B7E0ED90FD9065
:103740000D911C91EAE6F7E020813181428153819D
:10375000A6E6B7E06D917D918D919C91A9E7B7E0C8
:10376000BF93AF93F2E7CF2EF7E0DF2E0E945072A7
:103770000E944698A981BA811D921D921D921C92A9
:103780001397F101E080F18002811381ADE9B7E088
:103790002D913D914D915C91E9E9F7E06081718156
:1037A00082819381A5EACA2EA7E0DA2E0E94FF7CCF
:1037B00029853A852E5C344F1901C90106DD9058E0
:1037C000A30192010E9487EEAB81BC816D937D9332
:1037D0008D939C93139720E030E040E752E4609192
:1037E0000B0270910C0280910D0290910E020E94CA
:1037F000B9EB4B015C01EEE6F7E0E080F18002817D
:103800001381AAE6B7E02D913D914D915C91E6E6DA
:10381000F7E06081718182819381A9E7B7E0BF936E
:10382000AF93B2E7CB2EB7E0DB2E0E9450720E941E
:103830004698C101CADC9B01AC010E94D9EAA301F0
:1038400092010E9487EEAB81BC816D937D938D9335
:103850009C93139720E030E040E05FE3EF81F88530
:1038600060817181828193810E9487EE60930B0257
:1038700070930C0280930D0290930E0220E030E0D2
:1038800040E752E40E94B9EB4B015C01AEE6B7E0C1
:10389000ED90FD900D911C91EAE6F7E020813181D9
:1038A00042815381A6E6B7E06D917D918D919C9107
:1038B000A9E7B7E0BF93AF930E9450720E94469869
:1038C00089859A85865B944F80DC09851A85035724
:1038D000184FD8012D913D914D915C910E94D9EAEC
:1038E000E981FA81608371838283938389859A85D4
:1038F0008E59944F6ADC29853A852F57384F7901C4
:10390000D8012D913D914D915C910E94D9EAF7012A
:10391000608371838283938389859A858A5A944FC1
:1039200054DC29853A852F5E3D4F7901D8012D91D0
:103930003D914D915C910E94D9EAF70160837183BA
:1039400082839383E981FA8180819181A281B3810D
:10395000EB81FC8180839183A283B38310920B025D
:1039600010920C0210920D0210920E020E947290A0
:10397000ED81FE81E258F84F81E080830F900F9037
:103980000F900F900F900F902A960FB6F894DEBF0D
:103990000FBECDBFDF91CF911F910F91FF90EF90A0
:1039A000DF90CF90BF90AF909F908F907F906F905F
:1039B0005F904F903F902F900895FC012491222317
:1039C00041F03091C00035FFFCCF2093C600019636
:1039D000F4CF22E030E08AE195E0F6CBFC012491BF
:1039E000222341F03091C00035FFFCCF2093C60068
:1039F0000196F4CF22E030E08AE195E0E5CBFC01CE
:103A00002491222341F03091C00035FFFCCF209358
:103A1000C6000196F4CF2AE030E08AE195E02ACB97
:103A20002091BB053091BC05243031050CF06AC0F3
:103A30004091BD055091BE0560E6649F9001659F71
:103A4000300D1124BC01C9018B539A4F0E9453F4CD
:103A5000EEE6FBE08491882341F09091C00095FF51
:103A6000FCCF8093C6003196F5CFE4E2FBE0849171
:103A7000882341F09091C00095FFFCCF8093C60051
:103A80003196F5CF8091BD059091BE0520E6289F27
:103A9000F001299FF00D1124EB53FA4F81918823F7
:103AA00039F09091C00095FFFCCF8093C600F6CF0F
:103AB000E2E2FBE08491882341F09091C00095FF01
:103AC000FCCF8093C6003196F5CF8091C00085FF72
:103AD000FCCF8AE08093C6008091BD059091BE0521
:103AE000019664E070E00E9470EF9093BE058093B1
:103AF000BD058091BB059091BC0501969093BC05D6
:103B00008093BB0508952091BB053091BC052430FE
:103B100031050CF06AC04091BD055091BE0560E6CC
:103B2000649F9001659F300D1124BC01C9018B5326
:103B30009A4F0E94BAF3EEE6FBE08491882341F0AD
:103B40009091C00095FFFCCF8093C6003196F5CFD1
:103B5000E7E1FBE08491882341F09091C00095FF5C
:103B6000FCCF8093C6003196F5CF8091BD05909132
:103B7000BE0520E6289FF001299FF00D1124EB538C
:103B8000FA4F8191882339F09091C00095FFFCCFC6
:103B90008093C600F6CFE5E1FBE08491882341F0F5
:103BA0009091C00095FFFCCF8093C6003196F5CF71
:103BB0008091C00085FFFCCF8AE08093C600809191
:103BC000BD059091BE05019664E070E00E9470EF23
:103BD0009093BE058093BD058091BB059091BC0577
:103BE00001969093BC058093BB0508959898A09A80
:103BF0000895269A2E980895F9DFFBDF40E950EDED
:103C000063E070E08AE195E0F5D8EFE0FBE08491B5
:103C1000882341F09091C00095FFFCCF8093C600AF
:103C20003196F5CF8091C00085FFFCCF8AE080936C
:103C3000C6008EE69BE0FC012491222341F03091E6
:103C4000C00035FFFCCF2093C6003196F5CF24B7D6
:103C500020FF14C0E7E0FBE03491332341F04091B2
:103C6000C00045FFFCCF3093C6003196F5CF3091B0
:103C7000C00035FFFCCF3AE03093C60021FF14C0EE
:103C8000E7EFFAE03491332341F04091C00045FF63
:103C9000FCCF3093C6003196F5CF3091C00035FF90
:103CA000FCCF3AE03093C60022FF14C0E6EEFAE003
:103CB0003491332341F04091C00045FFFCCF309355
:103CC000C6003196F5CF3091C00035FFFCCF3AE009
:103CD0003093C60023FF14C0E6EDFAE0349133239D
:103CE00041F04091C00045FFFCCF3093C6003196B3
:103CF000F5CF3091C00035FFFCCF3AE03093C600DD
:103D000025FF14C0E6ECFAE02491222341F0309123
:103D1000C00035FFFCCF2093C6003196F5CF20912F
:103D2000C00025FFFCCF2AE02093C60014BEEFEBB5
:103D3000FAE02491222341F03091C00035FFFCCFFE
:103D40002093C6003196F5CFE7EBFAE024912223C9
:103D500041F03091C00035FFFCCF2093C600319672
:103D6000F5CF2091C00025FFFCCF2AE02093C600AC
:103D7000FC012491EEE6FBE0222349F03091C000E3
:103D800035FFFCCF2093C60031962491F5CFE7EAAA
:103D9000FAE02491222341F03091C00035FFFCCF9E
:103DA0002093C6003196F5CFE2E9FAE02491222370
:103DB00041F03091C00035FFFCCF2093C600319612
:103DC000F5CFE6E8FAE02491222341F03091C000DB
:103DD00035FFFCCF2093C6003196F5CFE8E7FAE037
:103DE0002491222341F03091C00035FFFCCF209375
:103DF000C6003196F5CF2091C00025FFFCCF2AE008
:103E00002093C600EDE6FAE02491222341F03091A0
:103E1000C00035FFFCCF2093C6003196F5CFE1E618
:103E2000FAE02491222341F03091C00035FFFCCF0D
:103E30002093C6003196F5CF2091C00025FFFCCF1E
:103E40002AE02093C600FC018491EEE6FBE0882383
:103E500049F09091C00095FFFCCF8093C600319649
:103E60008491F5CFE2E5FAE08491882341F09091C6
:103E7000C00095FFFCCF8093C6003196F5CF0E941D
:103E8000F8584AE050E0BC018AE195E0C7D8EBE37E
:103E9000FAE08491882341F09091C00095FFFCCF17
:103EA0008093C6003196F5CF4AE050E060ED74E0B3
:103EB0008AE195E0B3D88091C00085FFFCCF8AE00D
:103EC0008093C6001092C1051092C2051092C305DE
:103ED0001092C4050E94CE150E94229D0E94EA7095
:103EE0000E94B2970E94B6B9FFEF23ED80E3F15034
:103EF00020408040E1F700C0000008958091B505A2
:103F00009091B60560E070E001960C9411F18091FB
:103F1000B5059091B6054AE050E060E070E001968A
:103F20000C9479F2682F772767FD70952091BF0573
:103F30003091C00540E6429FC001439F900D11247F
:103F40008B539A4F0E943FF49093B6058093B5052A
:103F500021E0892B09F420E0822F08950E946FE46C
:103F60006093B1057093B2058093B3059093B40547
:103F700008950E946FE46093B1057093B205809339
:103F8000B3059093B405E091BF05F091C005EF53E0
:103F9000FA4F8081811114C0EAE4F4E0849188230F
:103FA00041F09091C00095FFFCCF8093C600319600
:103FB000F5CF8091C00085FFFCCF8AE08093C600DA
:103FC00008958AE195E00E944C17EDE4F4E08491B5
:103FD000882341F09091C00095FFFCCF8093C600EC
:103FE0003196F5CF40914A0750914B0760914C07AD
:103FF00070914D074F5F5F4F6F4F7F4F2AE030E06A
:104000008AE195E00E94EB178091C00085FFFCCF0C
:104010008AE08093C600ADCF8F929F92AF92BF92FD
:10402000CF92DF92EF92FF920F931F93CF93DF9384
:10403000C1E8EC2EC4E0FC2E09E917E0C6E6D7E0A3
:104040008CEAC82E87E0D82EF70181917F016ADFC4
:10405000882311F153DF4B015C01F601808181114E
:1040600003C06091450701C061E070E080E090E02E
:104070000E9454ECF80120813181428153810E94D9
:1040800087EE9B01AC01C501B4010E94D9EA6883A7
:1040900079838A839B8309C0F80180819181A28101
:1040A000B38188839983AA83BB830C5F1F4F2496B7
:1040B000FFEFCF1ADF0A85E8E81684E0F80621F65C
:1040C00086E430DF8823D1F019DF6B017C01609337
:1040D000560770935707809358079093590720E02D
:1040E00030E0A9010E94B5ED181644F4C0920B020D
:1040F000D0920C02E0920D02F0920E02DF91CF916D
:104100001F910F91FF90EF90DF90CF90BF90AF90F5
:104110009F908F90089580DF89E404DF882351F019
:10412000EDDE60935A0770935B0780935C07909372
:104130005D0708C010925A0710925B0710925C0747
:1041400010925D078AE4EEDE882351F0D7DE60939B
:104150005E0770935F0780936007909361070895EF
:1041600010925E0710925F0710926007109261072D
:104170000895CF92DF92EF92FF92CF93DF93EC01FD
:10418000C0908107D0908207E0908307F090840769
:10419000A7019601688179818A819B810E94B2EB97
:1041A00087FF04C0C882D982EA82FB82C09085075B
:1041B000D0908607E0908707F0908807A7019601C6
:1041C0006C817D818E819F810E94B2EB87FF04C04C
:1041D000CC82DD82EE82FF82C0909507D090960758
:1041E000E0909707F090980720E030E0A901C70120
:1041F000B6010E94B2EB87FF08C020E030E0A901C1
:10420000C701B6010E94D9EA03C060E070E0CB01AB
:104210002091890730918A0740918B0750918C0734
:104220000E94D9EA6B017C019B01AC01688579850C
:104230008A859B850E94B2EB87FF04C0C886D98619
:10424000EA86FB86C0901102D0901202E090130221
:10425000F0901402A7019601688179818A819B817F
:104260000E94B5ED181624F4C882D982EA82FB8236
:10427000C0901502D0901602E0901702F09018023C
:10428000A70196016C817D818E819F810E94B5ED91
:10429000181624F4CC82DD82EE82FF82C0901902CF
:1042A000D0901A02E0901B02F0901C02A701960128
:1042B000688579858A859B850E94B5ED181624F45A
:1042C000C886D986EA86FB86DF91CF91FF90EF9072
:1042D000DF90CF9008954F925F926F927F928F926E
:1042E0009F92AF92BF92CF92DF92EF92FF920F9385
:1042F0001F93CF93DF93CDB7DEB728970FB6F8940F
:10430000DEBF0FBECDBF86E697E033DF0E946FE4CD
:104310006093B1057093B2058093B3059093B40593
:1043200020916607309167074091680750916907AF
:1043300029833A834B835C836091990770919A0734
:1043400080919B0790919C070E94B2EB40906A0776
:1043500050906B0760906C0770906D0720916E070E
:1043600030916F0740917007509171072D833E8304
:104370004F83588781118BC0A301920160919D07E3
:1043800070919E0780919F079091A0070E94B2EBC9
:1043900081117DC020E030E040E752E460910B02E3
:1043A00070910C0280910D0290910E020E94B9EB67
:1043B0004B015C0189E797E09F938F9392E7C92EA9
:1043C00097E0D92EED80FE800F811885A301920120
:1043D00069817A818B819C810E9450720F900F902D
:1043E0008091660790916707A0916807B09169076F
:1043F0008093990790939A07A0939B07B0939C078B
:1044000080916A0790916B07A0916C07B0916D073E
:1044100080939D0790939E07A0939F07B093A0075A
:1044200080916E0790916F07A0917007B09171070E
:104430008093A1079093A207A093A307B093A4072A
:104440008091720790917307A0917407B0917507DE
:104450008093A5079093A607A093A707B093A807FA
:1044600028960FB6F894DEBF0FBECDBFDF91CF9177
:104470001F910F91FF90EF90DF90CF90BF90AF9082
:104480009F908F907F906F905F904F900895609174
:10449000290270912A02882777FD8095982F0E9423
:1044A00054EC20910B0230910C0240910D0250917E
:1044B0000E020E9487EE20E030E040E752E40E94C6
:1044C000B9EB20E030E048EC52E470CFAF92BF92FD
:1044D000CF92DF92EF92FF920F931F93CF93DF93D0
:1044E000D82F20915E0730915F074091600750916F
:1044F000610760915A0770915B0780915C0790910A
:104500005D070E94C2EDC62F172F082FF92E60916C
:10451000290270912A02882777FD8095982F0E94A2
:1045200054EC20910B0230910C0240910D025091FD
:104530000E020E9487EE20E030E040E752E40E9445
:10454000B9EB20E030E048EC52E40E94B9EB209156
:1045500079072F93DF93FF920F931F93CF935B0104
:104560006C0122E0E22E01E020E04AE557E066E639
:1045700077E089E997E00E94B169809166079091A0
:104580006707A0916807B091690780939907909396
:104590009A07A0939B07B0939C0780916A0790911C
:1045A0006B07A0916C07B0916D0780939D07909366
:1045B0009E07A0939F07B093A00780916E079091EC
:1045C0006F07A0917007B09171078093A107909336
:1045D000A207A093A307B093A407809172079091BC
:1045E0007307A0917407B09175078093A507909306
:1045F000A607A093A707B093A8070E946FE4609353
:10460000B1057093B2058093B3059093B4050F90F4
:104610000F900F900F900F900F90DF91CF911F91FF
:104620000F91FF90EF90DF90CF90BF90AF900895E3
:10463000F8940E94C49D5F9A10927E078A9A109205
:104640007F079FB7F89480910801816080930801EB
:104650009FBF10928007129A60E08CE00E945AE699
:10466000E4E7FBE08491882341F09091C00095FF3E
:10467000FCCF8093C6003196F5CFEBE2F4E0849155
:10468000882341F09091C00095FFFCCF8093C60035
:104690003196F5CF8091C00085FFFCCF8AE08093F2
:1046A000C60082E294E00E9454B97894C6E0D0E05B
:1046B000219749F068EC70E080E090E00E949EE471
:1046C0000E94D4B9F5CFF894FFCF2F923F924F922A
:1046D0005F926F927F928F929F92AF92BF92CF9292
:1046E000DF92EF92FF920F931F93CF93DF93CDB79B
:1046F000DEB76E970FB6F894DEBF0FBECDBF60E693
:10470000B62E74E0E72EF12CE1E0CE2EE9E0DE2EAD
:10471000FAE0AF2E9924939480919B0590919C058B
:1047200020919D0530919E05821B930B8F779927D1
:10473000892B09F418C28091BB059091BC050497A0
:104740000CF011C28AE195E00E9430178093BA05FF
:104750002091B8053091B9058A3061F08D3051F063
:104760008A3321F49091B705992321F02F35310533
:104770000CF41BC12115310509F435C18091BD052B
:104780009091BE05B89E3001B99E700C1124F301C2
:10479000E20FF31FEB53FA4F10822091B70521115E
:1047A000FFC0FC01EF53FA4F108283010B531A4FE5
:1047B0006EE470E0C8010E943FF40097F1F190931D
:1047C000B6058093B505801B910B860D971D4AE0B9
:1047D00050E060E070E08A539A4F0E9479F2609353
:1047E0004E0770934F078093500790935107409066
:1047F0004A0750904B0760904C0770904D072FEF81
:10480000421A520A620A720A0091BD051091BE0551
:10481000641575058605970509F4E8C0B09EC001CA
:10482000B19E900D11246DE17AE08B539A4F0E9456
:10483000F1F3892B09F0DAC069C16AE270E0C801BE
:104840000E943FF4892B09F444C0E4E7FBE0849123
:10485000882341F09091C00095FFFCCF8093C60063
:104860003196F5CFE7E7F9E08491882341F0909104
:10487000C00095FFFCCF8093C6003196F5CF4091E4
:104880004A0750914B0760914C0770914D072AE001
:1048900030E08AE195E00E94EB178091C00085FF2F
:1048A000FCCF8AE08093C6001092B9051092B8053B
:1048B000C0C280914E0790914F07A0915007B091D0
:1048C000510780934A0790934B07A0934C07B093EE
:1048D0004D078091BD059091BE05B89E8001B99E9F
:1048E000100D1124C8018B539A4F3C0167E470E00E
:1048F0000E943FF4009781F19093B6058093B5052F
:1049000086199709800F911F60E070E08A539A4FD3
:104910000E9411F10E9421EC64307105E8F480914D
:10492000A3058823C9F0F6018491E1E0F9E088232A
:1049300049F09091C00095FFFCCF8093C60031965E
:104940008491F5CF8091C00085FFFCCFA092C60076
:1049500087EF98E00E9447B90091BD051091BE0510
:10496000B09EC001B19E900D112463E173E08B53A2
:104970009A4F0E944AF4892B09F45ADEC801019625
:10498000B7010E9470EF9093BE058093BD058091A2
:10499000BB059091BC0501969093BC058093BB0527
:1049A0001092B9051092B805B7CE8B3311F49092DE
:1049B000B7059091B7059111AFCE4091BD055091CB
:1049C000BE05B9016F5F7F4F7093B9056093B8055D
:1049D000B49EF001B59EF00D1124E20FF31FEB53CE
:1049E000FA4F808399CE1092B70523C2B09E300152
:1049F000B19E700C1124C3018B539A4F1C016AE2C3
:104A000070E00E943FF4009789F5E4E7FBE08491B1
:104A1000882341F09091C00095FFFCCF8093C600A1
:104A20003196F5CFE1EAF9E08491882341F0909145
:104A3000C00095FFFCCF8093C6003196F5CF409122
:104A40004A0750914B0760914C0770914D072AE03F
:104A500030E08AE195E00E94EB178091C00085FF6D
:104A6000FCCF8AE08093C600ACDA1ECF20E010E0D5
:104A7000F301E20FF11DEB53FA4F30813A3219F096
:104A80002F5F1327F5CF9093B6058093B505821954
:104A90009309860D971D60E070E08A539A4F0E943B
:104AA00011F10E9421EC212F30E02617370709F47D
:104AB00000CFE4E7FBE08491882341F09091C000AF
:104AC00095FFFCCF8093C6003196F5CFEBECF9E073
:104AD0008491882341F09091C00095FFFCCF809392
:104AE000C6003196F5CF40914A0750914B0760912F
:104AF0004C0770914D072AE030E08AE195E00E9472
:104B0000EB178091C00085FFFCCFABCFE4E7FBE063
:104B10008491882341F09091C00095FFFCCF809351
:104B2000C6003196F5CFEAEEF9E08491882341F092
:104B30009091C00095FFFCCF8093C6003196F5CFD1
:104B400040914A0750914B0760914C0770914D0777
:104B50002AE030E08AE195E00E94EB178091C000E6
:104B600085FFFCCF7ECF8091B207882309F461C115
:104B70008091B8059091B905892B09F05AC18091AF
:104B8000BB059091BC05892B11F41092A10548EE4C
:104B9000242E43E0342E412C512C5CE3C52ED12C25
:104BA000E12CF12C8E010F5F1F4F30E6632E77242E
:104BB00073944091330A5091340A6091350A709190
:104BC000360A80912B0A90912C0AA0912D0AB0915F
:104BD0002E0A481759076A077B0708F02AC18091F7
:104BE000BB059091BC0504970CF023C18091A105F1
:104BF00081111FC18091860990918709A091880930
:104C0000B09189098093330A9093340AA093350AAE
:104C1000B093360A8EE799E00E94CA52482F8093DB
:104C2000BA058A30B9F04D30A9F0433229F4209109
:104C3000B705211103C00EC04A33C9F32091B8054E
:104C40003091B9052F3531052CF48F3FFFEF9F07C9
:104C500009F0D1C04091330A5091340A6091350A6D
:104C60007091360A80912B0A90912C0AA0912D0AFE
:104C7000B0912E0A481759076A077B0708F481C0CC
:104C8000E4EEF8E08491882341F09091C00095FF14
:104C9000FCCF8093C6003196F5CF8091C00085FF90
:104CA000FCCFFAE0F093C6000E946FE46093A50584
:104CB0007093A6058093A7059093A8058090A905F9
:104CC0009090AA05A090AB05B090AC056819790941
:104CD0008A099B09A20191010E9483EF49015A01AF
:104CE000CA01B901A70196010E9483EFCA01B90167
:104CF000A70196010E9483EF7F936F93C501B401D2
:104D000020E13EE040E050E00E9483EF3F932F938C
:104D1000A0EDB8E0BF93AF931F930F930E9477F479
:104D2000EEE6FBE084910FB6F894DEBF0FBECDBF78
:104D3000882349F09091C00095FFFCCF8093C60076
:104D400031968491F5CFF8018191882339F09091C3
:104D5000C00095FFFCCF8093C600F6CF8091C000C5
:104D600085FFFCCF3AE03093C600C8010E9464B6CC
:104D700080EB97E00E94356961E080EB97E00E944C
:104D80006D638091BA05833211F47092A105209170
:104D9000B8053091B9052115310509F424CE80916B
:104DA000BD059091BE05689EF001699EF00D11242D
:104DB000E20FF31FEB53FA4F1082FC01EF53FA4F4F
:104DC00070822091BB053091BC052F5F3F4F30931F
:104DD000BC052093BB05019664E070E00E9470EF73
:104DE0009093BE058093BD051092B7051092B9054A
:104DF0001092B805DECE4B3311F47092B705409196
:104E0000B7054111D2CE4091BD055091BE05B90103
:104E10006F5F7F4F7093B9056093B805649EF00192
:104E2000659EF00D1124E20FF31FEB53FA4F8083C0
:104E3000C0CE6E960FB6F894DEBF0FBECDBFDF9129
:104E4000CF911F910F91FF90EF90DF90CF90BF9087
:104E5000AF909F908F907F906F905F904F903F901A
:104E60002F900895CF92DF92EF92FF920F931F93AE
:104E7000CF93C82F8091BB059091BC0503970CF48C
:104E800024DC0E946FE40091AD051091AE052091E5
:104E9000AF053091B005C090B105D090B205E0905B
:104EA000B305F090B4056C197D098E099F090617AA
:104EB00017072807390728F4012B022B032B09F0C9
:104EC000B7DB40910702509108026091090270918E
:104ED0000A02452B462B472B19F10E946FE40091E3
:104EE000B1051091B2052091B3053091B405601B56
:104EF000710B820B930B0091070210910802209115
:104F0000090230910A02061717072807390740F4EB
:104F10009091500C80914F0C981302C0CC2309F152
:104F200080919F059091A005909902C0019604C0C0
:104F3000181619062CF401979093A00580939F05ED
:104F400080919F059091A005803197420CF0B8CFD9
:104F5000CF911F910F91FF90EF90DF90CF900C9425
:104F600033725F9A10927E078A9A10927F079FB7DA
:104F7000F894809108018160809308019FBF10928E
:104F80008007129ACDCF0E94C49D8091A305811104
:104F900038C081E08093A30580914A0790914B0728
:104FA000A0914C07B0914D07809346079093470717
:104FB000A0934807B0934907E4E7FBE08491882376
:104FC00041F09091C00095FFFCCF8093C6003196D0
:104FD000F5CFECEAF3E08491882341F09091C00092
:104FE00095FFFCCF8093C6003196F5CF8091C0002D
:104FF00085FFFCCF8AE08093C60082EA93E00C94A0
:1050000047B908958091A3050895CF93DF93EC01EC
:10501000809179078093A40584E50E94921F8111F5
:1050200002C080E075C00E947E1F0E9426EC609343
:10503000A4056623B1F3EEE6FBE08491882341F0FA
:105040009091C00095FFFCCF8093C6003196F5CFBC
:10505000CD36D105B9F054F4C836D105B1F0C93612
:10506000D10509F045C0EDE5F3E021C0CA3DD10509
:1050700031F0CD3DD105E1F5E8E1F3E036C0EFE2F6
:10508000F3E029C0E6E4F3E01CC0E4E7F3E081913B
:10509000882371F19091C00095FFFCCF8093C600EA
:1050A000F6CF9091C00095FFFCCF8093C600819110
:1050B0008111F7CF1DC09091C00095FFFCCF809368
:1050C000C60081918111F7CF13C09091C00095FF68
:1050D000FCCF8093C60081918111F7CF09C09091D8
:1050E000C00095FFFCCF8093C60081918111F7CF5E
:1050F00040E050E06091A4058AE195E00E944518E7
:105100008091C00085FFFCCF8AE08093C60081E0DB
:10511000DF91CF910895CF92DF92EF92FF9220918D
:10512000A9072223F1F020E030E040E05FE30E9495
:1051300087EE6B017C0120E030E0A9010E94B2EB18
:10514000882379F0A7019601C701B6010E9487EE76
:105150002BED3FE049E450E40E9487EE9B01AC0157
:1051600004C020E030E040E85FE360E070E080E809
:105170009FE30E94B9EBFF90EF90DF90CF900895EE
:105180006091210270912202809123029091240269
:10519000C2DF60931D0270931E0280931F029093E2
:1051A000200208952F923F924F925F926F927F92CA
:1051B0008F929F92AF92BF92CF92DF92EF92FF9227
:1051C0000F931F93CF93DF93CDB7DEB7CB56D1406C
:1051D0000FB6F894DEBF0FBECDBF87E40E94921FCA
:1051E000882311F40C9463310E947E1F0E9421ECED
:1051F0006C31710509F4ADC09CF46230710509F49D
:105200004AC024F477FF3DC00C94024B6330710513
:1052100009F44CC06430710509F453C00C94024B7E
:105220006A35710509F4E4C714F56D31710509F4A7
:105230008DC36E31710511F00C94024B0E9446989B
:105240000E94EB188091330290913402A0913502B4
:10525000B091360280930B0290930C02A0930D0242
:10526000B0930E020E940A1AE9E3F8E05CC76B35BE
:10527000710509F4C1C76C35710509F4C2C70C94F6
:10528000024B8091A30581110C94024B0E940C20CB
:1052900022D80C94024B8091A30581110C94024BEF
:1052A0000E948B2081E012D90C94024B8091A305BF
:1052B00081110C94024B0E948B2080E007D90C9442
:1052C000024B87EC98E00E9447B980E50E94921F4C
:1052D000882339F00E947E1F0E9426EC4B015C015E
:1052E00003C0812C912C540183E50E94921F8823D6
:1052F00061F00E947E1F20E030E04AE754E40E9403
:1053000087EE0E9426EC4B015C010E9446980E94A9
:105310006FE46B017C01C80CD91CEA1CFB1C0E94C9
:105320006FE46093B1057093B2058093B3059093D9
:10533000B4050E946FE46C157D058E059F0510F085
:105340000C94024B0E94099B80E08CDD0E94D4B932
:10535000F0CF8BE492E00E94B3E080910B02909139
:105360000C02A0910D02B0910E028093520790930F
:105370005307A0935407B093550780912902909149
:105380002A029093AB078093AA0784E690E090935B
:105390002A02809329020E946FE46093B105709302
:1053A000B2058093B3059093B40581E00E94799093
:1053B0008091990790919A07A0919B07B0919C07C3
:1053C0008093660790936707A0936807B093690777
:1053D00080919D0790919E07A0919F07B091A00793
:1053E00080936A0790936B07A0936C07B0936D0747
:1053F0008091A1079091A207A091A307B091A40763
:1054000080936E0790936F07A0937007B093710716
:105410008091A5079091A607A091A707B091A80732
:105420008093720790937307A0937407B0937507E6
:1054300010920B0210920C0210920D0210920E02AA
:1054400088E50E94921F882311F090E00AC089E548
:105450000E94921F8111F9CF8AE50E94921F91E06C
:10546000982790930F0291110C94054B88E50E94A8
:10547000921F81110C94054B80910F0281110C94A5
:105480000B4B89E50E94921F81110C940B4B88E510
:105490000E94921F8823D1F00E94871F672B682BE0
:1054A000692BA1F00E947E1F20918D0730918E07FD
:1054B00040918F07509190070E94D9EA6093990715
:1054C00070939A0780939B0790939C0789E50E94AD
:1054D000921F8823D1F00E94871F672B682B692BAE
:1054E000A1F00E947E1F2091910730919207409178
:1054F0009307509194070E94D9EA60939D07709397
:105500009E0780939F079093A00780910F028823A6
:1055100009F4ACC080E090E0A4E1B3E480936607B6
:1055200090936707A0936807B093690780E090E0C5
:10553000A3E2B3E480936A0790936B07A0936C0790
:10554000B0936D07E1E3FBE064912DEF6202B001DF
:105550001124882777FD8095982F0E9454EC609342
:105560006E0770936F07809370079093710780E0C8
:1055700090E0A5E0B3E480930B0290930C02A0931B
:105580000D02B0930E021092A1071092A207109282
:10559000A3071092A40720919D0730919E07409188
:1055A0009F075091A0076091990770919A07809189
:1055B0009B0790919C07B5EACB2EB7E0DB2EE12C40
:1055C000F12C87010E94FF7C80900B0290900C02CE
:1055D000A0900D02B0900E02E0906E07F0906F0761
:1055E000009170071091710720916A0730916B0745
:1055F00040916C0750916D07609166077091670745
:105600008091680790916907E9E7F7E0FF93EF93CE
:10561000E2E7CE2EE7E0DE2E0E9450720E9446980E
:105620008091660790916707A0916807B09169071C
:105630008093990790939A07A0939B07B0939C0738
:1056400080916A0790916B07A0916C07B0916D07EC
:1056500080939D0790939E07A0939F07B093A00708
:1056600082E090E00E940D1B0F900F908AE50E944F
:10567000921F882309F4F9C080917E07882309F4DA
:10568000ACC080917F07882309F4A7C08090990758
:1056900090909A07A0909B07B0909C0720E030E084
:1056A00048EB51E4C501B4010E94D8EA6B017C01CA
:1056B00020E030E0A9010E94B5ED87FDB1C020E0F7
:1056C00030E04AE753E4C701B6010E94B2EB181676
:1056D0000CF4A6C040909D0750909E0760909F07D5
:1056E0007090A00720E030E040EE51E4C301B20129
:1056F0000E94D8EA6B017C0120E030E0A9010E9401
:10570000B5ED87FD8DC020E030E047E853E4C701E8
:10571000B6010E94B2EB18160CF482C01092A107D9
:105720001092A2071092A3071092A407F5EACF2EB9
:10573000F7E0DF2EE12CF12C8701A3019201C501D6
:10574000B4010E94FF7CE1E3FBE064913DEF630262
:10575000B0011124882777FD8095982F0E9454EC82
:105760007B018C0160936E0770936F0780937007C5
:105770009093710780909D1190909E11A0909F1121
:10578000B090A01180920B0290920C02A0920D0298
:10579000B0920E0220916A0730916B0740916C071E
:1057A00050916D0760916607709167078091680757
:1057B00090916907E9E7F7E0FF93EF93A2E7CA2E1C
:1057C000A7E0DA2E0E9450720E94469882E090E094
:1057D0000E940D1B0F900F9048C085EB98E00E942F
:1057E00047B9EEE6FBE08491882341F09091C00038
:1057F00095FFFCCF8093C6003196F5CFE3EAF8E041
:105800008491882341F09091C00095FFFCCF809354
:10581000C6003196F5CF8091C00085FFFCCF22C035
:1058200082E998E00E9447B9EEE6FBE08491882384
:1058300041F09091C00095FFFCCF8093C600319657
:10584000F5CFE1E8F8E08491882341F09091C00021
:1058500095FFFCCF8093C6003196F5CF8091C000B4
:1058600085FFFCCF8AE08093C6008AE50E94921FE4
:105870008823D1F00E94871F672B682B692BA1F02A
:105880000E947E1F209195073091960740919707BF
:10589000509198070E94D9EA6093A1077093A207DC
:1058A0008093A3079093A40780910F0281110C9419
:1058B000114B8AE50E94921F81110C94114BE090CC
:1058C000A107F090A2070091A3071091A4072091CF
:1058D0009D0730919E0740919F075091A0076091CE
:1058E000990770919A0780919B0790919C07E5EA30
:1058F000CE2EE7E0DE2E0E94FF7C80E00E947990B1
:105900008091520790915307A0915407B091550789
:1059100080930B0290930C02A0930D02B0930E02A1
:105920008091AA079091AB0790932A028093290255
:105930000E946FE46093B1057093B2058093B30544
:105940009093B4050E9472900C94024B80917E0754
:10595000882321F080917F07811127C08FE698E08E
:105960000E9447B9EEE6FBE08491882341F09091D4
:10597000C00095FFFCCF8093C6003196F5CFEDE5D2
:10598000F8E08491882341F09091C00095FFFCCF0E
:105990008093C6003196F5CF8091C00085FFFCCF83
:1059A0008AE08093C6000C94024B0E9446988BE4D8
:1059B00092E00E94B3E0CE018B5F9E4F0E94887CF4
:1059C000CB5FDE4F688179818A819B81C550D14050
:1059D0006093990770939A0780939B0790939C0715
:1059E000C75FDE4F288139814A815B81C950D14030
:1059F00020939D0730939E0740939F075093A007E5
:105A0000C35FDE4FE880F9800A811B81CD50D14011
:105A1000E092A107F092A2070093A3071093A407B6
:105A2000B5EACB2EB7E0DB2E0E94FF7C0E94EB187C
:105A30008091330290913402A0913502B0913602E8
:105A400080930B0290930C02A0930D02B0930E0270
:105A5000612C712C212C312C82E390E0CA5BDE4F4B
:105A600099838883C654D140ABE4B0E0C25CDE4F7A
:105A7000B983A883CE53D140E2E3F0E0C75CDE4FA8
:105A8000F983E883C953D140C35CDE4F1882CD53FC
:105A9000D14081E090E08C0F9D1F860D971DC55C65
:105AA000DE4F99838883CB53D140CC5BDE4F398264
:105AB0002882C454D140412C512CCA5BDE4F8881CE
:105AC0009981C654D140AA2797FDA095BA2FC05BF3
:105AD000DE4F88839983AA83BB83C055D140A9EC4C
