:100000000C940A100C943B100C943B100C943B1075
:100010000C943B100C943B100C943B100C943B1034
:100020000C943B100C943B100C943B100C943B1024
:100030000C943B100C94DBE60C943B100C943B109E
:100040000C943B100C94EF900C943B100C943B10D0
:100050000C943B100C943B100C947CA30C9448E73C
:100060000C943B100C94C2160C943B100C943B1057
:100070000C943B100C943B100C943B100C943B10D4
:100080000C943B100C943B100C943B100C943B10C4
:100090000C943B100C943B100C943B100C943B10B4
:1000A0000C943B100C943B100C943B100C943B10A4
:1000B0000C943B100C943B100C943B100C943B1094
:1000C0000C943B100C943B100C943B100C943B1084
:1000D0000C943B100C943B100C943B100C943B1074
:1000E0000C943B10DAA3E9A305A414A42EA43DA408
:1000F00057A45BA45DA461A469A488E88DE892E894
:100100009CE8A6E81FE9B0E8B8E8C0E8CAE8D4E887
:10011000DEE8EDE8F7E81FE901E90BE915E940E958
:1001200043E932E936E93CE97AE947E94BE951E943
:1001300055E959E95FE963E967E97AE96DE971E948
:1001400075E9084AD73B3BCE016E84BCBFFDC12F89
:100150003D6C74319ABD56833DDA3D00C77F11BEB8
:10016000D9E4BB4C3E916BAAAABE000000803F05BB
:10017000A84CCDB2D44EB93836A9020C50B99186EC
:1001800088083CA6AAAA2ABE000000803F00486159
:100190007264636F6465642044656661756C742085
:1001A00053657474696E6773204C6F616465640095
:1001B00053746F7265642073657474696E6773201D
:1001C0007265747269657665640020440020490098
:1001D0002020204D33303120500050494420736599
:1001E0007474696E67733A00205A00205900202009
:1001F0004D323036205800486F6D65206F6666734B
:10020000657420286D6D293A00204500205A002091
:10021000580020420020540020204D323035205319
:1002200000416476616E6365642076617269616223
:100230006C65733A20533D4D696E20666565647246
:1002400061746520286D6D2F73292C20543D4D69F4
:100250006E2074726176656C206665656472617487
:100260006520286D6D2F73292C20423D6D696E69C4
:100270006D756D207365676D656E742074696D654D
:1002800020286D73292C20583D6D6178696D756D3E
:10029000205859206A65726B20286D6D2F73292CA8
:1002A00020205A3D6D6178696D756D205A206A6510
:1002B000726B20286D6D2F73292C2020453D6D61B8
:1002C00078696D756D2045206A65726B20286D6DAB
:1002D0002F73290020540020204D32303420530049
:1002E000416363656C65726174696F6E3A20533D5A
:1002F000616363656C65726174696F6E2C20543D37
:100300007265747261637420616363656C657261A8
:1003100074696F6E00204500205A0020590020208B
:100320004D3230312058004D6178696D756D204136
:100330006363656C65726174696F6E20286D6D2FE3
:100340007332293A00204500205A0020590020200D
:100350004D3230332058004D6178696D756D2066DF
:10036000656564726174657320286D6D2F73293A19
:1003700000204500205A0020590020204D3932200D
:10038000580053746570732070657220756E6974BF
:100390003A0053657474696E67732053746F7265A5
:1003A000640053544F505045442E20005072696EE3
:1003B0007465722073746F70706564206475652055
:1003C000746F206572726F72732E20466978207484
:1003D0006865206572726F7220616E642075736546
:1003E000204D39393920746F2072657374617274CD
:1003F0002E202854656D7065726174757265206970
:10040000732072657365742E20536574206974209F
:1004100061667465722072657374617274696E6767
:1004200029004B494C4C45442E20005072696E7493
:1004300065722068616C7465642E206B696C6C2831
:10044000292063616C6C656421006F6B00526573D9
:10045000656E643A20000A00207A3A200020793A3A
:10046000200020783A2000426564002200556E6B1F
:100470006E6F776E20636F6D6D616E643A2022003F
:100480004368616E67652066696C616D656E7400B6
:100490005A204F6666736574203A20007A5F6D615A
:1004A000783A20007A5F6D696E3A20005A204F66D4
:1004B00066736574005A204F6666736574206F6BAF
:1004C000007A5F6D61783A20007A5F6D696E3A203C
:1004D00000795F6D61783A2000795F6D696E3A202E
:1004E00000785F6D61783A2000785F6D696E3A2020
:1004F00000205A3A0020593A0020436F756E74204C
:10050000583A200020453A00205A3A0020593A0033
:10051000583A004649524D574152455F4E414D456C
:100520003A4D61726C696E20312E302E322B204490
:100530006576656C6F706D656E742046726F6D20A8
:100540004172636869766520534F555243455F4356
:100550004F44455F55524C3A68747470733A2F2F6C
:100560006769746875622E636F6D2F4D61726C6977
:100570006E4669726D776172652F4D61726C696E3E
:100580002050524F544F434F4C5F56455253494FA2
:100590004E3A312E30204D414348494E455F545923
:1005A00050453A4D656E64656C204558545255442B
:1005B00045525F434F554E543A3120555549443AC0
:1005C00030303030303030302D303030302D303031
:1005D00030302D303030302D303030303030303021
:1005E000303030300A004D656E64656C204F6666B1
:1005F0002E004D656E64656C2072656164792E0015
:1006000042656420646F6E652E0020423A002045EA
:100610003A00543A004265642048656174696E6727
:100620002E0048656174696E6720646F6E652E00E8
:1006300020573A0020453A00543A004865617469F1
:100640006E672E2E2E002042403A0020403A0020B5
:100650002F003A00205400202F0020423A00202F83
:10066000006F6B20543A000A0A005374616E646193
:10067000726420446576696174696F6E3A20000A7D
:10068000004D65616E3A20000A002020207A3A2051
:100690000000793A2000783A20003F537065636982
:1006A00066696564206E756D626572206F66206C88
:1006B00065677320696E206D6F76656D656E742059
:1006C0006E6F7420706C61757361626C652E0A00C8
:1006D0003F537065636966696564205920706F7364
:1006E0006974696F6E206F7574206F662072616E19
:1006F00067652E0A003F537065636966696564200B
:100700005820706F736974696F6E206F7574206FF5
:10071000662072616E67652E0A003F5370656369DB
:10072000666965642073616D706C652073697A65B4
:10073000206E6F7420706C61757361626C652E0A37
:100740000046756C6C20737570706F7274206174E4
:100750003A20687474703A2F2F33647072696E7423
:10076000626F6172642E636F6D2F666F72756D2E8E
:100770007068700A004D3438205A2D50726F6265CF
:10078000205265706561746162696C697479207466
:100790006573742E20202056657273696F6E203247
:1007A0002E30300A003F566572626F7365204C65CB
:1007B00076656C206E6F7420706C61757361626C0D
:1007C000652E0A002569206D696E2C20256920732D
:1007D000656300456E642066696C65206C6973749E
:1007E00000426567696E2066696C65206C69737488
:1007F000004E6F206D6F76652E004D656E64656CE2
:100800002072656164792E00526573756D696E673B
:10081000207072696E74005761697420666F72206F
:10082000757365722E2E2E000A00205A3A20002081
:10083000593A200020583A20004265640020643A6A
:10084000200020623A200045716E20636F65666665
:10085000696369656E74733A20613A2000486F6D70
:100860006520582F59206265666F7265205A0048CE
:100870006F6D6520582F59206265666F7265205A2A
:10088000005A2070726F6265206F75742E20626549
:1008900064005A2070726F6265206F75742E20623A
:1008A000656400486F6D6520582F59206265666F3A
:1008B0007265205A00486F6D6520582F5920626577
:1008C000666F7265205A00536C6565702E2E2E007F
:1008D000256920686F757273202569206D696E75B2
:1008E00074657300446F6E65207072696E74696E12
:1008F000672066696C650053544F505045442E2064
:10090000005072696E7465722073746F70706564E4
:100910002064756520746F206572726F72732E206B
:1009200046697820746865206572726F7220616E06
:100930006420757365204D39393920746F207265D4
:1009400073746172742E202854656D7065726174C1
:100950007572652069732072657365742E20536506
:1009600074206974206166746572207265737461A5
:100970007274696E6729004E6F204C696E65204E57
:10098000756D626572207769746820636865636B52
:1009900073756D2C204C617374204C696E653A2020
:1009A000004E6F20436865636B73756D20776974C3
:1009B00068206C696E65206E756D6265722C204CC6
:1009C000617374204C696E653A2000636865636BDF
:1009D00073756D206D69736D617463682C204C6153
:1009E0007374204C696E653A20004C696E65204E28
:1009F000756D626572206973206E6F74204C61732F
:100A000074204C696E65204E756D6265722B312CB9
:100A1000204C617374204C696E653A20004D313171
:100A20003000446F6E6520736176696E6720666979
:100A30006C652E006F6B004D3239002020506C61C8
:100A40006E6E657242756666657242797465733A58
:100A500020002046726565204D656D6F72793A20E1
:100A6000004A756E203232203230313600436F6DCD
:100A700070696C65643A200028444959452C205817
:100A80004C2B4C532B414C2900207C204175746821
:100A90006F723A20004A756E203232203230313681
:100AA0002031373A32363A333800204C61737420A3
:100AB000557064617465643A200020312E302E3206
:100AC0002B004D61726C696E0020536F6674776104
:100AD00072652052657365740020576174636864A1
:100AE0006F67205265736574002042726F776E20C5
:100AF0006F75742052657365740020457874657253
:100B00006E616C20526573657400506F7765725525
:100B100070007374617274002200656E717565698E
:100B20006E672022002200656E717565696E672010
:100B30002200FFFFFF0000A0400000A040000000D6
:100B40004000007A43000087430000484300000053
:100B500000000000000000000000007A4300008751
:100B600043000048430000000000000000000000B7
:100B7000006563686F3A004572726F723A007C3CA0
:100B80003E5E2B3D3F2F5B5D3B2C2A225C004D38A7
:100B90003420582059205A20450043616E6E6F74EE
:100BA00020656E746572207375626469723A200004
:100BB0004D3234004D3233202573006175746F253A
:100BC000692E67006572726F722077726974696E40
:100BD0006720746F2066696C65004E6F7420534403
:100BE000207072696E74696E67002F005344207024
:100BF00072696E74696E67206279746520002E00D8
:100C000044656C6574696F6E206661696C65642CFF
:100C10002046696C653A200046696C652064656C05
:100C2000657465643A002E006F70656E20666169B8
:100C30006C65642C2046696C653A200057726974B3
:100C4000696E6720746F2066696C653A20002E001B
:100C50006F70656E206661696C65642C2046696CF6
:100C6000653A20002E006F70656E206661696C65C4
:100C7000642C2046696C653A200046696C652073D7
:100C8000656C6563746564002053697A653A200079
:100C900046696C65206F70656E65643A20002E00B1
:100CA0006F70656E206661696C65642C2046696CA6
:100CB000653A20004E6F772066726573682066691A
:100CC0006C653A20004E6F7720646F696E6720660E
:100CD000696C653A20002220706F730022207061D9
:100CE00072656E743A2200535542524F5554494E24
:100CF000452043414C4C207461726765743A220070
:100D0000747279696E6720746F2063616C6C2073F4
:100D100075622D67636F64652066696C6573207703
:100D200069746820746F6F206D616E79206C6576D0
:100D3000656C732E204D4158206C6576656C20697A
:100D4000733A0053442063617264206F6B006F70CC
:100D5000656E526F6F74206661696C656400766FB2
:100D60006C756D652E696E6974206661696C656469
:100D700000534420696E6974206661696C002074B8
:100D80006F6F206C6F6E6720657874727573696F12
:100D90006E2070726576656E7465640020636F6C9A
:100DA0006420657874727573696F6E2070726576F1
:100DB000656E74656400656E6473746F707320682B
:100DC00069743A205A00205A3A00656E6473746F51
:100DD0007073206869743A20590020593A00656E92
:100DE0006473746F7073206869743A2058002058D7
:100DF0003A00656E6473746F7073206869743A208A
:100E00000024F4D43050C38E20C2A24017828B70CD
:100E100011127A910D816CD90AA861E108C7586650
:100E200007615143061E4B5D05C145A7041A4111D8
:100E300004093D9803713931034036DB0265339173
:100E400002D4305402802E1D02632CEE01752AC597
:100E500001B028A001102781018F2564012B244BAC
:100E600001E0223401AC211F018D200D01801FFC07
:100E700000841EED00971DDF00B81CD200E61BC6E3
:100E800000201BBC00641AB200B219A8000A19A005
:100E9000006A189900D117910040178B00B516848D
:100EA0000031167E00B31579003A157300C7146F30
:100EB0000058146A00EE1366008813630025135E61
:100EC00000C7125B006C12570015125400C111517B
:100ED0000070114F0021114B00D61049008D1047B2
:100EE000004610440002104200C00F4000800F3E38
:100EF00000420F3C00060F3B00CB0E3800930E372C
:100F0000005C0E3500270E3400F30D3200C10D31A8
:100F100000900D3000600D2E00320D2D00050D2CBF
:100F200000D90C2B00AE0C2900850C29005C0C2785
:100F300000350C27000E0C2600E80B2400C40B24FF
:100F400000A00B23007D0B23005A0B2100390B213D
:100F500000180B2000F80A1F00D90A1E00BB0A1E49
:100F6000009D0A1D00800A1D00630A1C00470A1B21
:100F7000002C0A1B00110A1A00F7091A00DD0919D2
:100F800000C4091900AB091900920917007B091860
:100F900000630917004C09160036091600200916CF
:100FA000000A091500F5081500E0081400CC081423
:100FB00000B8081400A4081400900813007D08125B
:100FC000006B08130058081200460812003408117C
:100FD00000230811001208110001081100F0071089
:100FE00000E0071000D0071000C0071000B0070F86
:100FF00000A107100091070E0083070F0074070F70
:101000000065070E0057070E0049070E003B070D4D
:10101000002E070E0020070D0013070D0006070D18
:1010200000F9060C00ED060D00E0060C00D4060CDD
:1010300000C8060C00BC060C00B0060C00A4060B91
:101040000099060C008D060B0082060B0077060B3C
:10105000006C060B0061060A0057060B004C060ADE
:101060000042060A0038060A002E060A0024060A74
:10107000001A060A001006090007060A00FD050905
:1010800000F4050900EB050900E2050900D905098E
:1010900000D0050900C7050900BE050900B505080F
:1010A00000AD050800A50509009C05080094050889
:1010B000008C050800840508007C050800740508FC
:1010C000006C050700650508005D0507005605086A
:1010D000004E0507004705070040050800380507D2
:1010E00000310507002A050700230507001C050637
:1010F00000160507000F0507000805060002050792
:1011000000FB040600F5040700EE040600E80406F0
:1011100000E2040700DB040600D5040600CF040645
:1011200000C9040600C3040600BD040600B7040697
:1011300000B1040500AC040600A6040600A00405E6
:10114000009B04060095040500900406008A04052F
:101150000085040500800406007A04050075040576
:1011600000700405006B04050066040500610405B9
:10117000005C04050057040500520405004D0405F9
:101180000048040500430405003E0404003A040539
:101190000035040500300404002C04050027040475
:1011A00000230405001E0404001A040400160405AC
:1011B00000110404000D04040009040500040404E3
:1011C0000000040400FC030400F8030400F403041A
:1011D00000F0030400EC030400E8030400E403044B
:1011E00000E0030400DC030400D8030400D403047B
:1011F00000D0030400CC030400C8030300C50303AC
:101200000024F404D9201BC40C5C0E9804C4095FAC
:101210000265077101F405F900FB04B30048048777
:1012200000C10369005803550003034500BE023A9C
:10123000008402310053022A002902250004022002
:1012400000E4011C00C8011900AF01170098011447
:101250000084011300710110006101100051010EA2
:101260000043010D0036010B002B010B0020010B88
:1012700000150109000C01090003010800FB00082A
:1012800000F3000800EB000700E4000600DE0006A3
:1012900000D8000600D2000600CC000500C70005FB
:1012A00000C2000500BD000400B9000400B5000440
:1012B00000B1000400AD000400A9000400A5000373
:1012C00000A20003009F0004009B0003009800039D
:1012D000009500020093000300900003008D0002BF
:1012E000008B0003008800020086000200840003D7
:1012F00000810002007F0002007D0002007B0002EE
:1013000000790002007700010076000200740002FC
:101310000072000100710002006F0002006D000108
:10132000006C0002006A0001006900020067000111
:101330000066000100650001006400020062000117
:101340000061000100600001005F0002005D00011B
:10135000005C0001005B0001005A0001005900011F
:10136000005800010057000100560001005500011F
:10137000005400010053000000530001005200011E
:101380000051000100500001004F0001004E00001C
:10139000004E0001004D0001004C0001004B000018
:1013A000004B0001004A0001004900010048000014
:1013B000004800010047000100460000004600010F
:1013C000004500000045000100440001004300000A
:1013D0000043000100420000004200010041000003
:1013E0000041000100400001003F0000003F0001FB
:1013F000003E0000003E0001003D0000003D0001F5
:10140000003C0000003C0000003C0001003B0000EC
:10141000003B0001003A0000003A000100390000E2
:1014200000390001003800000038000000380001D9
:1014300000370000003700010036000000360000D1
:1014400000360001003500000035000000350001C5
:1014500000340000003400000034000100330000BC
:1014600000330000003300010032000000320000B1
:1014700000320001003100000031000000310001A5
:10148000003000000030000000300001002F00009C
:10149000002F0000002F0000002F0001002E000090
:1014A000002E0000002E0001002D0000002D000085
:1014B000002D0000002D0001002C0000002C000079
:1014C000002C0000002C0001002B0000002B00006D
:1014D000002B0000002B0001002A0000002A000061
:1014E000002A0000002A0001002900000029000055
:1014F0000029000000290000002900010028000048
:10150000002800000028000000280000002800013A
:10151000002700000027000000270000002700002F
:101520000027000100260000002600000026000021
:101530000026000000260001002500000025000014
:101540000025000000250000002500000025000106
:1015500000240000002400000024000000240000FB
:1015600000240001002300000023000000230000ED
:1015700000230000002300000023000000230001DE
:1015800000220000002200000022000000220000D3
:1015900000220000002200010021000000210000C4
:1015A00000210000002100000021000000210000B7
:1015B00000210001002000000020000000200000A9
:1015C000002000000020000000200000002000009B
:1015D00000200001001F0000001F0000001F00008D
:1015E000001F0000001F0000001F0000001F00017E
:1015F000001E0000001E0000001E0000001E000073
:10160000004572723A204D415854454D5020424594
:10161000440054656D70657261747572652068650B
:1016200061746564206265642073776974636865BA
:1016300064206F66662E204D415854454D502074ED
:101640007269676765726564202121004572723A8C
:10165000204D494E54454D50003A204578747275DE
:10166000646572207377697463686564206F666669
:101670002E204D494E54454D502074726967676560
:101680007265642021004572723A204D41585445DC
:101690004D50003A204578747275646572207377F6
:1016A000697463686564206F66662E204D415854E6
:1016B000454D50207472696767657265642021002A
:1016C000202D20496E76616C69642065787472758E
:1016D000646572206E756D62657220210050494408
:1016E000204175746F74756E652066696E697368E4
:1016F0006564212050757420746865206C61737472
:10170000204B702C204B6920616E64204B64206359
:101710006F6E7374616E74732066726F6D20616298
:101720006F766520696E746F20436F6E66696775AA
:10173000726174696F6E2E6800504944204175745F
:101740006F74756E65206661696C656421207469CB
:101750006D656F75740020403A006F6B20543A003D
:101760006F6B20423A00504944204175746F747584
:101770006E65206661696C6564212054656D7065D5
:1017800072617475726520746F6F20686967680094
:10179000204B643A2000204B693A2000204B703ADD
:1017A000200020436C61737369632050494420001A
:1017B0002054753A2000204B753A2000206D617846
:1017C0003A2000206D696E3A200020643A20002003
:1017D000626961733A200070012C0190012701B009
:1017E000012201C0011D01F0011801100213013096
:1017F000020E016002090190020401C002FF000014
:1018000003FA004003F5008003F000D003EB002052
:1018100004E6007004E100E004DC004005D700C0ED
:1018200005D2004006CD00D006C8008007C30030B6
:1018300008BE00F008B900C009B400B00AAF00B09B
:101840000BAA00D00CA500000EA000500F9B00C0FA
:101850001096005012910000148C00C0158700B043
:10186000178200B0197D00D01B7800001E73004065
:10187000206E0090226900F024640040275F0090F1
:10188000295A00E02B5500102E500020304B00103C
:10189000324600E033410090353C0010373700708D
:1018A000383200A0392D00B03A2800A03B23006058
:1018B0003C1E00103D1900903D1400103E0F0070BA
:1018C0003E0A00C03E0500003F00004361726420F4
:1018D00072656D6F766564004361726420696E7332
:1018E0006572746564004D333030205336393820CA
:1018F00050323030004D333030205336353920509F
:10190000323030002D2D3A2D2D002D2D2D00534439
:1019100000205900012000012000426162797374A7
:10192000657070696E6720580042616279737465F2
:101930007070696E672059004261627973746570D6
:1019400070696E67205A004D363030004368616E12
:1019500067652066696C616D656E740042616279CD
:1019600073746570205A00426162797374657020E7
:1019700059004261627973746570205800466C6F3B
:1019800077203000466C6F77203000466C6F770010
:10199000466C6F770046616E207370656564004623
:1019A000616E207370656564004265640042656421
:1019B000004E6F7A7A6C65004E6F7A7A6C650053D0
:1019C00070656564005370656564004D61696E0003
:1019D0005072656865617420504C41204265640016
:1019E0005072656865617420504C4120310050721E
:1019F000657061726500507265686561742041426E
:101A000053204265640050726568656174204142EC
:101A100053203100507265706172650058005900A2
:101A20005A004578747275646572004578747275F1
:101A3000646572004D6F7665205A004D6F766520A3
:101A400059004D6F76652058004D6F76652061789E
:101A50006973004D6F766520302E316D6D004D6FCE
:101A6000766520316D6D004D6F76652031306D6D7E
:101A70000050726570617265004D6F766520617807
:101A80006973004D38300053776974636820706F54
:101A9000776572206F6E004D38310053776974633B
:101AA0006820706F776572206F666600436F6F6C99
:101AB000646F776E005072656865617420414253AF
:101AC000005072656865617420504C410053657424
:101AD00020686F6D65206F666673657473004732AA
:101AE00038004175746F20686F6D65004D383400A3
:101AF00044697361626C652073746570706572739C
:101B0000004D61696E0053746F7265206D656D6F75
:101B100072790042656400426564004E6F7A7A6CA7
:101B200065004E6F7A7A6C650046616E2073706551
:101B300065640046616E2073706565640054656D70
:101B400070657261747572650053746F7265206D93
:101B5000656D6F72790042656400426564004E6F86
:101B60007A7A6C65004E6F7A7A6C650046616E20F9
:101B700073706565640046616E207370656564000E
:101B800054656D7065726174757265005072656838
:101B90006561742041425320636F6E660050726528
:101BA0006865617420504C4120636F6E6600504937
:101BB000442D43005049442D43005049442D4400D6
:101BC0005049442D44005049442D49005049442D6A
:101BD00049005049442D50005049442D50002002E6
:101BE0002046616374002002204661637400200275
:101BF000204D6178002002204D6178002002204DA8
:101C0000696E002002204D696E004F6666004F6EBF
:101C100020004F6666004F6E20004175746F74653A
:101C20006D700046616E2073706565640046616E7C
:101C30002073706565640042656400426564004E0F
:101C40006F7A7A6C65004E6F7A7A6C6500436F6EBE
:101C500074726F6C004573746570732F6D6D004501
:101C600073746570732F6D6D005A73746570732F84
:101C70006D6D005A73746570732F6D6D00597374B8
:101C80006570732F6D6D005973746570732F6D6D72
:101C9000005873746570732F6D6D005873746570A0
:101CA000732F6D6D00412D72657472616374004114
:101CB0002D7265747261637400416D6178206500F6
:101CC000416D6178206500416D6178207A00416D39
:101CD0006178207A00416D6178207900416D6178EA
:101CE000207900416D6178207800416D617820781D
:101CF000005654726176206D696E0056547261769A
:101D0000206D696E00566D696E00566D696E0056E5
:101D10006D6178206500566D6178206500566D61B3
:101D200078207A00566D6178207A00566D617820AF
:101D30007900566D6178207900566D6178207800C1
:101D4000566D617820780056652D6A65726B005675
:101D5000652D6A65726B00567A2D6A65726B005646
:101D60007A2D6A65726B005678792D6A65726B0000
:101D70005678792D6A65726B00416363656C00412A
:101D80006363656C005A204F6666736574005A2061
:101D90004F666673657400436F6E74726F6C0046B5
:101DA000696C2E204469612E20310046696C2E201A
:101DB0004469612E2031004F6666004F6E20004F4F
:101DC0006666004F6E20004520696E206D6D330001
:101DD000436F6E74726F6C00526573746F7265201E
:101DE0006661696C73616665004C6F6164206D6546
:101DF0006D6F72790053746F7265206D656D6F72CF
:101E0000790046696C616D656E74004D6F74696F21
:101E10006E0054656D7065726174757265004D6118
:101E2000696E004D383420582059205A2045004D05
:101E30003234004D323320257300052E2E004D61C3
:101E4000696E004E6F2053442063617264005072CB
:101E5000696E742066726F6D2053440053746F7006
:101E6000207072696E7400526573756D65207072B2
:101E7000696E74005061757365207072696E7400CC
:101E8000436F6E74726F6C005072657061726500A2
:101E900054756E6500496E666F2073637265656E7A
:101EA000000A00207A3A200020793A200020783A6F
:101EB00020000200000A0B02090C0D0E08070304A3
:101EC0000100000000000000000000000000000011
:101ED00000000000000000000000000000000012F0
:101EE00011100000000000000000000000000000D1
:101EF000000000000000000000010210202008087F
:101F0000102040102040800201020108040201015B
:101F10000204081020408080402010080402018044
:101F2000040201804020100804020108040201019B
:101F3000020408102040800102040810204080059F
:101F4000050505070508080808020202020A0A0832
:101F50000804040404010101010101010103030358
:101F60000303030303040707070C0C0C0C0C0C0CF5
:101F70000C0202020206060606060606060B0B0BFC
:101F80000B0B0B0B0B000020002300260029002C5C
:101F9000002F0032000001000003010601090100CA
:101FA000002200250028002B002E00310034000202
:101FB000010000050108010B010000210024002799
:101FC000002A002D00300033000101000004010749
:101FD000010A014E414E494E495459494E46CDCC15
:101FE000CC3D0AD7233C17B7D13877CC2B32959507
:101FF000E6241FB14F0A000020410000C842004003
:102000001C4620BCBE4CCA1B0E5AAEC59D74704EF9
:1020100000CE744E11241FBECFEFD1E2DEBFCDBF84
:1020200000E00CBF15E0A0E0B2E0EAE4F0EF01E070
:102030000BBF02C007900D92AA31B107D9F722E178
:10204000AAE1B5E001C01D92A33FB207E1F710E29B
:10205000C2E1D0E200E006C022970109FE010BBFF9
:102060000E9422ECCE30D10780E00807A9F70E9439
:102070003BE70C9413F80C940000EF92FF920F933F
:102080001F93CF93DF931F92CDB7DEB78C017B01F7
:10209000460FF70161917F01F801808191814983A9
:1020A0000E945CF7F8018081918101969183808381
:1020B00049814E11EECF0F90DF91CF911F910F917B
:1020C000FF90EF900895EF92FF920F931F93CF939D
:1020D000DF931F92CDB7DEB78C017B01460FF8016D
:1020E0008081918149830E9454F7F70181937F0198
:1020F000F8018081918101969183808349814E11FD
:10210000EECF0F90DF91CF911F910F91FF90EF9045
:1021100008950F931F93CF93DF93CDB7DEB72C971E
:102120000FB6F894DEBF0FBECDBF80E390E3A0E30F
:10213000B0E08D839E83AF83B88704E610E01C87F0
:102140000B8744E0BE016B5F7F4FCE010B9695DF9E
:1021500040E16DE871E1CE010B968FDF40E16DE962
:1021600071E1CE010B9689DF40E16DE771E1CE01AF
:102170000B9683DF44E065E771E1CE010B967DDFCE
:1021800044E061E771E1CE010B9677DF44E069E757
:1021900071E1CE010B9671DF44E061E671E1CE01A1
:1021A0000B966BDF44E06DEA71E1CE010B9665DFC3
:1021B00044E06DE671E1CE010B965FDF44E069E635
:1021C00071E1CE010B9659DF44E065E671E1CE0185
:1021D0000B9653DF4CE065E977E0CE010B964DDFBF
:1021E00042E067EB72E1CE010B9647DF42E065EB20
:1021F00072E1CE010B9641DF42E063EB72E1CE016A
:102200000B963BDF42E061EB72E1CE010B9635DFCE
:1022100042E06FEA72E1CE010B962FDF42E06DEAF9
:1022200072E1CE010B9629DF44E062E877E0CE014F
:102230000B9623DF44E066E872E0CE010B961DDFCB
:1022400044E062E872E0CE010B9617DF44E06EE7EF
:1022500072E0CE010B9611DF80E290E09A878987C9
:1022600042E0BE01675F7F4FCE010B9606DF41E083
:1022700061EB77E0CE010B9600DF44E061E272E0B3
:10228000CE010B96FADE86E591E3A3E3B0E0898305
:102290009A83AB83BC831C870B8744E0BE016F5FCE
:1022A0007F4FCE010B96E9DEE1E7FBE084918823C6
:1022B00041F09091C00095FFFCCF8093C60031960D
:1022C000F5CFE2E9F3E08491882341F09091C000DA
:1022D00095FFFCCF8093C6003196F5CF8091C0006A
:1022E00085FFFCCF8AE08093C6002C960FB6F89449
:1022F000DEBF0FBECDBFDF91CF911F910F9108952B
:10230000CF93DF93C1E7DBE0FE018491882341F0A6
:102310009091C00095FFFCCF8093C6003196F5CF19
:10232000E2E8F3E08491882341F09091C00095FFAA
:10233000FCCF8093C6003196F5CF8091C00085FF19
:10234000FCCF8AE08093C600FE018491E1E7FBE0C8
:10235000882349F09091C00095FFFCCF8093C60080
:1023600031968491F5CF40918D1150918E116091ED
:102370008F11709190118AE793E00E94DE1C4091CA
:10238000911150919211609193117091941187E77E
:1023900093E00E94DE1C409195115091961160913E
:1023A00097117091981184E793E00E94DE1C409190
:1023B000991150919A1160919B1170919C1181E734
:1023C00093E00E94DE1C8091C00085FFFCCF8AE074
:1023D0008093C600FE018491E1E7FBE0882349F089
:1023E0009091C00095FFFCCF8093C60031968491F8
:1023F000F5CFE7E5F3E08491882341F09091C000A8
:1024000095FFFCCF8093C6003196F5CF8091C00038
:1024100085FFFCCF8AE08093C600FE018491E1E74E
:10242000FBE0882349F09091C00095FFFCCF80939A
:10243000C60031968491F5CF40919D1150919E1127
:1024400060919F117091A0118EE493E00E94DE1CB8
:102450004091A1115091A2116091A3117091A4110A
:102460008BE493E00E94DE1C4091A5115091A611CF
:102470006091A7117091A81188E493E00E94DE1C7E
:102480004091A9115091AA116091AB117091AC11BA
:1024900085E493E00E94DE1C8091C00085FFFCCFA4
:1024A0008AE08093C600FE018491E1E7FBE0882387
:1024B00049F09091C00095FFFCCF8093C600319603
:1024C0008491F5CFE7E2F3E08491882341F0909185
:1024D000C00095FFFCCF8093C6003196F5CF809168
:1024E000C00085FFFCCF8AE08093C600FE01849186
:1024F000E1E7FBE0882349F09091C00095FFFCCF15
:102500008093C60031968491F5CF40917D11509112
:102510007E1160917F11709180118EE193E00E9495
:10252000001D409181115091821160918311709131
:1025300084118BE193E00E94001D40918511509120
:102540008611609187117091881188E193E00E9453
:10255000001D4091891150918A1160918B117091E9
:102560008C1185E193E00E94001D8091C00085FFE1
:10257000FCCF8AE08093C600FE018491E1E7FBE096
:10258000882349F09091C00095FFFCCF8093C6004E
:1025900031968491F5CFE0EEF2E08491882341F00A
:1025A0009091C00095FFFCCF8093C6003196F5CF87
:1025B0008091C00085FFFCCF8AE08093C600FE01B9
:1025C0008491E1E7FBE0882349F09091C00095FFFA
:1025D000FCCF8093C60031968491F5CF4091751160
:1025E00050917611609177117091781187ED92E09A
:1025F0000E94DE1C40917111509172116091731113
:102600007091741184ED92E00E94DE1C8091C000F4
:1026100085FFFCCF8AE08093C600FE018491E1E74C
:10262000FBE0882349F09091C00095FFFCCF809398
:10263000C60031968491F5CFE1E2F2E084918823DF
:1026400041F09091C00095FFFCCF8093C600319679
:10265000F5CF8091C00085FFFCCF8AE08093C60053
:10266000FE018491E1E7FBE0882349F09091C000EE
:1026700095FFFCCF8093C60031968491F5CF4091B1
:10268000791150917A1160917B1170917C1188E1E0
:1026900092E00E94DE1C40916111509162116091A4
:1026A00063117091641185E192E00E94DE1C4091FB
:1026B000AD115091AE116091AF117091B01182E1E6
:1026C00092E00E94001D40916D1150916E11609139
:1026D0006F11709170118FE092E00E94DE1C4091AA
:1026E000691150916A1160916B1170916C118CE0BD
:1026F00092E00E94DE1C409165115091661160913C
:1027000067117091681189E092E00E94DE1C80914F
:10271000C00085FFFCCF8AE08093C600FE01849153
:10272000E1E7FBE0882349F09091C00095FFFCCFE2
:102730008093C60031968491F5CFE7EFF1E0849164
:10274000882341F09091C00095FFFCCF8093C60094
:102750003196F5CF8091C00085FFFCCF8AE0809351
:10276000C600FE018491E1E7FBE0882349F09091E7
:10277000C00095FFFCCF8093C60031968491F5CFC1
:10278000409195075091960760919707709198072F
:102790008EEE91E00E94DE1C4091990750919A07BD
:1027A00060919B0770919C078BEE91E00E94DE1C6C
:1027B00040919D0750919E0760919F077091A007DF
:1027C00088EE91E00E94DE1C8091C00085FFFCCF66
:1027D0008AE08093C600FE018491E1E7FBE0882354
:1027E00049F09091C00095FFFCCF8093C6003196D0
:1027F0008491F5CFEAEDF1E08491882341F0909146
:10280000C00095FFFCCF8093C6003196F5CF809134
:10281000C00085FFFCCF8AE08093C600FE01C49112
:10282000E1E7FBE0CC2349F08091C00085FFFCCFBD
:10283000C093C6003196C491F5CF40918602509165
:102840008702609188027091890280ED91E00E9478
:10285000DE1C6091820270918302809184029091CB
:1028600085020E9414A5AB01BC018DEC91E00E9491
:10287000DE1C60917E0270917F02809180029091B7
:1028800081020E9420A5AB01BC018AEC91E00E946C
:10289000DE1C8091C00085FFFCCF8AE08093C600DB
:1028A000DF91CF910895AF92BF92CF92DF92EF92D6
:1028B000FF920F931F93CF93DF93CDB7DEB7E097CF
:1028C0000FB6F894DEBF0FBECDBF80E1E3EAF2E0C1
:1028D000DE01919601900D928A95E1F780E1E3EB9C
:1028E000F2E0DE01519601900D928A95E1F780E1C8
:1028F000E3ECF2E0DE01119601900D928A95E1F78A
:102900006E0181E2C80ED11C8DE8E82E81E1F82E1F
:102910008E010F5E1F4F6DE971E1AE014F5F5F4F9A
:102920009DE7A92E91E1B92E20E030E0F6018191DA
:102930009191A191B1916F01F70181939193A1932D
:10294000B1937F01F80181919191A191B1918F0192
:10295000FB0181939193A193B193BF01FA018191FE
:102960009191A191B191AF01F50181939193A193BF
:10297000B1935F012F5F3F4F24303105B9F60E94BC
:102980007A7E80E090E0AFE2B4E48093751190939A
:102990007611A0937711B093781180937111909371
:1029A0007211A0937311B093741110927911109257
:1029B0007A1110927B1110927C1180E29EE4A0E0CB
:1029C000B0E08093AD119093AE11A093AF11B0938E
:1029D000B011109261111092621110926311109255
:1029E000641180E090E0A0E7B1E480936D119093D2
:1029F0006E11A0936F11B09370118DEC9CECACEC48
:102A0000BEE38093691190936A11A0936B11B09308
:102A10006C1180E090E0A0EEB0E48093651190939B
:102A20006611A0936711B093681110929D071092E0
:102A30009E0710929F071092A0071092990710927C
:102A40009A0710929B0710929C071092950710927C
:102A50009607109297071092980784EB90E0909356
:102A6000B8128093B71282E390E09093B6128093ED
:102A7000B5128FEF90E09093B4128093B31220EFD1
:102A800030E03093B2122093B1122AE530E0309357
:102A9000B0122093AF129093AE128093AD121092A9
:102AA00082071092830710928407109285078AE9A3
:102AB00099E9A1EBB1E48093860290938702A093F9
:102AC0008802B093890261E77DE38AE89FE30E9470
:102AD0000EA5609382027093830280938402909388
:102AE000850260E070E084EE92E40E941AA5609393
:102AF0007E0270937F0280938002909381020E94F5
:102B0000549B80E090E0A0E8BFE380937A0290932A
:102B10007B02A0937C02B0937D021092B10780E00B
:102B200090E0A0E4B0E48093210290932202A0936D
:102B30002302B09324020E942E29E1E7FBE0849156
:102B4000882341F09091C00095FFFCCF8093C60090
:102B50003196F5CFEEE8F1E08491882341F0909131
:102B6000C00095FFFCCF8093C6003196F5CF8091D1
:102B7000C00085FFFCCF8AE08093C600E0960FB6C8
:102B8000F894DEBF0FBECDBFDF91CF911F910F91A3
:102B9000FF90EF90DF90CF90BF90AF900895CF93CC
:102BA000DF93CDB7DEB72C970FB6F894DEBF0FBE1C
:102BB000CDBF84E690E09C878B8786E591E3A3E315
:102BC000B0E089839A83AB83BC8344E0BE016B5F32
:102BD0007F4FCE010B9677DA43E050E0BE016B5F8A
:102BE0007F4FCE0101960E941BF5892B09F0BFC0D3
:102BF00040E16DE871E1CE010B9665DA40E16DE9E7
:102C000071E1CE010B965FDA40E16DE771E1CE0133
:102C10000B9659DA0E947A7E44E065E771E1CE01B5
:102C20000B9651DA44E061E771E1CE010B964BDA85
:102C300044E069E771E1CE010B9645DA44E061E6D4
:102C400071E1CE010B963FDA44E06DEA71E1CE010D
:102C50000B9639DA44E06DE671E1CE010B9633DA7A
:102C600044E069E671E1CE010B962DDA44E065E6B9
:102C700071E1CE010B9627DA4CE065E977E0CE01F1
:102C80000B9621DA42E067EB72E1CE010B961BDA7C
:102C900042E065EB72E1CE010B9615DA42E063EBA0
:102CA00072E1CE010B960FDA42E061EB72E1CE01E8
:102CB0000B9609DA42E06FEA72E1CE010B9603DA75
:102CC00042E06DEA72E1CE010B96FDD944E062E884
:102CD00077E0CE010B96F7D944E066E872E0CE01CA
:102CE0000B96F1D944E062E872E0CE010B96EBD985
:102CF00044E06EE772E0CE010B96E5D942E0BE01FA
:102D0000675F7F4FCE010B96DED941E061EB77E044
:102D1000CE010B96D8D944E061E272E0CE010B9669
:102D2000D2D90E942E290E94549BE1E7FBE08491B6
:102D3000882341F09091C00095FFFCCF8093C6009E
:102D40003196F5CFE0EBF1E08491882341F090914A
:102D5000C00095FFFCCF8093C6003196F5CF8091DF
:102D6000C00085FFFCCF8AE08093C60001C09BDDD8
:102D7000C7DA2C960FB6F894DEBF0FBECDBFDF9139
:102D8000CF9108951F920F920FB60F9211240BB698
:102D90000F922F933F934F935F936F938F939F93D4
:102DA000EF93FF936091C60020919B0530919C05A5
:102DB000C90101968F77992740919D0550919E05F5
:102DC0008417950741F0F901E55EFA4F608390930F
:102DD0009C0580939B05FF91EF919F918F916F913F
:102DE0005F914F913F912F910F900BBE0F900FBEAF
:102DF0000F901F9018959A01AB01211581EE3807AD
:102E00004105510549F182E08093C00060E079E01E
:102E10008DE390E00E94F0EB215031094109510906
:102E2000CA01B90122E030E040E050E00E94F0EB3E
:102E30003093C5002093C4008091C10080618093CD
:102E4000C1008091C10088608093C1008091C10061
:102E500080688093C10008951092C00020E130E0A6
:102E6000E7CF20919D0530919E0580919B05909123
:102E70009C058217930771F0F901E55EFA4F808196
:102E80002F5F3F4F2F77332730939E0520939D056B
:102E900090E008958FEF9FEF089580919D059091A8
:102EA0009E0590939C0580939B0508954F925F9299
:102EB0006F927F928F929F92AF92BF92CF92DF924A
:102EC000EF92FF920F931F93CF93DF93CDB7DEB7AF
:102ED000A0970FB6F894DEBF0FBECDBF5C014115C1
:102EE000510561057105E9F420E030E040E350E070
:102EF00060E070E0A0960FB6F894DEBF0FBECDBFC5
:102F0000DF91CF911F910F91FF90EF90DF90CF90C5
:102F1000BF90AF909F908F907F906F905F904F90F9
:102F20005BC08E010F5F1F4FC12CD12C7601480171
:102F3000422E512C612C712C8FEFC81AD80AE80A46
:102F4000F80ACB01BA01A30192010E94CEEBCA019B
:102F5000F80161938F01A901BC014115510561057B
:102F6000710551F7F1E0CF1AD108E108F108F40139
:102F7000EC0DFD1D80818A3010F440E301C047E371
:102F8000480F552747FD5095652F752F20E030E0FD
:102F9000C50122D081E0C81AD108E108F108EFEF9D
:102FA000CE16DE06EE06FE0611F7A0960FB6F894D2
:102FB000DEBF0FBECDBFDF91CF911F910F91FF906C
:102FC000EF90DF90CF90BF90AF909F908F907F90C9
:102FD0006F905F904F9008952115310539F48091DD
:102FE000C00085FFFCCF4093C60008952A3031050C
:102FF00009F41CC05BCFCF93DF93EC0120E030E0FD
:103000004DE050E060E070E0E7DF20E030E04AE0D3
:1030100050E060E070E0CE01DF91CF91DDCF9A010A
:10302000AB01662757FD6095762FD6CFCF92DF9202
:10303000EF92FF92CF93DF93EC016A017B0177FF60
:103040000FC020E030E04DE250E060E070E0C4DF0F
:10305000F094E094D094C094C11CD11CE11CF11CEC
:103060002AE0B701A601CE01DF91CF91FF90EF904A
:10307000DF90CF901BCF2115310539F48091C0002E
:1030800085FFFCCF4093C600089510CF9A01462FCC
:1030900050E060E070E0EFCFCF93DF93EC019A0156
:1030A000AB0160E070E0E7DFCE01DF91CF91A3CF0D
:1030B0008F929F92AF92BF92CF92DF92EF92FF9248
:1030C0001F93CF93DF93EC016A017B01122F20E065
:1030D00030E0A901C701B6010E940FED87FF0CC0C7
:1030E00020E030E04DE250E060E070E0CE0174DFBF
:1030F000F7FAF094F7F8F094B12C60E070E080E01B
:103100009FE3B11641F020E030E040E251E40E943C
:1031100016EDB394F6CF9B01AC01C701B6010E9436
:1031200036EC6B017C010E9483ED4B015C010E9437
:10313000AFED9B01AC01C701B6010E9435EC6B01FC
:103140007C012AE0B501A401CE01B0DE112361F0BB
:10315000E1EFF4E08191882339F09091C00095FF70
:10316000FCCF8093C600F6CF112319F120E030E0A8
:1031700040E251E4C701B6010E94E4EF6B017C011B
:103180000E947EED4B01AA2497FCA094BA2CB501B5
:10319000A401CE014BDFC501B4010E94B1ED9B013A
:1031A000AC01C701B6010E9435EC6B017C011150E6
:1031B000DBCFDF91CF911F91FF90EF90DF90CF9009
:1031C000BF90AF909F908F90089572CFFC01659152
:1031D000759185919491089580910B0290910C02C4
:1031E000A0910D02B0910E0280935A0790935B0755
:1031F000A0935C07B0935D078091290290912A0209
:103200009093B3078093B20784E690E090932A02EC
:10321000809329020E9492E76093B9057093BA05E2
:103220008093BB059093BC0581E00C94E69080E010
:103230000E94E69080915A0790915B07A0915C07ED
:10324000B0915D0780930B0290930C02A0930D0246
:10325000B0930E028091B2079091B30790932A0227
:10326000809329020E9492E76093B9057093BA0592
:103270008093BB059093BC0508952F923F924F9287
:103280005F926F927F928F929F92AF92BF92CF92F6
:10329000DF92EF92FF920F931F93CF93DF93CDB7FF
:1032A000DEB72C970FB6F894DEBF0FBECDBF698393
:1032B0007A838B839C8329013A01ED82FE820F83FE
:1032C000188720910B0230910C0240910D02509111
:1032D0000E0229873A874B875C8760913302709191
:1032E0003402809135029091360260930B02709304
:1032F0000C0280930D0290930E02A9EAB7E0ED92C2
:10330000FD920D931C93139720E030E040E752E4C8
:103310000E9416ED4B015C01E5EAF7E02081318166
:103320004281538181EA282E87E0382ED1016D91A8
:103330007D918D919C91A1E8B7E0BF93AF93EDEAA9
:10334000CE2EE7E0DE2EED80FE800F8118850E94F4
:10335000BD720E94B39880E090E0AAEFB5E480933C
:103360000B0290930C02A0930D02B0930E022981E0
:103370003A814B815C81D1012D933D934D935C93B8
:103380001397E5EAF7E04082518262827382A9EAEC
:10339000B7E0ED90FD900D911C91A1E8B7E0BF93CF
:1033A000AF93F5E58F2E982CF5E0AF2EF3E4BF2E0A
:1033B000A301920169817A818B819C810E94BD72F7
:1033C0000E94B39829853A854B855C8520930B0232
:1033D00030930C0240930D0250930E020F900F9009
:1033E0000F900F902C960FB6F894DEBF0FBECDBF96
:1033F000DF91CF911F910F91FF90EF90DF90CF90D1
:10340000BF90AF909F908F907F906F905F904F9004
:103410003F902F9008952F923F924F925F926F921C
:103420007F928F929F92AF92BF92CF92DF92EF9254
:10343000FF920F931F93CF93DF938BE492E00E9450
:1034400075E1E3E3F2E060817181828193816093B1
:103450000B0270930C0280930D0290930E0220E0F9
:1034600030E040E752E40E9416ED4B015C01C5EAF2
:10347000D7E0288139814A815B81E1EAF7E0608108
:10348000718182819381A1E82A2EA7E03A2E3F9292
:103490002F92BDEACB2EB7E0DB2EE12CF12C00E21F
:1034A00011EC0E94BD720E94B39882E00E941C99A8
:1034B0004B015C01288139814A815B81E1EAF7E0B7
:1034C0006081718182819381850174010E946C7D8C
:1034D0008DE39BE07BDE9B01AC01C501B4010E9442
:1034E00036EC2B013C0120E030E040E752E46091F3
:1034F0000B0270910C0280910D0290910E020E94BD
:1035000016ED4B015C01288139814A815B81E1EA3A
:10351000F7E060817181828193813F922F928301D4
:1035200072010E94BD720E94B39820E030E040E832
:103530005EE3E3E3F2E060817181828193810E9426
:10354000E4EF4B015C0160930B0270930C028093DB
:103550000D0290930E028DE39BE038DE6B017C013F
:1035600020E030E040E752E4C501B4010E9416EDCE
:103570004B015C01A7019601C701B6010E9436EC20
:103580009B01AC01C301B2010E9435EC7B018C01AF
:10359000288139814A815B81E1EAF7E060817181AC
:1035A000828193813F922F92FDEACF2EF7E0DF2EAA
:1035B0000E94BD720E94B39882E00E941C997B0118
:1035C0008C016093A9077093AA078093AB0790932F
:1035D000AC07288139814A815B81E1EAF7E06081AB
:1035E0007181828193810E946C7D0F900F900F906A
:1035F0000F900F900F90DF91CF911F910F91FF903F
:10360000EF90DF90CF90BF90AF909F908F907F9082
:103610006F905F904F903F902F9008952F923F9220
:103620004F925F926F927F928F929F92AF92BF92D2
:10363000CF92DF92EF92FF920F931F93CF93DF937E
:10364000CDB7DEB72A970FB6F894DEBF0FBECDBF59
:103650009E838D83FC01EE5CF44FB490880F991F1C
:10366000880F991F9A8789878F55984F9A838983E6
:10367000DC011D921D921D921C921397B9EA2B2E0C
:10368000B7E03B2EF101E080F18002811381A5EAD1
:10369000B7E02D913D914D915C91E1EAF7E06081B9
:1036A000718182819381EDEACE2EE7E0DE2E0E94C9
:1036B0006C7D89859A858F5B944F88DD6B017C01D9
:1036C0006B2D772767FD7095872F972F0E94B1ED9F
:1036D0002B013C0129853A852259384F3C832B83A5
:1036E00020E030E040EC5FE3C701B6010E94E4EF68
:1036F000A30192010E94E4EFAB81BC816D937D93A5
:103700008D939C931397E985FA85E55DFD4FF887C6
:10371000EF83608171818281938160930B0270934A
:103720000C0280930D0290930E0220E030E040E7FF
:1037300052E40E9416ED4B015C01A6E7B7E0ED9064
:10374000FD900D911C91E2E7F7E0208131814281EB
:103750005381AEE6B7E06D917D918D919C91A1E88A
:10376000B7E0BF93AF93FAE7CF2EF7E0DF2E0E94CA
:10377000BD720E94B398A981BA811D921D921D92BB
:103780001C921397F101E080F18002811381A5EA78
:10379000B7E02D913D914D915C91E1EAF7E06081B8
:1037A000718182819381ADEACA2EA7E0DA2E0E9450
:1037B0006C7D29853A852B5C344F1901C90106DDE2
:1037C0009058A30192010E94E4EFAB81BC816D93FC
:1037D0007D938D939C93139720E030E040E752E473
:1037E00060910B0270910C0280910D0290910E027B
:1037F0000E9416ED4B015C01E6E7F7E0E080F18006
:1038000002811381A2E7B7E02D913D914D915C912A
:10381000EEE6F7E06081718182819381A1E8B7E0F3
:10382000BF93AF93BAE7CB2EB7E0DB2E0E94BD72F9
:103830000E94B398C101CADC9B01AC010E9436EC26
:10384000A30192010E94E4EFAB81BC816D937D9353
:103850008D939C93139720E030E040E05FE3EF818D
:10386000F88560817181828193810E94E4EF609389
:103870000B0270930C0280930D0290930E0220E0D5
:1038800030E040E752E40E9416ED4B015C01A6E7F0
:10389000B7E0ED90FD900D911C91E2E7F7E02081FB
:1038A000318142815381AEE6B7E06D917D918D917A
:1038B0009C91A1E8B7E0BF93AF930E94BD720E94B4
:1038C000B39889859A85835B944F80DC09851A8536
:1038D0000B56184FD8012D913D914D915C910E944E
:1038E00036ECE981FA8160837183828393838985D1
:1038F0009A858B59944F6ADC29853A852757384F2A
:103900007901D8012D913D914D915C910E9436EC49
:10391000F701608371838283938389859A85875AAF
:10392000944F54DC29853A852F5E3D4F7901D801AB
:103930002D913D914D915C910E9436ECF701608391
:10394000718382839383E981FA8180819181A2814D
:10395000B381EB81FC8180839183A283B383109236
:103960000B0210920C0210920D0210920E020E9495
:10397000DF90ED81FE81EA57F84F81E080830F9060
:103980000F900F900F900F900F902A960FB6F8940B
:10399000DEBF0FBECDBFDF91CF911F910F91FF9082
:1039A000EF90DF90CF90BF90AF909F908F907F90DF
:1039B0006F905F904F903F902F900895FC0124915D
:1039C000222341F03091C00035FFFCCF2093C60088
:1039D0000196F4CF22E030E08AE195E0F6CBFC01DD
:1039E0002491222341F03091C00035FFFCCF209379
:1039F000C6000196F4CF22E030E08AE195E0E5CB05
:103A0000FC012491222341F03091C00035FFFCCF0E
:103A10002093C6000196F4CF2AE030E08AE195E0D9
:103A20002ACB2091C3053091C405243031050CF018
:103A30006AC04091C5055091C60560E6649F90013B
:103A4000659F300D1124BC01C90183539A4F0E9418
:103A500014F5E1E7FBE08491882341F09091C000E8
:103A600095FFFCCF8093C6003196F5CFE7E2FBE0EF
:103A70008491882341F09091C00095FFFCCF809302
:103A8000C6003196F5CF8091C5059091C60520E618
:103A9000289FF001299FF00D1124E353FA4F8191E3
:103AA000882339F09091C00095FFFCCF8093C60029
:103AB000F6CFE5E2FBE08491882341F09091C000CD
:103AC00095FFFCCF8093C6003196F5CF8091C00062
:103AD00085FFFCCF8AE08093C6008091C505909158
:103AE000C605019664E070E00E94BBEB9093C605AA
:103AF0008093C5058091C3059091C405019690936C
:103B0000C4058093C30508952091C3053091C40571
:103B1000243031050CF06AC04091C5055091C605AE
:103B200060E6649F9001659F300D1124BC01C901BE
:103B300083539A4F0E947BF4E1E7FBE08491882352
:103B400041F09091C00095FFFCCF8093C600319664
:103B5000F5CFEAE1FBE08491882341F09091C00029
:103B600095FFFCCF8093C6003196F5CF8091C505B7
:103B70009091C60520E6289FF001299FF00D1124A1
:103B8000E353FA4F8191882339F09091C00095FF5B
:103B9000FCCF8093C600F6CFE8E1FBE08491882358
:103BA00041F09091C00095FFFCCF8093C600319604
:103BB000F5CF8091C00085FFFCCF8AE08093C600DE
:103BC0008091C5059091C605019664E070E00E9461
:103BD000BBEB9093C6058093C5058091C30590917A
:103BE000C40501969093C4058093C30508959898E1
:103BF000A09A0895269A2E980895F9DFFBDF40E9F0
:103C000050ED63E070E08AE195E0F5D8E2E1FBE099
:103C10008491882341F09091C00095FFFCCF809360
:103C2000C6003196F5CF8091C00085FFFCCF8AE0B9
:103C30008093C60081E79BE0FC012491222341F0A0
:103C40003091C00035FFFCCF2093C6003196F5CFF0
:103C500024B720FF14C0EAE0FBE03491332341F0A5
:103C60004091C00045FFFCCF3093C6003196F5CFA0
:103C70003091C00035FFFCCF3AE03093C60021FF01
:103C800014C0EAEFFAE03491332341F04091C000D0
:103C900045FFFCCF3093C6003196F5CF3091C00080
:103CA00035FFFCCF3AE03093C60022FF14C0E9EEA6
:103CB000FAE03491332341F04091C00045FFFCCF3E
:103CC0003093C6003196F5CF3091C00035FFFCCF60
:103CD0003AE03093C60023FF14C0E9EDFAE03491D6
:103CE000332341F04091C00045FFFCCF3093C60024
:103CF0003196F5CF3091C00035FFFCCF3AE03093DC
:103D0000C60025FF14C0E9ECFAE02491222341F01B
:103D10003091C00035FFFCCF2093C6003196F5CF1F
:103D20002091C00025FFFCCF2AE02093C60014BEDE
:103D3000E2ECFAE02491222341F03091C00035FFFB
:103D4000FCCF2093C6003196F5CFEAEBFAE0249140
:103D5000222341F03091C00035FFFCCF2093C600F4
:103D60003196F5CF2091C00025FFFCCF2AE02093AB
:103D7000C600FC012491E1E7FBE0222349F03091E9
:103D8000C00035FFFCCF2093C60031962491F5CFBB
:103D9000EAEAFAE02491222341F03091C00035FF95
:103DA000FCCF2093C6003196F5CFE5E9FAE02491E7
:103DB000222341F03091C00035FFFCCF2093C60094
:103DC0003196F5CFE9E8FAE02491222341F03091D1
:103DD000C00035FFFCCF2093C6003196F5CFE8E751
:103DE000FAE02491222341F03091C00035FFFCCF4E
:103DF0002093C6003196F5CF2091C00025FFFCCF5F
:103E00002AE02093C600EDE6FAE02491222341F057
:103E10003091C00035FFFCCF2093C6003196F5CF1E
:103E2000E1E6FAE02491222341F03091C00035FF11
:103E3000FCCF2093C6003196F5CF2091C00025FF1E
:103E4000FCCF2AE02093C600FC018491E1E7FBE06F
:103E5000882349F09091C00095FFFCCF8093C60065
:103E600031968491F5CFE2E5FAE08491882341F020
:103E70009091C00095FFFCCF8093C6003196F5CF9E
:103E80000E9465594AE050E0BC018AE195E0C7D83C
:103E9000EBE3FAE08491882341F09091C00095FF14
:103EA000FCCF8093C6003196F5CF4AE050E060ED3C
:103EB00074E08AE195E0B3D88091C00085FFFCCF23
:103EC0008AE08093C6001092C9051092CA0510922C
:103ED000CB051092CC050E94CF150E94D89D0E9460
:103EE00057710E941F980E9488BAFFEF23ED80E36C
:103EF000F15020408040E1F700C0000080910101B6
:103F000088608093010108958091BD059091BE0560
:103F100060E070E001960C94D1F18091BD05909124
:103F2000BE054AE050E060E070E001960C9439F381
:103F3000682F772767FD70952091C7053091C805D8
:103F400040E6429FC001439F900D112483539A4F36
:103F50000E9400F59093BE058093BD0521E0892B5A
:103F600009F420E0822F08950E9492E76093B9053A
:103F70007093BA058093BB059093BC0508950E9489
:103F800092E76093B9057093BA058093BB0590934F
:103F9000BC05E091C705F091C805E753FA4F808151
:103FA000811114C0EAE4F4E08491882341F09091F7
:103FB000C00095FFFCCF8093C6003196F5CF80916D
:103FC000C00085FFFCCF8AE08093C60008958AE197
:103FD00095E00E944D17EDE4F4E08491882341F0D0
:103FE0009091C00095FFFCCF8093C6003196F5CF2D
:103FF00040915207509153076091540770915507B3
:104000004F5F5F4F6F4F7F4F2AE030E08AE195E0CE
:104010000E94EC178091C00085FFFCCF8AE080935E
:10402000C600ADCF8F929F92AF92BF92CF92DF9298
:10403000EF92FF920F931F93CF93DF93C1E8EC2E83
:10404000C4E0FC2E01EA17E0CEE6D7E084EBC82EF0
:1040500087E0D82EF70181917F016ADF882311F173
:1040600053DF4B015C01F6018081811103C0609137
:104070004D0701C061E070E080E090E00E94B1ED8A
:10408000F80120813181428153810E94E4EF9B013C
:10409000AC01C501B4010E9436EC688379838A8340
:1040A0009B8309C0F80180819181A281B3818883BB
:1040B0009983AA83BB830C5F1F4F2496FFEFCF1A0F
:1040C000DF0A85E8E81684E0F80621F686E430DFAA
:1040D0008823D1F019DF6B017C0160935E07709338
:1040E0005F07809360079093610720E030E0A901AB
:1040F0000E9412EF181644F4C0920B02D0920C02E8
:10410000E0920D02F0920E02DF91CF911F910F917C
:10411000FF90EF90DF90CF90BF90AF909F908F90E7
:10412000089580DF89E404DF882351F0EDDE609399
:10413000620770936307809364079093650708C0D4
:10414000109262071092630710926407109265073D
:104150008AE4EEDE882351F0D7DE60936607709321
:104160006707809368079093690708951092660720
:104170001092670710926807109269070895CF920E
:10418000DF92EF92FF92CF93DF93EC01C09089070B
:10419000D0908A07E0908B07F0908C07A7019601DA
:1041A000688179818A819B810E940FED87FF04C01D
:1041B000C882D982EA82FB82C0908D07D0908E0798
:1041C000E0908F07F0909007A70196016C817D81A8
:1041D0008E819F810E940FED87FF04C0CC82DD821B
:1041E000EE82FF82C0909D07D0909E07E0909F07CF
:1041F000F090A00720E030E0A901C701B6010E94BD
:104200000FED87FF08C020E030E0A901C701B6012B
:104210000E9436EC03C060E070E0CB012091910772
:104220003091920740919307509194070E9436EC89
:104230006B017C019B01AC01688579858A859B8532
:104240000E940FED87FF04C0C886D986EA86FB86E8
:10425000C0901102D0901202E0901302F09014026C
:10426000A7019601688179818A819B810E9412EF62
:10427000181624F4C882D982EA82FB82C090150203
:10428000D0901602E0901702F0901802A701960154
:104290006C817D818E819F810E9412EF181624F41B
:1042A000CC82DD82EE82FF82C0901902D0901A0289
:1042B000E0901B02F0901C02A701960168857985A9
:1042C0008A859B850E9412EF181624F4C886D98629
:1042D000EA86FB86DF91CF91FF90EF90DF90CF9041
:1042E00008954F925F926F927F928F929F92AF92BA
:1042F000BF92CF92DF92EF92FF920F931F93CF93D3
:10430000DF93CDB7DEB728970FB6F894DEBF0FBEA8
:10431000CDBF8EE697E033DF0E9492E76093B90548
:104320007093BA058093BB059093BC0520916E07EE
:1043300030916F07409170075091710729833A833C
:104340004B835C836091A1077091A2078091A307C2
:104350009091A4070E940FED409072075090730750
:1043600060907407709075072091760730917707F9
:1043700040917807509179072D833E834F8358876A
:1043800081118BC0A30192016091A5077091A607CE
:104390008091A7079091A8070E940FED81117DC021
:1043A00020E030E040E752E460910B0270910C0293
:1043B00080910D0290910E020E9416ED4B015C015E
:1043C00081E897E09F938F939AE7C92E97E0D92EC3
:1043D000ED80FE800F811885A301920169817A81A9
:1043E0008B819C810E94BD720F900F9080916E070F
:1043F00090916F07A0917007B09171078093A1070A
:104400009093A207A093A307B093A407809172078B
:1044100090917307A0917407B09175078093A507D9
:104420009093A607A093A707B093A807809176075B
:1044300090917707A0917807B09179078093A907A9
:104440009093AA07A093AB07B093AC0780917A072B
:1044500090917B07A0917C07B0917D078093AD0779
:104460009093AE07A093AF07B093B00728960FB60E
:10447000F894DEBF0FBECDBFDF91CF911F910F919A
:10448000FF90EF90DF90CF90BF90AF909F908F9074
:104490007F906F905F904F90089560912902709186
:1044A0002A02882777FD8095982F0E94B1ED2091F0
:1044B0000B0230910C0240910D0250910E020E94AD
:1044C000E4EF20E030E040E752E40E9416ED20E007
:1044D00030E048EC52E470CFAF92BF92CF92DF92BF
:1044E000EF92FF920F931F93CF93DF93D82F2091DA
:1044F000660730916707409168075091690760919E
:1045000062077091630780916407909165070E942C
:104510001FEFC62F172F082FF92E609129027091D7
:104520002A02882777FD8095982F0E94B1ED20916F
:104530000B0230910C0240910D0250910E020E942C
:10454000E4EF20E030E040E752E40E9416ED20E086
:1045500030E048EC52E40E9416ED209181072F9341
:10456000DF93FF920F931F93CF935B016C0122E0C7
:10457000E22E01E020E042E657E06EE677E081EAD5
:1045800097E00E941E6A80916E0790916F07A0913C
:104590007007B09171078093A1079093A207A09331
:1045A000A307B093A4078091720790917307A0911D
:1045B0007407B09175078093A5079093A607A09301
:1045C000A707B093A8078091760790917707A091ED
:1045D0007807B09179078093A9079093AA07A093D1
:1045E000AB07B093AC0780917A0790917B07A091BD
:1045F0007C07B0917D078093AD079093AE07A093A1
:10460000AF07B093B0070E9492E76093B90570932B
:10461000BA058093BB059093BC050F900F900F9047
:104620000F900F900F90DF91CF911F910F91FF90FE
:10463000EF90DF90CF90BF90AF9008950F931F93AE
:104640000E9492E70091A2051091A3052091A40574
:104650003091A505601B710B820B930B643C794074
:104660008105910508F44DC00E9492E76093A20570
:104670007093A3058093A4059093A5054F9B24C038
:104680007A9B22C08091060180FF1EC08091461255
:1046900081111AC0029B18C00E9492E70091A605E2
:1046A0001091A7052091A8053091A905601B710BF9
:1046B000820B930B60367A4E8105910580F4012BB5
:1046C000022B032B61F012C00E9492E76093A605B3
:1046D0007093A7058093A8059093A905DDCF60E0AE
:1046E00086E00E94B4E960E070E006C06FEF86E00B
:1046F0000E94B4E96FEF70E086E01F910F910C9477
:1047000065E81F910F910895F8940E947A9E5F9A30
:10471000109286078A9A109287079FB7F894809123
:1047200008018160809308019FBF10928807129A48
:1047300060E08CE00E947BE9E7E7FBE0849188235E
:1047400041F09091C00095FFFCCF8093C600319658
:10475000F5CFEBE2F4E08491882341F09091C00022
:1047600095FFFCCF8093C6003196F5CF8091C000B5
:1047700085FFFCCF8AE08093C60082E294E00E942D
:1047800026BA7894C6E0D0E02197209749F068ECEB
:1047900070E080E090E00E94C1E70E94A6BAF4CFEA
:1047A000F894FFCF2F923F924F925F926F927F9239
:1047B0008F929F92AF92BF92CF92DF92EF92FF9231
:1047C0000F931F93CF93DF93CDB7DEB76E970FB6DE
:1047D000F894DEBF0FBECDBF60E6B62E74E0E72EC4
:1047E000F12CE1E0CE2EE9E0DE2EFAE0AF2E9924A6
:1047F000939480919B0590919C0520919D0530910B
:104800009E05821B930B8F779927892B09F418C279
:104810008091C3059091C40504970CF011C28AE100
:1048200095E00E9431178093C2052091C005309118
:10483000C1058A3061F08D3051F08A3321F49091B6
:10484000BF05992321F02F3531050CF41BC121152B
:10485000310509F435C18091C5059091C605B89E12
:104860003001B99E700C1124F301E20FF31FE353E2
:10487000FA4F10822091BF052111FFC0FC01E753C0
:10488000FA4F1082830103531A4F6EE470E0C8019F
:104890000E9400F50097F1F19093BE058093BD054D
:1048A000801B910B860D971D4AE050E060E070E0A0
:1048B00082539A4F0E9439F36093560770935707BB
:1048C0008093580790935907409052075090530790
:1048D00060905407709055072FEF421A520A620AEF
:1048E000720A0091C5051091C60564157505860507
:1048F000970509F4E8C0B09EC001B19E900D112447
:104900006DE17AE083539A4F0E94B2F4892B09F04B
:10491000DAC069C16AE270E0C8010E9400F5892B23
:1049200009F444C0E7E7FBE08491882341F09091CB
:10493000C00095FFFCCF8093C6003196F5CFE7E726
:10494000F9E08491882341F09091C00095FFFCCF5D
:104950008093C6003196F5CF40915207509153078E
:1049600060915407709155072AE030E08AE195E0A4
:104970000E94EC178091C00085FFFCCF8AE08093F5
:10498000C6001092C1051092C005C0C280915607A2
:1049900090915707A0915807B091590780935207FB
:1049A00090935307A0935407B09355078091C50582
:1049B0009091C605B89E8001B99E100D1124C801C2
:1049C00083539A4F3C0167E470E00E9400F5009722
:1049D00081F19093BE058093BD0586199709800FDC
:1049E000911F60E070E082539A4F0E94D1F10E94C3
:1049F0007EED64307105E8F48091AB058823C9F041
:104A0000F6018491E1E0F9E0882349F09091C0003B
:104A100095FFFCCF8093C60031968491F5CF8091AD
:104A2000C00085FFFCCFA092C60087EF98E00E94EF
:104A300019BA0091C5051091C605B09EC001B19E7E
:104A4000900D112463E173E083539A4F0E940BF59C
:104A5000892B09F459DEC8010196B7010E94BBEB0E
:104A60009093C6058093C5058091C3059091C405B8
:104A700001969093C4058093C3051092C1051092CE
:104A8000C005B7CE8B3311F49092BF059091BF054E
:104A90009111AFCE4091C5055091C605B9016F5F28
:104AA0007F4F7093C1056093C005B49EF001B59E21
:104AB000F00D1124E20FF31FE353FA4F808399CED8
:104AC0001092BF0523C2B09E3001B19E700C11241C
:104AD000C30183539A4F1C016AE270E00E9400F503
:104AE000009789F5E7E7FBE08491882341F09091F6
:104AF000C00095FFFCCF8093C6003196F5CFE1EA68
:104B0000F9E08491882341F09091C00095FFFCCF9B
:104B10008093C6003196F5CF4091520750915307CC
:104B200060915407709155072AE030E08AE195E0E2
:104B30000E94EC178091C00085FFFCCF8AE0809333
:104B4000C60045DA1ECF20E010E0F301E20FF11DB0
:104B5000E353FA4F30813A3219F02F5F1327F5CF24
:104B60009093BE058093BD0582199309860D971D0C
:104B700060E070E082539A4F0E94D1F10E947EED76
:104B8000212F30E02617370709F400CFE7E7FBE0D5
:104B90008491882341F09091C00095FFFCCF8093D1
:104BA000C6003196F5CFEBECF9E08491882341F013
:104BB0009091C00095FFFCCF8093C6003196F5CF51
:104BC00040915207509153076091540770915507D7
:104BD0002AE030E08AE195E00E94EC178091C00065
:104BE00085FFFCCFABCFE7E7FBE08491882341F062
:104BF0009091C00095FFFCCF8093C6003196F5CF11
:104C0000EAEEF9E08491882341F09091C00095FF8D
:104C1000FCCF8093C6003196F5CF4091520750915A
:104C2000530760915407709155072AE030E08AE1FC
:104C300095E00E94EC178091C00085FFFCCF7ECFED
:104C40008091BA07882309F461C18091C0059091D1
:104C5000C105892B09F05AC18091C3059091C40503
:104C6000892B11F41092A10548EE242E43E0342E36
:104C7000412C512C5CE3C52ED12CE12CF12C8E0162
:104C80000F5F1F4F30E6632E7724739440913B0AE9
:104C900050913C0A60913D0A70913E0A8091330A1E
:104CA0009091340AA091350AB091360A48175907F5
:104CB0006A077B0708F02AC18091C3059091C4055B
:104CC00004970CF023C18091A10581111FC180912F
:104CD0008E0990918F09A0919009B09191098093CC
:104CE0003B0A90933C0AA0933D0AB0933E0A86E8A3
:104CF00099E00E943753482F8093C2058A30B9F05B
:104D00004D30A9F0433229F42091BF05211103C091
:104D10000EC04A33C9F32091C0053091C1052F352B
:104D200031052CF48F3FFFEF9F0709F0D1C0409170
:104D30003B0A50913C0A60913D0A70913E0A809175
:104D4000330A9091340AA091350AB091360A481777
:104D500059076A077B0708F481C0E4EEF8E0849104
:104D6000882341F09091C00095FFFCCF8093C6004E
:104D70003196F5CF8091C00085FFFCCFFAE0F0932B
:104D8000C6000E9492E76093AD057093AE058093D4
:104D9000AF059093B0058090B1059090B205A090BA
:104DA000B305B090B405681979098A099B09A20175
:104DB00091010E94CEEB49015A01CA01B901A70134
:104DC00096010E94CEEBCA01B901A70196010E948B
:104DD000CEEB7F936F93C501B40120E13EE040E04C
:104DE00050E00E94CEEB3F932F93A0EDB8E0BF932D
:104DF000AF931F930F930E9438F5E1E7FBE0849196
:104E00000FB6F894DEBF0FBECDBF882349F0909156
:104E1000C00095FFFCCF8093C60031968491F5CFFA
:104E2000F8018191882339F09091C00095FFFCCF63
:104E30008093C600F6CF8091C00085FFFCCF3AE09A
:104E40003093C600C8010E9436B788EB97E00E94F5
:104E5000A26961E088EB97E00E94DA638091C20565
:104E6000833211F47092A1052091C0053091C105E3
:104E70002115310509F424CE8091C5059091C60510
:104E8000689EF001699EF00D1124E20FF31FE353B9
:104E9000FA4F1082FC01E753FA4F70822091C3054C
:104EA0003091C4052F5F3F4F3093C4052093C30555
:104EB000019664E070E00E94BBEB9093C60580937E
:104EC000C5051092BF051092C1051092C005DECE37
:104ED0004B3311F47092BF054091BF054111D2CE02
:104EE0004091C5055091C605B9016F5F7F4F709322
:104EF000C1056093C005649EF001659EF00D11240C
:104F0000E20FF31FE353FA4F8083C0CE6E960FB6C5
:104F1000F894DEBF0FBECDBFDF91CF911F910F91EF
:104F2000FF90EF90DF90CF90BF90AF909F908F90C9
:104F30007F906F905F904F903F902F900895CF9209
:104F4000DF92EF92FF920F931F93CF93C82F809120
:104F5000C3059091C40503970CF424DC0E9492E7EA
:104F60000091B5051091B6052091B7053091B805AF
:104F7000C090B905D090BA05E090BB05F090BC0593
:104F80006C197D098E099F0906171707280739072D
:104F900028F4012B022B032B09F0B6DB409107020A
:104FA000509108026091090270910A02452B462B2C
:104FB000472B19F10E9492E70091B9051091BA05AB
:104FC0002091BB053091BC05601B710B820B930BCC
:104FD00000910702109108022091090230910A0203
:104FE000061717072807390740F49091580C80914D
:104FF000570C981302C0CC2311F180919F0590911A
:10500000A005909902C0019604C0181619062CF448
:1050100001979093A00580939F0580919F059091A3
:10502000A005803197420CF0B8CF08DBCF911F91DB
:105030000F91FF90EF90DF90CF900C94A0725F9A49
:10504000109286078A9A109287079FB7F8948091EA
:1050500008018160809308019FBF10928807129A0F
:10506000CCCF0E947A9E8091AB05811138C081E03F
:105070008093AB058091520790915307A0915407FC
:10508000B091550780934E0790934F07A093500718
:10509000B0935107E7E7FBE08491882341F09091BA
:1050A000C00095FFFCCF8093C6003196F5CFECEAA7
:1050B000F3E08491882341F09091C00095FFFCCFEC
:1050C0008093C6003196F5CF8091C00085FFFCCF5C
:1050D0008AE08093C60082EA93E00C9419BA08959E
:1050E0008091AB050895CF93DF93EC018091810708
:1050F0008093AC0584E50E94981F811102C080E076
:1051000075C00E94841F0E9483ED6093AC056623E6
:10511000B1F3E1E7FBE08491882341F09091C00076
:1051200095FFFCCF8093C6003196F5CFCD36D105E3
:10513000B9F054F4C836D105B1F0C936D10509F03B
:1051400045C0EDE5F3E021C0CA3DD10531F0CD3DCC
:10515000D105E1F5E8E1F3E036C0EFE2F3E029C084
:10516000E6E4F3E01CC0E4E7F3E08191882371F109
:105170009091C00095FFFCCF8093C600F6CF909130
:10518000C00095FFFCCF8093C60081918111F7CFBD
:105190001DC09091C00095FFFCCF8093C600819107
:1051A0008111F7CF13C09091C00095FFFCCF809381
:1051B000C60081918111F7CF09C09091C00095FF81
:1051C000FCCF8093C60081918111F7CF40E050E081
:1051D0006091AC058AE195E00E9446188091C0007C
:1051E00085FFFCCF8AE08093C60081E0DF91CF91FC
:1051F0000895CF92DF92EF92FF922091B107222380
:10520000F1F020E030E040E05FE30E94E4EF6B016A
:105210007C0120E030E0A9010E940FED882379F0A5
:10522000A7019601C701B6010E94E4EF2BED3FE014
:1052300049E450E40E94E4EF9B01AC0104C020E08B
:1052400030E040E85FE360E070E080E89FE30E94C8
:1052500016EDFF90EF90DF90CF90089560912102BE
:10526000709122028091230290912402C2DF609308
:105270001D0270931E0280931F02909320020895D6
:105280002F923F924F925F926F927F928F929F9256
:10529000AF92BF92CF92DF92EF92FF920F931F9344
:1052A000CF93DF93CDB7DEB7CB56D1400FB6F8948E
:1052B000DEBF0FBECDBF87E40E94981F882311F484
:1052C0000C94D2310E94841F0E947EED6C317105D6
:1052D00009F4AEC09CF46230710509F44BC024F4AB
:1052E00077FF3DC00C94714B6330710509F44DC0DC
:1052F0006430710509F454C00C94714B6A35710522
:1053000009F4E5C714F56D31710509F48EC36E31EA
:10531000710511F00C94714B0E94B3980E94EC1827
:105320008091330290913402A0913502B0913602FF
:1053300080930B0290930C02A0930D02B0930E0287
:105340000E940B1AE9E3F8E05DC76B35710509F4BB
:10535000C2C76C35710509F4C3C70C94714B8091B9
:10536000AB0581110C94714B0E9412200E94712197
:105370000C94714B8091AB0581110C94714B0E9480
:10538000912081E0A9D80C94714B8091AB058111DB
:105390000C94714B0E94912080E09ED80C94714B2C
:1053A00087EC98E00E9419BA80E50E94981F882334
:1053B00039F00E94841F0E9483ED4B015C0103C001
:1053C000812C912C540183E50E94981F882361F061
:1053D0000E94841F20E030E04AE754E40E94E4EF9A
:1053E0000E9483ED4B015C010E94B3980E9492E7FA
:1053F0006B017C01C80CD91CEA1CFB1C0E9492E7C3
:105400006093B9057093BA058093BB059093BC0572
:105410000E9492E76C157D058E059F0510F00C9497
:10542000714B0E94A19B80E08ADD0E94A6BAF0CF5A
:105430008BE492E00E9475E180910B0290910C0246
:10544000A0910D02B0910E0280935A0790935B07D2
:10545000A0935C07B0935D078091290290912A0286
:105460009093B3078093B20784E690E090932A026A
:10547000809329020E9492E76093B9057093BA0560
:105480008093BB059093BC0581E00E94E6908091DB
:10549000A1079091A207A091A307B091A4078093C0
:1054A0006E0790936F07A0937007B0937107809178
:1054B000A5079091A607A091A707B091A807809390
:1054C000720790937307A0937407B0937507809148
:1054D000A9079091AA07A091AB07B091AC07809360
:1054E000760790937707A0937807B0937907809118
:1054F000AD079091AE07A091AF07B091B007809330
:105500007A0790937B07A0937C07B0937D07109256
:105510000B0210920C0210920D0210920E0288E5FE
:105520000E94981F882311F090E00AC089E50E942C
:10553000981F8111F9CF8AE50E94981F91E0982762
:1055400090930F0291110C94744B88E50E94981F60
:1055500081110C94744B80910F0281110C947A4B41
:1055600089E50E94981F81110C947A4B88E50E946E
:10557000981F8823D1F00E948D1F672B682B692B01
:10558000A1F00E94841F20919507309196074091C9
:105590009707509198070E9436EC6093A10770938B
:1055A000A2078093A3079093A40789E50E94981F00
:1055B0008823D1F00E948D1F672B682B692BA1F0E7
:1055C0000E94841F2091990730919A0740919B0770
:1055D00050919C070E9436EC6093A5077093A60734
:1055E0008093A7079093A80780910F02882309F45E
:1055F000ACC080E090E0A4E1B3E480936E079093A8
:105600006F07A0937007B093710780E090E0A3E26A
:10561000B3E48093720790937307A0937407B093D9
:105620007507E4E3FBE064912DEF6202B001112401
:10563000882777FD8095982F0E94B1ED60937607BB
:1056400070937707809378079093790780E090E0D4
:10565000A5E0B3E480930B0290930C02A0930D029B
:10566000B0930E021092A9071092AA071092AB07EE
:105670001092AC072091A5073091A6074091A7078B
:105680005091A8076091A1077091A2078091A3078C
:105690009091A407BDEACB2EB7E0DB2EE12CF12CD4
:1056A00087010E946C7D80900B0290900C02A0906C
:1056B0000D02B0900E02E0907607F090770700910F
:1056C0007807109179072091720730917307409104
:1056D00074075091750760916E0770916F07809104
:1056E000700790917107E1E8F7E0FF93EF93EAE725
:1056F000CE2EE7E0DE2E0E94BD720E94B39880910C
:105700006E0790916F07A0917007B0917107809319
:10571000A1079093A207A093A307B093A407809139
:10572000720790917307A0917407B09175078093E9
:10573000A5079093A607A093A707B093A80782E0B8
:1057400090E00E940E1B0F900F908AE50E94981F18
:10575000882309F4F9C080918607882309F4ACC036
:1057600080918707882309F4A7C08090A1079090B3
:10577000A207A090A307B090A40720E030E048EB78
:1057800051E4C501B4010E9435EC6B017C0120E0BD
:1057900030E0A9010E9412EF87FDB1C020E030E0A7
:1057A0004AE753E4C701B6010E940FED18160CF446
:1057B000A6C04090A5075090A6076090A7077090DC
:1057C000A80720E030E040EE51E4C301B2010E949E
:1057D00035EC6B017C0120E030E0A9010E9412EF62
:1057E00087FD8DC020E030E047E853E4C701B601F3
:1057F0000E940FED18160CF482C01092A9071092A7
:10580000AA071092AB071092AC07FDEACF2EF7E083
:10581000DF2EE12CF12C8701A3019201C501B40117
:105820000E946C7DE4E3FBE064913DEF6302B00114
:105830001124882777FD8095982F0E94B1ED7B0178
:105840008C01609376077093770780937807909325
:1058500079078090A5119090A611A090A711B09003
:10586000A81180920B0290920C02A0920D02B092AD
:105870000E02209172073091730740917407509186
:10588000750760916E0770916F0780917007909116
:105890007107E1E8F7E0FF93EF93AAE7CA2EA7E0CC
:1058A000DA2E0E94BD720E94B39882E090E00E94BE
:1058B0000E1B0F900F9048C085EB98E00E9419BA1C
:1058C000E1E7FBE08491882341F09091C00095FFCF
:1058D000FCCF8093C6003196F5CFE3EAF8E08491DF
:1058E000882341F09091C00095FFFCCF8093C600C3
:1058F0003196F5CF8091C00085FFFCCF22C082E9B0
:1059000098E00E9419BAE1E7FBE08491882341F016
:105910009091C00095FFFCCF8093C6003196F5CFE3
:10592000E1E8F8E08491882341F09091C00095FF70
:10593000FCCF8093C6003196F5CF8091C00085FFE3
:10594000FCCF8AE08093C6008AE50E94981F8823D6
:10595000D1F00E948D1F672B682B692BA1F00E944C
:10596000841F20919D0730919E0740919F07509181
:10597000A0070E9436EC6093A9077093AA07809352
:10598000AB079093AC0780910F0281110C94804B70
:105990008AE50E94981F81110C94804BE090A90722
:1059A000F090AA070091AB071091AC072091A507D2
:1059B0003091A6074091A7075091A8076091A107D1
:1059C0007091A2078091A3079091A407EDEACE2ED3
:1059D000E7E0DE2E0E946C7D80E00E94E6908091E0
:1059E0005A0790915B07A0915C07B0915D07809387
:1059F0000B0290930C02A0930D02B0930E028091C3
:105A0000B2079091B30790932A02809329020E94D3
:105A100092E76093B9057093BA058093BB059093A4
:105A2000BC050E94DF900C94714B809186078823FF
:105A300021F080918707811127C08FE698E00E94AE
:105A400019BAE1E7FBE08491882341F09091C0000E
:105A500095FFFCCF8093C6003196F5CFEDE5F8E0D9
:105A60008491882341F09091C00095FFFCCF8093F2
:105A7000C6003196F5CF8091C00085FFFCCF8AE04B
:105A80008093C6000C94714B0E94B3988BE492E013
:105A90000E9475E1CE018B5F9E4F0E94F57CCB5F2B
:105AA000DE4F688179818A819B81C550D1406093A6
:105AB000A1077093A2078093A3079093A407C75FE1
:105AC000DE4F288139814A815B81C950D1402093C2
:105AD000A5073093A6074093A7075093A807C35F75
