:100000000C940A100C943B100C943B100C943B1075
:100010000C943B100C943B100C943B100C943B1034
:100020000C943B100C943B100C943B100C943B1024
:100030000C943B100C946BEA0C943B100C943B100A
:100040000C943B100C9483900C943B100C943B103C
:100050000C943B100C943B100C94ABA20C9426E433
:100060000C943B100C94C2160C943B100C943B1057
:100070000C943B100C943B100C943B100C943B10D4
:100080000C943B100C943B100C943B100C943B10C4
:100090000C943B100C943B100C943B100C943B10B4
:1000A0000C943B100C943B100C943B100C943B10A4
:1000B0000C943B100C943B100C943B100C943B1094
:1000C0000C943B100C943B100C943B100C943B1084
:1000D0000C943B100C943B100C943B100C943B1074
:1000E0000C943B1009A318A334A343A35DA36CA3F2
:1000F00086A38AA38CA390A398A367E56CE571E51A
:100100007BE585E5FEE58FE597E59FE5A9E5B3E5A8
:10011000BDE5CCE5D6E5FEE5E0E5EAE5F4E520E67B
:1001200023E612E616E61CE65AE627E62BE631E65B
:1001300035E639E63FE643E647E65AE64DE651E660
:1001400055E6084AD73B3BCE016E84BCBFFDC12FAC
:100150003D6C74319ABD56833DDA3D00C77F11BEB8
:10016000D9E4BB4C3E916BAAAABE000000803F05BB
:10017000A84CCDB2D44EB93836A9020C50B99186EC
:1001800088083CA6AAAA2ABE000000803F00486159
:100190007264636F6465642044656661756C742085
:1001A00053657474696E6773204C6F616465640095
:1001B00053746F7265642073657474696E6773201D
:1001C0007265747269657665640020440020490098
:1001D0002020204D33303120500050494420736599
:1001E0007474696E67733A00205A00205900202009
:1001F0004D323036205800486F6D65206F6666734B
:10020000657420286D6D293A00204500205A002091
:10021000580020420020540020204D323035205319
:1002200000416476616E6365642076617269616223
:100230006C65733A20533D4D696E20666565647246
:1002400061746520286D6D2F73292C20543D4D69F4
:100250006E2074726176656C206665656472617487
:100260006520286D6D2F73292C20423D6D696E69C4
:100270006D756D207365676D656E742074696D654D
:1002800020286D73292C20583D6D6178696D756D3E
:10029000205859206A65726B20286D6D2F73292CA8
:1002A00020205A3D6D6178696D756D205A206A6510
:1002B000726B20286D6D2F73292C2020453D6D61B8
:1002C00078696D756D2045206A65726B20286D6DAB
:1002D0002F73290020540020204D32303420530049
:1002E000416363656C65726174696F6E3A20533D5A
:1002F000616363656C65726174696F6E2C20543D37
:100300007265747261637420616363656C657261A8
:1003100074696F6E00204500205A0020590020208B
:100320004D3230312058004D6178696D756D204136
:100330006363656C65726174696F6E20286D6D2FE3
:100340007332293A00204500205A0020590020200D
:100350004D3230332058004D6178696D756D2066DF
:10036000656564726174657320286D6D2F73293A19
:1003700000204500205A0020590020204D3932200D
:10038000580053746570732070657220756E6974BF
:100390003A0053657474696E67732053746F7265A5
:1003A000640053544F505045442E20005072696EE3
:1003B0007465722073746F70706564206475652055
:1003C000746F206572726F72732E20466978207484
:1003D0006865206572726F7220616E642075736546
:1003E000204D39393920746F2072657374617274CD
:1003F0002E202854656D7065726174757265206970
:10040000732072657365742E20536574206974209F
:1004100061667465722072657374617274696E6767
:1004200029004B494C4C45442E20005072696E7493
:1004300065722068616C7465642E206B696C6C2831
:10044000292063616C6C656421006F6B00526573D9
:10045000656E643A20000A00207A3A200020793A3A
:10046000200020783A2000426564002200556E6B1F
:100470006E6F776E20636F6D6D616E643A2022003F
:100480004368616E67652066696C616D656E7400B6
:100490005A204F6666736574203A20007A5F6D615A
:1004A000783A20007A5F6D696E3A20005A204F66D4
:1004B00066736574005A204F6666736574206F6BAF
:1004C000007A5F6D61783A20007A5F6D696E3A203C
:1004D00000795F6D61783A2000795F6D696E3A202E
:1004E00000785F6D61783A2000785F6D696E3A2020
:1004F00000205A3A0020593A0020436F756E74204C
:10050000583A200020453A00205A3A0020593A0033
:10051000583A004649524D574152455F4E414D456C
:100520003A4D61726C696E20312E302E322B204490
:100530006576656C6F706D656E742046726F6D20A8
:100540004172636869766520534F555243455F4356
:100550004F44455F55524C3A68747470733A2F2F6C
:100560006769746875622E636F6D2F4D61726C6977
:100570006E4669726D776172652F4D61726C696E3E
:100580002050524F544F434F4C5F56455253494FA2
:100590004E3A312E30204D414348494E455F545923
:1005A00050453A4D656E64656C204558545255442B
:1005B00045525F434F554E543A3120555549443AC0
:1005C00030303030303030302D303030302D303031
:1005D00030302D303030302D303030303030303021
:1005E000303030300A004D656E64656C204F6666B1
:1005F0002E004D656E64656C2072656164792E0015
:1006000042656420646F6E652E0020423A002045EA
:100610003A00543A004265642048656174696E6727
:100620002E0048656174696E6720646F6E652E00E8
:1006300020573A0020453A00543A004865617469F1
:100640006E672E2E2E002042403A0020403A0020B5
:100650002F003A00205400202F0020423A00202F83
:10066000006F6B20543A000A0A005374616E646193
:10067000726420446576696174696F6E3A20000A7D
:10068000004D65616E3A20000A002020207A3A2051
:100690000000793A2000783A20003F537065636982
:1006A00066696564206E756D626572206F66206C88
:1006B00065677320696E206D6F76656D656E742059
:1006C0006E6F7420706C61757361626C652E0A00C8
:1006D0003F537065636966696564205920706F7364
:1006E0006974696F6E206F7574206F662072616E19
:1006F00067652E0A003F537065636966696564200B
:100700005820706F736974696F6E206F7574206FF5
:10071000662072616E67652E0A003F5370656369DB
:10072000666965642073616D706C652073697A65B4
:10073000206E6F7420706C61757361626C652E0A37
:100740000046756C6C20737570706F7274206174E4
:100750003A20687474703A2F2F33647072696E7423
:10076000626F6172642E636F6D2F666F72756D2E8E
:100770007068700A004D3438205A2D50726F6265CF
:10078000205265706561746162696C697479207466
:100790006573742E20202056657273696F6E203247
:1007A0002E30300A003F566572626F7365204C65CB
:1007B00076656C206E6F7420706C61757361626C0D
:1007C000652E0A002569206D696E2C20256920732D
:1007D000656300456E642066696C65206C6973749E
:1007E00000426567696E2066696C65206C69737488
:1007F000004E6F206D6F76652E004D656E64656CE2
:100800002072656164792E00526573756D696E673B
:10081000207072696E74005761697420666F72206F
:10082000757365722E2E2E000A00205A3A20002081
:10083000593A200020583A20004265640020643A6A
:10084000200020623A200045716E20636F65666665
:10085000696369656E74733A20613A2000486F6D70
:100860006520582F59206265666F7265205A0048CE
:100870006F6D6520582F59206265666F7265205A2A
:10088000005A2070726F6265206F75742E20626549
:1008900064005A2070726F6265206F75742E20623A
:1008A000656400486F6D6520582F59206265666F3A
:1008B0007265205A00486F6D6520582F5920626577
:1008C000666F7265205A00536C6565702E2E2E007F
:1008D000256920686F757273202569206D696E75B2
:1008E00074657300446F6E65207072696E74696E12
:1008F000672066696C650053544F505045442E2064
:10090000005072696E7465722073746F70706564E4
:100910002064756520746F206572726F72732E206B
:1009200046697820746865206572726F7220616E06
:100930006420757365204D39393920746F207265D4
:1009400073746172742E202854656D7065726174C1
:100950007572652069732072657365742E20536506
:1009600074206974206166746572207265737461A5
:100970007274696E6729004E6F204C696E65204E57
:10098000756D626572207769746820636865636B52
:1009900073756D2C204C617374204C696E653A2020
:1009A000004E6F20436865636B73756D20776974C3
:1009B00068206C696E65206E756D6265722C204CC6
:1009C000617374204C696E653A2000636865636BDF
:1009D00073756D206D69736D617463682C204C6153
:1009E0007374204C696E653A20004C696E65204E28
:1009F000756D626572206973206E6F74204C61732F
:100A000074204C696E65204E756D6265722B312CB9
:100A1000204C617374204C696E653A20004D313171
:100A20003000446F6E6520736176696E6720666979
:100A30006C652E006F6B004D3239002020506C61C8
:100A40006E6E657242756666657242797465733A58
:100A500020002046726565204D656D6F72793A20E1
:100A6000004D6179203131203230313600436F6DD5
:100A700070696C65643A200028444959452C205817
:100A80004C2B4C532B414C2900207C204175746821
:100A90006F723A20004D6179203131203230313689
:100AA0002031393A30323A333200204C61737420AD
:100AB000557064617465643A200020312E302E3206
:100AC0002B004D61726C696E0020536F6674776104
:100AD00072652052657365740020576174636864A1
:100AE0006F67205265736574002042726F776E20C5
:100AF0006F75742052657365740020457874657253
:100B00006E616C20526573657400506F7765725525
:100B100070007374617274002200656E717565698E
:100B20006E672022002200656E717565696E672010
:100B30002200FFFFFF0000A0400000A040000000D6
:100B40004000007A43000087430000484300000053
:100B500000000000000000000000007A4300008751
:100B600043000048430000000000000000000000B7
:100B7000006563686F3A004572726F723A007C3CA0
:100B80003E5E2B3D3F2F5B5D3B2C2A225C004D38A7
:100B90003420582059205A20450043616E6E6F74EE
:100BA00020656E746572207375626469723A200004
:100BB0004D3234004D3233202573006175746F253A
:100BC000692E67006572726F722077726974696E40
:100BD0006720746F2066696C65004E6F7420534403
:100BE000207072696E74696E67002F005344207024
:100BF00072696E74696E67206279746520002E00D8
:100C000044656C6574696F6E206661696C65642CFF
:100C10002046696C653A200046696C652064656C05
:100C2000657465643A002E006F70656E20666169B8
:100C30006C65642C2046696C653A200057726974B3
:100C4000696E6720746F2066696C653A20002E001B
:100C50006F70656E206661696C65642C2046696CF6
:100C6000653A20002E006F70656E206661696C65C4
:100C7000642C2046696C653A200046696C652073D7
:100C8000656C6563746564002053697A653A200079
:100C900046696C65206F70656E65643A20002E00B1
:100CA0006F70656E206661696C65642C2046696CA6
:100CB000653A20004E6F772066726573682066691A
:100CC0006C653A20004E6F7720646F696E6720660E
:100CD000696C653A20002220706F730022207061D9
:100CE00072656E743A2200535542524F5554494E24
:100CF000452043414C4C207461726765743A220070
:100D0000747279696E6720746F2063616C6C2073F4
:100D100075622D67636F64652066696C6573207703
:100D200069746820746F6F206D616E79206C6576D0
:100D3000656C732E204D4158206C6576656C20697A
:100D4000733A0053442063617264206F6B006F70CC
:100D5000656E526F6F74206661696C656400766FB2
:100D60006C756D652E696E6974206661696C656469
:100D700000534420696E6974206661696C002074B8
:100D80006F6F206C6F6E6720657874727573696F12
:100D90006E2070726576656E7465640020636F6C9A
:100DA0006420657874727573696F6E2070726576F1
:100DB000656E74656400656E6473746F707320682B
:100DC00069743A205A00205A3A00656E6473746F51
:100DD0007073206869743A20590020593A00656E92
:100DE0006473746F7073206869743A2058002058D7
:100DF0003A00656E6473746F7073206869743A208A
:100E00000024F4D43050C38E20C2A24017828B70CD
:100E100011127A910D816CD90AA861E108C7586650
:100E200007615143061E4B5D05C145A7041A4111D8
:100E300004093D9803713931034036DB0265339173
:100E400002D4305402802E1D02632CEE01752AC597
:100E500001B028A001102781018F2564012B244BAC
:100E600001E0223401AC211F018D200D01801FFC07
:100E700000841EED00971DDF00B81CD200E61BC6E3
:100E800000201BBC00641AB200B219A8000A19A005
:100E9000006A189900D117910040178B00B516848D
:100EA0000031167E00B31579003A157300C7146F30
:100EB0000058146A00EE1366008813630025135E61
:100EC00000C7125B006C12570015125400C111517B
:100ED0000070114F0021114B00D61049008D1047B2
:100EE000004610440002104200C00F4000800F3E38
:100EF00000420F3C00060F3B00CB0E3800930E372C
:100F0000005C0E3500270E3400F30D3200C10D31A8
:100F100000900D3000600D2E00320D2D00050D2CBF
:100F200000D90C2B00AE0C2900850C29005C0C2785
:100F300000350C27000E0C2600E80B2400C40B24FF
:100F400000A00B23007D0B23005A0B2100390B213D
:100F500000180B2000F80A1F00D90A1E00BB0A1E49
:100F6000009D0A1D00800A1D00630A1C00470A1B21
:100F7000002C0A1B00110A1A00F7091A00DD0919D2
:100F800000C4091900AB091900920917007B091860
:100F900000630917004C09160036091600200916CF
:100FA000000A091500F5081500E0081400CC081423
:100FB00000B8081400A4081400900813007D08125B
:100FC000006B08130058081200460812003408117C
:100FD00000230811001208110001081100F0071089
:100FE00000E0071000D0071000C0071000B0070F86
:100FF00000A107100091070E0083070F0074070F70
:101000000065070E0057070E0049070E003B070D4D
:10101000002E070E0020070D0013070D0006070D18
:1010200000F9060C00ED060D00E0060C00D4060CDD
:1010300000C8060C00BC060C00B0060C00A4060B91
:101040000099060C008D060B0082060B0077060B3C
:10105000006C060B0061060A0057060B004C060ADE
:101060000042060A0038060A002E060A0024060A74
:10107000001A060A001006090007060A00FD050905
:1010800000F4050900EB050900E2050900D905098E
:1010900000D0050900C7050900BE050900B505080F
:1010A00000AD050800A50509009C05080094050889
:1010B000008C050800840508007C050800740508FC
:1010C000006C050700650508005D0507005605086A
:1010D000004E0507004705070040050800380507D2
:1010E00000310507002A050700230507001C050637
:1010F00000160507000F0507000805060002050792
:1011000000FB040600F5040700EE040600E80406F0
:1011100000E2040700DB040600D5040600CF040645
:1011200000C9040600C3040600BD040600B7040697
:1011300000B1040500AC040600A6040600A00405E6
:10114000009B04060095040500900406008A04052F
:101150000085040500800406007A04050075040576
:1011600000700405006B04050066040500610405B9
:10117000005C04050057040500520405004D0405F9
:101180000048040500430405003E0404003A040539
:101190000035040500300404002C04050027040475
:1011A00000230405001E0404001A040400160405AC
:1011B00000110404000D04040009040500040404E3
:1011C0000000040400FC030400F8030400F403041A
:1011D00000F0030400EC030400E8030400E403044B
:1011E00000E0030400DC030400D8030400D403047B
:1011F00000D0030400CC030400C8030300C50303AC
:101200000024F404D9201BC40C5C0E9804C4095FAC
:101210000265077101F405F900FB04B30048048777
:1012200000C10369005803550003034500BE023A9C
:10123000008402310053022A002902250004022002
:1012400000E4011C00C8011900AF01170098011447
:101250000084011300710110006101100051010EA2
:101260000043010D0036010B002B010B0020010B88
:1012700000150109000C01090003010800FB00082A
:1012800000F3000800EB000700E4000600DE0006A3
:1012900000D8000600D2000600CC000500C70005FB
:1012A00000C2000500BD000400B9000400B5000440
:1012B00000B1000400AD000400A9000400A5000373
:1012C00000A20003009F0004009B0003009800039D
:1012D000009500020093000300900003008D0002BF
:1012E000008B0003008800020086000200840003D7
:1012F00000810002007F0002007D0002007B0002EE
:1013000000790002007700010076000200740002FC
:101310000072000100710002006F0002006D000108
:10132000006C0002006A0001006900020067000111
:101330000066000100650001006400020062000117
:101340000061000100600001005F0002005D00011B
:10135000005C0001005B0001005A0001005900011F
:10136000005800010057000100560001005500011F
:10137000005400010053000000530001005200011E
:101380000051000100500001004F0001004E00001C
:10139000004E0001004D0001004C0001004B000018
:1013A000004B0001004A0001004900010048000014
:1013B000004800010047000100460000004600010F
:1013C000004500000045000100440001004300000A
:1013D0000043000100420000004200010041000003
:1013E0000041000100400001003F0000003F0001FB
:1013F000003E0000003E0001003D0000003D0001F5
:10140000003C0000003C0000003C0001003B0000EC
:10141000003B0001003A0000003A000100390000E2
:1014200000390001003800000038000000380001D9
:1014300000370000003700010036000000360000D1
:1014400000360001003500000035000000350001C5
:1014500000340000003400000034000100330000BC
:1014600000330000003300010032000000320000B1
:1014700000320001003100000031000000310001A5
:10148000003000000030000000300001002F00009C
:10149000002F0000002F0000002F0001002E000090
:1014A000002E0000002E0001002D0000002D000085
:1014B000002D0000002D0001002C0000002C000079
:1014C000002C0000002C0001002B0000002B00006D
:1014D000002B0000002B0001002A0000002A000061
:1014E000002A0000002A0001002900000029000055
:1014F0000029000000290000002900010028000048
:10150000002800000028000000280000002800013A
:10151000002700000027000000270000002700002F
:101520000027000100260000002600000026000021
:101530000026000000260001002500000025000014
:101540000025000000250000002500000025000106
:1015500000240000002400000024000000240000FB
:1015600000240001002300000023000000230000ED
:1015700000230000002300000023000000230001DE
:1015800000220000002200000022000000220000D3
:1015900000220000002200010021000000210000C4
:1015A00000210000002100000021000000210000B7
:1015B00000210001002000000020000000200000A9
:1015C000002000000020000000200000002000009B
:1015D00000200001001F0000001F0000001F00008D
:1015E000001F0000001F0000001F0000001F00017E
:1015F000001E0000001E0000001E0000001E000073
:10160000004572723A204D415854454D5020424594
:10161000440054656D70657261747572652068650B
:1016200061746564206265642073776974636865BA
:1016300064206F66662E204D415854454D502074ED
:101640007269676765726564202121004572723A8C
:10165000204D494E54454D50003A204578747275DE
:10166000646572207377697463686564206F666669
:101670002E204D494E54454D502074726967676560
:101680007265642021004572723A204D41585445DC
:101690004D50003A204578747275646572207377F6
:1016A000697463686564206F66662E204D415854E6
:1016B000454D50207472696767657265642021002A
:1016C000202D20496E76616C69642065787472758E
:1016D000646572206E756D62657220210050494408
:1016E000204175746F74756E652066696E697368E4
:1016F0006564212050757420746865206C61737472
:10170000204B702C204B6920616E64204B64206359
:101710006F6E7374616E74732066726F6D20616298
:101720006F766520696E746F20436F6E66696775AA
:10173000726174696F6E2E6800504944204175745F
:101740006F74756E65206661696C656421207469CB
:101750006D656F75740020403A006F6B20543A003D
:101760006F6B20423A00504944204175746F747584
:101770006E65206661696C6564212054656D7065D5
:1017800072617475726520746F6F20686967680094
:10179000204B643A2000204B693A2000204B703ADD
:1017A000200020436C61737369632050494420001A
:1017B0002054753A2000204B753A2000206D617846
:1017C0003A2000206D696E3A200020643A20002003
:1017D000626961733A200070012C0190012701B009
:1017E000012201C0011D01F0011801100213013096
:1017F000020E016002090190020401C002FF000014
:1018000003FA004003F5008003F000D003EB002052
:1018100004E6007004E100E004DC004005D700C0ED
:1018200005D2004006CD00D006C8008007C30030B6
:1018300008BE00F008B900C009B400B00AAF00B09B
:101840000BAA00D00CA500000EA000500F9B00C0FA
:101850001096005012910000148C00C0158700B043
:10186000178200B0197D00D01B7800001E73004065
:10187000206E0090226900F024640040275F0090F1
:10188000295A00E02B5500102E500020304B00103C
:10189000324600E033410090353C0010373700708D
:1018A000383200A0392D00B03A2800A03B23006058
:1018B0003C1E00103D1900903D1400103E0F0070BA
:1018C0003E0A00C03E0500003F00004361726420F4
:1018D00072656D6F766564004361726420696E7332
:1018E0006572746564004D333030205336393820CA
:1018F00050323030004D333030205336353920509F
:10190000323030002D2D3A2D2D002D2D2D00534439
:1019100000205900012000012000426162797374A7
:10192000657070696E6720580042616279737465F2
:101930007070696E672059004261627973746570D6
:1019400070696E67205A004D363030004368616E12
:1019500067652066696C616D656E740042616279CD
:1019600073746570205A00426162797374657020E7
:1019700059004261627973746570205800466C6F3B
:1019800077203000466C6F77203000466C6F770010
:10199000466C6F770046616E207370656564004623
:1019A000616E207370656564004265640042656421
:1019B000004E6F7A7A6C65004E6F7A7A6C650053D0
:1019C00070656564005370656564004D61696E0003
:1019D0005072656865617420504C41204265640016
:1019E0005072656865617420504C4120310050721E
:1019F000657061726500507265686561742041426E
:101A000053204265640050726568656174204142EC
:101A100053203100507265706172650058005900A2
:101A20005A004578747275646572004578747275F1
:101A3000646572004D6F7665205A004D6F766520A3
:101A400059004D6F76652058004D6F76652061789E
:101A50006973004D6F766520302E316D6D004D6FCE
:101A6000766520316D6D004D6F76652031306D6D7E
:101A70000050726570617265004D6F766520617807
:101A80006973004D38300053776974636820706F54
:101A9000776572206F6E004D38310053776974633B
:101AA0006820706F776572206F666600436F6F6C99
:101AB000646F776E005072656865617420414253AF
:101AC000005072656865617420504C410053657424
:101AD00020686F6D65206F666673657473004732AA
:101AE00038004175746F20686F6D65004D383400A3
:101AF00044697361626C652073746570706572739C
:101B0000004D61696E0053746F7265206D656D6F75
:101B100072790042656400426564004E6F7A7A6CA7
:101B200065004E6F7A7A6C650046616E2073706551
:101B300065640046616E2073706565640054656D70
:101B400070657261747572650053746F7265206D93
:101B5000656D6F72790042656400426564004E6F86
:101B60007A7A6C65004E6F7A7A6C650046616E20F9
:101B700073706565640046616E207370656564000E
:101B800054656D7065726174757265005072656838
:101B90006561742041425320636F6E660050726528
:101BA0006865617420504C4120636F6E6600504937
:101BB000442D43005049442D43005049442D4400D6
:101BC0005049442D44005049442D49005049442D6A
:101BD00049005049442D50005049442D50002002E6
:101BE0002046616374002002204661637400200275
:101BF000204D6178002002204D6178002002204DA8
:101C0000696E002002204D696E004F6666004F6EBF
:101C100020004F6666004F6E20004175746F74653A
:101C20006D700046616E2073706565640046616E7C
:101C30002073706565640042656400426564004E0F
:101C40006F7A7A6C65004E6F7A7A6C6500436F6EBE
:101C500074726F6C004573746570732F6D6D004501
:101C600073746570732F6D6D005A73746570732F84
:101C70006D6D005A73746570732F6D6D00597374B8
:101C80006570732F6D6D005973746570732F6D6D72
:101C9000005873746570732F6D6D005873746570A0
:101CA000732F6D6D00412D72657472616374004114
:101CB0002D7265747261637400416D6178206500F6
:101CC000416D6178206500416D6178207A00416D39
:101CD0006178207A00416D6178207900416D6178EA
:101CE000207900416D6178207800416D617820781D
:101CF000005654726176206D696E0056547261769A
:101D0000206D696E00566D696E00566D696E0056E5
:101D10006D6178206500566D6178206500566D61B3
:101D200078207A00566D6178207A00566D617820AF
:101D30007900566D6178207900566D6178207800C1
:101D4000566D617820780056652D6A65726B005675
:101D5000652D6A65726B00567A2D6A65726B005646
:101D60007A2D6A65726B005678792D6A65726B0000
:101D70005678792D6A65726B00416363656C00412A
:101D80006363656C005A204F6666736574005A2061
:101D90004F666673657400436F6E74726F6C0046B5
:101DA000696C2E204469612E20310046696C2E201A
:101DB0004469612E2031004F6666004F6E20004F4F
:101DC0006666004F6E20004520696E206D6D330001
:101DD000436F6E74726F6C00526573746F7265201E
:101DE0006661696C73616665004C6F6164206D6546
:101DF0006D6F72790053746F7265206D656D6F72CF
:101E0000790046696C616D656E74004D6F74696F21
:101E10006E0054656D7065726174757265004D6118
:101E2000696E004D383420582059205A2045004D05
:101E30003234004D323320257300052E2E004D61C3
:101E4000696E004E6F2053442063617264005072CB
:101E5000696E742066726F6D2053440053746F7006
:101E6000207072696E7400526573756D65207072B2
:101E7000696E74005061757365207072696E7400CC
:101E8000436F6E74726F6C005072657061726500A2
:101E900054756E6500496E666F2073637265656E7A
:101EA000000A00207A3A200020793A200020783A6F
:101EB000200000000A0B02090C0D0E0807030401A4
:101EC0000000000000000000000000000000000012
:101ED00000000000000000000000000000001211DF
:101EE00010000000000000000000000000000000E2
:101EF000000000000000000001021020200808106F
:101F00002040102040800201020108040201010269
:101F10000408102040808040201008040201800442
:101F2000020180402010080402010804020101029D
:101F3000040810204080010204081020408005059C
:101F40000505070508080808020202020A0A08082F
:101F5000040404040101010101010101030303035D
:101F600003030303040707070C0C0C0C0C0C0C0CEC
:101F70000202020206060606060606060B0B0B0BFD
:101F80000B0B0B0B000020002300260029002C0067
:101F90002F003200000100000301060109010000CA
:101FA0002200250028002B002E0031003400020101
:101FB0000000050108010B0100002100240027009A
:101FC0002A002D0030003300010100000401070148
:101FD0000A01024E414E494E495459494E46CDCC14
:101FE000CC3D0AD7233C17B7D13877CC2B32959507
:101FF000E6241FB14F0A000020410000C842004003
:102000001C4620BCBE4CCA1B0E5AAEC59D74044E65
:102010002FCD084E11241FBECFEFD1E2DEBFCDBFC2
:1020200000E00CBF15E0A0E0B2E0E8ECFEEE01E05D
:102030000BBF02C007900D92AA31B107D9F722E178
:10204000AAE1B5E001C01D92A73EB207E1F710E298
:10205000C2E1D0E200E006C022970109FE010BBFF9
:102060000E94D8EFCE30D10780E00807A9F70E9480
:10207000CBEA0C9453F70C940000EF92FF920F936D
:102080001F93CF93DF931F92CDB7DEB78C017B01F7
:10209000460FF70161917F01F801808191814983A9
:1020A0000E949CF6F8018081918101969183808342
:1020B00049814E11EECF0F90DF91CF911F910F917B
:1020C000FF90EF900895EF92FF920F931F93CF939D
:1020D000DF931F92CDB7DEB78C017B01460FF8016D
:1020E0008081918149830E9494F6F70181937F0159
:1020F000F8018081918101969183808349814E11FD
:10210000EECF0F90DF91CF911F910F91FF90EF9045
:1021100008950F931F93CF93DF93CDB7DEB72C971E
:102120000FB6F894DEBF0FBECDBF80E390E3A0E30F
:10213000B0E08D839E83AF83B88704E610E01C87F0
:102140000B8744E0BE016B5F7F4FCE010B9695DF9E
:1021500040E165E871E1CE010B968FDF40E165E972
:1021600071E1CE010B9689DF40E165E771E1CE01B7
:102170000B9683DF44E06DE671E1CE010B967DDFC7
:1021800044E069E671E1CE010B9677DF44E061E758
:1021900071E1CE010B9671DF44E069E571E1CE019A
:1021A0000B966BDF44E065EA71E1CE010B9665DFCB
:1021B00044E065E671E1CE010B965FDF44E061E645
:1021C00071E1CE010B9659DF44E06DE571E1CE017E
:1021D0000B9653DF4CE06DE877E0CE010B964DDFB8
:1021E00042E06BEA72E1CE010B9647DF42E069EA1A
:1021F00072E1CE010B9641DF42E067EA72E1CE0167
:102200000B963BDF42E065EA72E1CE010B9635DFCB
:1022100042E063EA72E1CE010B962FDF42E061EA11
:1022200072E1CE010B9629DF44E06AE777E0CE0148
:102230000B9623DF44E066E872E0CE010B961DDFCB
:1022400044E062E872E0CE010B9617DF44E06EE7EF
:1022500072E0CE010B9611DF80E290E09A878987C9
:1022600042E0BE01675F7F4FCE010B9606DF41E083
:1022700069EA77E0CE010B9600DF44E061E272E0AC
:10228000CE010B96FADE86E591E3A3E3B0E0898305
:102290009A83AB83BC831C870B8744E0BE016F5FCE
:1022A0007F4FCE010B96E9DEE1E7FBE084918823C6
:1022B00041F09091C00095FFFCCF8093C60031960D
:1022C000F5CFE2E9F3E08491882341F09091C000DA
:1022D00095FFFCCF8093C6003196F5CF8091C0006A
:1022E00085FFFCCF8AE08093C6002C960FB6F89449
:1022F000DEBF0FBECDBFDF91CF911F910F9108952B
:10230000CF93DF93C1E7DBE0FE018491882341F0A6
:102310009091C00095FFFCCF8093C6003196F5CF19
:10232000E2E8F3E08491882341F09091C00095FFAA
:10233000FCCF8093C6003196F5CF8091C00085FF19
:10234000FCCF8AE08093C600FE018491E1E7FBE0C8
:10235000882349F09091C00095FFFCCF8093C60080
:1023600031968491F5CF40918511509186116091FD
:102370008711709188118AE793E00E94DE1C4091DA
:10238000891150918A1160918B1170918C1187E79E
:1023900093E00E94DE1C40918D1150918E1160914E
:1023A0008F117091901184E793E00E94DE1C4091A0
:1023B000911150919211609193117091941181E754
:1023C00093E00E94DE1C8091C00085FFFCCF8AE074
:1023D0008093C600FE018491E1E7FBE0882349F089
:1023E0009091C00095FFFCCF8093C60031968491F8
:1023F000F5CFE7E5F3E08491882341F09091C000A8
:1024000095FFFCCF8093C6003196F5CF8091C00038
:1024100085FFFCCF8AE08093C600FE018491E1E74E
:10242000FBE0882349F09091C00095FFFCCF80939A
:10243000C60031968491F5CF409195115091961137
:1024400060919711709198118EE493E00E94DE1CC8
:102450004091991150919A1160919B1170919C112A
:102460008BE493E00E94DE1C40919D1150919E11DF
:1024700060919F117091A01188E493E00E94DE1C8E
:102480004091A1115091A2116091A3117091A411DA
:1024900085E493E00E94DE1C8091C00085FFFCCFA4
:1024A0008AE08093C600FE018491E1E7FBE0882387
:1024B00049F09091C00095FFFCCF8093C600319603
:1024C0008491F5CFE7E2F3E08491882341F0909185
:1024D000C00095FFFCCF8093C6003196F5CF809168
:1024E000C00085FFFCCF8AE08093C600FE01849186
:1024F000E1E7FBE0882349F09091C00095FFFCCF15
:102500008093C60031968491F5CF4091751150911A
:10251000761160917711709178118EE193E00E94AD
:10252000001D4091791150917A1160917B11709149
:102530007C118BE193E00E94001D40917D11509130
:102540007E1160917F117091801188E193E00E946B
:10255000001D409181115091821160918311709101
:10256000841185E193E00E94001D8091C00085FFE9
:10257000FCCF8AE08093C600FE018491E1E7FBE096
:10258000882349F09091C00095FFFCCF8093C6004E
:1025900031968491F5CFE0EEF2E08491882341F00A
:1025A0009091C00095FFFCCF8093C6003196F5CF87
:1025B0008091C00085FFFCCF8AE08093C600FE01B9
:1025C0008491E1E7FBE0882349F09091C00095FFFA
:1025D000FCCF8093C60031968491F5CF40916D1168
:1025E00050916E1160916F117091701187ED92E0B2
:1025F0000E94DE1C4091691150916A1160916B112B
:1026000070916C1184ED92E00E94DE1C8091C000FC
:1026100085FFFCCF8AE08093C600FE018491E1E74C
:10262000FBE0882349F09091C00095FFFCCF809398
:10263000C60031968491F5CFE1E2F2E084918823DF
:1026400041F09091C00095FFFCCF8093C600319679
:10265000F5CF8091C00085FFFCCF8AE08093C60053
:10266000FE018491E1E7FBE0882349F09091C000EE
:1026700095FFFCCF8093C60031968491F5CF4091B1
:10268000711150917211609173117091741188E100
:1026900092E00E94DE1C4091591150915A116091B4
:1026A0005B1170915C1185E192E00E94DE1C40910B
:1026B000A5115091A6116091A7117091A81182E106
:1026C00092E00E94001D4091651150916611609149
:1026D0006711709168118FE092E00E94DE1C4091BA
:1026E00061115091621160916311709164118CE0DD
:1026F00092E00E94DE1C40915D1150915E1160914C
:102700005F117091601189E092E00E94DE1C80915F
:10271000C00085FFFCCF8AE08093C600FE01849153
:10272000E1E7FBE0882349F09091C00095FFFCCFE2
:102730008093C60031968491F5CFE7EFF1E0849164
:10274000882341F09091C00095FFFCCF8093C60094
:102750003196F5CF8091C00085FFFCCF8AE0809351
:10276000C600FE018491E1E7FBE0882349F09091E7
:10277000C00095FFFCCF8093C60031968491F5CFC1
:1027800040918D0750918E0760918F07709190074F
:102790008EEE91E00E94DE1C4091910750919207CD
:1027A00060919307709194078BEE91E00E94DE1C7C
:1027B00040919507509196076091970770919807FF
:1027C00088EE91E00E94DE1C8091C00085FFFCCF66
:1027D0008AE08093C600FE018491E1E7FBE0882354
:1027E00049F09091C00095FFFCCF8093C6003196D0
:1027F0008491F5CFEAEDF1E08491882341F0909146
:10280000C00095FFFCCF8093C6003196F5CF809134
:10281000C00085FFFCCF8AE08093C600FE01C49112
:10282000E1E7FBE0CC2349F08091C00085FFFCCFBD
:10283000C093C6003196C491F5CF40918602509165
:102840008702609188027091890280ED91E00E9478
:10285000DE1C6091820270918302809184029091CB
:1028600085020E9443A4AB01BC018DEC91E00E9463
:10287000DE1C60917E0270917F02809180029091B7
:1028800081020E944FA4AB01BC018AEC91E00E943E
:10289000DE1C8091C00085FFFCCF8AE08093C600DB
:1028A000DF91CF910895AF92BF92CF92DF92EF92D6
:1028B000FF920F931F93CF93DF93CDB7DEB7E097CF
:1028C0000FB6F894DEBF0FBECDBF80E1E3EAF2E0C1
:1028D000DE01919601900D928A95E1F780E1E3EB9C
:1028E000F2E0DE01519601900D928A95E1F780E1C8
:1028F000E3ECF2E0DE01119601900D928A95E1F78A
:102900006E0181E2C80ED11C85E8E82E81E1F82E27
:102910008E010F5E1F4F65E971E1AE014F5F5F4FA2
:1029200095E7A92E91E1B92E20E030E0F6018191E2
:102930009191A191B1916F01F70181939193A1932D
:10294000B1937F01F80181919191A191B1918F0192
:10295000FB0181939193A193B193BF01FA018191FE
:102960009191A191B191AF01F50181939193A193BF
:10297000B1935F012F5F3F4F24303105B9F60E94BC
:102980000E7E80E090E0AFE2B4E480936D1190930E
:102990006E11A0936F11B093701180936911909391
:1029A0006A11A0936B11B0936C1110927111109277
:1029B0007211109273111092741180E29EE4A0E0E3
:1029C000B0E08093A5119093A611A093A711B093A6
:1029D000A8111092591110925A1110925B11109275
:1029E0005C1180E090E0A0E7B1E4809365119093E2
:1029F0006611A0936711B09368118DEC9CECACEC60
:102A0000BEE38093611190936211A0936311B09320
:102A1000641180E090E0A0EEB0E480935D119093AB
:102A20005E11A0935F11B093601110929507109200
:102A3000960710929707109298071092910710929C
:102A40009207109293071092940710928D0710929C
:102A50008E0710928F071092900784EB90E090936E
:102A6000AC128093AB1282E390E09093AA12809311
:102A7000A9128FEF90E09093A8128093A71220EFF5
:102A800030E03093A6122093A5122AE530E030936F
:102A9000A4122093A3129093A2128093A1121092D9
:102AA0007A0710927B0710927C0710927D078AE9C3
:102AB00099E9A1EBB1E48093860290938702A093F9
:102AC0008802B093890261E77DE38AE89FE30E9470
:102AD0003DA460938202709383028093840290935A
:102AE000850260E070E084EE92E40E9449A4609365
:102AF0007E0270937F0280938002909381020E94F5
:102B0000E89A80E090E0A0E8BFE380937A02909397
:102B10007B02A0937C02B0937D021092A90780E013
:102B200090E0A0E4B0E48093210290932202A0936D
:102B30002302B09324020E94C128E1E7FBE08491C4
:102B4000882341F09091C00095FFFCCF8093C60090
:102B50003196F5CFEEE8F1E08491882341F0909131
:102B6000C00095FFFCCF8093C6003196F5CF8091D1
:102B7000C00085FFFCCF8AE08093C600E0960FB6C8
:102B8000F894DEBF0FBECDBFDF91CF911F910F91A3
:102B9000FF90EF90DF90CF90BF90AF900895CF93CC
:102BA000DF93CDB7DEB72C970FB6F894DEBF0FBE1C
:102BB000CDBF84E690E09C878B8786E591E3A3E315
:102BC000B0E089839A83AB83BC8344E0BE016B5F32
:102BD0007F4FCE010B9677DA43E050E0BE016B5F8A
:102BE0007F4FCE0101960E945BF4892B09F0BFC094
:102BF00040E165E871E1CE010B9665DA40E165E9F7
:102C000071E1CE010B965FDA40E165E771E1CE013B
:102C10000B9659DA0E940E7E44E06DE671E1CE011A
:102C20000B9651DA44E069E671E1CE010B964BDA7E
:102C300044E061E771E1CE010B9645DA44E069E5D5
:102C400071E1CE010B963FDA44E065EA71E1CE0115
:102C50000B9639DA44E065E671E1CE010B9633DA82
:102C600044E061E671E1CE010B962DDA44E06DE5BA
:102C700071E1CE010B9627DA4CE06DE877E0CE01EA
:102C80000B9621DA42E06BEA72E1CE010B961BDA79
:102C900042E069EA72E1CE010B9615DA42E067EA9A
:102CA00072E1CE010B960FDA42E065EA72E1CE01E5
:102CB0000B9609DA42E063EA72E1CE010B9603DA81
:102CC00042E061EA72E1CE010B96FDD944E06AE789
:102CD00077E0CE010B96F7D944E066E872E0CE01CA
:102CE0000B96F1D944E062E872E0CE010B96EBD985
:102CF00044E06EE772E0CE010B96E5D942E0BE01FA
:102D0000675F7F4FCE010B96DED941E069EA77E03D
:102D1000CE010B96D8D944E061E272E0CE010B9669
:102D2000D2D90E94C1280E94E89AE1E7FBE0849191
:102D3000882341F09091C00095FFFCCF8093C6009E
:102D40003196F5CFE0EBF1E08491882341F090914A
:102D5000C00095FFFCCF8093C6003196F5CF8091DF
:102D6000C00085FFFCCF8AE08093C60001C09BDDD8
:102D7000C7DA2C960FB6F894DEBF0FBECDBFDF9139
:102D8000CF9108951F920F920FB60F9211240BB698
:102D90000F922F933F934F935F936F938F939F93D4
:102DA000EF93FF936091C60020919B0530919C05A5
:102DB000C90101968F77992740919D0550919E05F5
:102DC0008417950741F0F901E55EFA4F608390930F
:102DD0009C0580939B05FF91EF919F918F916F913F
:102DE0005F914F913F912F910F900BBE0F900FBEAF
:102DF0000F901F9018959A01AB01211581EE3807AD
:102E00004105510549F182E08093C00060E079E01E
:102E10008DE390E00E94A6EF21503109410951094C
:102E2000CA01B90122E030E040E050E00E94A6EF84
:102E30003093C5002093C4008091C10080618093CD
:102E4000C1008091C10088608093C1008091C10061
:102E500080688093C10008951092C00020E130E0A6
:102E6000E7CF20919D0530919E0580919B05909123
:102E70009C058217930771F0F901E55EFA4F808196
:102E80002F5F3F4F2F77332730939E0520939D056B
:102E900090E008958FEF9FEF089580919D059091A8
:102EA0009E0590939C0580939B0508954F925F9299
:102EB0006F927F928F929F92AF92BF92CF92DF924A
:102EC000EF92FF920F931F93CF93DF93CDB7DEB7AF
:102ED000A0970FB6F894DEBF0FBECDBF5C014115C1
:102EE000510561057105E9F420E030E040E350E070
:102EF00060E070E0A0960FB6F894DEBF0FBECDBFC5
:102F0000DF91CF911F910F91FF90EF90DF90CF90C5
:102F1000BF90AF909F908F907F906F905F904F90F9
:102F20005BC08E010F5F1F4FC12CD12C7601480171
:102F3000422E512C612C712C8FEFC81AD80AE80A46
:102F4000F80ACB01BA01A30192010E9484EFCA01E1
:102F5000F80161938F01A901BC014115510561057B
:102F6000710551F7F1E0CF1AD108E108F108F40139
:102F7000EC0DFD1D80818A3010F440E301C047E371
:102F8000480F552747FD5095652F752F20E030E0FD
:102F9000C50122D081E0C81AD108E108F108EFEF9D
:102FA000CE16DE06EE06FE0611F7A0960FB6F894D2
:102FB000DEBF0FBECDBFDF91CF911F910F91FF906C
:102FC000EF90DF90CF90BF90AF909F908F907F90C9
:102FD0006F905F904F9008952115310539F48091DD
:102FE000C00085FFFCCF4093C60008952A3031050C
:102FF00009F41CC05BCFCF93DF93EC0120E030E0FD
:103000004DE050E060E070E0E7DF20E030E04AE0D3
:1030100050E060E070E0CE01DF91CF91DDCF9A010A
:10302000AB01662757FD6095762FD6CFCF92DF9202
:10303000EF92FF92CF93DF93EC016A017B0177FF60
:103040000FC020E030E04DE250E060E070E0C4DF0F
:10305000F094E094D094C094C11CD11CE11CF11CEC
:103060002AE0B701A601CE01DF91CF91FF90EF904A
:10307000DF90CF901BCF2115310539F48091C0002E
:1030800085FFFCCF4093C600089510CF9A01462FCC
:1030900050E060E070E0EFCFCF93DF93EC019A0156
:1030A000AB0160E070E0E7DFCE01DF91CF91A3CF0D
:1030B0008F929F92AF92BF92CF92DF92EF92FF9248
:1030C0001F93CF93DF93EC016A017B01122F20E065
:1030D00030E0A901C701B6010E94B3EB87FF0CC025
:1030E00020E030E04DE250E060E070E0CE0174DFBF
:1030F000F7FAF094F7F8F094B12C60E070E080E01B
:103100009FE3B11641F020E030E040E251E40E943C
:10311000BAEBB394F6CF9B01AC01C701B6010E9494
:10312000DAEA6B017C010E9427EC4B015C010E94F2
:1031300053EC9B01AC01C701B6010E94D9EA6B01B7
:103140007C012AE0B501A401CE01B0DE112361F0BB
:10315000E1EFF4E08191882339F09091C00095FF70
:10316000FCCF8093C600F6CF112319F120E030E0A8
:1031700040E251E4C701B6010E9488EE6B017C0178
:103180000E9422EC4B01AA2497FCA094BA2CB50112
:10319000A401CE014BDFC501B4010E9455EC9B0197
:1031A000AC01C701B6010E94D9EA6B017C01115044
:1031B000DBCFDF91CF911F91FF90EF90DF90CF9009
:1031C000BF90AF909F908F90089572CFFC01659152
:1031D000759185919491089580910B0290910C02C4
:1031E000A0910D02B0910E02809352079093530765
:1031F000A0935407B09355078091290290912A0219
:103200009093AB078093AA0784E690E090932A02FC
:10321000809329020E9470E46093B1057093B20517
:103220008093B3059093B40581E00C947A9080E08C
:103230000E947A908091520790915307A091540771
:10324000B091550780930B0290930C02A0930D024E
:10325000B0930E028091AA079091AB0790932A0237
:10326000809329020E9470E46093B1057093B205C7
:103270008093B3059093B40508952F923F924F9297
:103280005F926F927F928F929F92AF92BF92CF92F6
:10329000DF92EF92FF920F931F93CF93DF93CDB7FF
:1032A000DEB72C970FB6F894DEBF0FBECDBF698393
:1032B0007A838B839C8329013A01ED82FE820F83FE
:1032C000188720910B0230910C0240910D02509111
:1032D0000E0229873A874B875C8760913302709191
:1032E0003402809135029091360260930B02709304
:1032F0000C0280930D0290930E02A1EAB7E0ED92CA
:10330000FD920D931C93139720E030E040E752E4C8
:103310000E94BAEB4B015C01EDE9F7E020813181BD
:103320004281538189E9282E87E0382ED1016D91A1
:103330007D918D919C91A9E7B7E0BF93AF93E5EAAA
:10334000CE2EE7E0DE2EED80FE800F8118850E94F4
:1033500051720E94479880E090E0AAEFB5E4809314
:103360000B0290930C02A0930D02B0930E022981E0
:103370003A814B815C81D1012D933D934D935C93B8
:103380001397EDE9F7E04082518262827382A1EAED
:10339000B7E0ED90FD900D911C91A9E7B7E0BF93C8
:1033A000AF93F5E58F2E982CF5E0AF2EF3E4BF2E0A
:1033B000A301920169817A818B819C810E94517263
:1033C0000E94479829853A854B855C8520930B029E
:1033D00030930C0240930D0250930E020F900F9009
:1033E0000F900F902C960FB6F894DEBF0FBECDBF96
:1033F000DF91CF911F910F91FF90EF90DF90CF90D1
:10340000BF90AF909F908F907F906F905F904F9004
:103410003F902F9008952F923F924F925F926F921C
:103420007F928F929F92AF92BF92CF92DF92EF9254
:10343000FF920F931F93CF93DF938BE492E00E9450
:10344000B4E0E3E3F2E06081718182819381609373
:103450000B0270930C0280930D0290930E0220E0F9
:1034600030E040E752E40E94BAEB4B015C01CDE949
:10347000D7E0288139814A815B81E9E9F7E0608101
:10348000718182819381A9E72A2EA7E03A2E3F928B
:103490002F92B5EACB2EB7E0DB2EE12CF12C00E227
:1034A00011EC0E9451720E94479882E00E94B098ED
:1034B0004B015C01288139814A815B81E9E9F7E0B0
:1034C0006081718182819381850174010E94007DF8
:1034D0008DE39BE07BDE9B01AC01C501B4010E9442
:1034E000DAEA2B013C0120E030E040E752E4609151
:1034F0000B0270910C0280910D0290910E020E94BD
:10350000BAEB4B015C01288139814A815B81E9E991
:10351000F7E060817181828193813F922F928301D4
:1035200072010E9451720E94479820E030E040E80A
:103530005EE3E3E3F2E060817181828193810E9426
:1035400088EE4B015C0160930B0270930C02809338
:103550000D0290930E028DE39BE038DE6B017C013F
:1035600020E030E040E752E4C501B4010E94BAEB2C
:103570004B015C01A7019601C701B6010E94DAEA7E
:103580009B01AC01C301B2010E94D9EA7B018C010D
:10359000288139814A815B81E9E9F7E060817181A5
:1035A000828193813F922F92F5EACF2EF7E0DF2EB2
:1035B0000E9451720E94479882E00E94B0987B015D
:1035C0008C016093A1077093A2078093A307909347
:1035D000A407288139814A815B81E9E9F7E06081AC
:1035E0007181828193810E94007D0F900F900F90D6
:1035F0000F900F900F90DF91CF911F910F91FF903F
:10360000EF90DF90CF90BF90AF909F908F907F9082
:103610006F905F904F903F902F9008952F923F9220
:103620004F925F926F927F928F929F92AF92BF92D2
:10363000CF92DF92EF92FF920F931F93CF93DF937E
:10364000CDB7DEB72A970FB6F894DEBF0FBECDBF59
:103650009E838D83FC01EE5CF44FB490880F991F1C
:10366000880F991F9A8789878756984F9A838983ED
:10367000DC011D921D921D921C921397B1EA2B2E14
:10368000B7E03B2EF101E080F18002811381ADE9CA
:10369000B7E02D913D914D915C91E9E9F7E06081B2
:1036A000718182819381E5EACE2EE7E0DE2E0E94D1
:1036B000007D89859A858F5B944F88DD6B017C0145
:1036C0006B2D772767FD7095872F972F0E9455ECFC
:1036D0002B013C0129853A852A59384F3C832B839D
:1036E00020E030E040EC5FE3C701B6010E9488EEC5
:1036F000A30192010E9488EEAB81BC816D937D9302
:103700008D939C931397E985FA85E55DFD4FF887C6
:10371000EF83608171818281938160930B0270934A
:103720000C0280930D0290930E0220E030E040E7FF
:1037300052E40E94BAEB4B015C01AEE6B7E0ED90BB
:10374000FD900D911C91EAE6F7E0208131814281E4
:103750005381A6E6B7E06D917D918D919C91A9E78B
:10376000B7E0BF93AF93F2E7CF2EF7E0DF2E0E94D2
:1037700051720E944798A981BA811D921D921D9293
:103780001C921397F101E080F18002811381ADE971
:10379000B7E02D913D914D915C91E9E9F7E06081B1
:1037A000718182819381A5EACA2EA7E0DA2E0E9458
:1037B000007D29853A852B5C344F1901C90106DD4E
:1037C0009058A30192010E9488EEAB81BC816D9359
:1037D0007D938D939C93139720E030E040E752E473
:1037E00060910B0270910C0280910D0290910E027B
:1037F0000E94BAEB4B015C01EEE6F7E0E080F1805D
:1038000002811381AAE6B7E02D913D914D915C9123
:10381000E6E6F7E06081718182819381A9E7B7E0F4
:10382000BF93AF93B2E7CB2EB7E0DB2E0E9451726D
:103830000E944798C101CADC9B01AC010E94DAEAF0
:10384000A30192010E9488EEAB81BC816D937D93B0
:103850008D939C93139720E030E040E05FE3EF818D
:10386000F88560817181828193810E9488EE6093E6
:103870000B0270930C0280930D0290930E0220E0D5
:1038800030E040E752E40E94BAEB4B015C01AEE647
:10389000B7E0ED90FD900D911C91EAE6F7E02081F4
:1038A000318142815381A6E6B7E06D917D918D9182
:1038B0009C91A9E7B7E0BF93AF930E9451720E9419
:1038C000479889859A85835B944F80DC09851A85A2
:1038D0000357184FD8012D913D914D915C910E9455
:1038E000DAEAE981FA81608371838283938389852F
:1038F0009A858B59944F6ADC29853A852F57384F22
:103900007901D8012D913D914D915C910E94DAEAA7
:10391000F701608371838283938389859A85875AAF
:10392000944F54DC29853A852F5E3D4F7901D801AB
:103930002D913D914D915C910E94DAEAF7016083EF
:10394000718382839383E981FA8180819181A2814D
:10395000B381EB81FC8180839183A283B383109236
:103960000B0210920C0210920D0210920E020E9495
:103970007390ED81FE81E258F84F81E080830F90D3
:103980000F900F900F900F900F902A960FB6F8940B
:10399000DEBF0FBECDBFDF91CF911F910F91FF9082
:1039A000EF90DF90CF90BF90AF909F908F907F90DF
:1039B0006F905F904F903F902F900895FC0124915D
:1039C000222341F03091C00035FFFCCF2093C60088
:1039D0000196F4CF22E030E08AE195E0F6CBFC01DD
:1039E0002491222341F03091C00035FFFCCF209379
:1039F000C6000196F4CF22E030E08AE195E0E5CB05
:103A0000FC012491222341F03091C00035FFFCCF0E
:103A10002093C6000196F4CF2AE030E08AE195E0D9
:103A20002ACB2091BB053091BC05243031050CF028
:103A30006AC04091BD055091BE0560E6649F90014B
:103A4000659F300D1124BC01C9018B539A4F0E9410
:103A500054F4E1E7FBE08491882341F09091C000A9
:103A600095FFFCCF8093C6003196F5CFE7E2FBE0EF
:103A70008491882341F09091C00095FFFCCF809302
:103A8000C6003196F5CF8091BD059091BE0520E628
:103A9000289FF001299FF00D1124EB53FA4F8191DB
:103AA000882339F09091C00095FFFCCF8093C60029
:103AB000F6CFE5E2FBE08491882341F09091C000CD
:103AC00095FFFCCF8093C6003196F5CF8091C00062
:103AD00085FFFCCF8AE08093C6008091BD05909160
:103AE000BE05019664E070E00E9471EF9093BE0500
:103AF0008093BD058091BB059091BC050196909384
:103B0000BC058093BB0508952091BB053091BC0591
:103B1000243031050CF06AC04091BD055091BE05BE
:103B200060E6649F9001659F300D1124BC01C901BE
:103B30008B539A4F0E94BBF3E1E7FBE0849188230B
:103B400041F09091C00095FFFCCF8093C600319664
:103B5000F5CFEAE1FBE08491882341F09091C00029
:103B600095FFFCCF8093C6003196F5CF8091BD05BF
:103B70009091BE0520E6289FF001299FF00D1124A9
:103B8000EB53FA4F8191882339F09091C00095FF53
:103B9000FCCF8093C600F6CFE8E1FBE08491882358
:103BA00041F09091C00095FFFCCF8093C600319604
:103BB000F5CF8091C00085FFFCCF8AE08093C600DE
:103BC0008091BD059091BE05019664E070E00E9471
:103BD00071EF9093BE058093BD058091BB059091D8
:103BE000BC0501969093BC058093BB0508959898F9
:103BF000A09A0895269A2E980895F9DFFBDF40E9F0
:103C000050ED63E070E08AE195E0F5D8E2E1FBE099
:103C10008491882341F09091C00095FFFCCF809360
:103C2000C6003196F5CF8091C00085FFFCCF8AE0B9
:103C30008093C60081E79BE0FC012491222341F0A0
:103C40003091C00035FFFCCF2093C6003196F5CFF0
:103C500024B720FF14C0EAE0FBE03491332341F0A5
:103C60004091C00045FFFCCF3093C6003196F5CFA0
:103C70003091C00035FFFCCF3AE03093C60021FF01
:103C800014C0EAEFFAE03491332341F04091C000D0
:103C900045FFFCCF3093C6003196F5CF3091C00080
:103CA00035FFFCCF3AE03093C60022FF14C0E9EEA6
:103CB000FAE03491332341F04091C00045FFFCCF3E
:103CC0003093C6003196F5CF3091C00035FFFCCF60
:103CD0003AE03093C60023FF14C0E9EDFAE03491D6
:103CE000332341F04091C00045FFFCCF3093C60024
:103CF0003196F5CF3091C00035FFFCCF3AE03093DC
:103D0000C60025FF14C0E9ECFAE02491222341F01B
:103D10003091C00035FFFCCF2093C6003196F5CF1F
:103D20002091C00025FFFCCF2AE02093C60014BEDE
:103D3000E2ECFAE02491222341F03091C00035FFFB
:103D4000FCCF2093C6003196F5CFEAEBFAE0249140
:103D5000222341F03091C00035FFFCCF2093C600F4
:103D60003196F5CF2091C00025FFFCCF2AE02093AB
:103D7000C600FC012491E1E7FBE0222349F03091E9
:103D8000C00035FFFCCF2093C60031962491F5CFBB
:103D9000EAEAFAE02491222341F03091C00035FF95
:103DA000FCCF2093C6003196F5CFE5E9FAE02491E7
:103DB000222341F03091C00035FFFCCF2093C60094
:103DC0003196F5CFE9E8FAE02491222341F03091D1
:103DD000C00035FFFCCF2093C6003196F5CFE8E751
:103DE000FAE02491222341F03091C00035FFFCCF4E
:103DF0002093C6003196F5CF2091C00025FFFCCF5F
:103E00002AE02093C600EDE6FAE02491222341F057
:103E10003091C00035FFFCCF2093C6003196F5CF1E
:103E2000E1E6FAE02491222341F03091C00035FF11
:103E3000FCCF2093C6003196F5CF2091C00025FF1E
:103E4000FCCF2AE02093C600FC018491E1E7FBE06F
:103E5000882349F09091C00095FFFCCF8093C60065
:103E600031968491F5CFE2E5FAE08491882341F020
:103E70009091C00095FFFCCF8093C6003196F5CF9E
:103E80000E94F9584AE050E0BC018AE195E0C7D8A9
:103E9000EBE3FAE08491882341F09091C00095FF14
:103EA000FCCF8093C6003196F5CF4AE050E060ED3C
:103EB00074E08AE195E0B3D88091C00085FFFCCF23
:103EC0008AE08093C6001092C1051092C20510923C
:103ED000C3051092C4050E94CF150E94239D0E9425
:103EE000EB700E94B3970E94B7B9FFEF23ED80E318
:103EF000F15020408040E1F700C00000089580911B
:103F0000B5059091B60560E070E001960C9412F151
:103F10008091B5059091B6054AE050E060E070E010
:103F200001960C947AF2682F772767FD709520919F
:103F3000BF053091C00540E6429FC001439F900DF0
:103F400011248B539A4F0E9440F49093B6058093AE
:103F5000B50521E0892B09F420E0822F08950E9405
:103F600070E46093B1057093B2058093B3059093AC
:103F7000B40508950E9470E46093B1057093B20592
:103F80008093B3059093B405E091BF05F091C0050F
:103F9000EF53FA4F8081811114C0EAE4F4E0849178
:103FA000882341F09091C00095FFFCCF8093C6001C
:103FB0003196F5CF8091C00085FFFCCF8AE08093D9
:103FC000C60008958AE195E00E944D17EDE4F4E003
:103FD0008491882341F09091C00095FFFCCF80939D
:103FE000C6003196F5CF40914A0750914B0760913A
:103FF0004C0770914D074F5F5F4F6F4F7F4F2AE027
:1040000030E08AE195E00E94EC178091C00085FFC6
:10401000FCCF8AE08093C600ADCF8F929F92AF9283
:10402000BF92CF92DF92EF92FF920F931F93CF93A5
:10403000DF93C1E8EC2EC4E0FC2E09E917E0C6E6E8
:10404000D7E08CEAC82E87E0D82EF70181917F0156
:104050006ADF882311F153DF4B015C01F601808197
:10406000811103C06091450701C061E070E080E00C
:1040700090E00E9455ECF80120813181428153810A
:104080000E9488EE9B01AC01C501B4010E94DAEAEE
:10409000688379838A839B8309C0F8018081918139
:1040A000A281B38188839983AA83BB830C5F1F4F4E
:1040B0002496FFEFCF1ADF0A85E8E81684E0F806B9
:1040C00021F686E430DF8823D1F019DF6B017C0113
:1040D000609356077093570780935807909359073A
:1040E00020E030E0A9010E94B6ED181644F4C09219
:1040F0000B02D0920C02E0920D02F0920E02DF91C0
:10410000CF911F910F91FF90EF90DF90CF90BF90D4
:10411000AF909F908F90089580DF89E404DF88231B
:1041200051F0EDDE60935A0770935B0780935C0754
:1041300090935D0708C010925A0710925B07109287
:104140005C0710925D078AE4EEDE882351F0D7DE2B
:1041500060935E0770935F07809360079093610799
:10416000089510925E0710925F07109260071092F8
:1041700061070895CF92DF92EF92FF92CF93DF9382
:10418000EC01C0908107D0908207E0908307F09007
:104190008407A7019601688179818A819B810E94A9
:1041A000B3EB87FF04C0C882D982EA82FB82C09049
:1041B0008507D0908607E0908707F0908807A701D1
:1041C00096016C817D818E819F810E94B3EB87FF78
:1041D00004C0CC82DD82EE82FF82C0909507D09031
:1041E0009607E0909707F090980720E030E0A9014B
:1041F000C701B6010E94B3EB87FF08C020E030E0A2
:10420000A901C701B6010E94DAEA03C060E070E0CC
:10421000CB012091890730918A0740918B075091FB
:104220008C070E94DAEA6B017C019B01AC01688576
:1042300079858A859B850E94B3EB87FF04C0C88679
:10424000D986EA86FB86C0901102D0901202E090D7
:104250001302F0901402A7019601688179818A8186
:104260009B810E94B6ED181624F4C882D982EA8296
:10427000FB82C0901502D0901602E0901702F090D9
:104280001802A70196016C817D818E819F810E9419
:10429000B6ED181624F4CC82DD82EE82FF82C09047
:1042A0001902D0901A02E0901B02F0901C02A701A4
:1042B0009601688579858A859B850E94B6ED1816DA
:1042C00024F4C886D986EA86FB86DF91CF91FF90D9
:1042D000EF90DF90CF9008954F925F926F927F9210
:1042E0008F929F92AF92BF92CF92DF92EF92FF9206
:1042F0000F931F93CF93DF93CDB7DEB728970FB6F9
:10430000F894DEBF0FBECDBF86E697E033DF0E9494
:1043100070E46093B1057093B2058093B3059093F8
:10432000B405209166073091670740916807509166
:10433000690729833A834B835C8360919907709165
:104340009A0780919B0790919C070E94B3EB409045
:104350006A0750906B0760906C0770906D07209112
:104360006E0730916F0740917007509171072D8350
:104370003E834F83588781118BC0A30192016091C6
:104380009D0770919E0780919F079091A0070E94C2
:10439000B3EB81117DC020E030E040E752E4609152
:1043A0000B0270910C0280910D0290910E020E94FE
:1043B000BAEB4B015C0189E797E09F938F9392E7FB
:1043C000C92E97E0D92EED80FE800F811885A301BC
:1043D000920169817A818B819C810E9451720F9038
:1043E0000F908091660790916707A0916807B09140
:1043F00069078093990790939A07A0939B07B093BE
:104400009C0780916A0790916B07A0916C07B0910F
:104410006D0780939D0790939E07A0939F07B0938D
:10442000A00780916E0790916F07A0917007B091DF
:1044300071078093A1079093A207A093A307B0935D
:10444000A4078091720790917307A0917407B091AF
:1044500075078093A5079093A607A093A707B0932D
:10446000A80728960FB6F894DEBF0FBECDBFDF9128
:10447000CF911F910F91FF90EF90DF90CF90BF9061
:10448000AF909F908F907F906F905F904F90089526
:104490006091290270912A02882777FD8095982FD4
:1044A0000E9455EC20910B0230910C0240910D02BC
:1044B00050910E020E9488EE20E030E040E752E486
:1044C0000E94BAEB20E030E048EC52E470CFAF92AB
:1044D000BF92CF92DF92EF92FF920F931F93CF93F1
:1044E000DF93D82F20915E0730915F0740916007DE
:1044F0005091610760915A0770915B0780915C074A
:1045000090915D070E94C3EDC62F172F082FF92E3B
:104510006091290270912A02882777FD8095982F53
:104520000E9455EC20910B0230910C0240910D023B
:1045300050910E020E9488EE20E030E040E752E405
:104540000E94BAEB20E030E048EC52E40E94BAEB63
:10455000209179072F93DF93FF920F931F93CF93AF
:104560005B016C0122E0E22E01E020E04AE557E029
:1045700066E677E089E997E00E94B2698091660774
:1045800090916707A0916807B09169078093990798
:1045900090939A07A0939B07B0939C0780916A071A
:1045A00090916B07A0916C07B0916D0780939D0768
:1045B00090939E07A0939F07B093A00780916E07EA
:1045C00090916F07A0917007B09171078093A10738
:1045D0009093A207A093A307B093A40780917207BA
:1045E00090917307A0917407B09175078093A50708
:1045F0009093A607A093A707B093A8070E9470E422
:104600006093B1057093B2058093B3059093B405A0
:104610000F900F900F900F900F900F90DF91CF9110
:104620001F910F91FF90EF90DF90CF90BF90AF90D0
:104630000895F8940E94C59D5F9A10927E078A9A09
:1046400010927F079FB7F894809108018160809352
:1046500008019FBF10928007129A60E08CE00E94D0
:104660005BE6E7E7FBE08491882341F09091C0008E
:1046700095FFFCCF8093C6003196F5CFEBE2F4E0D6
:104680008491882341F09091C00095FFFCCF8093E6
:10469000C6003196F5CF8091C00085FFFCCF8AE03F
:1046A0008093C60082E294E00E9455B97894C6E0F7
:1046B000D0E0219749F068EC70E080E090E00E9443
:1046C0009FE40E94D5B9F5CFF894FFCF2F923F9287
:1046D0004F925F926F927F928F929F92AF92BF9212
:1046E000CF92DF92EF92FF920F931F93CF93DF93BE
:1046F000CDB7DEB76E970FB6F894DEBF0FBECDBF55
:1047000060E6B62E74E0E72EF12CE1E0CE2EE9E073
:10471000DE2EFAE0AF2E9924939480919B05909120
:104720009C0520919D0530919E05821B930B8F77F0
:104730009927892B09F418C28091BB059091BC057B
:1047400004970CF011C28AE195E00E943117809322
:10475000BA052091B8053091B9058A3061F08D30E5
:1047600051F08A3321F49091B705992321F02F3528
:1047700031050CF41BC12115310509F435C18091B7
:10478000BD059091BE05B89E3001B99E700C1124F4
:10479000F301E20FF31FEB53FA4F10822091B7059C
:1047A0002111FFC0FC01EF53FA4F108283010B531C
:1047B0001A4F6EE470E0C8010E9440F40097F1F1D6
:1047C0009093B6058093B505801B910B860D971DC0
:1047D0004AE050E060E070E08A539A4F0E947AF21B
:1047E00060934E0770934F07809350079093510743
:1047F00040904A0750904B0760904C0770904D07CF
:104800002FEF421A520A620A720A0091BD051091F6
:10481000BE05641575058605970509F4E8C0B09EC8
:10482000C001B19E900D11246DE17AE08B539A4F37
:104830000E94F2F3892B09F0DAC069C16AE270E0E4
:10484000C8010E9440F4892B09F444C0E7E7FBE06B
:104850008491882341F09091C00095FFFCCF809314
:10486000C6003196F5CFE7E7F9E08491882341F05F
:104870009091C00095FFFCCF8093C6003196F5CF94
:1048800040914A0750914B0760914C0770914D073A
:104890002AE030E08AE195E00E94EC178091C000A8
:1048A00085FFFCCF8AE08093C6001092B905109274
:1048B000B805C0C280914E0790914F07A091500754
:1048C000B091510780934A0790934B07A0934C07F0
:1048D000B0934D078091BD059091BE05B89E8001B3
:1048E000B99E100D1124C8018B539A4F3C0167E407
:1048F00070E00E9440F4009781F19093B605809398
:10490000B50586199709800F911F60E070E08A5302
:104910009A4F0E9412F10E9422EC64307105E8F473
:104920008091A3058823C9F0F6018491E1E0F9E0C4
:10493000882349F09091C00095FFFCCF8093C6007A
:1049400031968491F5CF8091C00085FFFCCFA09275
:10495000C60087EF98E00E9448B90091BD0510910C
:10496000BE05B09EC001B19E900D112463E173E0BD
:104970008B539A4F0E944BF4892B09F45ADEC801DD
:104980000196B7010E9471EF9093BE058093BD051B
:104990008091BB059091BC0501969093BC058093D6
:1049A000BB051092B9051092B805B7CE8B3311F440
:1049B0009092B7059091B7059111AFCE4091BD058A
:1049C0005091BE05B9016F5F7F4F7093B905609339
:1049D000B805B49EF001B59EF00D1124E20FF31F4F
:1049E000EB53FA4F808399CE1092B70523C2B09E45
:1049F0003001B19E700C1124C3018B539A4F1C01DE
:104A00006AE270E00E9440F4009789F5E7E7FBE076
:104A10008491882341F09091C00095FFFCCF809352
:104A2000C6003196F5CFE1EAF9E08491882341F0A0
:104A30009091C00095FFFCCF8093C6003196F5CFD2
:104A400040914A0750914B0760914C0770914D0778
:104A50002AE030E08AE195E00E94EC178091C000E6
:104A600085FFFCCF8AE08093C600ACDA1ECF20E041
:104A700010E0F301E20FF11DEB53FA4F30813A32AF
:104A800019F02F5F1327F5CF9093B6058093B505E6
:104A900082199309860D971D60E070E08A539A4F42
:104AA0000E9412F10E9422EC212F30E026173707D6
:104AB00009F400CFE7E7FBE08491882341F090916F
:104AC000C00095FFFCCF8093C6003196F5CFEBEC8C
:104AD000F9E08491882341F09091C00095FFFCCFCC
:104AE0008093C6003196F5CF40914A0750914B070D
:104AF00060914C0770914D072AE030E08AE195E023
:104B00000E94EC178091C00085FFFCCFABCFE7E798
:104B1000FBE08491882341F09091C00095FFFCCF89
:104B20008093C6003196F5CFEAEEF9E084918823B0
:104B300041F09091C00095FFFCCF8093C600319664
:104B4000F5CF40914A0750914B0760914C07709107
:104B50004D072AE030E08AE195E00E94EC17809151
:104B6000C00085FFFCCF7ECF8091B207882309F477
:104B700061C18091B8059091B905892B09F05AC19E
:104B80008091BB059091BC05892B11F41092A10571
:104B900048EE242E43E0342E412C512C5CE3C52EEC
:104BA000D12CE12CF12C8E010F5F1F4F30E6632ECC
:104BB000772473944091330A5091340A6091350AF6
:104BC0007091360A80912B0A90912C0AA0912D0A9F
:104BD000B0912E0A481759076A077B0708F02AC1C7
:104BE0008091BB059091BC0504970CF023C1809186
:104BF000A10581111FC18091860990918709A0911B
:104C00008809B09189098093330A9093340AA0935C
:104C1000350AB093360A8EE799E00E94CB52482FAE
:104C20008093BA058A30B9F04D30A9F0433229F4A7
:104C30002091B705211103C00EC04A33C9F320915A
:104C4000B8053091B9052F3531052CF48F3FFFEFB2
:104C50009F0709F0D1C04091330A5091340A609106
:104C6000350A7091360A80912B0A90912C0AA091F6
:104C70002D0AB0912E0A481759076A077B0708F4D6
:104C800081C0E4EEF8E08491882341F09091C00067
:104C900095FFFCCF8093C6003196F5CF8091C00080
:104CA00085FFFCCFFAE0F093C6000E9470E46093A9
:104CB000A5057093A6058093A7059093A8058090FD
:104CC000A9059090AA05A090AB05B090AC05681915
:104CD00079098A099B09A20191010E9484EF490187
:104CE0005A01CA01B901A70196010E9484EFCA01C5
:104CF000B901A70196010E9484EF7F936F93C501CC
:104D0000B40120E13EE040E050E00E9484EF3F9398
:104D10002F93A0EDB8E0BF93AF931F930F930E9422
:104D200078F4E1E7FBE084910FB6F894DEBF0FBEA4
:104D3000CDBF882349F09091C00095FFFCCF8093B0
:104D4000C60031968491F5CFF8018191882339F01E
:104D50009091C00095FFFCCF8093C600F6CF809164
:104D6000C00085FFFCCF3AE03093C600C8010E9426
:104D700065B680EB97E00E94366961E080EB97E0D2
:104D80000E946E638091BA05833211F47092A1057E
:104D90002091B8053091B9052115310509F424CECB
:104DA0008091BD059091BE05689EF001699EF00D51
:104DB0001124E20FF31FEB53FA4F1082FC01EF5363
:104DC000FA4F70822091BB053091BC052F5F3F4F99
:104DD0003093BC052093BB05019664E070E00E940F
:104DE00071EF9093BE058093BD051092B7051092A8
:104DF000B9051092B805DECE4B3311F47092B705A9
:104E00004091B7054111D2CE4091BD055091BE05EC
:104E1000B9016F5F7F4F7093B9056093B805649EC9
:104E2000F001659EF00D1124E20FF31FEB53FA4FD2
:104E30008083C0CE6E960FB6F894DEBF0FBECDBF96
:104E4000DF91CF911F910F91FF90EF90DF90CF9066
:104E5000BF90AF909F908F907F906F905F904F909A
:104E60003F902F900895CF92DF92EF92FF920F9391
:104E70001F93CF93C82F8091BB059091BC050397DA
:104E80000CF424DC0E9470E40091AD051091AE0595
:104E90002091AF053091B005C090B105D090B2051A
:104EA000E090B305F090B4056C197D098E099F0957
:104EB000061717072807390728F4012B022B032BA5
:104EC00009F0B7DB40910702509108026091090296
:104ED00070910A02452B462B472B19F10E9470E472
:104EE0000091B1051091B2052091B3053091B40540
:104EF000601B710B820B930B00910702109108024B
:104F00002091090230910A0206171707280739076E
:104F100040F49091500C80914F0C981302C0CC2318
:104F200009F180919F059091A005909902C001968A
:104F300004C0181619062CF401979093A0058093CD
:104F40009F0580919F059091A005803197420CF0BC
:104F5000B8CFCF911F910F91FF90EF90DF90CF903E
:104F60000C9434725F9A10927E078A9A10927F078F
:104F70009FB7F894809108018160809308019FBFDA
:104F800010928007129ACDCF0E94C59D8091A305F3
:104F9000811138C081E08093A30580914A079091E8
:104FA0004B07A0914C07B0914D0780934607909313
:104FB0004707A0934807B0934907E7E7FBE08491D0
:104FC000882341F09091C00095FFFCCF8093C600EC
:104FD0003196F5CFECEAF3E08491882341F090918B
:104FE000C00095FFFCCF8093C6003196F5CF80912D
:104FF000C00085FFFCCF8AE08093C60082EA93E080
:105000000C9448B908958091A3050895CF93DF9338
:10501000EC01809179078093A40584E50E94931F99
:10502000811102C080E075C00E947F1F0E9427ECA2
:105030006093A4056623B1F3E1E7FBE08491882344
:1050400041F09091C00095FFFCCF8093C60031964F
:10505000F5CFCD36D105B9F054F4C836D105B1F04D
:10506000C936D10509F045C0EDE5F3E021C0CA3DE0
:10507000D10531F0CD3DD105E1F5E8E1F3E036C0F1
:10508000EFE2F3E029C0E6E4F3E01CC0E4E7F3E07C
:105090008191882371F19091C00095FFFCCF80939E
:1050A000C600F6CF9091C00095FFFCCF8093C6005C
:1050B00081918111F7CF1DC09091C00095FFFCCF69
:1050C0008093C60081918111F7CF13C09091C000E9
:1050D00095FFFCCF8093C60081918111F7CF09C065
:1050E0009091C00095FFFCCF8093C6008191811103
:1050F000F7CF40E050E06091A4058AE195E00E947E
:1051000046188091C00085FFFCCF8AE08093C600DE
:1051100081E0DF91CF910895CF92DF92EF92FF92DD
:105120002091A9072223F1F020E030E040E05FE386
:105130000E9488EE6B017C0120E030E0A9010E9412
:10514000B3EB882379F0A7019601C701B6010E944D
:1051500088EE2BED3FE049E450E40E9488EE9B018D
:10516000AC0104C020E030E040E85FE360E070E0C4
:1051700080E89FE30E94BAEBFF90EF90DF90CF9022
:1051800008956091210270912202809123029091F2
:105190002402C2DF60931D0270931E0280931F02DF
:1051A0009093200208952F923F924F925F926F92B8
:1051B0007F928F929F92AF92BF92CF92DF92EF92A7
:1051C000FF920F931F93CF93DF93CDB7DEB7CB56EC
:1051D000D1400FB6F894DEBF0FBECDBF87E40E946A
:1051E000931F882311F40C9464310E947F1F0E9446
:1051F00022EC6C31710509F4ADC09CF4623071058C
:1052000009F44AC024F477FF3DC00C94034B63308B
:10521000710509F44CC06430710509F453C00C9455
:10522000034B6A35710509F4E4C714F56D31710556
:1052300009F48DC36E31710511F00C94034B0E947B
:1052400047980E94EC188091330290913402A0910B
:105250003502B091360280930B0290930C02A0931A
:105260000D02B0930E020E940B1AE9E3F8E05CC74E
:105270006B35710509F4C1C76C35710509F4C2C7F6
:105280000C94034B8091A30581110C94034B0E9455
:105290000D2022D80C94034B8091A30581110C940E
:1052A000034B0E948C2081E012D90C94034B809117
:1052B000A30581110C94034B0E948C2080E007D938
:1052C0000C94034B87EC98E00E9448B980E50E945B
:1052D000931F882339F00E947F1F0E9427EC4B0107
:1052E0005C0103C0812C912C540183E50E94931F23
:1052F000882361F00E947F1F20E030E04AE754E4F9
:105300000E9488EE0E9427EC4B015C010E944798A6
:105310000E9470E46B017C01C80CD91CEA1CFB1CC8
:105320000E9470E46093B1057093B2058093B30559
:105330009093B4050E9470E46C157D058E059F0561
:1053400010F00C94034B0E940A9B80E08CDD0E94BD
:10535000D5B9F0CF8BE492E00E94B4E080910B02CB
:1053600090910C02A0910D02B0910E028093520711
:1053700090935307A0935407B09355078091290247
:1053800090912A029093AB078093AA0784E690E05D
:1053900090932A02809329020E9470E46093B105E1
:1053A0007093B2058093B3059093B40581E00E9499
:1053B0007A908091990790919A07A0919B07B0915C
:1053C0009C078093660790936707A0936807B09344
:1053D000690780919D0790919E07A0919F07B091CA
:1053E000A00780936A0790936B07A0936C07B09314
:1053F0006D078091A1079091A207A091A307B0919A
:10540000A40780936E0790936F07A0937007B093E3
:1054100071078091A5079091A607A091A707B09169
:10542000A8078093720790937307A0937407B093B3
:10543000750710920B0210920C0210920D0210923E
:105440000E0288E50E94931F882311F090E00AC0A5
:1054500089E50E94931F8111F9CF8AE50E94931F6D
:1054600091E0982790930F0291110C94064B88E5D8
:105470000E94931F81110C94064B80910F028111A1
:105480000C940C4B89E50E94931F81110C940C4BDA
:1054900088E50E94931F8823D1F00E94881F672B04
:1054A000682B692BA1F00E947F1F20918D073091FE
:1054B0008E0740918F07509190070E94DAEA60931F
:1054C000990770939A0780939B0790939C0789E5AF
:1054D0000E94931F8823D1F00E94881F672B682B9E
:1054E000692BA1F00E947F1F2091910730919207B4
:1054F00040919307509194070E94DAEA60939D07C8
:1055000070939E0780939F079093A00780910F024E
:10551000882309F4ACC080E090E0A4E1B3E4809378
:10552000660790936707A0936807B093690780E0C8
:1055300090E0A3E2B3E480936A0790936B07A09393
:105540006C07B0936D07E4E3FBE064912DEF62021A
:10555000B0011124882777FD8095982F0E9455EC83
:1055600060936E0770936F07809370079093710735
:1055700080E090E0A5E0B3E480930B0290930C02EE
:10558000A0930D02B0930E021092A1071092A207F1
:105590001092A3071092A40720919D0730919E07B7
:1055A00040919F075091A0076091990770919A07C9
:1055B00080919B0790919C07B5EACB2EB7E0DB2E3C
:1055C000E12CF12C87010E94007D80900B029090CD
:1055D0000C02A0900D02B0900E02E0906E07F090C9
:1055E0006F07009170071091710720916A07309141
:1055F0006B0740916C0750916D0760916607709141
:1056000067078091680790916907E9E7F7E0FF93E2
:10561000EF93E2E7CE2EE7E0DE2E0E9451720E9469
:1056200047988091660790916707A0916807B091AD
:1056300069078093990790939A07A0939B07B0936B
:105640009C0780916A0790916B07A0916C07B091BD
:105650006D0780939D0790939E07A0939F07B0933B
:10566000A00782E090E00E940E1B0F900F908AE549
:105670000E94931F882309F4F9C080917E07882334
:1056800009F4ACC080917F07882309F4A7C08090FB
:10569000990790909A07A0909B07B0909C0720E0F4
:1056A00030E048EB51E4C501B4010E94D9EA6B0136
:1056B0007C0120E030E0A9010E94B6ED87FDB1C079
:1056C00020E030E04AE753E4C701B6010E94B3EBA3
:1056D00018160CF4A6C040909D0750909E0760904D
:1056E0009F077090A00720E030E040EE51E4C30136
:1056F000B2010E94D9EA6B017C0120E030E0A901EF
:105700000E94B6ED87FD8DC020E030E047E853E40D
:10571000C701B6010E94B3EB18160CF482C01092B8
:10572000A1071092A2071092A3071092A407F5EA0E
:10573000CF2EF7E0DF2EE12CF12C8701A30192019F
:10574000C501B4010E94007DE4E3FBE064913DEFFC
:105750006302B0011124882777FD8095982F0E945D
:1057600055EC7B018C0160936E0770936F078093FB
:1057700070079093710780909D1190909E11A0905A
:105780009F11B090A01180920B0290920C02A092F7
:105790000D02B0920E0220916A0730916B07409182
:1057A0006C0750916D076091660770916707809153
:1057B000680790916907E9E7F7E0FF93EF93A2E7A5
:1057C000CA2EA7E0DA2E0E9451720E94479882E00A
:1057D00090E00E940E1B0F900F9048C085EB98E060
:1057E0000E9448B9E1E7FBE08491882341F0909161
:1057F000C00095FFFCCF8093C6003196F5CFE3EA59
:10580000F8E08491882341F09091C00095FFFCCF8F
:105810008093C6003196F5CF8091C00085FFFCCF04
:1058200022C082E998E00E9448B9E1E7FBE0849158
:10583000882341F09091C00095FFFCCF8093C60073
:105840003196F5CFE1E8F8E08491882341F090911A
:10585000C00095FFFCCF8093C6003196F5CF8091B4
:10586000C00085FFFCCF8AE08093C6008AE50E94D5
:10587000931F8823D1F00E94881F672B682B692B08
:10588000A1F00E947F1F20919507309196074091CB
:105890009707509198070E94DAEA6093A1077093E6
:1058A000A2078093A3079093A40780910F02811110
:1058B0000C94124B8AE50E94931F81110C94124B99
:1058C000E090A107F090A2070091A3071091A40710
:1058D00020919D0730919E0740919F075091A0070E
:1058E0006091990770919A0780919B0790919C070E
:1058F000E5EACE2EE7E0DE2E0E94007D80E00E94E9
:105900007A908091520790915307A0915407B091DB
:10591000550780930B0290930C02A0930D02B09355
:105920000E028091AA079091AB0790932A02809370
:1059300029020E9470E46093B1057093B2058093D0
:10594000B3059093B4050E9473900C94034B80911F
:105950007E07882321F080917F07811127C08FE681
:1059600098E00E9448B9E1E7FBE08491882341F088
:105970009091C00095FFFCCF8093C6003196F5CF83
:10598000EDE5F8E08491882341F09091C00095FF07
:10599000FCCF8093C6003196F5CF8091C00085FF83
:1059A000FCCF8AE08093C6000C94034B0E9447987A
:1059B0008BE492E00E94B4E0CE018B5F9E4F0E9488
:1059C000897CCB5FDE4F688179818A819B81C5505C
:1059D000D1406093990770939A0780939B079093A7
:1059E0009C07C75FDE4F288139814A815B81C9509E
:1059F000D14020939D0730939E0740939F0750937B
:105A0000A007C35FDE4FE880F9800A811B81CD507B
:105A1000D140E092A107F092A2070093A307109350
:105A2000A407B5EACB2EB7E0DB2E0E94007D0E94D2
:105A3000EC188091330290913402A0913502B0911C
:105A4000360280930B0290930C02A0930D02B09348
:105A50000E02612C712C212C312C82E390E0CA5B68
:105A6000DE4F99838883C654D140ABE4B0E0C25C7A
:105A7000DE4FB983A883CE53D140E2E3F0E0C75CA8
:105A8000DE4FF983E883C953D140C35CDE4F1882EF
:105A9000CD53D14081E090E08C0F9D1F860D971D66
:105AA000C55CDE4F99838883CB53D140CC5BDE4FFE
:105AB00039822882C454D140412C512CCA5BDE4F1C
:105AC00088819981C654D140AA2797FDA095BA2F05
:105AD000C05BDE4F88839983AA83BB83C055D140C6
