:100000000C947A250C94AB250C94AB250C94AB2561
:100010000C94AB250C94AB250C94AB250C94AB2520
:100020000C94AB250C94AB250C94AB250C94AB2510
:100030000C94AB250D94B2160C94AB250C94AB2507
:100040000C94AB250C9423A60C94AB250C94AB25F7
:100050000C94AB250C94AB250C944BB80D947810F4
:100060000C94AB250C94322C0C94AB250C94AB2542
:100070000C94AB250C94AB250C94AB250C94AB25C0
:100080000C94AB250C94AB250C94AB250C94AB25B0
:100090000C94AB250C94AB250C94AB250C94AB25A0
:1000A0000C94AB250C94AB250C94AB250C94AB2590
:1000B0000C94AB250C94AB250C94AB250C94AB2580
:1000C0000C94AB250C94AB250C94AB250C94AB2570
:1000D0000C94AB250C94AB250C94AB250C94AB2560
:1000E0000C94AB25A9B8B8B8D4B8E3B8FDB80CB92E
:1000F00026B92AB92CB930B938B9D300E700D900EC
:10010000D100EB00F5000701DB00C900FF0015017D
:100110001301ED00F700F500FD000101CD00DF0047
:10012000E500E900F9000F01D5000301D700CF0079
:10013000EF000D01050117010901D500E1001101D2
:10014000F100084AD73B3BCE016E84BCBFFDC12FF6
:100150003D6C74319ABD56833DDA3D00C77F11BEB8
:10016000D9E4BB4C3E916BAAAABE000000803F05BB
:10017000A84CCDB2D44EB93836A9020C50B99186EC
:1001800088083CA6AAAA2ABE000000803F000D9461
:10019000AA050D94E6110D94B4050D943B120D942F
:1001A00078120D94C2110D94AE110D94A1120D94FC
:1001B00072120D94B8110D94DE110D94A10A0D94D4
:1001C00067120D9494120D9438130D946A120D94C5
:1001D000B3110D9459120D94CC110D9413120D946A
:1001E0007C120D949C120D94EF040D9445120D9405
:1001F0001D120D945D120D94780A0D9427120D9422
:10020000F0110D9431120D946E120D9486120D940E
:10021000D6110D948E120D9477100D9480120D94BA
:1002200063120D9498120D9404120D94FA110D940A
:100230008A1248617264636F646564204465666114
:10024000756C742053657474696E6773204C6F61AC
:100250006465640053746F726564207365747469B7
:100260006E677320726574726965766564002044F8
:10027000002049002020204D3330312050005049CB
:10028000442073657474696E67733A00205A0020C5
:10029000590020204D323036205800486F6D6520BF
:1002A0006F666673657420286D6D293A00204500DD
:1002B000205A0020580020420020540020204D32B7
:1002C0003035205300416476616E63656420766149
:1002D000726961626C65733A20533D4D696E2066A8
:1002E0006565647261746520286D6D2F73292C20FB
:1002F000543D4D696E2074726176656C206665654B
:10030000647261746520286D6D2F73292C20423D25
:100310006D696E696D756D207365676D656E7420AE
:1003200074696D6520286D73292C20583D6D6178A6
:10033000696D756D205859206A65726B20286D6D46
:100340002F73292C20205A3D6D6178696D756D20C1
:100350005A206A65726B20286D6D2F73292C20201E
:10036000453D6D6178696D756D2045206A65726BDC
:1003700020286D6D2F73290020540020204D32302D
:1003800034205300416363656C65726174696F6EFC
:100390003A20533D616363656C65726174696F6E89
:1003A0002C20543D726574726163742061636365CF
:1003B0006C65726174696F6E00204500205A0020E0
:1003C000590020204D3230312058004D6178696D40
:1003D000756D20416363656C65726174696F6E2031
:1003E000286D6D2F7332293A00204500205A0020D5
:1003F000590020204D3230332058004D6178696D0E
:10040000756D2066656564726174657320286D6D15
:100410002F73293A00204500205A0020590020203F
:100420004D39322058005374657073207065722006
:10043000756E69743A0053657474696E67732053FE
:10044000746F7265640053544F505045442E200021
:100450005072696E7465722073746F707065642079
:1004600064756520746F206572726F72732E2046FA
:10047000697820746865206572726F7220616E649D
:1004800020757365204D39393920746F207265737A
:10049000746172742E202854656D70657261747574
:1004A00072652069732072657365742E20536574BC
:1004B000206974206166746572207265737461725C
:1004C00074696E6729004B494C4C45442E200050FE
:1004D00072696E7465722068616C7465642E206B3D
:1004E000696C6C28292063616C6C656421006F6BFA
:1004F00000526573656E643A20000A00207A3A2043
:100500000020793A200020783A20004265640022D9
:1005100000556E6B6E6F776E20636F6D6D616E64EC
:100520003A2022004368616E67652066696C616DE0
:10053000656E74005A204F6666736574203A200019
:100540007A5F6D61783A20007A5F6D696E3A2000BB
:100550005A204F6666736574005A204F666673654D
:1005600074206F6B006C636420636F6E74726173D0
:10057000742076616C75653A20007A5F6D61783A17
:1005800020007A5F6D696E3A2000795F6D61783A7C
:100590002000795F6D696E3A2000785F6D61783A6E
:1005A0002000785F6D696E3A2000205A3A00205989
:1005B0003A0020436F756E7420583A200020453A67
:1005C00000205A3A0020593A00583A004649524D04
:1005D000574152455F4E414D453A4D61726C696ECF
:1005E00020312E302E322B20446576656C6F706D75
:1005F000656E742046726F6D20417263686976651E
:1006000020534F555243455F434F44455F55524C2D
:100610003A68747470733A2F2F6769746875622E24
:10062000636F6D2F4D61726C696E4669726D776193
:1006300072652F4D61726C696E2050524F544F435A
:100640004F4C5F56455253494F4E3A312E30204D54
:10065000414348494E455F545950453A4D656E6493
:10066000656C2045585452554445525F434F554E92
:10067000543A3120555549443A30303030303030DA
:10068000302D303030302D303030302D3030303073
:100690002D3030303030303030303030300A004D96
:1006A000656E64656C204F66662E004D656E6465F0
:1006B0006C2072656164792E0042656420646F6EFF
:1006C000652E0020423A0020453A00543A00426527
:1006D000642048656174696E672E004865617469BD
:1006E0006E6720646F6E652E0020573A0020453AF1
:1006F00000543A0048656174696E672E2E2E002002
:1007000042403A0020403A00202F003A0020540096
:10071000202F0020423A00202F006F6B20543A0017
:100720000A0A005374616E646172642044657669DC
:100730006174696F6E3A20000A004D65616E3A205F
:10074000000A002020207A3A200000793A20007820
:100750003A20003F537065636966696564206E7571
:100760006D626572206F66206C65677320696E200C
:100770006D6F76656D656E74206E6F7420706C6140
:10078000757361626C652E0A003F5370656369661C
:10079000696564205920706F736974696F6E206F8A
:1007A0007574206F662072616E67652E0A003F5374
:1007B0007065636966696564205820706F73697439
:1007C000696F6E206F7574206F662072616E676549
:1007D0002E0A003F53706563696669656420736122
:1007E0006D706C652073697A65206E6F7420706C13
:1007F00061757361626C652E0A0046756C6C2073BE
:100800007570706F72742061743A20687474703AF5
:100810002F2F33647072696E74626F6172642E631D
:100820006F6D2F666F72756D2E7068700A004D3493
:1008300038205A2D50726F62652052657065617460
:100840006162696C69747920746573742E2020204C
:1008500056657273696F6E20322E30300A003F5633
:100860006572626F7365204C6576656C206E6F747F
:1008700020706C61757361626C652E0A00256920B9
:100880006D696E2C2025692073656300456E6420B8
:1008900066696C65206C69737400426567696E20D7
:1008A00066696C65206C697374004E6F206D6F769D
:1008B000652E004D656E64656C2072656164792EED
:1008C00000526573756D696E67207072696E740091
:1008D0005761697420666F7220757365722E2E2EB3
:1008E000000A00205A3A200020593A200020583AA5
:1008F00020004265640020643A200020623A200013
:1009000045716E20636F656666696369656E7473B1
:100910003A20613A2000486F6D6520582F592062B7
:1009200065666F7265205A00486F6D6520582F59B3
:10093000206265666F7265205A005A2070726F627D
:1009400065206F75742E20626564005A2070726F86
:100950006265206F75742E2062656400486F6D6556
:1009600020582F59206265666F7265205A00486FC3
:100970006D6520582F59206265666F7265205A0098
:10098000536C6565702E2E2E00256920686F757278
:1009900073202569206D696E7574657300446F6EF0
:1009A00065207072696E74696E672066696C650097
:1009B00053544F505045442E20005072696E746558
:1009C000722073746F707065642064756520746F35
:1009D000206572726F72732E204669782074686584
:1009E000206572726F7220616E6420757365204D90
:1009F00039393920746F20726573746172742E20D6
:100A00002854656D70657261747572652069732014
:100A100072657365742E2053657420697420616655
:100A20007465722072657374617274696E672900EF
:100A30004E6F204C696E65204E756D626572207731
:100A400069746820636865636B73756D2C204C61F5
:100A50007374204C696E653A20004E6F20436865C0
:100A6000636B73756D2077697468206C696E65209F
:100A70006E756D6265722C204C617374204C696ECA
:100A8000653A2000636865636B73756D206D6973EB
:100A90006D617463682C204C617374204C696E65C1
:100AA0003A20004C696E65204E756D626572206952
:100AB00073206E6F74204C617374204C696E6520D6
:100AC0004E756D6265722B312C204C617374204C15
:100AD000696E653A20004D31313000446F6E6520FB
:100AE000736176696E672066696C652E006F6B00B6
:100AF0004D3239002020506C616E6E657242756611
:100B000066657242797465733A20002046726565A5
:100B1000204D656D6F72793A20004D617920313733
:100B2000203230313600436F6D70696C65643A2055
:100B30000028444959452C20584C2B4C532B414CF0
:100B4000204746584C43442900207C204175746856
:100B50006F723A20004D61792031372032303136C2
:100B60002031353A34383A303100204C61737420EA
:100B7000557064617465643A200020312E302E3245
:100B80002B004D61726C696E0020536F6674776143
:100B900072652052657365740020576174636864E0
:100BA0006F67205265736574002042726F776E2004
:100BB0006F75742052657365740020457874657292
:100BC0006E616C20526573657400506F7765725565
:100BD00070007374617274002200656E71756569CE
:100BE0006E672022002200656E717565696E672050
:100BF0002200FFFFFF0000A0400000A04000000016
:100C00004000007A43000087430000484300000092
:100C100000000000000000000000007A4300008790
:100C200043000048430000000000000000000000F6
:100C3000006563686F3A004572726F723A007C3CDF
:100C40003E5E2B3D3F2F5B5D3B2C2A225C004D38E6
:100C50003420582059205A20450043616E6E6F742D
:100C600020656E746572207375626469723A200043
:100C70004D3234004D3233202573006175746F2579
:100C8000692E67006572726F722077726974696E7F
:100C90006720746F2066696C65004E6F7420534442
:100CA000207072696E74696E67002F005344207063
:100CB00072696E74696E67206279746520002E0017
:100CC00044656C6574696F6E206661696C65642C3F
:100CD0002046696C653A200046696C652064656C45
:100CE000657465643A002E006F70656E20666169F8
:100CF0006C65642C2046696C653A200057726974F3
:100D0000696E6720746F2066696C653A20002E005A
:100D10006F70656E206661696C65642C2046696C35
:100D2000653A20002E006F70656E206661696C6503
:100D3000642C2046696C653A200046696C65207316
:100D4000656C6563746564002053697A653A2000B8
:100D500046696C65206F70656E65643A20002E00F0
:100D60006F70656E206661696C65642C2046696CE5
:100D7000653A20004E6F7720667265736820666959
:100D80006C653A20004E6F7720646F696E6720664D
:100D9000696C653A20002220706F73002220706118
:100DA00072656E743A2200535542524F5554494E63
:100DB000452043414C4C207461726765743A2200AF
:100DC000747279696E6720746F2063616C6C207334
:100DD00075622D67636F64652066696C6573207743
:100DE00069746820746F6F206D616E79206C657610
:100DF000656C732E204D4158206C6576656C2069BA
:100E0000733A0053442063617264206F6B006F700B
:100E1000656E526F6F74206661696C656400766FF1
:100E20006C756D652E696E6974206661696C6564A8
:100E300000534420696E6974206661696C002074F7
:100E40006F6F206C6F6E6720657874727573696F51
:100E50006E2070726576656E7465640020636F6CD9
:100E60006420657874727573696F6E207072657630
:100E7000656E74656400656E6473746F707320686A
:100E800069743A205A00205A3A00656E6473746F90
:100E90007073206869743A20590020593A00656ED1
:100EA0006473746F7073206869743A205800205816
:100EB0003A00656E6473746F7073206869743A20C9
:100EC0000024F4D43050C38E20C2A24017828B700D
:100ED00011127A910D816CD90AA861E108C7586690
:100EE00007615143061E4B5D05C145A7041A411118
:100EF00004093D9803713931034036DB02653391B3
:100F000002D4305402802E1D02632CEE01752AC5D6
:100F100001B028A001102781018F2564012B244BEB
:100F200001E0223401AC211F018D200D01801FFC46
:100F300000841EED00971DDF00B81CD200E61BC622
:100F400000201BBC00641AB200B219A8000A19A044
:100F5000006A189900D117910040178B00B51684CC
:100F60000031167E00B31579003A157300C7146F6F
:100F70000058146A00EE1366008813630025135EA0
:100F800000C7125B006C12570015125400C11151BA
:100F90000070114F0021114B00D61049008D1047F1
:100FA000004610440002104200C00F4000800F3E77
:100FB00000420F3C00060F3B00CB0E3800930E376B
:100FC000005C0E3500270E3400F30D3200C10D31E8
:100FD00000900D3000600D2E00320D2D00050D2CFF
:100FE00000D90C2B00AE0C2900850C29005C0C27C5
:100FF00000350C27000E0C2600E80B2400C40B243F
:1010000000A00B23007D0B23005A0B2100390B217C
:1010100000180B2000F80A1F00D90A1E00BB0A1E88
:10102000009D0A1D00800A1D00630A1C00470A1B60
:10103000002C0A1B00110A1A00F7091A00DD091911
:1010400000C4091900AB091900920917007B09189F
:1010500000630917004C091600360916002009160E
:10106000000A091500F5081500E0081400CC081462
:1010700000B8081400A4081400900813007D08129A
:10108000006B0813005808120046081200340811BB
:1010900000230811001208110001081100F00710C8
:1010A00000E0071000D0071000C0071000B0070FC5
:1010B00000A107100091070E0083070F0074070FAF
:1010C0000065070E0057070E0049070E003B070D8D
:1010D000002E070E0020070D0013070D0006070D58
:1010E00000F9060C00ED060D00E0060C00D4060C1D
:1010F00000C8060C00BC060C00B0060C00A4060BD1
:101100000099060C008D060B0082060B0077060B7B
:10111000006C060B0061060A0057060B004C060A1D
:101120000042060A0038060A002E060A0024060AB3
:10113000001A060A001006090007060A00FD050944
:1011400000F4050900EB050900E2050900D90509CD
:1011500000D0050900C7050900BE050900B505084E
:1011600000AD050800A50509009C050800940508C8
:10117000008C050800840508007C0508007405083B
:10118000006C050700650508005D050700560508A9
:10119000004E050700470507004005080038050711
:1011A00000310507002A050700230507001C050676
:1011B00000160507000F05070008050600020507D1
:1011C00000FB040600F5040700EE040600E8040630
:1011D00000E2040700DB040600D5040600CF040685
:1011E00000C9040600C3040600BD040600B70406D7
:1011F00000B1040500AC040600A6040600A0040526
:10120000009B04060095040500900406008A04056E
:101210000085040500800406007A040500750405B5
:1012200000700405006B04050066040500610405F8
:10123000005C04050057040500520405004D040538
:101240000048040500430405003E0404003A040578
:101250000035040500300404002C040500270404B4
:1012600000230405001E0404001A040400160405EB
:1012700000110404000D0404000904050004040422
:101280000000040400FC030400F8030400F4030459
:1012900000F0030400EC030400E8030400E403048A
:1012A00000E0030400DC030400D8030400D40304BA
:1012B00000D0030400CC030400C8030300C50303EB
:1012C0000024F404D9201BC40C5C0E9804C4095FEC
:1012D0000265077101F405F900FB04B300480487B7
:1012E00000C10369005803550003034500BE023ADC
:1012F000008402310053022A002902250004022042
:1013000000E4011C00C8011900AF01170098011486
:101310000084011300710110006101100051010EE1
:101320000043010D0036010B002B010B0020010BC7
:1013300000150109000C01090003010800FB000869
:1013400000F3000800EB000700E4000600DE0006E2
:1013500000D8000600D2000600CC000500C700053A
:1013600000C2000500BD000400B9000400B500047F
:1013700000B1000400AD000400A9000400A50003B2
:1013800000A20003009F0004009B000300980003DC
:10139000009500020093000300900003008D0002FE
:1013A000008B000300880002008600020084000316
:1013B00000810002007F0002007D0002007B00022D
:1013C000007900020077000100760002007400023C
:1013D0000072000100710002006F0002006D000148
:1013E000006C0002006A0001006900020067000151
:1013F0000066000100650001006400020062000157
:101400000061000100600001005F0002005D00015A
:10141000005C0001005B0001005A0001005900015E
:10142000005800010057000100560001005500015E
:10143000005400010053000000530001005200015D
:101440000051000100500001004F0001004E00005B
:10145000004E0001004D0001004C0001004B000057
:10146000004B0001004A0001004900010048000053
:10147000004800010047000100460000004600014E
:101480000045000000450001004400010043000049
:101490000043000100420000004200010041000042
:1014A0000041000100400001003F0000003F00013A
:1014B000003E0000003E0001003D0000003D000134
:1014C000003C0000003C0000003C0001003B00002C
:1014D000003B0001003A0000003A00010039000022
:1014E0000039000100380000003800000038000119
:1014F0000037000000370001003600000036000011
:101500000036000100350000003500000035000104
:1015100000340000003400000034000100330000FB
:1015200000330000003300010032000000320000F0
:1015300000320001003100000031000000310001E4
:10154000003000000030000000300001002F0000DB
:10155000002F0000002F0000002F0001002E0000CF
:10156000002E0000002E0001002D0000002D0000C4
:10157000002D0000002D0001002C0000002C0000B8
:10158000002C0000002C0001002B0000002B0000AC
:10159000002B0000002B0001002A0000002A0000A0
:1015A000002A0000002A0001002900000029000094
:1015B0000029000000290000002900010028000087
:1015C000002800000028000000280000002800017A
:1015D000002700000027000000270000002700006F
:1015E0000027000100260000002600000026000061
:1015F0000026000000260001002500000025000054
:101600000025000000250000002500000025000145
:10161000002400000024000000240000002400003A
:10162000002400010023000000230000002300002C
:10163000002300000023000000230000002300011D
:101640000022000000220000002200000022000012
:101650000022000000220001002100000021000003
:1016600000210000002100000021000000210000F6
:1016700000210001002000000020000000200000E8
:1016800000200000002000000020000000200000DA
:1016900000200001001F0000001F0000001F0000CC
:1016A000001F0000001F0000001F0000001F0001BD
:1016B000001E0000001E0000001E0000001E0000B2
:1016C000004572723A204D415854454D50204245D4
:1016D000440054656D70657261747572652068654B
:1016E00061746564206265642073776974636865FA
:1016F00064206F66662E204D415854454D5020742D
:101700007269676765726564202121004572723ACB
:10171000204D494E54454D50003A2045787472751D
:10172000646572207377697463686564206F6666A8
:101730002E204D494E54454D50207472696767659F
:101740007265642021004572723A204D415854451B
:101750004D50003A20457874727564657220737735
:10176000697463686564206F66662E204D41585425
:10177000454D502074726967676572656420210069
:10178000202D20496E76616C6964206578747275CD
:10179000646572206E756D62657220210050494447
:1017A000204175746F74756E652066696E69736823
:1017B0006564212050757420746865206C617374B1
:1017C000204B702C204B6920616E64204B64206399
:1017D0006F6E7374616E74732066726F6D206162D8
:1017E0006F766520696E746F20436F6E66696775EA
:1017F000726174696F6E2E6800504944204175749F
:101800006F74756E65206661696C6564212074690A
:101810006D656F75740020403A006F6B20543A007C
:101820006F6B20423A00504944204175746F7475C3
:101830006E65206661696C6564212054656D706514
:1018400072617475726520746F6F206869676800D3
:10185000204B643A2000204B693A2000204B703A1C
:10186000200020436C617373696320504944200059
:101870002054753A2000204B753A2000206D617885
:101880003A2000206D696E3A200020643A20002042
:10189000626961733A200070012C0190012701B048
:1018A000012201C0011D01F00118011002130130D5
:1018B000020E016002090190020401C002FF000053
:1018C00003FA004003F5008003F000D003EB002092
:1018D00004E6007004E100E004DC004005D700C02D
:1018E00005D2004006CD00D006C8008007C30030F6
:1018F00008BE00F008B900C009B400B00AAF00B0DB
:101900000BAA00D00CA500000EA000500F9B00C039
:101910001096005012910000148C00C0158700B082
:10192000178200B0197D00D01B7800001E730040A4
:10193000206E0090226900F024640040275F009030
:10194000295A00E02B5500102E500020304B00107B
:10195000324600E033410090353C001037370070CC
:10196000383200A0392D00B03A2800A03B23006097
:101970003C1E00103D1900903D1400103E0F0070F9
:101980003E0A00C03E0500003F0000436172642033
:1019900072656D6F766564004361726420696E7371
:1019A0006572746564004D33303020533639382009
:1019B00050323030004D33303020533635392050DE
:1019C00032303000B02000B0200059002D2D3A2DCB
:1019D0002D00426162797374657070696E6720587A
:1019E00000426162797374657070696E6720590096
:1019F000426162797374657070696E67205A004D38
:101A0000363030004368616E67652066696C616DD1
:101A1000656E74004261627973746570205A004289
:101A200061627973746570205900426162797374E0
:101A30006570205800466C6F77203000466C6F77D9
:101A4000203000466C6F7700466C6F770046616E01
:101A50002073706565640046616E2073706565640F
:101A60000042656400426564004E6F7A7A6C6500DE
:101A70004E6F7A7A6C6500537065656400537065CB
:101A80006564004D61696E0050726568656174201F
:101A9000504C412042656400507265686561742055
:101AA000504C412031005072657061726500507277
:101AB000656865617420414253204265640050723C
:101AC0006568656174204142532031005072657031
:101AD00061726500580059005A0045787472756447
:101AE0006572004578747275646572004D6F766535
:101AF000205A004D6F76652059004D6F766520584D
:101B0000004D6F76652061786973004D6F766520B2
:101B1000302E316D6D004D6F766520316D6D004D4D
:101B20006F76652031306D6D005072657061726541
:101B3000004D6F76652061786973004D3830005331
:101B4000776974636820706F776572206F6E004DDF
:101B500038310053776974636820706F776572203D
:101B60006F666600436F6F6C646F776E00507265CE
:101B70006865617420414253005072656865617404
:101B800020504C410053657420686F6D65206F666E
:101B9000667365747300473238004175746F20684E
:101BA0006F6D65004D38340044697361626C652067
:101BB0007374657070657273004D61696E00537463
:101BC0006F7265206D656D6F7279004265640042C9
:101BD0006564004E6F7A7A6C65004E6F7A7A6C6538
:101BE0000046616E2073706565640046616E207307
:101BF000706565640054656D7065726174757265B9
:101C00000053746F7265206D656D6F727900426567
:101C10006400426564004E6F7A7A6C65004E6F7A9C
:101C20007A6C650046616E2073706565640046617C
:101C30006E2073706565640054656D7065726174C3
:101C40007572650050726568656174204142532069
:101C5000636F6E66005072656865617420504C4118
:101C600020636F6E66005049442D43005049442D57
:101C700043005049442D44005049442D44005049EC
:101C8000442D49005049442D49005049442D5000ED
:101C90005049442D50002002204661637400200208
:101CA0002046616374002002204D617800200220EC
:101CB0004D6178002002204D696E002002204D69A0
:101CC0006E004F6666004F6E20004F6666004F6ED6
:101CD00020004175746F74656D700046616E2073ED
:101CE000706565640046616E2073706565640042CE
:101CF000656400426564004E6F7A7A6C65004E6FD1
:101D00007A7A6C6500436F6E74726F6C0045737401
:101D10006570732F6D6D004573746570732F6D6DF5
:101D2000005A73746570732F6D6D005A737465700B
:101D3000732F6D6D005973746570732F6D6D00593D
:101D400073746570732F6D6D005873746570732FA5
:101D50006D6D005873746570732F6D6D00412D7239
:101D600065747261637400412D726574726163748D
:101D700000416D6178206500416D6178206500410A
:101D80006D6178207A00416D6178207A00416D6143
:101D900078207900416D6178207900416D6178206B
:101DA0007800416D61782078005654726176206D1C
:101DB000696E005654726176206D696E00566D69C9
:101DC0006E00566D696E00566D6178206500566D27
:101DD0006178206500566D6178207A00566D6178D3
:101DE000207A00566D6178207900566D61782079EF
:101DF00000566D6178207800566D61782078005625
:101E0000652D6A65726B0056652D6A65726B0056AA
:101E10007A2D6A65726B00567A2D6A65726B005670
:101E200078792D6A65726B005678792D6A65726BC8
:101E300000416363656C00416363656C005A204F29
:101E40006666736574005A204F6666736574004356
:101E50006F6E74726F6C0046696C2E204469612E3F
:101E600020310046696C2E204469612E2031004FDC
:101E70006666004F6E20004F6666004F6E2000457C
:101E800020696E206D6D3300436F6E74726F6C004D
:101E90004C434420636F6E747261737400526573B7
:101EA000746F7265206661696C73616665004C6F62
:101EB0006164206D656D6F72790053746F72652077
:101EC0006D656D6F7279004C434420636F6E747260
:101ED0006173740046696C616D656E74004D6F745A
:101EE000696F6E0054656D7065726174757265001E
:101EF0004D61696E004D383420582059205A2045D4
:101F0000004D3234004D323320257300F92E2E005F
:101F10004D61696E004E6F2053442063617264000E
:101F20005072696E742066726F6D20534400537452
:101F30006F70207072696E7400526573756D6520E4
:101F40007072696E74005061757365207072696E8D
:101F50007400436F6E74726F6C00507265706172C2
:101F6000650054756E6500496E666F207363726517
:101F7000656E0000060900FE070199032B20FFFE95
:101F800008FE07FE00000006000001070706020029
:101F900080808080800080030303060104A0A0A04D
:101FA0000507070600005050F850F8505005070785
:101FB0000600002070A070287020050707060000AA
:101FC00048A8502050A89005070706000040A0A090
:101FD00040A890680103030602048080800307077D
:101FE0000601002040808080402003070706010092
:101FF000804020202040800505050600018850F81B
:1020000050880505050600012020F8202003030361
:102010000601FF604080050101060003F803030389
:102020000601FF40E04005070706000008081020F1
:1020300040808005070706000020508888885020CF
:102040000507070600002060A0202020F8050707EC
:10205000060000708808304080F805070706000079
:10206000F808103008887005070706000010305087
:1020700090F81010050707060000F880B0C808881F
:1020800070050707060000304080B0C8887005075B
:1020900007060000F808101020404005070706005A
:1020A00000708888708888700507070600007088AF
:1020B00098680810600307070601FF40E0400040F1
:1020C000E0400307070601FF40E040006040800455
:1020D000070706010010204080402010050303067A
:1020E0000002F800F80407070601008040201020D5
:1020F000408005070706000070881020200020059A
:102100000707060000708898A8B0807005070706CA
:10211000000020508888F88888050707060000F02E
:102120004848704848F0050707060000708880801E
:10213000808870050707060000F04848484848F0C6
:10214000050707060000F88080F08080F805070783
:10215000060000F88080F0808080050707060000F8
:102160007088808098887005070706000088888836
:10217000F8888888030707060100E0404040404097
:10218000E0050707060000381010101090600507E2
:10219000070600008890A0C0A090880507070600E9
:1021A00000808080808080F805070706000088880E
:1021B000D8A88888880507070600008888C8A898D6
:1021C0008888050707060000708888888888700559
:1021D0000707060000F08888F08080800508080660
:1021E00000FF7088888888A8700805070706000027
:1021F000F08888F0A09088050707060000708880A6
:1022000070088870050707060000F82020202020AD
:1022100020050707060000888888888888700507D9
:1022200007060000888888505050200507070600E0
:1022300000888888A8A8D88805070706000088882D
:102240005020508888050707060000888850202005
:102250002020050707060000F80810204080F8033A
:102260000707060100E08080808080E00507070600
:10227000000080804020100808030707060100E0E6
:102280002020202020E005030306000420508805BC
:1022900001010600FFF80202020602068040050561
:1022A000050600007008788878050707060000809A
:1022B00080B0C888C8B00505050600007088808811
:1022C00070050707060000080868988898680505E3
:1022D000050600007088F8807005070706000030CA
:1022E0004840F04040400507070600FE788888789F
:1022F0000888700507070600008080B0C8888888B5
:102300000307070601004000C0404040E0040909FF
:102310000601FE10003010101090906005070706AF
:10232000000080808890E09088030707060100C0C5
:102330004040404040E0050505060000D0A8A8A8A0
:1023400088050505060000B0C888888805050506CB
:10235000000070888888700507070600FEB0C888EE
:10236000C8B080800507070600FE6898889868084E
:1023700008050505060000B0C88080800505050633
:10238000000070807008F00507070600004040F06C
:102390004040483005050506000088888898680593
:1023A0000505060000888850502005050506000038
:1023B0008888A8A850050505060000885020508888
:1023C0000507070600FE88889868088870050505D7
:1023D000060000F8102040F804070706010030400E
:1023E00020C02040300107070602008080808080E6
:1023F0008080040707060100C02040304020C0054F
:10240000030306000448A89000000001000000003B
:1024100000010000000000010000000000010000B9
:1024200000000001000000000001000000000001A9
:10243000000000000001000000000001000000009A
:102440000001000000000001000000000001000089
:102450000000000100000000000100000000000179
:10246000000000000001000000000001000000006A
:102470000001000000000001000000000001000059
:102480000000000100000000000100000000000149
:10249000000000000001000000000001000000003A
:1024A0000001000000000001000000000001000029
:1024B0000000000100000000000100000000000119
:1024C000000000000001000000000001000000000A
:1024D000000600000107070602008000808080805F
:1024E000800507070600FF2078A0A0A07820050738
:1024F00007060000304840E04048B00505050600EA
:102500000088705070880508080600FF88885020F1
:10251000F8202020010707060200808080008080CC
:10252000800508080600FF7080E0904838087003B6
:102530000101060107A00507070600007088A8C86A
:10254000A888700406060601017090B05000F006DD
:1025500005050600002448904824040202060102F2
:10256000F010040101060103F005070706000070E2
:1025700088E8C8C88870050101060007F80303034E
:1025800006010440A0400506060600002020F820B1
:1025900020F804050506010360902040F0040505BD
:1025A000060103E0106010E002020206020640800D
:1025B0000506060600FF888888C8B080050707065C
:1025C000000078E8E8682828280101010602038055
:1025D0000202020602FE408003050506010340C018
:1025E0004040E00406060601016090906000F0069D
:1025F000050506000090482448900609090600FFDA
:1026000040C04040E40C143C040609090600FF40A9
:10261000C04040E81404081C0509090600FFC0205A
:102620004020C81828780805070706000020002069
:10263000204088700508080600004020708888F84F
:1026400088880508080600001020708888F88888A7
:102650000508080600002050708888F8888805085A
:102660000806000048B0708888F8888805080806C1
:1026700000005000708888F8888805080806000067
:102680002050708888F888880607070600003C50AC
:10269000909CF0909C0509090600FE70888080805F
:1026A0008870204005080806000040F88080F0800F
:1026B00080F805080806000010F88080F08080F897
:1026C00005080806000020F88080F08080F80508E2
:1026D0000806000050F88080F08080F803080806A3
:1026E00001008040E040404040E00308080601004F
:1026F0002040E040404040E003080806010040A0C0
:10270000E040404040E0030808060100A000E0402F
:10271000404040E0050707060000F04848E8484808
:10272000F0050808060000285088C8A89888880581
:10273000080806000040207088888888700508080E
:102740000600001020708888888870050808060038
:1027500000205070888888887005080806000028C6
:10276000507088888888700508080600005000703E
:1027700088888888700505050600008850205088E4
:10278000050707060000709898A8C8C870050808D3
:1027900006000040208888888888700508080600A0
:1027A00000102088888888887005080806000020A6
:1027B0005000888888887005080806000050008846
:1027C00088888888700508080600001020888850CE
:1027D00020202005070706000080F088F080808018
:1027E000050707060000708890A09088B0050808CB
:1027F0000600004020007008788878050808060068
:10280000001020007008788878050808060000206D
:1028100050007008788878050808060000285000E5
:10282000700878887805070706000050007008785F
:1028300088780508080600002050207008788878FD
:1028400006050506000078147C907C050707060045
:10285000FE7088808870204005080806000040202F
:10286000007088F8807005080806000010200070CD
:1028700088F880700508080600002050007088F86D
:10288000807005070706000050007088F88070030C
:102890000808060100804000C0404040E0030808EE
:1028A000060100408000C0404040E00308080601E7
:1028B0000040A000C0404040E0060A0A0600FEA416
:1028C000A800FC8480808084FC060A0A0600FE546E
:1028D0009400FC8404040484FC0508080600002815
:1028E0005000B0C88888880508080600004020000D
:1028F0007088888870040A0A0602FE304080909032
:102900009090909090040A0A0600FEC020109090CB
:102910009090909090060707060001448C8C84806C
:10292000403C06070706000188C4C4840408F0057B
:1029300005050600012000F8002005080806000033
:1029400040F0C88888987810050808060000E0F86C
:102950008888888888F80505050600012030F83049
:10296000200508080600002070F820202020E0053F
:1029700009090600FF2070A8A8B88888502005091A
:10298000090600FFE080C0B0A8A830282805090982
:102990000600FFF8A88888888888A8F8050A0A062B
:1029A00000FE205050505088A8A8887000060900EA
:1029B000FE06018902FE20FFFE07FE06FE00000063
:1029C0000600070106060602008080808000800362
:1029D0000303060103A0A0A00507070600FF50504F
:1029E000F850F850500509090600FE2070A8A070A4
:1029F00028A870200608080600FF40A848102048B4
:102A000054080507070600FF6090906098906801E1
:102A100003030602038080800207070602FF40804E
:102A200080808080400207070602FF8040404040CF
:102A300040800505050600008850F850880505050A
:102A40000600002020F820200204040602FEC040F8
:102A50004080050101060002F8020202060200C0E1
:102A6000C0040606060100101020408080040606FF
:102A700006010060909090906003060606010040F9
:102A8000C0404040E004060606010060901020406F
:102A9000F0040606060100F020601010E0050606AE
:102AA00006000010305090F810040606060100F0F1
:102AB00080E01010E00406060601006080E09090BF
:102AC00060040606060100F01010204040040606CF
:102AD00006010060906090906004060606010060A8
:102AE0009090701060020505060200C0C000C0C0D2
:102AF0000207070602FEC0C000C040408005050571
:102B00000600001860806018050303060001F80045
:102B1000F8050505060000C0300830C004070706A8
:102B2000010060901060400040050606060000703D
:102B300090A8B08070050606060000205088F8882E
:102B400088050606060000F088F08888F00406066E
:102B5000060100609080809060040606060100E097
:102B600090909090E0040606060100F080E08080DE
:102B7000F0040606060100F080E08080800406066E
:102B8000060100609080B090600406060601009087
:102B900090F0909090030606060100E0404040400F
:102BA000E0050606060000381010109060040606C6
:102BB00006010090A0C0A0909004060606010080C7
:102BC00080808080F005060606000088D8A8A888C6
:102BD0008804060606010090D0B090909005060685
:102BE000060000708888888870040606060100E0E8
:102BF0009090E080800407070601FF609090D0B0BD
:102C00006010040606060100E09090E09090040633
:102C10000606010060904020906005060606000050
:102C2000F8202020202004060606010090909090B5
:102C30009060040606060100909090F06060050622
:102C4000060600008888A8A8D888050606060000A1
:102C500088502020508805060606000088885020ED
:102C60002020040606060100F010204080F0030634
:102C700006060100E080808080E004060606010070
:102C8000808040201010030606060100E02020206E
:102C900020E005030306000320508805010106001B
:102CA000FEF8020202060204804004040406010049
:102CB000709090700406060601008080E09090E01D
:102CC00004040406010070808070040606060100FA
:102CD00010107090907004040406010060B0C07081
:102CE000040606060100205040E0404004060606A7
:102CF00001FE60909070106004060606010080805E
:102D0000E09090900306060601004000C04040E0BD
:102D10000308080601FE200060202020A0400406D1
:102D2000060601008080A0C0A090030606060100F0
:102D3000C040404040E0050404060000D0A8A88838
:102D4000040404060100E0909090040404060100CD
:102D5000609090600406060601FEE09090E080809E
:102D60000406060601FE709090701010040404061C
:102D70000100A0D0808004040406010070C030E08F
:102D80000406060601004040E0405020040404060A
:102D9000010090909070040404060100909060601F
:102DA00005040406000088A8A850040404060100D5
:102DB000906060900406060601FE9090907090600E
:102DC000040404060100F02040F003070706010098
:102DD000204040804040200107070602FF8080809D
:102DE000808080800307070601008040402040402B
:102DF0008004020206010350A0FFFFFFFFFFFFFF58
:102E0000FFFFFFFFFFFFFFFFFFFFFFFFFFFFFFFFD2
:102E1000FFFFFFFFFFFFFFFFFFFF000000060007AF
:102E200001060606020080008080808004060606F7
:102E300001FF2070A0A070200507070600FF3048A2
:102E400040F04040F8050505060000A8508850A84D
:102E50000506060600008850F820F820010707063E
:102E600002FF808080008080800407070601FF70D9
:102E70008060906010E0030101060105A0060707CD
:102E8000060000788494A494847803050506010163
:102E900060A06000E00505050600002850A050284D
:102EA000040303060100F01010040101060102F002
:102EB0000607070600007884B4A4A48478040101FE
:102EC000060105F004030306010260906005070790
:102ED0000600FF2020F8202000F803050506010168
:102EE00040A02040E0030505060101C0204020C0AD
:102EF00002020206020440800405050601FF9090CC
:102F0000B0D08005060606000078E8E868282801A9
:102F10000101060202800202020602FE4080030551
:102F20000506010140C04040E003050506010140DF
:102F3000A04000E0050505060000A0502850A005AF
:102F400008080600FF40C04050703078100508089F
:102F50000600FF40C0405068081038050808060009
:102F6000FFC0204030F03078100407070601002031
:102F70000020608090600507070600004020205078
:102F80007088880507070600001020205070888888
:102F900005070706000020502050708888050707A5
:102FA000060000285020507088880507070600009A
:102FB0005000205070888805070706000020502028
:102FC0005070888805060606000078A0F0A0A0B81A
:102FD0000408080601FE609080809060204004078D
:102FE000070601004020F080E080F004070706019A
:102FF000002040F080E080F0040707060100205028
:10300000F080E080F00407070601005000F080E047
:1030100080F00307070601008040E0404040E003E5
:1030200007070601002040E0404040E00307070694
:10303000010040A0E0404040E0030707060100A077
:1030400000E0404040E00506060600007048E84801
:10305000487004070706010050A090D0B09090047B
:103060000707060100402060909090600407070663
:103070000100204060909090600407070601002046
:1030800050609090906004070706010050A0609087
:1030900090906004070706010050006090909060D7
:1030A0000505050600008850205088040808060120
:1030B000FF1070B0B0D0D0E08004070706010040D8
:1030C00020909090906004070706010020409090A7
:1030D0009090600407070601002050909090906047
:1030E00004070706010050009090909060050707C4
:1030F000060000102088502020200406060601004B
:1031000080E09090E0800406060601006090A0A098
:1031100090A0040707060100402000709090700402
:103120000707060100204000709090700407070612
:1031300001002050007090907004070706010050B5
:10314000A000709090700406060601005000709078
:1031500090700407070601002050207090907005C1
:10316000040406000070A8B0780406060601FE708C
:10317000808070204004070706010040200060B0F6
:10318000C07004070706010020400060B0C0700452
:10319000070706010020500060B0C0700406060654
:1031A0000100500060B0C0700307070601008040B6
:1031B00000C04040E0030707060100204000C04077
:1031C00040E003070706010040A000C04040E003C4
:1031D0000606060100A000C04040E0040707060103
:1031E000003060107090906004070706010050A046
:1031F00000E09090900407070601004020006090D6
:103200009060040707060100204000609090600471
:103210000707060100205000609090600407070631
:10322000010050A000609090600406060601005066
:1032300000609090600505050600002000F8002061
:1032400004040406010070B0D0E004070706010082
:103250004020009090907004070706010020400075
:103260009090907004070706010020500090909005
:103270007004060606010050009090907004090941
:103280000601FE20400090909070906004080806AF
:1032900001FE8080E09090E080800408080601FE36
:1032A00050009090907090600000000000000000BE
:1032B000000000007FFFE0000000000000000000B0
:1032C0000000007000E000000000000000000000AE
:1032D000000061F860000000000000000000000035
:1032E0000041F82000000000000000000000000085
:1032F00040F020000000000000000000000000403E
:1033000060200000000000000000000000005801E4
:10331000A07F80000000000000004104005C63A06A
:10332000FFC0000000000000002082005EF7A0FF48
:10333000C0000000000000002082005EF7A0FFC077
:10334000000000000000004104005C63A07F8000DA
:103350000000000000008208005801A07F800000EB
:103360000000000001041000406020FFC0000000C9
:103370000000000104100040F020FFC00000000029
:1033800000000082080041F820FFC000000000009B
:10339000000041040061F8603F00000000000000F0
:1033A000000000007000E01E0000000000000001AE
:1033B000FFFF807FFFE00C0000000000000001FF25
:1033C000FF8000000000000000000000000000007E
:1033D000007FFFE00000000000000000000000008F
:1033E0007000E0000000000000000000000000632A
:1033F0000C60000000000000000000000000470E0C
:10340000200000000000000000000000004F0F201E
:103410000000000000000000000000005F0FA0009E
:1034200000000000000000000000005E07A07F8098
:1034300000000000000000410400406020FFC000C8
:1034400000000000000020820040F020FFC00000CB
:10345000000000000020820040F020FFC0000000BB
:10346000000000004104004060207F800000000058
:103470000000008208005E07A07F800000000000BE
:1034800000010410005F0FA0FFC00000000000005A
:10349000010410004F0F20FFC000000000000000DA
:1034A000820800470E20FFC000000000000000411D
:1034B0000400630C603F00000000000000000000FA
:1034C000007000E01E0000000000000001FFFF800F
:1034D0007FFFE00C0000000000000001FFFF800003
:1034E0000000000000000000000F000000000000CD
:1034F000000F000000000000000F000000000000AE
:10350000000F000000000000000F0000000000009D
:10351000000F000000000000000F0000000000008D
:10352000000F000000000000000F0000000000007D
:10353000000F000000000000000F0000000000006D
:10354000000F000000000000000F0000000000005D
:10355000000F000000000000000F0000000000004D
:10356000000F000000000000000F0000000000003D
:10357000000F000000000000000F0000000000002D
:10358000000F0FFFFFFFFFFFFFEF30000000000004
:103590007FFF6000000000001FFF400000000000EF
:1035A0000FFF4000000001800FFF83EFC000018C7F
:1035B00007FF87FFE000018C03FF86386000018071
:1035C00001FF861863E0F98C7CFF861867F1FD8C9B
:1035D000FE7F86186E318D8CC63F86186C398D8CB7
:1035E000C71F86186C19818CC71F86186C19818CAF
:1035F000C71F86186F9F81CDC71F061867DF80EF32
:10360000C71F4418619F002FC22F40000000000018
:10361000002F200000000000004F1FFFFFFFFFFFF2
:10362000FF8F000000000000000F000000000000FD
:10363000000F000000000000000F0000000000006C
:10364000000F000000000000000F0000000000005C
:10365000000F000000000000000F0000000000004C
:10366000000F000000000000000F0000000000003C
:10367000000F000000000000000F0000000000002C
:10368000000F000000000000000F0000000000001C
:10369000000F000000000000000F0000000000000C
:1036A000000F000000000000000F000000000000FC
:1036B000000F000000000000000F000000000000EC
:1036C000000F0000000000000000000000000000EB
:1036D00000000000000000000000000000000000EA
:1036E00000000000000000000000000000000000DA
:1036F00000000000000000000000000000000000CA
:1037000000000000000000000000000000000000B9
:1037100000000000000000000000000000000000A9
:103720000A00207A3A200020793A200020783A20B6
:103730000000091200FC0A01E803D720FFFD0EFD7E
:103740000BFD00000009000E010B0B090400808036
:10375000808080808000008080040404090307903A
:10376000909090080A0A090000242424FF2424FFD2
:10377000242424070B0B0901FF107C92905038146D
:1037800012927C10070A0A09010042A4A4481010F2
:10379000244A4A84070A0A090100609090906062F6
:1037A0009488946201040409040780808080030CDB
:1037B0000C0903FF204040808080808080404020B2
:1037C000030C0C0903FF80404020202020202040D3
:1037D00040800707070901031092543854921007DC
:1037E0000707090101101010FE101010020404094F
:1037F00004FEC0C04080070101090104FE0202026C
:10380000090400C0C0070A0A0901000204040810E4
:103810001020404080070A0A090100384482828251
:103820008282824438070A0A090100103050901041
:1038300010101010FE070A0A090100384482020421
:1038400008102040FE070A0A090100FE02040818B9
:103850000402028478070A0A090100040C142444B3
:1038600084FE040404070A0A090100FE808080F82F
:103870000402028478070A0A0901003C408080B8EB
:10388000C482824438070A0A090100FE02040408BF
:103890000810101010070A0A090100384482443841
:1038A0004482824438070A0A090100384482824669
:1038B0003A02020478020707090400C0C0000000B1
:1038C000C0C00209090904FEC0C0000000C0C04019
:1038D00080050909090200081020408040201008D6
:1038E000070404090102FE0000FE0509090902009F
:1038F000804020100810204080070A0A0901003883
:10390000448202040810100010070A0A0901003856
:10391000449AAAAAAAAA9C403C070A0A09010010D4
:10392000282828447C44828282070A0A090100F878
:10393000848284F884828284F8070A0A0901003CA0
:1039400042808080808080423C070A0A090100F89A
:103950008482828282828284F8070A0A090100FE38
:10396000808080F880808080FE070A0A090100FEBE
:10397000808080F88080808080070A0A09010038F2
:10398000448280808E82824438070A0A09010082BC
:10399000828282FE8282828282050A0A090200F8FD
:1039A0002020202020202020F8070A0A0901003EBC
:1039B000080808080808888870070A0A09010082B0
:1039C000848890A0D088848282070A0A0901008036
:1039D0008080808080808080FE070A0A0901008242
:1039E00082C6AA928282828282070A0A0901008222
:1039F00082C2A2928A86828282070A0A0901007C18
:103A000082828282828282827C070A0A090100F80D
:103A100084828284F880808080080B0B0901FF3843
:103A20004482828282828A443A01070A0A0901009A
:103A3000F884828284F890888482070A0A09010047
:103A40007C8280807C020202827C070A0A090100D3
:103A5000FE101010101010101010070A0A090100B3
:103A600082828282828282824438070A0A090100A5
:103A700082828244444428282810070A0A09010047
:103A80008282828292929292AA44070A0A090100D3
:103A900082824428101028448282070A0A09010001
:103AA00082824428101010101010070A0A09010021
:103AB000FE0204081020408080FE040C0C0903FF65
:103AC000F080808080808080808080F0070A0A09F2
:103AD000010080404020101008040402040C0C096E
:103AE00002FFF010101010101010101010F007044A
:103AF00004090106102844820801010900FFFF03A0
:103B0000030309030A8040200707070901007C021C
:103B1000027E82867A070A0A090100808080BCC280
:103B2000828282C2BC0707070901007C82808080F4
:103B3000827C070A0A0901000202027A86828282D6
:103B4000867A0707070901007C8282FE80827C0753
:103B50000A0A0901001C22222020F8202020200728
:103B60000A0A0901FD7A84848478807C82827C0739
:103B70000A0A090100808080BCC28282828282059A
:103B80000A0A090200600000E02020202020F80539
:103B90000D0D0902FD1800003808080808080888FB
:103BA0008870070A0A090100808080848890B0C864
:103BB0008482050A0A090200E0202020202020201B
:103BC00020F8070707090100EC929292929282076F
:103BD0000707090100BCC2828282828207070709A7
:103BE00001007C82828282827C070A0A0901FDB878
:103BF000C4828282C4B8808080070A0A0901FD3A23
:103C000046828282463A0202020707070901009CA7
:103C10006242404040400707070901007C82807CE7
:103C200002827C0709090901002020FC20202020B5
:103C3000221C0707070901008282828282867A0796
:103C40000707090100828244442828100707070952
:103C500001008282929292AA44070707090100821A
:103C6000442810284482070A0A0901FD42422424FC
:103C7000241818109060070707090100FE040810B7
:103C80002040FE060B0B0902001C20202020C02033
:103C90002020201C010C0C0904FF80808080808083
:103CA000808080808080060B0B090100E0101010DE
:103CB000100C10101010E007030309010762928C2A
:103CC000FFFFFFFFFFFFFFFFFFFFFFFFFFFFFFFF04
:103CD000FFFFFFFFFFFFFFFFFFFFFFFFFFFFFFFFF4
:103CE000FF00000009000E010B0B0904008080009A
:103CF00000808080808080800608080901000878A4
:103D00009490A0A47840070A0A0901001C222020F0
:103D1000F8202060A25C070606090103827C444467
:103D20007C82070A0A090100828244287C107C10E8
:103D30001010010B0B0904FF8080808080008080C0
:103D4000808080040B0B0902FF609080609090904F
:103D50006010906003020209030BA0A00809090982
:103D600000013C4299A5A1A599423C05070709011C
:103D700003609070907800F8070808090101122488
:103D8000489090482412060404090102FC0404042B
:103D9000050101090204F80809090900013C42B9BA
:103DA000A5BDA9A5423C060101090109FC040404C2
:103DB00009030660909060070909090101101010BD
:103DC000FE10101000FE0406060901046090106049
:103DD00080F004060609010460902010906003033F
:103DE0000309030A2040800709090901FE82828233
:103DF0008282C6BA8080070A0A0901007E8A8A8AFE
:103E00007A0A0A0A0A0A020202090404C0C0040368
:103E1000030902FD20906003060609010440C0402A
:103E20004040E00506060901047088887000F80724
:103E300008080901019048241212244890070A0A30
:103E400009010040C0404042E60A121A06070A0A69
:103E500009010040C040404CF2020C101E070A0A43
:103E60000901006090201092660A121A06070A0AD9
:103E70000901001000101020408082827C070E0E85
:103E80000901002010080010282828447C44828260
:103E900082070E0E0901000810200010282828446F
:103EA0007C44828282070E0E090100102844001013
:103EB000282828447C44828282070D0D09010034A1
:103EC000580010282828447C44828282070D0D095E
:103ED000010028280010282828447C448282820778
:103EE0000E0E0901001028281010282828447C44B0
:103EF000828282070A0A0901001E2828284E784873
:103F000088888E070D0D0901FD3C428080808080ED
:103F100080423C082418070E0E09010020100800FA
:103F2000FE808080F880808080FE070E0E090100F0
:103F300008102000FE808080F880808080FE070EC0
:103F40000E09010010284400FE808080F8808080E7
:103F500080FE070D0D090100282800FE808080F8F2
:103F600080808080FE050E0E09020040201000F8BF
:103F70002020202020202020F8050E0E090200100D
:103F8000204000F82020202020202020F8050E0EC0
:103F900009020020508800F8202020202020202026
:103FA000F8050D0D090200505000F82020202020B7
:103FB000202020F8070A0A09010078444242F24210
:103FC00042424478070D0D0901003458008282C234
:103FD000A2928A86828282070E0E090100201008B2
:103FE000007C82828282828282827C070E0E09019C
:103FF00000081020007C82828282828282827C077A
:104000000E0E090100102844007C82828282828286
:1040100082827C070D0D0901003458007C82828267
:1040200082828282827C070D0D0901002828007C93
:1040300082828282828282827C0707070901018252
:10404000442810284482070C0C0901FF027C868A50
:104050008A9292A2A2C27C80070E0E090100201053
:10406000080082828282828282824438070E0E0990
:10407000010008102000828282828282828244387B
:10408000070E0E090100102844008282828282827B
:1040900082824438070D0D0901002828008282829F
:1040A00082828282824438070E0E090100081020A5
:1040B0000082824428101010101010070A0A09010B
:1040C000008080FC828282FC808080060A0A0901CE
:1040D0000038444448D04844444458070B0B090175
:1040E00000201008007C02027E82867A070B0B09F2
:1040F0000100081020007C02027E82867A070B0BEA
:10410000090100102844007C02027E82867A070A98
:104110000A0901003458007C02027E82867A070A6E
:104120000A0901002828007C02027E82867A070C98
:104130000C09010010282810007C02027E82867A79
:104140000707070901006C12127E90926C070A0A99
:104150000901FD7C82808080827C104830070B0B37
:10416000090100201008007C8282FE80827C070BFF
:104170000B090100081020007C8282FE80827C07EF
:104180000B0B090100102844007C8282FE80827C97
:10419000070A0A0901002828007C8282FE80827CAE
:1041A000050C0C0902008040200000E020202020A7
:1041B00020F8050C0C0902001020400000E020202F
:1041C000202020F8050C0C0902002050880000E097
:1041D0002020202020F8050B0B0902005050000081
:1041E000E02020202020F8070B0B09010048305068
:1041F000083C448282824438070A0A090100345884
:1042000000BCC28282828282070B0B09010020104F
:1042100008007C82828282827C070B0B09010008E5
:104220001020007C82828282827C070B0B090100B5
:10423000102844007C82828282827C070A0A09015B
:10424000003458007C82828282827C070A0A09013B
:10425000002828007C82828282827C070909090169
:104260000010381000FE001038100709090901FF7E
:10427000027C8A8A92A2A27C80070B0B0901004073
:104280002010008282828282867A070B0B0901004D
:10429000081020008282828282867A070B0B090135
:1042A00000102844008282828282867A070A0A09E4
:1042B00001002828008282828282867A070E0E09F7
:1042C00001FD0408100042422424241818109060B4
:1042D000070B0B0901FE8080B8C4828282C4B880BB
:1042E00080070D0D0901FD242400424224242418D6
:1042F0001810906001050800FF060121023520FF1B
:10430000FF07FF06FF0900502216568080808000BC
:1043100080153353A0A0A00257575050F850F850C2
:10432000500257572070A07028702013355580A078
:1043300040A02002475740A0A040A0A05025135302
:1043400080808012265640808080804012265680D1
:1043500040404040800245559060F06090025555C5
:104360002020F82020113353604080044151F01187
:10437000335340E0400246561010204080801236F1
:104380005640A0A0A0A04012365640C0404040E099
:104390000246566090106080F0024656F020601091
:1043A00090600246562060A0F02020024656F08021
:1043B000E01090600246566080E0909060024656A1
:1043C000F0102020404002465660906090906002BD
:1043D0004656609090701060122555C0C000C0C055
:1043E0001136566060006040801236562040808052
:1043F0004020034353F000F0123656804020204006
:104400008012365640A0204000400158583048984D
:10441000A8A8904030024656609090F090900246D6
:1044200056E090E09090E002465660908080906068
:10443000024656E090909090E0024656F080E08070
:1044400080F0024656F080E0808080024656609000
:1044500080B090600246569090F090909012365640
:10446000E040404040E002465670202020A040023C
:10447000465690A0C0A0A0900246568080808080C2
:10448000F002465690F0F090909002465690D0F090
:10449000B0B090024656609090909060024656E010
:1044A0009090E08080014757609090D0B0601002FB
:1044B0004656E09090E090900246566090402090E2
:1044C00060123656E0404040404002465690909080
:1044D0009090600246569090909060600246569090
:1044E0009090F0F090024656909060609090025646
:1044F00056888850202020024656F010204080F038
:10450000123656E080808080E0024656808040204F
:104510001010123656E020202020E016325240A023
:10452000014151F016225280400244547090907024
:104530000246568080E09090E012345460808060A3
:1045400002465610107090907002445460B0C060E3
:10455000024656205040E0404001455560907010A2
:10456000600246568080E09090901236564000C01F
:104570004040E01137572000202020A0400246563E
:10458000808090E09090123656C040404040E0025B
:104590005454D0A8A8A8024454E0909090024454E7
:1045A00060909060014555E090E080800145557035
:1045B00090701010024454A0D0808012345460C017
:1045C00020C00246564040E04050200244549090A3
:1045D0009070123454A0A0A04002545488A8A8504F
:1045E0000244549060609001455590907090600234
:1045F0004454F02040F0024757304020C020403063
:10460000221656808080808080024757C02040302C
:104610004020C006425250A0FFFFFFFFFFFFFFFFF8
:10462000FFFFFFFFFFFFFFFFFFFFFFFFFFFFFFFF9A
:10463000FFFFFFFFFFFFFFFFFF090050221656801C
:1046400000808080800146562070A0A07020024625
:10465000562050E04050A002555588705070880296
:1046600056568850F820F820221757808080008006
:1046700080800247577080E0907010E0173151A0A1
:1046800002565670A8C8C8A87014355560A06000BE
:10469000E003435350A050123353E0202014315113
:1046A000E002565670E8D8E8D870173151E015335B
:1046B0005340A04012355540E04000E014355540CD
:1046C000A02040E0143555C020C020C01622524022
:1046D00080014555909090E08002565678E8E86851
:1046E000282824115180112252408014355540C091
:1046F0004040E014355540A04000E0034353A05033
:10470000A0024757808080A060F020024757808039
:10471000A0D010207002475780408060A0F0201287
:10472000365640004080A04002475740206090F03D
:10473000909002475720406090F090900247576059
:10474000906090F0909002475750A06090F0909049
:1047500002475790006090F0909002475760906039
:1047600090F0909002465670A0A0F0A0B00147577C
:10477000609080809060400247574020F080E08049
:10478000F00247572040F080E080F00247576090E9
:10479000F080E080F00247579000F080E080F01257
:1047A00037578040E0404040E01237572040E0401B
:1047B0004040E012375740A0E0404040E0123757F9
:1047C000A000E0404040E00256567048E84848707B
:1047D00002475750A090D0B09090024757402060B9
:1047E0009090906002475720406090909060024700
:1047F000576090609090906002475750A0609090F2
:10480000906002475790006090909060123353A0E0
:1048100040A002465670B0B0D0D0E00247574020CA
:104820009090909060024757204090909090600246
:1048300047576090909090906002475790009090FA
:104840009090600257571020885020202002465632
:1048500080E09090E0800246566090A0A090A00278
:1048600047574020007090907002475720400070DA
:1048700090907002475720500070909070024757F8
:1048800050A000709090700246565000709090704A
:1048900002475760906070909070025454F068B076
:1048A0007811355560808060400247574020006095
:1048B000B0C06002475720400060B0C06002475758
:1048C00060900060B0C060024656500060B0C060AA
:1048D000123757804000C04040E012375720400058
:1048E000C04040E012375740A000C04040E01236C0
:1048F00056A000C04040E0024757A040A010709072
:104900006002475750A000E0909090024757402027
:1049100000609090600247572040006090906002D5
:1049200047576090006090906002475750A0006029
:10493000909060024656900060909060123555400D
:1049400000E0004002445470B0D0E00247574020DD
:104950000090909070024757204000909090700215
:10496000475760900090909070024656900090904B
:104970009070014858204000909070906001475717
:104980008080E090E0808001475790009090709088
:104990006000000A0B02090C0D0E08070304010059
:1049A0000000000000000000000000000000000007
:1049B00000000000000000000000000000121110C4
:1049C00000000000000000000000000000000000E7
:1049D0000000000000000001021020200808102044
:1049E000401020408002010201080402010102047B
:1049F000081020408080402010080402018004023A
:104A00000180402010080402010804020101020490
:104A10000810204080010204081020408005050590
:104A200005070508080808020202020A0A08080425
:104A30000404040101010101010101030303030353
:104A4000030303040707070C0C0C0C0C0C0C0C02E2
:104A500002020206060606060606060B0B0B0B0BE9
:104A60000B0B0B000020002300260029002C002F38
:104A700000320000010000030106010901000022CC
:104A800000250028002B002E003100340002010018
:104A900000050108010B0100002100240027002A65
:104AA000002D003000330001010000040107010A5D
:104AB00001024E414E494E495459494E46CDCCCC47
:104AC0003D0AD7233C17B7D13877CC2B329595E6E2
:104AD000241FB14F0A000020410000C84200401CC2
:104AE0004620BCBE4CCA1B0E5AAEC59D7400A463C2
:104AF000CB00A86311241FBECFEFD1E2DEBFCDBF34
:104B000000E00CBF15E0A0E0B2E0E4E6F7E402E06C
:104B10000BBF02C007900D92A234B107D9F725E16F
:104B2000A2E4B5E001C01D92A833B207E1F71AE490
:104B3000C2EFDAE400E006C022970109FE010BBFD4
:104B40000F942E1CCE3ED10780E00807A9F70F94E2
:104B500012170D94A1230C940000EF92FF920F9373
:104B60001F93CF93DF931F92CDB7DEB78C017B01EC
:104B7000460FF70161917F01F8018081918149839E
:104B80000F94EA22F80180819181019691838083BC
:104B900049814E11EECF0F90DF91CF911F910F9170
:104BA000FF90EF900895EF92FF920F931F93CF9392
:104BB000DF931F92CDB7DEB78C017B01460FF80162
:104BC0008081918149830F94E222F70181937F01D3
:104BD000F8018081918101969183808349814E11F2
:104BE000EECF0F90DF91CF911F910F91FF90EF903B
:104BF00008950F931F93CF93DF93CDB7DEB72A9716
:104C00000FB6F894DEBF0FBECDBF80E390E3A0E304
:104C1000B0E08D839E83AF83B88704E610E01A87E7
:104C2000098744E0BE016B5F7F4FCE01099695DF97
:104C300040E16DEA71E1CE0109968FDF40E16DEB55
:104C400071E1CE01099689DF40E16DE971E1CE01A4
:104C5000099683DF44E065E971E1CE0109967DDFC5
:104C600044E061E971E1CE01099677DF44E069E94A
:104C700071E1CE01099671DF44E061E871E1CE0196
:104C800009966BDF44E06DEC71E1CE01099665DFBA
:104C900044E06DE871E1CE0109965FDF44E069E828
:104CA00071E1CE01099659DF44E065E871E1CE017A
:104CB000099653DF4CE065EB77E0CE0109964DDFB6
:104CC00042E06BEF74E1CE01099647DF42E069EF05
:104CD00074E1CE01099641DF42E067EF74E1CE0155
:104CE00009963BDF42E065EF74E1CE01099635DFBE
:104CF00042E063EF74E1CE0109962FDF42E061EFFD
:104D000074E1CE01099629DF44E062EA77E0CE0142
:104D1000099623DF44E066E872E0CE0109961DDFC4
:104D200044E062E872E0CE01099617DF44E06EE7E6
:104D300072E0CE01099611DF42E06EEE72E1CE0123
:104D400009960BDF41E061ED77E0CE01099605DFC2
:104D500044E061E272E0CE010996FFDE86E591E370
:104D6000A3E3B0E089839A83AB83BC831A87098766
:104D700044E0BE016F5F7F4FCE010996EEDEE1E3B6
:104D8000FCE08491882341F09091C00095FFFCCF16
:104D90008093C6003196F5CFE6E3F4E08491882352
:104DA00041F09091C00095FFFCCF8093C6003196F2
:104DB000F5CF8091C00085FFFCCF8AE08093C600CC
:104DC0002A960FB6F894DEBF0FBECDBFDF91CF910C
:104DD0001F910F910895CF93DF93C1E3DCE0FE01B3
:104DE0008491882341F09091C00095FFFCCF80937F
:104DF000C6003196F5CFE6E2F4E08491882341F0D5
:104E00009091C00095FFFCCF8093C6003196F5CFFE
:104E10008091C00085FFFCCF8AE08093C600FE0130
:104E20008491E1E3FCE0882349F09091C00095FF74
:104E3000FCCF8093C60031968491F5CF4091AD119F
:104E40005091AE116091AF117091B0118EE194E06C
:104E50000E944E324091B1115091B2116091B31144
:104E60007091B4118BE194E00E944E324091B511E3
:104E70005091B6116091B7117091B81188E194E02A
:104E80000E944E324091B9115091BA116091BB11FC
:104E90007091BC1185E194E00E944E328091C00077
:104EA00085FFFCCF8AE08093C600FE018491E1E398
:104EB000FCE0882349F09091C00095FFFCCF8093DF
:104EC000C60031968491F5CFEBEFF3E0849188230F
:104ED00041F09091C00095FFFCCF8093C6003196C1
:104EE000F5CF8091C00085FFFCCF8AE08093C6009B
:104EF000FE018491E1E3FCE0882349F09091C00039
:104F000095FFFCCF8093C60031968491F5CF4091F8
:104F1000BD115091BE116091BF117091C01182EF0F
:104F200093E00E944E324091C1115091C2116091A4
:104F3000C3117091C4118FEE93E00E944E324091E4
:104F4000C5115091C6116091C7117091C8118CEEB6
:104F500093E00E944E324091C9115091CA11609164
:104F6000CB117091CC1189EE93E00E944E3280916A
:104F7000C00085FFFCCF8AE08093C600FE018491CB
:104F8000E1E3FCE0882349F09091C00095FFFCCF5D
:104F90008093C60031968491F5CFEBECF3E08491D9
:104FA000882341F09091C00095FFFCCF8093C6000C
:104FB0003196F5CF8091C00085FFFCCF8AE08093C9
:104FC000C600FE018491E1E3FCE0882349F0909162
:104FD000C00095FFFCCF8093C60031968491F5CF39
:104FE00040919D1150919E1160919F117091A0115F
:104FF00082EC93E00E9470324091A1115091A21175
:105000006091A3117091A4118FEB93E00E94703214
:105010004091A5115091A6116091A7117091A8110E
:105020008CEB93E00E9470324091A9115091AA112B
:105030006091AB117091AC1189EB93E00E947032DA
:105040008091C00085FFFCCF8AE08093C600FE01FE
:105050008491E1E3FCE0882349F09091C00095FF42
:10506000FCCF8093C60031968491F5CFE4E8F3E05D
:105070008491882341F09091C00095FFFCCF8093EC
:10508000C6003196F5CF8091C00085FFFCCF8AE045
:105090008093C600FE018491E1E3FCE0882349F09F
:1050A0009091C00095FFFCCF8093C600319684910B
:1050B000F5CF409195115091961160919711709193
:1050C00098118BE793E00E944E32409191115091DC
:1050D0009211609193117091941188E793E00E946E
:1050E0004E328091C00085FFFCCF8AE08093C600DD
:1050F000FE018491E1E3FCE0882349F09091C00037
:1051000095FFFCCF8093C60031968491F5CFE5ECF6
:10511000F2E08491882341F09091C00095FFFCCF8C
:105120008093C6003196F5CF8091C00085FFFCCFFB
:105130008AE08093C600FE018491E1E3FCE08823CD
:1051400049F09091C00095FFFCCF8093C600319646
:105150008491F5CF4091991150919A1160919B11D2
:1051600070919C118CEB92E00E944E324091811123
:1051700050918211609183117091841189EB92E0BA
:105180000E944E324091CD115091CE116091CF11BD
:105190007091D01186EB92E00E94703240918D1197
:1051A00050918E1160918F117091901183EB92E06C
:1051B0000E944E324091891150918A1160918B1159
:1051C00070918C1180EB92E00E944E3240918511DB
:1051D0005091861160918711709188118DEA92E04B
:1051E0000E944E328091C00085FFFCCF8AE0809300
:1051F000C600FE018491E1E3FCE0882349F0909130
:10520000C00095FFFCCF8093C60031968491F5CF06
:10521000EBE9F2E08491882341F09091C00095FF82
:10522000FCCF8093C6003196F5CF8091C00085FFFA
:10523000FCCF8AE08093C600FE018491E1E3FCE0AC
:10524000882349F09091C00095FFFCCF8093C60061
:1052500031968491F5CF4091B5075091B607609192
:10526000B7077091B80782E992E00E944E324091F0
:10527000B9075091BA076091BB077091BC078FE8DE
:1052800092E00E944E324091BD075091BE0760915E
:10529000BF077091C0078CE892E00E944E32809167
:1052A000C00085FFFCCF8AE08093C600FE01849198
:1052B000E1E3FCE0882349F09091C00095FFFCCF2A
:1052C0008093C60031968491F5CFEEE7F2E08491A9
:1052D000882341F09091C00095FFFCCF8093C600D9
:1052E0003196F5CF8091C00085FFFCCF8AE0809396
:1052F000C600FE01C491E1E3FCE0CC2349F08091BB
:10530000C00085FFFCCFC093C6003196C491F5CF95
:1053100040918602509187026091880270918902C3
:1053200084E792E00E944E32609182027091830283
:1053300080918402909185020E94E3B9AB01BC0187
:1053400081E792E00E944E3260917E0270917F026E
:1053500080918002909181020E94EFB9AB01BC0163
:105360008EE692E00E944E328091C00085FFFCCF15
:105370008AE08093C600DF91CF910895AF92BF92EB
:10538000CF92DF92EF92FF920F931F93CF93DF9311
:10539000CDB7DEB7E0970FB6F894DEBF0FBECDBF36
:1053A00080E1E1EBF2E0DE01919601900D928A95A9
:1053B000E1F780E1E1ECF2E0DE01519601900D921F
:1053C0008A95E1F780E1E1EDF2E0DE0111960190CE
:1053D0000D928A95E1F76E0181E2C80ED11C8DEA2B
:1053E000E82E81E1F82E8E010F5E1F4F6DEB71E10B
:1053F000AE014F5F5F4F9DE9A92E91E1B92E20E0EC
:1054000030E0F60181919191A191B1916F01F70185
:1054100081939193A193B1937F01F801819191912F
:10542000A191B1918F01FB0181939193A193B193CC
:10543000BF01FA0181919191A191B191AF01F50163
:1054400081939193A193B1935F012F5F3F4F2430DC
:105450003105B9F60E94AE9380E090E0AFE2B4E48B
:105460008093951190939611A0939711B0939811F2
:105470008093911190939211A0939311B0939411F2
:105480001092991110929A1110929B1110929C11E6
:1054900080E29EE4A0E0B0E08093CD119093CE1125
:1054A000A093CF11B093D01110928111109282115C
:1054B000109283111092841180E090E0A0E7B1E493
:1054C00080938D1190938E11A0938F11B0939011B2
:1054D0008DEC9CECACECBEE38093891190938A1127
:1054E000A0938B11B0938C1180E090E0A0EEB0E41B
:1054F0008093851190938611A0938711B0938811A2
:105500001092BD071092BE071092BF071092C007FD
:105510001092B9071092BA071092BB071092BC07FD
:105520001092B5071092B6071092B7071092B807FD
:1055300084EB90E09093FC148093FB1482E390E062
:105540009093FA148093F9148FEF90E09093F814ED
:105550008093F71420EF30E03093F6142093F51485
:105560002AE530E03093F4142093F3149093F2146E
:105570008093F1141092A2071092A3071092A4072F
:105580001092A50780E290E09093EF128093EE12C4
:105590008AE999E9A1EBB1E48093860290938702AE
:1055A000A0938802B093890261E77DE38AE89FE3D4
:1055B0000E94DDB96093820270938302809384021B
:1055C0009093850260E070E084EE92E40E94E9B975
:1055D00060937E0270937F02809380029093810299
:1055E0000E9488B080E090E0A0E8BFE380937A0258
:1055F00090937B02A0937C02B0937D021092D1071E
:1056000080E090E0A0E4B0E4809321029093220235
:10561000A0932302B09324020E94313EE1E3FCE018
:105620008491882341F09091C00095FFFCCF809336
:10563000C6003196F5CFE2E3F2E08491882341F091
:105640009091C00095FFFCCF8093C6003196F5CFB6
:105650008091C00085FFFCCF8AE08093C600E09671
:105660000FB6F894DEBF0FBECDBFDF91CF911F9173
:105670000F91FF90EF90DF90CF90BF90AF90089583
:10568000CF93DF93CDB7DEB72A970FB6F894DEBF7E
:105690000FBECDBF84E690E09A87898786E591E3C7
:1056A000A3E3B0E089839A83AB83BC8344E0BE016B
:1056B0006B5F7F4FCE01099676DA43E050E0BE0182
:1056C0006B5F7F4FCE0101960F94A920892B09F0C3
:1056D000BEC040E16DEA71E1CE01099664DA40E1B5
:1056E0006DEB71E1CE0109965EDA40E16DE971E1A1
:1056F000CE01099658DA0E94AE9344E065E971E163
:10570000CE01099650DA44E061E971E1CE010996D3
:105710004ADA44E069E971E1CE01099644DA44E0ED
:1057200061E871E1CE0109963EDA44E06DEC71E189
:10573000CE01099638DA44E06DE871E1CE010996B0
:1057400032DA44E069E871E1CE0109962CDA44E0EE
:1057500065E871E1CE01099626DA4CE065EB77E069
:10576000CE01099620DA42E06BEF74E1CE01099692
:105770001ADA42E069EF74E1CE01099614DA42E0E8
:1057800067EF74E1CE0109960EDA42E065EF74E14D
:10579000CE01099608DA42E063EF74E1CE01099682
:1057A00002DA42E061EF74E1CE010996FCD944E0EF
:1057B00062EA77E0CE010996F6D944E066E872E045
:1057C000CE010996F0D944E062E872E0CE01099674
:1057D000EAD944E06EE772E0CE010996E4D942E0EE
:1057E0006EEE72E1CE010996DED941E061ED77E01F
:1057F000CE010996D8D944E061E272E0CE01099663
:10580000D2D90E94313E0E9488B0E1E3FCE084914D
:10581000882341F09091C00095FFFCCF8093C60093
:105820003196F5CFE4E5F2E08491882341F0909140
:10583000C00095FFFCCF8093C6003196F5CF8091D4
:10584000C00085FFFCCF8AE08093C60001C096DDD2
:10585000C2DA2A960FB6F894DEBF0FBECDBFDF9135
:10586000CF9108951F920F920FB60F9211240BB68D
:105870000F922F933F934F935F936F938F939F93C9
:10588000EF93FF936091C6002091C3053091C4054A
:10589000C90101968F7799274091C5055091C6059A
:1058A0008417950741F0F901ED5BFA4F60839093FF
:1058B000C4058093C305FF91EF919F918F916F91E4
:1058C0005F914F913F912F910F900BBE0F900FBEA4
:1058D0000F901F9018959A01AB01211581EE3807A2
:1058E0004105510549F182E08093C00060E079E014
:1058F0008DE390E00F94ED1B2150310941095109CE
:10590000CA01B90122E030E040E050E00F94ED1B05
:105910003093C5002093C4008091C10080618093C2
:10592000C1008091C10088608093C1008091C10056
:1059300080688093C10008951092C00020E130E09B
:10594000E7CF2091C5053091C6058091C3059091A0
:10595000C4058217930771F0F901ED5BFA4F80815E
:105960002F5F3F4F2F7733273093C6052093C50510
:1059700090E008958FEF9FEF08958091C505909175
:10598000C6059093C4058093C30508954F925F9216
:105990006F927F928F929F92AF92BF92CF92DF923F
:1059A000EF92FF920F931F93CF93DF93CDB7DEB7A4
:1059B000A0970FB6F894DEBF0FBECDBF5C014115B6
:1059C000510561057105E9F420E030E040E350E065
:1059D00060E070E0A0960FB6F894DEBF0FBECDBFBA
:1059E000DF91CF911F910F91FF90EF90DF90CF90BB
:1059F000BF90AF909F908F907F906F905F904F90EF
:105A00005BC08E010F5F1F4FC12CD12C7601480166
:105A1000422E512C612C712C8FEFC81AD80AE80A3B
:105A2000F80ACB01BA01A30192010F94CB1BCA0162
:105A3000F80161938F01A901BC0141155105610570
:105A4000710551F7F1E0CF1AD108E108F108F4012E
:105A5000EC0DFD1D80818A3010F440E301C047E366
:105A6000480F552747FD5095652F752F20E030E0F2
:105A7000C50122D081E0C81AD108E108F108EFEF92
:105A8000CE16DE06EE06FE0611F7A0960FB6F894C7
:105A9000DEBF0FBECDBFDF91CF911F910F91FF9061
:105AA000EF90DF90CF90BF90AF909F908F907F90BE
:105AB0006F905F904F9008952115310539F48091D2
:105AC000C00085FFFCCF4093C60008952A30310501
:105AD00009F41CC05BCFCF93DF93EC0120E030E0F2
