:100000000C94F00E0C94210F0C94210F0C94210FE2
:100010000C94210F0C94210F0C94210F0C94210FA0
:100020000C94210F0C94210F0C94210F0C94210F90
:100030000C94210F0C9470BF0C94210F0C94210F81
:100040000C94210F0C94B36A0C94210F0C94210F83
:100050000C94210F0C94210F0C94C77C0C942BB999
:100060000C94210F0C948D150C94210F0C94210FDE
:100070000C94210F0C94210F0C94210F0C94210F40
:100080000C94210F0C94210F0C94210F0C94210F30
:100090000C94210F0C94210F0C94210F0C94210F20
:1000A0000C94210F0C94210F0C94210F0C94210F10
:1000B0000C94210F0C94210F0C94210F0C94210F00
:1000C0000C94210F0C94210F0C94210F0C94210FF0
:1000D0000C94210F0C94210F0C94210F0C94210FE0
:1000E0000C94210F257D347D507D5F7D797D887D49
:1000F000A27DA67DA87DAC7DB47D6CBA71BA76BABE
:1001000080BA8ABA03BB94BA9CBAA4BAAEBAB8BAD7
:10011000C2BAD1BADBBA03BBE5BAEFBAF9BA25BBAA
:1001200028BB17BB1BBB21BB5FBB2CBB30BB36BB8B
:100130003ABB3EBB44BB48BB4CBB5FBB52BB56BB90
:100140005ABB084AD73B3BCE016E84BCBFFDC12FD2
:100150003D6C74319ABD56833DDA3D00C77F11BEB8
:10016000D9E4BB4C3E916BAAAABE000000803F05BB
:10017000A84CCDB2D44EB93836A9020C50B99186EC
:1001800088083CA6AAAA2ABE000000803F00486159
:100190007264636F6465642044656661756C742085
:1001A00053657474696E6773204C6F616465640095
:1001B00053746F7265642073657474696E6773201D
:1001C0007265747269657665640020440020490098
:1001D0002020204D33303120500050494420736599
:1001E0007474696E67733A00205A00205900202009
:1001F0004D323036205800486F6D65206F6666734B
:10020000657420286D6D293A00204500205A002091
:10021000580020420020540020204D323035205319
:1002200000416476616E6365642076617269616223
:100230006C65733A20533D4D696E20666565647246
:1002400061746520286D6D2F73292C20543D4D69F4
:100250006E2074726176656C206665656472617487
:100260006520286D6D2F73292C20423D6D696E69C4
:100270006D756D207365676D656E742074696D654D
:1002800020286D73292C20583D6D6178696D756D3E
:10029000205859206A65726B20286D6D2F73292CA8
:1002A00020205A3D6D6178696D756D205A206A6510
:1002B000726B20286D6D2F73292C2020453D6D61B8
:1002C00078696D756D2045206A65726B20286D6DAB
:1002D0002F73290020540020204D32303420530049
:1002E000416363656C65726174696F6E3A20533D5A
:1002F000616363656C65726174696F6E2C20543D37
:100300007265747261637420616363656C657261A8
:1003100074696F6E00204500205A0020590020208B
:100320004D3230312058004D6178696D756D204136
:100330006363656C65726174696F6E20286D6D2FE3
:100340007332293A00204500205A0020590020200D
:100350004D3230332058004D6178696D756D2066DF
:10036000656564726174657320286D6D2F73293A19
:1003700000204500205A0020590020204D3932200D
:10038000580053746570732070657220756E6974BF
:100390003A0053657474696E67732053746F7265A5
:1003A000640053544F505045442E20005072696EE3
:1003B0007465722073746F70706564206475652055
:1003C000746F206572726F72732E20466978207484
:1003D0006865206572726F7220616E642075736546
:1003E000204D39393920746F2072657374617274CD
:1003F0002E202854656D7065726174757265206970
:10040000732072657365742E20536574206974209F
:1004100061667465722072657374617274696E6767
:1004200029004B494C4C45442E20005072696E7493
:1004300065722068616C7465642E206B696C6C2831
:10044000292063616C6C656421006F6B00526573D9
:10045000656E643A20002200556E6B6E6F776E20D9
:10046000636F6D6D616E643A2022004368616E6750
:10047000652066696C616D656E74005A204F666612
:10048000736574203A20007A5F6D61783A20007AB3
:100490005F6D696E3A20005A204F6666736574007E
:1004A0005A204F6666736574206F6B007A5F6D61CA
:1004B000783A20007A5F6D696E3A2000795F6D614D
:1004C000783A2000795F6D696E3A2000785F6D613F
:1004D000783A2000785F6D696E3A2000205A3A0021
:1004E00020593A0020436F756E7420583A2000203E
:1004F000453A00205A3A0020593A00583A004649F5
:10050000524D574152455F4E414D453A4D61726CD7
:10051000696E20312E302E322B20446576656C6F4B
:10052000706D656E742046726F6D204172636869EC
:10053000766520534F555243455F434F44455F55C1
:10054000524C3A68747470733A2F2F6769746875E7
:10055000622E636F6D2F4D61726C696E4669726DAC
:10056000776172652F4D61726C696E2050524F54E5
:100570004F434F4C5F56455253494F4E3A312E3000
:10058000204D414348494E455F545950453A4D65C9
:100590006E64656C2045585452554445525F434F34
:1005A000554E543A3120555549443A303030303068
:1005B0003030302D303030302D303030302D303044
:1005C00030302D3030303030303030303030300A54
:1005D000004D656E64656C204F66662E004D656E3D
:1005E00064656C2072656164792E004265642064E4
:1005F0006F6E652E0020423A0020453A00543A00C2
:100600004265642048656174696E672E00486561C3
:1006100074696E6720646F6E652E0020573A002063
:10062000453A00543A0048656174696E672E2E2E73
:10063000002042403A0020403A00202F003A00209B
:100640005400202F0020423A00202F006F6B2054CE
:100650003A002569206D696E2C2025692073656339
:1006600000456E642066696C65206C697374004295
:100670006567696E2066696C65206C697374004EED
:100680006F206D6F76652E004D656E64656C20720F
:10069000656164792E00526573756D696E672070AF
:1006A00072696E74005761697420666F7220757389
:1006B00065722E2E2E00536C6565702E2E2E002531
:1006C0006920686F757273202569206D696E757475
:1006D000657300446F6E65207072696E74696E6731
:1006E0002066696C650053544F505045442E2000DD
:1006F0005072696E7465722073746F7070656420D7
:1007000064756520746F206572726F72732E204657
:10071000697820746865206572726F7220616E64FA
:1007200020757365204D39393920746F20726573D7
:10073000746172742E202854656D706572617475D1
:1007400072652069732072657365742E2053657419
:1007500020697420616674657220726573746172B9
:1007600074696E6729004E6F204C696E65204E7566
:100770006D626572207769746820636865636B7366
:10078000756D2C204C617374204C696E653A2000A5
:100790004E6F20436865636B73756D20776974686D
:1007A000206C696E65206E756D6265722C204C61DF
:1007B0007374204C696E653A2000636865636B73DF
:1007C000756D206D69736D617463682C204C617365
:1007D00074204C696E653A20004C696E65204E7538
:1007E0006D626572206973206E6F74204C61737442
:1007F000204C696E65204E756D6265722B312C2020
:100800004C617374204C696E653A20004D31313073
:1008100000446F6E6520736176696E672066696C4F
:10082000652E006F6B004D3239002020506C616ED8
:100830006E657242756666657242797465733A20B8
:10084000002046726565204D656D6F72793A200013
:100850004D6179203131203230313600436F6D7077
:10086000696C65643A200028444959452C2053742A
:10087000616E646172642900207C20417574686F28
:10088000723A20004D6179203131203230313620EA
:1008900031383A34343A323900204C61737420557F
:1008A0007064617465643A200020312E302E322B42
:1008B000004D61726C696E0020536F6674776172CF
:1008C0006520526573657400205761746368646FB6
:1008D00067205265736574002042726F776E206FD7
:1008E0007574205265736574002045787465726E66
:1008F000616C20526573657400506F776572557036
:10090000007374617274002200656E717565696EA2
:10091000672022002200656E717565696E6720226E
:1009200000FFFFFF0000A0400000A04000000040CA
:100930000000484300004843000048430000000016
:100940000000000000000000000048430000484391
:10095000000048430000000000000000000000000C
:100960006563686F3A004572726F723A007C3C3E74
:100970005E2B3D3F2F5B5D3B2C2A225C004D3834C3
:1009800020582059205A20450043616E6E6F742014
:10099000656E746572207375626469723A20004DE9
:1009A0003234004D3233202573006175746F256930
:1009B0002E67006572726F722077726974696E6754
:1009C00020746F2066696C65004E6F74205344205C
:1009D0007072696E74696E67002F005344207072E4
:1009E000696E74696E67206279746520002E004418
:1009F000656C6574696F6E206661696C65642C2036
:100A000046696C653A200046696C652064656C65D2
:100A10007465643A002E006F70656E206661696CC3
:100A200065642C2046696C653A20005772697469C8
:100A30006E6720746F2066696C653A20002E006F27
:100A400070656E206661696C65642C2046696C6512
:100A50003A20002E006F70656E206661696C6564D7
:100A60002C2046696C653A200046696C65207365E8
:100A70006C6563746564002053697A653A200046AA
:100A8000696C65206F70656E65643A20002E006F9A
:100A900070656E206661696C65642C2046696C65C2
:100AA0003A20004E6F772066726573682066696C25
:100AB000653A20004E6F7720646F696E6720666923
:100AC0006C653A20002220706F73002220706172E2
:100AD000656E743A2200535542524F5554494E4563
:100AE0002043414C4C207461726765743A22007453
:100AF0007279696E6720746F2063616C6C20737506
:100B0000622D67636F64652066696C657320776921
:100B1000746820746F6F206D616E79206C657665E6
:100B20006C732E204D4158206C6576656C2069737E
:100B30003A0053442063617264206F6B006F7065EC
:100B40006E526F6F74206661696C656400766F6CBD
:100B5000756D652E696E6974206661696C656400E7
:100B6000534420696E6974206661696C0020746F5B
:100B70006F206C6F6E6720657874727573696F6E25
:100B80002070726576656E7465640020636F6C64B6
:100B900020657874727573696F6E20707265766502
:100BA0006E74656400656E6473746F707320686939
:100BB000743A205A00205A3A00656E6473746F705C
:100BC00073206869743A20590020593A00656E64B0
:100BD00073746F7073206869743A20580020583A13
:100BE00000656E6473746F7073206869743A2000D6
:100BF00024F4D43050C38E20C2A24017828B7011CF
:100C0000127A910D816CD90AA861E108C75866076C
:100C1000615143061E4B5D05C145A7041A411104ED
:100C2000093D9803713931034036DB026533910287
:100C3000D4305402802E1D02632CEE01752AC501AA
:100C4000B028A001102781018F2564012B244B01BE
:100C5000E0223401AC211F018D200D01801FFC001A
:100C6000841EED00971DDF00B81CD200E61BC600F5
:100C7000201BBC00641AB200B219A8000A19A00017
:100C80006A189900D117910040178B00B51684009F
:100C900031167E00B31579003A157300C7146F0042
:100CA00058146A00EE1366008813630025135E0073
:100CB000C7125B006C12570015125400C11151008D
:100CC00070114F0021114B00D61049008D104700C4
:100CD0004610440002104200C00F4000800F3E004A
:100CE000420F3C00060F3B00CB0E3800930E37003E
:100CF0005C0E3500270E3400F30D3200C10D3100BB
:100D0000900D3000600D2E00320D2D00050D2C00D1
:100D1000D90C2B00AE0C2900850C29005C0C270097
:100D2000350C27000E0C2600E80B2400C40B240011
:100D3000A00B23007D0B23005A0B2100390B21004F
:100D4000180B2000F80A1F00D90A1E00BB0A1E005B
:100D50009D0A1D00800A1D00630A1C00470A1B0033
:100D60002C0A1B00110A1A00F7091A00DD091900E4
:100D7000C4091900AB091900920917007B09180072
:100D8000630917004C0916003609160020091600E1
:100D90000A091500F5081500E0081400CC08140035
:100DA000B8081400A4081400900813007D0812006D
:100DB0006B0813005808120046081200340811008E
:100DC000230811001208110001081100F00710009B
:100DD000E0071000D0071000C0071000B0070F0098
:100DE000A107100091070E0083070F0074070F0082
:100DF00065070E0057070E0049070E003B070D0060
:100E00002E070E0020070D0013070D0006070D002A
:100E1000F9060C00ED060D00E0060C00D4060C00EF
:100E2000C8060C00BC060C00B0060C00A4060B00A3
:100E300099060C008D060B0082060B0077060B004E
:100E40006C060B0061060A0057060B004C060A00F0
:100E500042060A0038060A002E060A0024060A0086
:100E60001A060A001006090007060A00FD05090017
:100E7000F4050900EB050900E2050900D9050900A0
:100E8000D0050900C7050900BE050900B505080021
:100E9000AD050800A50509009C050800940508009B
:100EA0008C050800840508007C050800740508000E
:100EB0006C050700650508005D050700560508007C
:100EC0004E050700470507004005080038050700E4
:100ED000310507002A050700230507001C05060049
:100EE000160507000F0507000805060002050700A4
:100EF000FB040600F5040700EE040600E804060003
:100F0000E2040700DB040600D5040600CF04060057
:100F1000C9040600C3040600BD040600B7040600A9
:100F2000B1040500AC040600A6040600A0040500F8
:100F30009B04060095040500900406008A04050041
:100F400085040500800406007A0405007504050088
:100F5000700405006B0405006604050061040500CB
:100F60005C04050057040500520405004D0405000B
:100F700048040500430405003E0404003A0405004B
:100F800035040500300404002C0405002704040087
:100F9000230405001E0404001A04040016040500BE
:100FA000110404000D0404000904050004040400F5
:100FB00000040400FC030400F8030400F40304002C
:100FC000F0030400EC030400E8030400E40304005D
:100FD000E0030400DC030400D8030400D40304008D
:100FE000D0030400CC030400C8030300C5030300BE
:100FF00024F404D9201BC40C5C0E9804C4095F02BD
:1010000065077101F405F900FB04B300480487008B
:10101000C10369005803550003034500BE023A00AE
:101020008402310053022A00290225000402200014
:10103000E4011C00C8011900AF0117009801140059
:1010400084011300710110006101100051010E00B4
:1010500043010D0036010B002B010B0020010B009A
:10106000150109000C01090003010800FB0008003C
:10107000F3000800EB000700E4000600DE000600B5
:10108000D8000600D2000600CC000500C70005000D
:10109000C2000500BD000400B9000400B500040052
:1010A000B1000400AD000400A9000400A500030085
:1010B000A20003009F0004009B00030098000300AF
:1010C0009500020093000300900003008D000200D1
:1010D0008B000300880002008600020084000300E9
:1010E000810002007F0002007D0002007B00020000
:1010F000790002007700010076000200740002000F
:1011000072000100710002006F0002006D0001001A
:101110006C0002006A000100690002006700010023
:101120006600010065000100640002006200010029
:1011300061000100600001005F0002005D0001002D
:101140005C0001005B0001005A0001005900010031
:101150005800010057000100560001005500010031
:101160005400010053000000530001005200010030
:1011700051000100500001004F0001004E0000002E
:101180004E0001004D0001004C0001004B0000002A
:101190004B0001004A000100490001004800000026
:1011A0004800010047000100460000004600010021
:1011B000450000004500010044000100430000001C
:1011C0004300010042000000420001004100000015
:1011D00041000100400001003F0000003F0001000D
:1011E0003E0000003E0001003D0000003D00010007
:1011F0003C0000003C0000003C0001003B000000FF
:101200003B0001003A0000003A00010039000000F4
:1012100039000100380000003800000038000100EB
:1012200037000000370001003600000036000000E3
:1012300036000100350000003500000035000100D7
:1012400034000000340000003400010033000000CE
:1012500033000000330001003200000032000000C3
:1012600032000100310000003100000031000100B7
:101270003000000030000000300001002F000000AE
:101280002F0000002F0000002F0001002E000000A2
:101290002E0000002E0001002D0000002D00000097
:1012A0002D0000002D0001002C0000002C0000008B
:1012B0002C0000002C0001002B0000002B0000007F
:1012C0002B0000002B0001002A0000002A00000073
:1012D0002A0000002A000100290000002900000067
:1012E000290000002900000029000100280000005A
:1012F000280000002800000028000000280001004D
:101300002700000027000000270000002700000041
:101310002700010026000000260000002600000033
:101320002600000026000100250000002500000026
:101330002500000025000000250000002500010018
:10134000240000002400000024000000240000000D
:1013500024000100230000002300000023000000FF
:1013600023000000230000002300000023000100F0
:1013700022000000220000002200000022000000E5
:1013800022000000220001002100000021000000D6
:1013900021000000210000002100000021000000C9
:1013A00021000100200000002000000020000000BB
:1013B00020000000200000002000000020000000AD
:1013C000200001001F0000001F0000001F0000009F
:1013D0001F0000001F0000001F0000001F00010090
:1013E0001E0000001E0000001E0000001E00000085
:1013F0004572723A204D415854454D502042454463
:101400000054656D70657261747572652068656100
:1014100074656420626564207377697463686564C9
:10142000206F66662E204D415854454D50207472F1
:1014300069676765726564202121004572723A20F0
:101440004D494E54454D50003A20457874727564AC
:101450006572207377697463686564206F66662EB1
:10146000204D494E54454D5020747269676765722E
:1014700065642021004572723A204D415854454D13
:1014800050003A20457874727564657220737769EC
:101490007463686564206F66662E204D415854451C
:1014A0004D50207472696767657265642021002061
:1014B0002D20496E76616C6964206578747275645C
:1014C0006572206E756D626572202100504944205E
:1014D0004175746F74756E652066696E69736865B1
:1014E00064212050757420746865206C61737420C9
:1014F0004B702C204B6920616E64204B6420636F1D
:101500006E7374616E74732066726F6D2061626FAA
:10151000766520696E746F20436F6E6669677572B9
:101520006174696F6E2E6800504944204175746F74
:1015300074756E65206661696C6564212074696DDF
:10154000656F75740020403A006F6B20543A006F4D
:101550006B20423A00504944204175746F74756E97
:1015600065206661696C6564212054656D706572E3
:10157000617475726520746F6F20686967680020F8
:101580004B643A2000204B693A2000204B703A20EF
:101590000020436C6173736963205049442000202C
:1015A00054753A2000204B753A2000206D61783A3E
:1015B0002000206D696E3A200020643A20002062ED
:1015C0006961733A200070012C0190012701B0017C
:1015D0002201C0011D01F0011801100213013002A7
:1015E0000E016002090190020401C002FF00000325
:1015F000FA004003F5008003F000D003EB00200464
:10160000E6007004E100E004DC004005D700C005FE
:10161000D2004006CD00D006C8008007C3003008C5
:10162000BE00F008B900C009B400B00AAF00B00BAA
:10163000AA00D00CA500000EA000500F9B00C01007
:1016400096005012910000148C00C0158700B0174E
:101650008200B0197D00D01B7800001E730040206E
:101660006E0090226900F024640040275F009029FA
:101670005A00E02B5500102E500020304B00103245
:101680004600E033410090353C0010373700703899
:101690003200A0392D00B03A2800A03B2300603C66
:1016A0001E00103D1900903D1400103E0F00703ECA
:1016B0000A00C03E0500003F0000436172642072D2
:1016C000656D6F766564004361726420696E736551
:1016D00072746564004D33303020533639382050F1
:1016E000323030004D3330302053363539205032CF
:1016F0003030002D2D3A2D2D002D2D2D005344007E
:101700002059000120000120004261627973746554
:101710007070696E672058004261627973746570F9
:1017200070696E67205900426162797374657070E8
:10173000696E67205A004D363030004368616E672D
:10174000652066696C616D656E74004261627973D3
:10175000746570205A004261627973746570205913
:10176000004261627973746570205800466C6F772F
:10177000203000466C6F77203000466C6F77004653
:101780006C6F770046616E2073706565640046611A
:101790006E20737065656400426564004265640094
:1017A0004E6F7A7A6C65004E6F7A7A6C6500537072
:1017B000656564005370656564004D61696E005035
:1017C00072656865617420504C4120426564005028
:1017D00072656865617420504C412031005072651B
:1017E0007061726500507265686561742041425392
:1017F00020426564005072656865617420414253FF
:101800002031005072657061726500580059005AAD
:1018100000457874727564657200457874727564F9
:101820006572004D6F7665205A004D6F76652059C0
:10183000004D6F76652058004D6F766520617869A0
:1018400073004D6F766520302E316D6D004D6F76D3
:101850006520316D6D004D6F76652031306D6D0006
:1018600050726570617265004D6F766520617869B0
:1018700073004D38300053776974636820706F7758
:101880006572206F6E004D3831005377697463685C
:1018900020706F776572206F666600436F6F6C64AF
:1018A0006F776E0050726568656174204142530025
:1018B0005072656865617420504C41005365742016
:1018C000686F6D65206F66667365747300473238A4
:1018D000004175746F20686F6D65004D38340044A9
:1018E000697361626C6520737465707065727300F2
:1018F0004D61696E0053746F7265206D656D6F7216
:10190000790042656400426564004E6F7A7A6C65C6
:10191000004E6F7A7A6C650046616E207370656563
:10192000640046616E2073706565640054656D7077
:10193000657261747572650053746F7265206D65B0
:101940006D6F72790042656400426564004E6F7A83
:101950007A6C65004E6F7A7A6C650046616E207312
:10196000706565640046616E20737065656400543F
:10197000656D706572617475726500507265686539
:1019800061742041425320636F6E66005072656837
:1019900065617420504C4120636F6E66005049446D
:1019A0002D43005049442D43005049442D440050DC
:1019B00049442D44005049442D49005049442D4983
:1019C000005049442D50005049442D500020022021
:1019D0004661637400200220466163740020022087
:1019E0004D6178002002204D6178002002204D6971
:1019F0006E002002204D696E004F6666004F6E201B
:101A0000004F6666004F6E20004175746F74656DFF
:101A1000700046616E2073706565640046616E20DB
:101A200073706565640042656400426564004E6FD2
:101A30007A7A6C65004E6F7A7A6C6500436F6E74CB
:101A4000726F6C004573746570732F6D6D00457314
:101A5000746570732F6D6D005A73746570732F6D9C
:101A60006D005A73746570732F6D6D0059737465D2
:101A700070732F6D6D005973746570732F6D6D00E9
:101A80005873746570732F6D6D005873746570733F
:101A90002F6D6D00412D7265747261637400412D6C
:101AA0007265747261637400416D617820650041F4
:101AB0006D6178206500416D6178207A00416D612B
:101AC00078207A00416D6178207900416D6178203D
:101AD0007900416D6178207800416D61782078004F
:101AE0005654726176206D696E005654726176208C
:101AF0006D696E00566D696E00566D696E00566DAB
:101B00006178206500566D6178206500566D6178BA
:101B1000207A00566D6178207A00566D61782079C0
:101B200000566D6178207900566D617820780056F6
:101B30006D617820780056652D6A65726B00566578
:101B40002D6A65726B00567A2D6A65726B00567A43
:101B50002D6A65726B005678792D6A65726B005636
:101B600078792D6A65726B00416363656C0041632F
:101B700063656C00436F6E74726F6C0046696C2E07
:101B8000204469612E20310046696C2E2044696131
:101B90002E2031004F6666004F6E20004F666600B3
:101BA0004F6E20004520696E206D6D3300436F6ECF
:101BB00074726F6C00526573746F72652066616930
:101BC0006C73616665004C6F6164206D656D6F724A
:101BD000790053746F7265206D656D6F7279004680
:101BE000696C616D656E74004D6F74696F6E005441
:101BF000656D7065726174757265004D61696E0026
:101C00004D383420582059205A2045004D32340098
:101C10004D323320257300052E2E004D61696E0074
:101C20004E6F2053442063617264005072696E7479
:101C30002066726F6D2053440053746F7020707271
:101C4000696E7400526573756D65207072696E748B
:101C5000005061757365207072696E7400436F6E19
:101C600074726F6C00507265706172650054756EAD
:101C70006500496E666F2073637265656E000000D3
:101C80000A0B02090C0D0E080703040100000000F6
:101C90000000000000000000000000000000000044
:101CA0000000000000000000000012111000000001
:101CB0000000000000000000000000000000000024
:101CC0000000000001021020200808102040102011
:101CD00040800201020108040201010204081020F0
:101CE00040808040201008040201800402018040EE
:101CF0002010080402010804020101020408102057
:101D000040800102040810204080050505050705F4
:101D100008080808020202020A0A08080404040467
:101D20000101010101010101030303030303030393
:101D3000040707070C0C0C0C0C0C0C0C0202020222
:101D400006060606060606060B0B0B0B0B0B0B0B0B
:101D5000000020002300260029002C002F00320064
:101D60000001000003010601090100002200250016
:101D700028002B002E003100340002010000050174
:101D800008010B0100002100240027002A002D007B
:101D90003000330001010000040107010A01024E76
:101DA000414E494E495459494E46CDCCCC3D0AD7B7
:101DB000233C17B7D13877CC2B329595E6241FB149
:101DC0004F0A000020410000C84200401C4620BCD1
:101DD000BE4CCA1B0E5AAEC59D74DC3AE0A6E03A72
:101DE00011241FBECFEFD1E2DEBFCDBF00E00CBF9C
:101DF00014E0A0E0B2E0E4E8F6E901E00BBF02C0C5
:101E000007900D92A03BB107D9F722E1A0EBB4E017
:101E100001C01D92AD37B207E1F71DE1CEEDDDE166
:101E200000E006C022970109FE010BBF0E94DDC43D
:101E3000CA3DD10780E00807A9F70E94D0BF0C94E3
:101E400031CB0C940000EF92FF920F931F93CF932E
:101E5000DF931F92CDB7DEB78C017B01460FF701F0
:101E600061917F01F8018081918149830E947ACA42
:101E7000F8018081918101969183808349814E117F
:101E8000EECF0F90DF91CF911F910F91FF90EF90C8
:101E90000895EF92FF920F931F93CF93DF931F92BA
:101EA000CDB7DEB78C017B01460FF80180819181AF
:101EB00049830E9472CAF70181937F01F8018081F2
:101EC000918101969183808349814E11EECF0F90CD
:101ED000DF91CF911F910F91FF90EF9008950F9395
:101EE0001F93CF93DF93CDB7DEB72C970FB6F8943F
:101EF000DEBF0FBECDBF80E390E3A0E3B0E08D83F3
:101F00009E83AF83B88704E610E01C870B8744E00C
:101F1000BE016B5F7F4FCE010B9695DF40E16BE119
:101F200071E1CE010B968FDF40E16BE271E1CE01F2
:101F30000B9689DF40E16BE071E1CE010B9683DF08
:101F400044E063E071E1CE010B967DDF44E06FEF8A
:101F500070E1CE010B9677DF44E067E071E1CE01DE
:101F60000B9671DF44E06FEE70E1CE010B966BDFF4
:101F700044E06BE371E1CE010B9665DF44E06BEF6B
:101F800070E1CE010B965FDF44E067EF70E1CE01B8
:101F90000B9659DF44E063EF70E1CE010B9653DFFF
:101FA0004CE063E277E0CE010B964DDF42E061E466
:101FB00072E1CE010B9647DF42E06FE372E1CE01A2
:101FC0000B9641DF42E06DE372E1CE010B963BDF01
:101FD00042E06BE372E1CE010B9635DF42E069E34C
:101FE00072E1CE010B962FDF42E067E372E1CE0192
:101FF0000B9629DF44E060E177E0CE010B9623DF0A
:1020000044E062E672E0CE010B961DDF44E06EE52F
:1020100072E0CE010B9617DF44E06AE572E0CE0174
:102020000B9611DF80E290E09A87898742E0BE013B
:10203000675F7F4FCE010B9606DF41E06FE377E0ED
:10204000CE010B9600DF44E061E272E0CE010B9618
:10205000FADE86E591E3A3E3B0E089839A83AB835C
:10206000BC831C870B8744E0BE016F5F7F4FCE01AE
:102070000B96E9DEE0E6F9E08491882341F0909147
:10208000C00095FFFCCF8093C6003196F5CFE2E902
:10209000F3E08491882341F09091C00095FFFCCF3C
:1020A0008093C6003196F5CF8091C00085FFFCCFAC
:1020B0008AE08093C6002C960FB6F894DEBF0FBE60
:1020C000CDBFDF91CF911F910F910895CF93DF93F3
:1020D000C0E6D9E0FE018491882341F09091C000D0
:1020E00095FFFCCF8093C6003196F5CFE2E8F3E090
:1020F0008491882341F09091C00095FFFCCF80939C
:10210000C6003196F5CF8091C00085FFFCCF8AE0F4
:102110008093C600FE018491E0E6F9E0882349F04F
:102120009091C00095FFFCCF8093C60031968491BA
:10213000F5CF40911B1150911C1160911D117091B0
:102140001E118AE793E00E94251940911F115091BA
:102150002011609121117091221187E793E00E9474
:1021600025194091231150912411609125117091EE
:10217000261184E793E00E94251940912711509180
:1021800028116091291170912A1181E793E00E9432
:1021900025198091C00085FFFCCF8AE08093C6009E
:1021A000FE018491E0E6F9E0882349F09091C000B7
:1021B00095FFFCCF8093C60031968491F5CFE7E57B
:1021C000F3E08491882341F09091C00095FFFCCF0B
:1021D0008093C6003196F5CF8091C00085FFFCCF7B
:1021E0008AE08093C600FE018491E0E6F9E088234E
:1021F00049F09091C00095FFFCCF8093C6003196C6
:102200008491F5CF40912B1150912C1160912D119B
:1022100070912E118EE493E00E94251940912F11A8
:102220005091301160913111709132118BE493E033
:102230000E9425194091331150913411609135114C
:102240007091361188E493E00E942519409137116E
:10225000509138116091391170913A1185E493E0F1
:10226000F4D78091C00085FFFCCF8AE08093C60040
:10227000FE018491E0E6F9E0882349F09091C000E6
:1022800095FFFCCF8093C60031968491F5CFE7E2AD
:10229000F3E08491882341F09091C00095FFFCCF3A
:1022A0008093C6003196F5CF8091C00085FFFCCFAA
:1022B0008AE08093C600FE018491E0E6F9E088237D
:1022C00049F09091C00095FFFCCF8093C6003196F5
:1022D0008491F5CF40910B1150910C1160910D112B
:1022E00070910E118EE193E0C1D740910F11509182
:1022F000101160911111709112118BE193E0B6D71A
:102300004091131150911411609115117091161193
:1023100088E193E0ABD7409117115091181160916B
:10232000191170911A1185E193E0A0D78091C00036
:1023300085FFFCCF8AE08093C600FE018491E0E631
:10234000F9E0882349F09091C00095FFFCCF80937D
:10235000C60031968491F5CFE0EEF2E084918823B7
:1023600041F09091C00095FFFCCF8093C60031965C
:10237000F5CF8091C00085FFFCCF8AE08093C60036
:10238000FE018491E0E6F9E0882349F09091C000D5
:1023900095FFFCCF8093C60031968491F5CF409194
:1023A000031150910411609105117091061187ED90
:1023B00092E04BD74091FF105091001160910111B4
:1023C0007091021184ED92E040D78091C00085FFAA
:1023D000FCCF8AE08093C600FE018491E0E6F9E03C
:1023E000882349F09091C00095FFFCCF8093C600F0
:1023F00031968491F5CFE1E2F2E08491882341F0B7
:102400009091C00095FFFCCF8093C6003196F5CF28
:102410008091C00085FFFCCF8AE08093C600FE015A
:102420008491E0E6F9E0882349F09091C00095FF9F
:10243000FCCF8093C60031968491F5CF409107116F
:10244000509108116091091170910A1188E192E090
:10245000FCD64091EF105091F0106091F110709106
:10246000F21085E192E0F1D640913B1150913C1180
:1024700060913D1170913E1182E192E0F7D640915A
:10248000FB105091FC106091FD107091FE108FE0D8
:1024900092E0DBD64091F7105091F8106091F9105E
:1024A0007091FA108CE092E0D0D64091F3105091E8
:1024B000F4106091F5107091F61089E092E0C5D6A5
:1024C0008091C00085FFFCCF8AE08093C600FE01AA
:1024D0008491E0E6F9E0882349F09091C00095FFEF
:1024E000FCCF8093C60031968491F5CFE7EFF1E001
:1024F0008491882341F09091C00095FFFCCF809398
:10250000C6003196F5CF8091C00085FFFCCF8AE0F0
:102510008093C600FE018491E0E6F9E0882349F04B
:102520009091C00095FFFCCF8093C60031968491B6
:10253000F5CF4091230750912407609125077091B2
:1025400026078EEE91E081D640912707509128070B
:102550006091290770912A078BEE91E076D6409121
:102560002B0750912C0760912D0770912E0788EE54
:1025700091E06BD68091C00085FFFCCF8AE080930C
:10258000C600FE018491E0E6F9E0882349F09091CD
:10259000C00095FFFCCF8093C60031968491F5CFA3
:1025A000EAEDF1E08491882341F09091C00095FF1D
:1025B000FCCF8093C6003196F5CF8091C00085FF97
:1025C000FCCF8AE08093C600FE01C491E0E6F9E00A
:1025D000CC2349F08091C00085FFFCCFC093C6009A
:1025E0003196C491F5CF409162025091630260919F
:1025F00064027091650280ED91E027D660915E02E1
:1026000070915F0280916002909161020E945F7EF2
:10261000AB01BC018DEC91E018D660915A0270912B
:102620005B0280915C0290915D020E946B7EAB0127
:10263000BC018AEC91E009D68091C00085FFFCCFF7
:102640008AE08093C600DF91CF910895AF92BF9248
:10265000CF92DF92EF92FF920F931F93CF93DF936E
:10266000CDB7DEB7E0970FB6F894DEBF0FBECDBF93
:1026700080E1EFE7F2E0DE01919601900D928A95FC
:10268000E1F780E1EFE8F2E0DE01519601900D9272
:102690008A95E1F780E1EFE9F2E0DE011196019021
:1026A0000D928A95E1F76E0181E2C80ED11C8BE193
:1026B000E82E81E1F82E8E010F5E1F4F6BE271E173
:1026C000AE014F5F5F4F9BE0A92E91E1B92E20E054
:1026D00030E0F60181919191A191B1916F01F701E3
:1026E00081939193A193B1937F01F801819191918D
:1026F000A191B1918F01FB0181939193A193B1932A
:10270000BF01FA0181919191A191B191AF01F501C0
:1027100081939193A193B1935F012F5F3F4F243039
:102720003105B9F60E94C06980E090E0AFE2B4E400
:102730008093031190930411A0930511B093061197
:102740008093FF1090930011A0930111B093021198
:1027500010920711109208111092091110920A118B
:1027600080E29EE4A0E0B0E080933B1190933C11A6
:10277000A0933D11B0933E111092EF101092F01003
:102780001092F1101092F21080E090E0A0E7B1E416
:102790008093FB109093FC10A093FD10B093FE105B
:1027A0008DEC9CECACECBEE38093F7109093F810AA
:1027B000A093F910B093FA1080E090E0A0EEB0E49E
:1027C0008093F3109093F410A093F510B093F6104B
:1027D00010922B0710922C0710922D0710922E07A3
:1027E00010922707109228071092290710922A07A3
:1027F00010922307109224071092250710922607A3
:1028000084EB90E0909342128093411282E390E037
:102810009093401280933F128FEF90E090933E127E
:1028200080933D1220EF30E030933C1220933B1216
:102830002AE530E030933A122093391290933812FF
:10284000809337128AE999E9A1EBB1E4809362029F
:1028500090936302A0936402B093650261E77DE305
:102860008AE89FE30E94597E60935E0270935F0244
:10287000809360029093610260E070E084EE92E4E5
:102880000E94657E60935A0270935B0280935C02A3
:1028900090935D020E94047580E090E0A0E8BFE3A1
:1028A0008093560290935702A0935802B093590216
:1028B00010923F0780E090E0A0E4B0E48093210212
:1028C00090932202A0932302B09324020E949F249B
:1028D000E0E6F9E08491882341F09091C00095FFF3
:1028E000FCCF8093C6003196F5CFEEE8F1E08491FD
:1028F000882341F09091C00095FFFCCF8093C600E3
:102900003196F5CF8091C00085FFFCCF8AE080939F
:10291000C600E0960FB6F894DEBF0FBECDBFDF91C4
:10292000CF911F910F91FF90EF90DF90CF90BF90CC
:10293000AF900895CF93DF93CDB7DEB72C970FB646
:10294000F894DEBF0FBECDBF84E690E09C878B87F6
:1029500086E591E3A3E3B0E089839A83AB83BC83EC
:1029600044E0BE016B5F7F4FCE010B9692DA43E0ED
:1029700050E0BE016B5F7F4FCE0101960E9439C8C7
:10298000892B09F0BFC040E16BE171E1CE010B96EC
:1029900080DA40E16BE271E1CE010B967ADA40E138
:1029A0006BE071E1CE010B9674DA0E94C06944E0DD
:1029B00063E071E1CE010B966CDA44E06FEF70E1F9
:1029C000CE010B9666DA44E067E071E1CE010B962A
:1029D00060DA44E06FEE70E1CE010B965ADA44E023
:1029E0006BE371E1CE010B9654DA44E06BEF70E1DA
:1029F000CE010B964EDA44E067EF70E1CE010B9604
:102A000048DA44E063EF70E1CE010B9642DA4CE025
:102A100063E277E0CE010B963CDA42E061E472E1DA
:102A2000CE010B9636DA42E06FE372E1CE010B96EF
:102A300030DA42E06DE372E1CE010B962ADA42E031
:102A40006BE372E1CE010B9624DA42E069E372E1B6
:102A5000CE010B961EDA42E067E372E1CE010B96DF
:102A600018DA44E060E177E0CE010B9612DA44E038
:102A700062E672E0CE010B960CDA44E06EE572E09D
:102A8000CE010B9606DA44E06AE572E0CE010B96C1
:102A900000DA42E0BE01675F7F4FCE010B96F9D9A5
:102AA00041E06FE377E0CE010B96F3D944E061E2B9
:102AB00072E0CE010B96EDD90E949F240E9404750E
:102AC000E0E6F9E08491882341F09091C00095FF01
:102AD000FCCF8093C6003196F5CFE0EBF1E0849116
:102AE000882341F09091C00095FFFCCF8093C600F1
:102AF0003196F5CF8091C00085FFFCCF8AE08093AE
:102B0000C60001C0A3DDE2DA2C960FB6F894DEBF52
:102B10000FBECDBFDF91CF9108951F920F920FB6D8
:102B20000F9211240BB60F922F933F934F935F9305
:102B30006F938F939F93EF93FF936091C6002091C3
:102B4000310530913205C90101968F77992740915F
:102B50003305509134058417950741F0F901EF547E
:102B6000FB4F60839093320580933105FF91EF9185
:102B70009F918F916F915F914F913F912F910F9006
:102B80000BBE0F900FBE0F901F9018959A01AB01CE
:102B9000211581EE38074105510549F182E0809306
:102BA000C00060E079E08DE390E00E94ABC421506A
:102BB000310941095109CA01B90122E030E040E080
:102BC00050E00E94ABC43093C5002093C4008091B4
:102BD000C10080618093C1008091C10088608093B2
:102BE000C1008091C10080688093C1000895109257
:102BF000C00020E130E0E7CF20913305309134056B
:102C000080913105909132058217930771F0F90197
:102C1000EF54FB4F80812F5F3F4F2F773327309347
:102C200034052093330590E008958FEF9FEF0895CA
:102C3000809133059091340590933205809331054E
:102C400008954F925F926F927F928F929F92AF9270
:102C5000BF92CF92DF92EF92FF920F931F93CF9389
:102C6000DF93CDB7DEB7A0970FB6F894DEBF0FBEE7
:102C7000CDBF5C014115510561057105E9F420E006
:102C800030E040E350E060E070E0A0960FB6F894CA
:102C9000DEBF0FBECDBFDF91CF911F910F91FF908F
:102CA000EF90DF90CF90BF90AF909F908F907F90EC
:102CB0006F905F904F905BC08E010F5F1F4FC12CD4
:102CC000D12C76014801422E512C612C712C8FEFB2
:102CD000C81AD80AE80AF80ACB01BA01A30192017E
:102CE0000E9489C4CA01F80161938F01A901BC0146
:102CF000411551056105710551F7F1E0CF1AD10871
:102D0000E108F108F401EC0DFD1D80818A3010F41A
:102D100040E301C047E3480F552747FD5095652F15
:102D2000752F20E030E0C50122D081E0C81AD1081B
:102D3000E108F108EFEFCE16DE06EE06FE0611F70B
:102D4000A0960FB6F894DEBF0FBECDBFDF91CF9136
:102D50001F910F91FF90EF90DF90CF90BF90AF90B9
:102D60009F908F907F906F905F904F900895211566
:102D7000310539F48091C00085FFFCCF4093C60037
:102D800008952A30310509F41CC05BCFCF93DF933F
:102D9000EC0120E030E04DE050E060E070E0E7DF83
:102DA00020E030E04AE050E060E070E0CE01DF91EA
:102DB000CF91DDCF9A01AB01662757FD6095762F45
:102DC000D6CFCF92DF92EF92FF92CF93DF93EC01B9
:102DD0006A017B0177FF0FC020E030E04DE250E058
:102DE00060E070E0C4DFF094E094D094C094C11C23
:102DF000D11CE11CF11C2AE0B701A601CE01DF9134
:102E0000CF91FF90EF90DF90CF901BCF2115310530
:102E100039F48091C00085FFFCCF4093C60008952F
:102E200010CF9A01462F50E060E070E0EFCFCF93D3
:102E3000DF93EC019A01AB0160E070E0E7DFCE01C7
:102E4000DF91CF91A3CF8F929F92AF92BF92CF92FB
:102E5000DF92EF92FF921F93CF93DF93EC016A0111
:102E60007B01122F20E030E0A901C701B6010E94CA
:102E7000B8C087FF0CC020E030E04DE250E060E0D9
:102E800070E0CE0174DFF7FAF094F7F8F094B12C0B
:102E900060E070E080E09FE3B11641F020E030E0B8
:102EA00040E251E40E94BFC0B394F6CF9B01AC0155
:102EB000C701B6010E94DFBF6B017C010E942CC1DB
:102EC0004B015C010E9458C19B01AC01C701B601D6
:102ED0000E94DEBF6B017C012AE0B501A401CE0196
:102EE000B0DE112361F0E8E8F4E08191882339F045
:102EF0009091C00095FFFCCF8093C600F6CF1123C0
:102F000019F120E030E040E251E4C701B6010E942F
:102F10008DC36B017C010E9427C14B01AA2497FC41
:102F2000A094BA2CB501A401CE014BDFC501B401B8
:102F30000E945AC19B01AC01C701B6010E94DEBFCD
:102F40006B017C011150DBCFDF91CF911F91FF907E
:102F5000EF90DF90CF90BF90AF909F908F900895AB
:102F600072CFFC01659175918591949108952F928E
:102F70003F924F925F926F927F928F929F92AF9209
:102F8000BF92CF92DF92EF92FF920F931F93CF9356
:102F9000DF9300D000D0CDB7DEB71C01FC01EF5DA0
:102FA000F64F14919C01220F331F220F331F3E83D3
:102FB0002D83215D384F4901F9011082118212825F
:102FC00013822BE337E047E357E063E377E08FE2D8
:102FD00097E00E94EE688D819E81805D964FC1DFF3
:102FE0006B017C01612F772767FD7095872F972FE5
:102FF0000E945AC12B013C012D813E812450394F42
:10300000590120E030E040EC5FE3C701B6010E94C7
:103010008DC3A30192010E948DC3F501608371836A
:10302000828393832D813E81255D3D4F3C832B839D
:10303000F901608171818281938160930B027093A9
:103040000C0280930D0290930E0220E030E040E7E6
:1030500052E40E94BFC02FE0C22E27E0D22E7B0197
:103060008C0128E037E044E057E060E077E08CEF47
:1030700096E00E94185F0E947672F401108211821D
:10308000128213822BE337E047E357E063E377E0F4
:103090008FE297E00E94EE682D813E812C5D364FD5
:1030A0003A832983C9015DDF9058A30192010E94F0
:1030B0008DC3F501608371838283938320E030E0C8
:1030C00040E752E460910B0270910C0280910D0276
:1030D00090910E020E94BFC07B018C0128E037E076
:1030E00044E057E060E077E08CEF96E00E94185FE4
:1030F0000E94767289819A8134DF9B01AC010E9423
:10310000DFBFA30192010E948DC3F501608371832B
:103110008283938320E030E040E05FE3EB81FC8139
:1031200060817181828193810E948DC360930B02C3
:1031300070930C0280930D0290930E0220E030E019
:1031400040E752E40E94BFC07B018C0128E037E0D9
:1031500044E057E060E077E08CEF96E00E94185F73
:103160000E9476728D819E81845C964FFADE0D817D
:103170001E810D5D184FF8012081318142815381FC
:103180000E94DFBFF40160837183828393838D810A
:103190009E818C5A964FE5DE2D813E81295E384F07
:1031A0007901F80120813181428153810E94DFBF82
:1031B000F70160837183828393838D819E81885B15
:1031C000964FCFDE2D813E812F5E3D4F7901F80174
:1031D00020813181428153810E94DFBFF7016083EA
:1031E000718382839383F40180819181A281B38171
:1031F000F50180839183A283B38310920B02109216
:103200000C0210920D0210920E020E94A36AF101AC
:10321000EC5EF84F81E0808326960FB6F894DEBF0F
:103220000FBECDBFDF91CF911F910F91FF90EF9017
:10323000DF90CF90BF90AF909F908F907F906F90D6
:103240005F904F903F902F900895FC01249122238E
:1032500041F03091C00035FFFCCF2093C6000196AD
:10326000F4CF22E030E080EB94E07ACEFC012491B0
:10327000222341F03091C00035FFFCCF2093C600DF
:103280000196F4CF2AE030E080EB94E0BFCD2091AE
:10329000510530915205243031050CF06AC040913F
:1032A00053055091540560E6649F9001659F300D71
:1032B0001124BC01C901855A9A4F0E9432C8E0E628
:1032C000F9E08491882341F09091C00095FFFCCFF4
:1032D0008093C6003196F5CFE6E1F9E0849188232A
:1032E00041F09091C00095FFFCCF8093C6003196CD
:1032F000F5CF809153059091540520E6289FF00169
:10330000299FF00D1124E55AFA4F8191882339F055
:103310009091C00095FFFCCF8093C600F6CFE4E10A
:10332000F9E08491882341F09091C00095FFFCCF93
:103330008093C6003196F5CF8091C00085FFFCCF09
:103340008AE08093C60080915305909154050196C0
:1033500064E070E00E9476C4909354058093530516
:10336000809151059091520501969093520580935A
:1033700051050895209151053091520524303105B1
:103380000CF06AC0409153055091540560E6649F6B
:103390009001659F300D1124BC01C901855A9A4FD7
:1033A0000E9499C7E0E6F9E08491882341F090916A
:1033B000C00095FFFCCF8093C6003196F5CFE9E0C1
:1033C000F9E08491882341F09091C00095FFFCCFF3
:1033D0008093C6003196F5CF8091530590915405A6
:1033E00020E6289FF001299FF00D1124E55AFA4F9D
:1033F0008191882339F09091C00095FFFCCF809394
:10340000C600F6CFE7E0F9E08491882341F090917F
:10341000C00095FFFCCF8093C6003196F5CF809118
:10342000C00085FFFCCF8AE08093C60080915305E1
:1034300090915405019664E070E00E9476C49093E8
:103440005405809353058091510590915205019642
:10345000909352058093510508959898A09A0895E5
:10346000269A2E980895F9DFFBDF40E950ED63E0DE
:1034700070E080EB94E08ADBE1E0F9E0849188235E
:1034800041F09091C00095FFFCCF8093C60031962B
:10349000F5CF8091C00085FFFCCF8AE08093C60005
:1034A00080E699E0FC012491222341F03091C00094
:1034B00035FFFCCF2093C6003196F5CF24B720FF0F
:1034C00014C0E9EFF8E03491332341F04091C0009B
:1034D00045FFFCCF3093C6003196F5CF3091C00048
:1034E00035FFFCCF3AE03093C60021FF14C0E9EE6F
:1034F000F8E03491332341F04091C00045FFFCCF08
:103500003093C6003196F5CF3091C00035FFFCCF27
:103510003AE03093C60022FF14C0E8EDF8E03491A1
:10352000332341F04091C00045FFFCCF3093C600EB
:103530003196F5CF3091C00035FFFCCF3AE03093A3
:10354000C60023FF14C0E8ECF8E03491332341F0C7
:103550004091C00045FFFCCF3093C6003196F5CFB7
:103560003091C00035FFFCCF3AE03093C60025FF14
:1035700014C0E8EBF8E02491222341F03091C00020
:1035800035FFFCCF2093C6003196F5CF2091C000C7
:1035900025FFFCCF2AE02093C60014BEE1EBF8E043
:1035A0002491222341F03091C00035FFFCCF2093BD
:1035B000C6003196F5CFE9EAF8E02491222341F0E4
:1035C0003091C00035FFFCCF2093C6003196F5CF77
:1035D0002091C00025FFFCCF2AE02093C600FC010B
:1035E0002491E0E6F9E0222349F03091C00035FF54
:1035F000FCCF2093C60031962491F5CFE9E9F8E09D
:103600002491222341F03091C00035FFFCCF20935C
:10361000C6003196F5CFE4E8F8E02491222341F08A
:103620003091C00035FFFCCF2093C6003196F5CF16
:10363000E8E7F8E02491222341F03091C00035FF03
:10364000FCCF2093C6003196F5CFE7E6F8E0249151
:10365000222341F03091C00035FFFCCF2093C600FB
:103660003196F5CF2091C00025FFFCCF2AE02093B2
:10367000C600ECE5F8E02491222341F03091C0002F
:1036800035FFFCCF2093C6003196F5CFE0E5F8E09A
:103690002491222341F03091C00035FFFCCF2093CC
:1036A000C6003196F5CF2091C00025FFFCCF2AE05F
:1036B0002093C600FC018491E0E6F9E0882349F0FC
:1036C0009091C00095FFFCCF8093C6003196849105
:1036D000F5CFE1E4F8E08491882341F09091C000B7
:1036E00095FFFCCF8093C6003196F5CF0E94D1455F
:1036F0004AE050E0BC0180EB94E05CDBEAE2F8E0F9
:103700008491882341F09091C00095FFFCCF809375
:10371000C6003196F5CF4AE050E060ED74E080EBF2
:1037200094E048DB8091C00085FFFCCF8AE0809365
:10373000C600109257051092580510925905109224
:103740005A05F8D80E943F770E94B25D0E94E2714C
:103750000E94F193FFEF23ED80E3F1502040804081
:10376000E1F700C00000089580914B0590914C0551
:1037700060E070E001960C94F0C480914B0590914C
:103780004C054AE050E060E070E001960C9458C6A9
:10379000682F772767FD7095209155053091560564
:1037A00040E6429FC001439F900D1124855A9A4FD5
:1037B0000E941EC890934C0580934B0521E0892BF5
:1037C00009F420E0822F08950E9475B9609347059F
:1037D000709348058093490590934A0508950E9487
:1037E00075B9609347057093480580934905909398
:1037F0004A05E0915505F0915605E95AFA4F808146
:10380000811114C0EAE4F4E08491882341F090919E
:10381000C00095FFFCCF8093C6003196F5CF809114
:10382000C00085FFFCCF8AE08093C600089580EB3E
:1038300094E0FED9EDE4F4E08491882341F0909186
:10384000C00095FFFCCF8093C6003196F5CF409124
:10385000E0065091E1066091E2067091E3064F5F49
:103860005F4F6F4F7F4F2AE030E080EB94E07FDACC
:103870008091C00085FFFCCF8AE08093C600AFCF67
:103880008F929F92AF92BF92CF92DF92EF92FF9270
:103890000F931F93CF93DF9338E1E32E34E0F32EA1
:1038A0000FE217E0CCEFD6E042E4C42E47E0D42E7E
:1038B000F70181917F016CDF882311F155DF4B0106
:1038C0005C01F6018081811103C06091DB0601C0BB
:1038D00061E070E080E090E00E945AC1F801208130
:1038E0003181428153810E948DC39B01AC01C5018E
:1038F000B4010E94DFBF688379838A839B8309C0F8
:10390000F80180819181A281B38188839983AA8300
:10391000BB830C5F1F4F2496FFEFCF1ADF0A8CE1A9
:10392000E81684E0F80621F686E432DF8823D1F039
:103930001BDF6B017C016093EC067093ED068093B6
:10394000EE069093EF0620E030E0A9010E94BBC292
:10395000181644F4C0920B02D0920C02E0920D02B1
:10396000F0920E02DF91CF911F910F91FF90EF9097
:10397000DF90CF90BF90AF909F908F90089580DFA1
:1039800089E406DF882351F0EFDE6093F006709340
:10399000F1068093F2069093F30608C01092F006A9
:1039A0001092F1061092F2061092F3068AE4F0DE0D
:1039B000882351F0D9DE6093F4067093F506809366
:1039C000F6069093F70608951092F4061092F50605
:1039D0001092F6061092F7060895CF92DF92EF92BA
:1039E000FF92CF93DF93EC01C0901707D090180798
:1039F000E0901907F0901A07A70196016881798174
:103A00008A819B810E94B8C087FF04C0C882D98286
:103A1000EA82FB82C0901B07D0901C07E0901D0734
:103A2000F0901E07A70196016C817D818E819F8198
:103A30000E94B8C087FF04C0CC82DD82EE82FF8284
:103A400020E030E0A90160911F077091200780916C
:103A50002107909122070E94DFBF6B017C019B012F
:103A6000AC01688579858A859B850E94B8C087FFEF
:103A700004C0C886D986EA86FB86C0901102D09021
:103A80001202E0901302F0901402A70196016881DF
:103A900079818A819B810E94BBC2181624F4C88256
:103AA000D982EA82FB82C0901502D0901602E09083
:103AB0001702F0901802A70196016C817D818E811A
:103AC0009F810E94BBC2181624F4CC82DD82EE8254
:103AD000FF82C0901902D0901A02E0901B02F09071
:103AE0001C02A7019601688579858A859B850E94BD
:103AF000BBC2181624F4C886D986EA86FB86DF91F5
:103B0000CF91FF90EF90DF90CF900895CF92DF920A
:103B1000EF92FF920F931F938CEF96E05EDF0E946F
:103B200075B9609347057093480580934905909354
:103B30004A052091FC063091FD064091FE06509109
:103B4000FF0660912F0770913007809131079091A7
:103B500032070E94B8C0811179C0209100073091CE
:103B6000010740910207509103076091330770915C
:103B7000340780913507909136070E94B8C08111B3
:103B800065C020E030E040E752E460910B027091A4
:103B90000C0280910D0290910E020E94BFC05FE066
:103BA000C52E57E0D52E7B018C0128E037E044E09C
:103BB00057E060E077E08CEF96E00E94185F80911C
:103BC000FC069091FD06A091FE06B091FF06809341
:103BD0002F0790933007A0933107B093320780915D
:103BE000000790910107A0910207B091030780930D
:103BF000330790933407A0933507B093360780912D
:103C0000040790910507A0910607B09107078093DC
:103C1000370790933807A0933907B0933A078091FC
:103C2000080790910907A0910A07B0910B078093AC
:103C30003B0790933C07A0933D07B0933E071F912D
:103C40000F91FF90EF90DF90CF900895609129023F
:103C500070912A02882777FD8095982F0E945AC17B
:103C600020910B0230910C0240910D0250910E02F6
:103C70000E948DC320E030E040E752E40E94BFC0C4
:103C800020E030E048EC52E488CFAF92BF92CF9270
:103C9000DF92EF92FF920F931F93CF93DF93D82F72
:103CA0002091F4063091F5064091F6065091F70602
:103CB0006091F0067091F1068091F2069091F30602
:103CC0000E94C8C2C62F172F082FF92E6091290213
:103CD00070912A02882777FD8095982F0E945AC1FB
:103CE00020910B0230910C0240910D0250910E0276
:103CF0000E948DC320E030E040E752E40E94BFC044
:103D000020E030E048EC52E40E94BFC020910F0751
:103D10002F93DF93FF920F931F93CF935B016C015F
:103D200062E0E62E01E020E040EF56E06CEF76E046
:103D30008FE297E00E948A568091FC069091FD06E2
:103D4000A091FE06B091FF0680932F079093300755
:103D5000A0933107B093320780910007909101073B
:103D6000A0910207B0910307809333079093340723
:103D7000A0933507B093360780910407909105070B
:103D8000A0910607B09107078093370790933807F3
:103D9000A0933907B0933A078091080790910907DB
:103DA000A0910A07B0910B0780933B0790933C07C3
:103DB000A0933D07B0933E070E9475B960934705F5
:103DC000709348058093490590934A050F900F9092
:103DD0000F900F900F900F90DF91CF911F910F9147
:103DE000FF90EF90DF90CF90BF90AF900895F89440
:103DF0000E94E1775F9A109214078A9A1092150731
:103E00009FB7F894809108018160809308019FBF5B
:103E100010921607129A60E08CE00E9460BBE6E602
:103E2000F9E08491882341F09091C00095FFFCCF88
:103E30008093C6003196F5CFEBE2F4E084918823BD
:103E400041F09091C00095FFFCCF8093C600319661
:103E5000F5CF8091C00085FFFCCF8AE08093C6003B
:103E600082E294E00E948F937894C6E0D0E021979C
:103E700049F068EC70E080E090E00E94A4B90E94F4
:103E80000F94F5CFF894FFCF2F923F924F925F920D
:103E90006F927F928F929F92AF92BF92CF92DF925A
:103EA000EF92FF920F931F93CF93DF93CDB7DEB7BF
:103EB0006E970FB6F894DEBF0FBECDBFA0E6BA2E48
:103EC000B4E0EB2EF12C10EFC12E16E0D12E0AE05B
:103ED000A02E9924939480913105909132052091E0
:103EE000330530913405821B930B8F779927892BEB
:103EF00009F418C2809151059091520504970CF075
:103F000011C280EB94E00E94FC1580935005209133
:103F10004E0530914F058A3061F08D3051F08A3373
:103F200021F490914D05992321F02F3531050CF4A2
:103F30001BC12115310509F435C1809153059091BC
:103F40005405B89E3001B99E700C1124F301E20FA4
:103F5000F31FE55AFA4F108220914D052111FFC041
:103F6000FC01E95AFA4F10828301055A1A4F6EE498
:103F700070E0C8010E941EC80097F1F190934C05B3
:103F800080934B05801B910B860D971D4AE050E0F6
:103F900060E070E0845A9A4F0E9458C66093E4062D
:103FA0007093E5068093E6069093E7064090E0065E
:103FB0005090E1066090E2067090E3062FEF421AFF
:103FC000520A620A720A0091530510915405641551
:103FD00075058605970509F4E8C0B09EC001B19E3D
:103FE000900D11246CE078E0855A9A4F0E94D0C75A
:103FF000892B09F0DAC069C16AE270E0C8010E9449
:104000001EC8892B09F444C0E6E6F9E084918823B0
:1040100041F09091C00095FFFCCF8093C60031968F
:10402000F5CFE6E6F7E08491882341F09091C00057
:1040300095FFFCCF8093C6003196F5CF4091E00606
:104040005091E1066091E2067091E3062AE030E0CB
:1040500080EB94E00E94B7168091C00085FFFCCFF2
:104060008AE08093C60010924F0510924E05C0C2A0
:104070008091E4069091E506A091E606B091E706EE
:104080008093E0069093E106A093E206B093E306E6
:104090008091530590915405B89E8001B99E100DF2
:1040A0001124C801855A9A4F3C0167E470E00E94D0
:1040B0001EC8009781F190934C0580934B0586199B
:1040C0009709800F911F60E070E0845A9A4F0E9418
:1040D000F0C40E9427C164307105E8F4809139056D
:1040E0008823C9F0F6018491E0EFF6E0882349F0D7
:1040F0009091C00095FFFCCF8093C60031968491CB
:10410000F5CF8091C00085FFFCCFA092C60086EE5F
:1041100096E00E9482930091530510915405B09E41
:10412000C001B19E900D11246FEE72E0855A9A4F36
:104130000E9429C8892B09F45ADEC8010196B701EB
:104140000E9476C490935405809353058091510545
:1041500090915205019690935205809351051092CB
:104160004F0510924E05B7CE8B3311F490924D054A
:1041700090914D059111AFCE40915305509154054A
:10418000B9016F5F7F4F70934F0560934E05B49EEA
:10419000F001B59EF00D1124E20FF31FE55AFA4F1E
:1041A000808399CE10924D0523C2B09E3001B19EFE
:1041B000700C1124C301855A9A4F1C016AE270E009
:1041C0000E941EC8009789F5E6E6F9E084918823ED
:1041D00041F09091C00095FFFCCF8093C6003196CE
:1041E000F5CFE0E9F7E08491882341F09091C00099
:1041F00095FFFCCF8093C6003196F5CF4091E00645
:104200005091E1066091E2067091E3062AE030E009
:1042100080EB94E00E94B7168091C00085FFFCCF30
:104220008AE08093C60003DB1ECF20E010E0F3019C
:10423000E20FF11DE55AFA4F30813A3219F02F5F43
:104240001327F5CF90934C0580934B058219930962
:10425000860D971D60E070E0845A9A4F0E94F0C46A
:104260000E9427C1212F30E02617370709F400CF1D
:10427000E6E6F9E08491882341F09091C00095FF33
:10428000FCCF8093C6003196F5CFEAEBF7E084913E
:10429000882341F09091C00095FFFCCF8093C60029
:1042A0003196F5CF4091E0065091E1066091E2062B
:1042B0007091E3062AE030E080EB94E00E94B716AC
:1042C0008091C00085FFFCCFABCFE6E6F9E084919A
:1042D000882341F09091C00095FFFCCF8093C600E9
:1042E0003196F5CFE9EDF7E08491882341F0909184
:1042F000C00095FFFCCF8093C6003196F5CF40916A
:10430000E0065091E1066091E2067091E3062AE032
:1043100030E080EB94E00E94B7168091C00085FFEA
:10432000FCCF7ECF80914807882309F461C180913A
:104330004E0590914F05892B09F05AC18091510586
:1043400090915205892B11F410923705E8EE2E2E2C
:10435000E3E03E2E412C512CFCE3CF2ED12CE12C5E
:10436000F12C8E010F5F1F4F70E6672E7724739438
:104370004091C9095091CA096091CB097091CC094B
:104380008091C1099091C209A091C309B091C4095B
:10439000481759076A077B0708F02AC18091510521
:1043A0009091520504970CF023C18091370581113B
:1043B0001FC180911C0990911D09A0911E09B09107
:1043C0001F098093C9099093CA09A093CB09B093A0
:1043D000CC0984E199E00E94A33F482F80935005C7
:1043E0008A30B9F04D30A9F0433229F420914D05BF
:1043F000211103C00EC04A33C9F320914E053091FC
:104400004F052F3531052CF48F3FFFEF9F0709F043
:10441000D1C04091C9095091CA096091CB097091EE
:10442000CC098091C1099091C209A091C309B091B2
:10443000C409481759076A077B0708F481C0E3EDF0
:10444000F6E08491882341F09091C00095FFFCCF65
:104450008093C6003196F5CF8091C00085FFFCCFD8
:10446000FAE0F093C6000E9475B960933B05709323
:104470003C0580933D0590933E0580903F059090CC
:104480004005A0904105B0904205681979098A0954
:104490009B09A20191010E9489C449015A01CA01E4
:1044A000B901A70196010E9489C4CA01B901A701F7
:1044B00096010E9489C47F936F93C501B40120E1E6
:1044C0003EE040E050E00E9489C43F932F93AFEB61
:1044D000B6E0BF93AF931F930F930E9456C8E0E6D8
:1044E000F9E084910FB6F894DEBF0FBECDBF8823EC
:1044F00049F09091C00095FFFCCF8093C6003196A3
:104500008491F5CFF8018191882339F09091C00012
:1045100095FFFCCF8093C600F6CF8091C00085FF49
:10452000FCCF3AE03093C600C8010E949F9086E419
:1045300097E00E940E5661E086E497E00E944650A4
:1045400080915005833211F47092370520914E0509
:1045500030914F052115310509F424CE8091530582
:1045600090915405689EF001699EF00D1124E20FB0
:10457000F31FE55AFA4F1082FC01E95AFA4F708294
:1045800020915105309152052F5F3F4F30935205D6
:1045900020935105019664E070E00E9476C49093E8
:1045A00054058093530510924D0510924F051092BB
:1045B0004E05DECE4B3311F470924D0540914D0502
:1045C0004111D2CE4091530550915405B9016F5F0E
:1045D0007F4F70934F0560934E05649EF001659E7A
:1045E000F00D1124E20FF31FE55AFA4F8083C0CE7D
:1045F0006E960FB6F894DEBF0FBECDBFDF91CF91A0
:104600001F910F91FF90EF90DF90CF90BF90AF90F0
:104610009F908F907F906F905F904F903F902F90E2
:104620000895CF92DF92EF92FF920F931F93CF9353
:10463000C82F809151059091520503970CF424DC0A
:104640000E9475B9009143051091440520914505DC
:1046500030914605C0904705D0904805E090490547
:10466000F0904A056C197D098E099F0906171707F6
:104670002807390728F4012B022B032B09F0B7DB9D
:1046800040910702509108026091090270910A025C
:10469000452B462B472B19F10E9475B90091470510
:1046A000109148052091490530914A05601B710B16
:1046B000820B930B009107021091080220910902CE
:1046C00030910A02061717072807390740F490911E
:1046D000E60B8091E50B981302C0CC2309F1809181
:1046E000350590913605909902C0019604C01816C0
:1046F00019062CF401979093360580933505809127
:10470000350590913605803197420CF0B8CFCF91A6
:104710001F910F91FF90EF90DF90CF900C94FB5E74
:104720005F9A109214078A9A109215079FB7F8940F
:10473000809108018160809308019FBF1092160745
:10474000129ACDCF0E94E17780913905811138C04E
:1047500081E0809339058091E0069091E106A09177
:10476000E206B091E3068093DC069093DD06A09309
:10477000DE06B093DF06E6E6F9E08491882341F097
:104780009091C00095FFFCCF8093C6003196F5CF85
:10479000ECEAF3E08491882341F09091C00095FF0A
:1047A000FCCF8093C6003196F5CF8091C00085FF85
:1047B000FCCF8AE08093C60082EA93E00C94829357
:1047C0000895809139050895CF93DF93EC0180918E
:1047D0000F0780933A0584E50E94C81B811102C02F
:1047E00080E075C00E94B41B0E942CC160933A0502
:1047F0006623B1F3E0E6F9E08491882341F09091DB
:10480000C00095FFFCCF8093C6003196F5CFCD3622
:10481000D105B9F054F4C836D105B1F0C936D10587
:1048200009F045C0E9E3F3E021C0CA3DD10531F00C
:10483000CD3DD105E1F5E4EFF2E036C0EBE0F3E089
:1048400029C0E2E2F3E01CC0E0E5F3E081918823B7
:1048500071F19091C00095FFFCCF8093C600F6CF18
:104860009091C00095FFFCCF8093C600819181118B
:10487000F7CF1DC09091C00095FFFCCF8093C6007C
:1048800081918111F7CF13C09091C00095FFFCCFAB
:104890008093C60081918111F7CF09C09091C0002B
:1048A00095FFFCCF8093C60081918111F7CF40E046
:1048B00050E060913A0580EB94E00E9411178091DE
:1048C000C00085FFFCCF8AE08093C60081E0DF91C5
:1048D000CF910895CF92DF92EF92FF9220913F0700
:1048E0002223F1F020E030E040E05FE30E948DC33E
:1048F0006B017C0120E030E0A9010E94B8C0882350
:1049000079F0A7019601C701B6010E948DC32BED76
:104910003FE049E450E40E948DC39B01AC0104C018
:1049200020E030E040E85FE360E070E080E89FE393
:104930000E94BFC0FF90EF90DF90CF9008956091EC
:104940002102709122028091230290912402C2DF01
:1049500060931D0270931E0280931F0290932002A9
:1049600008953F924F925F926F927F928F929F92A3
:10497000AF92BF92CF92DF92EF92FF920F931F936D
:10498000CF93DF93CDB7DEB7E0970FB6F894DEBFD5
:104990000FBECDBF87E40E94C81B882309F417C24D
:1049A0000E94B41B0E9427C16430710509F43EC007
:1049B00044F46230710521F174F577FF17C00C944F
:1049C0005C386A35710509F4AEC134F46C31710597
:1049D00009F474C00C945C386B35710509F4A7C1F7
:1049E0006C35710509F4A8C10C945C3880913905C7
:1049F00081110C945C380E94401C88D80C945C385F
:104A00008091390581110C945C380E94BF1C81E0B3
:104A10003CD90C945C388091390581110C945C3838
:104A20000E94BF1C80E031D90C945C3886EB96E084
:104A30000E94829380E50E94C81B882339F00E945F
:104A4000B41B0E942CC14B015C0103C0812C912C32
:104A5000540183E50E94C81B882361F00E94B41BA7
:104A600020E030E04AE754E40E948DC30E942CC14C
:104A70004B015C010E9476720E9475B96B017C014A
:104A8000C80CD91CEA1CFB1C0E9475B96093470531
:104A9000709348058093490590934A050E9475B923
:104AA0006C157D058E059F0510F00C945C380E94F6
:104AB000267580E0B6DD0E940F94F0CF80910B0246
:104AC00090910C02A0910D02B0910E028093E80625
:104AD0009093E906A093EA06B093EB068091290231
:104AE00090912A02909341078093400784E690E0DA
:104AF00090932A02809329020E9475B9609347051A
:104B0000709348058093490590934A0581E00E947F
:104B1000AA6A80912F0790913007A0913107B09138
:104B200032078093FC069093FD06A093FE06B09397
:104B3000FF068091330790913407A0913507B0911B
:104B400036078093000790930107A0930207B09364
:104B500003078091370790913807A0913907B091EA
:104B60003A078093040790930507A0930607B09334
:104B7000070780913B0790913C07A0913D07B091BA
:104B80003E078093080790930907A0930A07B09304
:104B90000B0710920B0210920C0210920D02109251
:104BA0000E0288E50E94C81B882311F090E00AC01D
:104BB00089E50E94C81B8111F9CF8AE50E94C81BB4
:104BC00091E0982790930F0291110C945F3888E53B
:104BD0000E94C81B81110C945F3880910F028111D3
:104BE0000C94653889E50E94C81B81110C946538C6
:104BF00088E50E94C81B8823D1F00E94BD1B672B4B
:104C0000682B692BA1F00E94B41B209123073091DF
:104C1000240740912507509126070E94DFBF60932B
:104C20002F0770933007809331079093320789E5FF
:104C30000E94C81B8823D1F00E94BD1B672B682BE4
:104C4000692BA1F00E94B41B2091270730912807FF
:104C50004091290750912A070E94DFBF60933307D4
:104C600070933407809335079093360780910F0235
:104C700081110C946B388AE50E94C81B81110C9439
:104C80006B388AE50E94C81B8823D1F00E94BD1BA7
:104C9000672B682B692BA1F00E94B41B20912B0776
:104CA00030912C0740912D0750912E070E94DFBFB5
:104CB00060933707709338078093390790933A07CA
:104CC0002BE337E047E357E063E377E08FE297E0D9
:104CD0000E94EE6880E00E94AA6A8091E8069091A6
:104CE000E906A091EA06B091EB0680930B0290933F
:104CF0000C02A0930D02B0930E0280914007909198
:104D0000410790932A02809329020E9475B960930B
:104D10004705709348058093490590934A050E9482
:104D2000A36A0C945C381092DB060C945C3881E02A
:104D30008093DB060C945C3885E40E94C81B8111CB
:104D400002C00E94767268E1C62E64E0D62E73E23D
:104D5000E72E77E0F72E0FE217E0B12CF6018191F4
:104D60006F010E94C81B882339F1F3E0BF120CC009
:104D70000E94B41BF80160837183828393838BE369
:104D800097E00E94936918C00E94B41BF70120812C
:104D90003181428153810E94DFBFF80160837183BA
:104DA000828393832BE337E047E357E063E377E0C5
:104DB0008FE297E00E94EE68B394F4E0EF0EF11CEE
:104DC0000C5F1F4F24E0B212C9CF0C945C388DE405
:104DD0000E94C81B882311F40C948B370E94B41BCB
:104DE0000E9427C16037710509F46FC40CF08FC0B1
:104DF0006F31710509F47EC3A4F56631710509F4BC
:104E000022C2BCF46131710509F4D8C134F46230B6
:104E1000710508F434C10C945C386431710509F4EF
:104E2000DEC10CF00AC26231710509F480C70C942E
:104E30005C386A31710509F43AC23CF46831710595
:104E400009F41FC20CF405C22CC26C31710509F4BF
:104E500042C20CF43AC26E31710509F471C20C946D
:104E60005C386435710509F462C794F560357105E5
:104E700009F447C754F46032710509F49FC26A32DD
:104E8000710509F4BEC30C945C386235710509F4F0
:104E900045C70CF047C70E94E1770E947672129ACC
:104EA0000E94DF7210920E0710920D0768EE73E0F9
:104EB00080E090E00E94A4B9269A2E9A10921002E7
:104EC00081ED95E00E9482930E940F940C945C38CF
:104ED0006936710509F40CC474F46C35710509F474
:104EE00079C76836710509F4D3C36535710511F0CA
:104EF0000C945C3854C76B36710509F4FCC60CF48D
:104F0000CAC66D36710509F4FFC40C945C386C3D5B
:104F1000710511F40C94A9320CF054C06C38710571
:104F200009F4D5C324F56537710509F4E1C764F4C4
:104F30006237710509F4F0C76337710511F00C94FD
:104F40005C38EEEFF4E0CFC76837710511F40C94CC
:104F50006B306937710511F40C946F306737710548
:104F600011F00C945C38E6E7F3E00C9479306B3C7C
:104F7000710511F40C94F83184F4683C710511F456
:104F80000C946631693C710511F40C94D8316E3B78
:104F9000710511F00C945C3873C56D3C710511F40A
:104FA0000C94343214F40C9414326E3C710511F0EC
:104FB0000C945C3808E114E083E2E82E87E0F82ED8
:104FC0000C949A32643F31E0730711F40C947B34F3
:104FD0005CF56D3291E0790711F40C946F3394F421
:104FE000623E710511F40C94DE326C32F1E07F0701
:104FF00011F40C9439336D3D710511F00C945C384B
:105000000C94B8326F3221E0720711F40C944334DF
:1050100014F40C9435346039714011F00C945C3800
:105020000E9476720C945C38683592E0790711F42E
:105030000C94593594F4663FF1E07F0711F40C9419
:10504000813414F40C947E34673F714011F00C9459
:105050005C380E9466100C945C38603A83E07807F4
:1050600009F415C2673E93E0790711F40C94743784
:105070006335734011F00C945C380C9484340091C7
:105080004B0510914C050E5F1F4F80E50E94C81B19
:10509000882379F00E94B41B0E942CC16B017C0113
:1050A000BB24B394611571058105910531F4B12CD0
:1050B00004C0B12CC12CD12C760183E50E94C81B01
:1050C000882399F00E94B41B20E030E04AE754E4C2
:1050D0000E948DC30E942CC16B017C01AA24A39461
:1050E000611571058105910509F4A12C6AE270E052
:1050F000C8010E941EC8009711F0FC011082F8013F
:10510000CF0121912032E1F3B11007C0A11005C0F9
:10511000222319F00E949F9004C085EA96E00E9425
:10512000829381E00E947F900E9476720E9475B9FE
:1051300060934705709348058093490590934A050D
:10514000C114D104E104F104A9F00E9475B94B0126
:105150005C018C0C9D1CAE1CBF1C0E9475B96815AF
:1051600079058A059B05B8F40E94E194811113C06A
:105170000C9471380E94DF94882311F40C945C38ED
:105180000E94E19481110AC00E94267580E049DAEC
:105190000E940F94F5CF80E00E947F908091480795
:1051A000882331F086E996E00E9482930C945C3863
:1051B00088E896E00E9482930C945C388FE796E032
:1051C0000E9482935F988A989FB7F8948091080113
:1051D0008E7F809308019FBF12980C945C38EFE695
:1051E000F6E08491882341F09091C00095FFFCCFB8
:1051F0008093C6003196F5CF8091C00085FFFCCF2B
:105200008AE08093C60086E497E00E94B44CE1E611
:10521000F6E08491882341F09091C00095FFFCCF87
:105220008093C6003196F5CF8091C00085FFFCCFFA
:105230008AE08093C6000C945C3886E497E00E9474
:105240000D4D0C945C3886E497E00E94D14D0C948F
:105250005C3800914B0510914C050C5F1F4F6AE2C2
:1052600070E0C8010E941EC8009711F0FC01108276
:1052700021E041E0B80186E497E00E94AA510C9435
:105280005C3886E497E00E94D54D0E9475B9609322
:105290003F057093400580934105909342050C941F
:1052A0005C3886E497E00E94DC4D0C945C38809179
:1052B0004907882311F40C945C3883E50E94C81BCD
:1052C00081110C947A380C945C3886E497E00E9443
:1052D000804F0C945C3880914B0590914C056AE2AC
:1052E00070E004960E941EC88C010097D9F02091AE
:1052F00055053091560540E6429FC001439F900DF1
:1053000011246EE470E0855A9A4F0E941EC860E234
:1053100070E00E941EC8019690934C0580934B0547
:10532000F801108260914B0570914C056C5F7F4FC6
:1053300021E040E086E497E00E94AA510C945C389A
:1053400080914907882311F40C945C3860E086E46E
:1053500097E00E943A5180914B0590914C056AE28A
:1053600070E004960E941EC88C010097D9F020912D
:1053700055053091560540E6429FC001439F900D70
:1053800011246EE470E0855A9A4F0E941EC860E2B4
:1053900070E00E941EC8019690934C0580934B05C7
:1053A000F801108260914B0570914C056C5F7F4F46
:1053B00086E497E00E94404E0C945C388091480748
:1053C00081110E94767200914B0510914C050C5F83
:1053D0001F4F6AE270E0C8010E941EC87C0161E2B2
:1053E00070E0C8010E941EC8009719F08C010F5F81
:1053F0001F4FE114F10411F0F701108280E50E94C3
:10540000C81BF82E20914B0530914C05021713074D
:1054100008F4F12C80914907882311F40C945C382E
:1054200021E02F2541E0B80186E497E00E94AA51CF
:1054300083E50E94C81B8823B9F020914B05309169
:105440004C052017310780F40E94BD1BAB01BC0145
:105450004093C9095093CA096093CB097093CC0952
:1054600084E199E00E946C4086E497E00E94D54D6B
:10547000F1100C945C380E9475B960933F057093ED
:10548000400580934105909342050C945C388091CF
:105490004B0590914C056AE270E005960E941EC88B
:1054A0008C010097D9F0209155053091560540E6C2
:1054B000429FC001439F900D11246EE470E0855A15
:1054C0009A4F0E941EC860E270E00E941EC80196BA
:1054D00090934C0580934B05F801108260914B0529
:1054E00070914C056B5F7F4F86E497E00E94C95432
:1054F0000C945C380E9475B960933B0570933C0531
:1055000080933D0590933E0500913F051091400525
:105510002091410530914205601B710B820B930B6A
:1055200028EE33E040E050E00E9489C4CA01B9018E
:105530002CE330E040E050E00E9489C47F936F93F9
:105540003F932F9382E596E09F938F93CE01019630
:105550009F938F930E9456C8E0E6F9E084910FB6BE
:10556000F894DEBF0FBECDBF882349F09091C000F4
:1055700095FFFCCF8093C60031968491F5CFFE0154
:1055800031968191882339F09091C00095FFFCCF2E
:105590008093C600F6CF8091C00085FFFCCF8AE0E3
:1055A0008093C600CE0101960E949F908091BA1010
:1055B000882311F40C945C381092BA1000910F07F4
:1055C00010E0000F111F01521E4EF8016081718121
:1055D000882777FD8095982F0E945AC12091430219
:1055E0003091440240914502509146020E94BBC254
:1055F000181614F00C945C38F801118210820C9487
:105600005C3883E50E94C81B882311F40C945C3835
:105610000E94B41B0E9427C1F62EE72E862F9E2DD6
:105620008C0180E50E94C81B882331F00F3F1105D3
:1056300009F010F40C948A380DE010E0E0EEF3E08D
:10564000819191918017910711F40C945C3824E0BA
:10565000E831F207A9F70930110539F48F2D9E2D95
:1056600090930E0780930D0704C017FF02C00C949F
:105670005C3861E0802F0E9460BB6F2D802F0E94FC
:1056800099BB6F2D7E2D802F0E9448BA0C945C38F8
:1056900088E690E099D881110C945C3883E50E94EB
:1056A000C81B882371F000913A050E94B41B10E0DA
:1056B000000F111F01521E4E0E9427C1F801718375
:1056C00060830E94E0770C945C380E94F71E83E5AB
:1056D0000E94C81B882311F40C945C380E94B41BF0
:1056E0000E9427C17093DE116093DD110C945C3829
:1056F00089E690E069D881110C945C38ECE4F6E01E
:105700008491882341F09091C00095FFFCCF809355
:10571000C6003196F5CFE0913A0524E0E29FF00112
:105720001124E952FE4E408151816281738121E052
:1057300030E080EB94E00E94B017E9E4F6E0849159
:10574000882341F09091C00095FFFCCF8093C60064
:105750003196F5CFE0913A05F0E0EE0FFF1FE152F0
:10576000FE4E60817181882777FD8095982F0E9479
:105770005AC1AB01BC0121E030E080EB94E00E9413
:10578000B017E5E4F6E08491882341F09091C000E1
:1057900095FFFCCF8093C6003196F5CF4091D11193
:1057A0005091D2116091D3117091D41121E030E069
:1057B00080EB94E00E94B017E2E4F6E08491882345
:1057C00041F09091C00095FFFCCF8093C6003196C8
:1057D000F5CF6091DD117091DE11882777FD8095FE
:1057E000982F0E945AC1AB01BC0121E030E080EB50
:1057F00094E00E94B017EFE3F6E08491882341F033
:105800009091C00095FFFCCF8093C6003196F5CFF4
:105810004AE050E060E070E080EB94E00E94DA162D
:10582000EDE3F6E08491882341F09091C00095FF6C
:10583000FCCF8093C6003196F5CF4091D71150919F
:10584000D8116091D9117091DA1121E030E080EB2C
:1058500094E00E94B017EAE3F6E08491882341F0D7
:105860009091C00095FFFCCF8093C6003196F5CF94
:105870006091DF117091E011882777FD8095982F56
:105880000E945AC1AB01BC0121E030E080EB94E002
:105890000E94B017E6E3F6E08491882341F09091EE
:1058A000C00095FFFCCF8093C6003196F5CF809164
:1058B0003A0590E00E941B754AE050E0BC0180EB85
:1058C00094E00E94DA16E1E3F6E08491882341F047
:1058D0009091C00095FFFCCF8093C6003196F5CF24
:1058E0008FEF9FEF0E941B754AE050E0BC0180EBF8
:1058F00094E00E94DA168091C00085FFFCCF8AE018
:105900008093C6000C94E7398DE690E00E94E42372
:1059100081110C945C3886E296E00E94829310928A
:10592000BA1083E50E94C81B882391F000913A05C4
:105930000E94B41B10E0000F111F01521E4E0E9466
:1059400027C1F8017183608381E08093060215C04E
:1059500082E50E94C81B882381F000913A050E94CD
:10596000B41B10E0000F111F01521E4E0E9427C1F0
:10597000F801718360831092060283E50E94C81BC0
:10598000882351F00E94B41B609343027093440239
:10599000809345029093460282E40E94C81B8823AC
:1059A00051F00E94B41B60934702709348028093A9
:1059B000490290934A0286E40E94C81B882369F03A
:1059C0000E94B41B60933F02709340028093410297
:1059D0009093420281E08093BA100E94E0770E9487
:1059E00075B94B015C0100913A0510E0F801EE0F2A
:1059F000FF1FE152FE4E60817181882777FD8095FF
:105A0000982F0E945AC1F801EE0FFF1FEE0FFF1FE3
:105A1000E952FE4E11E020813181428153810E9482
:105A2000BBC218160CF010E01093380510920C074A
:105A3000CC24CA94DC2C760148EE442E43E0542E4C
:105A4000612C712C5AE0352E80910C0781110C9439
:105A50009138FFEFCF16DF06EF06FF0611F40C9426
:105A6000AA38F7FE02C00C9491380E9475B96C19DF
:105A70007D0968357B4110F40C94AA380C94913858
:105A800080E096E00E94829383E50E94C81B8823F1
:105A900061F00E94B41B0E9427C17093DE116093D5
:105AA000DD1181E0809306020FC082E50E94C81BD1
:105AB000882351F00E94B41B0E9427C17093DE110D
:105AC0006093DD11109206020E9475B94B015C01D2
:105AD00010920C076091DD117091DE11882777FD1F
