:100000000C947C250C94AD250C94AD250C94AD2559
:100010000C94AD250C94AD250C94AD250C94AD2518
:100020000C94AD250C94AD250C94AD250C94AD2508
:100030000C94AD250D943E0E0C94AD250C94AD257D
:100040000C94AD250C9490A60C94AD250C94AD2584
:100050000C94AD250C94AD250C941DB90D94AB0EEC
:100060000C94AD250C94342C0C94AD250C94AD253A
:100070000C94AD250C94AD250C94AD250C94AD25B8
:100080000C94AD250C94AD250C94AD250C94AD25A8
:100090000C94AD250C94AD250C94AD250C94AD2598
:1000A0000C94AD250C94AD250C94AD250C94AD2588
:1000B0000C94AD250C94AD250C94AD250C94AD2578
:1000C0000C94AD250C94AD250C94AD250C94AD2568
:1000D0000C94AD250C94AD250C94AD250C94AD2558
:1000E0000C94AD257BB98AB9A6B9B5B9CFB9DEB93B
:1000F000F8B9FCB9FEB902BA0ABA0F010D01EB005A
:10010000CB00DF00C900C700E300E500D90007010C
:10011000D7000301F700C900FD00D300EF000B0179
:10012000D500E700CF00CD001501DD000901010178
:10013000FF001301F300E100F50015011101F100CA
:100140001701084AD73B3BCE016E84BCBFFDC12FCF
:100150003D6C74319ABD56833DDA3D00C77F11BEB8
:10016000D9E4BB4C3E916BAAAABE000000803F05BB
:10017000A84CCDB2D44EB93836A9020C50B99186EC
:1001800088083CA6AAAA2ABE000000803F000D9461
:1001900009100D9478100D94F50F0D9495100D9491
:1001A0008F100D94F0110D9464100D949C100D940B
:1001B00037100D9423100D94BA0A0D94A0100D94CD
:1001C000FF0F0D94BC100D9411100D9419100D9487
:1001D0008B100D947B060D94EB0F0D9419120D945A
:1001E0006E100D94CA100D94B8100D94C0100D949B
:1001F00050100D949E170D94B6050D945A100D9441
:10020000AE100D94AA100D9446100D9471060D9425
:100210002D100D94A4100D9499100D94E60F0D94CB
:10022000E10F0D94C6100D94B2100D94D3100D94DF
:10023000CE1048617264636F6465642044656661D2
:10024000756C742053657474696E6773204C6F61AC
:100250006465640053746F726564207365747469B7
:100260006E677320726574726965766564002044F8
:10027000002049002020204D3330312050005049CB
:10028000442073657474696E67733A00205A0020C5
:10029000590020204D323036205800486F6D6520BF
:1002A0006F666673657420286D6D293A00204500DD
:1002B000205A0020580020420020540020204D32B7
:1002C0003035205300416476616E63656420766149
:1002D000726961626C65733A20533D4D696E2066A8
:1002E0006565647261746520286D6D2F73292C20FB
:1002F000543D4D696E2074726176656C206665654B
:10030000647261746520286D6D2F73292C20423D25
:100310006D696E696D756D207365676D656E7420AE
:1003200074696D6520286D73292C20583D6D6178A6
:10033000696D756D205859206A65726B20286D6D46
:100340002F73292C20205A3D6D6178696D756D20C1
:100350005A206A65726B20286D6D2F73292C20201E
:10036000453D6D6178696D756D2045206A65726BDC
:1003700020286D6D2F73290020540020204D32302D
:1003800034205300416363656C65726174696F6EFC
:100390003A20533D616363656C65726174696F6E89
:1003A0002C20543D726574726163742061636365CF
:1003B0006C65726174696F6E00204500205A0020E0
:1003C000590020204D3230312058004D6178696D40
:1003D000756D20416363656C65726174696F6E2031
:1003E000286D6D2F7332293A00204500205A0020D5
:1003F000590020204D3230332058004D6178696D0E
:10040000756D2066656564726174657320286D6D15
:100410002F73293A00204500205A0020590020203F
:100420004D39322058005374657073207065722006
:10043000756E69743A0053657474696E67732053FE
:10044000746F7265640053544F505045442E200021
:100450005072696E7465722073746F707065642079
:1004600064756520746F206572726F72732E2046FA
:10047000697820746865206572726F7220616E649D
:1004800020757365204D39393920746F207265737A
:10049000746172742E202854656D70657261747574
:1004A00072652069732072657365742E20536574BC
:1004B000206974206166746572207265737461725C
:1004C00074696E6729004B494C4C45442E200050FE
:1004D00072696E7465722068616C7465642E206B3D
:1004E000696C6C28292063616C6C656421006F6BFA
:1004F00000526573656E643A20000A00207A3A2043
:100500000020793A200020783A20004265640022D9
:1005100000556E6B6E6F776E20636F6D6D616E64EC
:100520003A2022004368616E67652066696C616DE0
:10053000656E74005A204F6666736574203A200019
:100540007A5F6D61783A20007A5F6D696E3A2000BB
:100550005A204F6666736574005A204F666673654D
:1005600074206F6B006C636420636F6E74726173D0
:10057000742076616C75653A20007A5F6D61783A17
:1005800020007A5F6D696E3A2000795F6D61783A7C
:100590002000795F6D696E3A2000785F6D61783A6E
:1005A0002000785F6D696E3A2000205A3A00205989
:1005B0003A0020436F756E7420583A200020453A67
:1005C00000205A3A0020593A00583A004649524D04
:1005D000574152455F4E414D453A4D61726C696ECF
:1005E00020312E302E322B20446576656C6F706D75
:1005F000656E742046726F6D20417263686976651E
:1006000020534F555243455F434F44455F55524C2D
:100610003A68747470733A2F2F6769746875622E24
:10062000636F6D2F4D61726C696E4669726D776193
:1006300072652F4D61726C696E2050524F544F435A
:100640004F4C5F56455253494F4E3A312E30204D54
:10065000414348494E455F545950453A4D656E6493
:10066000656C2045585452554445525F434F554E92
:10067000543A3120555549443A30303030303030DA
:10068000302D303030302D303030302D3030303073
:100690002D3030303030303030303030300A004D96
:1006A000656E64656C204F66662E004D656E6465F0
:1006B0006C2072656164792E0042656420646F6EFF
:1006C000652E0020423A0020453A00543A00426527
:1006D000642048656174696E672E004865617469BD
:1006E0006E6720646F6E652E0020573A0020453AF1
:1006F00000543A0048656174696E672E2E2E002002
:1007000042403A0020403A00202F003A0020540096
:10071000202F0020423A00202F006F6B20543A0017
:100720000A0A005374616E646172642044657669DC
:100730006174696F6E3A20000A004D65616E3A205F
:10074000000A002020207A3A200000793A20007820
:100750003A20003F537065636966696564206E7571
:100760006D626572206F66206C65677320696E200C
:100770006D6F76656D656E74206E6F7420706C6140
:10078000757361626C652E0A003F5370656369661C
:10079000696564205920706F736974696F6E206F8A
:1007A0007574206F662072616E67652E0A003F5374
:1007B0007065636966696564205820706F73697439
:1007C000696F6E206F7574206F662072616E676549
:1007D0002E0A003F53706563696669656420736122
:1007E0006D706C652073697A65206E6F7420706C13
:1007F00061757361626C652E0A0046756C6C2073BE
:100800007570706F72742061743A20687474703AF5
:100810002F2F33647072696E74626F6172642E631D
:100820006F6D2F666F72756D2E7068700A004D3493
:1008300038205A2D50726F62652052657065617460
:100840006162696C69747920746573742E2020204C
:1008500056657273696F6E20322E30300A003F5633
:100860006572626F7365204C6576656C206E6F747F
:1008700020706C61757361626C652E0A00256920B9
:100880006D696E2C2025692073656300456E6420B8
:1008900066696C65206C69737400426567696E20D7
:1008A00066696C65206C697374004E6F206D6F769D
:1008B000652E004D656E64656C2072656164792EED
:1008C00000526573756D696E67207072696E740091
:1008D0005761697420666F7220757365722E2E2EB3
:1008E000000A00205A3A200020593A200020583AA5
:1008F00020004265640020643A200020623A200013
:1009000045716E20636F656666696369656E7473B1
:100910003A20613A2000486F6D6520582F592062B7
:1009200065666F7265205A00486F6D6520582F59B3
:10093000206265666F7265205A005A2070726F627D
:1009400065206F75742E20626564005A2070726F86
:100950006265206F75742E2062656400486F6D6556
:1009600020582F59206265666F7265205A00486FC3
:100970006D6520582F59206265666F7265205A0098
:10098000536C6565702E2E2E00256920686F757278
:1009900073202569206D696E7574657300446F6EF0
:1009A00065207072696E74696E672066696C650097
:1009B00053544F505045442E20005072696E746558
:1009C000722073746F707065642064756520746F35
:1009D000206572726F72732E204669782074686584
:1009E000206572726F7220616E6420757365204D90
:1009F00039393920746F20726573746172742E20D6
:100A00002854656D70657261747572652069732014
:100A100072657365742E2053657420697420616655
:100A20007465722072657374617274696E672900EF
:100A30004E6F204C696E65204E756D626572207731
:100A400069746820636865636B73756D2C204C61F5
:100A50007374204C696E653A20004E6F20436865C0
:100A6000636B73756D2077697468206C696E65209F
:100A70006E756D6265722C204C617374204C696ECA
:100A8000653A2000636865636B73756D206D6973EB
:100A90006D617463682C204C617374204C696E65C1
:100AA0003A20004C696E65204E756D626572206952
:100AB00073206E6F74204C617374204C696E6520D6
:100AC0004E756D6265722B312C204C617374204C15
:100AD000696E653A20004D31313000446F6E6520FB
:100AE000736176696E672066696C652E006F6B00B6
:100AF0004D3239002020506C616E6E657242756611
:100B000066657242797465733A20002046726565A5
:100B1000204D656D6F72793A20004A756E20323231
:100B2000203230313600436F6D70696C65643A2055
:100B30000028444959452C205374616E64617264E5
:100B4000202B20414C204746584C43442900207C10
:100B500020417574686F723A20004A756E203232F7
:100B600020323031362031363A34393A31310020B2
:100B70004C61737420557064617465643A20002080
:100B8000312E302E322B004D61726C696E00205375
:100B90006F667477617265205265736574002057C3
:100BA00061746368646F67205265736574002042E6
:100BB000726F776E206F75742052657365740020B4
:100BC00045787465726E616C20526573657400506F
:100BD0006F776572557000737461727400220065DE
:100BE0006E717565696E672022002200656E7175F1
:100BF00065696E67202200FFFFFF0000A040000033
:100C0000A0400000004000004843000048430000AE
:100C10004843000000000000000000000000000049
:100C20004843000048430000484300000000000023
:100C30000000000000006563686F3A004572726F43
:100C4000723A007C3C3E5E2B3D3F2F5B5D3B2C2A85
:100C5000225C004D383420582059205A204500434A
:100C6000616E6E6F7420656E746572207375626458
:100C700069723A20004D3234004D32332025730022
:100C80006175746F25692E67006572726F722077C7
:100C9000726974696E6720746F2066696C65004EB6
:100CA0006F74205344207072696E74696E67002FF0
:100CB000005344207072696E74696E6720627974A3
:100CC0006520002E0044656C6574696F6E20666156
:100CD000696C65642C2046696C653A200046696C35
:100CE000652064656C657465643A002E006F7065FC
:100CF0006E206661696C65642C2046696C653A20DB
:100D00000057726974696E6720746F2066696C653C
:100D10003A20002E006F70656E206661696C656414
:100D20002C2046696C653A20002E006F70656E209D
:100D30006661696C65642C2046696C653A200046E2
:100D4000696C652073656C65637465640020536924
:100D50007A653A200046696C65206F70656E65643F
:100D60003A20002E006F70656E206661696C6564C4
:100D70002C2046696C653A20004E6F7720667265BC
:100D800073682066696C653A20004E6F7720646F47
:100D9000696E672066696C653A20002220706F7367
:100DA000002220706172656E743A220053554252DF
:100DB0004F5554494E452043414C4C207461726755
:100DC00065743A2200747279696E6720746F2063CB
:100DD000616C6C207375622D67636F646520666952
:100DE0006C6573207769746820746F6F206D616E15
:100DF00079206C6576656C732E204D4158206C65AA
:100E000076656C2069733A005344206361726420F4
:100E10006F6B006F70656E526F6F74206661696CE6
:100E2000656400766F6C756D652E696E69742066F9
:100E300061696C656400534420696E697420666161
:100E4000696C0020746F6F206C6F6E67206578741A
:100E5000727573696F6E2070726576656E74656405
:100E60000020636F6C6420657874727573696F6EAF
:100E70002070726576656E74656400656E64737467
:100E80006F7073206869743A205A00205A3A0065DE
:100E90006E6473746F7073206869743A205900200F
:100EA000593A00656E6473746F7073206869743AA0
:100EB00020580020583A00656E6473746F70732078
:100EC0006869743A200024F4D43050C38E20C2A242
:100ED0004017828B7011127A910D816CD90AA8612A
:100EE000E108C7586607615143061E4B5D05C145C1
:100EF000A7041A411104093D9803713931034036A2
:100F0000DB0265339102D4305402802E1D02632C23
:100F1000EE01752AC501B028A001102781018F2597
:100F200064012B244B01E0223401AC211F018D20F0
:100F30000D01801FFC00841EED00971DDF00B81C12
:100F4000D200E61BC600201BBC00641AB200B21916
:100F5000A8000A19A0006A189900D117910040173B
:100F60008B00B516840031167E00B31579003A1552
:100F70007300C7146F0058146A00EE1366008813DC
:100F8000630025135E00C7125B006C125700151238
:100F90005400C111510070114F0021114B00D610A7
:100FA00049008D1047004610440002104200C00F57
:100FB0004000800F3E00420F3C00060F3B00CB0E6E
:100FC0003800930E37005C0E3500270E3400F30D09
:100FD0003200C10D3100900D3000600D2E00320D39
:100FE0002D00050D2C00D90C2B00AE0C2900850C12
:100FF00029005C0C2700350C27000E0C2600E80B9E
:101000002400C40B2400A00B23007D0B23005A0BEB
:101010002100390B2100180B2000F80A1F00D90A03
:101020001E00BB0A1E009D0A1D00800A1D00630AE7
:101030001C00470A1B002C0A1B00110A1A00F709A2
:101040001A00DD091900C4091900AB091900920939
:1010500017007B091800630917004C0916003609B0
:101060001600200916000A091500F5081500E00809
:101070001400CC081400B8081400A4081400900848
:1010800013007D0812006B08130058081200460870
:101090001200340811002308110012081100010881
:1010A0001100F0071000E0071000D0071000C00783
:1010B0001000B0070F00A107100091070E00830772
:1010C0000F0074070F0065070E0057070E00490751
:1010D0000E003B070D002E070E0020070D00130722
:1010E0000D0006070D00F9060C00ED060D00E006E8
:1010F0000C00D4060C00C8060C00BC060C00B006A0
:101100000C00A4060B0099060C008D060B0082064D
:101110000B0077060B006C060B0061060A005706F1
:101120000B004C060A0042060A0038060A002E068A
:101130000A0024060A001A060A001006090007061B
:101140000A00FD050900F4050900EB050900E205A8
:101150000900D9050900D0050900C7050900BE0529
:101160000900B5050800AD050800A50509009C05A6
:101170000800940508008C050800840508007C051B
:101180000800740508006C050700650508005D058A
:101190000700560508004E050700470507004005F3
:1011A000080038050700310507002A050700230558
:1011B00007001C050600160507000F0507000805B7
:1011C000060002050700FB040600F5040700EE0414
:1011D0000600E8040600E2040700DB040600D5046C
:1011E0000600CF040600C9040600C3040600BD04BF
:1011F0000600B7040600B1040500AC040600A6040E
:101200000600A00405009B04060095040500900458
:1012100006008A04050085040500800406007A049F
:10122000050075040500700405006B0405006604E4
:101230000500610405005C04050057040500520424
:1012400005004D04050048040500430405003E0464
:1012500004003A04050035040500300404002C04A1
:10126000050027040400230405001E0404001A04DA
:10127000040016040500110404000D040400090410
:1012800005000404040000040400FC030400F80347
:101290000400F4030400F0030400EC030400E8037A
:1012A0000400E4030400E0030400DC030400D803AA
:1012B0000400D4030400D0030400CC030400C803DA
:1012C0000300C503030024F404D9201BC40C5C0EE6
:1012D0009804C4095F0265077101F405F900FB0475
:1012E000B30048048700C103690058035500030395
:1012F0004500BE023A008402310053022A0029024E
:10130000250004022000E4011C00C8011900AF01FF
:10131000170098011400840113007101100061018D
:10132000100051010E0043010D0036010B002B018E
:101330000B0020010B00150109000C01090003013D
:101340000800FB000800F3000800EB000700E400C1
:101350000600DE000600D8000600D2000600CC0021
:101360000500C7000500C2000500BD000400B9006B
:101370000400B5000400B1000400AD000400A900A1
:101380000400A5000300A20003009F0004009B00CE
:1013900003009800030095000200930003009000F2
:1013A00003008D0002008B0003008800020086000D
:1013B000020084000300810002007F0002007D0023
:1013C00002007B0002007900020077000100760035
:1013D00002007400020072000100710002006F0040
:1013E00002006D0001006C0002006A00010069004B
:1013F0000200670001006600010065000100640052
:1014000002006200010061000100600001005F0055
:1014100002005D0001005C0001005B0001005A0059
:10142000010059000100580001005700010056005A
:10143000010055000100540001005300000053005A
:1014400001005200010051000100500001004F0056
:1014500001004E0000004E0001004D0001004C0054
:1014600001004B0000004B0001004A000100490050
:10147000010048000000480001004700010046004C
:101480000000460001004500000045000100440046
:101490000100430000004300010042000000420040
:1014A00001004100000041000100400001003F0038
:1014B00000003F0001003E0000003E0001003D0032
:1014C00000003D0001003C0000003C0000003C002A
:1014D00001003B0000003B0001003A0000003A0020
:1014E0000100390000003900010038000000380018
:1014F000000038000100370000003700010036000E
:101500000000360000003600010035000000350004
:1015100000003500010034000000340000003400F9
:1015200001003300000033000000330001003200EE
:1015300000003200000032000100310000003100E4
:1015400000003100010030000000300000003000D9
:1015500001002F0000002F0000002F0000002F00CE
:1015600001002E0000002E0000002E0001002D00C2
:1015700000002D0000002D0000002D0001002C00B7
:1015800000002C0000002C0000002C0001002B00AB
:1015900000002B0000002B0000002B0001002A009F
:1015A00000002A0000002A0000002A000100290093
:1015B0000000290000002900000029000000290087
:1015C000010028000000280000002800000028007A
:1015D000000028000100270000002700000027006D
:1015E0000000270000002700010026000000260060
:1015F0000000260000002600000026000100250053
:101600000000250000002500000025000000250046
:101610000000250001002400000024000000240038
:10162000000024000000240001002300000023002B
:10163000000023000000230000002300000023001E
:101640000000230001002200000022000000220010
:101650000000220000002200000022000100210002
:1016600000002100000021000000210000002100F6
:1016700000002100000021000100200000002000E7
:1016800000002000000020000000200000002000DA
:10169000000020000000200001001F0000001F00CB
:1016A00000001F0000001F0000001F0000001F00BE
:1016B00000001F0001001E0000001E0000001E00B0
:1016C00000001E0000004572723A204D41585445FA
:1016D0004D50204245440054656D706572617475CB
:1016E0007265206865617465642062656420737743
:1016F000697463686564206F66662E204D41585496
:10170000454D5020747269676765726564202121B8
:10171000004572723A204D494E54454D50003A20D2
:10172000457874727564657220737769746368654F
:1017300064206F66662E204D494E54454D502074EE
:1017400072696767657265642021004572723A208C
:101750004D415854454D50003A2045787472756497
:101760006572207377697463686564206F66662E9E
:10177000204D415854454D50207472696767657219
:101780006564202100202D20496E76616C696420FB
:101790006578747275646572206E756D626572200D
:1017A0002100504944204175746F74756E65206640
:1017B000696E69736865642120507574207468656A
:1017C000206C617374204B702C204B6920616E6417
:1017D000204B6420636F6E7374616E747320667245
:1017E0006F6D2061626F766520696E746F20436F44
:1017F0006E66696775726174696F6E2E6800504914
:1018000044204175746F74756E65206661696C65FE
:1018100064212074696D656F75740020403A006F13
:101820006B20543A006F6B20423A005049442041EB
:1018300075746F74756E65206661696C65642120CE
:1018400054656D706572617475726520746F6F2078
:101850006869676800204B643A2000204B693A2091
:1018600000204B703A200020436C61737369632041
:1018700050494420002054753A2000204B753A20EE
:1018800000206D61783A2000206D696E3A200020BA
:10189000643A200020626961733A200070012C01D3
:1018A00090012701B0012201C0011D01F0011801C2
:1018B0001002130130020E016002090190020401BE
:1018C000C002FF000003FA004003F5008003F000AF
:1018D000D003EB002004E6007004E100E004DC002B
:1018E0004005D700C005D2004006CD00D006C80094
:1018F0008007C3003008BE00F008B900C009B4007A
:10190000B00AAF00B00BAA00D00CA500000EA000DA
:10191000500F9B00C01096005012910000148C00D4
:10192000C0158700B0178200B0197D00D01B780069
:10193000001E730040206E0090226900F0246400B5
:1019400040275F0090295A00E02B5500102E5000D0
:1019500020304B0010324600E033410090353C000F
:101960001037370070383200A0392D00B03A280007
:10197000A03B2300603C1E00103D1900903D140068
:10198000103E0F00703E0A00C03E0500003F000000
:10199000436172642072656D6F76656400436172A5
:1019A0006420696E736572746564004D3330302055
:1019B000533639382050323030004D3330302053D8
:1019C000363539205032303000B02000B020005978
:1019D000002D2D3A2D2D004261627973746570706F
:1019E000696E67205800426162797374657070692E
:1019F0006E67205900426162797374657070696E18
:101A000067205A004D363030004368616E676520AC
:101A100066696C616D656E740042616279737465AC
:101A200070205A00426162797374657020590042D7
:101A300061627973746570205800466C6F7720304E
:101A400000466C6F77203000466C6F7700466C6FF5
:101A5000770046616E2073706565640046616E2094
:101A600073706565640042656400426564004E6F92
:101A70007A7A6C65004E6F7A7A6C65005370656592
:101A800064005370656564004D61696E0050726555
:101A90006865617420504C41204265640050726555
:101AA0006865617420504C4120310050726570614E
:101AB000726500507265686561742041425320422E
:101AC000656400507265686561742041425320313D
:101AD000005072657061726500580059005A0045E7
:101AE0007874727564657200457874727564657295
:101AF000004D6F7665205A004D6F76652059004D78
:101B00006F76652058004D6F7665206178697300A7
:101B10004D6F766520302E316D6D004D6F766520EE
:101B2000316D6D004D6F76652031306D6D005072F6
:101B30006570617265004D6F76652061786973002C
:101B40004D38300053776974636820706F77657221
:101B5000206F6E004D3831005377697463682070D0
:101B60006F776572206F666600436F6F6C646F7786
:101B70006E00507265686561742041425300507276
:101B8000656865617420504C410053657420686F2E
:101B90006D65206F66667365747300473238004167
:101BA00075746F20686F6D65004D3834004469733B
:101BB00061626C65207374657070657273004D614D
:101BC000696E0053746F7265206D656D6F72790078
:101BD00042656400426564004E6F7A7A6C65004E1F
:101BE0006F7A7A6C650046616E207370656564007B
:101BF00046616E2073706565640054656D70657232
:101C000061747572650053746F7265206D656D6FD8
:101C100072790042656400426564004E6F7A7A6CA6
:101C200065004E6F7A7A6C650046616E2073706550
:101C300065640046616E2073706565640054656D6F
:101C40007065726174757265005072656865617463
:101C50002041425320636F6E660050726568656173
:101C60007420504C4120636F6E66005049442D43F0
:101C7000005049442D43005049442D4400504944EC
:101C80002D44005049442D49005049442D490050ED
:101C900049442D50005049442D50002002204661F7
:101CA00063740020022046616374002002204D61AD
:101CB00078002002204D6178002002204D696E00DE
:101CC0002002204D696E004F6666004F6E20004F67
:101CD0006666004F6E20004175746F74656D70000C
:101CE00046616E2073706565640046616E20737096
:101CF0006565640042656400426564004E6F7A7AEF
:101D00006C65004E6F7A7A6C6500436F6E74726F0B
:101D10006C004573746570732F6D6D004573746549
:101D200070732F6D6D005A73746570732F6D6D0035
:101D30005A73746570732F6D6D0059737465707389
:101D40002F6D6D005973746570732F6D6D0058732E
:101D5000746570732F6D6D005873746570732F6D9B
:101D60006D00412D7265747261637400412D72655E
:101D7000747261637400416D6178206500416D612A
:101D800078206500416D6178207A00416D6178208E
:101D90007A00416D6178207900416D617820790089
:101DA000416D6178207800416D617820780056544B
:101DB000726176206D696E005654726176206D698D
:101DC0006E00566D696E00566D696E00566D6178D5
:101DD000206500566D6178206500566D6178207A27
:101DE00000566D6178207A00566D61782079005632
:101DF0006D6178207900566D6178207800566D61AC
:101E00007820780056652D6A65726B0056652D6ADC
:101E100065726B00567A2D6A65726B00567A2D6A70
:101E200065726B005678792D6A65726B0056787909
:101E30002D6A65726B00416363656C004163636585
:101E40006C005A204F6666736574005A204F6666B0
:101E500073657400436F6E74726F6C0046696C2E0C
:101E6000204469612E20310046696C2E204469614E
:101E70002E2031004F6666004F6E20004F666600D0
:101E80004F6E20004520696E206D6D3300436F6EEC
:101E900074726F6C004C434420636F6E7472617394
:101EA0007400526573746F7265206661696C73614A
:101EB0006665004C6F6164206D656D6F72790053CB
:101EC000746F7265206D656D6F7279004C434420AC
:101ED000636F6E74726173740046696C616D656ED8
:101EE00074004D6F74696F6E0054656D706572613A
:101EF00074757265004D61696E004D38342058204C
:101F000059205A2045004D3234004D32332025737C
:101F100000F92E2E004D61696E004E6F2053442053
:101F200063617264005072696E742066726F6D2016
:101F300053440053746F70207072696E7400526560
:101F400073756D65207072696E740050617573658C
:101F5000207072696E7400436F6E74726F6C005003
:101F60007265706172650054756E6500496E666FCA
:101F70002073637265656E0000060900FE07019913
:101F8000032B20FFFE08FE07FE00000006000001F4
:101F9000070706020080808080800080030303061C
:101FA0000104A0A0A00507070600005050F850F853
:101FB00050500507070600002070A070287020050B
:101FC000070706000048A8502050A89005070706FC
:101FD000000040A0A040A89068010303060204800E
:101FE0008080030707060100204080808040200396
:101FF00007070601008040202020408005050506D7
:1020000000018850F850880505050600012020F8D9
:1020100020200303030601FF604080050101060044
:1020200003F80303030601FF40E04005070706002D
:102030000008081020408080050707060000205097
:1020400088888850200507070600002060A020200F
:1020500020F8050707060000708808304080F80562
:102060000707060000F80810300888700507070603
:10207000000010305090F81010050707060000F817
:1020800080B0C8088870050707060000304080B09F
:10209000C88870050707060000F8081010204040A7
:1020A0000507070600007088887088887005070794
:1020B000060000708898680810600307070601FF93
:1020C00040E0400040E0400307070601FF40E040D9
:1020D0000060408004070706010010204080402077
:1020E00010050303060002F800F8040707060100C4
:1020F00080402010204080050707060000708810EF
:1021000020200020050707060000708898A8B080EE
:102110007005070706000020508888F888880507A2
:1021200007060000F04848704848F0050707060019
:102130000070888080808870050707060000F048DE
:1021400048484848F0050707060000F88080F080FE
:1021500080F8050707060000F88080F08080800581
:1021600007070600007088808098887005070706BA
:102170000000888888F8888888030707060100E03F
:102180004040404040E005070706000038101010AE
:102190001090600507070600008890A0C0A09088F6
:1021A000050707060000808080808080F80507070B
:1021B0000600008888D8A8888888050707060000D8
:1021C0008888C8A89888880507070600007088884E
:1021D00088888870050707060000F08888F08080EE
:1021E000800508080600FF7088888888A8700805A0
:1021F0000707060000F08888F0A09088050707060A
:10220000000070888070088870050707060000F8D5
:1022100020202020202005070706000088888888C5
:10222000888870050707060000888888505050206D
:10223000050707060000888888A8A8D8880507072A
:10224000060000888850205088880507070600008F
:1022500088885020202020050707060000F8081075
:10226000204080F8030707060100E080808080801E
:10227000E0050707060000808040201008080307DB
:1022800007060100E02020202020E00503030600CF
:10229000042050880501010600FFF8020202060230
:1022A0000680400505050600007008788878050757
:1022B000070600008080B0C888C8B0050505060084
:1022C0000070888088700507070600000808689875
:1022D0008898680505050600007088F88070050775
:1022E00007060000304840F0404040050707060060
:1022F000FE788888780888700507070600008080C7
:10230000B0C88888880307070601004000C0404025
:1023100040E00409090601FE1000301010109090F2
:102320006005070706000080808890E0908803071A
:1023300007060100C04040404040E005050506009A
:1023400000D0A8A8A888050505060000B0C88888A0
:10235000880505050600007088888870050707064F
:1023600000FEB0C888C8B080800507070600FE6878
:10237000988898680808050505060000B0C88080A0
:102380008005050506000070807008F00507070647
:1023900000004040F0404048300505050600008838
:1023A0008888986805050506000088885050200533
:1023B00005050600008888A8A85005050506000048
:1023C00088502050880507070600FE88889868080E
:1023D0008870050505060000F8102040F80407077E
:1023E000060100304020C0204030010707060200EF
:1023F00080808080808080040707060100C0204024
:10240000304020C005030306000448A890000000E7
:1024100001000000000001000000000001000000B9
:1024200000000100000000000100000000000100A9
:10243000000000000100000000000100000000009A
:102440000100000000000100000000000100000089
:102450000000010000000000010000000000010079
:10246000000000000100000000000100000000006A
:102470000100000000000100000000000100000059
:102480000000010000000000010000000000010049
:10249000000000000100000000000100000000003A
:1024A0000100000000000100000000000100000029
:1024B0000000010000000000010000000000010019
:1024C000000000000100000000000100000000000A
:1024D000010000000000060000010707060200805E
:1024E0000080808080800507070600FF2078A0A07C
:1024F000A07820050707060000304840E04048B0BB
:10250000050505060000887050708805080806005B
:10251000FF88885020F8202020010707060200804D
:102520008080008080800508080600FF7080E090B1
:1025300048380870030101060107A00507070600D7
:10254000007088A8C8A8887004060606010170906B
:10255000B05000F006050506000024489048240409
:102560000202060102F010040101060103F0050752
:10257000070600007088E8C8C888700501010600D9
:1025800007F803030306010440A040050606060001
:10259000002020F82020F8040505060103609020A3
:1025A00040F0040505060103E0106010E00202029D
:1025B00006020640800506060600FF888888C8B027
:1025C0008005070706000078E8E868282828010148
:1025D00001060203800202020602FE408003050596
:1025E00006010340C04040E0040606060101609079
:1025F000906000F00605050600009048244890060B
:1026000009090600FF40C04040E40C143C040609E0
:10261000090600FF40C04040E81404081C050909F1
:102620000600FFC0204020C81828780805070706C4
:1026300000002000202040887005080806000040A7
:1026400020708888F8888805080806000010207027
:102650008888F88888050808060000205070888857
:10266000F8888805080806000048B0708888F8884F
:10267000880508080600005000708888F8888805DA
:1026800008080600002050708888F8888806070728
:102690000600003C50909CF0909C0509090600FE45
:1026A00070888080808870204005080806000040FF
:1026B000F88080F08080F805080806000010F88097
:1026C00080F08080F805080806000020F88080F07F
:1026D0008080F805080806000050F88080F08080AF
:1026E000F80308080601008040E040404040E00355
:1026F00008080601002040E040404040E003080890
:1027000006010040A0E040404040E0030808060108
:1027100000A000E040404040E0050707060000F050
:102720004848E84848F0050808060000285088C8CE
:10273000A8988888050808060000402070888888C6
:102740008870050808060000102070888888887046
:1027500005080806000020507088888888700508E1
:1027600008060000285070888888887005080806C8
:1027700000005000708888888870050505060000F4
:102780008850205088050707060000709898A8C850
:10279000C87005080806000040208888888888706E
:1027A00005080806000010208888888888700508B9
:1027B00008060000205000888888887005080806F0
:1027C0000000500088888888887005080806000086
:1027D000102088885020202005070706000080F080
:1027E00088F0808080050707060000708890A09020
:1027F00088B0050808060000402000700878887836
:102800000508080600001020007008788878050880
:10281000080600002050007008788878050808062F
:102820000000285000700878887805070706000027
:1028300050007008788878050808060000205020AD
:10284000700878887806050506000078147C907C6E
:102850000507070600FE708880887020400508087C
:102860000600004020007088F88070050808060007
:10287000001020007088F88070050808060000200D
:1028800050007088F880700507070600005000703F
:1028900088F88070030808060100804000C04040AE
:1028A00040E0030808060100408000C0404040E0CE
:1028B00003080806010040A000C0404040E0060AAE
:1028C0000A0600FEA4A800FC8480808084FC060A1E
:1028D0000A0600FE549400FC8404040484FC0508E9
:1028E00008060000285000B0C88888880508080637
:1028F00000004020007088888870040A0A0602FEE2
:1029000030408090909090909090040A0A0600FECB
:10291000C0201090909090909090060707060001BC
:10292000448C8C8480403C06070706000188C4C4A0
:10293000840408F00505050600012000F8002005C4
:10294000080806000040F0C8888898781005080834
:10295000060000E0F88888888888F80505050600E4
:10296000012030F830200508080600002070F8200B
:10297000202020E00509090600FF2070A8A8B888DB
:102980008850200509090600FFE080C0B0A8A830E3
:1029900028280509090600FFF8A88888888888A8DB
:1029A000F8050A0A0600FE205050505088A8A88852
:1029B0007000060900FE06018902FE20FFFE07FEE8
:1029C00006FE0000000600070106060602008080E1
:1029D00080800080030303060103A0A0A005070771
:1029E0000600FF5050F850F850500509090600FE47
:1029F0002070A8A07028A870200608080600FF40D4
:102A0000A84810204854080507070600FF6090906A
:102A10006098906801030306020380808002070724
:102A20000602FF408080808080400207070602FF88
:102A3000804040404040800505050600008850F871
:102A400050880505050600002020F8202002040417
:102A50000602FEC0404080050101060002F80202A5
:102A600002060200C0C00406060601001010204045
:102A70008080040606060100609090909060030636
:102A80000606010040C0404040E004060606010082
:102A90006090102040F0040606060100F02060104F
:102AA00010E005060606000010305090F8100406ED
:102AB00006060100F080E01010E0040606060100A2
:102AC0006080E0909060040606060100F01010207F
:102AD0004040040606060100609060909060040685
:102AE0000606010060909070106002050506020065
:102AF000C0C000C0C00207070602FEC0C000C04040
:102B00004080050505060000186080601805030375
:102B1000060001F800F8050505060000C030083081
:102B2000C0040707060100609010604000400506E1
:102B3000060600007090A8B080700506060600002A
:102B4000205088F88888050606060000F088F0887E
:102B500088F00406060601006090808090600406FC
:102B600006060100E090909090E004060606010041
:102B7000F080E08080F0040606060100F080E0802E
:102B80008080040606060100609080B09060040614
:102B9000060601009090F090909003060606010052
:102BA000E040404040E005060606000038101010E6
:102BB000906004060606010090A0C0A09090040654
:102BC000060601008080808080F005060606000071
:102BD00088D8A8A8888804060606010090D0B0907E
:102BE00090900506060600007088888888700406A4
:102BF00006060100E09090E080800407070601FFD0
:102C0000609090D0B06010040606060100E090903D
:102C1000E090900406060601006090402090600558
:102C20000606060000F820202020200406060601E3
:102C3000009090909090600406060601009090909D
:102C4000F060600506060600008888A8A8D88805F8
:102C5000060606000088502020508805060606005B
:102C600000888850202020040606060100F010206D
:102C70004080F0030606060100E080808080E004CA
:102C8000060606010080804020101003060606019B
:102C900000E020202020E0050303060003205088E8
:102CA0000501010600FEF80202020602048040044B
:102CB000040406010070909070040606060100806E
:102CC00080E09090E00404040601007080807004AD
:102CD00006060601001010709090700404040601AE
:102CE0000060B0C070040606060100205040E040BD
:102CF000400406060601FE6090907010600406060F
:102D00000601008080E090909003060606010040D6
:102D100000C04040E00308080601FE2000602020BB
:102D200020A0400406060601008080A0C0A09003F9
:102D30000606060100C040404040E00504040600CD
:102D400000D0A8A888040404060100E09090900434
:102D50000404060100609090600406060601FEE08F
:102D60009090E080800406060601FE70909070103E
:102D700010040404060100A0D080800404040601AD
:102D80000070C030E00406060601004040E04050FC
:102D900020040404060100909090700404040601CD
:102DA000009090606005040406000088A8A8500404
:102DB0000404060100906060900406060601FE907F
:102DC0009090709060040404060100F02040F0032D
:102DD0000707060100204040804040200107070609
:102DE00002FF8080808080808003070706010080CA
:102DF00040402040408004020206010350A0FFFF33
:102E0000FFFFFFFFFFFFFFFFFFFFFFFFFFFFFFFFD2
:102E1000FFFFFFFFFFFFFFFFFFFFFFFFFFFFFF00C1
:102E20000000060007010606060200800080808080
:102E3000800406060601FF2070A0A0702005070789
:102E40000600FF304840F04040F805050506000048
:102E5000A8508850A80506060600008850F820F8FB
:102E6000200107070602FF80808000808080040721
:102E7000070601FF708060906010E0030101060109
:102E800005A0060707060000788494A494847803BC
:102E9000050506010160A06000E0050505060000CB
:102EA0002850A05028040303060100F0101004016C
:102EB00001060102F00607070600007884B4A4A406
:102EC0008478040101060105F00403030601026091
:102ED00090600507070600FF2020F8202000F80377
:102EE000050506010140A02040E00305050601019B
:102EF000C0204020C00202020602044080040505F2
:102F00000601FF9090B0D08005060606000078E824
:102F1000E868282801010106020280020202060276
:102F2000FE408003050506010140C04040E0030566
:102F30000506010140A04000E0050505060000A0CF
:102F4000502850A00508080600FF40C040507030CF
:102F500078100508080600FF40C040506808103887
:102F60000508080600FFC0204030F0307810040744
:102F7000070601002000206080906005070706001A
:102F800000402020507088880507070600001020A8
:102F900020507088880507070600002050205070D8
:102FA000888805070706000028502050708888058B
:102FB00007070600005000205070888805070706A4
:102FC0000000205020507088880506060600007812
:102FD000A0F0A0A0B80408080601FE6090808090D0
:102FE0006020400407070601004020F080E080F0E8
:102FF0000407070601002040F080E080F004070786
:103000000601002050F080E080F004070706010070
:103010005000F080E080F00307070601008040E0E8
:10302000404040E00307070601002040E0404040E8
:10303000E003070706010040A0E0404040E003072E
:1030400007060100A000E0404040E005060606003B
:10305000007048E848487004070706010050A09037
:10306000D0B0909004070706010040206090909037
:1030700060040707060100204060909090600407FC
:103080000706010020506090909060040707060139
:103090000050A06090909060040707060100500067
:1030A00060909090600505050600008850205088CB
:1030B0000408080601FF1070B0B0D0D0E08004070B
:1030C00007060100402090909090600407070601D9
:1030D0000020409090909060040707060100205067
:1030E0009090909060040707060100500090909027
:1030F000906005070706000010208850202020045B
:10310000060606010080E09090E0800406060601B5
:10311000006090A0A090A0040707060100402000D6
:103120007090907004070706010020400070909096
:10313000700407070601002050007090907004078B
:103140000706010050A0007090907004060606016A
:103150000050007090907004070706010020502076
:103160007090907005040406000070A8B078040602
:10317000060601FE708080702040040707060100EB
:1031800040200060B0C07004070706010020400026
:1031900060B0C07004070706010020500060B0C096
:1031A00070040606060100500060B0C070030707F7
:1031B000060100804000C04040E003070706010010
:1031C000204000C04040E003070706010040A00087
:1031D000C04040E0030606060100A000C04040E0F9
:1031E0000407070601003060107090906004070724
:1031F00006010050A000E09090900407070601002F
:103200004020006090906004070706010020400005
:1032100060909060040707060100205000609090C5
:103220006004070706010050A0006090906004064B
:10323000060601005000609090600505050600003C
:103240002000F8002004040406010070B0D0E0045F
:1032500007070601004020009090907004070706C1
:1032600001002040009090907004070706010020A4
:103270005000909090700406060601005000909057
:1032800090700409090601FE204000909090709013
:10329000600408080601FE8080E09090E0808004D1
:1032A00008080601FE5000909090709060000000A9
:1032B0000000000000000000007FFFE000000000B0
:1032C00000000000000000007000E00000000000AE
:1032D0000000000000000061F86000000000000035
:1032E00000000000000041F8200000000000000085
:1032F000000000000040F02000000000000000007E
:1033000000000000406020000000000000000000FD
:103310000000005801A07F80000000000000004174
:1033200004005C63A0FFC0000000000000002082D9
:10333000005EF7A0FFC00000000000000020820037
:103340005EF7A0FFC0000000000000004104005C28
:1033500063A07F8000000000000000820800580188
:10336000A07F8000000000000001041000406020E9
:10337000FFC00000000000000104100040F020FF2A
:10338000C00000000000000082080041F820FFC0DB
:103390000000000000000041040061F8603F0000F0
:1033A0000000000000000000007000E01E000000AF
:1033B0000000000001FFFF807FFFE00C0000000024
:1033C00000000001FFFF800000000000000000007E
:1033D0000000000000007FFFE0000000000000008F
:1033E00000000000007000E000000000000000008D
:1033F00000000000630C60000000000000000000FE
:10340000000000470E200000000000000000000047
:1034100000004F0F2000000000000000000000002E
:10342000005F0FA00000000000000000000000008E
:103430005E07A07F80000000000000004104004003
:103440006020FFC00000000000000020820040F06B
:1034500020FFC00000000000000020820040F0209B
:10346000FFC0000000000000004104004060207F19
:1034700080000000000000008208005E07A07F803E
:10348000000000000000010410005F0FA0FFC0005A
:103490000000000000010410004F0F20FFC00000DA
:1034A0000000000000820800470E20FFC00000005E
:1034B00000000000410400630C603F0000000000B9
:1034C0000000000000007000E01E0000000000008E
:1034D0000001FFFF807FFFE00C0000000000000003
:1034E00001FFFF80000000000000000000000F004E
:1034F0000000000000000F000000000000000F00AE
:103500000000000000000F000000000000000F009D
:103510000000000000000F000000000000000F008D
:103520000000000000000F000000000000000F007D
:103530000000000000000F000000000000000F006D
:103540000000000000000F000000000000000F005D
:103550000000000000000F000000000000000F004D
:103560000000000000000F000000000000000F003D
:103570000000000000000F000000000000000F002D
:103580000000000000000F0FFFFFFFFFFFFFEF3004
:1035900000000000007FFF6000000000001FFF40EF
:1035A00000000000000FFF4000000001800FFF83BB
:1035B000EFC000018C07FF87FFE000018C03FF864E
:1035C000386000018001FF861863E0F98C7CFF867B
:1035D0001867F1FD8CFE7F86186E318D8CC63F8694
:1035E000186C398D8CC71F86186C19818CC71F8683
:1035F000186C19818CC71F86186F9F81CDC71F0655
:103600001867DF80EFC71F4418619F002FC22F404B
:103610000000000000002F200000000000004F1FED
:10362000FFFFFFFFFFFF8F000000000000000F0002
:103630000000000000000F000000000000000F006C
:103640000000000000000F000000000000000F005C
:103650000000000000000F000000000000000F004C
:103660000000000000000F000000000000000F003C
:103670000000000000000F000000000000000F002C
:103680000000000000000F000000000000000F001C
:103690000000000000000F000000000000000F000C
:1036A0000000000000000F000000000000000F00FC
:1036B0000000000000000F000000000000000F00EC
:1036C0000000000000000F000000000000000000EB
:1036D00000000000000000000000000000000000EA
:1036E00000000000000000000000000000000000DA
:1036F00000000000000000000000000000000000CA
:1037000000000000000000000000000000000000B9
:1037100000000000000000000000000000000000A9
:1037200000000000000A00207A3A200020793A20A8
:103730000020783A20000200000A0B02090C0D0E4E
:103740000807030401000000000000000000000062
:103750000000000000000000000000000000000069
:103760000000001211100000000000000000000026
:103770000000000000000000000000000001021036
:10378000202008081020401020408002010201087B
:10379000040201010204081020408080402010082B
:1037A0000402018004020180402010080402010884
:1037B00004020101020408102040800102040810E4
:1037C00020408005050505070508080808020202D3
:1037D000020A0A08080404040401010101010101AC
:1037E000010303030303030303040707070C0C0C83
:1037F0000C0C0C0C0C02020202060606060606065B
:10380000060B0B0B0B0B0B0B0B00002000230026F1
:103810000029002C002F00320000010000030106E7
:1038200001090100002200250028002B002E003194
:1038300000340002010000050108010B0100002115
:1038400000240027002A002D003000330001010071
:1038500000040107010A0100091200FC0A01E80343
:10386000D720FFFD0EFD0BFD00000009000E010B2F
:103870000B090400808080808080800000808004AC
:10388000040409030790909090080A0A0900002494
:103890002424FF2424FF242424070B0B0901FF10F8
:1038A0007C929050381412927C10070A0A09010089
:1038B00042A4A4481010244A4A84070A0A090100B5
:1038C00060909090606294889462010404090407F7
:1038D00080808080030C0C0903FF204040808080A2
:1038E000808080404020030C0C0903FF8040402072
:1038F0002020202020404080070707090103109264
:103900005438549210070707090101101010FE10D7
:1039100010100204040904FEC0C040800701010920
:103920000104FE020202090400C0C0070A0A0901DC
:103930000002040408101020404080070A0A090110
:103940000038448282828282824438070A0A09014E
:1039500000103050901010101010FE070A0A0901D4
:1039600000384482020408102040FE070A0A0901B8
:1039700000FE020408180402028478070A0A0901FA
:1039800000040C14244484FE040404070A0A0901F8
:1039900000FE808080F80402028478070A0A090188
:1039A000003C408080B8C482824438070A0A09017A
:1039B00000FE020404080810101010070A0A09018A
:1039C0000038448244384482824438070A0A090194
:1039D0000038448282463A0202047802070709044A
:1039E00000C0C0000000C0C00209090904FEC0C038
:1039F000000000C0C040800509090902000810202D
:103A0000408040201008070404090102FE0000FE67
:103A10000509090902008040201008102040800795
:103A20000A0A090100384482020408101000100735
:103A30000A0A09010038449AAAAAAAAA9C403C078B
:103A40000A0A09010010282828447C44828282073F
:103A50000A0A090100F8848284F884828284F807C3
:103A60000A0A0901003C42808080808080423C0735
:103A70000A0A090100F88482828282828284F8071D
:103A80000A0A090100FE808080F880808080FE079D
:103A90000A0A090100FE808080F88080808080070B
:103AA0000A0A09010038448280808E8282443807E5
:103AB0000A0A09010082828282FE82828282820553
:103AC0000A0A090200F82020202020202020F807E0
:103AD0000A0A0901003E08080808080888887007D3
:103AE0000A0A09010082848890A0D0888482820713
:103AF0000A0A090100808080808080808080FE0723
:103B00000A0A0901008282C6AA9282828282820700
:103B10000A0A0901008282C2A2928A8682828207F0
:103B20000A0A0901007C82828282828282827C0768
:103B30000A0A090100F884828284F8808080800863
:103B40000B0B0901FF384482828282828A443A0147
:103B5000070A0A090100F884828284F89088848226
:103B6000070A0A0901007C8280807C020202827CB2
:103B7000070A0A090100FE10101010101010101092
:103B8000070A0A0901008282828282828282443884
:103B9000070A0A0901008282824444442828281026
:103BA000070A0A0901008282828292929292AA44B2
:103BB000070A0A09010082824428101028448282E0
:103BC000070A0A0901008282442810101010101000
:103BD000070A0A090100FE0204081020408080FE46
:103BE000040C0C0903FFF08080808080808080803E
:103BF00080F0070A0A0901008040402010100804E4
:103C00000402040C0C0902FFF01010101010101028
:103C1000101010F00704040901061028448208015E
:103C2000010900FFFF03030309030A80402007077F
:103C3000070901007C02027E82867A070A0A0901CE
:103C400000808080BCC2828282C2BC070707090153
:103C5000007C82808080827C070A0A0901000202BF
:103C6000027A86828282867A0707070901007C82AF
:103C700082FE80827C070A0A0901001C2222202081
:103C8000F820202020070A0A0901FD7A848484781C
:103C9000807C82827C070A0A090100808080BCC285
:103CA0008282828282050A0A090200600000E02006
:103CB00020202020F8050D0D0902FD18000038080D
:103CC0000808080808888870070A0A090100808027
:103CD00080848890B0C88482050A0A090200E02026
:103CE00020202020202020F8070707090100EC925F
:103CF0009292929282070707090100BCC2828282D7
:103D000082820707070901007C82828282827C0707
:103D10000A0A0901FDB8C4828282C4B88080800783
:103D20000A0A0901FD3A46828282463A02020207E5
:103D300007070901009C624240404040070707090D
:103D400001007C82807C02827C0709090901002035
:103D500020FC20202020221C070707090100828266
:103D6000828282867A0707070901008282444428FA
:103D700028100707070901008282929292AA44073D
:103D8000070709010082442810284482070A0A090B
:103D900001FD4242242424181810906007070709E7
:103DA0000100FE0408102040FE060B0B0902001C57
:103DB00020202020C0202020201C010C0C0904FF02
:103DC000808080808080808080808080060B0B09CE
:103DD0000100E0101010100C10101010E007030389
:103DE00009010762928CFFFFFFFFFFFFFFFFFFFF4C
:103DF000FFFFFFFFFFFFFFFFFFFFFFFFFFFFFFFFD3
:103E0000FFFFFFFFFFFFFF00000009000E010B0B8B
:103E10000904008080000080808080808080060807
:103E20000809010008789490A0A47840070A0A09BC
:103E300001001C222020F8202060A25C0706060951
:103E40000103827C44447C82070A0A0901008282C1
:103E500044287C107C101010010B0B0904FF80809B
:103E6000808080008080808080040B0B0902FF60CE
:103E70009080609090906010906003020209030BA4
:103E8000A0A00809090900013C4299A5A1A59942F1
:103E90003C050707090103609070907800F8070857
:103EA00008090101122448909048241206040409CC
:103EB0000102FC040404050101090204F8080909CF
:103EC0000900013C42B9A5BDA9A5423C0601010972
:103ED0000109FC04040409030660909060070909C5
:103EE000090101101010FE10101000FE0406060952
:103EF00001046090106080F00406060901046090DF
:103F00002010906003030309030A20408007090979
:103F10000901FE8282828282C6BA8080070A0A096B
:103F200001007E8A8A8A7A0A0A0A0A0A02020209B9
:103F30000404C0C00403030902FD209060030606C8
:103F400009010440C0404040E00506060901047034
:103F500088887000F80708080901019048241212A7
:103F6000244890070A0A09010040C0404042E60A7E
:103F7000121A06070A0A09010040C040404CF2022A
:103F80000C101E070A0A0901006090201092660AB0
:103F9000121A06070A0A09010010001010204080BA
:103FA00082827C070E0E09010020100800102828CC
:103FB00028447C44828282070E0E090100081020EA
:103FC0000010282828447C44828282070E0E0901B2
:103FD000001028440010282828447C44828282074C
:103FE0000D0D09010034580010282828447C448213
:103FF0008282070D0D090100282800102828284476
:104000007C44828282070E0E0901001028281010BD
:10401000282828447C44828282070A0A0901001E5B
:104020002828284E784888888E070D0D0901FD3C08
:1040300042808080808080423C082418070E0E0950
:10404000010020100800FE808080F880808080FEC3
:10405000070E0E09010008102000FE808080F88005
:10406000808080FE070E0E09010010284400FE80AB
:104070008080F880808080FE070D0D0901002828CF
:1040800000FE808080F880808080FE050E0E090290
:104090000040201000F82020202020202020F805BB
:1040A0000E0E09020010204000F8202020202020C1
:1040B0002020F8050E0E09020020508800F820206C
:1040C000202020202020F8050D0D0902005050006E
:1040D000F82020202020202020F8070A0A090100CB
:1040E00078444242F24242424478070D0D090100F1
:1040F0003458008282C2A2928A86828282070E0E81
:10410000090100201008007C8282828282828282E1
:104110007C070E0E090100081020007C828282823A
:10412000828282827C070E0E090100102844007CE6
:1041300082828282828282827C070D0D0901003494
:1041400058007C82828282828282827C070D0D09E5
:1041500001002828007C82828282828282827C07FF
:10416000070709010182442810284482070C0C0922
:1041700001FF027C868A8A9292A2A2C27C80070EEC
:104180000E090100201008008282828282828282CF
:104190004438070E0E090100081020008282828236
:1041A000828282824438070E0E09010010284400E2
:1041B00082828282828282824438070D0D09010048
:1041C00028280082828282828282824438070E0EF0
:1041D00009010008102000828244281010101010DD
:1041E00010070A0A0901008080FC828282FC80801C
:1041F00080060A0A09010038444448D0484444442F
:1042000058070B0B090100201008007C02027E8277
:10421000867A070B0B090100081020007C02027E41
:1042200082867A070B0B090100102844007C0202E9
:104230007E82867A070A0A0901003458007C02024D
:104240007E82867A070A0A0901002828007C020279
:104250007E82867A070C0C09010010282810007C49
:1042600002027E82867A0707070901006C12127E1D
:1042700090926C070A0A0901FD7C82808080827C12
:10428000104830070B0B090100201008007C8282C7
:10429000FE80827C070B0B090100081020007C8245
:1042A00082FE80827C070B0B090100102844007CF1
:1042B0008282FE80827C070A0A0901002828007C8D
:1042C0008282FE80827C050C0C0902008040200066
:1042D00000E02020202020F8050C0C09020010200E
:1042E000400000E02020202020F8050C0C090200EE
:1042F0002050880000E02020202020F8050B0B092A
:10430000020050500000E02020202020F8070B0B76
:10431000090100483050083C448282824438070A30
:104320000A090100345800BCC28282828282070BD3
:104330000B090100201008007C82828282827C07A7
:104340000B0B090100081020007C82828282827C93
:10435000070B0B090100102844007C8282828282B4
:104360007C070A0A0901003458007C82828282821A
:104370007C070A0A0901002828007C828282828246
:104380007C07090909010010381000FE00103810E0
:104390000709090901FF027C8A8A92A2A27C800790
:1043A0000B0B090100402010008282828282867AF3
:1043B000070B0B090100081020008282828282868E
:1043C0007A070B0B09010010284400828282828246
:1043D000867A070A0A0901002828008282828282DE
:1043E000867A070E0E0901FD0408100042422424BB
:1043F000241818109060070B0B0901FE8080B8C4C8
:10440000828282C4B88080070D0D0901FD2424003A
:104410004242242424181810906001050800FF0669
:104420000121023520FFFF07FF06FF090050221679
:1044300056808080800080153353A0A0A00257577B
:104440005050F850F850500257572070A070287004
:104450002013355580A040A02002475740A0A0401F
:10446000A0A0502513538080801226564080808063
:104470008040122656804040404080024555906062
:10448000F060900255552020F820201133536040F1
:1044900080044151F011335340E040024656101061
:1044A0002040808012365640A0A0A0A04012365670
:1044B00040C0404040E00246566090106080F002EC
:1044C0004656F020601090600246562060A0F02012
:1044D00020024656F080E01090600246566080E070
:1044E000909060024656F0102020404002465660F0
:1044F0009060909060024656609090701060122517
:1045000055C0C000C0C011365660600060408012C7
:104510003656204080804020034353F000F012368E
:104520005680402020408012365640A02040004057
:10453000015858304898A8A89040300246566090DC
:1045400090F09090024656E090E09090E00246563F
:10455000609080809060024656E090909090E002DB
:104560004656F080E08080F0024656F080E0808081
:1045700080024656609080B090600246569090F05F
:10458000909090123656E040404040E0024656700F
:10459000202020A04002465690A0C0A0A090024635
:1045A000568080808080F002465690F0F090909087
:1045B00002465690D0F0B0B090024656609090906F
:1045C0009060024656E09090E080800147576090EE
:1045D00090D0B06010024656E09090E09090024675
:1045E00056609040209060123656E0404040404077
:1045F000024656909090909060024656909090900F
:104600006060024656909090F0F09002465690906E
:1046100060609090025656888850202020024656AE
:10462000F010204080F0123656E080808080E0025A
:104630004656808040201010123656E02020202060
:10464000E016325240A0014151F016225280400241
:104650004454709090700246568080E09090E01232
:104660003454608080600246561010709090700242
:10467000445460B0C060024656205040E0404001C3
:10468000455560907010600246568080E090909092
:104690001236564000C04040E0113757200020201D
:1046A00020A040024656808090E09090123656C07E
:1046B00040404040E0025454D0A8A8A8024454E02E
:1046C00090909002445460909060014555E090E0D5
:1046D00080800145557090701010024454A0D08025
:1046E0008012345460C020C00246564040E0405022
:1046F0002002445490909070123454A0A0A0400224
:10470000545488A8A85002445490606090014555C4
:104710009090709060024454F02040F0024757306F
:104720004020C02040302216568080808080800249
:104730004757C02040304020C006425250A0FFFFE3
:10474000FFFFFFFFFFFFFFFFFFFFFFFFFFFFFFFF79
:10475000FFFFFFFFFFFFFFFFFFFFFFFFFFFFFF095F
:1047600000502216568000808080800146562070BE
:10477000A0A070200246562050E04050A00255559F
:1047800088705070880256568850F820F8202217FA
:1047900057808080008080800247577080E0907052
:1047A00010E0173151A002565670A8C8C8A870145E
:1047B000355560A06000E003435350A050123353BE
:1047C000E02020143151E002565670E8D8E8D87045
:1047D000173151E015335340A04012355540E040A9
:1047E00000E014355540A02040E0143555C020C0ED
:1047F00020C01622524080014555909090E08002E2
:10480000565678E8E8682828241151801122524031
:104810008014355540C04040E014355540A040005C
:10482000E0034353A050A0024757808080A060F06F
:10483000200247578080A0D0102070024757804048
:104840008060A0F02012365640004080A040024711
:104850005740206090F0909002475720406090F0C1
:10486000909002475760906090F0909002475750A8
:10487000A06090F0909002475790006090F0909068
:1048800002475760906090F0909002465670A0A04A
:10489000F0A0B00147576090808090604002475779
:1048A0004020F080E080F00247572040F080E08018
:1048B000F00247576090F080E080F0024757900088
:1048C000F080E080F01237578040E0404040E01236
:1048D00037572040E0404040E012375740A0E040CA
:1048E0004040E0123757A000E0404040E0025656FA
:1048F0007048E848487002475750A090D0B0909058
:1049000002475740206090909060024757204060D7
:10491000909090600247576090609090906002473E
:104920005750A06090909060024757900060909020
:104930009060123353A040A002465670B0B0D0D061
:10494000E0024757402090909090600247572040E7
:104950009090909060024757609090909090600285
:1049600047579000909090906002575710208850C1
:1049700020202002465680E09090E080024656605B
:1049800090A0A090A0024757402000709090700225
:104990004757204000709090700247572050007099
:1049A00090907002475750A0007090907002465649
:1049B00050007090907002475760906070909070B7
:1049C000025454F068B07811355560808060400220
:1049D000475740200060B0C0600247572040006049
:1049E000B0C06002475760900060B0C06002465699
:1049F000500060B0C060123757804000C04040E0B7
:104A0000123757204000C04040E012375740A00006
:104A1000C04040E0123656A000C04040E002475778
:104A2000A040A01070906002475750A000E0909006
:104A30009002475740200060909060024757204006
:104A40000060909060024757609000609090600214
:104A5000475750A0006090906002465690006090CA
:104A600090601235554000E0004002445470B0D0D0
:104A7000E002475740200090909070024757204036
:104A80000090909070024757609000909090700254
:104A900046569000909090700148582040009090A9
:104AA0007090600147578080E090E0808001475718
:104AB000900090907090604E414E494E4954594933
:104AC0004E46CDCCCC3D0AD7233C17B7D13877CC56
:104AD0002B329595E6241FB14F0A000020410000BB
:104AE000C84200401C4620BCBE4CCA1B0E5AAEC574
:104AF0009D741164E900156411241FBECFEFD1E24B
:104B0000DEBFCDBF00E00CBF15E0A0E0B2E0EAE000
:104B1000F9E402E00BBF02C007900D92A234B10786
:104B2000D9F725E1A2E4B5E001C01D92A434B20793
:104B3000E1F71AE4C6EFDAE400E006C022970109C3
:104B4000FE010BBF0F947518C23FD10780E0080724
:104B5000A9F70F949E0E0D9473240C940000EF920D
:104B6000FF920F931F93CF93DF931F92CDB7DEB7C2
:104B70008C017B01460FF70161917F01F801808173
:104B8000918149830F94BC23F80180819181019622
:104B90009183808349814E11EECF0F90DF91CF91A9
:104BA0001F910F91FF90EF900895EF92FF920F9356
:104BB0001F93CF93DF931F92CDB7DEB78C017B019C
:104BC000460FF8018081918149830F94B423F70146
:104BD00081937F01F8018081918101969183808387
:104BE00049814E11EECF0F90DF91CF911F910F9120
:104BF000FF90EF9008950F931F93CF93DF93CDB75E
:104C0000DEB72A970FB6F894DEBF0FBECDBF80E3A4
:104C100090E3A0E3B0E08D839E83AF83B88704E682
:104C200010E01A87098744E0BE016B5F7F4FCE0119
:104C3000099695DF40E165EB71E1CE0109968FDFC2
:104C400040E165EC71E1CE01099689DF40E165EA5A
:104C500071E1CE01099683DF44E06DE971E1CE0197
:104C600009967DDF44E069E971E1CE01099677DFBD
:104C700044E061EA71E1CE01099671DF44E069E840
:104C800071E1CE0109966BDF44E065ED71E1CE0183
:104C9000099665DF44E065E971E1CE0109965FDFC1
:104CA00044E061E971E1CE01099659DF44E06DE825
:104CB00071E1CE01099653DF4CE06DEB77E0CE0158
:104CC00009964DDF42E067E075E1CE01099647DFC6
:104CD00042E065E075E1CE01099641DF42E063E024
:104CE00075E1CE0109963BDF42E061E075E1CE015E
:104CF000099635DF42E06FEF74E1CE0109962FDFB0
:104D000042E06DEF74E1CE01099629DF44E06AEAE2
:104D100077E0CE01099623DF44E066E872E0CE0139
:104D200009961DDF44E062E872E0CE01099617DFC4
:104D300044E06EE772E0CE01099611DF42E06AEFCF
:104D400072E1CE0109960BDF41E069ED77E0CE011B
:104D5000099605DF44E061E272E0CE010996FFDECC
:104D600086E591E3A3E3B0E089839A83AB83BC83B8
:104D70001A87098744E0BE016F5F7F4FCE01099615
:104D8000EEDEE6E3FCE08491882341F09091C000E0
:104D900095FFFCCF8093C6003196F5CFE6E3F4E0B3
:104DA0008491882341F09091C00095FFFCCF8093BF
:104DB000C6003196F5CF8091C00085FFFCCF8AE018
:104DC0008093C6002A960FB6F894DEBF0FBECDBF03
:104DD000DF91CF911F910F910895CF93DF93C6E399
:104DE000DCE0FE018491882341F09091C00095FFA2
:104DF000FCCF8093C6003196F5CFE6E2F4E08491D3
:104E0000882341F09091C00095FFFCCF8093C600AD
:104E10003196F5CF8091C00085FFFCCF8AE080936A
:104E2000C600FE018491E6E3FCE0882349F09091FE
:104E3000C00095FFFCCF8093C60031968491F5CFDA
:104E40004091B5115091B6116091B7117091B811A0
:104E50008EE194E00E9450324091B9115091BA1104
:104E60006091BB117091BC118BE194E00E945032B3
:104E70004091BD115091BE116091BF117091C01150
:104E800088E194E00E9450324091C1115091C211CA
:104E90006091C3117091C41185E194E00E94503279
:104EA0008091C00085FFFCCF8AE08093C600FE01A0
:104EB0008491E6E3FCE0882349F09091C00095FFDF
:104EC000FCCF8093C60031968491F5CFEBEFF3E0F1
:104ED0008491882341F09091C00095FFFCCF80938E
:104EE000C6003196F5CF8091C00085FFFCCF8AE0E7
:104EF0008093C600FE018491E6E3FCE0882349F03C
:104F00009091C00095FFFCCF8093C60031968491AC
:104F1000F5CF4091C5115091C6116091C7117091A4
:104F2000C81182EF93E00E9450324091C911509114
:104F3000CA116091CB117091CC118FEE93E00E9459
:104F400050324091CD115091CE116091CF1170919E
:104F5000D0118CEE93E00E9450324091D1115091CB
:104F6000D2116091D3117091D41189EE93E00E9417
:104F700050328091C00085FFFCCF8AE08093C6004C
:104F8000FE018491E6E3FCE0882349F09091C000A3
:104F900095FFFCCF8093C60031968491F5CFEBEC62
:104FA000F3E08491882341F09091C00095FFFCCFFD
:104FB0008093C6003196F5CF8091C00085FFFCCF6D
:104FC0008AE08093C600FE018491E6E3FCE088233A
:104FD00049F09091C00095FFFCCF8093C6003196B8
:104FE0008491F5CF4091A5115091A6116091A71120
:104FF0007091A81182EC93E00E9472324091A91145
:105000005091AA116091AB117091AC118FEB93E0AC
:105010000E9472324091AD115091AE116091AF116A
:105020007091B0118CEB93E00E9472324091B111FB
:105030005091B2116091B3117091B41189EB93E06A
:105040000E9472328091C00085FFFCCF8AE080937D
:10505000C600FE018491E6E3FCE0882349F09091CC
:10506000C00095FFFCCF8093C60031968491F5CFA8
:10507000E4E8F3E08491882341F09091C00095FF2B
:10508000FCCF8093C6003196F5CF8091C00085FF9C
:10509000FCCF8AE08093C600FE018491E6E3FCE049
:1050A000882349F09091C00095FFFCCF8093C60003
:1050B00031968491F5CF40919D1150919E11609150
:1050C0009F117091A0118BE793E00E9450324091A4
:1050D000991150919A1160919B1170919C1188E7E0
:1050E00093E00E9450328091C00085FFFCCF8AE09F
:1050F0008093C600FE018491E6E3FCE0882349F03A
:105100009091C00095FFFCCF8093C60031968491AA
:10511000F5CFE5ECF2E08491882341F09091C00056
:1051200095FFFCCF8093C6003196F5CF8091C000EB
:1051300085FFFCCF8AE08093C600FE018491E6E300
:10514000FCE0882349F09091C00095FFFCCF80934C
:10515000C60031968491F5CF4091A1115091A211D2
:105160006091A3117091A4118CEB92E00E945032D7
:105170004091891150918A1160918B1170918C111D
:1051800089EB92E00E9450324091D5115091D61196
:105190006091D7117091D81186EB92E00E94723223
:1051A00040919511509196116091971170919811BD
:1051B00083EB92E00E9450324091911150919211F4
:1051C000609193117091941180EB92E00E945032A3
:1051D00040918D1150918E1160918F1170919011AD
:1051E0008DEA92E00E9450328091C00085FFFCCF92
:1051F0008AE08093C600FE018491E6E3FCE0882308
:1052000049F09091C00095FFFCCF8093C600319685
:105210008491F5CFEBE9F2E08491882341F09091FD
:10522000C00095FFFCCF8093C6003196F5CF8091EA
:10523000C00085FFFCCF8AE08093C600FE01849108
:10524000E6E3FCE0882349F09091C00095FFFCCF95
:105250008093C60031968491F5CF4091BD0750915F
:10526000BE076091BF077091C00782E992E00E947B
:1052700050324091C1075091C2076091C3077091AD
:10528000C4078FE892E00E9450324091C5075091C8
:10529000C6076091C7077091C8078CE892E00E942A
:1052A00050328091C00085FFFCCF8AE08093C60019
:1052B000FE018491E6E3FCE0882349F09091C00070
:1052C00095FFFCCF8093C60031968491F5CFEEE731
:1052D000F2E08491882341F09091C00095FFFCCFCB
:1052E0008093C6003196F5CF8091C00085FFFCCF3A
:1052F0008AE08093C600FE01C491E6E3FCE0CC2383
:1053000049F08091C00085FFFCCFC093C600319664
:10531000C491F5CF40918602509187026091880236
:105320007091890284E792E00E945032609182027B
:105330007091830280918402909185020E94B5BA97
:10534000AB01BC0181E792E00E94503260917E0285
:1053500070917F0280918002909181020E94C1BA77
:10536000AB01BC018EE692E00E9450328091C000F9
:1053700085FFFCCF8AE08093C600DF91CF9108952E
:10538000AF92BF92CF92DF92EF92FF920F931F9353
:10539000CF93DF93CDB7DEB7E0970FB6F894DEBFBB
:1053A0000FBECDBF80E1E1EBF2E0DE01919601900E
:1053B0000D928A95E1F780E1E1ECF2E0DE01519691
:1053C00001900D928A95E1F780E1E1EDF2E0DE01D6
:1053D000119601900D928A95E1F76E0181E2C80E57
:1053E000D11C85EBE82E81E1F82E8E010F5E1F4F58
:1053F00065EC71E1AE014F5F5F4F95EAA92E91E137
:10540000B92E20E030E0F60181919191A191B19106
:105410006F01F70181939193A193B1937F01F801FB
:1054200081919191A191B1918F01FB018193919310
:10543000A193B193BF01FA0181919191A191B19191
:10544000AF01F50181939193A193B1935F012F5F18
:105450003F4F24303105B9F60E941B9480E090E064
:10546000AFE2B4E480939D1190939E11A0939F119D
:10547000B093A0118093991190939A11A0939B11CE
:10548000B0939C111092A1111092A2111092A3112D
:105490001092A41180E29EE4A0E0B0E08093D511C8
:1054A0009093D611A093D711B093D811109289116F
:1054B00010928A1110928B1110928C1180E090E062
:1054C000A0E7B1E48093951190939611A093971162
:1054D000B09398118DEC9CECACECBEE380939111F1
:1054E00090939211A0939311B093941180E090E067
:1054F000A0EEB0E480938D1190938E11A0938F1144
:10550000B09390111092C5071092C6071092C7076A
:105510001092C8071092C1071092C2071092C307D9
:105520001092C4071092BD071092BE071092BF07D9
:105530001092C00784EB90E09093081580930715B4
:1055400082E390E090930615809305158FEF90E02D
:10555000909304158093031520EF30E030930215EB
:10556000209301152AE530E0309300152093FF14B5
:105570009093FE148093FD141092AA071092AB072B
:105580001092AC071092AD0780E290E09093FB126E
:105590008093FA128AE999E9A1EBB1E4809386023B
:1055A00090938702A0938802B093890261E77DE31C
:1055B0008AE89FE30E94AFBA6093820270938302ED
:1055C000809384029093850260E070E084EE92E420
:1055D0000E94BBBA60937E0270937F028093800228
:1055E000909381020E94F5B080E090E0A0E8BFE3D4
:1055F00080937A0290937B02A0937C02B0937D0209
:105600001092D90780E090E0A0E4B0E480932102FA
:1056100090932202A0932302B09324020E94A03E02
:10562000E6E3FCE08491882341F09091C00095FF6F
:10563000FCCF8093C6003196F5CFE2E3F2E084918F
:10564000882341F09091C00095FFFCCF8093C60065
:105650003196F5CF8091C00085FFFCCF8AE0809322
:10566000C600E0960FB6F894DEBF0FBECDBFDF9147
:10567000CF911F910F91FF90EF90DF90CF90BF904F
:10568000AF900895CF93DF93CDB7DEB72A970FB6CB
:10569000F894DEBF0FBECDBF84E690E09A8789877D
:1056A00086E591E3A3E3B0E089839A83AB83BC836F
:1056B00044E0BE016B5F7F4FCE01099676DA43E08E
:1056C00050E0BE016B5F7F4FCE0101960F947B21AE
:1056D000892B09F0BEC040E165EB71E1CE0109966E
:1056E00064DA40E165EC71E1CE0109965EDA40E1F1
:1056F00065EA71E1CE01099658DA0E941B9444E0F4
:105700006DE971E1CE01099650DA44E069E971E191
:10571000CE0109964ADA44E061EA71E1CE010996C8
:1057200044DA44E069E871E1CE0109963EDA44E0EA
:1057300065ED71E1CE01099638DA44E065E971E181
:10574000CE01099632DA44E061E971E1CE010996B1
:105750002CDA44E06DE871E1CE01099626DA4CE0DE
:105760006DEB77E0CE01099620DA42E067E075E163
:10577000CE0109961ADA42E065E075E1CE0109969C
:1057800014DA42E063E075E1CE0109960EDA42E0F8
:1057900061E075E1CE01099608DA42E06FEF74E14D
:1057A000CE01099602DA42E06DEF74E1CE0109966E
:1057B000FCD944E06AEA77E0CE010996F6D944E0E4
:1057C00066E872E0CE010996F0D944E062E872E042
:1057D000CE010996EAD944E06EE772E0CE0109965F
:1057E000E4D942E06AEF72E1CE010996DED941E0E8
:1057F00069ED77E0CE010996D8D944E061E272E024
:10580000CE010996D2D90E94A03E0E94F5B0E6E3EF
:10581000FCE08491882341F09091C00095FFFCCF7B
:105820008093C6003196F5CFE4E5F2E084918823B9
:1058300041F09091C00095FFFCCF8093C600319657
:10584000F5CF8091C00085FFFCCF8AE08093C60031
:1058500001C096DDC2DA2A960FB6F894DEBF0FBEFD
:10586000CDBFDF91CF9108951F920F920FB60F9287
:1058700011240BB60F922F933F934F935F936F9327
:105880008F939F93EF93FF936091C6002091C30580
:105890003091C405C90101968F7799274091C505BC
:1058A0005091C6058417950741F0F901ED5BFA4F59
:1058B00060839093C4058093C305FF91EF919F91FE
:1058C0008F916F915F914F913F912F910F900BBEF0
:1058D0000F900FBE0F901F9018959A01AB012115E4
:1058E00081EE38074105510549F182E08093C000FF
:1058F00060E079E08DE390E00F9434182150310995
:1059000041095109CA01B90122E030E040E050E00C
:105910000F9434183093C5002093C4008091C100C7
:1059200080618093C1008091C10088608093C10034
:105930008091C10080688093C10008951092C000DA
:1059400020E130E0E7CF2091C5053091C605809178
:10595000C3059091C4058217930771F0F901ED5BBF
:10596000FA4F80812F5F3F4F2F7733273093C60543
:105970002093C50590E008958FEF9FEF08958091E3
:10598000C5059091C6059093C4058093C3050895FD
:105990004F925F926F927F928F929F92AF92BF923F
:1059A000CF92DF92EF92FF920F931F93CF93DF93EB
:1059B000CDB7DEB7A0970FB6F894DEBF0FBECDBF50
:1059C0005C014115510561057105E9F420E030E005
:1059D00040E350E060E070E0A0960FB6F894DEBFC0
:1059E0000FBECDBFDF91CF911F910F91FF90EF9030
:1059F000DF90CF90BF90AF909F908F907F906F90EF
:105A00005F904F905BC08E010F5F1F4FC12CD12C58
:105A100076014801422E512C612C712C8FEFC81A4F
:105A2000D80AE80AF80ACB01BA01A30192010F943F
:105A30001218CA01F80161938F01A901BC01411537
:105A400051056105710551F7F1E0CF1AD108E10860
:105A5000F108F401EC0DFD1D80818A3010F440E363
:105A600001C047E3480F552747FD5095652F752F17
:105A700020E030E0C50122D081E0C81AD108E10859
:105A8000F108EFEFCE16DE06EE06FE0611F7A09641
:105A90000FB6F894DEBF0FBECDBFDF91CF911F913F
:105AA0000F91FF90EF90DF90CF90BF90AF909F90BD
:105AB0008F907F906F905F904F90089521153105E2
:105AC00039F48091C00085FFFCCF4093C600089553
:105AD0002A30310509F41CC05BCFCF93DF93EC0172
