:100000000C94F00E0C94210F0C94210F0C94210FE2
:100010000C94210F0C94210F0C94210F0C94210FA0
:100020000C94210F0C94210F0C94210F0C94210F90
:100030000C94210F0C94F6BB0C94210F0C94210FFF
:100040000C94210F0C941E6B0C94210F0C94210F17
:100050000C94210F0C94210F0C94977D0C9463BC8D
:100060000C94210F0C948D150C94210F0C94210FDE
:100070000C94210F0C94210F0C94210F0C94210F40
:100080000C94210F0C94210F0C94210F0C94210F30
:100090000C94210F0C94210F0C94210F0C94210F20
:1000A0000C94210F0C94210F0C94210F0C94210F10
:1000B0000C94210F0C94210F0C94210F0C94210F00
:1000C0000C94210F0C94210F0C94210F0C94210FF0
:1000D0000C94210F0C94210F0C94210F0C94210FE0
:1000E0000C94210FF57D047E207E2F7E497E587E64
:1000F000727E767E787E7C7E847EA3BDA8BDADBDFB
:10010000B7BDC1BD3ABECBBDD3BDDBBDE5BDEFBD07
:10011000F9BD08BE12BE3ABE1CBE26BE30BE5BBED6
:100120005EBE4DBE51BE57BE95BE62BE66BE6CBEC3
:1001300070BE74BE7ABE7EBE82BE95BE88BE8CBEC8
:1001400090BE084AD73B3BCE016E84BCBFFDC12F99
:100150003D6C74319ABD56833DDA3D00C77F11BEB8
:10016000D9E4BB4C3E916BAAAABE000000803F05BB
:10017000A84CCDB2D44EB93836A9020C50B99186EC
:1001800088083CA6AAAA2ABE000000803F00486159
:100190007264636F6465642044656661756C742085
:1001A00053657474696E6773204C6F616465640095
:1001B00053746F7265642073657474696E6773201D
:1001C0007265747269657665640020440020490098
:1001D0002020204D33303120500050494420736599
:1001E0007474696E67733A00205A00205900202009
:1001F0004D323036205800486F6D65206F6666734B
:10020000657420286D6D293A00204500205A002091
:10021000580020420020540020204D323035205319
:1002200000416476616E6365642076617269616223
:100230006C65733A20533D4D696E20666565647246
:1002400061746520286D6D2F73292C20543D4D69F4
:100250006E2074726176656C206665656472617487
:100260006520286D6D2F73292C20423D6D696E69C4
:100270006D756D207365676D656E742074696D654D
:1002800020286D73292C20583D6D6178696D756D3E
:10029000205859206A65726B20286D6D2F73292CA8
:1002A00020205A3D6D6178696D756D205A206A6510
:1002B000726B20286D6D2F73292C2020453D6D61B8
:1002C00078696D756D2045206A65726B20286D6DAB
:1002D0002F73290020540020204D32303420530049
:1002E000416363656C65726174696F6E3A20533D5A
:1002F000616363656C65726174696F6E2C20543D37
:100300007265747261637420616363656C657261A8
:1003100074696F6E00204500205A0020590020208B
:100320004D3230312058004D6178696D756D204136
:100330006363656C65726174696F6E20286D6D2FE3
:100340007332293A00204500205A0020590020200D
:100350004D3230332058004D6178696D756D2066DF
:10036000656564726174657320286D6D2F73293A19
:1003700000204500205A0020590020204D3932200D
:10038000580053746570732070657220756E6974BF
:100390003A0053657474696E67732053746F7265A5
:1003A000640053544F505045442E20005072696EE3
:1003B0007465722073746F70706564206475652055
:1003C000746F206572726F72732E20466978207484
:1003D0006865206572726F7220616E642075736546
:1003E000204D39393920746F2072657374617274CD
:1003F0002E202854656D7065726174757265206970
:10040000732072657365742E20536574206974209F
:1004100061667465722072657374617274696E6767
:1004200029004B494C4C45442E20005072696E7493
:1004300065722068616C7465642E206B696C6C2831
:10044000292063616C6C656421006F6B00526573D9
:10045000656E643A20002200556E6B6E6F776E20D9
:10046000636F6D6D616E643A2022004368616E6750
:10047000652066696C616D656E74005A204F666612
:10048000736574203A20007A5F6D61783A20007AB3
:100490005F6D696E3A20005A204F6666736574007E
:1004A0005A204F6666736574206F6B007A5F6D61CA
:1004B000783A20007A5F6D696E3A2000795F6D614D
:1004C000783A2000795F6D696E3A2000785F6D613F
:1004D000783A2000785F6D696E3A2000205A3A0021
:1004E00020593A0020436F756E7420583A2000203E
:1004F000453A00205A3A0020593A00583A004649F5
:10050000524D574152455F4E414D453A4D61726CD7
:10051000696E20312E302E322B20446576656C6F4B
:10052000706D656E742046726F6D204172636869EC
:10053000766520534F555243455F434F44455F55C1
:10054000524C3A68747470733A2F2F6769746875E7
:10055000622E636F6D2F4D61726C696E4669726DAC
:10056000776172652F4D61726C696E2050524F54E5
:100570004F434F4C5F56455253494F4E3A312E3000
:10058000204D414348494E455F545950453A4D65C9
:100590006E64656C2045585452554445525F434F34
:1005A000554E543A3120555549443A303030303068
:1005B0003030302D303030302D303030302D303044
:1005C00030302D3030303030303030303030300A54
:1005D000004D656E64656C204F66662E004D656E3D
:1005E00064656C2072656164792E004265642064E4
:1005F0006F6E652E0020423A0020453A00543A00C2
:100600004265642048656174696E672E00486561C3
:1006100074696E6720646F6E652E0020573A002063
:10062000453A00543A0048656174696E672E2E2E73
:10063000002042403A0020403A00202F003A00209B
:100640005400202F0020423A00202F006F6B2054CE
:100650003A002569206D696E2C2025692073656339
:1006600000456E642066696C65206C697374004295
:100670006567696E2066696C65206C697374004EED
:100680006F206D6F76652E004D656E64656C20720F
:10069000656164792E00526573756D696E672070AF
:1006A00072696E74005761697420666F7220757389
:1006B00065722E2E2E00536C6565702E2E2E002531
:1006C0006920686F757273202569206D696E757475
:1006D000657300446F6E65207072696E74696E6731
:1006E0002066696C650053544F505045442E2000DD
:1006F0005072696E7465722073746F7070656420D7
:1007000064756520746F206572726F72732E204657
:10071000697820746865206572726F7220616E64FA
:1007200020757365204D39393920746F20726573D7
:10073000746172742E202854656D706572617475D1
:1007400072652069732072657365742E2053657419
:1007500020697420616674657220726573746172B9
:1007600074696E6729004E6F204C696E65204E7566
:100770006D626572207769746820636865636B7366
:10078000756D2C204C617374204C696E653A2000A5
:100790004E6F20436865636B73756D20776974686D
:1007A000206C696E65206E756D6265722C204C61DF
:1007B0007374204C696E653A2000636865636B73DF
:1007C000756D206D69736D617463682C204C617365
:1007D00074204C696E653A20004C696E65204E7538
:1007E0006D626572206973206E6F74204C61737442
:1007F000204C696E65204E756D6265722B312C2020
:100800004C617374204C696E653A20004D31313073
:1008100000446F6E6520736176696E672066696C4F
:10082000652E006F6B004D3239002020506C616ED8
:100830006E657242756666657242797465733A20B8
:10084000002046726565204D656D6F72793A200013
:100850004A756E203232203230313600436F6D706F
:10086000696C65643A200028444959452C2053742A
:10087000616E646172642900207C20417574686F28
:10088000723A20004A756E203232203230313620E2
:1008900031363A32343A333200204C617374205589
:1008A0007064617465643A200020312E302E322B42
:1008B000004D61726C696E0020536F6674776172CF
:1008C0006520526573657400205761746368646FB6
:1008D00067205265736574002042726F776E206FD7
:1008E0007574205265736574002045787465726E66
:1008F000616C20526573657400506F776572557036
:10090000007374617274002200656E717565696EA2
:10091000672022002200656E717565696E6720226E
:1009200000FFFFFF0000A0400000A04000000040CA
:100930000000484300004843000048430000000016
:100940000000000000000000000048430000484391
:10095000000048430000000000000000000000000C
:100960006563686F3A004572726F723A007C3C3E74
:100970005E2B3D3F2F5B5D3B2C2A225C004D3834C3
:1009800020582059205A20450043616E6E6F742014
:10099000656E746572207375626469723A20004DE9
:1009A0003234004D3233202573006175746F256930
:1009B0002E67006572726F722077726974696E6754
:1009C00020746F2066696C65004E6F74205344205C
:1009D0007072696E74696E67002F005344207072E4
:1009E000696E74696E67206279746520002E004418
:1009F000656C6574696F6E206661696C65642C2036
:100A000046696C653A200046696C652064656C65D2
:100A10007465643A002E006F70656E206661696CC3
:100A200065642C2046696C653A20005772697469C8
:100A30006E6720746F2066696C653A20002E006F27
:100A400070656E206661696C65642C2046696C6512
:100A50003A20002E006F70656E206661696C6564D7
:100A60002C2046696C653A200046696C65207365E8
:100A70006C6563746564002053697A653A200046AA
:100A8000696C65206F70656E65643A20002E006F9A
:100A900070656E206661696C65642C2046696C65C2
:100AA0003A20004E6F772066726573682066696C25
:100AB000653A20004E6F7720646F696E6720666923
:100AC0006C653A20002220706F73002220706172E2
:100AD000656E743A2200535542524F5554494E4563
:100AE0002043414C4C207461726765743A22007453
:100AF0007279696E6720746F2063616C6C20737506
:100B0000622D67636F64652066696C657320776921
:100B1000746820746F6F206D616E79206C657665E6
:100B20006C732E204D4158206C6576656C2069737E
:100B30003A0053442063617264206F6B006F7065EC
:100B40006E526F6F74206661696C656400766F6CBD
:100B5000756D652E696E6974206661696C656400E7
:100B6000534420696E6974206661696C0020746F5B
:100B70006F206C6F6E6720657874727573696F6E25
:100B80002070726576656E7465640020636F6C64B6
:100B900020657874727573696F6E20707265766502
:100BA0006E74656400656E6473746F707320686939
:100BB000743A205A00205A3A00656E6473746F705C
:100BC00073206869743A20590020593A00656E64B0
:100BD00073746F7073206869743A20580020583A13
:100BE00000656E6473746F7073206869743A2000D6
:100BF00024F4D43050C38E20C2A24017828B7011CF
:100C0000127A910D816CD90AA861E108C75866076C
:100C1000615143061E4B5D05C145A7041A411104ED
:100C2000093D9803713931034036DB026533910287
:100C3000D4305402802E1D02632CEE01752AC501AA
:100C4000B028A001102781018F2564012B244B01BE
:100C5000E0223401AC211F018D200D01801FFC001A
:100C6000841EED00971DDF00B81CD200E61BC600F5
:100C7000201BBC00641AB200B219A8000A19A00017
:100C80006A189900D117910040178B00B51684009F
:100C900031167E00B31579003A157300C7146F0042
:100CA00058146A00EE1366008813630025135E0073
:100CB000C7125B006C12570015125400C11151008D
:100CC00070114F0021114B00D61049008D104700C4
:100CD0004610440002104200C00F4000800F3E004A
:100CE000420F3C00060F3B00CB0E3800930E37003E
:100CF0005C0E3500270E3400F30D3200C10D3100BB
:100D0000900D3000600D2E00320D2D00050D2C00D1
:100D1000D90C2B00AE0C2900850C29005C0C270097
:100D2000350C27000E0C2600E80B2400C40B240011
:100D3000A00B23007D0B23005A0B2100390B21004F
:100D4000180B2000F80A1F00D90A1E00BB0A1E005B
:100D50009D0A1D00800A1D00630A1C00470A1B0033
:100D60002C0A1B00110A1A00F7091A00DD091900E4
:100D7000C4091900AB091900920917007B09180072
:100D8000630917004C0916003609160020091600E1
:100D90000A091500F5081500E0081400CC08140035
:100DA000B8081400A4081400900813007D0812006D
:100DB0006B0813005808120046081200340811008E
:100DC000230811001208110001081100F00710009B
:100DD000E0071000D0071000C0071000B0070F0098
:100DE000A107100091070E0083070F0074070F0082
:100DF00065070E0057070E0049070E003B070D0060
:100E00002E070E0020070D0013070D0006070D002A
:100E1000F9060C00ED060D00E0060C00D4060C00EF
:100E2000C8060C00BC060C00B0060C00A4060B00A3
:100E300099060C008D060B0082060B0077060B004E
:100E40006C060B0061060A0057060B004C060A00F0
:100E500042060A0038060A002E060A0024060A0086
:100E60001A060A001006090007060A00FD05090017
:100E7000F4050900EB050900E2050900D9050900A0
:100E8000D0050900C7050900BE050900B505080021
:100E9000AD050800A50509009C050800940508009B
:100EA0008C050800840508007C050800740508000E
:100EB0006C050700650508005D050700560508007C
:100EC0004E050700470507004005080038050700E4
:100ED000310507002A050700230507001C05060049
:100EE000160507000F0507000805060002050700A4
:100EF000FB040600F5040700EE040600E804060003
:100F0000E2040700DB040600D5040600CF04060057
:100F1000C9040600C3040600BD040600B7040600A9
:100F2000B1040500AC040600A6040600A0040500F8
:100F30009B04060095040500900406008A04050041
:100F400085040500800406007A0405007504050088
:100F5000700405006B0405006604050061040500CB
:100F60005C04050057040500520405004D0405000B
:100F700048040500430405003E0404003A0405004B
:100F800035040500300404002C0405002704040087
:100F9000230405001E0404001A04040016040500BE
:100FA000110404000D0404000904050004040400F5
:100FB00000040400FC030400F8030400F40304002C
:100FC000F0030400EC030400E8030400E40304005D
:100FD000E0030400DC030400D8030400D40304008D
:100FE000D0030400CC030400C8030300C5030300BE
:100FF00024F404D9201BC40C5C0E9804C4095F02BD
:1010000065077101F405F900FB04B300480487008B
:10101000C10369005803550003034500BE023A00AE
:101020008402310053022A00290225000402200014
:10103000E4011C00C8011900AF0117009801140059
:1010400084011300710110006101100051010E00B4
:1010500043010D0036010B002B010B0020010B009A
:10106000150109000C01090003010800FB0008003C
:10107000F3000800EB000700E4000600DE000600B5
:10108000D8000600D2000600CC000500C70005000D
:10109000C2000500BD000400B9000400B500040052
:1010A000B1000400AD000400A9000400A500030085
:1010B000A20003009F0004009B00030098000300AF
:1010C0009500020093000300900003008D000200D1
:1010D0008B000300880002008600020084000300E9
:1010E000810002007F0002007D0002007B00020000
:1010F000790002007700010076000200740002000F
:1011000072000100710002006F0002006D0001001A
:101110006C0002006A000100690002006700010023
:101120006600010065000100640002006200010029
:1011300061000100600001005F0002005D0001002D
:101140005C0001005B0001005A0001005900010031
:101150005800010057000100560001005500010031
:101160005400010053000000530001005200010030
:1011700051000100500001004F0001004E0000002E
:101180004E0001004D0001004C0001004B0000002A
:101190004B0001004A000100490001004800000026
:1011A0004800010047000100460000004600010021
:1011B000450000004500010044000100430000001C
:1011C0004300010042000000420001004100000015
:1011D00041000100400001003F0000003F0001000D
:1011E0003E0000003E0001003D0000003D00010007
:1011F0003C0000003C0000003C0001003B000000FF
:101200003B0001003A0000003A00010039000000F4
:1012100039000100380000003800000038000100EB
:1012200037000000370001003600000036000000E3
:1012300036000100350000003500000035000100D7
:1012400034000000340000003400010033000000CE
:1012500033000000330001003200000032000000C3
:1012600032000100310000003100000031000100B7
:101270003000000030000000300001002F000000AE
:101280002F0000002F0000002F0001002E000000A2
:101290002E0000002E0001002D0000002D00000097
:1012A0002D0000002D0001002C0000002C0000008B
:1012B0002C0000002C0001002B0000002B0000007F
:1012C0002B0000002B0001002A0000002A00000073
:1012D0002A0000002A000100290000002900000067
:1012E000290000002900000029000100280000005A
:1012F000280000002800000028000000280001004D
:101300002700000027000000270000002700000041
:101310002700010026000000260000002600000033
:101320002600000026000100250000002500000026
:101330002500000025000000250000002500010018
:10134000240000002400000024000000240000000D
:1013500024000100230000002300000023000000FF
:1013600023000000230000002300000023000100F0
:1013700022000000220000002200000022000000E5
:1013800022000000220001002100000021000000D6
:1013900021000000210000002100000021000000C9
:1013A00021000100200000002000000020000000BB
:1013B00020000000200000002000000020000000AD
:1013C000200001001F0000001F0000001F0000009F
:1013D0001F0000001F0000001F0000001F00010090
:1013E0001E0000001E0000001E0000001E00000085
:1013F0004572723A204D415854454D502042454463
:101400000054656D70657261747572652068656100
:1014100074656420626564207377697463686564C9
:10142000206F66662E204D415854454D50207472F1
:1014300069676765726564202121004572723A20F0
:101440004D494E54454D50003A20457874727564AC
:101450006572207377697463686564206F66662EB1
:10146000204D494E54454D5020747269676765722E
:1014700065642021004572723A204D415854454D13
:1014800050003A20457874727564657220737769EC
:101490007463686564206F66662E204D415854451C
:1014A0004D50207472696767657265642021002061
:1014B0002D20496E76616C6964206578747275645C
:1014C0006572206E756D626572202100504944205E
:1014D0004175746F74756E652066696E69736865B1
:1014E00064212050757420746865206C61737420C9
:1014F0004B702C204B6920616E64204B6420636F1D
:101500006E7374616E74732066726F6D2061626FAA
:10151000766520696E746F20436F6E6669677572B9
:101520006174696F6E2E6800504944204175746F74
:1015300074756E65206661696C6564212074696DDF
:10154000656F75740020403A006F6B20543A006F4D
:101550006B20423A00504944204175746F74756E97
:1015600065206661696C6564212054656D706572E3
:10157000617475726520746F6F20686967680020F8
:101580004B643A2000204B693A2000204B703A20EF
:101590000020436C6173736963205049442000202C
:1015A00054753A2000204B753A2000206D61783A3E
:1015B0002000206D696E3A200020643A20002062ED
:1015C0006961733A200070012C0190012701B0017C
:1015D0002201C0011D01F0011801100213013002A7
:1015E0000E016002090190020401C002FF00000325
:1015F000FA004003F5008003F000D003EB00200464
:10160000E6007004E100E004DC004005D700C005FE
:10161000D2004006CD00D006C8008007C3003008C5
:10162000BE00F008B900C009B400B00AAF00B00BAA
:10163000AA00D00CA500000EA000500F9B00C01007
:1016400096005012910000148C00C0158700B0174E
:101650008200B0197D00D01B7800001E730040206E
:101660006E0090226900F024640040275F009029FA
:101670005A00E02B5500102E500020304B00103245
:101680004600E033410090353C0010373700703899
:101690003200A0392D00B03A2800A03B2300603C66
:1016A0001E00103D1900903D1400103E0F00703ECA
:1016B0000A00C03E0500003F0000436172642072D2
:1016C000656D6F766564004361726420696E736551
:1016D00072746564004D33303020533639382050F1
:1016E000323030004D3330302053363539205032CF
:1016F0003030002D2D3A2D2D002D2D2D005344007E
:101700002059000120000120004261627973746554
:101710007070696E672058004261627973746570F9
:1017200070696E67205900426162797374657070E8
:10173000696E67205A004D363030004368616E672D
:10174000652066696C616D656E74004261627973D3
:10175000746570205A004261627973746570205913
:10176000004261627973746570205800466C6F772F
:10177000203000466C6F77203000466C6F77004653
:101780006C6F770046616E2073706565640046611A
:101790006E20737065656400426564004265640094
:1017A0004E6F7A7A6C65004E6F7A7A6C6500537072
:1017B000656564005370656564004D61696E005035
:1017C00072656865617420504C4120426564005028
:1017D00072656865617420504C412031005072651B
:1017E0007061726500507265686561742041425392
:1017F00020426564005072656865617420414253FF
:101800002031005072657061726500580059005AAD
:1018100000457874727564657200457874727564F9
:101820006572004D6F7665205A004D6F76652059C0
:10183000004D6F76652058004D6F766520617869A0
:1018400073004D6F766520302E316D6D004D6F76D3
:101850006520316D6D004D6F76652031306D6D0006
:1018600050726570617265004D6F766520617869B0
:1018700073004D38300053776974636820706F7758
:101880006572206F6E004D3831005377697463685C
:1018900020706F776572206F666600436F6F6C64AF
:1018A0006F776E0050726568656174204142530025
:1018B0005072656865617420504C41005365742016
:1018C000686F6D65206F66667365747300473238A4
:1018D000004175746F20686F6D65004D38340044A9
:1018E000697361626C6520737465707065727300F2
:1018F0004D61696E0053746F7265206D656D6F7216
:10190000790042656400426564004E6F7A7A6C65C6
:10191000004E6F7A7A6C650046616E207370656563
:10192000640046616E2073706565640054656D7077
:10193000657261747572650053746F7265206D65B0
:101940006D6F72790042656400426564004E6F7A83
:101950007A6C65004E6F7A7A6C650046616E207312
:10196000706565640046616E20737065656400543F
:10197000656D706572617475726500507265686539
:1019800061742041425320636F6E66005072656837
:1019900065617420504C4120636F6E66005049446D
:1019A0002D43005049442D43005049442D440050DC
:1019B00049442D44005049442D49005049442D4983
:1019C000005049442D50005049442D500020022021
:1019D0004661637400200220466163740020022087
:1019E0004D6178002002204D6178002002204D6971
:1019F0006E002002204D696E004F6666004F6E201B
:101A0000004F6666004F6E20004175746F74656DFF
:101A1000700046616E2073706565640046616E20DB
:101A200073706565640042656400426564004E6FD2
:101A30007A7A6C65004E6F7A7A6C6500436F6E74CB
:101A4000726F6C004573746570732F6D6D00457314
:101A5000746570732F6D6D005A73746570732F6D9C
:101A60006D005A73746570732F6D6D0059737465D2
:101A700070732F6D6D005973746570732F6D6D00E9
:101A80005873746570732F6D6D005873746570733F
:101A90002F6D6D00412D7265747261637400412D6C
:101AA0007265747261637400416D617820650041F4
:101AB0006D6178206500416D6178207A00416D612B
:101AC00078207A00416D6178207900416D6178203D
:101AD0007900416D6178207800416D61782078004F
:101AE0005654726176206D696E005654726176208C
:101AF0006D696E00566D696E00566D696E00566DAB
:101B00006178206500566D6178206500566D6178BA
:101B1000207A00566D6178207A00566D61782079C0
:101B200000566D6178207900566D617820780056F6
:101B30006D617820780056652D6A65726B00566578
:101B40002D6A65726B00567A2D6A65726B00567A43
:101B50002D6A65726B005678792D6A65726B005636
:101B600078792D6A65726B00416363656C0041632F
:101B700063656C00436F6E74726F6C0046696C2E07
:101B8000204469612E20310046696C2E2044696131
:101B90002E2031004F6666004F6E20004F666600B3
:101BA0004F6E20004520696E206D6D3300436F6ECF
:101BB00074726F6C00526573746F72652066616930
:101BC0006C73616665004C6F6164206D656D6F724A
:101BD000790053746F7265206D656D6F7279004680
:101BE000696C616D656E74004D6F74696F6E005441
:101BF000656D7065726174757265004D61696E0026
:101C00004D383420582059205A2045004D32340098
:101C10004D323320257300052E2E004D61696E0074
:101C20004E6F2053442063617264005072696E7479
:101C30002066726F6D2053440053746F7020707271
:101C4000696E7400526573756D65207072696E748B
:101C5000005061757365207072696E7400436F6E19
:101C600074726F6C00507265706172650054756EAD
:101C70006500496E666F2073637265656E000200D1
:101C8000000A0B02090C0D0E0807030401000000F6
:101C90000000000000000000000000000000000044
:101CA0000000000000000000000000121110000001
:101CB0000000000000000000000000000000000024
:101CC0000000000000010210202008081020401031
:101CD00020408002010201080402010102040810F0
:101CE000204080804020100804020180040201800E
:101CF0004020100804020108040201010204081037
:101D000020408001020408102040800505050507D9
:101D10000508080808020202020A0A080804040466
:101D20000401010101010101010303030303030392
:101D300003040707070C0C0C0C0C0C0C0C02020221
:101D40000206060606060606060B0B0B0B0B0B0B14
:101D50000B000020002300260029002C002F003259
:101D60000000010000030106010901000022002516
:101D70000028002B002E0031003400020100000575
:101D80000108010B0100002100240027002A002D7A
:101D9000003000330001010000040107010A014E78
:101DA000414E494E495459494E46CDCCCC3D0AD7B7
:101DB000233C17B7D13877CC2B329595E6241FB149
:101DC0004F0A000020410000C84200401C4620BCD1
:101DD000BE4CCA1B0E5AAEC59D74473BB0A74B3BC9
:101DE00011241FBECFEFD1E2DEBFCDBF00E00CBF9C
:101DF00014E0A0E0B2E0E0E3F8E901E00BBF02C0CC
:101E000007900D92AA3AB107D9F722E1AAEAB4E005
:101E100001C01D92A338B207E1F71DE1CEEDDDE16F
:101E200000E006C022970109FE010BBF0E943DC1E0
:101E3000CA3DD10780E00807A9F70E9456BC0C9460
:101E400006CC0C940000EF92FF920F931F93CF9358
:101E5000DF931F92CDB7DEB78C017B01460FF701F0
:101E600061917F01F8018081918149830E944FCB6C
:101E7000F8018081918101969183808349814E117F
:101E8000EECF0F90DF91CF911F910F91FF90EF90C8
:101E90000895EF92FF920F931F93CF93DF931F92BA
:101EA000CDB7DEB78C017B01460FF80180819181AF
:101EB00049830E9447CBF70181937F01F80180811C
:101EC000918101969183808349814E11EECF0F90CD
:101ED000DF91CF911F910F91FF90EF9008950F9395
:101EE0001F93CF93DF93CDB7DEB72C970FB6F8943F
:101EF000DEBF0FBECDBF80E390E3A0E3B0E08D83F3
:101F00009E83AF83B88704E610E01C870B8744E00C
:101F1000BE016B5F7F4FCE010B9695DF40E16DE117
:101F200071E1CE010B968FDF40E16DE271E1CE01F0
:101F30000B9689DF40E16DE071E1CE010B9683DF06
:101F400044E065E071E1CE010B967DDF44E061E0A5
:101F500071E1CE010B9677DF44E069E071E1CE01DB
:101F60000B9671DF44E061EF70E1CE010B966BDF01
:101F700044E06DE371E1CE010B9665DF44E06DEF67
:101F800070E1CE010B965FDF44E069EF70E1CE01B6
:101F90000B9659DF44E065EF70E1CE010B9653DFFD
:101FA0004CE065E277E0CE010B964DDF42E067E45E
:101FB00072E1CE010B9647DF42E065E472E1CE01AB
:101FC0000B9641DF42E063E472E1CE010B963BDF0A
:101FD00042E061E472E1CE010B9635DF42E06FE34F
:101FE00072E1CE010B962FDF42E06DE372E1CE018C
:101FF0000B9629DF44E062E177E0CE010B9623DF08
:1020000044E06CE572E0CE010B961DDF44E068E52C
:1020100072E0CE010B9617DF44E064E572E0CE017A
:102020000B9611DF80E290E09A87898742E0BE013B
:10203000675F7F4FCE010B9606DF41E061E477E0FA
:10204000CE010B9600DF44E06BE172E0CE010B960F
:10205000FADE86E591E3A3E3B0E089839A83AB835C
:10206000BC831C870B8744E0BE016F5F7F4FCE01AE
:102070000B96E9DEE0E6F9E08491882341F0909147
:10208000C00095FFFCCF8093C6003196F5CFE2E902
:10209000F3E08491882341F09091C00095FFFCCF3C
:1020A0008093C6003196F5CF8091C00085FFFCCFAC
:1020B0008AE08093C6002C960FB6F894DEBF0FBE60
:1020C000CDBFDF91CF911F910F910895CF93DF93F3
:1020D000C0E6D9E0FE018491882341F09091C000D0
:1020E00095FFFCCF8093C6003196F5CFE2E8F3E090
:1020F0008491882341F09091C00095FFFCCF80939C
:10210000C6003196F5CF8091C00085FFFCCF8AE0F4
:102110008093C600FE018491E0E6F9E0882349F04F
:102120009091C00095FFFCCF8093C60031968491BA
:10213000F5CF40911D1150911E1160911F117091AA
:1021400020118AE793E00E942519409121115091B6
:102150002211609123117091241187E793E00E946E
:1021600025194091251150912611609127117091E8
:10217000281184E793E00E9425194091291150917C
:102180002A1160912B1170912C1181E793E00E942C
:1021900025198091C00085FFFCCF8AE08093C6009E
:1021A000FE018491E0E6F9E0882349F09091C000B7
:1021B00095FFFCCF8093C60031968491F5CFE7E57B
:1021C000F3E08491882341F09091C00095FFFCCF0B
:1021D0008093C6003196F5CF8091C00085FFFCCF7B
:1021E0008AE08093C600FE018491E0E6F9E088234E
:1021F00049F09091C00095FFFCCF8093C6003196C6
:102200008491F5CF40912D1150912E1160912F1195
:10221000709130118EE493E00E94251940913111A4
:102220005091321160913311709134118BE493E02D
:102230000E94251940913511509136116091371146
:102240007091381188E493E00E942519409139116A
:1022500050913A1160913B1170913C1185E493E0EB
:10226000F4D78091C00085FFFCCF8AE08093C60040
:10227000FE018491E0E6F9E0882349F09091C000E6
:1022800095FFFCCF8093C60031968491F5CFE7E2AD
:10229000F3E08491882341F09091C00095FFFCCF3A
:1022A0008093C6003196F5CF8091C00085FFFCCFAA
:1022B0008AE08093C600FE018491E0E6F9E088237D
:1022C00049F09091C00095FFFCCF8093C6003196F5
:1022D0008491F5CF40910D1150910E1160910F1125
:1022E000709110118EE193E0C1D74091111150917E
:1022F000121160911311709114118BE193E0B6D714
:10230000409115115091161160911711709118118B
:1023100088E193E0ABD74091191150911A11609167
:102320001B1170911C1185E193E0A0D78091C00032
:1023300085FFFCCF8AE08093C600FE018491E0E631
:10234000F9E0882349F09091C00095FFFCCF80937D
:10235000C60031968491F5CFE0EEF2E084918823B7
:1023600041F09091C00095FFFCCF8093C60031965C
:10237000F5CF8091C00085FFFCCF8AE08093C60036
:10238000FE018491E0E6F9E0882349F09091C000D5
:1023900095FFFCCF8093C60031968491F5CF409194
:1023A000051150910611609107117091081187ED88
:1023B00092E04BD7409101115091021160910311AD
:1023C0007091041184ED92E040D78091C00085FFA8
:1023D000FCCF8AE08093C600FE018491E0E6F9E03C
:1023E000882349F09091C00095FFFCCF8093C600F0
:1023F00031968491F5CFE1E2F2E08491882341F0B7
:102400009091C00095FFFCCF8093C6003196F5CF28
:102410008091C00085FFFCCF8AE08093C600FE015A
:102420008491E0E6F9E0882349F09091C00095FF9F
:10243000FCCF8093C60031968491F5CF409109116D
:1024400050910A1160910B1170910C1188E192E08A
:10245000FCD64091F1105091F2106091F310709100
:10246000F41085E192E0F1D640913D1150913E117A
:1024700060913F117091401182E192E0F7D6409156
:10248000FD105091FE106091FF10709100118FE0CF
:1024900092E0DBD64091F9105091FA106091FB1058
:1024A0007091FC108CE092E0D0D64091F5105091E4
:1024B000F6106091F7107091F81089E092E0C5D69F
:1024C0008091C00085FFFCCF8AE08093C600FE01AA
:1024D0008491E0E6F9E0882349F09091C00095FFEF
:1024E000FCCF8093C60031968491F5CFE7EFF1E001
:1024F0008491882341F09091C00095FFFCCF809398
:10250000C6003196F5CF8091C00085FFFCCF8AE0F0
:102510008093C600FE018491E0E6F9E0882349F04B
:102520009091C00095FFFCCF8093C60031968491B6
:10253000F5CF4091250750912607609127077091AC
:1025400028078EEE91E081D64091290750912A0705
:1025500060912B0770912C078BEE91E076D640911D
:102560002D0750912E0760912F077091300788EE4C
:1025700091E06BD68091C00085FFFCCF8AE080930C
:10258000C600FE018491E0E6F9E0882349F09091CD
:10259000C00095FFFCCF8093C60031968491F5CFA3
:1025A000EAEDF1E08491882341F09091C00095FF1D
:1025B000FCCF8093C6003196F5CF8091C00085FF97
:1025C000FCCF8AE08093C600FE01C491E0E6F9E00A
:1025D000CC2349F08091C00085FFFCCFC093C6009A
:1025E0003196C491F5CF40915C0250915D026091AB
:1025F0005E0270915F0280ED91E027D660915802F3
:102600007091590280915A0290915B020E942F7F33
:10261000AB01BC018DEC91E018D660915402709131
:10262000550280915602909157020E943B7FAB0168
:10263000BC018AEC91E009D68091C00085FFFCCFF7
:102640008AE08093C600DF91CF910895AF92BF9248
:10265000CF92DF92EF92FF920F931F93CF93DF936E
:10266000CDB7DEB7E0970FB6F894DEBF0FBECDBF93
:1026700080E1E9E7F2E0DE01919601900D928A9502
:10268000E1F780E1E9E8F2E0DE01519601900D9278
:102690008A95E1F780E1E9E9F2E0DE011196019027
:1026A0000D928A95E1F76E0181E2C80ED11C8DE191
:1026B000E82E81E1F82E8E010F5E1F4F6DE271E171
:1026C000AE014F5F5F4F9DE0A92E91E1B92E20E052
:1026D00030E0F60181919191A191B1916F01F701E3
:1026E00081939193A193B1937F01F801819191918D
:1026F000A191B1918F01FB0181939193A193B1932A
:10270000BF01FA0181919191A191B191AF01F501C0
:1027100081939193A193B1935F012F5F3F4F243039
:102720003105B9F60E942B6A80E090E0AFE2B4E494
:102730008093051190930611A0930711B09308118F
:102740008093011190930211A0930311B09304118F
:102750001092091110920A1110920B1110920C1183
:1027600080E29EE4A0E0B0E080933D1190933E11A2
:10277000A0933F11B09340111092F1101092F210FB
:102780001092F3101092F41080E090E0A0E7B1E412
:102790008093FD109093FE10A093FF10B093001152
:1027A0008DEC9CECACECBEE38093F9109093FA10A6
:1027B000A093FB10B093FC1080E090E0A0EEB0E49A
:1027C0008093F5109093F610A093F710B093F81043
:1027D00010922D0710922E0710922F07109230079B
:1027E0001092290710922A0710922B0710922C079B
:1027F000109225071092260710922707109228079B
:1028000084EB90E0909348128093471282E390E02B
:1028100090934612809345128FEF90E0909344126C
:102820008093431220EF30E0309342122093411204
:102830002AE530E03093401220933F1290933E12ED
:1028400080933D128AE999E9A1EBB1E480935C029F
:1028500090935D02A0935E02B0935F0261E77DE317
:102860008AE89FE30E94297F60935802709359027F
:1028700080935A0290935B0260E070E084EE92E4F1
:102880000E94357F609354027093550280935602E4
:10289000909357020E946F7580E090E0A0E8BFE33C
:1028A0008093500290935102A0935202B09353022E
:1028B0001092410780E090E0A0E4B0E480931B0216
:1028C00090931C02A0931D02B0931E020E940C253F
:1028D000E0E6F9E08491882341F09091C00095FFF3
:1028E000FCCF8093C6003196F5CFEEE8F1E08491FD
:1028F000882341F09091C00095FFFCCF8093C600E3
:102900003196F5CF8091C00085FFFCCF8AE080939F
:10291000C600E0960FB6F894DEBF0FBECDBFDF91C4
:10292000CF911F910F91FF90EF90DF90CF90BF90CC
:10293000AF900895CF93DF93CDB7DEB72C970FB646
:10294000F894DEBF0FBECDBF84E690E09C878B87F6
:1029500086E591E3A3E3B0E089839A83AB83BC83EC
:1029600044E0BE016B5F7F4FCE010B9692DA43E0ED
:1029700050E0BE016B5F7F4FCE0101960E940EC9F1
:10298000892B09F0BFC040E16DE171E1CE010B96EA
:1029900080DA40E16DE271E1CE010B967ADA40E136
:1029A0006DE071E1CE010B9674DA0E942B6A44E06F
:1029B00065E071E1CE010B966CDA44E061E071E113
:1029C000CE010B9666DA44E069E071E1CE010B9628
:1029D00060DA44E061EF70E1CE010B965ADA44E030
:1029E0006DE371E1CE010B9654DA44E06DEF70E1D6
:1029F000CE010B964EDA44E069EF70E1CE010B9602
:102A000048DA44E065EF70E1CE010B9642DA4CE023
:102A100065E277E0CE010B963CDA42E067E472E1D2
:102A2000CE010B9636DA42E065E472E1CE010B96F8
:102A300030DA42E063E472E1CE010B962ADA42E03A
:102A400061E472E1CE010B9624DA42E06FE372E1B9
:102A5000CE010B961EDA42E06DE372E1CE010B96D9
:102A600018DA44E062E177E0CE010B9612DA44E036
:102A70006CE572E0CE010B960CDA44E068E572E09A
:102A8000CE010B9606DA44E064E572E0CE010B96C7
:102A900000DA42E0BE01675F7F4FCE010B96F9D9A5
:102AA00041E061E477E0CE010B96F3D944E06BE1BD
:102AB00072E0CE010B96EDD90E940C250E946F7535
:102AC000E0E6F9E08491882341F09091C00095FF01
:102AD000FCCF8093C6003196F5CFE0EBF1E0849116
:102AE000882341F09091C00095FFFCCF8093C600F1
:102AF0003196F5CF8091C00085FFFCCF8AE08093AE
:102B0000C60001C0A3DDE2DA2C960FB6F894DEBF52
:102B10000FBECDBFDF91CF9108951F920F920FB6D8
:102B20000F9211240BB60F922F933F934F935F9305
:102B30006F938F939F93EF93FF936091C6002091C3
:102B40002B0530912C05C90101968F77992740916B
:102B50002D0550912E058417950741F0F901E55593
:102B6000FB4F608390932C0580932B05FF91EF9191
:102B70009F918F916F915F914F913F912F910F9006
:102B80000BBE0F900FBE0F901F9018959A01AB01CE
:102B9000211581EE38074105510549F182E0809306
:102BA000C00060E079E08DE390E00E940BC121500D
:102BB000310941095109CA01B90122E030E040E080
:102BC00050E00E940BC13093C5002093C400809157
:102BD000C10080618093C1008091C10088608093B2
:102BE000C1008091C10080688093C1000895109257
:102BF000C00020E130E0E7CF20912D0530912E0577
:102C000080912B0590912C058217930771F0F901A3
:102C1000E555FB4F80812F5F3F4F2F773327309350
:102C20002E0520932D0590E008958FEF9FEF0895D6
:102C300080912D0590912E0590932C0580932B0566
:102C400008954F925F926F927F928F929F92AF9270
:102C5000BF92CF92DF92EF92FF920F931F93CF9389
:102C6000DF93CDB7DEB7A0970FB6F894DEBF0FBEE7
:102C7000CDBF5C014115510561057105E9F420E006
:102C800030E040E350E060E070E0A0960FB6F894CA
:102C9000DEBF0FBECDBFDF91CF911F910F91FF908F
:102CA000EF90DF90CF90BF90AF909F908F907F90EC
:102CB0006F905F904F905BC08E010F5F1F4FC12CD4
:102CC000D12C76014801422E512C612C712C8FEFB2
:102CD000C81AD80AE80AF80ACB01BA01A30192017E
:102CE0000E94E9C0CA01F80161938F01A901BC01EA
:102CF000411551056105710551F7F1E0CF1AD10871
:102D0000E108F108F401EC0DFD1D80818A3010F41A
:102D100040E301C047E3480F552747FD5095652F15
:102D2000752F20E030E0C50122D081E0C81AD1081B
:102D3000E108F108EFEFCE16DE06EE06FE0611F70B
:102D4000A0960FB6F894DEBF0FBECDBFDF91CF9136
:102D50001F910F91FF90EF90DF90CF90BF90AF90B9
:102D60009F908F907F906F905F904F900895211566
:102D7000310539F48091C00085FFFCCF4093C60037
:102D800008952A30310509F41CC05BCFCF93DF933F
:102D9000EC0120E030E04DE050E060E070E0E7DF83
:102DA00020E030E04AE050E060E070E0CE01DF91EA
:102DB000CF91DDCF9A01AB01662757FD6095762F45
:102DC000D6CFCF92DF92EF92FF92CF93DF93EC01B9
:102DD0006A017B0177FF0FC020E030E04DE250E058
:102DE00060E070E0C4DFF094E094D094C094C11C23
:102DF000D11CE11CF11C2AE0B701A601CE01DF9134
:102E0000CF91FF90EF90DF90CF901BCF2115310530
:102E100039F48091C00085FFFCCF4093C60008952F
:102E200010CF9A01462F50E060E070E0EFCFCF93D3
:102E3000DF93EC019A01AB0160E070E0E7DFCE01C7
:102E4000DF91CF91A3CF8F929F92AF92BF92CF92FB
:102E5000DF92EF92FF921F93CF93DF93EC016A0111
:102E60007B01122F20E030E0A901C701B6010E94CA
:102E70002AC287FF0CC020E030E04DE250E060E065
:102E800070E0CE0174DFF7FAF094F7F8F094B12C0B
:102E900060E070E080E09FE3B11641F020E030E0B8
:102EA00040E251E40E9431C2B394F6CF9B01AC01E1
:102EB000C701B6010E9451C16B017C010E949EC2F4
:102EC0004B015C010E94CAC29B01AC01C701B60163
:102ED0000E9450C16B017C012AE0B501A401CE0122
:102EE000B0DE112361F0E2E8F4E08191882339F04B
:102EF0009091C00095FFFCCF8093C600F6CF1123C0
:102F000019F120E030E040E251E4C701B6010E942F
:102F1000FFC46B017C010E9499C24B01AA2497FC5B
:102F2000A094BA2CB501A401CE014BDFC501B401B8
:102F30000E94CCC29B01AC01C701B6010E9450C1E6
:102F40006B017C011150DBCFDF91CF911F91FF907E
:102F5000EF90DF90CF90BF90AF909F908F900895AB
:102F600072CFFC01659175918591949108952F928E
:102F70003F924F925F926F927F928F929F92AF9209
:102F8000BF92CF92DF92EF92FF920F931F93CF9356
:102F9000DF9300D000D0CDB7DEB71C01FC01EF5DA0
:102FA000F64F14919C01220F331F220F331F3E83D3
:102FB0002D832F5C384F4901F90110821182128252
:102FC00013822DE337E049E357E065E377E081E3DF
:102FD00097E00E9459698D819E81805D964FC1DF87
:102FE0006B017C01612F772767FD7095872F972FE5
:102FF0000E94CCC22B013C012D813E812250394FD1
:10300000590120E030E040EC5FE3C701B6010E94C7
:10301000FFC4A30192010E94FFC4F5016083718384
:10302000828393832D813E812B5D3D4F3C832B8397
:10303000F9016081718182819381609305027093AF
:103040000602809307029093080220E030E040E7F8
:1030500052E40E9431C221E1C22E27E0D22E7B0130
:103060008C012AE037E046E057E062E077E08EEF3F
:1030700096E00E94835F0E94E172F4011082118247
:10308000128213822DE337E049E357E065E377E0EE
:1030900081E397E00E9459692D813E812C5D364F76
:1030A0003A832983C9015DDF9058A30192010E94F0
:1030B000FFC4F501608371838283938320E030E055
:1030C00040E752E460910502709106028091070288
:1030D000909108020E9431C27B018C012AE037E006
:1030E00046E057E062E077E08EEF96E00E94835F73
:1030F0000E94E17289819A8134DF9B01AC010E94B8
:1031000051C1A30192010E94FFC4F5016083718344
:103110008283938320E030E040E05FE3EB81FC8139
:1031200060817181828193810E94FFC46093050256
:1031300070930602809307029093080220E030E02B
:1031400040E752E40E9431C27B018C012AE037E063
:1031500046E057E062E077E08EEF96E00E94835F02
:103160000E94E1728D819E81845C964FFADE0D8112
:103170001E810B5D184FF8012081318142815381FE
:103180000E9451C1F40160837183828393838D8196
:103190009E818C5A964FE5DE2D813E81275E384F09
:1031A0007901F80120813181428153810E9451C10E
:1031B000F70160837183828393838D819E81885B15
:1031C000964FCFDE2D813E81255F3D4F7901F8017D
:1031D00020813181428153810E9451C1F701608376
:1031E000718382839383F40180819181A281B38171
:1031F000F50180839183A283B3831092050210921C
:10320000060210920702109208020E940E6BF10152
:10321000EA5EF84F81E0808326960FB6F894DEBF11
:103220000FBECDBFDF91CF911F910F91FF90EF9017
:10323000DF90CF90BF90AF909F908F907F906F90D6
:103240005F904F903F902F900895FC01249122238E
:1032500041F03091C00035FFFCCF2093C6000196AD
:10326000F4CF22E030E08AEA94E07ACEFC012491A7
:10327000222341F03091C00035FFFCCF2093C600DF
:103280000196F4CF2AE030E08AEA94E0BFCD2091A5
:10329000530530915405243031050CF06AC040913B
:1032A00055055091560560E6649F9001659F300D6D
:1032B0001124BC01C901835A9A4F0E9407C9E0E654
:1032C000F9E08491882341F09091C00095FFFCCFF4
:1032D0008093C6003196F5CFE6E1F9E0849188232A
:1032E00041F09091C00095FFFCCF8093C6003196CD
:1032F000F5CF809155059091560520E6289FF00165
:10330000299FF00D1124E35AFA4F8191882339F057
:103310009091C00095FFFCCF8093C600F6CFE4E10A
:10332000F9E08491882341F09091C00095FFFCCF93
:103330008093C6003196F5CF8091C00085FFFCCF09
:103340008AE08093C60080915505909156050196BC
:1033500064E070E00E94D6C09093560580935505B6
:103360008091530590915405019690935405809354
:1033700053050895209153053091540524303105AB
:103380000CF06AC0409155055091560560E6649F67
:103390009001659F300D1124BC01C901835A9A4FD9
:1033A0000E946EC8E0E6F9E08491882341F0909194
:1033B000C00095FFFCCF8093C6003196F5CFE9E0C1
:1033C000F9E08491882341F09091C00095FFFCCFF3
:1033D0008093C6003196F5CF8091550590915605A2
:1033E00020E6289FF001299FF00D1124E35AFA4F9F
:1033F0008191882339F09091C00095FFFCCF809394
:10340000C600F6CFE7E0F9E08491882341F090917F
:10341000C00095FFFCCF8093C6003196F5CF809118
:10342000C00085FFFCCF8AE08093C60080915505DF
:1034300090915605019664E070E00E94D6C090938A
:10344000560580935505809153059091540501963A
:10345000909354058093530508959898A09A0895E1
:10346000269A2E980895F9DFFBDF40E950ED63E0DE
:1034700070E08AEA94E08ADBE1E0F9E08491882355
:1034800041F09091C00095FFFCCF8093C60031962B
:10349000F5CF8091C00085FFFCCF8AE08093C60005
:1034A00080E699E0FC012491222341F03091C00094
:1034B00035FFFCCF2093C6003196F5CF24B720FF0F
:1034C00014C0E9EFF8E03491332341F04091C0009B
:1034D00045FFFCCF3093C6003196F5CF3091C00048
:1034E00035FFFCCF3AE03093C60021FF14C0E9EE6F
:1034F000F8E03491332341F04091C00045FFFCCF08
:103500003093C6003196F5CF3091C00035FFFCCF27
:103510003AE03093C60022FF14C0E8EDF8E03491A1
:10352000332341F04091C00045FFFCCF3093C600EB
:103530003196F5CF3091C00035FFFCCF3AE03093A3
:10354000C60023FF14C0E8ECF8E03491332341F0C7
:103550004091C00045FFFCCF3093C6003196F5CFB7
:103560003091C00035FFFCCF3AE03093C60025FF14
:1035700014C0E8EBF8E02491222341F03091C00020
:1035800035FFFCCF2093C6003196F5CF2091C000C7
:1035900025FFFCCF2AE02093C60014BEE1EBF8E043
:1035A0002491222341F03091C00035FFFCCF2093BD
:1035B000C6003196F5CFE9EAF8E02491222341F0E4
:1035C0003091C00035FFFCCF2093C6003196F5CF77
:1035D0002091C00025FFFCCF2AE02093C600FC010B
:1035E0002491E0E6F9E0222349F03091C00035FF54
:1035F000FCCF2093C60031962491F5CFE9E9F8E09D
:103600002491222341F03091C00035FFFCCF20935C
:10361000C6003196F5CFE4E8F8E02491222341F08A
:103620003091C00035FFFCCF2093C6003196F5CF16
:10363000E8E7F8E02491222341F03091C00035FF03
:10364000FCCF2093C6003196F5CFE7E6F8E0249151
:10365000222341F03091C00035FFFCCF2093C600FB
:103660003196F5CF2091C00025FFFCCF2AE02093B2
:10367000C600ECE5F8E02491222341F03091C0002F
:1036800035FFFCCF2093C6003196F5CFE0E5F8E09A
:103690002491222341F03091C00035FFFCCF2093CC
:1036A000C6003196F5CF2091C00025FFFCCF2AE05F
:1036B0002093C600FC018491E0E6F9E0882349F0FC
:1036C0009091C00095FFFCCF8093C6003196849105
:1036D000F5CFE1E4F8E08491882341F09091C000B7
:1036E00095FFFCCF8093C6003196F5CF0E943C46F3
:1036F0004AE050E0BC018AEA94E05CDBEAE2F8E0F0
:103700008491882341F09091C00095FFFCCF809375
:10371000C6003196F5CF4AE050E060ED74E08AEAE9
:1037200094E048DB8091C00085FFFCCF8AE0809365
:10373000C6001092590510925A0510925B0510921E
:103740005C05F8D80E94F3770E941D5E0E944D72BE
:103750000E94C194FFEF23ED80E3F15020408040B0
:10376000E1F700C0000080910101886080930101B1
:10377000089580914D0590914E0560E070E00196AE
:103780000C94C5C580914D0590914E054AE050E0DE
:1037900060E070E001960C942DC7682F772767FDD5
:1037A0007095209157053091580540E6429FC00121
:1037B000439F900D1124835A9A4F0E94F3C890930F
:1037C0004E0580934D0521E0892B09F420E0822FDE
:1037D00008950E94ADBC6093490570934A0580939B
:1037E0004B0590934C0508950E94ADBC609349052C
:1037F00070934A0580934B0590934C05E0915705D3
:10380000F0915805E75AFA4F8081811114C0EAE41B
:10381000F4E08491882341F09091C00095FFFCCFA3
:103820008093C6003196F5CF8091C00085FFFCCF14
:103830008AE08093C60008958AEA94E0F9D9EDE41D
:10384000F4E08491882341F09091C00095FFFCCF73
:103850008093C6003196F5CF4091E2065091E30681
:103860006091E4067091E5064F5F5F4F6F4F7F4FA9
:103870002AE030E08AEA94E07ADA8091C00085FF9D
:10388000FCCF8AE08093C600AFCF8F929F92AF9219
:10389000BF92CF92DF92EF92FF920F931F93CF933D
:1038A000DF9332E1E32E34E0F32E01E317E0CEEFB5
:1038B000D6E044E4C42E47E0D42EF70181917F0185
:1038C0006CDF882311F155DF4B015C01F60180812B
:1038D000811103C06091DD0601C061E070E080E00D
:1038E00090E00E94CCC2F801208131814281538155
:1038F0000E94FFC49B01AC01C501B4010E9451C1EB
:10390000688379838A839B8309C0F80180819181D0
:10391000A281B38188839983AA83BB830C5F1F4FE5
:103920002496FFEFCF1ADF0A86E1E81684E0F80656
:1039300021F686E432DF8823D1F01BDF6B017C01A6
:103940006093EE067093EF068093F0069093F10675
:1039500020E030E0A9010E942DC4181644F4C09262
:103960000502D0920602E0920702F0920802DF916F
:10397000CF911F910F91FF90EF90DF90CF90BF906C
:10398000AF909F908F90089580DF89E406DF8823B1
:1039900051F0EFDE6093F2067093F3068093F40625
:1039A0009093F50608C01092F2061092F30610925A
:1039B000F4061092F5068AE4F0DE882351F0D9DE91
:1039C0006093F6067093F7068093F8069093F906D5
:1039D00008951092F6061092F7061092F8061092CB
:1039E000F9060895CF92DF92EF92FF92CF93DF9383
:1039F000EC01C0901907D0901A07E0901B07F090D7
:103A00001C07A7019601688179818A819B810E94A8
:103A10002AC287FF04C0C882D982EA82FB82C09092
:103A20001D07D0901E07E0901F07F0902007A70108
:103A300096016C817D818E819F810E942AC287FFC1
:103A400004C0CC82DD82EE82FF8220E030E0A9015A
:103A5000609121077091220780912307909124079C
:103A60000E9451C16B017C019B01AC016885798585
:103A70008A859B850E942AC287FF04C0C886D98692
:103A8000EA86FB86C0900B02D0900C02E0900D02FB
:103A9000F0900E02A7019601688179818A819B814D
:103AA0000E942DC4181624F4C882D982EA82FB82AF
:103AB000C0900F02D0901002E0901102F09012021C
:103AC000A70196016C817D818E819F810E942DC40A
:103AD000181624F4CC82DD82EE82FF82C09013029D
:103AE000D0901402E0901502F0901602A701960102
:103AF000688579858A859B850E942DC4181624F4D3
:103B0000C886D986EA86FB86DF91CF91FF90EF9039
:103B1000DF90CF900895CF92DF92EF92FF920F93B4
:103B20001F938EEF96E05EDF0E94ADBC6093490567
:103B300070934A0580934B0590934C052091FE06A7
:103B40003091FF06409100075091010760913107C5
:103B50007091320780913307909134070E942AC2F6
:103B6000811179C020910207309103074091040729
:103B7000509105076091350770913607809137079E
:103B8000909138070E942AC2811165C020E030E080
:103B900040E752E4609105027091060280910702AD
:103BA000909108020E9431C251E1C52E57E0D52EF6
:103BB0007B018C012AE037E046E057E062E077E0E5
:103BC0008EEF96E00E94835F8091FE069091FF0643
:103BD000A0910007B09101078093310790933207BD
:103BE000A0933307B09334078091020790910307A5
:103BF000A0910407B091050780933507909336078D
:103C0000A0933707B0933807809106079091070774
:103C1000A0910807B09109078093390790933A075C
:103C2000A0933B07B0933C0780910A0790910B0744
:103C3000A0910C07B0910D0780933D0790933E072C
:103C4000A0933F07B09340071F910F91FF90EF9013
:103C5000DF90CF900895609123027091240288270D
:103C600077FD8095982F0E94CCC22091050230915B
:103C7000060240910702509108020E94FFC420E012
:103C800030E040E752E40E9431C220E030E048ECEE
:103C900052E488CFAF92BF92CF92DF92EF92FF9221
:103CA0000F931F93CF93DF93D82F2091F606309177
:103CB000F7064091F8065091F9066091F20670916E
:103CC000F3068091F4069091F5060E943AC4C62F3F
:103CD000172F082FF92E6091230270912402882754
:103CE00077FD8095982F0E94CCC2209105023091DB
:103CF000060240910702509108020E94FFC420E092
:103D000030E040E752E40E9431C220E030E048EC6D
:103D100052E40E9431C2209111072F93DF93FF924A
:103D20000F931F93CF935B016C0162E0E62E01E0DD
:103D300020E042EF56E06EEF76E081E397E00E94EC
:103D4000F5568091FE069091FF06A0910007B09174
:103D500001078093310790933207A0933307B09304
:103D600034078091020790910307A0910407B09156
:103D700005078093350790933607A0933707B093D4
:103D800038078091060790910707A0910807B09126
:103D900009078093390790933A07A0933B07B093A4
:103DA0003C0780910A0790910B07A0910C07B091F6
:103DB0000D0780933D0790933E07A0933F07B09374
:103DC00040070E94ADBC6093490570934A058093FB
:103DD0004B0590934C050F900F900F900F900F9004
:103DE0000F90DF91CF911F910F91FF90EF90DF9097
:103DF000CF90BF90AF9008950F931F930E94ADBCDA
:103E0000009132051091330520913405309135052C
:103E1000601B710B820B930B643C7940810591050B
:103E200008F44DC00E94ADBC609332057093330519
:103E300080933405909335054F9B24C07A9B22C014
:103E40008091060180FF1EC08091D61181111AC099
:103E5000029B18C00E94ADBC009136051091370539
:103E60002091380530913905601B710B820B930B43
:103E700060367A4E8105910580F4012B022B032BCD
:103E800061F012C00E94ADBC609336057093370597
:103E90008093380590933905DDCF60E086E00E947D
:103EA000CFBE60E070E006C06FEF86E00E94CFBE3C
:103EB0006FEF70E086E01F910F910C9480BD1F9111
:103EC0000F910895F8940E9495785F9A10921607C2
:103ED0008A9A109217079FB7F89480910801816021
:103EE000809308019FBF10921807129A60E08CE03F
:103EF0000E9496BEE6E6F9E08491882341F0909115
:103F0000C00095FFFCCF8093C6003196F5CFEBE261
:103F1000F4E08491882341F09091C00095FFFCCF9C
:103F20008093C6003196F5CF8091C00085FFFCCF0D
:103F30008AE08093C60082E294E00E945F947894C5
:103F4000C6E0D0E02197209749F068EC70E080E06F
:103F500090E00E94DCBC0E94DF94F4CFF894FFCF85
:103F60002F923F924F925F926F927F928F929F9289
:103F7000AF92BF92CF92DF92EF92FF920F931F9377
:103F8000CF93DF93CDB7DEB76E970FB6F894DEBF51
:103F90000FBECDBFA0E6BA2EB4E0EB2EF12C10EF91
:103FA000C12E16E0D12E0AE0A02E99249394809180
:103FB0002B0590912C0520912D0530912E05821B0B
:103FC000930B8F779927892B09F418C28091530599
:103FD0009091540504970CF011C28AEA94E00E9473
:103FE000FC158093520520915005309151058A307F
:103FF00061F08D3051F08A3321F490914F0599236F
:1040000021F02F3531050CF41BC12115310509F4C0
:1040100035C18091550590915605B89E3001B99EE5
:10402000700C1124F301E20FF31FE35AFA4F1082D0
:1040300020914F052111FFC0FC01E75AFA4F108271
:104040008301035A1A4F6EE470E0C8010E94F3C85E
:104050000097F1F190934E0580934D05801B910BD5
:10406000860D971D4AE050E060E070E0825A9A4F5A
:104070000E942DC76093E6067093E7068093E806DA
:104080009093E9064090E2065090E3066090E406C3
:104090007090E5062FEF421A520A620A720A0091E6
:1040A000550510915605641575058605970509F4A3
:1040B000E8C0B09EC001B19E900D11246CE078E084
:1040C000835A9A4F0E94A5C8892B09F0DAC069C1AA
:1040D0006AE270E0C8010E94F3C8892B09F444C069
:1040E000E6E6F9E08491882341F09091C00095FFC5
:1040F000FCCF8093C6003196F5CFE6E6F7E08491D9
:10410000882341F09091C00095FFFCCF8093C600BA
:104110003196F5CF4091E2065091E3066091E406B6
:104120007091E5062AE030E08AEA94E00E94B71632
:104130008091C00085FFFCCF8AE08093C60010927A
:10414000510510925005C0C28091E6069091E70695
:10415000A091E806B091E9068093E2069093E30609
:10416000A093E406B093E50680915505909156051D
:10417000B89E8001B99E100D1124C801835A9A4F30
:104180003C0167E470E00E94F3C8009781F19093CE
:104190004E0580934D0586199709800F911F60E0A9
:1041A00070E0825A9A4F0E94C5C50E9499C264303D
:1041B0007105E8F480913B058823C9F0F6018491EC
:1041C000E0EFF6E0882349F09091C00095FFFCCF26
:1041D0008093C60031968491F5CF8091C00085FF11
:1041E000FCCFA092C60086EE96E00E945294009109
:1041F000550510915605B09EC001B19E900D112439
:1042000069EE72E0835A9A4F0E94FEC8892B09F426
:1042100059DEC8010196B7010E94D6C09093560599
:104220008093550580915305909154050196909384
:104230005405809353051092510510925005B7CE46
:104240008B3311F490924F0590914F059111AFCEA1
:104250004091550550915605B9016F5F7F4F70939E
:10426000510560935005B49EF001B59EF00D1124E8
:10427000E20FF31FE35AFA4F808399CE10924F0555
:1042800023C2B09E3001B19E700C1124C301835A29
:104290009A4F1C016AE270E00E94F3C8009789F50A
:1042A000E6E6F9E08491882341F09091C00095FF03
:1042B000FCCF8093C6003196F5CFE0E9F7E084911A
:1042C000882341F09091C00095FFFCCF8093C600F9
:1042D0003196F5CF4091E2065091E3066091E406F5
:1042E0007091E5062AE030E08AEA94E00E94B71671
:1042F0008091C00085FFFCCF8AE08093C6009CDAE5
:104300001ECF20E010E0F301E20FF11DE35AFA4F57
:1043100030813A3219F02F5F1327F5CF90934E0575
:1043200080934D0582199309860D971D60E070E01A
:10433000825A9A4F0E94C5C50E9499C2212F30E02F
:104340002617370709F400CFE6E6F9E084918823C1
:1043500041F09091C00095FFFCCF8093C60031964C
:10436000F5CFEAEBF7E08491882341F09091C0000B
:1043700095FFFCCF8093C6003196F5CF4091E206C1
:104380005091E3066091E4067091E5062AE030E082
:104390008AEA94E00E94B7168091C00085FFFCCFA6
:1043A000ABCFE6E6F9E08491882341F09091C0001C
:1043B00095FFFCCF8093C6003196F5CFE9EDF7E08D
:1043C0008491882341F09091C00095FFFCCF8093A9
:1043D000C6003196F5CF4091E2065091E306609118
:1043E000E4067091E5062AE030E08AEA94E00E9453
:1043F000B7168091C00085FFFCCF7ECF80914A0721
:10440000882309F461C18091500590915105892B51
:1044100009F05AC18091530590915405892B11F4EC
:1044200010923105E8EE2E2EE3E03E2E412C512C69
:10443000FCE3CF2ED12CE12CF12C8E010F5F1F4F0E
:1044400070E6672E772473944091CB095091CC0984
:104450006091CD097091CE098091C3099091C409F2
:10446000A091C509B091C609481759076A077B078B
:1044700008F02AC1809153059091540504970CF0DF
:1044800023C18091310581111FC180911E09909136
:104490001F09A0912009B09121098093CB09909325
:1044A000CC09A093CD09B093CE0986E199E00E9492
:1044B0000E40482F809352058A30B9F04D30A9F054
:1044C000433229F420914F05211103C00EC04A3315
:1044D000C9F320915005309151052F3531052CF449
:1044E0008F3FFFEF9F0709F0D1C04091CB0950915A
:1044F000CC096091CD097091CE098091C30990914A
:10450000C409A091C509B091C609481759076A079F
:104510007B0708F481C0E3EDF6E08491882341F045
:104520009091C00095FFFCCF8093C6003196F5CFE7
:104530008091C00085FFFCCFFAE0F093C6000E9496
:10454000ADBC60933D0570933E0580933F0590930D
:1045500040058090410590904205A0904305B090A1
:104560004405681979098A099B09A20191010E94F1
:10457000E9C049015A01CA01B901A70196010E9487
:10458000E9C0CA01B901A70196010E94E9C07F9361
:104590006F93C501B40120E13EE040E050E00E948D
:1045A000E9C03F932F93AFEBB6E0BF93AF931F9358
:1045B0000F930E942BC9E0E6F9E084910FB6F894BE
:1045C000DEBF0FBECDBF882349F09091C00095FF9C
:1045D000FCCF8093C60031968491F5CFF80181918C
:1045E000882339F09091C00095FFFCCF8093C600DE
:1045F000F6CF8091C00085FFFCCF3AE03093C60033
:10460000C8010E946F9188E497E00E94795661E0AA
:1046100088E497E00E94B15080915205833211F4F2
:1046200070923105209150053091510521153105C9
:1046300009F424CE8091550590915605689EF001AD
:10464000699EF00D1124E20FF31FE35AFA4F108216
:10465000FC01E75AFA4F70822091530530915405BE
:104660002F5F3F4F3093540520935305019664E02C
:1046700070E00E94D6C09093560580935505109225
:104680004F051092510510925005DECE4B3311F4B8
:1046900070924F0540914F054111D2CE4091550582
:1046A00050915605B9016F5F7F4F7093510560932C
:1046B0005005649EF001659EF00D1124E20FF31F7A
:1046C000E35AFA4F8083C0CE6E960FB6F894DEBFE1
:1046D0000FBECDBFDF91CF911F910F91FF90EF9053
:1046E000DF90CF90BF90AF909F908F907F906F9012
:1046F0005F904F903F902F900895CF92DF92EF926E
:10470000FF920F931F93CF93C82F809153059091E1
:10471000540503970CF424DC0E94ADBC00914505C0
:10472000109146052091470530914805C0904905F4
:10473000D0904A05E0904B05F0904C056C197D092E
:104740008E099F09061717072807390728F4012B38
:10475000022B032B09F0B6DB4091010250910202BB
:104760006091030270910402452B462B472B19F1EF
:104770000E94ADBC0091490510914A0520914B055E
:1047800030914C05601B710B820B930B0091010261
:1047900010910202209103023091040206171707BC
:1047A0002807390740F49091E80B8091E70B9813A4
:1047B00002C0CC2311F180912F0590913005909982
:1047C00002C0019604C0181619062CF401979093A4
:1047D000300580932F0580912F0590913005803111
:1047E00097420CF0B8CF08DBCF911F910F91FF904B
:1047F000EF90DF90CF900C94665F5F9A109216074F
:104800008A9A109217079FB7F894809108018160E7
:10481000809308019FBF10921807129ACCCF0E9474
:10482000957880913B05811138C081E080933B05EC
:104830008091E2069091E306A091E406B091E5062E
:104840008093DE069093DF06A093E006B093E10626
:10485000E6E6F9E08491882341F09091C00095FF4D
:10486000FCCF8093C6003196F5CFECEAF3E084915B
:10487000882341F09091C00095FFFCCF8093C60043
:104880003196F5CF8091C00085FFFCCF8AE0809300
:10489000C60082EA93E00C945294089580913B05FF
:1048A0000895CF93DF93EC018091110780933C052D
:1048B00084E50E94CD1B811102C080E075C00E947A
:1048C000B91B0E949EC260933C056623B1F3E0E6EB
:1048D000F9E08491882341F09091C00095FFFCCFCE
:1048E0008093C6003196F5CFCD36D105B9F054F49A
:1048F000C836D105B1F0C936D10509F045C0E3E3AA
:10490000F3E021C0CA3DD10531F0CD3DD105E1F53F
:10491000EEEEF2E036C0E5E0F3E029C0ECE1F3E0D2
:104920001CC0EAE4F3E08191882371F19091C0000A
:1049300095FFFCCF8093C600F6CF9091C00095FF05
:10494000FCCF8093C60081918111F7CF1DC090915B
:10495000C00095FFFCCF8093C60081918111F7CFF5
:1049600013C09091C00095FFFCCF8093C600819149
:104970008111F7CF09C09091C00095FFFCCF8093C3
:10498000C60081918111F7CF40E050E060913C0575
:104990008AEA94E00E9411178091C00085FFFCCF45
:1049A0008AE08093C60081E0DF91CF910895CF9295
:1049B000DF92EF92FF92209141072223F1F020E055
:1049C00030E040E05FE30E94FFC46B017C0120E027
:1049D00030E0A9010E942AC2882379F0A70196013C
:1049E000C701B6010E94FFC42BED3FE049E450E44B
:1049F0000E94FFC49B01AC0104C020E030E040E80D
:104A00005FE360E070E080E89FE30E9431C2FF90C6
:104A1000EF90DF90CF90089560911B0270911C027F
:104A200080911D0290911E02C2DF60931702709365
:104A300018028093190290931A0208953F924F92A0
:104A40005F926F927F928F929F92AF92BF92CF921E
:104A5000DF92EF92FF920F931F93CF93DF93CDB727
:104A6000DEB7E0970FB6F894DEBF0FBECDBF87E488
:104A70000E94CD1B882309F417C20E94B91B0E9413
:104A800099C26430710509F43EC044F46230710586
:104A900021F174F577FF17C00C94C9386A35710598
:104AA00009F4AEC134F46C31710509F474C00C948E
:104AB000C9386B35710509F4A7C16C35710509F466
:104AC000A8C10C94C93880913B0581110C94C93858
:104AD0000E94451C20D80C94C93880913B05811157
:104AE0000C94C9380E94C41C81E0D4D80C94C938F5
:104AF00080913B0581110C94C9380E94C41C80E050
:104B0000C9D80C94C93886EB96E00E94529480E58F
:104B10000E94CD1B882339F00E94B91B0E949EC2BF
:104B20004B015C0103C0812C912C540183E50E9450
:104B3000CD1B882361F00E94B91B20E030E04AE7DA
:104B400054E40E94FFC40E949EC24B015C010E947B
:104B5000E1720E94ADBC6B017C01C80CD91CEA1C3F
:104B6000FB1C0E94ADBC6093490570934A0580937D
:104B70004B0590934C050E94ADBC6C157D058E05D0
:104B80009F0510F00C94C9380E94BC7580E0B5DD1B
:104B90000E94DF94F0CF8091050290910602A091CF
:104BA0000702B09108028093EA069093EB06A09367
:104BB000EC06B093ED06809123029091240290932D
:104BC00043078093420784E690E090932402809309
:104BD00023020E94ADBC6093490570934A058093FF
:104BE0004B0590934C0581E00E94156B8091310735
:104BF00090913207A0913307B09134078093FE065D
:104C00009093FF06A0930007B093010780913507AA
:104C100090913607A0913707B0913807809302072B
:104C200090930307A0930407B09305078091390779
:104C300090913A07A0913B07B0913C0780930607FB
:104C400090930707A0930807B093090780913D0749
:104C500090913E07A0913F07B091400780930A07CB
:104C600090930B07A0930C07B0930D0710920502C9
:104C700010920602109207021092080288E50E9424
:104C8000CD1B882311F090E00AC089E50E94CD1B5E
:104C90008111F9CF8AE50E94CD1B91E0982790936E
:104CA000090291110C94CC3888E50E94CD1B81112A
:104CB0000C94CC388091090281110C94D23889E58A
:104CC0000E94CD1B81110C94D23888E50E94CD1B27
:104CD0008823D1F00E94C21B672B682B692BA1F09F
:104CE0000E94B91B20912507309126074091270784
:104CF000509128070E9451C1609331077093320789
:104D0000809333079093340789E50E94CD1B882355
:104D1000D1F00E94C21B672B682B692BA1F00E9467
:104D2000B91B2091290730912A0740912B075091F8
:104D30002C070E9451C1609335077093360780930A
:104D40003707909338078091090281110C94D83865
:104D50008AE50E94CD1B81110C94D8388AE50E9407
:104D6000CD1B8823D1F00E94C21B672B682B692BB7
:104D7000A1F00E94B91B20912D0730912E07409180
:104D80002F07509130070E9451C1609339077093EB
:104D90003A0780933B0790933C072DE337E049E3C4
:104DA00057E065E377E081E397E00E94596980E08E
:104DB0000E94156B8091EA069091EB06A091EC069B
:104DC000B091ED068093050290930602A09307022E
:104DD000B093080280914207909143079093240278
:104DE000809323020E94ADBC6093490570934A05ED
:104DF00080934B0590934C050E940E6B0C94C93820
:104E00001092DD060C94C93881E08093DD060C9485
:104E1000C93885E40E94CD1B811102C00E94E17255
:104E200062E1C62E64E0D62E75E2E72E77E0F72E1B
:104E300001E317E0B12CF60181916F010E94CD1BB7
:104E4000882339F1F3E0BF120CC00E94B91BF801AE
:104E500060837183828393838DE397E00E94FE6970
:104E600018C00E94B91BF701208131814281538112
:104E70000E9451C1F80160837183828393832DE383
:104E800037E049E357E065E377E081E397E00E948C
:104E90005969B394F4E0EF0EF11C0C5F1F4F24E04E
:104EA000B212C9CF0C94C9388DE40E94CD1B88235F
:104EB00011F40C94F8370E94B91B0E9499C2603714
:104EC000710509F46FC40CF08FC06F31710509F4DE
:104ED0007EC3A4F56631710509F422C2BCF46131C8
:104EE000710509F4D8C134F46230710508F434C195
:104EF0000C94C9386431710509F4DEC10CF00AC2A2
:104F00006231710509F480C70C94C9386A317105A2
:104F100009F43AC23CF46831710509F41FC20CF47B
:104F200005C22CC26C31710509F442C20CF43AC2BC
:104F30006E31710509F471C20C94C938643571057C
:104F400009F462C794F56035710509F447C754F454
:104F50006032710509F49FC26A32710509F4BEC35B
:104F60000C94C9386235710509F445C70CF047C780
:104F70000E9495780E94E172129A0E944A731092E0
:104F8000100710920F0768EE73E080E090E00E9437
:104F9000DCBC269A2E9A10920A0281ED95E00E94BE
:104FA00052940E94DF940C94C9386936710509F453
:104FB0000CC474F46C35710509F479C76836710551
:104FC00009F4D3C36535710511F00C94C93854C781
:104FD0006B36710509F4FCC60CF4CAC66D36710552
:104FE00009F4FFC40C94C9386C3D710511F40C949C
:104FF00016330CF054C06C38710509F4D5C324F590
:105000006537710509F4E1C764F46237710509F485
:10501000F0C76337710511F00C94C938EEEFF4E076
:10502000CFC76837710511F40C94D8306937710512
:1050300011F40C94DC306737710511F00C94C93809
:10504000E0E7F3E00C94E6306B3C710511F40C944E
:10505000653284F4683C710511F40C94D331693CD9
:10506000710511F40C9445326E3B710511F00C94EE
:10507000C93873C56D3C710511F40C94A13214F458
:105080000C9481326E3C710511F00C94C93802E128
:1050900014E085E2E82E87E0F82E0C940733643F95
:1050A00031E0730711F40C94E8345CF56D3291E053
:1050B000790711F40C94DC3394F4623E710511F419
:1050C0000C944B336C32F1E07F0711F40C94A6334F
:1050D0006D3D710511F00C94C9380C9425336F3275
:1050E00021E0720711F40C94B03414F40C94A2343F
:1050F0006039714011F00C94C9380E94E1720C942F
:10510000C938683592E0790711F40C94C63594F4E7
:10511000663FF1E07F0711F40C94EE3414F40C9424
:10512000EB34673F714011F00C94C9380E9466104F
:105130000C94C938603A83E0780709F415C2673ED9
:1051400093E0790711F40C94E1376335734011F063
:105150000C94C9380C94F13400914D0510914E0512
:105160000E5F1F4F80E50E94CD1B882379F00E94BF
:10517000B91B0E949EC26B017C01BB24B3946115D4
:1051800071058105910531F4B12C04C0B12CC12CFD
:10519000D12C760183E50E94CD1B882399F00E94D3
:1051A000B91B20E030E04AE754E40E94FFC40E94AB
:1051B0009EC26B017C01AA24A3946115710581052F
:1051C000910509F4A12C6AE270E0C8010E94F3C8BD
:1051D000009711F0FC011082F801CF0121912032DB
:1051E000E1F3B11007C0A11005C0222319F00E94FD
:1051F0006F9104C085EA96E00E94529481E00E947B
:105200004F910E94E1720E94ADBC6093490570937A
:105210004A0580934B0590934C05C114D104E104D9
:10522000F104A9F00E94ADBC4B015C018C0C9D1CEB
:10523000AE1CBF1C0E94ADBC681579058A059B0594
:10524000B8F40E94B195811113C00C94DE380E940D
:10525000AF95882311F40C94C9380E94B19581113F
:105260000AC00E94BC7580E048DA0E94DF94F5CF46
:1052700080E00E944F9180914A07882331F086E9AF
:1052800096E00E9452940C94C93888E896E00E94F7
:1052900052940C94C9388FE796E00E9452945F981C
:1052A0008A989FB7F894809108018E7F80930801B7
:1052B0009FBF12980C94C938EFE6F6E084918823DA
:1052C00041F09091C00095FFFCCF8093C6003196CD
:1052D000F5CF8091C00085FFFCCF8AE08093C600A7
:1052E00088E497E00E941F4DE1E6F6E08491882370
:1052F00041F09091C00095FFFCCF8093C60031969D
:10530000F5CF8091C00085FFFCCF8AE08093C60076
:105310000C94C93888E497E00E94784D0C94C93801
:1053200088E497E00E943C4E0C94C93800914D05EA
:1053300010914E050C5F1F4F6AE270E0C8010E9499
:10534000F3C8009711F0FC01108221E041E0B801A0
:1053500088E497E00E9415520C94C93888E497E0DD
:105360000E94404E0E94ADBC60934105709342057F
:1053700080934305909344050C94C93888E497E0E2
:105380000E94474E0C94C93880914B07882311F432
:105390000C94C93883E50E94CD1B81110C94E73829
:1053A0000C94C93888E497E00E94EB4F0C94C938FC
:1053B00080914D0590914E056AE270E004960E943E
:1053C000F3C88C010097D9F020915705309158050A
:1053D00040E6429FC001439F900D11246EE470E0AF
:1053E000835A9A4F0E94F3C860E270E00E94F3C8AB
:1053F000019690934E0580934D05F80110826091BF
:105400004D0570914E056C5F7F4F21E040E088E4D0
:1054100097E00E9415520C94C93880914B0788235D
:1054200011F40C94C93860E088E497E00E94A5511B
:1054300080914D0590914E056AE270E004960E94BD
:10544000F3C88C010097D9F0209157053091580589
:1054500040E6429FC001439F900D11246EE470E02E
:10546000835A9A4F0E94F3C860E270E00E94F3C82A
:10547000019690934E0580934D05F801108260913E
:105480004D0570914E056C5F7F4F88E497E00E9458
:10549000AB4E0C94C93880914A0781110E94E17289
:1054A00000914D0510914E050C5F1F4F6AE270E0B0
:1054B000C8010E94F3C87C0161E270E0C8010E944B
:1054C000F3C8009719F08C010F5F1F4FE114F1042E
:1054D00011F0F701108280E50E94CD1BF82E20917B
:1054E0004D0530914E050217130708F4F12C8091F9
:1054F0004B07882311F40C94C93821E02F2541E093
:10550000B80188E497E00E94155283E50E94CD1B04
:105510008823B9F020914D0530914E0520173107B1
:1055200080F40E94C21BAB01BC014093CB09509395
:10553000CC096093CD097093CE0986E199E00E9471
:10554000D74088E497E00E94404EF1100C94C9388F
:105550000E94ADBC60934105709342058093430562
:10556000909344050C94C93880914D0590914E0557
:105570006AE270E005960E94F3C88C010097D9F0AA
:10558000209157053091580540E6429FC001439F46
:10559000900D11246EE470E0835A9A4F0E94F3C874
:1055A00060E270E00E94F3C8019690934E058093EC
:1055B0004D05F801108260914D0570914E056B5FAD
:1055C0007F4F88E497E00E9434550C94C9380E94BC
:1055D000ADBC60933D0570933E0580933F0590936D
:1055E00040050091410510914205209143053091FD
:1055F0004405601B710B820B930B28EE33E040E0F7
:1056000050E00E94E9C0CA01B9012CE330E040E05B
:1056100050E00E94E9C07F936F933F932F9382E500
:1056200096E09F938F93CE0101969F938F930E9454
:105630002BC9E0E6F9E084910FB6F894DEBF0FBE07
:10564000CDBF882349F09091C00095FFFCCF809397
:10565000C60031968491F5CFFE0131968191882361
:1056600039F09091C00095FFFCCF8093C600F6CF33
:105670008091C00085FFFCCF8AE08093C600CE01F8
:1056800001960E946F918091BC10882311F40C94B4
:10569000C9381092BC100091110710E0000F111FC3
:1056A0000B511E4EF80160817181882777FD80952E
:1056B000982F0E94CCC220913D0230913E02409131
:1056C0003F02509140020E942DC4181614F00C9411
:1056D000C938F801118210820C94C93883E50E9400
:1056E000CD1B882311F40C94C9380E94B91B0E9469
:1056F00099C2F62EE72E862F9E2D8C0180E50E9402
:10570000CD1B882331F00F3F110509F010F40C94E4
:10571000F7380DE010E0EAEDF3E081919191801708
:10572000910711F40C94C93824E0E231F207A9F78B
:105730000930110539F48F2D9E2D90931007809319
:105740000F0704C017FF02C00C94C93861E0802F16
:105750000E9496BE6F2D802F0E94CFBE6F2D7E2D92
:10576000802F0E9480BD0C94C93888E690E099D8BB
:1057700081110C94C93883E50E94CD1B882371F0F8
:1057800000913C050E94B91B10E0000F111F0B5146
:105790001E4E0E9499C2F801718360830E94947822
:1057A0000C94C9380E94621F83E50E94CD1B882398
:1057B00011F40C94C9380E94B91B0E9499C27093CD
:1057C000E4116093E3110C94C93889E690E069D83C
:1057D00081110C94C938ECE4F6E08491882341F0FF
:1057E0009091C00095FFFCCF8093C6003196F5CF15
:1057F000E0913C0524E0E29FF0011124E352FE4ECB
:10580000408151816281738121E030E08AEA94E035
:105810000E94B017E9E4F6E08491882341F090916A
:10582000C00095FFFCCF8093C6003196F5CFE09184
:105830003C05F0E0EE0FFF1FEB51FE4E60817181E1
:10584000882777FD8095982F0E94CCC2AB01BC01C0
:1058500021E030E08AEA94E00E94B017E5E4F6E047
:105860008491882341F09091C00095FFFCCF8093F4
:10587000C6003196F5CF4091D7115091D811609163
:10588000D9117091DA1121E030E08AEA94E00E94A7
:10589000B017E2E4F6E08491882341F09091C000D3
:1058A00095FFFCCF8093C6003196F5CF6091E31150
:1058B0007091E411882777FD8095982F0E94CCC2C3
:1058C000AB01BC0121E030E08AEA94E00E94B0170D
:1058D000EFE3F6E08491882341F09091C00095FFBA
:1058E000FCCF8093C6003196F5CF4AE050E060E0EF
:1058F00070E08AEA94E00E94DA16EDE3F6E0849123
:10590000882341F09091C00095FFFCCF8093C600A2
:105910003196F5CF4091DD115091DE116091DF118C
:105920007091E01121E030E08AEA94E00E94B01723
:10593000EAE3F6E08491882341F09091C00095FF5E
:10594000FCCF8093C6003196F5CF6091E511709140
:10595000E611882777FD8095982F0E94CCC2AB0175
:10596000BC0121E030E08AEA94E00E94B017E6E34F
:10597000F6E08491882341F09091C00095FFFCCF20
:105980008093C6003196F5CF80913C0590E00E944F
:1059900086754AE050E0BC018AEA94E00E94DA167B
:1059A000E1E3F6E08491882341F09091C00095FFF7
:1059B000FCCF8093C6003196F5CF8FEF9FEF0E940A
:1059C00086754AE050E0BC018AEA94E00E94DA164B
:1059D0008091C00085FFFCCF8AE08093C6000C94C4
:1059E000543A8DE690E00E94512481110C94C938FC
:1059F00086E296E00E9452941092BC1083E50E94C9
:105A0000CD1B882391F000913C050E94B91B10E04A
:105A1000000F111F0B511E4E0E9499C2F801718395
:105A2000608381E08093000215C082E50E94CD1B57
:105A3000882381F000913C050E94B91B10E0000F03
:105A4000111F0B511E4E0E9499C2F8017183608391
:105A50001092000283E50E94CD1B882351F00E9422
:105A6000B91B60933D0270933E0280933F02909376
:105A7000400282E40E94CD1B882351F00E94B91B92
:105A800060934102709342028093430290934402D8
:105A900086E40E94CD1B882369F00E94B91B6093A5
:105AA000390270933A0280933B0290933C0281E06A
:105AB0008093BC100E9494780E94ADBC4B015C01A5
:105AC00000913C0510E0F801EE0FFF1FEB51FE4E78
:105AD00060817181882777FD8095982F0E94CCC2C4
