:100000000C940D240C943E240C943E240C943E2419
:100010000C943E240C943E240C943E240C943E24D8
:100020000C943E240C943E240C943E240C943E24C8
:100030000C943E240C9404E30C943E240C943E2433
:100040000C943E240C946E800C943E240C943E241C
:100050000C943E240C943E240C94E7920C9471E38F
:100060000C943E240C94AA2A0C943E240C943E2416
:100070000C943E240C943E240C943E240C943E2478
:100080000C943E240C943E240C943E240C943E2468
:100090000C943E240C943E240C943E240C943E2458
:1000A0000C943E240C943E240C943E240C943E2448
:1000B0000C943E240C943E240C943E240C943E2438
:1000C0000C943E240C943E240C943E240C943E2428
:1000D0000C943E240C943E240C943E240C943E2418
:1000E0000C943E244593549370937F939993A893D3
:1000F000C293C693C893CC93D493A7E4ACE4B1E481
:10010000BBE4C5E43EE5CFE4D7E4DFE4E9E4F3E4AF
:10011000FDE40CE516E53EE520E52AE534E55FE57E
:1001200062E551E555E55BE599E566E56AE570E56B
:1001300074E578E57EE582E586E599E58CE590E570
:1001400094E5084AD73B3BCE016E84BCBFFDC12F6E
:100150003D6C74319ABD56833DDA3D00C77F11BEB8
:10016000D9E4BB4C3E916BAAAABE000000803F05BB
:10017000A84CCDB2D44EB93836A9020C50B99186EC
:1001800088083CA6AAAA2ABE000000803F00486159
:100190007264636F6465642044656661756C742085
:1001A00053657474696E6773204C6F616465640095
:1001B00053746F7265642073657474696E6773201D
:1001C0007265747269657665640020440020490098
:1001D0002020204D33303120500050494420736599
:1001E0007474696E67733A00205A00205900202009
:1001F0004D323036205800486F6D65206F6666734B
:10020000657420286D6D293A00204500205A002091
:10021000580020420020540020204D323035205319
:1002200000416476616E6365642076617269616223
:100230006C65733A20533D4D696E20666565647246
:1002400061746520286D6D2F73292C20543D4D69F4
:100250006E2074726176656C206665656472617487
:100260006520286D6D2F73292C20423D6D696E69C4
:100270006D756D207365676D656E742074696D654D
:1002800020286D73292C20583D6D6178696D756D3E
:10029000205859206A65726B20286D6D2F73292CA8
:1002A00020205A3D6D6178696D756D205A206A6510
:1002B000726B20286D6D2F73292C2020453D6D61B8
:1002C00078696D756D2045206A65726B20286D6DAB
:1002D0002F73290020540020204D32303420530049
:1002E000416363656C65726174696F6E3A20533D5A
:1002F000616363656C65726174696F6E2C20543D37
:100300007265747261637420616363656C657261A8
:1003100074696F6E00204500205A0020590020208B
:100320004D3230312058004D6178696D756D204136
:100330006363656C65726174696F6E20286D6D2FE3
:100340007332293A00204500205A0020590020200D
:100350004D3230332058004D6178696D756D2066DF
:10036000656564726174657320286D6D2F73293A19
:1003700000204500205A0020590020204D3932200D
:10038000580053746570732070657220756E6974BF
:100390003A0053657474696E67732053746F7265A5
:1003A000640053544F505045442E20005072696EE3
:1003B0007465722073746F70706564206475652055
:1003C000746F206572726F72732E20466978207484
:1003D0006865206572726F7220616E642075736546
:1003E000204D39393920746F2072657374617274CD
:1003F0002E202854656D7065726174757265206970
:10040000732072657365742E20536574206974209F
:1004100061667465722072657374617274696E6767
:1004200029004B494C4C45442E20005072696E7493
:1004300065722068616C7465642E206B696C6C2831
:10044000292063616C6C656421006F6B00526573D9
:10045000656E643A20002200556E6B6E6F776E20D9
:10046000636F6D6D616E643A2022004368616E6750
:10047000652066696C616D656E74005A204F666612
:10048000736574203A20007A5F6D61783A20007AB3
:100490005F6D696E3A20005A204F6666736574007E
:1004A0005A204F6666736574206F6B006C6364201E
:1004B000636F6E74726173742076616C75653A2037
:1004C000007A5F6D61783A20007A5F6D696E3A203C
:1004D00000795F6D61783A2000795F6D696E3A202E
:1004E00000785F6D61783A2000785F6D696E3A2020
:1004F00000205A3A0020593A0020436F756E74204C
:10050000583A200020453A00205A3A0020593A0033
:10051000583A004649524D574152455F4E414D456C
:100520003A4D61726C696E20312E302E322B204490
:100530006576656C6F706D656E742046726F6D20A8
:100540004172636869766520534F555243455F4356
:100550004F44455F55524C3A68747470733A2F2F6C
:100560006769746875622E636F6D2F4D61726C6977
:100570006E4669726D776172652F4D61726C696E3E
:100580002050524F544F434F4C5F56455253494FA2
:100590004E3A312E30204D414348494E455F545923
:1005A00050453A4D656E64656C204558545255442B
:1005B00045525F434F554E543A3120555549443AC0
:1005C00030303030303030302D303030302D303031
:1005D00030302D303030302D303030303030303021
:1005E000303030300A004D656E64656C204F6666B1
:1005F0002E004D656E64656C2072656164792E0015
:1006000042656420646F6E652E0020423A002045EA
:100610003A00543A004265642048656174696E6727
:100620002E0048656174696E6720646F6E652E00E8
:1006300020573A0020453A00543A004865617469F1
:100640006E672E2E2E002042403A0020403A0020B5
:100650002F003A00205400202F0020423A00202F83
:10066000006F6B20543A002569206D696E2C20259F
:10067000692073656300456E642066696C65206C53
:1006800069737400426567696E2066696C65206CE9
:10069000697374004E6F206D6F76652E004D656E28
:1006A00064656C2072656164792E00526573756DA6
:1006B000696E67207072696E740057616974206694
:1006C0006F7220757365722E2E2E00536C656570E7
:1006D0002E2E2E00256920686F75727320256920E3
:1006E0006D696E7574657300446F6E652070726914
:1006F0006E74696E672066696C650053544F505084
:1007000045442E20005072696E7465722073746FB8
:10071000707065642064756520746F206572726FF7
:1007200072732E2046697820746865206572726F36
:100730007220616E6420757365204D3939392074DB
:100740006F20726573746172742E202854656D7009
:100750006572617475726520697320726573657462
:100760002E2053657420697420616674657220724E
:10077000657374617274696E6729004E6F204C69ED
:100780006E65204E756D62657220776974682063AE
:100790006865636B73756D2C204C617374204C69B4
:1007A0006E653A20004E6F20436865636B73756D0C
:1007B0002077697468206C696E65206E756D62655E
:1007C000722C204C617374204C696E653A20006372
:1007D0006865636B73756D206D69736D61746368B3
:1007E0002C204C617374204C696E653A20004C6972
:1007F0006E65204E756D626572206973206E6F7430
:10080000204C617374204C696E65204E756D626575
:10081000722B312C204C617374204C696E653A2028
:10082000004D31313000446F6E6520736176696E22
:10083000672066696C652E006F6B004D32390020B1
:1008400020506C616E6E65724275666665724279A3
:100850007465733A20002046726565204D656D6FA2
:1008600072793A20004A756E2032322032303136A9
:1008700000436F6D70696C65643A200028444959E3
:10088000452C20584C20426564204746584C434430
:100890002900207C20417574686F723A20004A75E7
:1008A0006E20323220323031362031373A32343A0B
:1008B000353700204C617374205570646174656431
:1008C0003A200020312E302E322B004D61726C699F
:1008D0006E0020536F667477617265205265736590
:1008E0007400205761746368646F67205265736594
:1008F00074002042726F776E206F7574205265739A
:100900006574002045787465726E616C2052657361
:10091000657400506F7765725570007374617274FE
:10092000002200656E717565696E672022002200E5
:10093000656E717565696E67202200FFFFFF00001C
:10094000A0400000A0400000004000007A430000EA
:100950008743000048430000000000000000000042
:10096000000000007A430000874300004843000075
:10097000000000000000000000006563686F3A009E
:100980004572726F723A007C3C3E5E2B3D3F2F5B9E
:100990005D3B2C2A225C004D383420582059205AC7
:1009A00020450043616E6E6F7420656E7465722021
:1009B0007375626469723A20004D3234004D3233EF
:1009C000202573006175746F25692E67006572724A
:1009D0006F722077726974696E6720746F20666920
:1009E0006C65004E6F74205344207072696E746998
:1009F0006E67002F005344207072696E74696E67D1
:100A0000206279746520002E0044656C6574696FFE
:100A10006E206661696C65642C2046696C653A20BD
:100A20000046696C652064656C657465643A002EE7
:100A3000006F70656E206661696C65642C20466984
:100A40006C653A200057726974696E6720746F2074
:100A500066696C653A20002E006F70656E206661D5
:100A6000696C65642C2046696C653A20002E006F25
:100A700070656E206661696C65642C2046696C65E2
:100A80003A200046696C652073656C656374656423
:100A9000002053697A653A200046696C65206F70C2
:100AA000656E65643A20002E006F70656E20666189
:100AB000696C65642C2046696C653A20004E6F773E
:100AC0002066726573682066696C653A20004E6F17
:100AD0007720646F696E672066696C653A20002232
:100AE00020706F73002220706172656E743A22006C
:100AF000535542524F5554494E452043414C4C208A
:100B00007461726765743A2200747279696E672045
:100B1000746F2063616C6C207375622D67636F6402
:100B2000652066696C6573207769746820746F6FDF
:100B3000206D616E79206C6576656C732E204D4159
:100B400058206C6576656C2069733A0053442063C5
:100B5000617264206F6B006F70656E526F6F7420EE
:100B60006661696C656400766F6C756D652E696E83
:100B70006974206661696C656400534420696E691C
:100B800074206661696C0020746F6F206C6F6E67F3
:100B900020657874727573696F6E20707265766502
:100BA0006E7465640020636F6C6420657874727580
:100BB00073696F6E2070726576656E74656400652A
:100BC0006E6473746F7073206869743A205A0020E1
:100BD0005A3A00656E6473746F7073206869743A72
:100BE00020590020593A00656E6473746F70732049
:100BF0006869743A20580020583A00656E6473742E
:100C00006F7073206869743A200024F4D43050C3A4
:100C10008E20C2A24017828B7011127A910D816CC6
:100C2000D90AA861E108C7586607615143061E4BFF
:100C30005D05C145A7041A411104093D98037139A6
:100C400031034036DB0265339102D4305402802EEA
:100C50001D02632CEE01752AC501B028A0011027E2
:100C600081018F2564012B244B01E0223401AC214A
:100C70001F018D200D01801FFC00841EED00971DBB
:100C8000DF00B81CD200E61BC600201BBC00641AA3
:100C9000B200B219A8000A19A0006A189900D11769
:100CA000910040178B00B516840031167E00B315F5
:100CB00079003A157300C7146F0058146A00EE13D8
:100CC00066008813630025135E00C7125B006C1278
:100CD000570015125400C111510070114F0021111D
:100CE0004B00D61049008D104700461044000210FA
:100CF0004200C00F4000800F3E00420F3C00060F34
:100D00003B00CB0E3800930E37005C0E3500270EEB
:100D10003400F30D3200C10D3100900D3000600D34
:100D20002E00320D2D00050D2C00D90C2B00AE0C21
:100D30002900850C29005C0C2700350C27000E0CBF
:100D40002600E80B2400C40B2400A00B23007D0B1D
:100D500023005A0B2100390B2100180B2000F80A40
:100D60001F00D90A1E00BB0A1E009D0A1D00800A32
:100D70001D00630A1C00470A1B002C0A1B00110AF5
:100D80001A00F7091A00DD091900C4091900AB0996
:100D90001900920917007B091800630917004C0914
:100DA000160036091600200916000A091500F50874
:100DB0001500E0081400CC081400B8081400A408BA
:100DC0001400900813007D0812006B0813005808E7
:100DD00012004608120034081100230811001208FE
:100DE000110001081100F0071000E0071000D00703
:100DF0001000C0071000B0070F00A10710009107F6
:100E00000E0083070F0074070F0065070E005707D9
:100E10000E0049070E003B070D002E070E002007AD
:100E20000D0013070D0006070D00F9060C00ED0676
:100E30000D00E0060C00D4060C00C8060C00BC0631
:100E40000C00B0060C00A4060B0099060C008D06E1
:100E50000B0082060B0077060B006C060B00610688
:100E60000A0057060B004C060A0042060A00380624
:100E70000A002E060A0024060A001A060A001006B6
:100E8000090007060A00FD050900F4050900EB0545
:100E90000900E2050900D9050900D0050900C705C8
:100EA0000900BE050900B5050800AD050800A50547
:100EB00009009C050800940508008C0508008405BD
:100EC00008007C050800740508006C05070065052E
:100ED00008005D050700560508004E050700470598
:100EE00007004005080038050700310507002A05FE
:100EF0000700230507001C050600160507000F055F
:100F000007000805060002050700FB040600F504BB
:100F10000700EE040600E8040600E2040700DB0414
:100F20000600D5040600CF040600C9040600C30469
:100F30000600BD040600B7040600B1040500AC04B9
:100F40000600A6040600A00405009B040600950404
:100F50000500900406008A0405008504050080044D
:100F600006007A04050075040500700405006B0492
:100F7000050066040500610405005C0405005704D3
:100F80000500520405004D04050048040500430413
:100F900005003E0404003A04050035040500300451
:100FA00004002C04050027040400230405001E048B
:100FB00004001A04040016040500110404000D04C2
:100FC0000400090405000404040000040400FC03F8
:100FD0000400F8030400F4030400F0030400EC032D
:100FE0000400E8030400E4030400E0030400DC035D
:100FF0000400D8030400D4030400D0030400CC038D
:101000000400C8030300C503030024F404D9201B13
:10101000C40C5C0E9804C4095F0265077101F405F5
:10102000F900FB04B30048048700C10369005803BA
:10103000550003034500BE023A008402310053020A
:101040002A002902250004022000E4011C00C80136
:101050001900AF01170098011400840113007101F9
:1010600010006101100051010E0043010D00360116
:101070000B002B010B0020010B00150109000C01D6
:10108000090003010800FB000800F3000800EB0062
:101090000700E4000600DE000600D8000600D200CB
:1010A0000600CC000500C7000500C2000500BD0019
:1010B0000400B9000400B5000400B1000400AD0054
:1010C0000400A9000400A5000300A20003009F0083
:1010D00004009B00030098000300950002009300A9
:1010E0000300900003008D0002008B0003008800C5
:1010F00002008600020084000300810002007F00DD
:1011000002007D0002007B000200790002007700EF
:1011100001007600020074000200720001007100FC
:1011200002006F0002006D0001006C0002006A0006
:10113000010069000200670001006600010065000F
:101140000100640002006200010061000100600013
:1011500001005F0002005D0001005C0001005B0017
:1011600001005A0001005900010058000100570019
:101170000100560001005500010054000100530019
:101180000000530001005200010051000100500016
:1011900001004F0001004E0000004E0001004D0014
:1011A00001004C0001004B0000004B0001004A0010
:1011B000010049000100480000004800010047000C
:1011C0000100460000004600010045000000450007
:1011D0000100440001004300000043000100420000
:1011E00000004200010041000000410001004000F9
:1011F00001003F0000003F0001003E0000003E00F3
:1012000001003D0000003D0001003C0000003C00EA
:1012100000003C0001003B0000003B0001003A00E0
:1012200000003A00010039000000390001003800D8
:1012300000003800000038000100370000003700CF
:1012400001003600000036000000360001003500C5
:1012500000003500000035000100340000003400BB
:1012600000003400010033000000330000003300B0
:1012700001003200000032000000320001003100A5
:10128000000031000000310001003000000030009B
:101290000000300001002F0000002F0000002F0090
:1012A00000002F0001002E0000002E0000002E0084
:1012B00001002D0000002D0000002D0000002D0079
:1012C00001002C0000002C0000002C0000002C006D
:1012D00001002B0000002B0000002B0000002B0061
:1012E00001002A0000002A0000002A0000002A0055
:1012F0000100290000002900000029000000290049
:10130000000029000100280000002800000028003B
:10131000000028000000280001002700000027002E
:101320000000270000002700000027000100260021
:101330000000260000002600000026000000260015
:101340000100250000002500000025000000250008
:1013500000002500000025000100240000002400FA
:1013600000002400000024000000240001002300ED
:1013700000002300000023000000230000002300E1
:1013800000002300000023000100220000002200D2
:1013900000002200000022000000220000002200C5
:1013A00001002100000021000000210000002100B8
:1013B00000002100000021000000210001002000A9
:1013C000000020000000200000002000000020009D
:1013D00000002000000020000000200001001F008D
:1013E00000001F0000001F0000001F0000001F0081
:1013F00000001F0000001F0001001E0000001E0072
:1014000000001E0000001E0000004572723A204DD0
:10141000415854454D50204245440054656D706517
:1014200072617475726520686561746564206265B7
:1014300064207377697463686564206F66662E2024
:101440004D415854454D5020747269676765726507
:1014500064202121004572723A204D494E54454D79
:1014600050003A204578747275646572207377690C
:101470007463686564206F66662E204D494E54453E
:101480004D5020747269676765726564202100455C
:1014900072723A204D415854454D50003A204578DB
:1014A000747275646572207377697463686564200B
:1014B0006F66662E204D415854454D502074726918
:1014C000676765726564202100202D20496E766172
:1014D0006C6964206578747275646572206E756DD0
:1014E000626572202100504944204175746F747503
:1014F0006E652066696E6973686564212050757435
:1015000020746865206C617374204B702C204B69CB
:1015100020616E64204B6420636F6E7374616E741F
:10152000732066726F6D2061626F766520696E74DC
:101530006F20436F6E66696775726174696F6E2E96
:101540006800504944204175746F74756E6520665B
:1015500061696C6564212074696D656F7574002024
:10156000403A006F6B20543A006F6B20423A0050B3
:101570004944204175746F74756E65206661696CAD
:101580006564212054656D706572617475726520A3
:10159000746F6F206869676800204B643A200020F0
:1015A0004B693A2000204B703A200020436C617355
:1015B0007369632050494420002054753A2000206C
:1015C0004B753A2000206D61783A2000206D696EDD
:1015D0003A200020643A200020626961733A2000BA
:1015E00070012C0190012701B0012201C0011D01F1
:1015F000F00118011002130130020E01600209010E
:1016000090020401C002FF000003FA004003F5004D
:101610008003F000D003EB002004E6007004E1003A
:10162000E004DC004005D700C005D2004006CD0034
:10163000D006C8008007C3003008BE00F008B9001B
:10164000C009B400B00AAF00B00BAA00D00CA500CE
:10165000000EA000500F9B00C01096005012910089
:1016600000148C00C0158700B0178200B0197D00EF
:10167000D01B7800001E730040206E00902269008D
:10168000F024640040275F0090295A00E02B5500A9
:10169000102E500020304B0010324600E033410045
:1016A00090353C001037370070383200A0392D00DB
:1016B000B03A2800A03B2300603C1E00103D1900FA
:1016C000903D1400103E0F00703E0A00C03E050021
:1016D000003F0000436172642072656D6F7665643F
:1016E000004361726420696E736572746564004DB5
:1016F00033303020533639382050323030004D33BB
:1017000030302053363539205032303000B0200090
:10171000B0200059002D2D3A2D2D004261627973C1
:1017200074657070696E67205800426162797374E5
:10173000657070696E6720590042616279737465E3
:101740007070696E67205A004D3630300043686112
:101750006E67652066696C616D656E7400426162DA
:101760007973746570205A00426162797374657090
:101770002059004261627973746570205800466C8C
:101780006F77203000466C6F77203000466C6F77A3
:1017900000466C6F770046616E207370656564006B
:1017A00046616E2073706565640042656400426541
:1017B00064004E6F7A7A6C65004E6F7A7A6C6500C1
:1017C0005370656564005370656564004D61696EB2
:1017D000005072656865617420504C412042656418
:1017E000005072656865617420504C412031005092
:1017F0007265706172650050726568656174204140
:1018000042532042656400507265686561742041EE
:101810004253203100507265706172650058005962
:10182000005A004578747275646572004578747268
:1018300075646572004D6F7665205A004D6F766550
:101840002059004D6F76652058004D6F76652061F8
:10185000786973004D6F766520302E316D6D004DC7
:101860006F766520316D6D004D6F76652031306D7E
:101870006D0050726570617265004D6F7665206114
:10188000786973004D38300053776974636820704D
:101890006F776572206F6E004D3831005377697431
:1018A000636820706F776572206F666600436F6FA4
:1018B0006C646F776E005072656865617420414298
:1018C00053005072656865617420504C4100536547
:1018D0007420686F6D65206F66667365747300476A
:1018E0003238004175746F20686F6D65004D383473
:1018F0000044697361626C65207374657070657211
:1019000073004D61696E0053746F7265206D656D73
:101910006F72790042656400426564004E6F7A7AA6
:101920006C65004E6F7A7A6C650046616E2073704C
:101930006565640046616E2073706565640054657A
:101940006D70657261747572650053746F72652095
:101950006D656D6F72790042656400426564004E8A
:101960006F7A7A6C65004E6F7A7A6C650046616EAC
:101970002073706565640046616E207370656564F0
:101980000054656D706572617475726500507265A2
:10199000686561742041425320636F6E6600507227
:1019A000656865617420504C4120636F6E6600501D
:1019B00049442D43005049442D43005049442D448F
:1019C000005049442D44005049442D490050494499
:1019D0002D49005049442D50005049442D500020BD
:1019E0000220466163740020022046616374002077
:1019F00002204D6178002002204D617800200220F5
:101A00004D696E002002204D696E004F6666004FE2
:101A10006E20004F6666004F6E20004175746F7433
:101A2000656D700046616E20737065656400466187
:101A30006E207370656564004265640042656400F1
:101A40004E6F7A7A6C65004E6F7A7A6C6500436FE0
:101A50006E74726F6C004573746570732F6D6D00DA
:101A60004573746570732F6D6D005A737465707370
:101A70002F6D6D005A73746570732F6D6D005973FF
:101A8000746570732F6D6D005973746570732F6D6D
:101A90006D005873746570732F6D6D0058737465A5
:101AA00070732F6D6D00412D7265747261637400E7
:101AB000412D7265747261637400416D61782065B7
:101AC00000416D6178206500416D6178207A0041A8
:101AD0006D6178207A00416D6178207900416D61F7
:101AE00078207900416D6178207800416D6178201F
:101AF00078005654726176206D696E00565472619A
:101B000076206D696E00566D696E00566D696E00C7
:101B1000566D6178206500566D6178206500566DC0
:101B20006178207A00566D6178207A00566D617870
:101B3000207900566D6178207900566D61782078A3
:101B400000566D617820780056652D6A65726B00CD
:101B500056652D6A65726B00567A2D6A65726B0048
:101B6000567A2D6A65726B005678792D6A65726BAC
:101B7000005678792D6A65726B00416363656C006D
:101B8000416363656C00436F6E74726F6C004669ED
:101B90006C2E204469612E20310046696C2E204451
:101BA00069612E2031004F6666004F6E20004F663F
:101BB00066004F6E20004520696E206D6D33004336
:101BC0006F6E74726F6C004C434420636F6E74725E
:101BD00061737400526573746F7265206661696C1D
:101BE00073616665004C6F6164206D656D6F72791D
:101BF0000053746F7265206D656D6F7279004C4390
:101C00004420636F6E74726173740046696C616D19
:101C1000656E74004D6F74696F6E0054656D70650C
:101C2000726174757265004D61696E004D383420C3
:101C3000582059205A2045004D3234004D3233206F
:101C4000257300F92E2E004D61696E004E6F2053F2
:101C5000442063617264005072696E742066726F12
:101C60006D2053440053746F70207072696E74005D
:101C7000526573756D65207072696E740050617580
:101C80007365207072696E7400436F6E74726F6C4E
:101C900000507265706172650054756E6500496E22
:101CA000666F2073637265656E0000060900FE07AB
:101CB0000199032B20FFFE08FE07FE00000006002E
:101CC00000010707060200808080808000800303F7
:101CD00003060104A0A0A00507070600005050F865
:101CE00050F850500507070600002070A0702870BB
:101CF0002005070706000048A8502050A8900507B7
:101D00000706000040A0A040A89068010303060257
:101D10000480808003070706010020408080804007
:101D20002003070706010080402020204080050591
:101D3000050600018850F8508805050506000120B9
:101D400020F820200303030601FF60408005010105
:101D5000060003F80303030601FF40E04005070700
:101D600006000008081020408080050707060000D4
:101D7000205088888850200507070600002060A0B2
:101D8000202020F8050707060000708808304080F2
:101D9000F8050707060000F80810300888700507E6
:101DA0000706000010305090F810100507070600D5
:101DB00000F880B0C80888700507070600003040AA
:101DC00080B0C88870050707060000F808101020CA
:101DD00040400507070600007088887088887005F5
:101DE0000707060000708898680810600307070658
:101DF00001FF40E0400040E0400307070601FF40CC
:101E0000E040006040800407070601001020408089
:101E1000402010050303060002F800F80407070637
:101E20000100804020102040800507070600007058
:101E3000881020200020050707060000708898A859
:101E4000B0807005070706000020508888F8888851
:101E5000050707060000F04848704848F0050707E6
:101E600006000070888080808870050707060000E3
:101E7000F04848484848F0050707060000F8808009
:101E8000F08080F8050707060000F88080F0808069
:101E90008005070706000070888080988870050715
:101EA00007060000888888F88888880307070601E5
:101EB00000E04040404040E00507070600003810C1
:101EC00010101090600507070600008890A0C0A0C1
:101ED0009088050707060000808080808080F805D4
:101EE00007070600008888D8A8888888050707069D
:101EF00000008888C8A89888880507070600007031
:101F0000888888888870050707060000F08888F0B0
:101F10008080800508080600FF7088888888A8707F
:101F200008050707060000F08888F0A090880507DC
:101F30000706000070888070088870050707060093
:101F400000F82020202020200507070600008888B0
:101F500088888888700507070600008888885050A0
:101F60005020050707060000888888A8A8D888059B
:101F70000707060000888850205088880507070654
:101F8000000088885020202020050707060000F860
:101F90000810204080F8030707060100E0808080D9
:101FA0008080E005070706000080804020100808B8
:101FB000030707060100E02020202020E00503039E
:101FC0000600042050880501010600FFF802020205
:101FD000060206804005050506000070087888782E
:101FE0000507070600008080B0C888C8B005050551
:101FF0000600007088808870050707060000080842
:1020000068988898680505050600007088F8807053
:10201000050707060000304840F04040400507072C
:102020000600FE7888887808887005070706000093
:102030008080B0C88888880307070601004000C078
:10204000404040E00409090601FE10003010101065
:1020500090906005070706000080808890E09088D7
:10206000030707060100C04040404040E005050569
:10207000060000D0A8A8A888050505060000B0C87D
:10208000888888050505060000708888887005071F
:10209000070600FEB0C888C8B080800507070600A4
:1020A000FE68988898680808050505060000B0C80D
:1020B00080808005050506000070807008F0050727
:1020C000070600004040F040404830050505060086
:1020D00000888888986805050506000088885050A3
:1020E000200505050600008888A8A85005050506F6
:1020F000000088502050880507070600FE88889851
:1021000068088870050505060000F8102040F804EE
:102110000707060100304020C020403001070706B5
:10212000020080808080808080040707060100C054
:102130002040304020C005030306000448A890005A
:10214000000001000000000001000000000001008C
:10215000000000000100000000000100000000007D
:10216000010000000000010000000000010000006C
:10217000000001000000000001000000000001005C
:10218000000000000100000000000100000000004D
:10219000010000000000010000000000010000003C
:1021A000000001000000000001000000000001002C
:1021B000000000000100000000000100000000001D
:1021C000010000000000010000000000010000000C
:1021D00000000100000000000100000000000100FC
:1021E00000000000010000000000010000000000ED
:1021F00001000000000001000000000001000000DC
:1022000000000100000000000600000107070602B0
:1022100000800080808080800507070600FF20780E
:10222000A0A0A07820050707060000304840E04045
:1022300048B005050506000088705070880508083C
:102240000600FF88885020F820202001070706029A
:1022500000808080008080800508080600FF708074
:10226000E09048380870030101060107A005070740
:102270000600007088A8C8A8887004060606010138
:102280007090B05000F00605050600002448904804
:1022900024040202060102F010040101060103F009
:1022A0000507070600007088E8C8C88870050101A6
:1022B000060007F803030306010440A040050606D4
:1022C0000600002020F82020F80405050601036020
:1022D000902040F0040505060103E0106010E002C4
:1022E000020206020640800506060600FF8888886E
:1022F000C8B08005070706000078E8E868282828A5
:10230000010101060203800202020602FE40800370
:10231000050506010340C04040E004060606010131
:102320006090906000F00605050600009048244883
:10233000900609090600FF40C04040E40C143C042C
:102340000609090600FF40C04040E81404081C05C7
:1023500009090600FFC0204020C818287808050792
:1023600007060000200020204088700508080600AD
:10237000004020708888F88888050808060000104A
:1023800020708888F88888050808060000205070AA
:102390008888F8888805080806000048B070888892
:1023A000F888880508080600005000708888F888BA
:1023B000880508080600002050708888F88888067C
:1023C00007070600003C50909CF0909C0509090608
:1023D00000FE708880808088702040050808060014
:1023E0000040F88080F08080F805080806000010A2
:1023F000F88080F08080F805080806000020F8804A
:1024000080F08080F805080806000050F88080F011
:102410008080F80308080601008040E0404040400A
:10242000E00308080601002040E040404040E0038F
:10243000080806010040A0E040404040E0030808D2
:10244000060100A000E040404040E005070706000C
:1024500000F04848E84848F0050808060000285001
:1024600088C8A89888880508080600004020708859
:102470008888887005080806000010207088888801
:1024800088700508080600002050708888888870C9
:10249000050808060000285070888888887005089C
:1024A00008060000500070888888887005050506B9
:1024B0000000885020508805070706000070989893
:1024C000A8C8C870050808060000402088888888C9
:1024D00088700508080600001020888888888870A1
:1024E00005080806000020500088888888700508C4
:1024F000080600005000888888888870050808064B
:1025000000001020888850202020050707060000C2
:1025100080F088F0808080050707060000708890B2
:10252000A09088B0050808060000402000700878D8
:102530008878050808060000102000700878887860
:102540000508080600002050007008788878050803
:1025500008060000285000700878887805070706EC
:1025600000005000700878887805080806000020F0
:102570005020700878887806050506000078147CDD
:10258000907C0507070600FE708880887020400553
:1025900008080600004020007088F88070050808D0
:1025A0000600001020007088F880700508080600FA
:1025B000002050007088F880700507070600005062
:1025C000007088F88070030808060100804000C091
:1025D000404040E0030808060100408000C0404041
:1025E00040E003080806010040A000C0404040E071
:1025F000060A0A0600FEA4A800FC8480808084FCF1
:10260000060A0A0600FE549400FC8404040484FCB8
:10261000050808060000285000B0C888888805080A
:10262000080600004020007088888870040A0A06A6
:1026300002FE30408090909090909090040A0A069C
:1026400000FEC02010909090909090900607070692
:102650000001448C8C8480403C06070706000188FA
:10266000C4C4840408F00505050600012000F80034
:102670002005080806000040F0C8888898781005F2
:102680000808060000E0F88888888888F8050505AD
:102690000600012030F830200508080600002070F0
:1026A000F820202020E00509090600FF2070A8A8D6
:1026B000B8888850200509090600FFE080C0B0A84E
:1026C000A83028280509090600FFF8A88888888806
:1026D00088A8F8050A0A0600FE205050505088A825
:1026E000A8887000060900FE06018902FE20FFFE90
:1026F00007FE06FE000000060007010606060200AF
:10270000808080800080030303060103A0A0A00551
:1027100007070600FF5050F850F850500509090609
:1027200000FE2070A8A07028A870200608080600E7
:10273000FF40A84810204854080507070600FF601E
:1027400090906098906801030306020380808002E5
:1027500007070602FF40808080808040020707064E
:1027600002FF80404040404080050505060000888B
:1027700050F850880505050600002020F8202002AA
:1027800004040602FEC0404080050101060002F874
:10279000020202060200C0C0040606060100101074
:1027A00020408080040606060100609090909060B2
:1027B00003060606010040C0404040E0040606064D
:1027C00001006090102040F0040606060100F02091
:1027D000601010E005060606000010305090F8105A
:1027E000040606060100F080E01010E0040606066C
:1027F00001006080E0909060040606060100F01081
:102800001020404004060606010060906090906031
:10281000040606060100609090701060020505062F
:102820000200C0C000C0C00207070602FEC0C00010
:10283000C04040800505050600001860806018054E
:102840000303060001F800F8050505060000C03086
:102850000830C00407070601006090106040004087
:102860000506060600007090A8B0807005060606F2
:102870000000205088F88888050606060000F088C9
:10288000F08888F004060606010060908080906061
:10289000040606060100E090909090E0040606060B
:1028A0000100F080E08080F0040606060100F08060
:1028B000E0808080040606060100609080B0906091
:1028C0000406060601009090F0909090030606061C
:1028D0000100E040404040E00506060600003810D8
:1028E0001010906004060606010090A0C0A0909011
:1028F0000406060601008080808080F0050606063A
:10290000000088D8A8A8888804060606010090D090
:10291000B090909005060606000070888888887040
:10292000040606060100E09090E080800407070698
:1029300001FF609090D0B06010040606060100E030
:102940009090E09090040606060100609040209070
:1029500060050606060000F8202020202004060658
:102960000601009090909090600406060601009089
:102970009090F060600506060600008888A8A8D838
:1029800088050606060000885020205088050606A7
:10299000060000888850202020040606060100F06A
:1029A00010204080F0030606060100E08080808051
:1029B000E004060606010080804020101003060691
:1029C000060100E020202020E0050303060003208C
:1029D00050880501010600FEF8020202060204808A
:1029E000400404040601007090907004060606017D
:1029F000008080E09090E004040406010070808074
:102A00007004060606010010107090907004040413
:102A100006010060B0C070040606060100205040A8
:102A2000E040400406060601FE60909070106004CD
:102A300006060601008080E09090900306060601DD
:102A4000004000C04040E00308080601FE2000608E
:102A5000202020A0400406060601008080A0C0A01F
:102A600090030606060100C040404040E005040413
:102A7000060000D0A8A888040404060100E0909095
:102A800090040404060100609090600406060601AC
:102A9000FEE09090E080800406060601FE709090B3
:102AA000701010040404060100A0D0808004040407
:102AB00006010070C030E00406060601004040E058
:102AC0004050200404040601009090907004040417
:102AD0000601009090606005040406000088A8A824
:102AE000500404040601009060609004060606018C
:102AF000FE909090709060040404060100F0204065
:102B0000F0030707060100204040804040200107F5
:102B1000070602FF8080808080808003070706010F
:102B2000008040402040408004020206010350A083
:102B3000FFFFFFFFFFFFFFFFFFFFFFFFFFFFFFFFA5
:102B4000FFFFFFFFFFFFFFFFFFFFFFFFFFFFFFFF95
:102B5000FF00000006000701060606020080008054
:102B60008080800406060601FF2070A0A07020056A
:102B700007070600FF304840F04040F8050505060D
:102B80000000A8508850A80506060600008850F8E6
:102B900020F8200107070602FF80808000808080E7
:102BA0000407070601FF708060906010E0030101D8
:102BB000060105A0060707060000788494A4948403
:102BC0007803050506010160A06000E00505050623
:102BD00000002850A05028040303060100F0101044
:102BE000040101060102F00607070600007884B41C
:102BF000A4A48478040101060105F004030306017E
:102C0000026090600507070600FF2020F8202000E2
:102C1000F803050506010140A02040E00305050674
:102C20000101C0204020C0020202060204408004CC
:102C300005050601FF9090B0D0800506060600004D
:102C400078E8E868282801010106020280020202F1
:102C50000602FE408003050506010140C04040E039
:102C600003050506010140A04000E005050506003A
:102C700000A0502850A00508080600FF40C04050A2
:102C8000703078100508080600FF40C04050680802
:102C900010380508080600FFC0204030F0307810DA
:102CA00004070706010020002060809060050707E8
:102CB00006000040202050708888050707060000A5
:102CC000102020507088880507070600002050203B
:102CD000507088880507070600002850205070882B
:102CE00088050707060000500020507088880507F7
:102CF0000706000020502050708888050606060050
:102D00000078A0F0A0A0B80408080601FE6090803A
:102D100080906020400407070601004020F080E01A
:102D200080F00407070601002040F080E080F004F6
:102D300007070601002050F080E080F00407070636
:102D400001005000F080E080F003070706010080DA
:102D500040E0404040E00307070601002040E0401B
:102D60004040E003070706010040A0E0404040E08B
:102D7000030707060100A000E0404040E00506060A
:102D80000600007048E84848700407070601005034
:102D9000A090D0B0909004070706010040206090FA
:102DA00090906004070706010020406090909060BA
:102DB0000407070601002050609090906004070708
:102DC00006010050A0609090906004070706010083
:102DD0005000609090906005050506000088502026
:102DE00050880408080601FF1070B0B0D0D0E08011
:102DF00004070706010040209090909060040707A8
:102E000006010020409090909060040707060100A2
:102E100020509090909060040707060100500090A9
:102E20009090906005070706000010208850202031
:102E30002004060606010080E09090E0800406066B
:102E40000601006090A0A090A004070706010040C2
:102E50002000709090700407070601002040007069
:102E60009090700407070601002050007090907049
:102E700004070706010050A0007090907004060639
:102E800006010050007090907004070706010020B2
:102E900050207090907005040406000070A8B0786F
:102EA0000406060601FE70808070204004070706B5
:102EB000010040200060B0C0700407070601002038
:102EC000400060B0C0700407070601002050006099
:102ED000B0C070040606060100500060B0C0700368
:102EE0000707060100804000C04040E003070706D6
:102EF0000100204000C04040E003070706010040F9
:102F0000A000C04040E0030606060100A000C0404B
:102F100040E00407070601003060107090906004E4
:102F2000070706010050A000E090909004070706F4
:102F30000100402000609090600407070601002017
:102F40004000609090600407070601002050006078
:102F500090906004070706010050A0006090906008
:102F60000406060601005000609090600505050605
:102F700000002000F8002004040406010070B0D016
:102F8000E0040707060100402000909090700407BD
:102F9000070601002040009090907004070706018A
:102FA000002050009090907004060606010050002A
:102FB000909090700409090601FE204000909090C6
:102FC0007090600408080601FE8080E09090E08028
:102FD000800408080601FE500090909070906000F8
:102FE00000000000000000000000007FFFE0000083
:102FF000000000000000000000007000E000000081
:1030000000000000000000000061F8600000000007
:10301000000000000000000041F820000000000057
:103020000000000000000040F02000000000000050
:1030300000000000000040602000000000000000D0
:1030400000000000005801A07F8000000000000088
:10305000004104005C63A0FFC0000000000000000D
:103060002082005EF7A0FFC00000000000000020EA
:1030700082005EF7A0FFC0000000000000004104D5
:10308000005C63A07F800000000000000082080058
:103090005801A07F800000000000000104100040E3
:1030A0006020FFC00000000000000104100040F09C
:1030B00020FFC00000000000000082080041F8204E
:1030C000FFC00000000000000041040061F8603F04
:1030D00000000000000000000000007000E01E0082
:1030E00000000000000001FFFF807FFFE00C0000F7
:1030F000000000000001FFFF800000000000000051
:1031000000000000000000007FFFE0000000000061
:10311000000000000000007000E00000000000005F
:10312000000000000000630C6000000000000000D0
:103130000000000000470E2000000000000000001A
:10314000000000004F0F2000000000000000000001
:103150000000005F0FA00000000000000000000061
:1031600000005E07A07F8000000000000000410416
:1031700000406020FFC0000000000000002082002E
:1031800040F020FFC000000000000000208200404E
:10319000F020FFC00000000000000041040040607B
:1031A000207F80000000000000008208005E07A071
:1031B0007F80000000000000010410005F0FA0FFEE
:1031C000C0000000000000010410004F0F20FFC0ED
:1031D00000000000000000820800470E20FFC00031
:1031E000000000000000410400630C603F0000008C
:1031F00000000000000000007000E01E0000000061
:1032000000000001FFFF807FFFE00C0000000000D5
:10321000000001FFFF80000000000000000000002F
:103220000F000000000000000F0000000000000080
:103230000F000000000000000F0000000000000070
:103240000F000000000000000F0000000000000060
:103250000F000000000000000F0000000000000050
:103260000F000000000000000F0000000000000040
:103270000F000000000000000F0000000000000030
:103280000F000000000000000F0000000000000020
:103290000F000000000000000F0000000000000010
:1032A0000F000000000000000F0000000000000000
:1032B0000F000000000000000F0FFFFFFFFFFFFFE7
:1032C000EF3000000000007FFF6000000000001FE2
:1032D000FF4000000000000FFF4000000001800FD1
:1032E000FF83EFC000018C07FF87FFE000018C0324
:1032F000FF86386000018001FF861863E0F98C7C4E
:10330000FF861867F1FD8CFE7F86186E318D8CC6A6
:103310003F86186C398D8CC71F86186C19818CC735
:103320001F86186C19818CC71F86186F9F81CDC7A7
:103330001F061867DF80EFC71F4418619F002FC268
:103340002F400000000000002F20000000000000BF
:103350004F1FFFFFFFFFFFFF8F0000000000000076
:103360000F000000000000000F000000000000003F
:103370000F000000000000000F000000000000002F
:103380000F000000000000000F000000000000001F
:103390000F000000000000000F000000000000000F
:1033A0000F000000000000000F00000000000000FF
:1033B0000F000000000000000F00000000000000EF
:1033C0000F000000000000000F00000000000000DF
:1033D0000F000000000000000F00000000000000CF
:1033E0000F000000000000000F00000000000000BF
:1033F0000F000000000000000F00000000000000AF
:1034000000000000000000000000000000000000BC
:1034100000000000000000000000000000000000AC
:10342000000000000000000000000000000000009C
:10343000000000000000000000000000000000008C
:10344000000000000000000000000000000000007C
:10345000000000000000000200000A0B02090C0D31
:103460000E08070304010000000000000000000037
:10347000000000000000000000000000000000004C
:103480000000000012111000000000000000000009
:103490000000000000000000000000000000010229
:1034A0001020200808102040102040800201020156
:1034B000080402010102040810204080804020100E
:1034C0000804020180040201804020100804020167
:1034D00008040201010204081020408001020408CF
:1034E00010204080050505050705080808080202A8
:1034F00002020A0A0808040404040101010101018E
:1035000001010303030303030303040707070C0C70
:103510000C0C0C0C0C0C0202020206060606060637
:1035200006060B0B0B0B0B0B0B0B000020002300F4
:10353000260029002C002F003200000100000301AA
:103540000601090100002200250028002B002E00A2
:103550003100340002010000050108010B010000E8
:103560002100240027002A002D0030003300010133
:103570000000040107010A0100091200FC0A01E829
:1035800003D720FFFD0EFD0BFD00000009000E011A
:103590000B0B090400808080808080800000808088
:1035A00004040409030790909090080A0A09000097
:1035B000242424FF2424FF242424070B0B0901FFC7
:1035C000107C929050381412927C10070A0A09015C
:1035D0000042A4A4481010244A4A84070A0A090198
:1035E00000609090906062948894620104040904E1
:1035F0000780808080030C0C0903FF2040408080FE
:1036000080808080404020030C0C0903FF804040F4
:1036100020202020202040408007070709010310B8
:10362000925438549210070707090101101010FE38
:103630001010100204040904FEC0C04080070101FC
:10364000090104FE020202090400C0C0070A0A09B7
:10365000010002040408101020404080070A0A09F3
:10366000010038448282828282824438070A0A0931
:103670000100103050901010101010FE070A0A09B7
:103680000100384482020408102040FE070A0A099B
:103690000100FE020408180402028478070A0A09DD
:1036A0000100040C14244484FE040404070A0A09DB
:1036B0000100FE808080F80402028478070A0A096B
:1036C00001003C408080B8C482824438070A0A095D
:1036D0000100FE020404080810101010070A0A096D
:1036E000010038448244384482824438070A0A0977
:1036F000010038448282463A020204780207070930
:103700000400C0C0000000C0C00209090904FEC0D6
:10371000C0000000C0C0408005090909020008106F
:1037200020408040201008070404090102FE000028
:10373000FE05090909020080402010081020408081
:10374000070A0A0901003844820204081010001018
:10375000070A0A09010038449AAAAAAAAA9C403C6E
:10376000070A0A09010010282828447C4482828222
:10377000070A0A090100F8848284F884828284F8A6
:10378000070A0A0901003C42808080808080423C18
:10379000070A0A090100F88482828282828284F800
:1037A000070A0A090100FE808080F880808080FE80
:1037B000070A0A090100FE808080F88080808080EE
:1037C000070A0A09010038448280808E82824438C8
:1037D000070A0A09010082828282FE828282828234
:1037E000050A0A090200F82020202020202020F8C5
:1037F000070A0A0901003E080808080808888870B6
:10380000070A0A09010082848890A0D088848282F5
:10381000070A0A090100808080808080808080FE05
:10382000070A0A0901008282C6AA928282828282E3
:10383000070A0A0901008282C2A2928A86828282D3
:10384000070A0A0901007C82828282828282827C4B
:10385000070A0A090100F884828284F88080808047
:10386000080B0B0901FF384482828282828A443A23
:1038700001070A0A090100F884828284F89088848A
:1038800082070A0A0901007C8280807C020202828F
:103890007C070A0A090100FE101010101010101009
:1038A00010070A0A0901008282828282828282448F
:1038B00038070A0A090100828282444444282828E1
:1038C00010070A0A0901008282828292929292AAC9
:1038D00044070A0A09010082824428101028448201
:1038E00082070A0A09010082824428101010101071
:1038F00010070A0A090100FE020408102040808017
:10390000FE040C0C0903FFF08080808080808080A2
:103910008080F0070A0A090100804040201010084A
:10392000040402040C0C0902FFF010101010101017
:1039300010101010F0070404090106102844820832
:1039400001010900FFFF03030309030A8040200768
:1039500007070901007C02027E82867A070A0A09AB
:103960000100808080BCC2828282C2BC0707070936
:1039700001007C82808080827C070A0A09010002A3
:1039800002027A86828282867A0707070901007C12
:103990008282FE80827C070A0A0901001C22222002
:1039A00020F820202020070A0A0901FD7A84848457
:1039B00078807C82827C070A0A090100808080BCB2
:1039C000C28282828282050A0A090200600000E047
:1039D0002020202020F8050D0D0902FD18000038D8
:1039E000080808080808888870070A0A0901008082
:1039F0008080848890B0C88482050A0A090200E0A9
:103A00002020202020202020F8070707090100ECB3
:103A1000929292929282070707090100BCC28282A9
:103A20008282820707070901007C82828282827C6F
:103A3000070A0A0901FDB8C4828282C4B880808066
:103A4000070A0A0901FD3A46828282463A020202C8
:103A50000707070901009C624240404040070707F2
:103A60000901007C82807C02827C0709090901002F
:103A70002020FC20202020221C07070709010082AB
:103A800082828282867A0707070901008282444483
:103A90002828100707070901008282929292AA44FF
:103AA00007070709010082442810284482070A0AF0
:103AB0000901FD42422424241818109060070707CA
:103AC000090100FE0408102040FE060B0B0902004D
:103AD0001C20202020C0202020201C010C0C0904C8
:103AE000FF808080808080808080808080060B0BBB
:103AF000090100E0101010100C10101010E0070366
:103B00000309010762928CFFFFFFFFFFFFFFFFFF2A
:103B1000FFFFFFFFFFFFFFFFFFFFFFFFFFFFFFFFB5
:103B2000FFFFFFFFFFFFFFFF00000009000E010B7A
:103B30000B090400808000008080808080808006E7
:103B4000080809010008789490A0A47840070A0AA0
:103B50000901001C222020F8202060A25C07060634
:103B6000090103827C44447C82070A0A090100821D
:103B70008244287C107C101010010B0B0904FF807C
:103B800080808080008080808080040B0B0902FF91
:103B90006090806090909060109060030202090332
:103BA0000BA0A00809090900013C4299A5A1A5990B
:103BB000423C050707090103609070907800F80700
:103BC00008080901011224489090482412060404B0
:103BD000090102FC040404050101090204F80809B2
:103BE000090900013C42B9A5BDA9A5423C06010155
:103BF000090109FC040404090306609090600709A8
:103C000009090101101010FE10101000FE04060634
:103C10000901046090106080F00406060901046048
:103C2000902010906003030309030A2040800709D5
:103C3000090901FE8282828282C6BA8080070A0A4E
:103C40000901007E8A8A8A7A0A0A0A0A0A0202029C
:103C5000090404C0C00403030902FD2090600306A8
:103C60000609010440C0404040E005060609010481
:103C70007088887000F8070808090101904824122C
:103C800012244890070A0A09010040C0404042E659
:103C90000A121A06070A0A09010040C040404CF205
:103CA000020C101E070A0A0901006090201092669B
:103CB0000A121A06070A0A09010010001010204013
:103CC0008082827C070E0E09010020100800102857
:103CD0002828447C44828282070E0E0901000810C5
:103CE000200010282828447C44828282070E0E0976
:103CF00001001028440010282828447C4482828235
:103D0000070D0D09010034580010282828447C4470
:103D1000828282070D0D090100282800102828281A
:103D2000447C44828282070E0E090100102828106C
:103D300010282828447C44828282070A0A0901004C
:103D40001E2828284E784888888E070D0D0901FD09
:103D50003C42808080808080423C082418070E0E00
:103D600009010020100800FE808080F8808080809B
:103D7000FE070E0E09010008102000FE808080F86A
:103D800080808080FE070E0E09010010284400FE8E
:103D9000808080F880808080FE070D0D090100285A
:103DA0002800FE808080F880808080FE050E0E094D
:103DB000020040201000F82020202020202020F8A1
:103DC000050E0E09020010204000F82020202020BF
:103DD000202020F8050E0E09020020508800F8204F
:103DE00020202020202020F8050D0D090200505031
:103DF00000F82020202020202020F8070A0A0901AE
:103E00000078444242F24242424478070D0D0901D3
:103E1000003458008282C2A2928A86828282070E71
:103E20000E090100201008007C8282828282828238
:103E3000827C070E0E090100081020007C8282821D
:103E400082828282827C070E0E09010010284400C3
:103E50007C82828282828282827C070D0D0901002F
:103E60003458007C82828282828282827C070D0D9D
:103E70000901002828007C82828282828282827CE0
:103E800007070709010182442810284482070C0C07
:103E90000901FF027C868A8A9292A2A2C27C8007D4
:103EA0000E0E090100201008008282828282828226
:103EB000824438070E0E0901000810200082828219
:103EC00082828282824438070E0E09010010284443
:103ED0000082828282828282824438070D0D09012B
:103EE0000028280082828282828282824438070EE1
:103EF0000E090100081020008282442810101010C2
:103F00001010070A0A0901008080FC828282FC806E
:103F10008080060A0A09010038444448D0484444D5
:103F20004458070B0B090100201008007C02027E98
:103F300082867A070B0B090100081020007C020220
:103F40007E82867A070B0B090100102844007C0250
:103F5000027E82867A070A0A0901003458007C0230
:103F6000027E82867A070A0A0901002828007C025C
:103F7000027E82867A070C0C0901001028281000A6
:103F80007C02027E82867A0707070901006C121202
:103F90007E90926C070A0A0901FD7C8280808082F3
:103FA0007C104830070B0B090100201008007C82B0
:103FB00082FE80827C070B0B090100081020007C28
:103FC0008282FE80827C070B0B09010010284400CE
:103FD0007C8282FE80827C070A0A09010028280070
:103FE0007C8282FE80827C050C0C090200804020CD
:103FF0000000E02020202020F8050C0C0902001011
:1040000020400000E02020202020F8050C0C0902B0
:10401000002050880000E02020202020F8050B0B15
:1040200009020050500000E02020202020F8070B5B
:104030000B090100483050083C4482828244380712
:104040000A0A090100345800BCC2828282828207B7
:104050000B0B090100201008007C82828282827C86
:10406000070B0B090100081020007C8282828282EB
:104070007C070B0B090100102844007C828282829D
:10408000827C070A0A0901003458007C82828282FD
:10409000827C070A0A0901002828007C8282828229
:1040A000827C07090909010010381000FE00103851
:1040B000100709090901FF027C8A8A92A2A27C806A
:1040C000070B0B0901004020100082828282828649
:1040D0007A070B0B0901000810200082828282827D
:1040E000867A070B0B090100102844008282828225
:1040F00082867A070A0A09010028280082828282C1
:1041000082867A070E0E0901FD040810004242243F
:1041100024241818109060070B0B0901FE8080B84A
:10412000C4828282C4B88080070D0D0901FD242459
:10413000004242242424181810906001050800FF52
:10414000060121023520FFFF07FF06FF090050226C
:104150001656808080800080153353A0A0A002579F
:10416000575050F850F850500257572070A0702800
:10417000702013355580A040A02002475740A0A0D2
:1041800040A0A05025135380808012265640808086
:104190008080401226568040404040800245559025
:1041A00060F060900255552020F8202011335360B4
:1041B0004080044151F011335340E0400246561014
:1041C000102040808012365640A0A0A0A040123699
:1041D0005640C0404040E00246566090106080F07B
:1041E000024656F020601090600246562060A0F013
:1041F0002020024656F080E0109060024656608013
:10420000E0909060024656F0102020404002465652
:1042100060906090906002465660909070106012BE
:104220002555C0C000C0C011365660600060408097
:10423000123656204080804020034353F000F01295
:10424000365680402020408012365640A020400044
:1042500040015858304898A8A8904030024656600F
:104260009090F09090024656E090E09090E00246E8
:1042700056609080809060024656E090909090E06A
:10428000024656F080E08080F0024656F080E080E2
:104290008080024656609080B090600246569090B2
:1042A000F0909090123656E040404040E002465672
:1042B00070202020A04002465690A0C0A0A09002EE
:1042C00046568080808080F002465690F0F09090B4
:1042D0009002465690D0F0B0B09002465660909052
:1042E000909060024656E09090E0808001475760D1
:1042F0009090D0B06010024656E09090E09090020E
:104300004656609040209060123656E04040404053
:104310004002465690909090906002465690909041
:10432000906060024656909090F0F0900246569051
:104330009060609090025656888850202020024657
:1043400056F010204080F0123656E080808080E0E9
:10435000024656808040201010123656E020202061
:1043600020E016325240A0014151F0162252804006
:10437000024454709090700246568080E09090E025
:104380001234546080806002465610107090907015
:1043900002445460B0C060024656205040E04040A5
:1043A00001455560907010600246568080E0909004
:1043B000901236564000C04040E011375720002090
:1043C0002020A040024656808090E0909012365601
:1043D000C040404040E0025454D0A8A8A802445431
:1043E000E090909002445460909060014555E090B8
:1043F000E080800145557090701010024454A0D0A8
:10440000808012345460C020C00246564040E040D4
:10441000502002445490909070123454A0A0A040B8
:1044200002545488A8A850024454906060900145FA
:10443000559090709060024454F02040F00247572D
:10444000304020C0204030221656808080808080FE
:10445000024757C02040304020C006425250A0FFC3
:10446000FFFFFFFFFFFFFFFFFFFFFFFFFFFFFFFF5C
:10447000FFFFFFFFFFFFFFFFFFFFFFFFFFFFFFFF4C
:104480000900502216568000808080800146562008
:1044900070A0A070200246562050E04050A0025567
:1044A0005588705070880256568850F820F820229F
:1044B0001757808080008080800247577080E0908E
:1044C0007010E0173151A002565670A8C8C8A870E5
:1044D00014355560A06000E003435350A0501233E0
:1044E00053E02020143151E002565670E8D8E8D845
:1044F00070173151E015335340A04012355540E05C
:104500004000E014355540A02040E0143555C0204F
:10451000C020C01622524080014555909090E08006
:1045200002565678E8E86828282411518011225252
:10453000408014355540C04040E014355540A040FF
:1045400000E0034353A050A0024757808080A06042
:10455000F0200247578080A0D0102070024757807B
:10456000408060A0F02012365640004080A04002FB
:10457000475740206090F09090024757204060904D
:10458000F0909002475760906090F09090024757EB
:1045900050A06090F0909002475790006090F0908B
:1045A0009002475760906090F0909002465670A03D
:1045B000A0F0A0B001475760908080906040024713
:1045C000574020F080E080F00247572040F080E024
:1045D00080F00247576090F080E080F002475790EB
:1045E00000F080E080F01237578040E0404040E02B
:1045F0001237572040E0404040E012375740A0E0DB
:10460000404040E0123757A000E0404040E00256F2
:10461000567048E848487002475750A090D0B09074
:10462000900247574020609090906002475720408A
:104630006090909060024757609060909090600208
:10464000475750A06090909060024757900060904C
:10465000909060123353A040A002465670B0B0D084
:10466000D0E002475740209090909060024757203A
:10467000409090909060024757609090909090602A
:1046800002475790009090909060025757102088F2
:104690005020202002465680E09090E0800246564E
:1046A0006090A0A090A002475740200070909070AA
:1046B00002475720400070909070024757205000EA
:1046C0007090907002475750A00070909070024612
:1046D00056500070909070024757609060709090B4
:1046E00070025454F068B078113555608080604095
:1046F00002475740200060B0C0600247572040008A
:1047000060B0C06002475760900060B0C060024671
:1047100056500060B0C060123757804000C0404023
:10472000E0123757204000C04040E012375740A009
:1047300000C04040E0123656A000C04040E00247B2
:1047400057A040A01070906002475750A000E09022
:104750009090024757402000609090600247572099
:1047600040006090906002475760900060909060B9
:1047700002475750A000609090600246569000603B
:104780009090601235554000E0004002445470B0F3
:10479000D0E0024757402000909090700247572089
:1047A00040009090907002475760900090909070F9
:1047B000024656900090909070014858204000901A
:1047C000907090600147578080E090E080800147C2
:1047D00057900090907090604E414E494E49545908
:1047E000494E46CDCCCC3D0AD7233C17B7D13877BC
:1047F000CC2B329595E6241FB14F0A0000204100D2
:1048000000C84200401C4620BCBE4CCA1B0E5AAE1B
:10481000C59D740097507BDF9B5011241FBECFEFC6
:10482000D1E2DEBFCDBF00E00CBF14E0A0E0B2E0FB
:10483000E4E4F0EF01E00BBF02C007900D92A23D4F
:10484000B107D9F724E1A2EDB4E001C01D92A43D67
:10485000B207E1F718E4C8E1D8E400E006C0229707
:104860000109FE010BBF0E943BEDC431D10780E07E
:104870000807A9F70E9464E30C9410F80C94000058
:10488000EF92FF920F931F93CF93DF931F92CDB7B9
:10489000DEB78C017B01460FF70161917F01F801C2
:1048A0008081918149830E9459F7F801808191812B
:1048B00001969183808349814E11EECF0F90DF9155
:1048C000CF911F910F91FF90EF900895EF92FF927B
:1048D0000F931F93CF93DF931F92CDB7DEB78C0159
:1048E0007B01460FF8018081918149830E9451F735
:1048F000F70181937F01F801808191810196918375
:10490000808349814E11EECF0F90DF91CF911F919F
:104910000F91FF90EF9008950F931F93CF93DF9324
:10492000CDB7DEB72A970FB6F894DEBF0FBECDBF66
:1049300080E390E3A0E3B0E08D839E83AF83B887EC
:1049400004E610E01A87098744E0BE016B5F7F4FE1
:10495000CE01099695DF40E165E471E1CE0109964B
:104960008FDF40E165E571E1CE01099689DF40E125
:1049700065E371E1CE01099683DF44E06DE271E108
:10498000CE0109967DDF44E069E271E1CE0109962E
:1049900077DF44E061E371E1CE01099671DF44E025
:1049A00069E171E1CE0109966BDF44E065E671E1F2
:1049B000CE01099665DF44E065E271E1CE0109961A
:1049C0005FDF44E061E271E1CE01099659DF44E026
:1049D0006DE171E1CE01099653DF4CE06DE477E0C3
:1049E000CE0109964DDF42E067E974E1CE010996F8
:1049F00047DF42E065E974E1CE01099641DF42E01C
:104A000063E974E1CE0109963BDF42E061E974E1BC
:104A1000CE01099635DF42E06FE874E1CE010996D8
:104A20002FDF42E06DE874E1CE01099629DF44E012
:104A30006AE377E0CE01099623DF44E06CE572E09B
:104A4000CE0109961DDF44E068E572E0CE010996CB
:104A500017DF44E064E572E0CE01099611DF42E021
:104A60006AE872E1CE0109960BDF41E069E677E082
:104A7000CE01099605DF44E06BE172E0CE010996B4
:104A8000FFDE86E591E3A3E3B0E089839A83AB83FD
:104A9000BC831A87098744E0BE016F5F7F4FCE0158
:104AA0000996EEDEEAE7F9E08491882341F09091DF
:104AB000C00095FFFCCF8093C6003196F5CFE2E9A8
:104AC000F3E08491882341F09091C00095FFFCCFE2
:104AD0008093C6003196F5CF8091C00085FFFCCF52
:104AE0008AE08093C6002A960FB6F894DEBF0FBE08
:104AF000CDBFDF91CF911F910F910895CF93DF9399
:104B0000CAE7D9E0FE018491882341F09091C0006A
:104B100095FFFCCF8093C6003196F5CFE2E8F3E035
:104B20008491882341F09091C00095FFFCCF809341
:104B3000C6003196F5CF8091C00085FFFCCF8AE09A
:104B40008093C600FE018491EAE7F9E0882349F0EA
:104B50009091C00095FFFCCF8093C6003196849160
:104B6000F5CF4091451150914611609147117091D8
:104B700048118AE793E00E94422E409149115091DA
:104B80004A1160914B1170914C1187E793E00E949C
:104B9000422E40914D1150914E1160914F117091E4
:104BA000501184E793E00E94422E409151115091A0
:104BB0005211609153117091541181E793E00E945A
:104BC000422E8091C00085FFFCCF8AE08093C60012
:104BD000FE018491EAE7F9E0882349F09091C00052
:104BE00095FFFCCF8093C60031968491F5CFE7E521
:104BF000F3E08491882341F09091C00095FFFCCFB1
:104C00008093C6003196F5CF8091C00085FFFCCF20
:104C10008AE08093C600FE018491EAE7F9E08823E8
:104C200049F09091C00095FFFCCF8093C60031966B
:104C30008491F5CF409155115091561160915711C3
:104C4000709158118EE493E00E94422E40915911C8
:104C500050915A1160915B1170915C118BE493E05B
:104C60000E94422E40915D1150915E1160915F1142
:104C70007091601188E493E00E94422E409161118E
:104C800050916211609163117091641185E493E019
:104C9000F9D78091C00085FFFCCF8AE08093C600E1
:104CA000FE018491EAE7F9E0882349F09091C00081
:104CB00095FFFCCF8093C60031968491F5CFE7E253
:104CC000F3E08491882341F09091C00095FFFCCFE0
:104CD0008093C6003196F5CF8091C00085FFFCCF50
:104CE0008AE08093C600FE018491EAE7F9E0882318
:104CF00049F09091C00095FFFCCF8093C60031969B
:104D00008491F5CF40913511509136116091371152
:104D1000709138118EE193E0C6D7409139115091CE
:104D20003A1160913B1170913C118BE193E0BBD73C
:104D300040913D1150913E1160913F117091401191
:104D400088E193E0B0D740914111509142116091B8
:104D500043117091441185E193E0A5D78091C00083
:104D600085FFFCCF8AE08093C600FE018491EAE7CC
:104D7000F9E0882349F09091C00095FFFCCF809323
:104D8000C60031968491F5CFE0EEF2E0849188235D
:104D900041F09091C00095FFFCCF8093C600319602
:104DA000F5CF8091C00085FFFCCF8AE08093C600DC
:104DB000FE018491EAE7F9E0882349F09091C00070
:104DC00095FFFCCF8093C60031968491F5CF40913A
:104DD0002D1150912E1160912F117091301187ED8E
:104DE00092E050D74091291150912A1160912B11D6
:104DF00070912C1184ED92E045D78091C00085FF21
:104E0000FCCF8AE08093C600FE018491EAE7F9E0D6
:104E1000882349F09091C00095FFFCCF8093C60095
:104E200031968491F5CFE1E2F2E08491882341F05C
:104E30009091C00095FFFCCF8093C6003196F5CFCE
:104E40008091C00085FFFCCF8AE08093C600FE0100
:104E50008491EAE7F9E0882349F09091C00095FF3A
:104E6000FCCF8093C60031968491F5CF40913111EB
:104E700050913211609133117091341188E192E0B8
:104E800001D74091191150911A1160911B11709125
:104E90001C1185E192E0F6D64091651150916611A2
:104EA000609167117091681182E192E0FCD64091A7
:104EB00025115091261160912711709128118FE0D2
:104EC00092E0E0D64091211150912211609123117E
:104ED000709124118CE092E0D5D640911D11509133
:104EE0001E1160911F117091201189E092E0CAD6C5
:104EF0008091C00085FFFCCF8AE08093C600FE0150
:104F00008491EAE7F9E0882349F09091C00095FF89
:104F1000FCCF8093C60031968491F5CFE7EFF1E0A6
:104F20008491882341F09091C00095FFFCCF80933D
:104F3000C6003196F5CF8091C00085FFFCCF8AE096
:104F40008093C600FE018491EAE7F9E0882349F0E6
:104F50009091C00095FFFCCF8093C600319684915C
:104F6000F5CF40914D0750914E0760914F077091DA
:104F700050078EEE91E086D640915107509152072E
:104F800060915307709154078BEE91E07BD640916E
:104F9000550750915607609157077091580788EE52
:104FA00091E070D68091C00085FFFCCF8AE08093AD
:104FB000C600FE018491EAE7F9E0882349F0909168
:104FC000C00095FFFCCF8093C60031968491F5CF49
:104FD000EAEDF1E08491882341F09091C00095FFC3
:104FE000FCCF8093C6003196F5CF8091C00085FF3D
:104FF000FCCF8AE08093C600FE01C491EAE7F9E0A5
:10500000CC2349F08091C00085FFFCCFC093C6003F
:105010003196C491F5CF40915C0250915D02609150
:105020005E0270915F0280ED91E02CD66091580293
:105030007091590280915A0290915B020E947F9474
:10504000AB01BC018DEC91E01DD6609154027091D2
:10505000550280915602909157020E948B94AB01A9
:10506000BC018AEC91E00ED68091C00085FFFCCF98
:105070008AE08093C600DF91CF910895AF92BF92EE
:10508000CF92DF92EF92FF920F931F93CF93DF9314
:10509000CDB7DEB7E0970FB6F894DEBF0FBECDBF39
:1050A00080E1E7E8F2E0DE01919601900D928A95A9
:1050B000E1F780E1E7E9F2E0DE01519601900D921F
:1050C0008A95E1F780E1E7EAF2E0DE0111960190CE
:1050D0000D928A95E1F76E0181E2C80ED11C85E43C
:1050E000E82E81E1F82E8E010F5E1F4F65E571E11C
:1050F000AE014F5F5F4F95E3A92E91E1B92E20E0FD
:1051000030E0F60181919191A191B1916F01F70188
:1051100081939193A193B1937F01F8018191919132
:10512000A191B1918F01FB0181939193A193B193CF
:10513000BF01FA0181919191A191B191AF01F50166
:1051400081939193A193B1935F012F5F3F4F2430DF
:105150003105B9F60E947B7F80E090E0AFE2B4E4D5
:1051600080932D1190932E11A0932F11B093301195
:105170008093291190932A11A0932B11B0932C1195
:105180001092311110923211109233111092341189
:1051900080E29EE4A0E0B0E08093651190936611F8
:1051A000A0936711B09368111092191110921A11FF
:1051B00010921B1110921C1180E090E0A0E7B1E466
:1051C0008093251190932611A0932711B093281155
:1051D0008DEC9CECACECBEE38093211190932211FA
:1051E000A0932311B093241180E090E0A0EEB0E4EE
:1051F00080931D1190931E11A0931F11B093201145
:1052000010925507109256071092570710925807A0
:1052100010925107109252071092530710925407A0
:1052200010924D0710924E0710924F0710925007A0
:1052300084EB90E0909398148093971482E390E02D
:1052400090939614809395148FEF90E0909394141C
:105250008093931420EF30E03093921420939114B4
:105260002AE530E03093901420938F1490938E149D
:1052700080938D1480E290E090938B1280938A1239
:105280008AE999E9A1EBB1E480935C0290935D0215
:10529000A0935E02B0935F0261E77DE38AE89FE33B
:1052A0000E947994609358027093590280935A0235
:1052B00090935B0260E070E084EE92E40E9485943B
:1052C0006093540270935502809356029093570254
:1052D0000E94BF8A80E090E0A0E8BFE38093500284
:1052E00090935102A0935202B09353021092690717
:1052F00080E090E0A0E4B0E480931B0290931C0255
:10530000A0931D02B0931E020E94293AEAE7F9E039
:105310008491882341F09091C00095FFFCCF809349
:10532000C6003196F5CFEEE8F1E08491882341F094
:105330009091C00095FFFCCF8093C6003196F5CFC9
:105340008091C00085FFFCCF8AE08093C600E09684
:105350000FB6F894DEBF0FBECDBFDF91CF911F9186
:105360000F91FF90EF90DF90CF90BF90AF90089596
:10537000CF93DF93CDB7DEB72A970FB6F894DEBF91
:105380000FBECDBF84E690E09A87898786E591E3DA
:10539000A3E3B0E089839A83AB83BC8344E0BE017E
:1053A0006B5F7F4FCE01099691DA43E050E0BE017A
:1053B0006B5F7F4FCE0101960E9418F5892B09F093
:1053C000BEC040E165E471E1CE0109967FDA40E1BB
:1053D00065E571E1CE01099679DA40E165E371E1B5
:1053E000CE01099673DA0E947B7F44E06DE271E1A1
:1053F000CE0109966BDA44E069E271E1CE010996CB
:1054000065DA44E061E371E1CE0109965FDA44E0D8
:1054100069E171E1CE01099659DA44E065E671E18E
:10542000CE01099653DA44E065E271E1CE010996B6
:105430004DDA44E061E271E1CE01099647DA44E0D9
:105440006DE171E1CE01099641DA4CE06DE477E05F
:10545000CE0109963BDA42E067E974E1CE01099694
:1054600035DA42E065E974E1CE0109962FDA42E0CF
:1054700063E974E1CE01099629DA42E061E974E159
:10548000CE01099623DA42E06FE874E1CE01099675
:105490001DDA42E06DE874E1CE01099617DA44E0C6
:1054A0006AE377E0CE01099611DA44E06CE572E038
:1054B000CE0109960BDA44E068E572E0CE01099668
:1054C00005DA44E064E572E0CE010996FFD942E0D6
:1054D0006AE872E1CE010996F9D941E069E677E020
:1054E000CE010996F3D944E06BE172E0CE01099652
:1054F000EDD90E94293A0E94BF8AEAE7F9E0849137
:10550000882341F09091C00095FFFCCF8093C600A6
:105510003196F5CFE0EBF1E08491882341F0909152
:10552000C00095FFFCCF8093C6003196F5CF8091E7
:10553000C00085FFFCCF8AE08093C60001C09EDDDD
:10554000DDDA2A960FB6F894DEBF0FBECDBFDF912D
:10555000CF9108951F920F920FB60F9211240BB6A0
:105560000F922F933F934F935F936F938F939F93DC
:10557000EF93FF936091C60020915305309154053D
:10558000C90101968F77992740915505509156058D
:105590008417950741F0F901ED52FB4F608390931A
:1055A000540580935305FF91EF919F918F916F91D7
:1055B0005F914F913F912F910F900BBE0F900FBEB7
:1055C0000F901F9018959A01AB01211581EE3807B5
:1055D0004105510549F182E08093C00060E079E027
:1055E0008DE390E00E94FAEC215031094109510904
:1055F000CA01B90122E030E040E050E00E94FAEC3C
:105600003093C5002093C4008091C10080618093D5
:10561000C1008091C10088608093C1008091C10069
:1056200080688093C10008951092C00020E130E0AE
:10563000E7CF209155053091560580915305909103
:1056400054058217930771F0F901ED52FB4F8081E9
:105650002F5F3F4F2F773327309356052093550503
:1056600090E008958FEF9FEF0895809155059091F8
:105670005605909354058093530508954F925F9279
:105680006F927F928F929F92AF92BF92CF92DF9252
:10569000EF92FF920F931F93CF93DF93CDB7DEB7B7
:1056A000A0970FB6F894DEBF0FBECDBF5C014115C9
:1056B000510561057105E9F420E030E040E350E078
:1056C00060E070E0A0960FB6F894DEBF0FBECDBFCD
:1056D000DF91CF911F910F91FF90EF90DF90CF90CE
:1056E000BF90AF909F908F907F906F905F904F9002
:1056F0005BC08E010F5F1F4FC12CD12C760148017A
:10570000422E512C612C712C8FEFC81AD80AE80A4E
:10571000F80ACB01BA01A30192010E94D8ECCA0198
:10572000F80161938F01A901BC0141155105610583
:10573000710551F7F1E0CF1AD108E108F108F40141
:10574000EC0DFD1D80818A3010F440E301C047E379
:10575000480F552747FD5095652F752F20E030E005
:10576000C50122D081E0C81AD108E108F108EFEFA5
:10577000CE16DE06EE06FE0611F7A0960FB6F894DA
:10578000DEBF0FBECDBFDF91CF911F910F91FF9074
:10579000EF90DF90CF90BF90AF909F908F907F90D1
:1057A0006F905F904F9008952115310539F48091E5
:1057B000C00085FFFCCF4093C60008952A30310514
:1057C00009F41CC05BCFCF93DF93EC0120E030E005
:1057D0004DE050E060E070E0E7DF20E030E04AE0DC
:1057E00050E060E070E0CE01DF91CF91DDCF9A0113
:1057F000AB01662757FD6095762FD6CFCF92DF920B
:10580000EF92FF92CF93DF93EC016A017B0177FF68
:105810000FC020E030E04DE250E060E070E0C4DF17
:10582000F094E094D094C094C11CD11CE11CF11CF4
:105830002AE0B701A601CE01DF91CF91FF90EF9052
:10584000DF90CF901BCF2115310539F48091C00036
:1058500085FFFCCF4093C600089510CF9A01462FD4
:1058600050E060E070E0EFCFCF93DF93EC019A015E
:10587000AB0160E070E0E7DFCE01DF91CF91A3CF15
:105880008F929F92AF92BF92CF92DF92EF92FF9250
:105890001F93CF93DF93EC016A017B01122F20E06D
:1058A00030E0A901C701B6010E942DEE87FF0CC0B0
:1058B00020E030E04DE250E060E070E0CE0174DFC7
:1058C000F7FAF094F7F8F094B12C60E070E080E023
:1058D0009FE3B11641F020E030E040E251E40E9445
:1058E00034EEB394F6CF9B01AC01C701B6010E9420
:1058F00054ED6B017C010E94A1EE4B015C010E9402
:10590000CDEE9B01AC01C701B6010E9453ED6B01C6
:105910007C012AE0B501A401CE01B0DE112361F0C3
:10592000E0E5F4E08191882339F09091C00095FF83
:10593000FCCF8093C600F6CF112319F120E030E0B0
:1059400040E251E4C701B6010E9402F16B017C0103
:105950000E949CEE4B01AA2497FCA094BA2CB5019E
:10596000A401CE014BDFC501B4010E94CFEE9B0123
:10597000AC01C701B6010E9453ED6B017C011150CF
:10598000DBCFDF91CF911F91FF90EF90DF90CF9011
:10599000BF90AF909F908F90089572CFFC0165915A
:1059A00075918591949108952F923F924F925F92B5
:1059B0006F927F928F929F92AF92BF92CF92DF921F
:1059C000EF92FF920F931F93CF93DF9300D000D0FD
:1059D000CDB7DEB71C01FC01E55CF64F14919C01CC
:1059E000220F331F220F331F3E832D83275A384F38
:1059F0004901F901108211821282138225E637E0F3
:105A000041E657E06DE577E089E597E00E94A97EE1
:105A10008D819E81865B964FC1DF6B017C01612F7A
:105A2000772767FD7095872F972F0E94CFEE2B0168
:105A30003C012D813E812A5D384F590120E030E044
:105A400040EC5FE3C701B6010E9402F1A30192019D
:105A50000E9402F1F50160837183828393832D811B
:105A60003E812B5D3D4F3C832B83F9016081718129
:105A700082819381609305027093060280930702EE
:105A80009093080220E030E040E752E40E9434EEB8
:105A900029E3C22E27E0D22E7B018C0122E337E0DE
:105AA0004EE257E06AE277E086E297E00E94D37424
:105AB0000E943188F401108211821282138225E63D
:105AC00037E041E657E06DE577E089E597E00E9431
:105AD000A97E2D813E81225C364F3A832983C901FC
