:100000000C948D240C94BE240C94BE240C94BE2419
:100010000C94BE240C94BE240C94BE240C94BE24D8
:100020000C94BE240C94BE240C94BE240C94BE24C8
:100030000C94BE240C9425770C94BE240C94BE24FE
:100040000C94BE240C94F4B10C94BE240C94BE24E5
:100050000C94BE240C94BE240C940DA30C949EDC32
:100060000C94BE240C94F2490C94BE240C94BE242F
:100070000C94BE240C94BE240C94BE240C94BE2478
:100080000C94BE240C94BE240C94BE240C94BE2468
:100090000C94BE240C94BE240C94BE240C94BE2458
:1000A0000C94BE240C94BE240C94BE240C94BE2448
:1000B0000C94BE240C94BE240C94BE240C94BE2438
:1000C0000C94BE240C94BE240C94BE240C94BE2428
:1000D0000C94BE240C94BE240C94BE240C94BE2418
:1000E0000C94BE246DA37CA398A3A7A3C1A3D0A303
:1000F000EAA3EEA3F0A3F4A3FCA318DB1BDB0ADB4B
:100100000EDB14DB52DB1FDB23DB29DB2DDB31DBDA
:1001100037DB3BDB3FDB52DB45DB49DB4DDBB8DB71
:10012000BDDBC2DBCCDBD6DB4FDCE0DBE8DBF0DBCE
:10013000FADB04DC0EDC1DDC27DC4FDC31DC3BDCD5
:1001400045DC084AD73B3BCE016E84BCBFFDC12FC6
:100150003D6C74319ABD56833DDA3D00C77F11BEB8
:10016000D9E4BB4C3E916BAAAABE000000803F05BB
:10017000A84CCDB2D44EB93836A9020C50B99186EC
:1001800088083CA6AAAA2ABE000000803F000C9462
:10019000B7760C943FDB0C9414DB0C949D9E0C946E
:1001A0004C910C94F4A30C9438D00C9452DB0C9426
:1001B0008DCD0C94F0DB0C9445DC0C94EAA30C94EC
:1001C000D0A30C9461620C9496770C941FDB0C9472
:1001D00011920C9468910C948BC10C9418DB0C94C4
:1001E000FABF0C9476830C94B9760C9445DB0C948E
:1001F000E0DB0C94686A0C94C2DB0C9423DB0C9457
:1002000076910C9488910C940EDB0C944FDC0C943A
:10021000D6DB0C9456A10C94A7A30C94C8C00C94E4
:100220005A910C944DCB0C9427DC0C94919A0C941D
:100230007C910C943C8B0C9497D50C94FCA30C945F
:1002400068A20C94C1E30C94BDC00C948BD50C94A3
:10025000CD760C9445A90C9449C90C944DDB0C94B3
:100260000CCA0C94FCDD0C9429DB0C9431DC0C944E
:10027000CCDB0C94B8DB0C94496A0C942CBF0C9426
:1002800091D50C940EDC0C943BDB0C9482910C9475
:100290008C760C94D18D0C945C8F0C942DDB0C948B
:1002A000B7950C94FB690C94EEA30C9449DB0C9469
:1002B0000ADB0C94F0A30C94C1CA0C946DA30C94AB
:1002C000C1A30C943BDC0C94FADB0C9437DB0C944C
:1002D00098A30C947CA30C94BDDB0C9404DC0C94CC
:1002E0004EC20C94AF800C941DDC0C9409B10C949C
:1002F000E8DB0C942B7A0C941B970C94FECD0C9499
:100300001BDB0C9431DB2F005344207072696E7438
:10031000696E67206279746520004E6F74205344C3
:10032000207072696E74696E67002E0044656C659A
:1003300074696F6E206661696C65642C2046696C17
:10034000653A200046696C652064656C6574656477
:100350003A002E006F70656E206661696C65642CD2
:100360002046696C653A2000504944204175746FFD
:1003700074756E652066696E6973686564212050C6
:10038000757420746865206C617374204B702C2028
:100390004B6920616E64204B6420636F6E737461DF
:1003A0006E74732066726F6D2061626F766520696E
:1003B0006E746F20436F6E66696775726174696FE2
:1003C0006E2E6800504944204175746F74756E65D7
:1003D000206661696C6564212074696D656F757450
:1003E0000020403A006F6B20543A006F6B20423A75
:1003F00000504944204175746F74756E65206661C4
:10040000696C6564212054656D70657261747572E4
:100410006520746F6F206869676800204B643A201C
:1004200000204B693A2000204B703A200020436C9A
:1004300061737369632050494420002054753A2049
:1004400000204B753A2000206D61783A2000206D25
:10045000696E3A200020643A200020626961733A94
:1004600020002200556E6B6E6F776E20636F6D6D8E
:10047000616E643A2022004368616E676520666998
:100480006C616D656E74005A204F666673657420EA
:100490003A20007A5F6D61783A20007A5F6D696E6C
:1004A0003A20005A204F6666736574005A204F66E2
:1004B00066736574206F6B006C636420636F6E7489
:1004C000726173742076616C75653A20007A5F6D95
:1004D00061783A20007A5F6D696E3A2000795F6D2D
:1004E00061783A2000795F6D696E3A2000785F6D1F
:1004F00061783A2000785F6D696E3A2000205A3AA0
:100500000020593A0020436F756E7420583A20003D
:1005100020453A00205A3A0020593A00583A0046FD
:1005200049524D574152455F4E414D453A4D6172DA
:100530006C696E20312E302E322B20446576656C2E
:100540006F706D656E742046726F6D2041726368C6
:1005500069766520534F555243455F434F44455F8D
:1005600055524C3A68747470733A2F2F67697468E7
:1005700075622E636F6D2F4D61726C696E46697284
:100580006D776172652F4D61726C696E2050524FAC
:10059000544F434F4C5F56455253494F4E3A312EBC
:1005A00030204D414348494E455F545950453A44E7
:1005B0004959652049332045585452554445525FA6
:1005C000434F554E543A3120555549443A30303016
:1005D00030303030302D303030302D303030302D24
:1005E000303030302D30303030303030303030300E
:1005F000300A0044495965204933204F66662E0071
:10060000444959652049332072656164792E00425E
:10061000656420646F6E652E0020423A0020453AE2
:1006200000543A004265642048656174696E672E23
:100630000048656174696E6720646F6E652E0020E6
:10064000573A0020453A00543A0048656174696E93
:10065000672E2E2E002042403A0020403A00202FE4
:10066000003A00205400202F0020423A00202F00A2
:100670006F6B20543A002569206D696E2C20256926
:100680002073656300456E642066696C65206C6943
:10069000737400426567696E2066696C65206C69D9
:1006A0007374004E6F206D6F76652E004449596556
:1006B0002049332072656164792E00526573756D2F
:1006C000696E67207072696E740057616974206684
:1006D0006F7220757365722E2E2E00536C656570D7
:1006E0002E2E2E0053657474696E67732053746FD9
:1006F000726564002044002049002020204D3330E2
:10070000312050005049442073657474696E6773DA
:100710003A00205A0020590020204D32303620580F
:1007200000486F6D65206F666673657420286D6D77
:10073000293A00204500205A00205800204200207D
:10074000540020204D323035205300416476616ED4
:10075000636564207661726961626C65733A2053E7
:100760003D4D696E20666565647261746520286D13
:100770006D2F73292C20543D4D696E207472617663
:10078000656C20666565647261746520286D6D2FE7
:1007900073292C20423D6D696E696D756D207365FE
:1007A000676D656E742074696D6520286D73292CE2
:1007B00020583D6D6178696D756D205859206A65C6
:1007C000726B20286D6D2F73292C20205A3D6D618E
:1007D00078696D756D205A206A65726B20286D6D81
:1007E0002F73292C2020453D6D6178696D756D2032
:1007F00045206A65726B20286D6D2F732900205487
:100800000020204D323034205300416363656C6515
:10081000726174696F6E3A20533D616363656C6504
:10082000726174696F6E2C20543D726574726163DD
:100830007420616363656C65726174696F6E00201A
:100840004500205A0020590020204D3230312058D8
:10085000004D6178696D756D20416363656C6572EB
:100860006174696F6E20286D6D2F7332293A0020F4
:100870004500205A0020590020204D3230332058A6
:10088000004D6178696D756D20666565647261748F
:10089000657320286D6D2F73293A00204500205A7A
:1008A0000020590020204D393220580053746570C3
:1008B000732070657220756E69743A0053746F729C
:1008C00065642073657474696E67732072657472F1
:1008D00069657665640048617264636F646564206D
:1008E00044656661756C742053657474696E6773D2
:1008F000204C6F61646564002200656E71756569E6
:100900006E672022004D383420582059205A204547
:1009100000256920686F757273202569206D696EE6
:100920007574657300446F6E65207072696E7469CA
:100930006E672066696C650053544F505045442ED5
:1009400020005072696E7465722073746F707065E8
:10095000642064756520746F206572726F72732EE7
:100960002046697820746865206572726F72206114
:100970006E6420757365204D39393920746F20728B
:100980006573746172742E202854656D7065726190
:10099000747572652069732072657365742E2053B7
:1009A0006574206974206166746572207265737461
:1009B000617274696E6729004E6F204C696E652004
:1009C0004E756D626572207769746820636865632F
:1009D0006B73756D2C204C617374204C696E653A95
:1009E00020004E6F20436865636B73756D207769D7
:1009F0007468206C696E65206E756D6265722C205E
:100A00004C617374204C696E653A200063686563BD
:100A10006B73756D206D69736D617463682C204C08
:100A2000617374204C696E653A20004C696E6520D4
:100A30004E756D626572206973206E6F74204C6113
:100A40007374204C696E65204E756D6265722B3132
:100A50002C204C617374204C696E653A20004D3136
:100A600031300020746F6F206C6F6E672065787472
:100A7000727573696F6E2070726576656E746564E9
:100A80000020636F6C6420657874727573696F6E93
:100A90002070726576656E7465640057726974695A
:100AA0006E6720746F2066696C653A20002E006FB7
:100AB00070656E206661696C65642C2046696C65A2
:100AC0003A20002E006F70656E206661696C656467
:100AD0002C2046696C653A200046696C6520736578
:100AE0006C6563746564002053697A653A2000463A
:100AF000696C65206F70656E65643A20002E006F2A
:100B000070656E206661696C65642C2046696C6551
:100B10003A20004E6F772066726573682066696CB4
:100B2000653A20004E6F7720646F696E67206669B2
:100B30006C653A20002220706F7300222070617271
:100B4000656E743A2200535542524F5554494E45F2
:100B50002043414C4C207461726765743A220074E2
:100B60007279696E6720746F2063616C6C20737595
:100B7000622D67636F64652066696C6573207769B1
:100B8000746820746F6F206D616E79206C65766576
:100B90006C732E204D4158206C6576656C2069730E
:100BA0003A004D3234004D323320257300617574A4
:100BB0006F25692E670000002200250028002B0009
:100BC0002E003100340002010000050108010B0174
:100BD000000020002300260029002C002F003200F6
:100BE00000010000030106010901050505050705CF
:100BF00008080808020202020A0A08080404040499
:100C000001010101010101010303030303030303C4
:100C1000040707070C0C0C0C0C0C0C0C0202020253
:100C200006060606060606060B0B0B0B0B0B0B0B3C
:100C300001021020200808102040102040800201EE
:100C400002010804020101020408102040808040D3
:100C500020100804020180040201804020100804D2
:100C60000201080402010102040810204080010270
:100C700004081020408000000A0B02090C0D0E0829
:100C80000703040100000000000000000000000055
:100C90000000000000000000000000000000000054
:100CA0000000121110000000000000000000000011
:100CB00000000000000000000000000043616E6EB4
:100CC0006F7420656E746572207375626469723A20
:100CD000200053442063617264206F6B006F706565
:100CE0006E526F6F74206661696C656400766F6C1C
:100CF000756D652E696E6974206661696C65640046
:100D00004572726F723A00534420696E69742066AE
:100D100061696C006563686F3A00022020506C6165
:100D20006E6E657242756666657242797465733A75
:100D300020002046726565204D656D6F72793A20FE
:100D400000446563203133203230313600436F6D0B
:100D500070696C65643A200028444959452C205339
:100D600074616E646172642900207C20417574682E
:100D70006F723A20004465632031332032303136BF
:100D80002032323A31313A313200204C61737420D2
:100D9000557064617465643A200020312E302E3223
:100DA0002B004D61726C696E0020536F6674776121
:100DB00072652052657365740020576174636864BE
:100DC0006F67205265736574002042726F776E20E2
:100DD0006F75742052657365740020457874657270
:100DE0006E616C20526573657400506F7765725543
:100DF00070007374617274006572726F7220777222
:100E00006974696E6720746F2066696C6500656E31
:100E10006473746F7073206869743A205A00205AA2
:100E20003A00656E6473746F7073206869743A2059
:100E3000590020593A00656E6473746F70732068AE
:100E400069743A20580020583A00656E6473746FD4
:100E50007073206869743A2000446F6E6520736176
:100E600076696E672066696C652E006F6B004D3287
:100E70003900526573746F7265206661696C7361C5
:100E80006665004C6F6164206D656D6F727900530B
:100E9000746F7265206D656D6F7279004C434420EC
:100EA000636F6E74726173740046696C616D656E18
:100EB00074004D6F74696F6E0054656D706572617A
:100EC00074757265004D61696E0050726568656188
:100ED000742041425320636F6E66005072656865EE
:100EE000617420504C4120636F6E66005049442D60
:100EF00043005049442D43005049442D440050497B
:100F0000442D44005049442D49005049442D490086
:100F10005049442D50005049442D50002002204695
:100F20006163740020022046616374002002204D3A
:100F30006178002002204D6178002002204D696E0A
:100F4000002002204D696E004F6666004F6E200043
:100F50004F6666004F6E20004175746F74656D704A
:100F60000046616E2073706565640046616E207393
:100F7000706565640042656400426564004E6F7A86
:100F80007A6C65004E6F7A7A6C6500436F6E74728E
:100F90006F6C0053746F7265206D656D6F727900B0
:100FA00042656400426564004E6F7A7A6C65004E5B
:100FB0006F7A7A6C650046616E20737065656400B7
:100FC00046616E2073706565640054656D7065726E
:100FD00061747572650053746F7265206D656D6F15
:100FE00072790042656400426564004E6F7A7A6CE3
:100FF00065004E6F7A7A6C650046616E207370658D
:1010000065640046616E2073706565640054656DAB
:101010007065726174757265004573746570732FC5
:101020006D6D004573746570732F6D6D005A737428
:101030006570732F6D6D005A73746570732F6D6DCD
:10104000005973746570732F6D6D005973746570FA
:10105000732F6D6D005873746570732F6D6D00582C
:1010600073746570732F6D6D00412D7265747261BC
:10107000637400412D7265747261637400416D6127
:1010800078206500416D6178206500416D617820B0
:101090007A00416D6178207A00416D617820790095
:1010A000416D6178207900416D6178207800416D53
:1010B00061782078005654726176206D696E005612
:1010C00054726176206D696E00566D696E00566DC2
:1010D000696E00566D6178206500566D61782065F7
:1010E00000566D6178207A00566D6178207A00563E
:1010F0006D6178207900566D6178207900566D61B8
:1011000078207800566D617820780056652D6A65E4
:10111000726B0056652D6A65726B00567A2D6A6592
:10112000726B00567A2D6A65726B005678792D6A5B
:1011300065726B005678792D6A65726B0041636346
:10114000656C00416363656C00436F6E74726F6C15
:10115000005072656865617420504C41204265649E
:10116000005072656865617420504C412031005018
:1011700072657061726500507265686561742041C6
:101180004253204265640050726568656174204175
:10119000425320310050726570617265004D3330EA
:1011A0003020533639382050323030004D33303013
:1011B00020533635392050323030004D6F7665205F
:1011C00061786973004D3830005377697463682023
:1011D000706F776572206F6E004D383100537769FC
:1011E00074636820706F776572206F666600436F66
:1011F0006F6C646F776E0050726568656174204132
:101200004253005072656865617420504C41005330
:10121000657420686F6D65206F6666736574730012
:10122000473238004175746F20686F6D65004D3826
:10123000340044697361626C652073746570706515
:101240007273004D61696E00580059005A0045786C
:1012500074727564657200457874727564657200A5
:101260004D6F7665205A004D6F76652059004D6FA1
:1012700076652058004D6F76652061786973004D62
:101280006F766520302E316D6D004D6F76652031A3
:101290006D6D004D6F76652031306D6D005072655B
:1012A000706172650001050800FF0601210235200A
:1012B000FFFF07FF06FF090050221656808080803E
:1012C0000080153353A0A0A00257575050F850F893
:1012D00050500257572070A0702870201335558049
:1012E000A040A02002475740A0A040A0A050251336
:1012F000538080801226564080808080401226567F
:101300008040404040800245559060F0609002551A
:10131000552020F82020113353604080044151F0C3
:1013200011335340E0400246561010204080801296
:10133000365640A0A0A0A04012365640C0404040C3
:10134000E00246566090106080F0024656F0206041
:101350001090600246562060A0F02020024656F011
:1013600080E01090600246566080E09090600246F7
:1013700056F01020204040024656609060909060E9
:10138000024656609090701060122555C0C000C093
:10139000C011365660600060408012365620408092
:1013A000804020034353F000F01236568040202046
:1013B000408012365640A020400040015858304826
:1013C00098A8A8904030024656609090F090900205
:1013D0004656E090E09090E0024656609080809003
:1013E00060024656E090909090E0024656F080E011
:1013F0008080F0024656F080E08080800246566091
:101400009080B090600246569090F0909090123686
:1014100056E040404040E002465670202020A04068
:1014200002465690A0C0A0A09002465680808080C0
:1014300080F002465690F0F090909002465690D080
:10144000F0B0B09002465660909090906002465680
:10145000E09090E08080014757609090D0B060109D
:10146000024656E09090E0909002465660904020F0
:101470009060123656E04040404040024656909000
:101480009090906002465690909090606002465610
:10149000909090F0F090024656909060609090028C
:1014A0005656888850202020024656F01020408052
:1014B000F0123656E080808080E002465680804000
:1014C000201010123656E020202020E01632524024
:1014D000A0014151F0162252804002445470909075
:1014E000700246568080E09090E012345460808014
:1014F0006002465610107090907002445460B0C064
:1015000060024656205040E04040014555609070D2
:1015100010600246568080E090909012365640004F
:10152000C04040E01137572000202020A040024654
:1015300056808090E09090123656C040404040E087
:10154000025454D0A8A8A8024454E09090900244B9
:101550005460909060014555E090E08080014555D1
:101560007090701010024454A0D0808012345460E7
:10157000C020C00246564040E040502002445490F3
:10158000909070123454A0A0A04002545488A8A88F
:101590005002445490606090014555909070906066
:1015A000024454F02040F0024757304020C0204011
:1015B00030221656808080808080024757C02040AD
:1015C000304020C006425250A0FFFFFFFFFFFFFF48
:1015D000FFFFFFFFFFFFFFFFFFFFFFFFFFFFFFFF1B
:1015E000FFFFFFFFFFFFFFFFFFFF0900502216561E
:1015F0008000808080800146562070A0A07020026C
:1016000046562050E04050A00255558870507088D2
:101610000256568850F820F8202217578080800004
:101620008080800247577080E0907010E017315141
:10163000A002565670A8C8C8A87014355560A0609E
:1016400000E003435350A050123353E020201431E4
:1016500051E002565670E8D8E8D870173151E015BD
:10166000335340A04012355540E04000E01435555A
:1016700040A02040E0143555C020C020C0162252A2
:101680004080014555909090E08002565678E8E8F9
:101690006828282411518011225240801435554069
:1016A000C04040E014355540A04000E0034353A043
:1016B00050A0024757808080A060F02002475780EA
:1016C00080A0D010207002475780408060A0F0209A
:1016D00012365640004080A040024757402060909C
:1016E000F0909002475720406090F090900247574A
:1016F00060906090F0909002475750A06090F090FA
:101700009002475790006090F09090024757609089
:101710006090F0909002465670A0A0F0A0B00147F3
:1017200057609080809060400247574020F080E0F2
:1017300080F00247572040F080E080F00247576079
:1017400090F080E080F00247579000F080E080F059
:101750001237578040E0404040E01237572040E0C9
:10176000404040E012375740A0E0404040E0123790
:1017700057A000E0404040E00256567048E8484814
:101780007002475750A090D0B09090024757402029
:101790006090909060024757204060909090600267
:1017A00047576090609090906002475750A06090BB
:1017B0009090600247579000609090906012335371
:1017C000A040A002465670B0B0D0D0E002475740CB
:1017D00020909090906002475720409090909060A9
:1017E0000247576090909090906002475790009009
:1017F0009090906002575710208850202020024679
:101800005680E09090E0800246566090A0A090A0A4
:1018100002475740200070909070024757204000C8
:10182000709090700247572050007090907002475F
:101830005750A000709090700246565000709090E3
:101840007002475760906070909070025454F06836
:10185000B0781135556080806040024757402000C5
:1018600060B0C06002475720400060B0C0600247CF
:101870005760900060B0C060024656500060B0C033
:1018800060123757804000C04040E0123757204078
:1018900000C04040E012375740A000C04040E01276
:1018A0003656A000C04040E0024757A040A010704C
:1018B000906002475750A000E09090900247574038
:1018C0002000609090600247572040006090906038
:1018D0000247576090006090906002475750A00008
:1018E000609090600246569000609090601235556E
:1018F0004000E0004002445470B0D0E0024757403E
:101900002000909090700247572040009090907077
:101910000247576090009090907002465690009059
:10192000909070014858204000909070906001475E
:10193000578080E090E08080014757900090907041
:101940009060000000000000000F00000000000098
:10195000000F000000000000000F00000000000069
:10196000000F000000000000000F00000000000059
:10197000000F000000000000000F00000000000049
:10198000000F000000000000000F00000000000039
:10199000000F000000000000000F00000000000029
:1019A000000F000000000000000F00000000000019
:1019B000000F000000000000000F00000000000009
:1019C000000F000000000000000F000000000000F9
:1019D000000F000000000000000F000000000000E9
:1019E000000F0FFFFFFFFFFFFFEF300000000000C0
:1019F0007FFF6000000000001FFF400000000000AB
:101A00000FFF4000000001800FFF83EFC000018C3A
:101A100007FF87FFE000018C03FF8638600001802C
:101A200001FF861863E0F98C7CFF861867F1FD8C56
:101A3000FE7F86186E318D8CC63F86186C398D8C72
:101A4000C71F86186C19818CC71F86186C19818C6A
:101A5000C71F86186F9F81CDC71F061867DF80EFED
:101A6000C71F4418619F002FC22F400000000000D4
:101A7000002F200000000000004F1FFFFFFFFFFFAE
:101A8000FF8F000000000000000F000000000000B9
:101A9000000F000000000000000F00000000000028
:101AA000000F000000000000000F00000000000018
:101AB000000F000000000000000F00000000000008
:101AC000000F000000000000000F000000000000F8
:101AD000000F000000000000000F000000000000E8
:101AE000000F000000000000000F000000000000D8
:101AF000000F000000000000000F000000000000C8
:101B0000000F000000000000000F000000000000B7
:101B1000000F000000000000000F000000000000A7
:101B2000000F0000000000000000000000000000A6
:101B300000000000000000000000000000000000A5
:101B40000000000000000000000000000000000095
:101B50000000000000000000000000000000000085
:101B60000000000000000000000000000000000075
:101B70000000000000000000000000000000000065
:101B8000B02000B0200059002D2D3A2D2D0000006E
:101B9000000000000000000000007FFFE0000000E7
:101BA0000000000000000000007000E000000000E5
:101BB000000000000000000061F86000000000006C
:101BC0000000000000000041F820000000000000BC
:101BD00000000000000040F02000000000000000B5
:101BE0000000000000406020000000000000000035
:101BF000000000005801A07F8000000000000000ED
:101C00004104005C63A0FFC0000000000000002051
:101C100082005EF7A0FFC0000000000000002082EC
:101C2000005EF7A0FFC000000000000000410400BB
:101C30005C63A07F80000000000000008208005864
:101C400001A07F800000000000000104100040603F
:101C500020FFC00000000000000104100040F02040
:101C6000FFC00000000000000082080041F820FFD3
:101C7000C00000000000000041040061F8603F0067
:101C8000000000000000000000007000E01E0000E6
:101C9000000000000001FFFF807FFFE00C0000005B
:101CA0000000000001FFFF800000000000000000B5
:101CB000000000000000007FFFE0000000000000C6
:101CC0000000000000007000E000000000000000C4
:101CD0000000000000630C60000000000000000035
:101CE00000000000470E200000000000000000007F
:101CF0000000004F0F200000000000000000000066
:101D000000005F0FA00000000000000000000000C5
:101D1000005E07A07F80000000000000004104007A
:101D2000406020FFC0000000000000002082004052
:101D3000F020FFC00000000000000020820040F002
:101D400020FFC000000000000000410400406020AF
:101D50007F80000000000000008208005E07A07F76
:101D600080000000000000010410005F0FA0FFC011
:101D7000000000000000010410004F0F20FFC00011
:101D8000000000000000820800470E20FFC0000095
:101D90000000000000410400630C603F00000000F0
:101DA000000000000000007000E01E0000000000C5
:101DB000000001FFFF807FFFE00C0000000000003A
:101DC0000001FFFF800000004D38342058205920CA
:101DD0005A2045004E6F20534420636172640050C6
:101DE00072696E742066726F6D2053440053746F75
:101DF00070207072696E7400526573756D65207025
:101E000072696E74005061757365207072696E74CA
:101E100000436F6E74726F6C005072657061726512
:101E20000054756E6500496E666F20736372656558
:101E30006E0000091200FC0A01E803D720FFFD0E26
:101E4000FD0BFD00000009000E010B0B09040080D2
:101E50008080808080800000808004040409030763
:101E600090909090080A0A090000242424FF24245A
:101E7000FF242424070B0B0901FF107C929050389B
:101E80001412927C10070A0A09010042A4A4481007
:101E900010244A4A84070A0A090100609090906061
:101EA000629488946201040409040780808080039E
:101EB0000C0C0903FF2040408080808080804040DF
:101EC00020030C0C0903FF8040402020202020200C
:101ED00040408007070709010310925438549210BC
:101EE000070707090101101010FE1010100204046A
:101EF0000904FEC0C04080070101090104FE02027E
:101F000002090400C0C0070A0A090100020404080B
:101F1000101020404080070A0A09010038448282DC
:101F2000828282824438070A0A09010010305090E8
:101F30001010101010FE070A0A090100384482022E
:101F40000408102040FE070A0A090100FE020408E6
:101F5000180402028478070A0A090100040C1424F8
:101F60004484FE040404070A0A090100FE808080FC
:101F7000F80402028478070A0A0901003C408080C4
:101F8000B8C482824438070A0A090100FE02040428
:101F9000080810101010070A0A090100384482448A
:101FA000384482824438070A0A0901003844828290
:101FB000463A02020478020707090400C0C0000084
:101FC00000C0C00209090904FEC0C0000000C0C072
:101FD00040800509090902000810204080402010B7
:101FE00008070404090102FE0000FE0509090902B0
:101FF00000804020100810204080070A0A090100D4
:1020000038448202040810100010070A0A0901006F
:1020100038449AAAAAAAAA9C403C070A0A090100C5
:1020200010282828447C44828282070A0A09010079
:10203000F8848284F884828284F8070A0A090100FD
:102040003C42808080808080423C070A0A0901006F
:10205000F88482828282828284F8070A0A09010057
:10206000FE808080F880808080FE070A0A090100D7
:10207000FE808080F88080808080070A0A09010045
:1020800038448280808E82824438070A0A0901001F
:1020900082828282FE8282828282050A0A0902008C
:1020A000F82020202020202020F8070A0A0901001B
:1020B0003E080808080808888870070A0A0901000D
:1020C00082848890A0D088848282070A0A0901004D
:1020D000808080808080808080FE070A0A0901005D
:1020E0008282C6AA928282828282070A0A0901003B
:1020F0008282C2A2928A86828282070A0A0901002B
:102100007C82828282828282827C070A0A090100A2
:10211000F884828284F880808080080B0B0901FF9C
:10212000384482828282828A443A01070A0A09017B
:1021300000F884828284F890888482070A0A090160
:10214000007C8280807C020202827C070A0A0901EC
:1021500000FE101010101010101010070A0A0901CC
:102160000082828282828282824438070A0A0901BE
:102170000082828244444428282810070A0A090160
:10218000008282828292929292AA44070A0A0901EC
:102190000082824428101028448282070A0A09011A
:1021A0000082824428101010101010070A0A09013A
:1021B00000FE0204081020408080FE040C0C09037D
:1021C000FFF080808080808080808080F0070A0A15
:1021D00009010080404020101008040402040C0C87
:1021E0000902FFF010101010101010101010F0075E
:1021F0000404090106102844820801010900FFFFB8
:1022000003030309030A8040200707070901007C34
:1022100002027E82867A070A0A090100808080BC59
:10222000C2828282C2BC0707070901007C828080CB
:1022300080827C070A0A0901000202027A868282F1
:1022400082867A0707070901007C8282FE80827CF1
:10225000070A0A0901001C22222020F82020202041
:10226000070A0A0901FD7A84848478807C82827C52
:10227000070A0A090100808080BCC28282828282B1
:10228000050A0A090200600000E02020202020F852
:10229000050D0D0902FD1800003808080808080897
:1022A000888870070A0A090100808080848890B0BD
:1022B000C88482050A0A090200E02020202020208C
:1022C0002020F8070707090100EC9292929292826F
:1022D000070707090100BCC28282828282070707C2
:1022E0000901007C82828282827C070A0A0901FD40
:1022F000B8C4828282C4B8808080070A0A0901FDBE
:102300003A46828282463A02020207070709010022
:102310009C6242404040400707070901007C8280E0
:102320007C02827C0709090901002020FC20202072
:1023300020221C0707070901008282828282867A96
:10234000070707090100828244442828100707076D
:102350000901008282929292AA44070707090100AC
:1023600082442810284482070A0A0901FD424224B7
:1023700024241818109060070707090100FE0408BC
:10238000102040FE060B0B0902001C20202020C05C
:10239000202020201C010C0C0904FF8080808080FC
:1023A00080808080808080060B0B090100E0101087
:1023B00010100C10101010E00703030901076292BF
:1023C0008CFFFFFFFFFFFFFFFFFFFFFFFFFFFFFF90
:1023D000FFFFFFFFFFFFFFFFFFFFFFFFFFFFFFFF0D
:1023E000FFFF00000009000E010B0B0904008080B4
:1023F0000000808080808080800608080901000835
:10240000789490A0A47840070A0A0901001C2220B1
:1024100020F8202060A25C070606090103827C44A4
:10242000447C82070A0A090100828244287C107CCD
:10243000101010010B0B0904FF8080808080008049
:1024400080808080040B0B0902FF60908060909078
:10245000906010906003020209030BA0A008090914
:102460000900013C4299A5A1A599423C050707092D
:102470000103609070907800F807080809010112C4
:1024800024489090482412060404090102FC040424
:1024900004050101090204F80809090900013C4288
:1024A000B9A5BDA9A5423C060101090109FC040426
:1024B00004090306609090600709090901011010E2
:1024C00010FE10101000FE040606090104609010B2
:1024D0006080F004060609010460902010906003FB
:1024E000030309030A2040800709090901FE8282CB
:1024F000828282C6BA8080070A0A0901007E8A8A1F
:102500008A7A0A0A0A0A0A020202090404C0C004FA
:1025100003030902FD20906003060609010440C080
:10252000404040E00506060901047088887000F804
:102530000708080901019048241212244890070A4C
:102540000A09010040C0404042E60A121A06070A82
:102550000A09010040C040404CF2020C101E070A5C
:102560000A0901006090201092660A121A06070AF2
:102570000A0901001000101020408082827C070EA2
:102580000E0901002010080010282828447C4482ED
:102590008282070E0E09010008102000102828284A
:1025A000447C44828282070E0E09010010284400F8
:1025B00010282828447C44828282070D0D090100DE
:1025C00034580010282828447C44828282070D0D4C
:1025D00009010028280010282828447C448282828F
:1025E000070E0E0901001028281010282828447C06
:1025F00044828282070A0A0901001E2828284E7890
:102600004888888E070D0D0901FD3C42808080803E
:102610008080423C082418070E0E09010020100893
:1026200000FE808080F880808080FE070E0E090109
:102630000008102000FE808080F880808080FE07E7
:102640000E0E09010010284400FE808080F8808072
:102650008080FE070D0D090100282800FE80808083
:10266000F880808080FE050E0E09020040201000D8
:10267000F82020202020202020F8050E0E0902003E
:1026800010204000F82020202020202020F8050ED7
:102690000E09020020508800F82020202020202051
:1026A00020F8050D0D090200505000F820202020D0
:1026B00020202020F8070A0A09010078444242F24B
:1026C0004242424478070D0D0901003458008282CD
:1026D000C2A2928A86828282070E0E090100201011
:1026E00008007C82828282828282827C070E0E09AE
:1026F0000100081020007C82828282828282827C99
:10270000070E0E090100102844007C82828282821A
:102710008282827C070D0D0901003458007C828280
:102720008282828282827C070D0D090100282800A6
:102730007C82828282828282827C07070709010171
:1027400082442810284482070C0C0901FF027C8671
:102750008A8A9292A2A2C27C80070E0E09010020F2
:1027600010080082828282828282824438070E0EA2
:1027700009010008102000828282828282828244C3
:1027800038070E0E090100102844008282828282DE
:102790008282824438070D0D0901002828008282B8
:1027A0008282828282824438070E0E09010008105C
:1027B000200082824428101010101010070A0A0905
:1027C00001008080FC828282FC808080060A0A09E7
:1027D000010038444448D04844444458070B0B098E
:1027E0000100201008007C02027E82867A070B0B13
:1027F000090100081020007C02027E82867A070B05
:102800000B090100102844007C02027E82867A07B0
:102810000A0A0901003458007C02027E82867A0787
:102820000A0A0901002828007C02027E82867A07B3
:102830000C0C09010010282810007C02027E828600
:102840007A0707070901006C12127E90926C070A42
:102850000A0901FD7C82808080827C104830070B51
:102860000B090100201008007C8282FE80827C0718
:102870000B0B090100081020007C8282FE80827C04
:10288000070B0B090100102844007C8282FE808225
:102890007C070A0A0901002828007C8282FE8082C7
:1028A0007C050C0C0902008040200000E020202064
:1028B0002020F8050C0C0902001020400000E02048
:1028C00020202020F8050C0C090200205088000070
:1028D000E02020202020F8050B0B090200505000BA
:1028E00000E02020202020F8070B0B0901004830D1
:1028F00050083C448282824438070A0A09010034A5
:102900005800BCC28282828282070B0B0901002020
:102910001008007C82828282827C070B0B090100F6
:10292000081020007C82828282827C070B0B0901C6
:1029300000102844007C82828282827C070A0A0975
:1029400001003458007C82828282827C070A0A0954
:1029500001002828007C82828282827C0709090982
:10296000010010381000FE00103810070909090195
:10297000FF027C8A8A92A2A27C80070B0B090100CD
:10298000402010008282828282867A070B0B090126
:1029900000081020008282828282867A070B0B094F
:1029A0000100102844008282828282867A070A0A05
:1029B0000901002828008282828282867A070E0E10
:1029C0000901FD0408100042422424241818109024
:1029D00060070B0B0901FE8080B8C4828282C4B8F4
:1029E0008080070D0D0901FD242400424224242487
:1029F000181810906000060900FE06018902FE20EA
:102A0000FFFE07FE06FE00000006000701060606A0
:102A10000200808080800080030303060103A0A0E1
:102A2000A00507070600FF5050F850F85050050960
:102A3000090600FE2070A8A07028A87020060808CB
:102A40000600FF40A8481020485408050707060064
:102A5000FF609090609890680103030602038080F5
:102A6000800207070602FF408080808080400207C6
:102A7000070602FF804040404040800505050600F3
:102A8000008850F850880505050600002020F82031
:102A9000200204040602FEC0404080050101060039
:102AA00002F8020202060200C0C004060606010087
:102AB000101020408080040606060100609090906F
:102AC000906003060606010040C0404040E0040656
:102AD000060601006090102040F004060606010082
:102AE000F020601010E0050606060000103050903F
:102AF000F810040606060100F080E01010E004065D
:102B0000060601006080E090906004060606010061
:102B1000F01010204040040606060100609060900E
:102B20009060040606060100609090701060020537
:102B300005060200C0C000C0C00207070602FEC0B2
:102B4000C000C04040800505050600001860806098
:102B500018050303060001F800F805050506000046
:102B6000C0300830C00407070601006090106040C4
:102B700000400506060600007090A8B080700506AB
:102B800006060000205088F8888805060606000022
:102B9000F088F08888F004060606010060908080C6
:102BA0009060040606060100E090909090E0040614
:102BB00006060100F080E08080F0040606060100B1
:102BC000F080E0808080040606060100609080B0FE
:102BD00090600406060601009090F0909090030625
:102BE00006060100E040404040E005060606000001
:102BF00038101010906004060606010090A0C0A0D6
:102C000090900406060601008080808080F0050612
:102C10000606000088D8A8A88888040606060100D1
:102C200090D0B090909005060606000070888888C5
:102C30008870040606060100E09090E0808004079A
:102C4000070601FF609090D0B060100406060601F0
:102C500000E09090E090900406060601006090402D
:102C6000209060050606060000F8202020202004A1
:102C700006060601009090909090600406060601FA
:102C800000909090F060600506060600008888A815
:102C9000A8D8880506060600008850202050880520
:102CA000060606000088885020202004060606013B
:102CB00000F010204080F0030606060100E080804E
:102CC0008080E0040606060100808040201010038A
:102CD0000606060100E020202020E0050303060090
:102CE000032050880501010600FEF80202020602D8
:102CF00004804004040406010070909070040606ED
:102D00000601008080E09090E00404040601007059
:102D10008080700406060601001010709090700408
:102D2000040406010060B0C070040606060100201D
:102D30005040E040400406060601FE60909070108E
:102D4000600406060601008080E09090900306066D
:102D50000601004000C04040E00308080601FE20D4
:102D60000060202020A0400406060601008080A00C
:102D7000C0A090030606060100C040404040E005A8
:102D80000404060000D0A8A888040404060100E09A
:102D90009090900404040601006090906004060680
:102DA0000601FEE09090E080800406060601FE70B9
:102DB0009090701010040404060100A0D0808004DC
:102DC000040406010070C030E0040606060100405D
:102DD00040E04050200404040601009090907004EC
:102DE0000404060100909060600504040600008859
:102DF000A8A8500404040601009060609004060630
:102E00000601FE909090709060040404060100F0AA
:102E10002040F0030707060100204040804040208A
:102E20000107070602FF80808080808080030707FB
:102E30000601008040402040408004020206010359
:102E400050A0FFFFFFFFFFFFFFFFFFFFFFFFFFFFA0
:102E5000FFFFFFFFFFFFFFFFFFFFFFFFFFFFFFFF82
:102E6000FFFFFF00000006000701060606020080C3
:102E700000808080800406060601FF2070A0A070FC
:102E8000200507070600FF304840F04040F80505E0
:102E900005060000A8508850A80506060600008810
:102EA00050F820F8200107070602FF80808000808C
:102EB00080800407070601FF708060906010E003C7
:102EC0000101060105A0060707060000788494A406
:102ED00094847803050506010160A06000E0050503
:102EE000050600002850A05028040303060100F046
:102EF0001010040101060102F00607070600007821
:102F000084B4A4A48478040101060105F004030339
:102F10000601026090600507070600FF2020F820E8
:102F20002000F803050506010140A02040E003054C
:102F300005060101C0204020C00202020602044032
:102F4000800405050601FF9090B0D08005060606B6
:102F5000000078E8E86828280101010602028002E2
:102F600002020602FE408003050506010140C04042
:102F700040E003050506010140A04000E00505050D
:102F8000060000A0502850A00508080600FF40C019
:102F90004050703078100508080600FF40C04050CF
:102FA000680810380508080600FFC0204030F030DF
:102FB000781004070706010020002060809060055B
:102FC0000707060000402020507088880507070684
:102FD0000000102020507088880507070600002098
:102FE00050205070888805070706000028502050A0
:102FF00070888805070706000050002050708888F8
:103000000507070600002050205070888805060636
:1030100006000078A0F0A0A0B80408080601FE6031
:10302000908080906020400407070601004020F057
:1030300080E080F00407070601002040F080E08077
:10304000F00407070601002050F080E080F004073C
:10305000070601005000F080E080F003070706013A
:10306000008040E0404040E00307070601002040A8
:10307000E0404040E003070706010040A0E0404078
:1030800040E0030707060100A000E0404040E005E3
:1030900006060600007048E8484870040707060165
:1030A0000050A090D0B09090040707060100402087
:1030B00060909090600407070601002040609090A7
:1030C0009060040707060100205060909090600413
:1030D000070706010050A060909090600407070663
:1030E0000100500060909090600505050600008882
:1030F000502050880408080601FF1070B0B0D0D0EE
:10310000E080040707060100402090909090600442
:103110000707060100204090909090600407070682
:103120000100205090909090600407070601005025
:1031300000909090906005070706000010208850CE
:1031400020202004060606010080E09090E0800424
:1031500006060601006090A0A090A00407070601E3
:103160000040200070909070040707060100204086
:1031700000709090700407070601002050007090C6
:10318000907004070706010050A000709090700432
:1031900006060601005000709090700407070601B3
:1031A000002050207090907005040406000070A864
:1031B000B0780406060601FE708080702040040787
:1031C0000706010040200060B0C070040707060138
:1031D0000020400060B0C0700407070601002050C6
:1031E0000060B0C070040606060100500060B0C068
:1031F00070030707060100804000C04040E003075D
:1032000007060100204000C04040E0030707060118
:103210000040A000C04040E0030606060100A000F8
:10322000C04040E004070706010030601070909035
:103230006004070706010050A000E090909004078A
:103240000706010040200060909060040707060117
:1032500000204000609090600407070601002050A5
:10326000006090906004070706010050A000609085
:10327000906004060606010050006090906005050D
:10328000050600002000F800200404040601007078
:10329000B0D0E00407070601004020009090907035
:1032A0000407070601002040009090907004070773
:1032B0000601002050009090907004060606010060
:1032C0005000909090700409090601FE2040009083
:1032D00090907090600408080601FE8080E0909055
:1032E000E080800408080601FE50009090907090E5
:1032F00060202D20496E76616C6964206578747257
:1033000075646572206E756D626572202100100013
:10331000C90210012C014001220170011801B00105
:103320000E01F00104015002FA00B002F000300377
:10333000E600D003DC009004D2007005C800A006AF
:10334000BE000008B400B009AA00D00BA000600EB7
:10335000960060118C000015820020197800C01DB5
:103360006E00A0226400B0275A00902C500000315B
:103370004600E0343C0010383200903A2800603CAF
:103380001E00A03D1400803E0A00203F0000457250
:10339000723A204D415854454D50003A20457874BA
:1033A0007275646572207377697463686564206FF1
:1033B00066662E204D415854454D50207472696701
:1033C00067657265642021004572723A204D494E4E
:1033D00054454D50003A20457874727564657220EA
:1033E0007377697463686564206F66662E204D4943
:1033F0004E54454D5020747269676765726564204C
:1034000021004572723A204D415854454D5020429A
:1034100045440054656D706572617475726520680D
:10342000656174656420626564207377697463689C
:103430006564206F66662E204D415854454D5020DE
:10344000747269676765726564202121004B494C7D
:103450004C45442E20005072696E7465722068617C
:103460006C7465642E206B696C6C28292063616C18
:103470006C6564210053544F505045442E20005039
:1034800072696E7465722073746F70706564206405
:10349000756520746F206572726F72732E20466995
:1034A0007820746865206572726F7220616E642086
:1034B000757365204D39393920746F2072657374C6
:1034C0006172742E202854656D7065726174757216
:1034D000652069732072657365742E2053657420AE
:1034E00069742061667465722072657374617274A8
:1034F000696E672900000048430000484300004807
:103500004300000000000000000000000000000078
:103510000000000000000000000000A0400000A02B
:1035200040000000400000484300004843000048BD
:1035300043FFFFFF2200656E717565696E6720228B
:103540000024F4D43050C38E20C2A24017828B7066
:1035500011127A910D816CD90AA861E108C75866E9
:1035600007615143061E4B5D05C145A7041A411171
:1035700004093D9803713931034036DB026533910C
:1035800002D4305402802E1D02632CEE01752AC530
:1035900001B028A001102781018F2564012B244B45
:1035A00001E0223401AC211F018D200D01801FFCA0
:1035B00000841EED00971DDF00B81CD200E61BC67C
:1035C00000201BBC00641AB200B219A8000A19A09E
:1035D000006A189900D117910040178B00B5168426
:1035E0000031167E00B31579003A157300C7146FC9
:1035F0000058146A00EE1366008813630025135EFA
:1036000000C7125B006C12570015125400C1115113
:103610000070114F0021114B00D61049008D10474A
:10362000004610440002104200C00F4000800F3ED0
:1036300000420F3C00060F3B00CB0E3800930E37C4
:10364000005C0E3500270E3400F30D3200C10D3141
:1036500000900D3000600D2E00320D2D00050D2C58
:1036600000D90C2B00AE0C2900850C29005C0C271E
:1036700000350C27000E0C2600E80B2400C40B2498
:1036800000A00B23007D0B23005A0B2100390B21D6
:1036900000180B2000F80A1F00D90A1E00BB0A1EE2
:1036A000009D0A1D00800A1D00630A1C00470A1BBA
:1036B000002C0A1B00110A1A00F7091A00DD09196B
:1036C00000C4091900AB091900920917007B0918F9
:1036D00000630917004C0916003609160020091668
:1036E000000A091500F5081500E0081400CC0814BC
:1036F00000B8081400A4081400900813007D0812F4
:10370000006B081300580812004608120034081114
:1037100000230811001208110001081100F0071021
:1037200000E0071000D0071000C0071000B0070F1E
:1037300000A107100091070E0083070F0074070F08
:103740000065070E0057070E0049070E003B070DE6
:10375000002E070E0020070D0013070D0006070DB1
:1037600000F9060C00ED060D00E0060C00D4060C76
:1037700000C8060C00BC060C00B0060C00A4060B2A
:103780000099060C008D060B0082060B0077060BD5
:10379000006C060B0061060A0057060B004C060A77
:1037A0000042060A0038060A002E060A0024060A0D
:1037B000001A060A001006090007060A00FD05099E
:1037C00000F4050900EB050900E2050900D9050927
:1037D00000D0050900C7050900BE050900B50508A8
:1037E00000AD050800A50509009C05080094050822
:1037F000008C050800840508007C05080074050895
:10380000006C050700650508005D05070056050802
:10381000004E05070047050700400508003805076A
:1038200000310507002A050700230507001C0506CF
:1038300000160507000F050700080506000205072A
:1038400000FB040600F5040700EE040600E8040689
:1038500000E2040700DB040600D5040600CF0406DE
:1038600000C9040600C3040600BD040600B7040630
:1038700000B1040500AC040600A6040600A004057F
:10388000009B04060095040500900406008A0405C8
:103890000085040500800406007A0405007504050F
:1038A00000700405006B0405006604050061040552
:1038B000005C04050057040500520405004D040592
:1038C0000048040500430405003E0404003A0405D2
:1038D0000035040500300404002C0405002704040E
:1038E00000230405001E0404001A04040016040545
:1038F00000110404000D040400090405000404047C
:103900000000040400FC030400F8030400F40304B2
:1039100000F0030400EC030400E8030400E40304E3
:1039200000E0030400DC030400D8030400D4030413
:1039300000D0030400CC030400C8030300C5030344
:103940000024F404D9201BC40C5C0E9804C4095F45
:103950000265077101F405F900FB04B30048048710
:1039600000C10369005803550003034500BE023A35
:10397000008402310053022A00290225000402209B
:1039800000E4011C00C8011900AF011700980114E0
:103990000084011300710110006101100051010E3B
:1039A0000043010D0036010B002B010B0020010B21
:1039B00000150109000C01090003010800FB0008C3
:1039C00000F3000800EB000700E4000600DE00063C
:1039D00000D8000600D2000600CC000500C7000594
:1039E00000C2000500BD000400B9000400B50004D9
:1039F00000B1000400AD000400A9000400A500030C
:103A000000A20003009F0004009B00030098000335
:103A1000009500020093000300900003008D000257
:103A2000008B00030088000200860002008400036F
:103A300000810002007F0002007D0002007B000286
:103A40000079000200770001007600020074000295
:103A50000072000100710002006F0002006D0001A1
:103A6000006C0002006A00010069000200670001AA
:103A700000660001006500010064000200620001B0
:103A80000061000100600001005F0002005D0001B4
:103A9000005C0001005B0001005A000100590001B8
:103AA00000580001005700010056000100550001B8
:103AB00000540001005300000053000100520001B7
:103AC0000051000100500001004F0001004E0000B5
:103AD000004E0001004D0001004C0001004B0000B1
:103AE000004B0001004A00010049000100480000AD
:103AF00000480001004700010046000000460001A8
:103B000000450000004500010044000100430000A2
:103B1000004300010042000000420001004100009B
:103B20000041000100400001003F0000003F000193
:103B3000003E0000003E0001003D0000003D00018D
:103B4000003C0000003C0000003C0001003B000085
:103B5000003B0001003A0000003A0001003900007B
:103B60000039000100380000003800000038000172
:103B7000003700000037000100360000003600006A
:103B8000003600010035000000350000003500015E
:103B90000034000000340000003400010033000055
:103BA000003300000033000100320000003200004A
:103BB000003200010031000000310000003100013E
:103BC000003000000030000000300001002F000035
:103BD000002F0000002F0000002F0001002E000029
:103BE000002E0000002E0001002D0000002D00001E
:103BF000002D0000002D0001002C0000002C000012
:103C0000002C0000002C0001002B0000002B000005
:103C1000002B0000002B0001002A0000002A0000F9
:103C2000002A0000002A00010029000000290000ED
:103C300000290000002900000029000100280000E0
:103C400000280000002800000028000000280001D3
:103C500000270000002700000027000000270000C8
:103C600000270001002600000026000000260000BA
:103C700000260000002600010025000000250000AD
:103C8000002500000025000000250000002500019F
:103C90000024000000240000002400000024000094
:103CA0000024000100230000002300000023000086
:103CB0000023000000230000002300000023000177
:103CC000002200000022000000220000002200006C
:103CD000002200000022000100210000002100005D
:103CE0000021000000210000002100000021000050
:103CF0000021000100200000002000000020000042
:103D00000020000000200000002000000020000033
:103D100000200001001F0000001F0000001F000025
:103D2000001F0000001F0000001F0000001F000116
:103D3000001E0000001E0000001E0000001E00000B
:103D40000000060900FE070199032B20FFFE08FE74
:103D500007FE000000060000010707060200808041
:103D60008080800080030303060104A0A0A0050753
:103D7000070600005050F850F8505005070706009D
:103D8000002070A07028702005070706000048A8D2
:103D9000502050A89005070706000040A0A040A8AA
:103DA0009068010303060204808080030707060170
:103DB00000204080808040200307070601008040EB
:103DC00020202040800505050600018850F8508815
:103DD0000505050600012020F82020030303060145
:103DE000FF604080050101060003F803030306019C
:103DF000FF40E0400507070600000808102040804B
:103E00008005070706000020508888885020050795
:103E1000070600002060A0202020F8050707060004
:103E200000708808304080F8050707060000F80891
:103E3000103008887005070706000010305090F811
:103E40001010050707060000F880B0C80888700544
:103E50000707060000304080B0C8887005070706D5
:103E60000000F80810102040400507070600007009
:103E70008888708888700507070600007088986831
:103E80000810600307070601FF40E0400040E040E3
:103E90000307070601FF40E0400060408004070779
:103EA0000601001020408040201005030306000298
:103EB000F800F80407070601008040201020408029
:103EC000050707060000708810202000200507075E
:103ED000060000708898A8B08070050707060000EB
:103EE00020508888F88888050707060000F04848B1
:103EF000704848F0050707060000708880808088B9
:103F000070050707060000F04848484848F00507D4
:103F100007060000F88080F08080F805070706009B
:103F200000F88080F0808080050707060000708818
:103F30008080988870050707060000888888F888C0
:103F40008888030707060100E04040404040E00544
:103F500007070600003810101010906005070706CC
:103F600000008890A0C0A090880507070600008088
:103F70008080808080F80507070600008888D8A820
:103F80008888880507070600008888C8A898888858
:103F9000050707060000708888888888700507076D
:103FA000060000F08888F08080800508080600FF81
:103FB0007088888888A87008050707060000F088C0
:103FC00088F0A090880507070600007088807008B8
:103FD0008870050707060000F82020202020200513
:103FE0000707060000888888888888700507070604
:103FF0000000888888505050200507070600008878
:104000008888A8A8D8880507070600008888502057
:104010005088880507070600008888502020202047
:10402000050707060000F80810204080F80307077E
:10403000060100E08080808080E005070706000020
:1040400080804020100808030707060100E02020B8
:10405000202020E00503030600042050880501010C
:104060000600FFF80202020602068040050505066A
:10407000000070087888780507070600008080B087
:10408000C888C8B0050505060000708880887005DE
:10409000070706000008086898889868050505065F
:1040A00000007088F880700507070600003048405F
:1040B000F04040400507070600FE788888780888A9
:1040C000700507070600008080B0C888888803074D
:1040D000070601004000C0404040E0040909060115
:1040E000FE100030101010909060050707060000C9
:1040F00080808890E09088030707060100C0404058
:10410000404040E0050505060000D0A8A8A88805A5
:104110000505060000B0C88888880505050600006A
:1041200070888888700507070600FEB0C888C8B088
:1041300080800507070600FE6898889868080805CB
:104140000505060000B0C880808005050506000052
:1041500070807008F00507070600004040F04040FE
:10416000483005050506000088888898680505051B
:104170000600008888505020050505060000888844
:10418000A8A850050505060000885020508805079E
:10419000070600FE888898680888700505050600EF
:1041A00000F8102040F8040707060100304020C046
:1041B00020403001070706020080808080808080D8
:1041C000040707060100C02040304020C00503035B
:1041D00006000448A8900000000100000000000153
:1041E00000000000000100000000000100000000CD
:1041F00000010000000000010000000000010000BC
:1042000000000001000000000001000000000001AB
:10421000000000000001000000000001000000009C
:10422000000100000000000100000000000100008B
:10423000000000010000000000010000000000017B
:10424000000000000001000000000001000000006C
:10425000000100000000000100000000000100005B
:10426000000000010000000000010000000000014B
:10427000000000000001000000000001000000003C
:10428000000100000000000100000000000100002B
:104290000000000100000000000100000000000616
:1042A00000000107070602008000808080808005F2
:1042B00007070600FF2078A0A0A0782005070706C2
:1042C0000000304840E04048B00505050600008881
:1042D000705070880508080600FF88885020F82074
:1042E0002020010707060200808080008080800572
:1042F00008080600FF7080E090483808700301014C
:10430000060107A00507070600007088A8C8A8884E
:10431000700406060601017090B05000F006050515
:104320000600002448904824040202060102F0100E
:10433000040101060103F00507070600007088E884
:10434000C8C88870050101060007F80303030601C9
:104350000440A0400506060600002020F82020F8B2
:1043600004050506010360902040F00405050601E0
:1043700003E0106010E0020202060206408005061B
:10438000060600FF888888C8B08005070706000079
:1043900078E8E86828282801010106020380020263
:1043A000020602FE408003050506010340C04040AE
:1043B000E00406060601016090906000F006050525
:1043C00006000090482448900609090600FF40C0F6
:1043D0004040E40C143C040609090600FF40C040BC
:1043E00040E81404081C0509090600FFC02040200D
:1043F000C81828780805070706000020002020407C
:1044000088700508080600004020708888F88888B1
:104410000508080600001020708888F888880508BC
:10442000080600002050708888F88888050808066B
:10443000000048B0708888F88888050808060000E1
:104440005000708888F88888050808060000205009
:10445000708888F888880607070600003C50909C02
:10446000F0909C0509090600FE70888080808870A5
:10447000204005080806000040F88080F08080F8A1
:1044800005080806000010F88080F08080F8050814
:104490000806000020F88080F08080F805080806F3
:1044A000000050F88080F08080F8030808060100C2
:1044B0008040E040404040E0030808060100204002
:1044C000E040404040E003080806010040A0E04012
:1044D000404040E0030808060100A000E0404040E2
:1044E00040E0050707060000F04848E84848F005A6
:1044F0000808060000285088C8A898888805080879
:10450000060000402070888888887005080806002A
:104510000010207088888888700508080600002030
:104520005070888888887005080806000028507038
:104530008888888870050808060000500070888800
:1045400088887005050506000088502050880507FA
:1045500007060000709898A8C8C8700508080600EB
:1045600000402088888888887005080806000010A8
:104570002088888888887005080806000020500078
:104580008888888870050808060000500088888898
:1045900088887005080806000010208888502020B0
:1045A0002005070706000080F088F080808005075E
:1045B00007060000708890A09088B00508080600E3
:1045C0000040200070087888780508080600001070
:1045D0002000700878887805080806000020500040
:1045E00070087888780508080600002850007008D0
:1045F00078887805070706000050007008788878EA
:104600000508080600002050207008788878060504
:104610000506000078147C907C0507070600FE70F4
:10462000888088702040050808060000402000703F
:1046300088F880700508080600001020007088F8CF
:1046400080700508080600002050007088F880700F
:1046500005070706000050007088F88070030808FE
:10466000060100804000C0404040E0030808060109
:1046700000408000C0404040E003080806010040C0
:10468000A000C0404040E0060A0A0600FEA4A800C0
:10469000FC8480808084FC060A0A0600FE54940094
:1046A000FC8404040484FC0508080600002850006B
:1046B000B0C8888888050808060000402000708877
:1046C000888870040A0A0602FE304080909090901C
:1046D000909090040A0A0600FEC0201090909090DE
:1046E000909090060707060001448C8C8480403C23
:1046F00006070706000188C4C4840408F005050500
:104700000600012000F8002005080806000040F01F
:10471000C88888987810050808060000E0F888889E
:10472000888888F80505050600012030F830200546
:1047300008080600002070F820202020E005090964
:104740000600FF2070A8A8B888885020050909062F
:1047500000FFE080C0B0A8A830282805090906009D
:10476000FFF8A88888888888A8F8050A0A0600FE45
:10477000205050505088A8A88870436172642072FD
:10478000656D6F766564004361726420696E736560
:1047900072746564007C3C3E5E2B3D3F2F5B5D3B4D
:1047A0002C2A225C0046696C2E204469612E20313F
:1047B0000046696C2E204469612E2031004F6666E8
:1047C000004F6E20004F6666004F6E200045206946
:1047D0006E206D6D3300436F6E74726F6C004C43CE
:1047E0004420636F6E7472617374004D3234004DF7
:1047F000323320257300F92E2E004D61696E004280
:104800006162797374657070696E672058004261E7
:1048100062797374657070696E67205900426162D5
:10482000797374657070696E67205A004D36303048
:10483000004368616E67652066696C616D656E74C2
:10484000004261627973746570205A004261627936
:1048500073746570205900426162797374657020C9
:104860005800466C6F77203000466C6F7720300020
:10487000466C6F7700466C6F770046616E207370F0
:104880006565640046616E2073706565640042650D
:104890006400426564004E6F7A7A6C65004E6F7AF0
:1048A0007A6C6500537065656400537065656400DB
:1048B0004D61696E00526573656E643A20006F6BDE
:1048C0000000002100240027002A002D00300033C2
:1048D0000001010000040107010A014E414E494E4A
:1048E000495459494E46CDCCCC3D0AD7233C17B745
:1048F000D13877CC2B329595E6241FB14F0A0000B2
:1049000020410000C84200401C4620BCBE4CCA1BCF
:104910000E5AAEC59D74FCDDC1E311241FBECFEF5E
:10492000D1E2DEBFCDBF00E00CBF14E0A0E0B2E0FA
:10493000E8EAFFED01E00BBF02C007900D92A03E38
:10494000B107D9F724E1A0EEB4E001C01D92A83E62
:10495000B207E1F714E2CCE8D4E200E006C0219708
:104960000109802FFE010E9415E4CB38D10780E0B9
:104970000807A9F70E948DDE0C94C2EF0C9400008A
:104980002F923F924F925F926F927F928F929F925F
:10499000AF92BF92CF92DF92EF92FF920F931F934D
:1049A000CF93DF93CDB7DEB7CB56D1090FB6F894CE
:1049B000DEBF0FBECDBF87E40E94EE44F82E8823F1
:1049C00009F4C9C20E9414450E94A6E5643071052D
:1049D00009F4F4C054F46230710509F4D7C00CF046
:1049E000E1C077FF17C00C94AB406A35710509F43C
:1049F00061C234F46C31710509F427C10C94AB40E9
:104A00006B35710509F45AC26C35710509F45BC246
:104A10000C94AB408091960E81110C94AB400E9497
:104A2000CAD98FEE9EE00E949DD50E9492DC6093D1
:104A3000D60E7093D70E8093D80E9093D90E2091F6
:104A4000EF0E3091F00E4091F10E5091F20E609108
:104A500065077091660780916707909168070E94CB
:104A600050EC811174C02091F30E3091F40E4091FE
:104A7000F50E5091F60E6091690770916A0780916A
:104A80006B0790916C070E9450EC811160C020E090
:104A900030E040E752E460916502709166028091D7
:104AA0006702909168020E9434E52FE2C22E25E051
:104AB000D22E7B018C012BEF3EE047EF5EE063EFEF
:104AC0007EE08FEE9EE00E946A528091EF0E909100
:104AD000F00EA091F10EB091F20E809365079093C5
:104AE0006607A0936707B09368078091F30E9091D3
:104AF000F40EA091F50EB091F60E80936907909395
:104B00006A07A0936B07B0936C078091F70E9091A2
:104B1000F80EA091F90EB091FA0E80936D07909364
:104B20006E07A0936F07B09370078091FB0E909172
:104B3000FC0EA091FD0EB091FE0E80937107909334
:104B40007207A0937307B09374070C94AB40609105
:104B5000750270917602072E000C880B990B0E944B
:104B600057EC2091650230916602409167025091A6
:104B700068020E946EE820E030E040E752E40E94C4
:104B800034E520E030E048EC52E48DCF8091960E81
:104B900081110C94AB400E944FDA81E00E9436D61E
:104BA0000C94AB408091960E81110C94AB400E9406
:104BB0004FDA80E00E9436D60C94AB408BED96E045
:104BC0000E94B4BD80E50E94EE44882339F00E9423
:104BD00014450E94ADE56B017C0103C0C12CD12CB2
:104BE000760183E50E94EE44882361F00E9414451B
:104BF00020E030E04AE754E40E946EE80E94ADE510
:104C00006B017C010E94D2B10E9492DCC60ED71EBD
:104C1000E81EF91E0E9492DC6093D60E7093D70EA8
:104C20008093D80E9093D90E0E9492DC6C157D056E
:104C30008E059F0510F00C94AB400E94F1A680E019
:104C40000E94F8AE0E94EBBDEFCF8091650290917B
:104C50006602A0916702B09168028093100590935C
:104C60001105A0931205B0931305809175029091E0
:104C7000760290930F0580930E0584E690E0909362
:104C80007602809375020E9492DC6093D60E709338
:104C9000D70E8093D80E9093D90E11E010932F0267
:104CA0008091650790916607A0916707B0916807AA
:104CB0008093EF0E9093F00EA093F10EB093F20E4E
:104CC0008091690790916A07A0916B07B0916C077A
:104CD0008093F30E9093F40EA093F50EB093F60E1E
:104CE00080916D0790916E07A0916F07B09170074A
:104CF0008093F70E9093F80EA093F90EB093FA0EEE
:104D00008091710790917207A0917307B091740719
:104D10008093FB0E9093FC0EA093FD0EB093FE0EBD
:104D20001092650210926602109267021092680259
:104D300088E50E94EE44882311F080E009C089E5EF
:104D40000E94EE448111F9CF8AE50E94EE4481274A
:104D50008093010281110C94AE4088E50E94EE44DC
:104D600081110C94AE408091010281110C94B440E9
:104D700089E50E94EE4481110C94B44088E50E94BC
:104D8000EE448823D1F00E940945672B682B692BDC
:104D9000A1F00E94144520917C0C30917D0C409133
:104DA0007E0C50917F0C0E943AE4609365077093EB
:104DB0006607809367079093680789E50E94EE4431
:104DC0008823D1F00E940945672B682B692BA1F03D
:104DD0000E9414452091800C3091810C4091820CEE
:104DE0005091830C0E943AE46093690770936A07BC
:104DF00080936B0790936C078091010281110C9452
:104E0000BA408AE50E94EE4481110C94BA408AE5CA
:104E10000E94EE448823D1F00E940945672B682B3D
:104E2000692BA1F00E9414452091840C3091850CCF
:104E30004091860C5091870C0E943AE460936D0774
:104E400070936E0780936F07909370074DE657E05D
:104E500069E677E085E697E00E94CC7210922F0217
:104E60008091100590911105A0911205B091130544
:104E70008093650290936602A0936702B0936802E4
:104E800080910E0590910F059093760280937502A4
:104E90000E9492DC6093D60E7093D70E8093D80E4A
:104EA0009093D90E1092AA0A1092A90A1092A80AF9
:104EB0000C94AB401092C8140C94AB4081E08093EA
:104EC000C8140C94AB4085E40E94EE44811102C0EA
:104ED0000E94D2B1B5E2AB2EB3E0BB2E15E6E12EB7
:104EE00017E0F12E0CE7C02E0CE0D02E10E0D5011B
:104EF0008D915D010E94EE44882311F1133051F42D
:104F00000E941445F70160837183828393830E941A
:104F10006A6A16C00E941445D6012D913D914D91AB
:104F20005C910E943AE4F7016083718382839383EA
:104F30004DE657E069E677E085E697E00E94CC729F
:104F40001F5FF4E0EF0EF11C24E0C20ED11C143000
:104F500071F60C94AB408DE40E94EE44882311F46A
:104F60000C94DC3F0E9414450E94A6E5623771054F
:104F700011F40C9406320CF096C06F31710509F4EF
:104F800045C5ACF56631710509F44CC2C4F4613114
:104F9000710509F4DDC134F46230710508F435C1DE
:104FA0000C94AB406431710509F4E3C10CF036C2D6
:104FB0006231710511F40C9419310C94AB406A31D3
:104FC000710509F468C23CF46831710509F446C200
:104FD0000CF42EC256C26C31710509F4BEC20CF439
:104FE00068C26E31710509F4EAC20C94AB406535B4
:104FF000710511F40C9451310CF56135710511F402
:105000000C94F7307CF46A32710509F487C5603579
:10501000710511F40C94EA306032710511F00C94B2
:10502000AB4055C46335710511F40C94143114F080
:105030000C9419311092CC140C94AB406A36710563
:1050400011F40C94BA30E4F46836710509F4ADC576
:105050000CF0DEC56C35710511F00C94AB40F5E237
:105060008F2EF3E09F2E09E917E0ACE5AA2EACE005
:10507000BA2E2FE03FE03CAF2BAF312C0C94D33154
:105080006D36710509F4B1C66037710509F4ADC517
:105090006B36710511F00C94AB4010922F0C1092EE
:1050A0002E0C0C94AB406D3D710511F40C944935F8
:1050B0000CF04AC06E3B710509F457C7FCF4673722
:1050C000710509F49EC064F46337710511F40C9402
:1050D000E3316537710511F40C94F2310C94AB4057
:1050E0006937710511F40C94E83214F40C94E4322D
:1050F0006C38710509F47BC50C94AB406C3C7105B0
:1051000011F40C9497348CF4693C710511F40C94EF
:1051100055346B3C710511F40C947834683C71057E
:1051200011F00C94AB400C94E1336E3C710511F41A
:105130000C94193514F40C94B9346C3D710511F4C8
:105140000C9438350C94AB40643F31E0730711F494
:105150000C94D33C5CF56D3251E0750711F40C945E
:10516000843894F46A3F710511F40C944A396C3216
:1051700091E0790711F40C94D335623E710511F07A
:105180000C94AB400C9473356F32A1E07A0711F4A4
:105190000C948A3914F40C9476396039714011F00A
:1051A0000C94AB400E94D2B10C94AB406835F2E055
:1051B0007F0711F40C94AC3D94F4663F31E0730723
:1051C00011F40C94D93C14F40C94D63C673F714014
:1051D00011F00C94AB400E94984B0C94AB40603A99
:1051E00083E0780709F4DDC3673E93E0790711F4A3
:1051F0000C94C53F6335734011F00C94AB400C9494
:10520000DC3CE8E3F3E00C94F332E091E804F09145
:10521000E9048F010E5F1F4F80E50E94EE44882352
:1052200071F00E9414450E94ADE56B017C01AA2437
:10523000A394672B682B692B31F4A12C04C0A12CFB
:10524000C12CD12C760183E50E94EE44882391F095
:105250000E94144520E030E04AE754E40E946EE8E2
:105260000E94ADE56B017C01BB24B394672B682BD6
:10527000692B09F4B12C6AE270E0C8010E9432E89F
:10528000009711F0FC011082F801CF01219120322A
:10529000E1F3A11007C0B11005C0222319F00E944C
:1052A000D9BD04C08AEC96E00E94B4BD81E00E94A2
:1052B000E6BD0E94D2B10E9492DC6093D60E70933C
:1052C000D70E8093D80E9093D90EC114D104E10467
:1052D000F104C9F00E9492DCC60ED71EE81EF91E2A
:1052E0000E9492DC6C157D058E059F05F0F40E94EE
:1052F00025BD81111AC00E94F1A680E00E94F8AE7F
:105300000E94EBBDEDCF0E942BBD882311F40C94BD
:10531000AB400E9425BD81110BC00E94F1A680E028
:105320000E94F8AE0E94EBBDF4CF80E00E94E6BD83
:105330008091EA07882331F08BEB96E00E94B4BDA0
:105340000C94AB408CEA96E00E94B4BD0C94AB4048
:1053500083EA96E00E94B4BD5F988A989FB7F8945C
:10536000809108018E7F809308019FBF12980C9452
:10537000AB40E3E9F6E08491882341F09091C000CE
:1053800095FFFCCF8093C6003196F5CF8091C00089
:1053900085FFFCCF8AE08093C6001092710A1092BC
:1053A000700A40E050E0BA018BE198E00E94E8C347
:1053B0008BE1EBE1F8E0DE01159601900D928A9504
:1053C000E1F78091190890911A089C838B8389EFEB
:1053D00092E09A83898340E050E0BE016F5F7F4F87
:1053E0008FED94E00E94CD64CE0101960E94DBAD6A
:1053F000E5E8F6E08491882341F09091C00095FFA4
:10540000FCCF8093C6003196F5CF8091C00085FF18
:10541000FCCF8AE08093C6000C94AB400E94447499
:105420000C94AB401092EA071092EB070C94AB403F
:105430000091E8041091E9040C5F1F4F6AE270E0EC
:10544000C8010E9432E8009711F0DC011C9241E093
:1054500061E0C8010E94B2660C94AB408091EB07FA
:10546000882319F081E08093EA070E9492DC609320
:10547000900C7093910C8093920C9093930C0C94DD
:10548000AB408091EA07882311F40C94AB40109252
:10549000EA070C94AB408091EB07882311F40C943D
:1054A000AB4083E50E94EE4481110C94C0400C9403
:1054B000AB408091EB07882309F439C0E8E0F3E0C2
:1054C0008491882341F09091C00095FFFCCF809398
:1054D000C6003196F5CF60916B0A70916C0A80918D
:1054E0006D0A90916E0A4AE00E94A971E6E0F3E02D
:1054F0008491882341F09091C00095FFFCCF809368
:10550000C6003196F5CF6091630A7091640A80916C
:10551000650A9091660A4AE00E94A9718091C000D4
:1055200085FFFCCF8AE08093C6000C94AB40EAE193
:10553000F3E08491882341F09091C00095FFFCCF67
:105540008093C6003196F5CF8091C00085FFFCCFD7
:105550008AE08093C6000C94AB408091E80490915F
:10556000E9046AE270E004960E9432E88C01892B1B
:10557000D9F020912B0C30912C0C40E6429FC001B9
:10558000439F900D11246EE470E08555954F0E9465
:1055900032E860E270E00E9432E801969093E904FC
:1055A0008093E804F80110828091E8049091E90466
:1055B00041E060E004960E94B2660C94AB4080919A
:1055C000EB07882311F40C94AB4086EB99E00E9422
:1055D000A5C386EB99E00E944CC81092E807109290
:1055E000E9078091E8049091E9046AE270E004968A
:1055F0000E9432E88C01892BD9F020912B0C30913C
:105600002C0C40E6429FC001439F900D11246EE494
:1056100070E08555954F0E9432E860E270E00E948C
:1056200032E801969093E9048093E804D8011C9233
:105630000091E8041091E9048091EB07882311F4AC
:105640000C94AB405801B4E0AB0EB11C86EB99E072
:105650000E944CC81092EA071D8218861C821B8289
:1056600089EF92E09A83898387E198E090933708E5
:1056700080933608F80184818F3209F090C06FE280
:1056800070E0C5010E9432E88C010F5F1F4FAAE055
:10569000EA2E9E012F5F3F4F49010115110509F4C4
:1056A00084C06FE270E0C8010E9432E86C0100978C
:1056B00009F47CC00817190708F078C03C01601A8B
:1056C000710AA301B801CE0180960E945BE8E0E276
:1056D000F0E0EC0FFD1FE60DF71D10828E01005E5D
:1056E0001F4FF8018191882339F09091C00095FFF8
:1056F000FCCF8093C600F6CF8091C00085FFFCCF21
:10570000E092C60060913608709137086115710506
:1057100011F06C5F7F4F21E0AE01405E5F4FCE0124
:1057200005960E9455C8811132C0E4E5F3E08491EA
:10573000882371F09091C00095FFFCCF8093C60044
:105740003196F5CF9091C00095FFFCCF8093C600B5
:10575000D8018D918D018111F5CFE2E5F3E08491BF
:10576000882341F09091C00095FFFCCF8093C60044
:105770003196F5CF8091C00085FFFCCF8AE0809301
:10578000C600CE0101960E94DBAD0C94AB40909216
:1057900037088092360886010F5F1F4F7ECF88E35F
:1057A00098E0909337088093360885016091360819
:1057B000709137086115710511F06C5F7F4F18A269
:1057C0001BA222E0A801CE0180960E9455C8882322
:1057D000F1F0CE0180960E943B648823C1F06CA555
:1057E0007DA58EA59FA541E00E94BD5E882379F02E
:1057F000E8A9B0E2EB9FF0011124E65BFA4F309785
:1058000031F085EE80831BA20E947D5EF82ECE01D2
:1058100080960E94EC49FF2041F1E4E4F3E084919A
:10582000882341F09091C00095FFFCCF8093C60083
:105830003196F5CFF8018191882339F09091C0001D
:1058400095FFFCCF8093C600F6CF8091C00085FF06
:10585000FCCF8AE08093C60010926B0A10926C0A0B
:1058600010926D0A10926E0A2CC0ECE2F3E0849163
:10587000882341F09091C00095FFFCCF8093C60033
:105880003196F5CFF8018191882339F09091C000CD
:1058900095FFFCCF8093C600F6CFEAE2F3E0849157
:1058A000882341F09091C00095FFFCCF8093C60003
:1058B0003196F5CF8091C00085FFFCCF8AE08093C0
:1058C000C600CE0101960E94DBAD0C94AB408091E6
:1058D000EA0781110E94D2B10091E8041091E90415
:1058E0000C5F1F4F6AE270E0C8010E9432E87C0141
:1058F00061E270E0C8010E9432E8009719F08C0163
:105900000F5F1F4FE114F10411F0F701108280E5E1
:105910000E94EE44F82E8091E8049091E904081763
:10592000190708F4F12C8091EB07882311F40C94EB
:10593000AB4041E04F2561E0C8010E94B26683E5BB
:105940000E94EE448823B9F08091E8049091E90424
:105950008017910780F40E940945AB01BC01409378
:105960006B0A50936C0A60936D0A70936E0A86EB13
:1059700099E00E94E8C38091EB07882319F081E049
:105980008093EA07F1100C94AB400E9492DC609384
:10599000900C7093910C8093920C9093930C0C94B8
:1059A000AB408091E8049091E9046AE270E00596CA
:1059B0000E9432E88C01892BD9F020912B0C309178
:1059C0002C0C40E6429FC001439F900D11246EE4D1
:1059D00070E08555954F0E9432E860E270E00E94C9
:1059E00032E801969093E9048093E804D8011C9270
:1059F0008091E8049091E90421E02093E90741E0D7
:105A000060E005960E94B2660C94AB400E9492DC66
:105A10006093E4047093E5048093E6049093E704B4
:105A20000091900C1091910C2091920C3091930C5C
:105A3000601B710B820B930B28EE33E040E050E0CB
:105A40000E9486EFCA01B9012CE330E040E050E04B
:105A50000E9486EF7F936F933F932F9386E796E0A4
:105A60009F938F938E010F5F1F4F1F930F930E9481
:105A700020ECE4E1FDE094910FB6F894DEBF0FBE98
:105A8000CDBFE4E1FDE0992349F08091C00085FF9E
:105A9000FCCF9093C60031969491F5CFF801819197
:105AA000882339F09091C00095FFFCCF8093C60009
:105AB000F6CF8091C00085FFFCCF8AE08093C600BE
:105AC000C8010E94D9BD80912D0C882311F40C943B
:105AD000AB4010922D0C00912F0510E0000F111F0C
