:100000000C94B9250C94EA250C94EA250C94EA2565
:100010000C94EA250C94EA250C94EA250C94EA2524
:100020000C94EA250C94EA250C94EA250C94EA2514
:100030000C94EA250C94A3770C94EA250C94EA25F9
:100040000C94EA250C9494AE0C94EA250C94EA25C1
:100050000C94EA250C94EA250C9455C40C94ACF944
:100060000C94EA250C94566A0C94EA250C94EA2523
:100070000C94EA250C94EA250C94EA250C94EA25C4
:100080000C94EA250C94EA250C94EA250C94EA25B4
:100090000C94EA250C94EA250C94EA250C94EA25A4
:1000A0000C94EA250C94EA250C94EA250C94EA2594
:1000B0000C94EA250C94EA250C94EA250C94EA2584
:1000C0000C94EA250C94EA250C94EA250C94EA2574
:1000D0000C94EA250C94EA250C94EA250C94EA2564
:1000E0000C94EA25B5C4C4C4E0C4EFC409C518C55E
:1000F00032C536C538C53CC544C597F69AF689F66B
:100100008DF693F6D1F69EF6A2F6A8F6ACF6B0F60A
:10011000B6F6BAF6BEF6D1F6C4F6C8F6CCF6C6F810
:10012000CBF8D0F8DAF8E4F85DF9EEF8F6F8FEF876
:1001300008F912F91CF92BF935F95DF93FF949F97C
:1001400053F9084AD73B3BCE016E84BCBFFDC12F9B
:100150003D6C74319ABD56833DDA3D00C77F11BEB8
:10016000D9E4BB4C3E916BAAAABE000000803F05BB
:10017000A84CCDB2D44EB93836A9020C50B99186EC
:1001800088083CA6AAAA2ABE000000803F000C9462
:1001900044C50C94A4BD0C94ABFA0C94BAF60C9420
:1001A000A8F60C94A2F60C9431DC0C94B6F60C94E0
:1001B00097E00C9423B70C9488890C943FF90C9425
:1001C0004F8C0C9453F90C942BF90C94C4C00C94E0
:1001D00024E90C94CCF60C94C4A60C9432770C94BD
:1001E0003CC50C94D6BC0C941CF90C947AF60C9477
:1001F000DAF80C949AF60C9408F90C94F6F80C942E
:1002000077FD0C94E8FD0C9436C50C9404830C9493
:10021000C6F80C94C0E70C949EF60C9438C50C9468
:1002200012A70C945DF90C9435F90C943DDC0C94F8
:100230005D770C94EFC40C94C4F60C94ACF60C945B
:1002400054CA0C948B8E0D94E7040C9437FB0C94D9
:1002500089F60C9432C50C94CBF80C948DF60C9462
:100260007DEE0C9408970C943BDA0D9448020C94A4
:1002700097F60C94C4C40C946B8C0C9483EE0C9481
:10028000F6F90C940FB70C949EC20C94B0F60C9433
:1002900053AD0C9412F90C9449F90C94E0C40C94ED
:1002A00018C50C9435BF0C9409C50C94EEF80C9449
:1002B00079810C94B0C30C9477EE0C94B3FF0D9439
:1002C000B60B0C94BEF60C94FEF80C9497920C941A
:1002D0005D8C0C9467BE0C94EADC0C9493F60C9441
:1002E00037DC0C94D0F80C94F8BF0C94E4F80C9420
:1002F000FBE10C94D1F60C942BDC0C94B5C40C945B
:1003000072BE0C94C8F60A00207A3A200020793A8E
:10031000200020783A2000426564000A00207A3AE2
:10032000200020793A200020783A20002F00534402
:10033000207072696E74696E67206279746520003E
:100340004E6F74205344207072696E74696E67003A
:100350002E0044656C6574696F6E206661696C651A
:10036000642C2046696C653A200046696C652064FF
:10037000656C657465643A002E006F70656E20666A
:1003800061696C65642C2046696C653A20005049AF
:1003900044204175746F74756E652066696E69736B
:1003A000686564212050757420746865206C6173E1
:1003B00074204B702C204B6920616E64204B6420AC
:1003C000636F6E7374616E74732066726F6D2061FB
:1003D000626F766520696E746F20436F6E66696721
:1003E00075726174696F6E2E6800504944204175C2
:1003F000746F74756E65206661696C656421207424
:10040000696D656F75740020403A006F6B20543A37
:10041000006F6B20423A00504944204175746F745C
:10042000756E65206661696C6564212054656D7028
:100430006572617475726520746F6F206869676892
:1004400000204B643A2000204B693A2000204B707A
:100450003A200020436C6173736963205049442043
:10046000002054753A2000204B753A2000206D6121
:10047000783A2000206D696E3A200020643A20000E
:1004800020626961733A20002200556E6B6E6F77AF
:100490006E20636F6D6D616E643A20220043686167
:1004A0006E67652066696C616D656E74005A204FD9
:1004B0006666736574203A20007A5F6D61783A2031
:1004C000007A5F6D696E3A20005A204F6666736548
:1004D00074005A204F6666736574206F6B006C63FE
:1004E0006420636F6E74726173742076616C7565DD
:1004F0003A20007A5F6D61783A20007A5F6D696E0C
:100500003A2000795F6D61783A2000795F6D696EFD
:100510003A2000785F6D61783A2000785F6D696EEF
:100520003A2000205A3A0020593A0020436F756E55
:100530007420583A200020453A00205A3A002059A9
:100540003A00583A004649524D574152455F4E4194
:100550004D453A4D61726C696E20312E302E322B32
:1005600020446576656C6F706D656E742046726FA1
:100570006D204172636869766520534F555243453B
:100580005F434F44455F55524C3A68747470733AF8
:100590002F2F6769746875622E636F6D2F4D6172BE
:1005A0006C696E4669726D776172652F4D61726C10
:1005B000696E2050524F544F434F4C5F5645525333
:1005C000494F4E3A312E30204D414348494E455F08
:1005D000545950453A444959652069332053746150
:1005E0006E646172642045585452554445525F43CD
:1005F0004F554E543A3120555549443A30303030F9
:10060000303030302D303030302D303030302D30F3
:100610003030302D303030303030303030303030DD
:100620000A0044495965206933205374616E64613E
:100630007264204F66662E00444959652069332054
:100640005374616E646172642072656164792E0016
:1006500042656420646F6E652E0020423A0020459A
:100660003A00543A004265642048656174696E67D7
:100670002E0048656174696E6720646F6E652E0098
:1006800020573A0020453A00543A004865617469A1
:100690006E672E2E2E002042403A0020403A002065
:1006A0002F003A00205400202F0020423A00202F33
:1006B000006F6B20543A000A0A005374616E646143
:1006C000726420446576696174696F6E3A20000A2D
:1006D000004D65616E3A20000A002020207A3A2001
:1006E0000000793A2000783A20003F537065636932
:1006F00066696564206E756D626572206F66206C38
:1007000065677320696E206D6F76656D656E742008
:100710006E6F7420706C61757361626C652E0A0077
:100720003F537065636966696564205920706F7313
:100730006974696F6E206F7574206F662072616EC8
:1007400067652E0A003F53706563696669656420BA
:100750005820706F736974696F6E206F7574206FA5
:10076000662072616E67652E0A003F53706563698B
:10077000666965642073616D706C652073697A6564
:10078000206E6F7420706C61757361626C652E0AE7
:100790000046756C6C20737570706F727420617494
:1007A0003A20687474703A2F2F33647072696E74D3
:1007B000626F6172642E636F6D2F666F72756D2E3E
:1007C0007068700A004D3438205A2D50726F62657F
:1007D000205265706561746162696C697479207416
:1007E0006573742E20202056657273696F6E2032F7
:1007F0002E30300A003F566572626F7365204C657B
:1008000076656C206E6F7420706C61757361626CBC
:10081000652E0A002569206D696E2C2025692073DC
:10082000656300456E642066696C65206C6973744D
:1008300000426567696E2066696C65206C69737437
:10084000004E6F206D6F76652E0044495965206912
:1008500033205374616E64617264207265616479DF
:100860002E00526573756D696E67207072696E74C3
:10087000005761697420666F7220757365722E2E41
:100880002E000A00205A3A200020593A2000205811
:100890003A20004265640020643A200020623A2039
:1008A0000045716E20636F656666696369656E7485
:1008B000733A20613A2000486F6D6520582F592007
:1008C0006265666F7265205A00486F6D6520582F0B
:1008D00059206265666F7265205A005A2070726FE7
:1008E0006265206F75742E20626564005A207072F4
:1008F0006F6265206F75742E2062656400486F6DAD
:100900006520582F59206265666F7265205A00482D
:100910006F6D6520582F59206265666F7265205A89
:1009200000536C6565702E2E2E0053657474696ECD
:1009300067732053746F726564002044002049007F
:100940002020204D33303120500050494420736521
:100950007474696E67733A00205A00205900202091
:100960004D323036205800486F6D65206F666673D3
:10097000657420286D6D293A00204500205A00201A
:10098000580020420020540020204D3230352053A2
:1009900000416476616E63656420766172696162AC
:1009A0006C65733A20533D4D696E206665656472CF
:1009B00061746520286D6D2F73292C20543D4D697D
:1009C0006E2074726176656C206665656472617410
:1009D0006520286D6D2F73292C20423D6D696E694D
:1009E0006D756D207365676D656E742074696D65D6
:1009F00020286D73292C20583D6D6178696D756DC7
:100A0000205859206A65726B20286D6D2F73292C30
:100A100020205A3D6D6178696D756D205A206A6598
:100A2000726B20286D6D2F73292C2020453D6D6140
:100A300078696D756D2045206A65726B20286D6D33
:100A40002F73290020540020204D323034205300D1
:100A5000416363656C65726174696F6E3A20533DE2
:100A6000616363656C65726174696F6E2C20543DBF
:100A70007265747261637420616363656C65726131
:100A800074696F6E00204500205A00205900202014
:100A90004D3230312058004D6178696D756D2041BF
:100AA0006363656C65726174696F6E20286D6D2F6C
:100AB0007332293A00204500205A00205900202096
:100AC0004D3230332058004D6178696D756D206668
:100AD000656564726174657320286D6D2F73293AA2
:100AE00000204500205A0020590020204D39322096
:100AF000580053746570732070657220756E697448
:100B00003A0053746F7265642073657474696E671C
:100B100073207265747269657665640048617264F9
:100B2000636F6465642044656661756C7420536509
:100B30007474696E6773204C6F6164656400220091
:100B4000656E717565696E672022004D38342058D6
:100B50002059205A204500256920686F757273203E
:100B60002569206D696E7574657300446F6E65202C
:100B70007072696E74696E672066696C65005354A3
:100B80004F505045442E20005072696E746572209B
:100B900073746F707065642064756520746F206570
:100BA00072726F72732E20466978207468652065B2
:100BB00072726F7220616E6420757365204D3939D1
:100BC0003920746F20726573746172742E202854FA
:100BD000656D7065726174757265206973207265E8
:100BE0007365742E20536574206974206166746582
:100BF000722072657374617274696E6729004E6F3A
:100C0000204C696E65204E756D626572207769743F
:100C10006820636865636B73756D2C204C61737419
:100C2000204C696E653A20004E6F20436865636B07
:100C300073756D2077697468206C696E65206E75B8
:100C40006D6265722C204C617374204C696E653A3C
:100C50002000636865636B73756D206D69736D61EA
:100C60007463682C204C617374204C696E653A2063
:100C7000004C696E65204E756D6265722069732047
:100C80006E6F74204C617374204C696E65204E75D4
:100C90006D6265722B312C204C617374204C696E2F
:100CA000653A20004D313130005344206361726455
:100CB000206F6B006F70656E526F6F742066616994
:100CC0006C656400766F6C756D652E696E69742055
:100CD0006661696C6564004572726F723A005344D4
:100CE00020696E6974206661696C006563686F3A9B
:100CF00000022020506C616E6E65724275666665FA
:100D00007242797465733A20002046726565204D01
:100D1000656D6F72793A200044656320313420326A
:100D200030313600436F6D70696C65643A2000287D
:100D3000444959452C205374616E646172642900E2
:100D4000207C20417574686F723A200044656320EE
:100D5000313420323031362030303A32393A33387B
:100D600000204C61737420557064617465643A208E
:100D70000020312E302E322B004D61726C696E00D6
:100D800020536F66747761726520526573657400D5
:100D9000205761746368646F6720526573657400DF
:100DA0002042726F776E206F757420526573657480
:100DB000002045787465726E616C205265736574AD
:100DC00000506F77657255700073746172740065BE
:100DD00072726F722077726974696E6720746F2007
:100DE00066696C6500656E6473746F707320686902
:100DF000743A205A00205A3A00656E6473746F701A
:100E000073206869743A20590020593A00656E646D
:100E100073746F7073206869743A20580020583AD0
:100E200000656E6473746F7073206869743A200093
:100E3000446F6E6520736176696E672066696C65C4
:100E40002E006F6B004D32390057726974696E67FE
:100E500020746F2066696C653A20002E006F706503
:100E60006E206661696C65642C2046696C653A2069
:100E7000002E006F70656E206661696C65642C20C1
:100E800046696C653A200046696C652073656C653F
:100E900063746564002053697A653A200046696C82
:100EA00065206F70656E65643A20002E006F706576
:100EB0006E206661696C65642C2046696C653A2019
:100EC000004E6F772066726573682066696C653ABC
:100ED00020004E6F7720646F696E672066696C65CD
:100EE0003A20002220706F73002220706172656EBC
:100EF000743A2200535542524F5554494E452043AF
:100F0000414C4C207461726765743A2200747279A6
:100F1000696E6720746F2063616C6C207375622D3D
:100F200067636F64652066696C65732077697468B0
:100F300020746F6F206D616E79206C6576656C73BF
:100F40002E204D4158206C6576656C2069733A00FF
:100F50004D3234004D3233202573006175746F2596
:100F6000692E67004D6F766520302E316D6D004D16
:100F70006F766520316D6D004D6F76652031306D77
:100F80006D005072657061726500526573746F72A6
:100F900065206661696C73616665004C6F616420F1
:100FA0006D656D6F72790053746F7265206D656D3C
:100FB0006F7279004C434420636F6E747261737476
:100FC0000046696C616D656E74004D6F74696F6E7B
:100FD0000054656D7065726174757265004D61696C
:100FE0006E00507265686561742041425320636FE2
:100FF0006E66005072656865617420504C412063D4
:101000006F6E66005049442D43005049442D430003
:101010005049442D44005049442D44005049442D2A
:1010200049005049442D49005049442D5000504931
:10103000442D5000200220466163740020022046A7
:10104000616374002002204D6178002002204D6110
:1010500078002002204D696E002002204D696E004C
:101060004F6666004F6E20004F6666004F6E200090
:101070004175746F74656D700046616E20737065A4
:1010800065640046616E2073706565640042656446
:1010900000426564004E6F7A7A6C65004E6F7A7A12
:1010A0006C6500436F6E74726F6C0001050800FF81
:1010B000060121023520FFFF07FF06FF090050222D
:1010C0001656808080800080153353A0A0A0025760
:1010D000575050F850F850500257572070A07028C1
:1010E000702013355580A040A02002475740A0A093
:1010F00040A0A05025135380808012265640808047
:1011000080804012265680404040408002455590E5
:1011100060F060900255552020F820201133536074
:101120004080044151F011335340E04002465610D4
:10113000102040808012365640A0A0A0A040123659
:101140005640C0404040E00246566090106080F03B
:10115000024656F020601090600246562060A0F0D3
:101160002020024656F080E01090600246566080D3
:10117000E0909060024656F0102020404002465613
:10118000609060909060024656609090701060127F
:101190002555C0C000C0C011365660600060408058
:1011A000123656204080804020034353F000F01256
:1011B000365680402020408012365640A020400005
:1011C00040015858304898A8A890403002465660D0
:1011D0009090F09090024656E090E09090E00246A9
:1011E00056609080809060024656E090909090E02B
:1011F000024656F080E08080F0024656F080E080A3
:101200008080024656609080B09060024656909072
:10121000F0909090123656E040404040E002465632
:1012200070202020A04002465690A0C0A0A09002AE
:1012300046568080808080F002465690F0F0909074
:101240009002465690D0F0B0B09002465660909012
:10125000909060024656E09090E080800147576091
:101260009090D0B06010024656E09090E0909002CE
:101270004656609040209060123656E04040404014
:101280004002465690909090906002465690909002
:10129000906060024656909090F0F0900246569012
:1012A0009060609090025656888850202020024618
:1012B00056F010204080F0123656E080808080E0AA
:1012C000024656808040201010123656E020202022
:1012D00020E016325240A0014151F01622528040C7
:1012E000024454709090700246568080E09090E0E6
:1012F00012345460808060024656101070909070D6
:1013000002445460B0C060024656205040E0404065
:1013100001455560907010600246568080E09090C4
:10132000901236564000C04040E011375720002050
:101330002020A040024656808090E09090123656C1
:10134000C040404040E0025454D0A8A8A8024454F1
:10135000E090909002445460909060014555E09078
:10136000E080800145557090701010024454A0D068
:10137000808012345460C020C00246564040E04095
:10138000502002445490909070123454A0A0A04079
:1013900002545488A8A850024454906060900145BB
:1013A000559090709060024454F02040F0024757EE
:1013B000304020C0204030221656808080808080BF
:1013C000024757C02040304020C006425250A0FF84
:1013D000FFFFFFFFFFFFFFFFFFFFFFFFFFFFFFFF1D
:1013E000FFFFFFFFFFFFFFFFFFFFFFFFFFFFFFFF0D
:1013F00009005022165680008080808001465620C9
:1014000070A0A070200246562050E04050A0025527
:101410005588705070880256568850F820F820225F
:101420001757808080008080800247577080E0904E
:101430007010E0173151A002565670A8C8C8A870A5
:1014400014355560A06000E003435350A0501233A0
:1014500053E02020143151E002565670E8D8E8D805
:1014600070173151E015335340A04012355540E01C
:101470004000E014355540A02040E0143555C02010
:10148000C020C01622524080014555909090E080C7
:1014900002565678E8E86828282411518011225213
:1014A000408014355540C04040E014355540A040C0
:1014B00000E0034353A050A0024757808080A06003
:1014C000F0200247578080A0D0102070024757803C
:1014D000408060A0F02012365640004080A04002BC
:1014E000475740206090F09090024757204060900E
:1014F000F0909002475760906090F09090024757AC
:1015000050A06090F0909002475790006090F0904B
:101510009002475760906090F0909002465670A0FD
:10152000A0F0A0B0014757609080809060400247D3
:10153000574020F080E080F00247572040F080E0E4
:1015400080F00247576090F080E080F002475790AB
:1015500000F080E080F01237578040E0404040E0EB
:101560001237572040E0404040E012375740A0E09B
:10157000404040E0123757A000E0404040E00256B3
:10158000567048E848487002475750A090D0B09035
:10159000900247574020609090906002475720404B
:1015A00060909090600247576090609090906002C9
:1015B000475750A06090909060024757900060900D
:1015C000909060123353A040A002465670B0B0D045
:1015D000D0E00247574020909090906002475720FB
:1015E00040909090906002475760909090909060EB
:1015F00002475790009090909060025757102088B3
:101600005020202002465680E09090E0800246560E
:101610006090A0A090A0024757402000709090706A
:1016200002475720400070909070024757205000AA
:101630007090907002475750A000709090700246D2
:101640005650007090907002475760906070909074
:1016500070025454F068B078113555608080604055
:1016600002475740200060B0C0600247572040004A
:1016700060B0C06002475760900060B0C060024632
:1016800056500060B0C060123757804000C04040E4
:10169000E0123757204000C04040E012375740A0CA
:1016A00000C04040E0123656A000C04040E0024773
:1016B00057A040A01070906002475750A000E090E3
:1016C000909002475740200060909060024757205A
:1016D000400060909060024757609000609090607A
:1016E00002475750A00060909060024656900060FC
:1016F0009090601235554000E0004002445470B0B4
:10170000D0E0024757402000909090700247572049
:1017100040009090907002475760900090909070B9
:1017200002465690009090907001485820400090DA
:10173000907090600147578080E090E08080014782
:101740005790009090709060000000000000000F23
:10175000000000000000000F000000000000000F6B
:10176000000000000000000F000000000000000F5B
:10177000000000000000000F000000000000000F4B
:10178000000000000000000F000000000000000F3B
:10179000000000000000000F000000000000000F2B
:1017A000000000000000000F000000000000000F1B
:1017B000000000000000000F000000000000000F0B
:1017C000000000000000000F000000000000000FFB
:1017D000000000000000000F000000000000000FEB
:1017E000000000000000000F0FFFFFFFFFFFFFEFF2
:1017F0003000000000007FFF6000000000001FFFBD
:101800004000000000000FFF4000000001800FFFBB
:1018100083EFC000018C07FF87FFE000018C03FF0E
:1018200086386000018001FF861863E0F98C7CFF38
:10183000861867F1FD8CFE7F86186E318D8CC63F51
:1018400086186C398D8CC71F86186C19818CC71F40
:1018500086186C19818CC71F86186F9F81CDC71F92
:10186000061867DF80EFC71F4418619F002FC22F43
:10187000400000000000002F200000000000004F8A
:101880001FFFFFFFFFFFFF8F000000000000000FA1
:10189000000000000000000F000000000000000F2A
:1018A000000000000000000F000000000000000F1A
:1018B000000000000000000F000000000000000F0A
:1018C000000000000000000F000000000000000FFA
:1018D000000000000000000F000000000000000FEA
:1018E000000000000000000F000000000000000FDA
:1018F000000000000000000F000000000000000FCA
:10190000000000000000000F000000000000000FB9
:10191000000000000000000F000000000000000FA9
:10192000000000000000000F0000000000000000A8
:1019300000000000000000000000000000000000A7
:101940000000000000000000000000000000000097
:101950000000000000000000000000000000000087
:101960000000000000000000000000000000000077
:101970000000000000000000000000000000000067
:10198000000000000000B02000B0200059002D2D04
:101990003A2D2D00000000000000000000000000B3
:1019A0007FFFE00000000000000000000000007069
:1019B00000E000000000000000000000000061F8EE
:1019C0006000000000000000000000000041F8205E
:1019D00000000000000000000000000040F02000B7
:1019E0000000000000000000000000406020000037
:1019F000000000000000000000005801A07F8000EF
:101A00000000000000004104005C63A0FFC0000073
:101A100000000000002082005EF7A0FFC000000070
:101A2000000000002082005EF7A0FFC00000000060
:101A30000000004104005C63A07F80000000000003
:101A400000008208005801A07F8000000000000014
:101A500001041000406020FFC000000000000001F1
:101A600004100040F020FFC00000000000000082D1
:101A7000080041F820FFC000000000000000410401
:101A80000061F8603F00000000000000000000005E
:101A90007000E01E0000000000000001FFFF807FDA
:101AA000FFE00C0000000000000001FFFF800000CC
:101AB000000000000000000000000000007FFFE0C8
:101AC0000000000000000000000000007000E000C6
:101AD0000000000000000000000000630C60000037
:101AE00000000000000000000000470E2000000081
:101AF0000000000000000000004F0F200000000068
:101B000000000000000000005F0FA00000000000C7
:101B1000000000000000005E07A07F8000000000C1
:101B2000000000410400406020FFC00000000000F1
:101B3000000020820040F020FFC0000000000000F4
:101B40000020820040F020FFC000000000000000E4
:101B50004104004060207F800000000000000082FF
:101B600008005E07A07F8000000000000001041054
:101B7000005F0FA0FFC00000000000000104100083
:101B80004F0F20FFC0000000000000008208004747
:101B90000E20FFC000000000000000410400630CA4
:101BA000603F00000000000000000000007000E046
:101BB0001E0000000000000001FFFF807FFFE00C1E
:101BC0000000000000000001FFFF800000004D3811
:101BD0003420582059205A2045004E6F205344206D
:101BE00063617264005072696E742066726F6D205A
:101BF00053440053746F70207072696E74005265A4
:101C000073756D65207072696E74005061757365CF
:101C1000207072696E7400436F6E74726F6C005046
:101C20007265706172650054756E6500496E666F0D
:101C30002073637265656E0000091200FC0A01E8FA
:101C400003D720FFFD0EFD0BFD00000009000E0173
:101C50000B0B0904008080808080808000008080E1
:101C600004040409030790909090080A0A090000F0
:101C7000242424FF2424FF242424070B0B0901FF20
:101C8000107C929050381412927C10070A0A0901B5
:101C90000042A4A4481010244A4A84070A0A0901F1
:101CA000006090909060629488946201040409043A
:101CB0000780808080030C0C0903FF204040808057
:101CC00080808080404020030C0C0903FF8040404E
:101CD0002020202020204040800707070901031012
:101CE000925438549210070707090101101010FE92
:101CF0001010100204040904FEC0C0408007010156
:101D0000090104FE020202090400C0C0070A0A0910
:101D1000010002040408101020404080070A0A094C
:101D2000010038448282828282824438070A0A098A
:101D30000100103050901010101010FE070A0A0910
:101D40000100384482020408102040FE070A0A09F4
:101D50000100FE020408180402028478070A0A0936
:101D60000100040C14244484FE040404070A0A0934
:101D70000100FE808080F80402028478070A0A09C4
:101D800001003C408080B8C482824438070A0A09B6
:101D90000100FE020404080810101010070A0A09C6
:101DA000010038448244384482824438070A0A09D0
:101DB000010038448282463A020204780207070989
:101DC0000400C0C0000000C0C00209090904FEC030
:101DD000C0000000C0C040800509090902000810C9
:101DE00020408040201008070404090102FE000082
:101DF000FE050909090200804020100810204080DB
:101E0000070A0A0901003844820204081010001071
:101E1000070A0A09010038449AAAAAAAAA9C403CC7
:101E2000070A0A09010010282828447C448282827B
:101E3000070A0A090100F8848284F884828284F8FF
:101E4000070A0A0901003C42808080808080423C71
:101E5000070A0A090100F88482828282828284F859
:101E6000070A0A090100FE808080F880808080FED9
:101E7000070A0A090100FE808080F8808080808047
:101E8000070A0A09010038448280808E8282443821
:101E9000070A0A09010082828282FE82828282828D
:101EA000050A0A090200F82020202020202020F81E
:101EB000070A0A0901003E0808080808088888700F
:101EC000070A0A09010082848890A0D0888482824F
:101ED000070A0A090100808080808080808080FE5F
:101EE000070A0A0901008282C6AA9282828282823D
:101EF000070A0A0901008282C2A2928A868282822D
:101F0000070A0A0901007C82828282828282827CA4
:101F1000070A0A090100F884828284F880808080A0
:101F2000080B0B0901FF384482828282828A443A7C
:101F300001070A0A090100F884828284F8908884E3
:101F400082070A0A0901007C8280807C02020282E8
:101F50007C070A0A090100FE101010101010101062
:101F600010070A0A090100828282828282828244E8
:101F700038070A0A0901008282824444442828283A
:101F800010070A0A0901008282828292929292AA22
:101F900044070A0A0901008282442810102844825A
:101FA00082070A0A090100828244281010101010CA
:101FB00010070A0A090100FE020408102040808070
:101FC000FE040C0C0903FFF08080808080808080FC
:101FD0008080F0070A0A09010080404020101008A4
:101FE000040402040C0C0902FFF010101010101071
:101FF00010101010F007040409010610284482088C
:1020000001010900FFFF03030309030A80402007C1
:1020100007070901007C02027E82867A070A0A0904
:102020000100808080BCC2828282C2BC070707098F
:1020300001007C82808080827C070A0A09010002FC
:1020400002027A86828282867A0707070901007C6B
:102050008282FE80827C070A0A0901001C2222205B
:1020600020F820202020070A0A0901FD7A848484B0
:1020700078807C82827C070A0A090100808080BC0B
:10208000C28282828282050A0A090200600000E0A0
:102090002020202020F8050D0D0902FD1800003831
:1020A000080808080808888870070A0A09010080DB
:1020B0008080848890B0C88482050A0A090200E002
:1020C0002020202020202020F8070707090100EC0D
:1020D000929292929282070707090100BCC2828203
:1020E0008282820707070901007C82828282827CC9
:1020F000070A0A0901FDB8C4828282C4B8808080C0
:10210000070A0A0901FD3A46828282463A02020221
:102110000707070901009C6242404040400707074B
:102120000901007C82807C02827C07090909010088
:102130002020FC20202020221C0707070901008204
:1021400082828282867A07070709010082824444DC
:102150002828100707070901008282929292AA4458
:1021600007070709010082442810284482070A0A49
:102170000901FD4242242424181810906007070723
:10218000090100FE0408102040FE060B0B090200A6
:102190001C20202020C0202020201C010C0C090421
:1021A000FF808080808080808080808080060B0B14
:1021B000090100E0101010100C10101010E00703BF
:1021C0000309010762928CFFFFFFFFFFFFFFFFFF84
:1021D000FFFFFFFFFFFFFFFFFFFFFFFFFFFFFFFF0F
:1021E000FFFFFFFFFFFFFFFF00000009000E010BD4
:1021F0000B09040080800000808080808080800641
:10220000080809010008789490A0A47840070A0AF9
:102210000901001C222020F8202060A25C0706068D
:10222000090103827C44447C82070A0A0901008276
:102230008244287C107C101010010B0B0904FF80D5
:1022400080808080008080808080040B0B0902FFEA
:10225000609080609090906010906003020209038B
:102260000BA0A00809090900013C4299A5A1A59964
:10227000423C050707090103609070907800F80759
:102280000808090101122448909048241206040409
:10229000090102FC040404050101090204F808090B
:1022A000090900013C42B9A5BDA9A5423C060101AE
:1022B000090109FC04040409030660909060070901
:1022C00009090101101010FE10101000FE0406068E
:1022D0000901046090106080F004060609010460A2
:1022E000902010906003030309030A20408007092F
:1022F000090901FE8282828282C6BA8080070A0AA8
:102300000901007E8A8A8A7A0A0A0A0A0A020202F5
:10231000090404C0C00403030902FD209060030601
:102320000609010440C0404040E0050606090104DA
:102330007088887000F80708080901019048241285
:1023400012244890070A0A09010040C0404042E6B2
:102350000A121A06070A0A09010040C040404CF25E
:10236000020C101E070A0A090100609020109266F4
:102370000A121A06070A0A0901001000101020406C
:102380008082827C070E0E090100201008001028B0
:102390002828447C44828282070E0E09010008101E
:1023A000200010282828447C44828282070E0E09CF
:1023B00001001028440010282828447C448282828E
:1023C000070D0D09010034580010282828447C44CA
:1023D000828282070D0D0901002828001028282874
:1023E000447C44828282070E0E09010010282810C6
:1023F00010282828447C44828282070A0A090100A6
:102400001E2828284E784888888E070D0D0901FD62
:102410003C42808080808080423C082418070E0E59
:1024200009010020100800FE808080F880808080F4
:10243000FE070E0E09010008102000FE808080F8C3
:1024400080808080FE070E0E09010010284400FEE7
:10245000808080F880808080FE070D0D09010028B3
:102460002800FE808080F880808080FE050E0E09A6
:10247000020040201000F82020202020202020F8FA
:10248000050E0E09020010204000F8202020202018
:10249000202020F8050E0E09020020508800F820A8
:1024A00020202020202020F8050D0D09020050508A
:1024B00000F82020202020202020F8070A0A090107
:1024C0000078444242F24242424478070D0D09012D
:1024D000003458008282C2A2928A86828282070ECB
:1024E0000E090100201008007C8282828282828292
:1024F000827C070E0E090100081020007C82828277
:1025000082828282827C070E0E090100102844001C
:102510007C82828282828282827C070D0D09010088
:102520003458007C82828282828282827C070D0DF6
:102530000901002828007C82828282828282827C39
:1025400007070709010182442810284482070C0C60
:102550000901FF027C868A8A9292A2A2C27C80072D
:102560000E0E09010020100800828282828282827F
:10257000824438070E0E0901000810200082828272
:1025800082828282824438070E0E0901001028449C
:102590000082828282828282824438070D0D090184
:1025A0000028280082828282828282824438070E3A
:1025B0000E0901000810200082824428101010101B
:1025C0001010070A0A0901008080FC828282FC80C8
:1025D0008080060A0A09010038444448D04844442F
:1025E0004458070B0B090100201008007C02027EF2
:1025F00082867A070B0B090100081020007C02027A
:102600007E82867A070B0B090100102844007C02A9
:10261000027E82867A070A0A0901003458007C0289
:10262000027E82867A070A0A0901002828007C02B5
:10263000027E82867A070C0C0901001028281000FF
:102640007C02027E82867A0707070901006C12125B
:102650007E90926C070A0A0901FD7C82808080824C
:102660007C104830070B0B090100201008007C8209
:1026700082FE80827C070B0B090100081020007C81
:102680008282FE80827C070B0B0901001028440027
:102690007C8282FE80827C070A0A090100282800C9
:1026A0007C8282FE80827C050C0C09020080402026
:1026B0000000E02020202020F8050C0C090200106A
:1026C00020400000E02020202020F8050C0C09020A
:1026D000002050880000E02020202020F8050B0B6F
:1026E00009020050500000E02020202020F8070BB5
:1026F0000B090100483050083C448282824438076C
:102700000A0A090100345800BCC282828282820710
:102710000B0B090100201008007C82828282827CDF
:10272000070B0B090100081020007C828282828244
:102730007C070B0B090100102844007C82828282F6
:10274000827C070A0A0901003458007C8282828256
:10275000827C070A0A0901002828007C8282828282
:10276000827C07090909010010381000FE001038AA
:10277000100709090901FF027C8A8A92A2A27C80C3
:10278000070B0B09010040201000828282828286A2
:102790007A070B0B090100081020008282828282D6
:1027A000867A070B0B09010010284400828282827E
:1027B00082867A070A0A090100282800828282821A
:1027C00082867A070E0E0901FD0408100042422499
:1027D00024241818109060070B0B0901FE8080B8A4
:1027E000C4828282C4B88080070D0D0901FD2424B3
:1027F000004242242424181810906000060900FEAC
:1028000006018902FE20FFFE07FE06FE000000060C
:102810000007010606060200808080800080030316
:1028200003060103A0A0A00507070600FF5050F80B
:1028300050F850500509090600FE2070A8A0702825
:10284000A870200608080600FF40A8481020485439
:10285000080507070600FF609090609890680103E4
:10286000030602038080800207070602FF40808083
:10287000808080400207070602FF804040404040C1
:10288000800505050600008850F8508805050506F6
:1028900000002020F820200204040602FEC0404070
:1028A00080050101060002F8020202060200C0C013
:1028B000040606060100101020408080040606066B
:1028C000010060909090906003060606010040C0F1
:1028D000404040E00406060601006090102040F0F1
:1028E000040606060100F020601010E0050606064A
:1028F000000010305090F810040606060100F08029
:10290000E01010E00406060601006080E090906090
:10291000040606060100F0101020404004060606DA
:1029200001006090609090600406060601006090CF
:1029300090701060020505060200C0C000C0C00211
:1029400007070602FEC0C000C0404080050505061E
:1029500000001860806018050303060001F800F805
:10296000050505060000C0300830C0040707060151
:102970000060901060400040050606060000709060
:10298000A8B08070050606060000205088F88888E8
:10299000050606060000F088F08888F004060606A2
:1029A0000100609080809060040606060100E090BF
:1029B000909090E0040606060100F080E08080F030
:1029C000040606060100F080E0808080040606060A
:1029D0000100609080B090600406060601009090AF
:1029E000F0909090030606060100E040404040E071
:1029F0000506060600003810101090600406060652
:102A0000010090A0C0A090900406060601008080FE
:102A1000808080F005060606000088D8A8A888886F
:102A200004060606010090D0B090909005060606B8
:102A30000000708888888870040606060100E0900F
:102A400090E080800407070601FF609090D0B0609E
:102A500010040606060100E09090E090900406063F
:102A6000060100609040209060050606060000F810
:102A700020202020200406060601009090909090CF
:102A800060040606060100909090F060600506065E
:102A90000600008888A8A8D88805060606000088D1
:102AA0005020205088050606060000888850202007
:102AB00020040606060100F010204080F003060600
:102AC000060100E080808080E004060606010080A8
:102AD0008040201010030606060100E02020202080
:102AE000E00503030600032050880501010600FEEF
:102AF000F802020206020480400404040601007089
:102B00009090700406060601008080E09090E0043A
:102B1000040406010070808070040606060100109F
:102B2000107090907004040406010060B0C070043E
:102B30000606060100205040E0404004060606015B
:102B4000FE6090907010600406060601008080E030
:102B50009090900306060601004000C04040E0034C
:102B600008080601FE200060202020A04004060680
:102B70000601008080A0C0A090030606060100C0E8
:102B800040404040E0050404060000D0A8A88804A6
:102B90000404060100E09090900404040601006023
:102BA0009090600406060601FEE09090E0808004AC
:102BB00006060601FE7090907010100404040601D1
:102BC00000A0D0808004040406010070C030E0043E
:102BD00006060601004040E04050200404040601BF
:102BE00000909090700404040601009090606005CD
:102BF000040406000088A8A85004040406010090FC
:102C00006060900406060601FE909090709060044B
:102C10000404060100F02040F0030707060100202D
:102C20004040804040200107070602FF80808080EE
:102C300080808003070706010080404020404080DC
:102C400004020206010350A0FFFFFFFFFFFFFFFF8A
:102C5000FFFFFFFFFFFFFFFFFFFFFFFFFFFFFFFF84
:102C6000FFFFFFFFFFFFFFFFFF000000060007015F
:102C700006060602008000808080800406060601A9
:102C8000FF2070A0A070200507070600FF30484015
:102C9000F04040F8050505060000A8508850A8053A
:102CA00006060600008850F820F8200107070602F3
:102CB000FF808080008080800407070601FF70800D
:102CC00060906010E0030101060105A006070706F9
:102CD0000000788494A494847803050506010160BB
:102CE000A06000E00505050600002850A05028045B
:102CF0000303060100F01010040101060102F006B2
:102D000007070600007884B4A4A4847804010106AF
:102D10000105F00403030601026090600507070641
:102D200000FF2020F8202000F803050506010140DF
:102D3000A02040E0030505060101C0204020C0029C
:102D4000020206020440800405050601FF9090B0CF
:102D5000D08005060606000078E8E868282801010A
:102D600001060202800202020602FE4080030505FF
:102D700006010140C04040E003050506010140A0F6
:102D80004000E0050505060000A0502850A00508F9
:102D9000080600FF40C04050703078100508080653
:102DA00000FF40C04050680810380508080600FFC2
:102DB000C0204030F03078100407070601002000E2
:102DC00020608090600507070600004020205070BA
:102DD00088880507070600001020205070888805A5
:102DE0000707060000205020507088880507070656
:102DF0000000285020507088880507070600005002
:102E000000205070888805070706000020502050D9
:102E100070888805060606000078A0F0A0A0B80417
:102E200008080601FE60908080906020400407073B
:102E30000601004020F080E080F004070706010052
:102E40002040F080E080F00407070601002050F0E9
:102E500080E080F00407070601005000F080E08069
:102E6000F00307070601008040E0404040E0030710
:102E7000070601002040E0404040E003070706014C
:102E80000040A0E0404040E0030707060100A0002A
:102E9000E0404040E00506060600007048E848486B
:102EA0007004070706010050A090D0B0909004076E
:102EB000070601004020609090906004070706011B
:102EC00000204060909090600407070601002050A9
:102ED000609090906004070706010050A0609090F9
:102EE0009060040707060100500060909090600514
:102EF000050506000088502050880408080601FFD8
:102F00001070B0B0D0D0E080040707060100402068
:102F100090909090600407070601002040909090E8
:102F20009060040707060100205090909090600484
:102F30000707060100500090909090600507070673
:102F40000000102088502020200406060601008082
:102F5000E09090E0800406060601006090A0A0903A
:102F6000A00407070601004020007090907004073D
:102F700007060100204000709090700407070601CA
:102F8000002050007090907004070706010050A0C8
:102F9000007090907004060606010050007090903A
:102FA00070040707060100205020709090700504FF
:102FB0000406000070A8B0780406060601FE7080C2
:102FC0008070204004070706010040200060B0C068
:102FD0007004070706010020400060B0C0700407BD
:102FE0000706010020500060B0C07004060606010C
:102FF00000500060B0C07003070706010080400069
:10300000C04040E0030707060100204000C04040E8
:10301000E003070706010040A000C04040E00306AF
:1030200006060100A000C04040E0040707060100BA
:103030003060107090906004070706010050A000F7
:10304000E0909090040707060100402000609090F7
:1030500060040707060100204000609090600407AC
:1030600007060100205000609090600407070601E9
:103070000050A00060909060040606060100500019
:10308000609090600505050600002000F80020040F
:10309000040406010070B0D0E004070706010040F8
:1030A00020009090907004070706010020400090D7
:1030B00090907004070706010020500090909070D7
:1030C000040606060100500090909070040909065D
:1030D00001FE204000909090709060040808060166
:1030E000FE8080E09090E080800408080601FE5099
:1030F0000090909070906020746F6F206C6F6E677E
:1031000020657874727573696F6E2070726576656C
:103110006E7465640020636F6C64206578747275EA
:1031200073696F6E2070726576656E7465640043B6
:10313000616E6E6F7420656E746572207375626463
:1031400069723A200024F4D43050C38E20C2A240C9
:1031500017828B7011127A910D816CD90AA861E1E6
:1031600008C7586607615143061E4B5D05C145A758
:10317000041A411104093D9803713931034036DBCB
:103180000265339102D4305402802E1D02632CEE6E
:1031900001752AC501B028A001102781018F25647F
:1031A000012B244B01E0223401AC211F018D200DA5
:1031B00001801FFC00841EED00971DDF00B81CD2AB
:1031C00000E61BC600201BBC00641AB200B219A89E
:1031D000000A19A0006A189900D117910040178BB6
:1031E00000B516840031167E00B31579003A1573C8
:1031F00000C7146F0058146A00EE1366008813634A
:103200000025135E00C7125B006C125700151254A4
:1032100000C111510070114F0021114B00D610490F
:10322000008D1047004610440002104200C00F40BD
:1032300000800F3E00420F3C00060F3B00CB0E38D3
:1032400000930E37005C0E3500270E3400F30D326C
:1032500000C10D3100900D3000600D2E00320D2D9B
:1032600000050D2C00D90C2B00AE0C2900850C2973
:10327000005C0C2700350C27000E0C2600E80B2400
:1032800000C40B2400A00B23007D0B23005A0B214C
:1032900000390B2100180B2000F80A1F00D90A1E64
:1032A00000BB0A1E009D0A1D00800A1D00630A1C47
:1032B00000470A1B002C0A1B00110A1A00F7091A02
:1032C00000DD091900C4091900AB0919009209179A
:1032D000007B091800630917004C0916003609160F
:1032E00000200916000A091500F5081500E0081469
:1032F00000CC081400B8081400A4081400900813A7
:10330000007D0812006B08130058081200460812CE
:1033100000340811002308110012081100010811DF
:1033200000F0071000E0071000D0071000C00710E1
:1033300000B0070F00A107100091070E0083070FD0
:103340000074070F0065070E0057070E0049070EAF
:10335000003B070D002E070E0020070D0013070D80
:103360000006070D00F9060C00ED060D00E0060C46
:1033700000D4060C00C8060C00BC060C00B0060CFD
:1033800000A4060B0099060C008D060B0082060BAC
:103390000077060B006C060B0061060A0057060B4F
:1033A000004C060A0042060A0038060A002E060AE9
:1033B0000024060A001A060A001006090007060A79
:1033C00000FD050900F4050900EB050900E2050907
:1033D00000D9050900D0050900C7050900BE050987
:1033E00000B5050800AD050800A50509009C050805
:1033F00000940508008C050800840508007C050879
:1034000000740508006C050700650508005D0507E8
:1034100000560508004E050700470507004005084F
:103420000038050700310507002A050700230507B6
:10343000001C050600160507000F05070008050615
:103440000002050700FB040600F5040700EE040671
:1034500000E8040600E2040700DB040600D50406C9
:1034600000CF040600C9040600C3040600BD04061C
:1034700000B7040600B1040500AC040600A604066B
:1034800000A00405009B04060095040500900406B6
:10349000008A04050085040500800406007A0405FE
:1034A0000075040500700405006B04050066040542
:1034B00000610405005C0405005704050052040582
:1034C000004D04050048040500430405003E0404C3
:1034D000003A04050035040500300404002C0405FE
:1034E0000027040400230405001E0404001A040439
:1034F0000016040500110404000D0404000904056D
:10350000000404040000040400FC030400F80304A5
:1035100000F4030400F0030400EC030400E80304D7
:1035200000E4030400E0030400DC030400D8030407
:1035300000D4030400D0030400CC030400C8030338
:1035400000C503030024F404D9201BC40C5C0E98AE
:1035500004C4095F0265077101F405F900FB04B3B7
:103560000048048700C10369005803550003034560
:1035700000BE023A008402310053022A00290225CB
:103580000004022000E4011C00C8011900AF01176B
:1035900000980114008401130071011000610110F2
:1035A0000051010E0043010D0036010B002B010BF1
:1035B0000020010B00150109000C0109000301089E
:1035C00000FB000800F3000800EB000700E4000621
:1035D00000DE000600D8000600D2000600CC000580
:1035E00000C7000500C2000500BD000400B90004CA
:1035F00000B5000400B1000400AD000400A90004FF
:1036000000A5000300A20003009F0004009B00032C
:10361000009800030095000200930003009000034F
:10362000008D0002008B000300880002008600026B
:103630000084000300810002007F0002007D000280
:10364000007B000200790002007700010076000292
:10365000007400020072000100710002006F00029D
:10366000006D0001006C0002006A000100690002A8
:1036700000670001006600010065000100640002AF
:10368000006200010061000100600001005F0002B3
:10369000005D0001005C0001005B0001005A0001B8
:1036A00000590001005800010057000100560001B8
:1036B00000550001005400010053000000530001B8
:1036C000005200010051000100500001004F0001B4
:1036D000004E0000004E0001004D0001004C0001B2
:1036E000004B0000004B0001004A000100490001AE
:1036F00000480000004800010047000100460000AB
:1037000000460001004500000045000100440001A2
:10371000004300000043000100420000004200019D
:10372000004100000041000100400001003F000096
:10373000003F0001003E0000003E0001003D00008F
:10374000003D0001003C0000003C0000003C000186
:10375000003B0000003B0001003A0000003A00017D
:103760000039000000390001003800000038000076
:10377000003800010037000000370001003600006B
:103780000036000000360001003500000035000062
:103790000035000100340000003400000034000156
:1037A000003300000033000000330001003200004D
:1037B0000032000000320001003100000031000042
:1037C0000031000100300000003000000030000136
:1037D000002F0000002F0000002F0000002F00012C
:1037E000002E0000002E0000002E0001002D000021
:1037F000002D0000002D0000002D0001002C000015
:10380000002C0000002C0000002C0001002B000008
:10381000002B0000002B0000002B0001002A0000FC
:10382000002A0000002A0000002A000100290000F0
:1038300000290000002900000029000000290001E3
:1038400000280000002800000028000000280000D8
:1038500000280001002700000027000000270000CA
:1038600000270000002700010026000000260000BD
:1038700000260000002600000026000100250000B0
:1038800000250000002500000025000000250000A4
:103890000025000100240000002400000024000096
:1038A0000024000000240001002300000023000089
:1038B000002300000023000000230000002300007C
:1038C000002300010022000000220000002200006E
:1038D0000022000000220000002200010021000060
:1038E0000021000000210000002100000021000054
:1038F0000021000000210001002000000020000045
:103900000020000000200000002000000020000037
:103910000020000000200001001F0000001F000028
:10392000001F0000001F0000001F0000001F00001B
:10393000001F0001001E0000001E0000001E00000D
:10394000001E00000000060900FE070199032B205D
:10395000FFFE08FE07FE0000000600000107070644
:10396000020080808080800080030303060104A0A1
:10397000A0A00507070600005050F850F850500569
:1039800007070600002070A07028702005070706B2
:10399000000048A8502050A89005070706000040E6
:1039A000A0A040A890680103030602048080800361
:1039B000070706010020408080804020030707069B
:1039C0000100804020202040800505050600018878
:1039D00050F850880505050600012020F820200336
:1039E00003030601FF604080050101060003F803A0
:1039F00003030601FF40E040050707060000080832
:103A00001020408080050707060000205088888825
:103A100050200507070600002060A0202020F805A0
:103A20000707060000708808304080F80507070681
:103A30000000F8081030088870050707060000101D
:103A4000305090F81010050707060000F880B0C845
:103A5000088870050707060000304080B0C88870ED
:103A6000050707060000F80810102040400507076A
:103A700006000070888870888870050707060000B7
:103A8000708898680810600307070601FF40E0404F
:103A90000040E0400307070601FF40E040006040AF
:103AA0008004070706010010204080402010050315
:103AB00003060002F800F804070706010080402012
:103AC00010204080050707060000708810202000A5
:103AD00020050707060000708898A8B080700507C9
:103AE0000706000020508888F88888050707060028
:103AF00000F04848704848F0050707060000708845
:103B00008080808870050707060000F04848484814
:103B100048F0050707060000F88080F08080F8056F
:103B20000707060000F88080F08080800507070600
:103B3000000070888080988870050707060000885C
:103B40008888F8888888030707060100E04040401D
:103B50004040E00507070600003810101010906084
:103B60000507070600008890A0C0A09088050707F9
:103B7000060000808080808080F80507070600002E
:103B80008888D8A88888880507070600008888C81C
:103B9000A8988888050707060000708888888888A4
:103BA00070050707060000F08888F080808005080F
:103BB000080600FF7088888888A87008050707062F
:103BC0000000F08888F0A0908805070706000070C4
:103BD000888070088870050707060000F8202020FC
:103BE00020202005070706000088888888888870BC
:103BF00005070706000088888850505020050707F1
:103C0000060000888888A8A8D8880507070600004D
:103C1000888850205088880507070600008888504B
:103C200020202020050707060000F808102040800B
:103C3000F8030707060100E08080808080E0050728
:103C400007060000808040201008080307070601CF
:103C500000E02020202020E005030306000420507F
:103C6000880501010600FFF80202020602068040F4
:103C70000505050600007008788878050707060026
:103C8000008080B0C888C8B00505050600007088AF
:103C900080887005070706000008086898889868FB
:103CA0000505050600007088F88070050707060006
:103CB00000304840F04040400507070600FE788885
:103CC00088780888700507070600008080B0C888DB
:103CD00088880307070601004000C0404040E00418
:103CE00009090601FE1000301010109090600507C1
:103CF0000706000080808890E0908803070706018F
:103D000000C04040404040E0050505060000D0A846
:103D1000A8A888050505060000B0C888888805059C
:103D20000506000070888888700507070600FEB049
:103D3000C888C8B080800507070600FE6898889884
:103D4000680808050505060000B0C88080800505E4
:103D50000506000070807008F005070706000040A7
:103D600040F04040483005050506000088888898E6
:103D700068050505060000888850502005050506E1
:103D800000008888A8A85005050506000088502076
:103D900050880507070600FE88889868088870051F
:103DA0000505060000F8102040F80407070601008A
:103DB000304020C02040300107070602008080808C
:103DC00080808080040707060100C020403040202A
:103DD000C005030306000448A8900000000100008D
:103DE00000000001000000000001000000000001D0
:103DF00000000000000100000000000100000000C1
:103E000000010000000000010000000000010000AF
:103E1000000000010000000000010000000000019F
:103E20000000000000010000000000010000000090
:103E3000000100000000000100000000000100007F
:103E4000000000010000000000010000000000016F
:103E50000000000000010000000000010000000060
:103E6000000100000000000100000000000100004F
:103E7000000000010000000000010000000000013F
:103E80000000000000010000000000010000000030
:103E9000000100000000000100000000000100001F
:103EA0000000000600000107070602008000808075
:103EB0008080800507070600FF2078A0A0A078205A
:103EC000050707060000304840E04048B0050505FA
:103ED00006000088705070880508080600FF888872
:103EE0005020F82020200107070602008080800073
:103EF0008080800508080600FF7080E09048380840
:103F000070030101060107A005070706000070887D
:103F1000A8C8A888700406060601017090B0500079
:103F2000F006050506000024489048240402020615
:103F30000102F010040101060103F0050707060065
:103F4000007088E8C8C88870050101060007F803FA
:103F5000030306010440A0400506060600002020D9
:103F6000F82020F804050506010360902040F004C5
:103F70000505060103E0106010E0020202060206D9
:103F800040800506060600FF888888C8B0800507BF
:103F90000706000078E8E8682828280101010602E1
:103FA00003800202020602FE4080030505060103AB
:103FB00040C04040E00406060601016090906000A9
:103FC000F0060505060000904824489006090906F9
:103FD00000FF40C04040E40C143C04060909060000
:103FE000FF40C04040E81404081C0509090600FF12
:103FF000C0204020C81828780805070706000020C0
:1040000000202040887005080806000040207088C5
:1040100088F888880508080600001020708888F84D
:1040200088880508080600002050708888F888886D
:1040300005080806000048B0708888F888880508D8
:10404000080600005000708888F88888050808066F
:1040500000002050708888F888880607070600004E
:104060003C50909CF0909C0509090600FE708880E9
:1040700080808870204005080806000040F8808095
:10408000F08080F805080806000010F88080F080B5
:1040900080F805080806000020F88080F08080F88D
:1040A00005080806000050F88080F08080F80308BA
:1040B000080601008040E040404040E00308080658
:1040C00001002040E040404040E0030808060100B5
:1040D00040A0E040404040E0030808060100A00086
:1040E000E040404040E0050707060000F04848E88F
:1040F0004848F0050808060000285088C8A8988895
:1041000088050808060000402070888888887005A7
:104110000808060000102070888888887005080844
:1041200006000020507088888888700508080600FE
:10413000002850708888888870050808060000509C
:104140000070888888887005050506000088502062
:104150005088050707060000709898A8C8C8700521
:1041600008080600004020888888888870050808AC
:1041700006000010208888888888700508080600D6
:1041800000205000888888887005080806000050C4
:104190000088888888887005080806000010208834
:1041A000885020202005070706000080F088F08056
:1041B0008080050707060000708890A09088B005F1
:1041C0000808060000402000700878887805080874
:1041D000060000102000700878887805080806009E
:1041E000002050007008788878050808060000282C
:1041F00050007008788878050707060000500070A6
:104200000878887805080806000020502070087893
:10421000887806050506000078147C907C05070761
:104220000600FE708880887020400508080600009F
:104230004020007088F880700508080600001020F3
:10424000007088F880700508080600002050007093
:1042500088F8807005070706000050007088F88015
:1042600070030808060100804000C0404040E003A1
:104270000808060100408000C0404040E0030808F4
:1042800006010040A000C0404040E0060A0A0600C7
:10429000FEA4A800FC8480808084FC060A0A060034
:1042A000FE549400FC8404040484FC050808060001
:1042B00000285000B0C8888888050808060000401B
:1042C00020007088888870040A0A0602FE30408048
:1042D00090909090909090040A0A0600FEC02010E2
:1042E00090909090909090060707060001448C8C67
:1042F0008480403C06070706000188C4C484040883
:10430000F00505050600012000F800200508080654
:10431000000040F0C888889878100508080600005A
:10432000E0F88888888888F80505050600012030AF
:10433000F830200508080600002070F82020202012
:10434000E00509090600FF2070A8A8B88888502059
:104350000509090600FFE080C0B0A8A8302828059C
:1043600009090600FFF8A88888888888A8F8050A3F
:104370000A0600FE205050505088A8A8887043615B
:1043800072642072656D6F766564004361726420AB
:10439000696E73657274656400202D20496E7661C4
:1043A0006C6964206578747275646572206E756DD1
:1043B0006265722021001000C90210012C01400129
:1043C000220170011801B0010E01F0010401500238
:1043D000FA00B002F0003003E600D003DC009004E5
:1043E000D2007005C800A006BE000008B400B009E5
:1043F000AA00D00BA000600E960060118C00001582
:10440000820020197800C01D6E00A0226400B02731
:104410005A00902C500000314600E0343C00103827
:104420003200903A2800603C1E00A03D1400803EFF
:104430000A00203F00004572723A204D4158544511
:104440004D50003A20457874727564657220737718
:10445000697463686564206F66662E204D41585408
:10446000454D50207472696767657265642021004C
:104470004572723A204D494E54454D50003A204500
:1044800078747275646572207377697463686564A3
:10449000206F66662E204D494E54454D5020747253
:1044A000696767657265642021004572723A204D24
:1044B000415854454D50204245440054656D706547
:1044C00072617475726520686561746564206265E7
:1044D00064207377697463686564206F66662E2054
:1044E0004D415854454D5020747269676765726537
:1044F00064202121004573746570732F6D6D004534
:1045000073746570732F6D6D005A73746570732FBB
:104510006D6D005A73746570732F6D6D00597374EF
:104520006570732F6D6D005973746570732F6D6DA9
:10453000005873746570732F6D6D005873746570D7
:10454000732F6D6D00412D7265747261637400414B
:104550002D7265747261637400416D61782065002D
:10456000416D6178206500416D6178207A00416D70
:104570006178207A00416D6178207900416D617821
:10458000207900416D6178207800416D6178207854
:10459000005654726176206D696E005654726176D1
:1045A000206D696E00566D696E00566D696E00561D
:1045B0006D6178206500566D6178206500566D61EB
:1045C00078207A00566D6178207A00566D617820E7
:1045D0007900566D6178207900566D6178207800F9
:1045E000566D617820780056652D6A65726B0056AD
:1045F000652D6A65726B00567A2D6A65726B00567E
:104600007A2D6A65726B005678792D6A65726B0037
:104610005678792D6A65726B00416363656C004161
:104620006363656C005A204F6666736574005A2098
:104630004F666673657400436F6E74726F6C007CB6
:104640003C3E5E2B3D3F2F5B5D3B2C2A225C0050A5
:104650007265686561742041425320426564005070
:104660007265686561742041425320310050726563
:1046700070617265004D3330302053363938205028
:10468000323030004D3330302053363539205032FF
:104690003030004D6F76652061786973004D383099
:1046A0000053776974636820706F776572206F6E4E
:1046B000004D38310053776974636820706F7765F7
:1046C00072206F666600436F6F6C646F776E005088
:1046D0007265686561742041425300507265686577
:1046E000617420504C410053657420686F6D6520E3
:1046F0006F66667365747300473238004175746F76
:1047000020686F6D65004D38340044697361626CD8
:1047100065207374657070657273004D61696E0019
:10472000580059005A0045787472756465720045E6
:1047300078747275646572004D6F7665205A004D0D
:104740006F76652059004D6F76652058004D6F7665
:104750006520617869730053544F505045442E20B2
:10476000005072696E7465722073746F7070656446
:104770002064756520746F206572726F72732E20CD
:1047800046697820746865206572726F7220616E68
:104790006420757365204D39393920746F20726536
:1047A00073746172742E202854656D706572617423
:1047B0007572652069732072657365742E20536568
:1047C0007420697420616674657220726573746107
:1047D0007274696E67290000004843000048430076
:1047E000004843000000000000000000000000003E
:1047F00000000000000000000000000000A04000D9
:1048000000A0400000004000004843000048430072
:10481000004843FFFFFF2200656E717565696E6792
:10482000202200426162797374657070696E67203E
:104830005800426162797374657070696E672059BF
:1048400000426162797374657070696E67205A0006
:104850004D363030004368616E67652066696C6173
:104860006D656E74004261627973746570205A00E0
:104870004261627973746570205900426162797394
:10488000746570205800466C6F77203000466C6F5E
:1048900077203000466C6F7700466C6F770046617A
:1048A0006E2073706565640046616E207370656587
:1048B000640042656400426564004E6F7A7A6C65FC
:1048C000004E6F7A7A6C65005370656564005370B2
:1048D000656564004D61696E00507265686561745C
:1048E00020504C41204265640050726568656174D7
:1048F00020504C4120310050726570617265005249
:104900006573656E643A20006F6B004B494C4C45F3
:10491000442E20005072696E7465722068616C7458
:1049200065642E206B696C6C28292063616C6C6552
:1049300064210000002100240027002A002D0030FF
:1049400000330001010000040107010A01000022F8
:1049500000250028002B002E003100340002010049
:1049600000050108010B010000200023002600299A
:10497000002C002F00320000010000030106010995
:104980000105050505070508080808020202020AD4
:104990000A080804040404010101010101010103E2
:1049A00003030303030303040707070C0C0C0C0C9D
:1049B0000C0C0C0202020206060606060606060B90
:1049C0000B0B0B0B0B0B0B01021020200808102007
:1049D000401020408002010201080402010102048B
:1049E000081020408080402010080402018004024A
:1049F00001804020100804020108040201010204A1
:104A00000810204080010204081020408000000AA5
:104A10000B02090C0D0E0807030401000000000042
:104A20000000000000000000000000000000000086
:104A30000000000000000000001211100000000043
:104A40000000000000000000000000000000000066
:104A500000000046696C2E204469612E203100461A
:104A6000696C2E204469612E2031004F6666004F2C
:104A70006E20004F6666004F6E20004520696E2054
:104A80006D6D3300436F6E74726F6C004C43442045
:104A9000636F6E7472617374004D3234004D323343
:104AA00020257300F92E2E004D61696E0053746F3E
:104AB0007265206D656D6F727900426564004265B4
:104AC00064004E6F7A7A6C65004E6F7A7A6C65007E
:104AD00046616E2073706565640046616E20737078
:104AE0006565640054656D7065726174757265000A
:104AF00053746F7265206D656D6F727900426564E5
:104B000000426564004E6F7A7A6C65004E6F7A7A67
:104B10006C650046616E2073706565640046616E69
:104B20002073706565640054656D7065726174759D
:104B30007265004E414E494E495459494E46CDCCBE
:104B4000CC3D0AD7233C17B7D13877CC2B3295957B
:104B5000E6241FB14F0A000020410000C842004077
:104B60001C4620BCBE4CCA1B0E5AAEC59D74230108
:104B70005F0111241FBECFEFD1E2DEBFCDBF00E049
:104B80000CBF15E0A0E0B2E0ECEEF1E302E00BBFF9
:104B900002C007900D92AA34B107D9F725E1AAE423
:104BA000B5E001C01D92A235B207E1F715E2C8EBEE
:104BB000D5E200E006C021970109802FFE010F9485
:104BC0000A0CC73BD10780E00807A9F70F947805C6
:104BD0000D94E4180C9400002F923F924F925F9234
:104BE0006F927F928F929F92AF92BF92CF92DF92FD
:104BF000EF92FF920F931F93CF93DF93CDB7DEB762
:104C0000CE56D1400FB6F894DEBF0FBECDBF87E4BD
:104C10000E944165F82E882311F40C945D3B0E949C
:104C200067650F949B0D6C31710509F48CC19CF480
:104C30006230710509F428C124F477FF3DC00C945B
:104C4000185E6330710509F42BC16430710509F4F5
:104C500033C10C94185E6A35710511F40C94F83A5E
:104C6000FCF46D31710509F4A9C46E31710511F0C0
:104C70000C94185E0E9472AE0E94386380E090E04F
:104C8000A0EFB2E48093890290938A02A0938B02F2
:104C9000B0938C020E942D64E3E9F8E00C949C3AF6
:104CA0006B35710511F40C94FC3A6C35710511F4F7
:104CB0000C94013B0C94185E8091551481110C9456
:104CC000185E0E944FF582EF94E10E94E7F00E9487
:104CD000A0F9609317157093181580931915909388
:104CE0001A158090F2149090F314A090F414B090E0
:104CF000F514CF5DDE4F88829982AA82BB82C152B1
:104D0000D140A50194016091220C7091230C8091F7
:104D1000240C9091250C0F9472154090F61450902D
:104D2000F7146090F8147090F914E090FA14F09071
:104D3000FB140091FC141091FD14CB5DDE4FE88252
:104D4000F9820A831B83C552D14081117EC0A30121
:104D500092016091260C7091270C8091280C909103
:104D6000290C0F947215811170C020E030E040E7EB
:104D700052E46091890270918A0280918B02909135
:104D80008C020F94290D4B015C0185E89EE09F93F6
:104D90008F93AEEFCA2EA4E1DA2ECB5DDE4FE88012
:104DA000F9800A811B81C552D140A3019201CF5DD8
:104DB000DE4F688179818A819B81C152D1400E94F6
:104DC0000A980F900F908091F2149091F314A09193
:104DD000F414B091F5148093220C9093230CA093BB
:104DE000240CB093250C8091F6149091F714A091A7
:104DF000F814B091F9148093260C9093270CA0938B
:104E0000280CB093290C8091FA149091FB14A09176
:104E1000FC14B091FD1480932A0C90932B0CA0935A
:104E20002C0CB0932D0C8091FE149091FF14A09146
:104E30000015B091011580932E0C90932F0CA09328
:104E4000300CB093310C0C94185E6091910270910B
:104E50009202072E000C880B990B0F947915209164
:104E6000890230918A0240918B0250918C020F94FA
:104E7000631020E030E040E752E40F94290D20E079
:104E800030E048EC52E47DCF8091551481110C94B0
:104E9000185E0E94D4F581E00E9499F10C94185E8E
:104EA0008091551481110C94185E0E94D4F580E015
:104EB0000E9499F10C94185E81E299E00E945EBB19
:104EC00080E50E944165882339F00E9467650F9450
:104ED000A20D6B017C0103C0C12CD12C760183E5AE
:104EE0000E944165882361F00E94676520E030E000
:104EF0004AE754E40F9463100F94A20D6B017C01F8
:104F00000E9472AE0E94A0F9C60ED71EE81EF91EBE
:104F10000E94A0F9609317157093181580931915C6
:104F200090931A150E94A0F96C157D058E059F05BA
:104F300010F00C94185E0E9417C880E00E94D6EE14
:104F40000E9495BBEFCF80E090E0A0E8BFE38093A4
:104F5000210290932202A0932302B0932402109284
:104F60002502109226021092270210922802109217
:104F7000290210922A0210922B0210922C021092F7
:104F80002D0210922E0210922F0210923002809366
:104F9000310290933202A0933302B0933402109204
:104FA0003502109236021092370210923802109297
:104FB000390210923A0210923B0210923C02109277
:104FC0003D0210923E0210923F02109240028093E6
:104FD000410290934202A0934302B0934402809115
:104FE000890290918A02A0918B02B0918C028093E9
:104FF000520590935305A0935405B09355058091A5
:10500000910290919202909351058093500584E60D
:1050100090E090939202809391020E94A0F9609395
:105020001715709318158093191590931A1511E0A0
:10503000109320028091220C9091230CA091240CBB
:10504000B091250C8093F2149093F314A093F41470
:10505000B093F5148091260C9091270CA091280C08
:10506000B091290C8093F6149093F714A093F81440
:10507000B093F91480912A0C90912B0CA0912C0CD8
:10508000B0912D0C8093FA149093FB14A093FC1410
:10509000B093FD1480912E0C90912F0CA091300CA8
:1050A000B091310C8093FE149093FF14A0930015DF
:1050B000B09301151092890210928A0210928B020D
:1050C00010928C0288E50E944165882311F080E0EF
:1050D00009C089E50E9441658111F9CF8AE50E94E6
:1050E000416581278093010281110C941B5E88E544
:1050F0000E94416581110C941B5E80910102811117
:105100000C94215E89E50E94416581110C94215E19
:1051100088E50E9441658823D1F00E945C65672B79
:10512000682B692BA1F00E9467652091D114309102
:10513000D2144091D3145091D4140F942F0C609337
:10514000220C7093230C8093240C9093250C89E5FA
:105150000E9441658823D1F00E945C65672B682B13
:10516000692BA1F00E9467652091D5143091D61467
:105170004091D7145091D8140F942F0C6093260CA3
:105180007093270C8093280C9093290C8091010236
:10519000882309F4A8C080E090E0A6EFB2E48093F1
:1051A000F2149093F314A093F414B093F51480E0E8
:1051B00090E0ACE9B2E48093F6149093F714A093D6
:1051C000F814B093F914E5E1F8E4E4910DEFE0028E
:1051D000F0011124BF01FF0F880B990B0F94791573
:1051E0006093FA147093FB148093FC149093FD1455
:1051F00080E090E0A5E0B3E48093890290938A0276
:10520000A0938B02B0938C0210922A0C10922B0C5C
:1052100010922C0C10922D0C2091260C3091270C02
:105220004091280C5091290C6091220C7091230C14
:105230008091240C9091250CE12CF12C87010E9487
:1052400053808090890290908A02A0908B02B09047
:105250008C02E090FA14F090FB140091FC14109171
:10526000FD142091F6143091F7144091F8145091E8
:10527000F9146091F2147091F3148091F4149091E8
:10528000F514E5E8FEE0FF93EF93FEEFCF2EF4E197
:10529000DF2E0E940A980E9472AE8091F2149091C3
:1052A000F314A091F414B091F5148093220C909310
:1052B000230CA093240CB093250C8091F6149091AC
:1052C000F714A091F814B091F9148093260C9093E0
:1052D000270CA093280CB093290C82E090E00E9448
:1052E00016E50F900F908AE50E944165882309F426
:1052F000F5C080917A0A882309F4A8C080917B0ABE
:10530000882309F4A3C08090220C9090230CA090D5
:10531000240CB090250C20E030E048EB51E4C501AE
:10532000B4010F942E0C6B017C0120E030E0A90148
:105330000F948F0E87FDADC020E030E048E453E4C9
:10534000C701B6010F94721518160CF4A2C0409054
:10535000260C5090270C6090280C7090290C20E0AF
:1053600030E040EB51E4C301B2010F942F0C6B010C
:105370007C0120E030E0A9010F948F0E87FD89C0E9
:1053800020E030E048E453E4C701B6010F94721501
:1053900018160CF47EC010922A0C10922B0C10924E
:1053A0002C0C10922D0CE12CF12C8701A301920101
:1053B000C501B4010E945380E5E1F8E4E4911DEFDA
:1053C000E102F0011124BF01FF0F880B990B0F942C
:1053D00079157B018C016093FA147093FB14809310
:1053E000FC149093FD148090B5149090B614A09086
:1053F000B714B090B8148092890290928A02A09259
:105400008B02B0928C022091F6143091F7144091E7
:10541000F8145091F9146091F2147091F314809182
:10542000F4149091F514E5E8FEE0FF93EF93EEEFAE
:10543000CE2EE4E1DE2E0E940A980E9472AE82E037
:1054400090E00E9416E50F900F9048C08FE099E021
:105450000E945EBBEBEEFCE08491882341F09091CA
:10546000C00095FFFCCF8093C6003196F5CFEDEFDD
:10547000F8E08491882341F09091C00095FFFCCF23
:105480008093C6003196F5CF8091C00085FFFCCF98
:1054900022C08CEE98E00E945EBBEBEEFCE08491B3
:1054A000882341F09091C00095FFFCCF8093C60007
:1054B0003196F5CFEBEDF8E08491882341F090919F
:1054C000C00095FFFCCF8093C6003196F5CF809148
:1054D000C00085FFFCCF8AE08093C6008AE50E9469
:1054E00041658823D1F00E945C65672B682B692B8E
:1054F000A1F00E9467652091D9143091DA1440918F
:10550000DB145091DC140F942F0C60932A0C7093D1
:105510002B0C80932C0C90932D0C80910102811107
:105520000C94275E8AE50E94416581110C94275EE8
:10553000E0902A0CF0902B0C00912C0C10912D0C6B
:105540002091260C3091270C4091280C5091290C69
:105550006091220C7091230C8091240C9091250C69
:105560000E94538010922002809152059091530521
:10557000A0915405B09155058093890290938A02B9
:10558000A0938B02B0938C028091500590915105AD
:1055900090939202809391020E94A0F96093171554
:1055A000709318158093191590931A1510928F0AFD
:1055B00010928E0A10928D0A0C94185E80917A0ACD
:1055C000882321F080917B0A811127C089EC98E023
:1055D0000E945EBBEBEEFCE08491882341F0909149
:1055E000C00095FFFCCF8093C6003196F5CFE7EB66
:1055F000F8E08491882341F09091C00095FFFCCFA2
:105600008093C6003196F5CF8091C00085FFFCCF16
:105610008AE08093C6000C94185E0E9472AE80E00F
:1056200090E0A0E8BFE38093210290932202A09330
:105630002302B093240210922502109226021092A7
:105640002702109228021092290210922A02109228
:105650002B0210922C0210922D0210922E02109208
:105660002F02109230028093310290933202A09365
:105670003302B09334021092350210923602109227
:105680003702109238021092390210923A021092A8
:105690003B0210923C0210923D0210923E02109288
:1056A0003F02109240028093410290934202A093E5
:1056B0004302B0934402CE018F5E9E4F0E941A9720
:1056C000CF5EDE4F688179818A819B81C151D14053
:1056D0006093220C7093230C8093240C9093250CE0
:1056E000CB5EDE4F288139814A815B81C551D14033
:1056F0002093260C3093270C4093280C5093290CB0
:10570000C75EDE4FE880F9800A811B81C951D14014
:10571000E0922A0CF0922B0C00932C0C10932D0C81
:105720000E9453800E94386380E090E0A0EFB2E4D2
:105730008093890290938A02A0938B02B0938C028B
:10574000612C712C212C312C22E330E0C35CDE4F24
:1057500039832883CD53D14042E350E0C75DDE4F0B
:1057600059834883C952D14082E390E0CF5DDE4F38
:1057700099838883C152D140C35DDE4F1882CD52D8
:10578000D14088248394912C8C0E9D1E860C971CEE
:10579000CB5DDE4F99828882C552D140C15DDE4F1C
:1057A00039822882CF52D140412C512CC35CDE4F2C
:1057B000A880B980CD53D1400B2C000CCC08DD085B
:1057C000C75CDE4FA882B982CA82DB82C953D1404E
:1057D000C15DDE4FC880D980CF52D140CD2889F03D
:1057E00020E030E040E450E460912A0C70912B0CF2
:1057F00080912C0C90912D0C0F942F0C6B017C013F
:1058000005C0C12CD12CB0E4EB2EFE2CC75CDE4FC2
:10581000688179818A819B81C953D1400F94791520
:10582000CF5CDE4F688379838A839B83C153D140E9
:10583000CF5DDE4F88809980C152D140B401990C70
:10584000880B990B0F9479154B015C012091260C64
:105850003091270C4091280C5091290C6091220C1A
:105860007091230C8091240C9091250C8701760176
:105870000E946463C0902A0CD0902B0CE0902C0CFA
:10588000F0902D0C20E030E040EB51E4CF5CDE4F97
:10589000688179818A819B81C153D1400F942E0CFC
:1058A000CB5CDE4F688379838A839B83C553D14069
:1058B00020E030E048EB51E4C501B4010F942F0C17
:1058C00087017601CB5CDE4F288139814A815B817B
:1058D000C553D1400E9464630E942D64C0902A0C7D
:1058E000D0902B0CE0902C0CF0902D0CE7E1F3E025
:1058F0008491882341F09091C00095FFFCCF809364
:10590000C6003196F5CFE2E1F3E08491882341F0BF
:105910009091C00095FFFCCF8093C6003196F5CFE3
:1059200042E0C501B4010E94E272EDE0F3E084912F
:10593000882341F09091C00095FFFCCF8093C60072
:105940003196F5CF42E0CF5CDE4F688179818A8164
:105950009B81C153D1400E94E272E8E0F3E0849160
:10596000882341F09091C00095FFFCCF8093C60042
:105970003196F5CF42E0C701B6010E94E272E6E03F
:10598000F3E08491882341F09091C00095FFFCCF13
:105990008093C6003196F5CFF201E60DF71D09ECB4
:1059A00010E00C0F1D1FE00FF11FC082D182E282B8
:1059B000F382CB5DDE4FA881B981C552D1408D9273
:1059C0009D92AD92BD92CB5DDE4FB983A883C55247
:1059D000D140CF5CDE4F88809980AA80BB80C153C4
:1059E000D14090968D929D92AD92BC929397FD017D
:1059F000EC5BFF4F812C912CA0E8AA2EAFE3BA2ECE
:105A000080829182A282B382C15DDE4F08811981BA
:105A1000CF52D1400F5F1F4FC15DDE4F1983088306
:105A2000CF52D140CF5DDE4F88809980C152D140A6
:105A3000C75DDE4FA880B980C952D1408A0C9B1C3B
:105A4000CF5DDE4F99828882C152D14004E0400E82
:105A5000511C1CE04116510409F0BACE23E0220E7D
:105A6000311CC35CDE4F48815981CD53D1404E5C1F
:105A70005F4FC35CDE4F59834883CD53D14059E01B
:105A800025163104B9F1C35DDE4F8880CD52D14077
:105A9000811017C00EEC1FEFC75DDE4F198308831E
:105AA000C952D14026E930E0CF5DDE4F39832883EB
:105AB000C152D14031E0C35DDE4F3883CD52D14079
:105AC00015C042E350E0C75DDE4F59834883C95299
:105AD000D14082E390E0CF5DDE4F99838883C1524D
