:100000000C9409100C943A100C943A100C943A1079
:100010000C943A100C943A100C943A100C943A1038
:100020000C943A100C943A100C943A100C943A1028
:100030000C943A100C94C3E60C943A100C943A10B9
:100040000C943A100C94ED900C943A100C943A10D5
:100050000C943A100C943A100C947AA30C9430E758
:100060000C943A100C94C1160C943A100C943A105B
:100070000C943A100C943A100C943A100C943A10D8
:100080000C943A100C943A100C943A100C943A10C8
:100090000C943A100C943A100C943A100C943A10B8
:1000A0000C943A100C943A100C943A100C943A10A8
:1000B0000C943A100C943A100C943A100C943A1098
:1000C0000C943A100C943A100C943A100C943A1088
:1000D0000C943A100C943A100C943A100C943A1078
:1000E0000C943A10D8A3E7A303A412A42CA43BA415
:1000F00055A459A45BA45FA467A470E875E87AE8E6
:1001000084E88EE807E998E8A0E8A8E8B2E8BCE847
:10011000C6E8D5E8DFE807E9E9E8F3E8FDE828E91B
:100120002BE91AE91EE924E962E92FE933E939E903
:100130003DE941E947E94BE94FE962E955E959E908
:100140005DE9084AD73B3BCE016E84BCBFFDC12FA1
:100150003D6C74319ABD56833DDA3D00C77F11BEB8
:10016000D9E4BB4C3E916BAAAABE000000803F05BB
:10017000A84CCDB2D44EB93836A9020C50B99186EC
:1001800088083CA6AAAA2ABE000000803F00486159
:100190007264636F6465642044656661756C742085
:1001A00053657474696E6773204C6F616465640095
:1001B00053746F7265642073657474696E6773201D
:1001C0007265747269657665640020440020490098
:1001D0002020204D33303120500050494420736599
:1001E0007474696E67733A00205A00205900202009
:1001F0004D323036205800486F6D65206F6666734B
:10020000657420286D6D293A00204500205A002091
:10021000580020420020540020204D323035205319
:1002200000416476616E6365642076617269616223
:100230006C65733A20533D4D696E20666565647246
:1002400061746520286D6D2F73292C20543D4D69F4
:100250006E2074726176656C206665656472617487
:100260006520286D6D2F73292C20423D6D696E69C4
:100270006D756D207365676D656E742074696D654D
:1002800020286D73292C20583D6D6178696D756D3E
:10029000205859206A65726B20286D6D2F73292CA8
:1002A00020205A3D6D6178696D756D205A206A6510
:1002B000726B20286D6D2F73292C2020453D6D61B8
:1002C00078696D756D2045206A65726B20286D6DAB
:1002D0002F73290020540020204D32303420530049
:1002E000416363656C65726174696F6E3A20533D5A
:1002F000616363656C65726174696F6E2C20543D37
:100300007265747261637420616363656C657261A8
:1003100074696F6E00204500205A0020590020208B
:100320004D3230312058004D6178696D756D204136
:100330006363656C65726174696F6E20286D6D2FE3
:100340007332293A00204500205A0020590020200D
:100350004D3230332058004D6178696D756D2066DF
:10036000656564726174657320286D6D2F73293A19
:1003700000204500205A0020590020204D3932200D
:10038000580053746570732070657220756E6974BF
:100390003A0053657474696E67732053746F7265A5
:1003A000640053544F505045442E20005072696EE3
:1003B0007465722073746F70706564206475652055
:1003C000746F206572726F72732E20466978207484
:1003D0006865206572726F7220616E642075736546
:1003E000204D39393920746F2072657374617274CD
:1003F0002E202854656D7065726174757265206970
:10040000732072657365742E20536574206974209F
:1004100061667465722072657374617274696E6767
:1004200029004B494C4C45442E20005072696E7493
:1004300065722068616C7465642E206B696C6C2831
:10044000292063616C6C656421006F6B00526573D9
:10045000656E643A20000A00207A3A200020793A3A
:10046000200020783A2000426564002200556E6B1F
:100470006E6F776E20636F6D6D616E643A2022003F
:100480004368616E67652066696C616D656E7400B6
:100490005A204F6666736574203A20007A5F6D615A
:1004A000783A20007A5F6D696E3A20005A204F66D4
:1004B00066736574005A204F6666736574206F6BAF
:1004C000007A5F6D61783A20007A5F6D696E3A203C
:1004D00000795F6D61783A2000795F6D696E3A202E
:1004E00000785F6D61783A2000785F6D696E3A2020
:1004F00000205A3A0020593A0020436F756E74204C
:10050000583A200020453A00205A3A0020593A0033
:10051000583A004649524D574152455F4E414D456C
:100520003A4D61726C696E20312E302E322B204490
:100530006576656C6F706D656E742046726F6D20A8
:100540004172636869766520534F555243455F4356
:100550004F44455F55524C3A68747470733A2F2F6C
:100560006769746875622E636F6D2F4D61726C6977
:100570006E4669726D776172652F4D61726C696E3E
:100580002050524F544F434F4C5F56455253494FA2
:100590004E3A312E30204D414348494E455F545923
:1005A00050453A4D656E64656C204558545255442B
:1005B00045525F434F554E543A3120555549443AC0
:1005C00030303030303030302D303030302D303031
:1005D00030302D303030302D303030303030303021
:1005E000303030300A004D656E64656C204F6666B1
:1005F0002E004D656E64656C2072656164792E0015
:1006000042656420646F6E652E0020423A002045EA
:100610003A00543A004265642048656174696E6727
:100620002E0048656174696E6720646F6E652E00E8
:1006300020573A0020453A00543A004865617469F1
:100640006E672E2E2E002042403A0020403A0020B5
:100650002F003A00205400202F0020423A00202F83
:10066000006F6B20543A000A0A005374616E646193
:10067000726420446576696174696F6E3A20000A7D
:10068000004D65616E3A20000A002020207A3A2051
:100690000000793A2000783A20003F537065636982
:1006A00066696564206E756D626572206F66206C88
:1006B00065677320696E206D6F76656D656E742059
:1006C0006E6F7420706C61757361626C652E0A00C8
:1006D0003F537065636966696564205920706F7364
:1006E0006974696F6E206F7574206F662072616E19
:1006F00067652E0A003F537065636966696564200B
:100700005820706F736974696F6E206F7574206FF5
:10071000662072616E67652E0A003F5370656369DB
:10072000666965642073616D706C652073697A65B4
:10073000206E6F7420706C61757361626C652E0A37
:100740000046756C6C20737570706F7274206174E4
:100750003A20687474703A2F2F33647072696E7423
:10076000626F6172642E636F6D2F666F72756D2E8E
:100770007068700A004D3438205A2D50726F6265CF
:10078000205265706561746162696C697479207466
:100790006573742E20202056657273696F6E203247
:1007A0002E30300A003F566572626F7365204C65CB
:1007B00076656C206E6F7420706C61757361626C0D
:1007C000652E0A002569206D696E2C20256920732D
:1007D000656300456E642066696C65206C6973749E
:1007E00000426567696E2066696C65206C69737488
:1007F000004E6F206D6F76652E004D656E64656CE2
:100800002072656164792E00526573756D696E673B
:10081000207072696E74005761697420666F72206F
:10082000757365722E2E2E000A00205A3A20002081
:10083000593A200020583A20004265640020643A6A
:10084000200020623A200045716E20636F65666665
:10085000696369656E74733A20613A2000486F6D70
:100860006520582F59206265666F7265205A0048CE
:100870006F6D6520582F59206265666F7265205A2A
:10088000005A2070726F6265206F75742E20626549
:1008900064005A2070726F6265206F75742E20623A
:1008A000656400486F6D6520582F59206265666F3A
:1008B0007265205A00486F6D6520582F5920626577
:1008C000666F7265205A00536C6565702E2E2E007F
:1008D000256920686F757273202569206D696E75B2
:1008E00074657300446F6E65207072696E74696E12
:1008F000672066696C650053544F505045442E2064
:10090000005072696E7465722073746F70706564E4
:100910002064756520746F206572726F72732E206B
:1009200046697820746865206572726F7220616E06
:100930006420757365204D39393920746F207265D4
:1009400073746172742E202854656D7065726174C1
:100950007572652069732072657365742E20536506
:1009600074206974206166746572207265737461A5
:100970007274696E6729004E6F204C696E65204E57
:10098000756D626572207769746820636865636B52
:1009900073756D2C204C617374204C696E653A2020
:1009A000004E6F20436865636B73756D20776974C3
:1009B00068206C696E65206E756D6265722C204CC6
:1009C000617374204C696E653A2000636865636BDF
:1009D00073756D206D69736D617463682C204C6153
:1009E0007374204C696E653A20004C696E65204E28
:1009F000756D626572206973206E6F74204C61732F
:100A000074204C696E65204E756D6265722B312CB9
:100A1000204C617374204C696E653A20004D313171
:100A20003000446F6E6520736176696E6720666979
:100A30006C652E006F6B004D3239002020506C61C8
:100A40006E6E657242756666657242797465733A58
:100A500020002046726565204D656D6F72793A20E1
:100A6000004A756E203232203230313600436F6DCD
:100A700070696C65643A200028444959452C204C23
:100A8000532B414C2900207C20417574686F723AC9
:100A900020004A756E203232203230313620313615
:100AA0003A35313A323600204C6173742055706407
:100AB000617465643A200020312E302E322B004DB7
:100AC00061726C696E0020536F6674776172652085
:100AD000526573657400205761746368646F6720A2
:100AE0005265736574002042726F776E206F757463
:100AF000205265736574002045787465726E616C70
:100B000020526573657400506F776572557000737D
:100B100074617274002200656E717565696E67207C
:100B200022002200656E717565696E67202200FFE4
:100B3000FFFF0000A0400000A040000000400000B7
:100B40004843000048430000484300000000000004
:100B5000000000000000000048430000484300007F
:100B60004843000000000000000000000000656332
:100B7000686F3A004572726F723A007C3C3E5E2BA1
:100B80003D3F2F5B5D3B2C2A225C004D38342058C2
:100B90002059205A20450043616E6E6F7420656EA7
:100BA000746572207375626469723A20004D323444
:100BB000004D3233202573006175746F25692E67EF
:100BC000006572726F722077726974696E67207443
:100BD0006F2066696C65004E6F74205344207072FC
:100BE000696E74696E67002F005344207072696EDD
:100BF00074696E67206279746520002E0044656C0C
:100C00006574696F6E206661696C65642C20466945
:100C10006C653A200046696C652064656C65746596
:100C2000643A002E006F70656E206661696C6564C1
:100C30002C2046696C653A200057726974696E67AA
:100C400020746F2066696C653A20002E006F706515
:100C50006E206661696C65642C2046696C653A207B
:100C6000002E006F70656E206661696C65642C20D3
:100C700046696C653A200046696C652073656C6551
:100C800063746564002053697A653A200046696C94
:100C900065206F70656E65643A20002E006F706588
:100CA0006E206661696C65642C2046696C653A202B
:100CB000004E6F772066726573682066696C653ACE
:100CC00020004E6F7720646F696E672066696C65DF
:100CD0003A20002220706F73002220706172656ECE
:100CE000743A2200535542524F5554494E452043C1
:100CF000414C4C207461726765743A2200747279B9
:100D0000696E6720746F2063616C6C207375622D4F
:100D100067636F64652066696C65732077697468C2
:100D200020746F6F206D616E79206C6576656C73D1
:100D30002E204D4158206C6576656C2069733A0011
:100D400053442063617264206F6B006F70656E5254
:100D50006F6F74206661696C656400766F6C756D89
:100D6000652E696E6974206661696C656400534420
:100D700020696E6974206661696C0020746F6F2051
:100D80006C6F6E6720657874727573696F6E207012
:100D9000726576656E7465640020636F6C642065AF
:100DA0007874727573696F6E2070726576656E7493
:100DB000656400656E6473746F7073206869743A5B
:100DC000205A00205A3A00656E6473746F70732065
:100DD0006869743A20590020593A00656E6473744A
:100DE0006F7073206869743A20580020583A006583
:100DF0006E6473746F7073206869743A200024F411
:100E0000D43050C38E20C2A24017828B7011127A48
:100E1000910D816CD90AA861E108C7586607615134
:100E200043061E4B5D05C145A7041A411104093D47
:100E30009803713931034036DB0265339102D430B7
:100E40005402802E1D02632CEE01752AC501B028C4
:100E5000A001102781018F2564012B244B01E02282
:100E60003401AC211F018D200D01801FFC00841E68
:100E7000ED00971DDF00B81CD200E61BC600201B4A
:100E8000BC00641AB200B219A8000A19A0006A18BE
:100E90009900D117910040178B00B51684003116C8
:100EA0007E00B31579003A157300C7146F0058140B
:100EB0006A00EE1366008813630025135E00C712F4
:100EC0005B006C12570015125400C11151007011D3
:100ED0004F0021114B00D61049008D1047004610DD
:100EE000440002104200C00F4000800F3E00420F3D
:100EF0003C00060F3B00CB0E3800930E37005C0E13
:100F00003500270E3400F30D3200C10D3100900D75
:100F10003000600D2E00320D2D00050D2C00D90C77
:100F20002B00AE0C2900850C29005C0C2700350C29
:100F300027000E0C2600E80B2400C40B2400A00B95
:100F400023007D0B23005A0B2100390B2100180BC5
:100F50002000F80A1F00D90A1E00BB0A1E009D0AC5
:100F60001D00800A1D00630A1C00470A1B002C0A92
:100F70001B00110A1A00F7091A00DD091900C4093B
:100F80001900AB091900920917007B0918006309C1
:100F900017004C09160036091600200916000A0928
:100FA0001500F5081500E0081400CC081400B80876
:100FB0001400A4081400900813007D0812006B08A8
:100FC00013005808120046081200340811002308C4
:100FD00011001208110001081100F0071000E007CD
:100FE0001000D0071000C0071000B0070F00A107C5
:100FF000100091070E0083070F0074070F006507AC
:101000000E0057070E0049070E003B070D002E0784
:101010000E0020070D0013070D0006070D00F9064E
:101020000C00ED060D00E0060C00D4060C00C8060E
:101030000C00BC060C00B0060C00A4060B009906C0
:101040000C008D060B0082060B0077060B006C0669
:101050000B0061060A0057060B004C060A00420608
:101060000A0038060A002E060A0024060A001A069C
:101070000A001006090007060A00FD050900F4052C
:101080000900EB050900E2050900D9050900D005B2
:101090000900C7050900BE050900B5050800AD0532
:1010A0000800A50509009C050800940508008C05AA
:1010B0000800840508007C050800740508006C051C
:1010C0000700650508005D050700560508004E0588
:1010D00007004705070040050800380507003105EF
:1010E00007002A050700230507001C050600160552
:1010F00007000F0507000805060002050700FB04AE
:101100000600F5040700EE040600E8040600E20409
:101110000700DB040600D5040600CF040600C9045E
:101120000600C3040600BD040600B7040600B104AF
:101130000500AC040600A6040600A00405009B04FC
:10114000060095040500900406008A040500850445
:101150000500800406007A0405007504050070048B
:1011600005006B04050066040500610405005C04CD
:10117000050057040500520405004D04050048040D
:101180000500430405003E0404003A04050035044C
:101190000500300404002C04050027040400230487
:1011A00005001E0404001A040400160405001104BE
:1011B00004000D04040009040500040404000004F4
:1011C0000400FC030400F8030400F4030400F0032B
:1011D0000400EC030400E8030400E4030400E0035B
:1011E0000400DC030400D8030400D4030400D0038B
:1011F0000400CC030400C8030300C503030024F467
:1012000004D9201BC40C5C0E9804C4095F02650756
:101210007101F405F900FB04B30048048700C10321
:1012200069005803550003034500BE023A008402DA
:10123000310053022A002902250004022000E401A3
:101240001C00C8011900AF011700980114008401A7
:101250001300710110006101100051010E004301E3
:101260000D0036010B002B010B0020010B001501B6
:1012700009000C01090003010800FB000800F3004D
:101280000800EB000700E4000600DE000600D800BE
:101290000600D2000600CC000500C7000500C20011
:1012A0000500BD000400B9000400B5000400B10051
:1012B0000400AD000400A9000400A5000300A20082
:1012C00003009F0004009B000300980003009500AA
:1012D000020093000300900003008D0002008B00C9
:1012E00003008800020086000200840003008100E1
:1012F00002007F0002007D0002007B0002007900F6
:101300000200770001007600020074000200720003
:101310000100710002006F0002006D0001006C000E
:1013200002006A0001006900020067000100660017
:10133000010065000100640002006200010061001C
:101340000100600001005F0002005D0001005C0020
:1013500001005B0001005A00010059000100580023
:101360000100570001005600010055000100540023
:101370000100530000005300010052000100510021
:101380000100500001004F0001004E0000004E001F
:1013900001004D0001004C0001004B0000004B001B
:1013A00001004A0001004900010048000000480017
:1013B0000100470001004600000046000100450012
:1013C000000045000100440001004300000043000C
:1013D0000100420000004200010041000000410005
:1013E0000100400001003F0000003F0001003E00FE
:1013F00000003E0001003D0000003D0001003C00F7
:1014000000003C0000003C0001003B0000003B00ED
:1014100001003A0000003A000100390000003900E4
:1014200001003800000038000000380001003700DB
:1014300000003700010036000000360000003600D2
:1014400001003500000035000000350001003400C7
:1014500000003400000034000100330000003300BD
:1014600000003300010032000000320000003200B2
:1014700001003100000031000000310001003000A7
:10148000000030000000300001002F0000002F009D
:1014900000002F0000002F0001002E0000002E0091
:1014A00000002E0001002D0000002D0000002D0086
:1014B00000002D0001002C0000002C0000002C007A
:1014C00000002C0001002B0000002B0000002B006E
:1014D00000002B0001002A0000002A0000002A0062
:1014E00000002A0001002900000029000000290056
:1014F0000000290000002900010028000000280049
:10150000000028000000280000002800010027003B
:10151000000027000000270000002700000027002F
:101520000100260000002600000026000000260022
:101530000000260001002500000025000000250015
:101540000000250000002500000025000100240007
:1015500000002400000024000000240000002400FB
:1015600001002300000023000000230000002300EE
:1015700000002300000023000000230001002200DF
:1015800000002200000022000000220000002200D3
:1015900000002200010021000000210000002100C5
:1015A00000002100000021000000210000002100B7
:1015B00001002000000020000000200000002000AA
:1015C000000020000000200000002000000020009B
:1015D00001001F0000001F0000001F0000001F008E
:1015E00000001F0000001F0000001F0001001E007F
:1015F00000001E0000001E0000001E0000004572DA
:10160000723A204D415854454D50204245440054B3
:10161000656D706572617475726520686561746569
:101620006420626564207377697463686564206F01
:1016300066662E204D415854454D5020747269679E
:101640006765726564202121004572723A204D4918
:101650004E54454D50003A20457874727564657259
:10166000207377697463686564206F66662E204D09
:10167000494E54454D5020747269676765726564C0
:101680002021004572723A204D415854454D50007A
:101690003A20457874727564657220737769746353
:1016A000686564206F66662E204D415854454D5044
:1016B00020747269676765726564202100202D209F
:1016C000496E76616C6964206578747275646572C0
:1016D000206E756D6265722021005049442041756D
:1016E000746F74756E652066696E697368656421D0
:1016F0002050757420746865206C617374204B7081
:101700002C204B6920616E64204B6420636F6E73E4
:1017100074616E74732066726F6D2061626F76659E
:1017200020696E746F20436F6E66696775726174AD
:10173000696F6E2E6800504944204175746F74754E
:101740006E65206661696C6564212074696D656FE2
:1017500075740020403A006F6B20543A006F6B2084
:10176000423A00504944204175746F74756E65208B
:101770006661696C6564212054656D706572617481
:1017800075726520746F6F206869676800204B640C
:101790003A2000204B693A2000204B703A2000206C
:1017A000436C617373696320504944200020547571
:1017B0003A2000204B753A2000206D61783A2000D5
:1017C000206D696E3A200020643A20002062696131
:1017D000733A200070012C0190012701B001220111
:1017E000C0011D01F00118011002130130020E01A9
:1017F0006002090190020401C002FF000003FA0028
:101800004003F5008003F000D003EB002004E60065
:101810007004E100E004DC004005D700C005D20000
:101820004006CD00D006C8008007C3003008BE00C7
:10183000F008B900C009B400B00AAF00B00BAA00AC
:10184000D00CA500000EA000500F9B00C010960009
:101850005012910000148C00C0158700B017820050
:10186000B0197D00D01B7800001E730040206E0070
:1018700090226900F024640040275F0090295A00FC
:10188000E02B5500102E500020304B001032460047
:10189000E033410090353C0010373700703832009B
:1018A000A0392D00B03A2800A03B2300603C1E0068
:1018B000103D1900903D1400103E0F00703E0A00CC
:1018C000C03E0500003F0000436172642072656DF8
:1018D0006F766564004361726420696E736572742B
:1018E0006564004D33303020533639382050323063
:1018F00030004D33303020533635392050323030BF
:10190000002D2D3A2D2D002D2D2D00534400205952
:1019100000012000012000426162797374657070DB
:10192000696E6720580042616279737465707069EE
:101930006E67205900426162797374657070696ED8
:1019400067205A004D363030004368616E6765206D
:1019500066696C616D656E7400426162797374656D
:1019600070205A0042616279737465702059004298
:1019700061627973746570205800466C6F7720300F
:1019800000466C6F77203000466C6F7700466C6FB6
:10199000770046616E2073706565640046616E2055
:1019A00073706565640042656400426564004E6F53
:1019B0007A7A6C65004E6F7A7A6C65005370656553
:1019C00064005370656564004D61696E0050726516
:1019D0006865617420504C41204265640050726516
:1019E0006865617420504C4120310050726570610F
:1019F00072650050726568656174204142532042EF
:101A000065640050726568656174204142532031FD
:101A1000005072657061726500580059005A0045A7
:101A20007874727564657200457874727564657255
:101A3000004D6F7665205A004D6F76652059004D38
:101A40006F76652058004D6F766520617869730068
:101A50004D6F766520302E316D6D004D6F766520AF
:101A6000316D6D004D6F76652031306D6D005072B7
:101A70006570617265004D6F7665206178697300ED
:101A80004D38300053776974636820706F776572E2
:101A9000206F6E004D383100537769746368207091
:101AA0006F776572206F666600436F6F6C646F7747
:101AB0006E00507265686561742041425300507237
:101AC000656865617420504C410053657420686FEF
:101AD0006D65206F66667365747300473238004128
:101AE00075746F20686F6D65004D383400446973FC
:101AF00061626C65207374657070657273004D610E
:101B0000696E0053746F7265206D656D6F72790038
:101B100042656400426564004E6F7A7A6C65004EDF
:101B20006F7A7A6C650046616E207370656564003B
:101B300046616E2073706565640054656D706572F2
:101B400061747572650053746F7265206D656D6F99
:101B500072790042656400426564004E6F7A7A6C67
:101B600065004E6F7A7A6C650046616E2073706511
:101B700065640046616E2073706565640054656D30
:101B80007065726174757265005072656865617424
:101B90002041425320636F6E660050726568656134
:101BA0007420504C4120636F6E66005049442D43B1
:101BB000005049442D43005049442D4400504944AD
:101BC0002D44005049442D49005049442D490050AE
:101BD00049442D50005049442D50002002204661B8
:101BE00063740020022046616374002002204D616E
:101BF00078002002204D6178002002204D696E009F
:101C00002002204D696E004F6666004F6E20004F27
:101C10006666004F6E20004175746F74656D7000CC
:101C200046616E2073706565640046616E20737056
:101C30006565640042656400426564004E6F7A7AAF
:101C40006C65004E6F7A7A6C6500436F6E74726FCC
:101C50006C004573746570732F6D6D00457374650A
:101C600070732F6D6D005A73746570732F6D6D00F6
:101C70005A73746570732F6D6D005973746570734A
:101C80002F6D6D005973746570732F6D6D005873EF
:101C9000746570732F6D6D005873746570732F6D5C
:101CA0006D00412D7265747261637400412D72651F
:101CB000747261637400416D6178206500416D61EB
:101CC00078206500416D6178207A00416D6178204F
:101CD0007A00416D6178207900416D61782079004A
:101CE000416D6178207800416D617820780056540C
:101CF000726176206D696E005654726176206D694E
:101D00006E00566D696E00566D696E00566D617895
:101D1000206500566D6178206500566D6178207AE7
:101D200000566D6178207A00566D617820790056F2
:101D30006D6178207900566D6178207800566D616C
:101D40007820780056652D6A65726B0056652D6A9D
:101D500065726B00567A2D6A65726B00567A2D6A31
:101D600065726B005678792D6A65726B00567879CA
:101D70002D6A65726B00416363656C004163636546
:101D80006C005A204F6666736574005A204F666671
:101D900073657400436F6E74726F6C0046696C2ECD
:101DA000204469612E20310046696C2E204469610F
:101DB0002E2031004F6666004F6E20004F66660091
:101DC0004F6E20004520696E206D6D3300436F6EAD
:101DD00074726F6C00526573746F7265206661690E
:101DE0006C73616665004C6F6164206D656D6F7228
:101DF000790053746F7265206D656D6F727900465E
:101E0000696C616D656E74004D6F74696F6E00541E
:101E1000656D7065726174757265004D61696E0003
:101E20004D383420582059205A2045004D32340076
:101E30004D323320257300052E2E004D61696E0052
:101E40004E6F2053442063617264005072696E7457
:101E50002066726F6D2053440053746F702070724F
:101E6000696E7400526573756D65207072696E7469
:101E7000005061757365207072696E7400436F6EF7
:101E800074726F6C00507265706172650054756E8B
:101E90006500496E666F2073637265656E000A00A7
:101EA000207A3A200020793A200020783A20000257
:101EB00000000A0B02090C0D0E08070304010000C4
:101EC0000000000000000000000000000000000012
:101ED00000000000000000000000000012111000CF
:101EE00000000000000000000000000000000000F2
:101EF000000000000000010210202008081020400F
:101F000010204080020102010804020101020408BD
:101F1000102040808040201008040201800402014B
:101F20008040201008040201080402010102040894
:101F3000102040800102040810204080050505059E
:101F4000070508080808020202020A0A0808040431
:101F5000040401010101010101010303030303035F
:101F60000303040707070C0C0C0C0C0C0C0C0202EE
:101F7000020206060606060606060B0B0B0B0B0BEB
:101F80000B0B000020002300260029002C002F004E
:101F900032000001000003010601090100002200D7
:101FA000250028002B002E00310034000201000023
:101FB000050108010B0100002100240027002A0070
:101FC0002D003000330001010000040107010A0167
:101FD0004E414E494E495459494E46CDCCCC3D0A0E
:101FE000D7233C17B7D13877CC2B329595E6241FF1
:101FF000B14F0A000020410000C84200401C4620AA
:10200000BCBE4CCA1B0E5AAEC59D74006E4EFECDB2
:10201000724E11241FBECFEFD1E2DEBFCDBF00E074
:102020000CBF15E0A0E0B2E0EAE1F0EF01E00BBF89
:1020300002C007900D92AA31B107D9F722E1AAE1B7
:10204000B5E001C01D92A33FB207E1F710E2C0E185
:10205000D0E200E006C022970109FE010BBF0E94FA
:102060000AECCC30D10780E00807A9F70E9423E7EB
:102070000C94FBF70C940000EF92FF920F931F93C8
:10208000CF93DF931F92CDB7DEB78C017B01460F54
:10209000F70161917F01F8018081918149830E945C
:1020A00044F7F80180819181019691838083498171
:1020B0004E11EECF0F90DF91CF911F910F91FF90B6
:1020C000EF900895EF92FF920F931F93CF93DF93BA
:1020D0001F92CDB7DEB78C017B01460FF8018081DE
:1020E000918149830E943CF7F70181937F01F801B8
:1020F0008081918101969183808349814E11EECF39
:102100000F90DF91CF911F910F91FF90EF90089565
:102110000F931F93CF93DF93CDB7DEB72C970FB6F6
:10212000F894DEBF0FBECDBF80E390E3A0E3B0E044
:102130008D839E83AF83B88704E610E01C870B87EE
:1021400044E0BE016B5F7F4FCE010B9695DF40E10F
:102150006DE871E1CE010B968FDF40E16DE971E131
:10216000CE010B9689DF40E16DE771E1CE010B9660
:1021700083DF44E065E771E1CE010B967DDF44E04B
:1021800061E771E1CE010B9677DF44E069E771E129
:10219000CE010B9671DF44E061E671E1CE010B9652
:1021A0006BDF44E06DEA71E1CE010B9665DF44E040
:1021B0006DE671E1CE010B965FDF44E069E671E107
:1021C000CE010B9659DF44E065E671E1CE010B9636
:1021D00053DF4CE065E977E0CE010B964DDF42E03E
:1021E00067EB72E1CE010B9647DF42E065EB72E1EF
:1021F000CE010B9641DF42E063EB72E1CE010B961C
:102200003BDF42E061EB72E1CE010B9635DF42E04D
:102210006FEA72E1CE010B962FDF42E06DEA72E1C8
:10222000CE010B9629DF44E062E877E0CE010B9601
:1022300023DF44E066E872E0CE010B961DDF44E048
:1022400062E872E0CE010B9617DF44E06EE772E0C1
:10225000CE010B9611DF80E290E09A87898742E0F9
:10226000BE01675F7F4FCE010B9606DF41E061EB59
:1022700077E0CE010B9600DF44E061E272E0CE0130
:102280000B96FADE86E591E3A3E3B0E089839A83B7
:10229000AB83BC831C870B8744E0BE016F5F7F4F1D
:1022A000CE010B96E9DEEEE6FBE08491882341F057
:1022B0009091C00095FFFCCF8093C6003196F5CF7A
:1022C000E2E9F3E08491882341F09091C00095FF0A
:1022D000FCCF8093C6003196F5CF8091C00085FF7A
:1022E000FCCF8AE08093C6002C960FB6F894DEBF30
:1022F0000FBECDBFDF91CF911F910F910895CF9366
:10230000DF93CEE6DBE0FE018491882341F09091DB
:10231000C00095FFFCCF8093C6003196F5CFE2E870
:10232000F3E08491882341F09091C00095FFFCCFA9
:102330008093C6003196F5CF8091C00085FFFCCF19
:102340008AE08093C600FE018491EEE6FBE08823DC
:1023500049F09091C00095FFFCCF8093C600319664
:102360008491F5CF40918D1150918E1160918F1114
:10237000709190118AE793E00E94DD1C40919111C9
:1023800050919211609193117091941187E793E0AD
:102390000E94DD1C4091951150919611609197110A
:1023A0007091981184E793E00E94DD1C409199118F
:1023B00050919A1160919B1170919C1181E793E06B
:1023C0000E94DD1C8091C00085FFFCCF8AE08093D5
:1023D000C600FE018491EEE6FBE0882349F090916F
:1023E000C00095FFFCCF8093C60031968491F5CF55
:1023F000E7E5F3E08491882341F09091C00095FFD8
:10240000FCCF8093C6003196F5CF8091C00085FF48
:10241000FCCF8AE08093C600FE018491EEE6FBE0EB
:10242000882349F09091C00095FFFCCF8093C600AF
:1024300031968491F5CF40919D1150919E116091FC
:102440009F117091A0118EE493E00E94DD1C4091D9
:10245000A1115091A2116091A3117091A4118BE46C
:1024600093E00E94DD1C4091A5115091A61160914E
:10247000A7117091A81188E493E00E94DD1C40919F
:10248000A9115091AA116091AB117091AC1185E422
:1024900093E00E94DD1C8091C00085FFFCCF8AE0A4
:1024A0008093C600FE018491EEE6FBE0882349F0AC
:1024B0009091C00095FFFCCF8093C6003196849127
:1024C000F5CFE7E2F3E08491882341F09091C000DA
:1024D00095FFFCCF8093C6003196F5CF8091C00068
:1024E00085FFFCCF8AE08093C600FE018491EEE672
:1024F000FBE0882349F09091C00095FFFCCF8093CA
:10250000C60031968491F5CF40917D1150917E1196
:1025100060917F11709180118EE193E00E94FF1C09
:1025200040918111509182116091831170918411B9
:102530008BE193E00E94FF1C409185115091861120
:10254000609187117091881188E193E00E94FF1CCF
:102550004091891150918A1160918B1170918C1169
:1025600085E193E00E94FF1C8091C00085FFFCCFB5
:102570008AE08093C600FE018491EEE6FBE08823AA
:1025800049F09091C00095FFFCCF8093C600319632
:102590008491F5CFE0EEF2E08491882341F09091B0
:1025A000C00095FFFCCF8093C6003196F5CF809197
:1025B000C00085FFFCCF8AE08093C600FE018491B5
:1025C000EEE6FBE0882349F09091C00095FFFCCF38
:1025D0008093C60031968491F5CF4091751150914A
:1025E0007611609177117091781187ED92E00E94D9
:1025F000DD1C4091711150917211609173117091B5
:10260000741184ED92E00E94DD1C8091C00085FF72
:10261000FCCF8AE08093C600FE018491EEE6FBE0E9
:10262000882349F09091C00095FFFCCF8093C600AD
:1026300031968491F5CFE1E2F2E08491882341F074
:102640009091C00095FFFCCF8093C6003196F5CFE6
:102650008091C00085FFFCCF8AE08093C600FE0118
:102660008491EEE6FBE0882349F09091C00095FF4D
:10267000FCCF8093C60031968491F5CF40917911BB
:1026800050917A1160917B1170917C1188E192E0F8
:102690000E94DD1C409161115091621160916311A3
:1026A0007091641185E192E00E94DD1C4091AD11B2
:1026B0005091AE116091AF117091B01182E192E032
:1026C0000E94FF1C40916D1150916E1160916F112D
:1026D000709170118FE092E00E94DD1C40916911B1
:1026E00050916A1160916B1170916C118CE092E0C5
:1026F0000E94DD1C40916511509166116091671137
:102700007091681189E092E00E94DD1C8091C00008
:1027100085FFFCCF8AE08093C600FE018491EEE63F
:10272000FBE0882349F09091C00095FFFCCF809397
:10273000C60031968491F5CFE7EFF1E084918823CC
:1027400041F09091C00095FFFCCF8093C600319678
:10275000F5CF8091C00085FFFCCF8AE08093C60052
:10276000FE018491EEE6FBE0882349F09091C000E1
:1027700095FFFCCF8093C60031968491F5CF4091B0
:1027800095075091960760919707709198078EEE84
:1027900091E00E94DD1C4091990750919A07609149
:1027A0009B0770919C078BEE91E00E94DD1C40918D
:1027B0009D0750919E0760919F077091A00788EE3A
:1027C00091E00E94DD1C8091C00085FFFCCF8AE073
:1027D0008093C600FE018491EEE6FBE0882349F079
:1027E0009091C00095FFFCCF8093C60031968491F4
:1027F000F5CFEAEDF1E08491882341F09091C0009B
:1028000095FFFCCF8093C6003196F5CF8091C00034
:1028100085FFFCCF8AE08093C600FE01C491EEE6FE
:10282000FBE0CC2349F08091C00085FFFCCFC09332
:10283000C6003196C491F5CF40918602509187022F
:10284000609188027091890280ED91E00E94DD1C08
:10285000609182027091830280918402909185023E
:102860000E9412A5AB01BC018DEC91E00E94DD1C21
:1028700060917E0270917F0280918002909181022E
:102880000E941EA5AB01BC018AEC91E00E94DD1CF8
:102890008091C00085FFFCCF8AE08093C600DF9165
:1028A000CF910895AF92BF92CF92DF92EF92FF92B5
:1028B0000F931F93CF93DF93CDB7DEB7E0970FB69B
:1028C000F894DEBF0FBECDBF80E1E3EAF2E0DE01A7
:1028D000919601900D928A95E1F780E1E3EBF2E0A9
:1028E000DE01519601900D928A95E1F780E1E3ECCB
:1028F000F2E0DE01119601900D928A95E1F76E01EA
:1029000081E2C80ED11C8DE8E82E81E1F82E8E01FF
:102910000F5E1F4F6DE971E1AE014F5F5F4F9DE7A5
:10292000A92E91E1B92E20E030E0F601819191913C
:10293000A191B1916F01F70181939193A193B1930B
:102940007F01F80181919191A191B1918F01FB01DA
:1029500081939193A193B193BF01FA0181919191D8
:10296000A191B191AF01F50181939193A193B1939D
:102970005F012F5F3F4F24303105B9F60E94787E0A
:1029800080E090E0AFE2B4E480937511909376110B
:10299000A0937711B0937811809371119093721175
:1029A000A0937311B09374111092791110927A114F
:1029B00010927B1110927C1180E29EE4A0E0B0E0C6
:1029C0008093AD119093AE11A093AF11B093B0115D
:1029D00010926111109262111092631110926411A1
:1029E00080E090E0A0E7B1E480936D1190936E11C8
:1029F000A0936F11B09370118DEC9CECACECBEE326
:102A00008093691190936A11A0936B11B0936C112C
:102A100080E090E0A0EEB0E48093651190936611A1
:102A2000A0936711B093681110929D0710929E07B2
:102A300010929F071092A0071092990710929A0780
:102A400010929B0710929C07109295071092960780
:102A5000109297071092980784EB90E09093B81229
:102A60008093B71282E390E09093B6128093B512F0
:102A70008FEF90E09093B4128093B31220EF30E088
:102A80003093B2122093B1122AE530E03093B012A5
:102A90002093AF129093AE128093AD1210928207E2
:102AA0001092830710928407109285078AE999E9AA
:102AB000A1EBB1E48093860290938702A0938802F1
:102AC000B093890261E77DE38AE89FE30E940CA549
:102AD00060938202709383028093840290938502B4
:102AE00060E070E084EE92E40E9418A560937E029C
:102AF00070937F0280938002909381020E94529B88
:102B000080E090E0A0E8BFE380937A0290937B029C
:102B1000A0937C02B0937D021092B10780E090E018
:102B2000A0E4B0E48093210290932202A0932302B8
:102B3000B09324020E942D29EEE6FBE084918823C5
:102B400041F09091C00095FFFCCF8093C600319674
:102B5000F5CFEEE8F1E08491882341F09091C00038
:102B600095FFFCCF8093C6003196F5CF8091C000D1
:102B700085FFFCCF8AE08093C600E0960FB6F894FC
:102B8000DEBF0FBECDBFDF91CF911F910F91FF90A0
:102B9000EF90DF90CF90BF90AF900895CF93DF93E9
:102BA000CDB7DEB72C970FB6F894DEBF0FBECDBF02
:102BB00084E690E09C878B8786E591E3A3E3B0E011
:102BC00089839A83AB83BC8344E0BE016B5F7F4FF4
:102BD000CE010B9677DA43E050E0BE016B5F7F4F8A
:102BE000CE0101960E9403F5892B09F0BFC040E198
:102BF0006DE871E1CE010B9665DA40E16DE971E1B6
:102C0000CE010B965FDA40E16DE771E1CE010B96E4
:102C100059DA0E94787E44E065E771E1CE010B96B7
:102C200051DA44E061E771E1CE010B964BDA44E002
:102C300069E771E1CE010B9645DA44E061E671E1A6
:102C4000CE010B963FDA44E06DEA71E1CE010B96BE
:102C500039DA44E06DE671E1CE010B9633DA44E0F7
:102C600069E671E1CE010B962DDA44E065E671E18B
:102C7000CE010B9627DA4CE065E977E0CE010B96A2
:102C800021DA42E067EB72E1CE010B961BDA42E0FB
:102C900065EB72E1CE010B9615DA42E063EB72E16F
:102CA000CE010B960FDA42E061EB72E1CE010B969A
:102CB00009DA42E06FEA72E1CE010B9603DA42E0F4
:102CC0006DEA72E1CE010B96FDD944E062E877E04F
:102CD000CE010B96F7D944E066E872E0CE010B9680
:102CE000F1D944E062E872E0CE010B96EBD944E002
:102CF0006EE772E0CE010B96E5D942E0BE01675F58
:102D00007F4FCE010B96DED941E061EB77E0CE013B
:102D10000B96D8D944E061E272E0CE010B96D2D98D
:102D20000E942D290E94529BEEE6FBE084918823AD
:102D300041F09091C00095FFFCCF8093C600319682
:102D4000F5CFE0EBF1E08491882341F09091C00051
:102D500095FFFCCF8093C6003196F5CF8091C000DF
:102D600085FFFCCF8AE08093C60001C09BDDC7DAF7
:102D70002C960FB6F894DEBF0FBECDBFDF91CF917A
:102D800008951F920F920FB60F9211240BB60F9257
:102D90002F933F934F935F936F938F939F93EF93F3
:102DA000FF936091C60020919B0530919C05C9015D
:102DB00001968F77992740919D0550919E05841724
:102DC000950741F0F901E55EFA4F608390939C0509
:102DD00080939B05FF91EF919F918F916F915F91F0
:102DE0004F913F912F910F900BBE0F900FBE0F9000
:102DF0001F9018959A01AB01211581EE3807410506
:102E0000510549F182E08093C00060E079E08DE3F4
:102E100090E00E94D8EB2150310941095109CA01C3
:102E2000B90122E030E040E050E00E94D8EB30935E
:102E3000C5002093C4008091C10080618093C100CF
:102E40008091C10088608093C1008091C10080683A
:102E50008093C10008951092C00020E130E0E7CFD8
:102E600020919D0530919E0580919B0590919C0538
:102E70008217930771F0F901E55EFA4F80812F5FA9
:102E80003F4F2F77332730939E0520939D0590E089
:102E900008958FEF9FEF089580919D0590919E0575
:102EA00090939C0580939B0508954F925F926F923B
:102EB0007F928F929F92AF92BF92CF92DF92EF92CA
:102EC000FF920F931F93CF93DF93CDB7DEB7A097F9
:102ED0000FB6F894DEBF0FBECDBF5C0141155105A2
:102EE00061057105E9F420E030E040E350E060E086
:102EF00070E0A0960FB6F894DEBF0FBECDBFDF9195
:102F0000CF911F910F91FF90EF90DF90CF90BF90E6
:102F1000AF909F908F907F906F905F904F905BC02D
:102F20008E010F5F1F4FC12CD12C76014801422E1C
:102F3000512C612C712C8FEFC81AD80AE80AF80AB4
:102F4000CB01BA01A30192010E94B6EBCA01F801BC
:102F500061938F01A901BC014115510561057105FE
:102F600051F7F1E0CF1AD108E108F108F401EC0DB6
:102F7000FD1D80818A3010F440E301C047E3480F13
:102F8000552747FD5095652F752F20E030E0C5018E
:102F900022D081E0C81AD108E108F108EFEFCE167F
:102FA000DE06EE06FE0611F7A0960FB6F894DEBF19
:102FB0000FBECDBFDF91CF911F910F91FF90EF908A
:102FC000DF90CF90BF90AF909F908F907F906F9049
:102FD0005F904F9008952115310539F48091C0001C
:102FE00085FFFCCF4093C60008952A30310509F4CF
:102FF0001CC05BCFCF93DF93EC0120E030E04DE0CD
:1030000050E060E070E0E7DF20E030E04AE050E0D0
:1030100060E070E0CE01DF91CF91DDCF9A01AB018E
:10302000662757FD6095762FD6CFCF92DF92EF922D
:10303000FF92CF93DF93EC016A017B0177FF0FC012
:1030400020E030E04DE250E060E070E0C4DFF0945A
:10305000E094D094C094C11CD11CE11CF11C2AE066
:10306000B701A601CE01DF91CF91FF90EF90DF90E5
:10307000CF901BCF2115310539F48091C00085FF19
:10308000FCCF4093C600089510CF9A01462F50E020
:1030900060E070E0EFCFCF93DF93EC019A01AB01DA
:1030A00060E070E0E7DFCE01DF91CF91A3CF8F9298
:1030B0009F92AF92BF92CF92DF92EF92FF921F93B7
:1030C000CF93DF93EC016A017B01122F20E030E007
:1030D000A901C701B6010E94F7EC87FF0CC020E0F0
:1030E00030E04DE250E060E070E0CE0174DFF7FACE
:1030F000F094F7F8F094B12C60E070E080E09FE38A
:10310000B11641F020E030E040E251E40E94FEECD4
:10311000B394F6CF9B01AC01C701B6010E941EEC2F
:103120006B017C010E946BED4B015C010E9497EDED
:103130009B01AC01C701B6010E941DEC6B017C0133
:103140002AE0B501A401CE01B0DE112361F0E1EF68
:10315000F4E08191882339F09091C00095FFFCCF75
:103160008093C600F6CF112319F120E030E040E251
:1031700051E4C701B6010E94CCEF6B017C010E94B3
:1031800066ED4B01AA2497FCA094BA2CB501A401CA
:10319000CE014BDFC501B4010E9499ED9B01AC014A
:1031A000C701B6010E941DEC6B017C011150DBCF01
:1031B000DF91CF911F91FF90EF90DF90CF90BF9064
:1031C000AF909F908F90089572CFFC01659175919B
:1031D00085919491089580910B0290910C02A09199
:1031E0000D02B0910E0280935A0790935B07A09353
:1031F0005C07B0935D078091290290912A02909319
:10320000B3078093B20784E690E090932A028093FC
:1032100029020E947AE76093B9057093BA058093FA
:10322000BB059093BC0581E00C94E49080E00E9483
:10323000E49080915A0790915B07A0915C07B09150
:103240005D0780930B0290930C02A0930D02B09344
:103250000E028091B2079091B30790932A02809357
:1032600029020E947AE76093B9057093BA058093AA
:10327000BB059093BC0508952F923F924F925F92A9
:103280006F927F928F929F92AF92BF92CF92DF9276
:10329000EF92FF920F931F93CF93DF93CDB7DEB7DB
:1032A0002C970FB6F894DEBF0FBECDBF69837A832B
:1032B0008B839C8329013A01ED82FE820F8318875C
:1032C00020910B0230910C0240910D0250910E02A0
:1032D00029873A874B875C8760913302709134026B
:1032E000809135029091360260930B0270930C022C
:1032F00080930D0290930E02A9EAB7E0ED92FD9241
:103300000D931C93139720E030E040E752E40E94B5
:10331000FEEC4B015C01E5EAF7E02081318142815E
:10332000538181EA282E87E0382ED1016D917D915D
:103330008D919C91A1E8B7E0BF93AF93EDEACE2EBB
:10334000E7E0DE2EED80FE800F8118850E94BB72C3
:103350000E94B19880E090E0AAEFB5E480930B0260
:1033600090930C02A0930D02B0930E0229813A8132
:103370004B815C81D1012D933D934D935C931397C9
:10338000E5EAF7E04082518262827382A9EAB7E0FF
:10339000ED90FD900D911C91A1E8B7E0BF93AF9324
:1033A000F5E58F2E982CF5E0AF2EF3E4BF2EA301A8
:1033B000920169817A818B819C810E94BB720E94FB
:1033C000B19829853A854B855C8520930B02309313
:1033D0000C0240930D0250930E020F900F900F902D
:1033E0000F902C960FB6F894DEBF0FBECDBFDF91C5
:1033F000CF911F910F91FF90EF90DF90CF90BF90F2
:10340000AF909F908F907F906F905F904F903F9084
:103410002F9008952F923F924F925F926F927F92DA
:103420008F929F92AF92BF92CF92DF92EF92FF92D4
:103430000F931F93CF93DF938BE492E00E945DE1A3
:10344000E3E3F2E0608171818281938160930B02FA
:1034500070930C0280930D0290930E0220E030E0F6
:1034600040E752E40E94FEEC4B015C01C5EAD7E064
:10347000288139814A815B81E1EAF7E060817181CD
:1034800082819381A1E82A2EA7E03A2E3F922F92C3
:10349000BDEACB2EB7E0DB2EE12CF12C00E211ECE3
:1034A0000E94BB720E94B19882E00E941A994B015F
:1034B0005C01288139814A815B81E1EAF7E0608122
:1034C000718182819381850174010E946A7D8AE302
:1034D0009BE07BDE9B01AC01C501B4010E941EECA8
:1034E0002B013C0120E030E040E752E460910B0208
:1034F00070910C0280910D0290910E020E94FEECE0
:103500004B015C01288139814A815B81E1EAF7E066
:1035100060817181828193813F922F928301720138
:103520000E94BB720E94B19820E030E040E85EE368
:10353000E3E3F2E060817181828193810E94CCEFAC
:103540004B015C0160930B0270930C0280930D029F
:1035500090930E028AE39BE038DE6B017C0120E051
:1035600030E040E752E4C501B4010E94FEEC4B019B
:103570005C01A7019601C701B6010E941EEC9B01E8
:10358000AC01C301B2010E941DEC7B018C012881BA
:1035900039814A815B81E1EAF7E060817181828152
:1035A00093813F922F92FDEACF2EF7E0DF2E0E940B
:1035B000BB720E94B19882E00E941A997B018C0133
:1035C0006093A9077093AA078093AB079093AC0709
:1035D000288139814A815B81E1EAF7E0608171816C
:1035E000828193810E946A7D0F900F900F900F90BF
:1035F0000F900F90DF91CF911F910F91FF90EF905F
:10360000DF90CF90BF90AF909F908F907F906F9002
:103610005F904F903F902F9008952F923F924F923E
:103620005F926F927F928F929F92AF92BF92CF9252
:10363000DF92EF92FF920F931F93CF93DF93CDB75B
:10364000DEB72A970FB6F894DEBF0FBECDBF9E83BC
:103650008D83FC01E15DF44FB490880F991F880FB2
:10366000991F9A8789878F55984F9A838983DC01A0
:103670001D921D921D921C921397B9EA2B2EB7E052
:103680003B2EF101E080F18002811381A5EAB7E0D1
:103690002D913D914D915C91E1EAF7E0608171815E
:1036A00082819381EDEACE2EE7E0DE2E0E946A7DD4
:1036B00089859A85825C944F88DD6B017C016B2D36
:1036C000772767FD7095872F972F0E9499ED2B0123
:1036D0003C0129853A852259384F3C832B8320E0D1
:1036E00030E040EC5FE3C701B6010E94CCEFA301DC
:1036F00092010E94CCEFAB81BC816D937D938D9341
:103700009C931397E985FA85E55DFD4FF887EF8374
:10371000608171818281938160930B0270930C02AE
:1037200080930D0290930E0220E030E040E752E4D7
:103730000E94FEEC4B015C01A6E7B7E0ED90FD9026
:103740000D911C91E2E7F7E02081318142815381A4
:10375000AEE6B7E06D917D918D919C91A1E8B7E0C7
:10376000BF93AF93FAE7CF2EF7E0DF2E0E94BB7234
:103770000E94B198A981BA811D921D921D921C923E
:103780001397F101E080F18002811381A5EAB7E08F
:103790002D913D914D915C91E1EAF7E0608171815D
:1037A00082819381ADEACA2EA7E0DA2E0E946A7D5B
:1037B00029853A852E5C344F1901C90106DD9058E0
:1037C000A30192010E94CCEFAB81BC816D937D93EC
:1037D0008D939C93139720E030E040E752E4609192
:1037E0000B0270910C0280910D0290910E020E94CA
:1037F000FEEC4B015C01E6E7F7E0E080F18002813E
:103800001381A2E7B7E02D913D914D915C91EEE6D9
:10381000F7E06081718182819381A1E8B7E0BF9375
:10382000AF93BAE7CB2EB7E0DB2E0E94BB720E94AB
:10383000B198C101CADC9B01AC010E941EECA3013E
:1038400092010E94CCEFAB81BC816D937D938D93EF
:103850009C93139720E030E040E05FE3EF81F88530
:1038600060817181828193810E94CCEF60930B0211
:1038700070930C0280930D0290930E0220E030E0D2
:1038800040E752E40E94FEEC4B015C01A6E7B7E082
:10389000ED90FD900D911C91E2E7F7E020813181E0
:1038A00042815381AEE6B7E06D917D918D919C91FF
:1038B000A1E8B7E0BF93AF930E94BB720E94B1989A
:1038C00089859A85865B944F80DC09851A850B561D
:1038D000184FD8012D913D914D915C910E941EECA5
:1038E000E981FA81608371838283938389859A85D4
:1038F0008E59944F6ADC29853A852757384F7901CC
:10390000D8012D913D914D915C910E941EECF701E3
:10391000608371838283938389859A858A5A944FC1
:1039200054DC29853A852F5E3D4F7901D8012D91D0
:103930003D914D915C910E941EECF7016083718373
:1039400082839383E981FA8180819181A281B3810D
:10395000EB81FC8180839183A283B38310920B025D
:1039600010920C0210920D0210920E020E94DD9035
:10397000ED81FE81EA57F84F81E080830F900F9030
:103980000F900F900F900F902A960FB6F894DEBF0D
:103990000FBECDBFDF91CF911F910F91FF90EF90A0
:1039A000DF90CF90BF90AF909F908F907F906F905F
:1039B0005F904F903F902F900895FC012491222317
:1039C00041F03091C00035FFFCCF2093C600019636
:1039D000F4CF22E030E08AE195E0F6CBFC012491BF
:1039E000222341F03091C00035FFFCCF2093C60068
:1039F0000196F4CF22E030E08AE195E0E5CBFC01CE
:103A00002491222341F03091C00035FFFCCF209358
:103A1000C6000196F4CF2AE030E08AE195E02ACB97
:103A20002091C3053091C405243031050CF06AC0E3
:103A30004091C5055091C60560E6649F9001659F61
:103A4000300D1124BC01C90183539A4F0E94FCF42C
:103A5000EEE6FBE08491882341F09091C00095FF51
:103A6000FCCF8093C6003196F5CFE4E2FBE0849171
:103A7000882341F09091C00095FFFCCF8093C60051
:103A80003196F5CF8091C5059091C60520E6289F17
:103A9000F001299FF00D1124E353FA4F81918823FF
:103AA00039F09091C00095FFFCCF8093C600F6CF0F
:103AB000E2E2FBE08491882341F09091C00095FF01
:103AC000FCCF8093C6003196F5CF8091C00085FF72
:103AD000FCCF8AE08093C6008091C5059091C60511
:103AE000019664E070E00E94A3EB9093C60580937A
:103AF000C5058091C3059091C40501969093C405B6
:103B00008093C30508952091C3053091C4052430E6
:103B100031050CF06AC04091C5055091C60560E6BC
:103B2000649F9001659F300D1124BC01C90183532E
:103B30009A4F0E9463F4EEE6FBE08491882341F003
:103B40009091C00095FFFCCF8093C6003196F5CFD1
:103B5000E7E1FBE08491882341F09091C00095FF5C
:103B6000FCCF8093C6003196F5CF8091C50590912A
:103B7000C60520E6289FF001299FF00D1124E3538C
:103B8000FA4F8191882339F09091C00095FFFCCFC6
:103B90008093C600F6CFE5E1FBE08491882341F0F5
:103BA0009091C00095FFFCCF8093C6003196F5CF71
:103BB0008091C00085FFFCCF8AE08093C600809191
:103BC000C5059091C605019664E070E00E94A3EBE4
:103BD0009093C6058093C5058091C3059091C40557
:103BE00001969093C4058093C30508959898A09A70
:103BF0000895269A2E980895F9DFFBDF40E950EDED
:103C000063E070E08AE195E0F5D8EFE0FBE08491B5
:103C1000882341F09091C00095FFFCCF8093C600AF
:103C20003196F5CF8091C00085FFFCCF8AE080936C
:103C3000C6008EE69BE0FC012491222341F03091E6
:103C4000C00035FFFCCF2093C6003196F5CF24B7D6
:103C500020FF14C0E7E0FBE03491332341F04091B2
:103C6000C00045FFFCCF3093C6003196F5CF3091B0
:103C7000C00035FFFCCF3AE03093C60021FF14C0EE
:103C8000E7EFFAE03491332341F04091C00045FF63
:103C9000FCCF3093C6003196F5CF3091C00035FF90
:103CA000FCCF3AE03093C60022FF14C0E6EEFAE003
:103CB0003491332341F04091C00045FFFCCF309355
:103CC000C6003196F5CF3091C00035FFFCCF3AE009
:103CD0003093C60023FF14C0E6EDFAE0349133239D
:103CE00041F04091C00045FFFCCF3093C6003196B3
:103CF000F5CF3091C00035FFFCCF3AE03093C600DD
:103D000025FF14C0E6ECFAE02491222341F0309123
:103D1000C00035FFFCCF2093C6003196F5CF20912F
:103D2000C00025FFFCCF2AE02093C60014BEEFEBB5
:103D3000FAE02491222341F03091C00035FFFCCFFE
:103D40002093C6003196F5CFE7EBFAE024912223C9
:103D500041F03091C00035FFFCCF2093C600319672
:103D6000F5CF2091C00025FFFCCF2AE02093C600AC
:103D7000FC012491EEE6FBE0222349F03091C000E3
:103D800035FFFCCF2093C60031962491F5CFE7EAAA
:103D9000FAE02491222341F03091C00035FFFCCF9E
:103DA0002093C6003196F5CFE2E9FAE02491222370
:103DB00041F03091C00035FFFCCF2093C600319612
:103DC000F5CFE6E8FAE02491222341F03091C000DB
:103DD00035FFFCCF2093C6003196F5CFE8E7FAE037
:103DE0002491222341F03091C00035FFFCCF209375
:103DF000C6003196F5CF2091C00025FFFCCF2AE008
:103E00002093C600EDE6FAE02491222341F03091A0
:103E1000C00035FFFCCF2093C6003196F5CFE1E618
:103E2000FAE02491222341F03091C00035FFFCCF0D
:103E30002093C6003196F5CF2091C00025FFFCCF1E
:103E40002AE02093C600FC018491EEE6FBE0882383
:103E500049F09091C00095FFFCCF8093C600319649
:103E60008491F5CFE2E5FAE08491882341F09091C6
:103E7000C00095FFFCCF8093C6003196F5CF0E941D
:103E800063594AE050E0BC018AE195E0C7D8EBE312
:103E9000FAE08491882341F09091C00095FFFCCF17
:103EA0008093C6003196F5CF4AE050E060ED74E0B3
:103EB0008AE195E0B3D88091C00085FFFCCF8AE00D
:103EC0008093C6001092C9051092CA051092CB05C6
:103ED0001092CC050E94CE150E94D69D0E9455716D
:103EE0000E941D980E9486BAFFEF23ED80E3F150F7
:103EF00020408040E1F700C000008091010188600F
:103F00008093010108958091BD059091BE0560E008
:103F100070E001960C94B9F18091BD059091BE05B9
:103F20004AE050E060E070E001960C9421F3682FC5
:103F3000772767FD70952091C7053091C80540E649
:103F4000429FC001439F900D112483539A4F0E94BA
:103F5000E8F49093BE058093BD0521E0892B09F418
:103F600020E0822F08950E947AE76093B90570934C
:103F7000BA058093BB059093BC0508950E947AE72B
:103F80006093B9057093BA058093BB059093BC0507
:103F9000E091C705F091C805E753FA4F8081811180
:103FA00014C0EAE4F4E08491882341F09091C000C9
:103FB00095FFFCCF8093C6003196F5CF8091C0006D
:103FC00085FFFCCF8AE08093C60008958AE195E0E2
:103FD0000E944C17EDE4F4E08491882341F0909125
:103FE000C00095FFFCCF8093C6003196F5CF40917D
:103FF00052075091530760915407709155074F5FD6
:104000005F4F6F4F7F4F2AE030E08AE195E00E94DA
:10401000EB178091C00085FFFCCF8AE08093C6003B
:10402000ADCF8F929F92AF92BF92CF92DF92EF92DD
:10403000FF920F931F93CF93DF93C1E8EC2EC4E060
:10404000FC2E01EA17E0CEE6D7E084EBC82E87E02D
:10405000D82EF70181917F016ADF882311F153DFA8
:104060004B015C01F6018081811103C060914D0715
:1040700001C061E070E080E090E00E9499EDF801FD
:1040800020813181428153810E94CCEF9B01AC01A0
:10409000C501B4010E941EEC688379838A839B83E7
:1040A00009C0F80180819181A281B38188839983BD
:1040B000AA83BB830C5F1F4F2496FFEFCF1ADF0A42
:1040C00085E8E81684E0F80621F686E430DF8823E8
:1040D000D1F019DF6B017C0160935E0770935F077D
:1040E000809360079093610720E030E0A9010E946F
:1040F000FAEE181644F4C0920B02D0920C02E09231
:104100000D02F0920E02DF91CF911F910F91FF905F
:10411000EF90DF90CF90BF90AF909F908F900895D9
:1041200080DF89E404DF882351F0EDDE60936207CD
:1041300070936307809364079093650708C010929B
:1041400062071092630710926407109265078AE471
:10415000EEDE882351F0D7DE609366077093670721
:1041600080936807909369070895109266071092EC
:10417000670710926807109269070895CF92DF923F
:10418000EF92FF92CF93DF93EC01C0908907D0901C
:104190008A07E0908B07F0908C07A7019601688151
:1041A00079818A819B810E94F7EC87FF04C0C882D5
:1041B000D982EA82FB82C0908D07D0908E07E09072
:1041C0008F07F0909007A70196016C817D818E8109
:1041D0009F810E94F7EC87FF04C0CC82DD82EE82D3
:1041E000FF82C0909D07D0909E07E0909F07F090BF
:1041F000A00720E030E0A901C701B6010E94F7EC5A
:1042000087FF08C020E030E0A901C701B6010E9485
:104210001EEC03C060E070E0CB012091910730916B
:10422000920740919307509194070E941EEC6B01F6
:104230007C019B01AC01688579858A859B850E94FC
:10424000F7EC87FF04C0C886D986EA86FB86C09053
:104250001102D0901202E0901302F0901402A70114
:104260009601688179818A819B810E94FAEE1816F5
:1042700024F4C882D982EA82FB82C0901502D090D1
:104280001602E0901702F0901802A70196016C81C7
:104290007D818E819F810E94FAEE181624F4CC82D3
:1042A000DD82EE82FF82C0901902D0901A02E09067
:1042B0001B02F0901C02A7019601688579858A850A
:1042C0009B850E94FAEE181624F4C886D986EA86E1
:1042D000FB86DF91CF91FF90EF90DF90CF90089514
:1042E0004F925F926F927F928F929F92AF92BF9206
:1042F000CF92DF92EF92FF920F931F93CF93DF93B2
:10430000CDB7DEB728970FB6F894DEBF0FBECDBF8E
:104310008EE697E033DF0E947AE76093B9057093E9
:10432000BA058093BB059093BC0520916E07309130
:104330006F07409170075091710729833A834B832F
:104340005C836091A1077091A2078091A30790916F
:10435000A4070E94F7EC409072075090730760909A
:104360007407709075072091760730917707409118
:104370007807509179072D833E834F8358878111A9
:104380008BC0A30192016091A5077091A60780914F
:10439000A7079091A8070E94F7EC81117DC020E04B
:1043A00030E040E752E460910B0270910C02809182
:1043B0000D0290910E020E94FEEC4B015C0181E81F
:1043C00097E09F938F939AE7C92E97E0D92EED80BF
:1043D000FE800F811885A301920169817A818B810A
:1043E0009C810E94BB720F900F9080916E079091FC
:1043F0006F07A0917007B09171078093A107909308
:10440000A207A093A307B093A4078091720790918D
:104410007307A0917407B09175078093A5079093D7
:10442000A607A093A707B093A8078091760790915D
:104430007707A0917807B09179078093A9079093A7
:10444000AA07A093AB07B093AC0780917A0790912D
:104450007B07A0917C07B0917D078093AD07909377
:10446000AE07A093AF07B093B00728960FB6F894A5
:10447000DEBF0FBECDBFDF91CF911F910F91FF9097
:10448000EF90DF90CF90BF90AF909F908F907F90F4
:104490006F905F904F9008956091290270912A0269
:1044A000882777FD8095982F0E9499ED20910B0227
:1044B00030910C0240910D0250910E020E94CCEFFF
:1044C00020E030E040E752E40E94FEEC20E030E0E3
:1044D00048EC52E470CFAF92BF92CF92DF92EF924E
:1044E000FF920F931F93CF93DF93D82F20916607EE
:1044F00030916707409168075091690760916207A2
:104500007091630780916407909165070E9407EF9F
:10451000C62F172F082FF92E6091290270912A02B9
:10452000882777FD8095982F0E9499ED20910B02A6
:1045300030910C0240910D0250910E020E94CCEF7E
:1045400020E030E040E752E40E94FEEC20E030E062
:1045500048EC52E40E94FEEC209181072F93DF93F8
:10456000FF920F931F93CF935B016C0122E0E22E29
:1045700001E020E042E657E06EE677E081EA97E06E
:104580000E941C6A80916E0790916F07A09170073E
:10459000B09171078093A1079093A207A093A307FE
:1045A000B093A4078091720790917307A09174074C
:1045B000B09175078093A5079093A607A093A707CE
:1045C000B093A8078091760790917707A09178071C
:1045D000B09179078093A9079093AA07A093AB079E
:1045E000B093AC0780917A0790917B07A0917C07EC
:1045F000B0917D078093AD079093AE07A093AF076E
:10460000B093B0070E947AE76093B9057093BA053A
:104610008093BB059093BC050F900F900F900F9067
:104620000F900F90DF91CF911F910F91FF90EF901E
:10463000DF90CF90BF90AF9008950F931F930E948B
:104640007AE70091A2051091A3052091A40530916D
:10465000A505601B710B820B930B643C79408105AF
:10466000910508F44DC00E947AE76093A20570930B
:10467000A3058093A4059093A5054F9B24C07A9B26
:1046800022C08091060180FF1EC0809146128111D8
:104690001AC0029B18C00E947AE70091A6051091EB
:1046A000A7052091A8053091A905601B710B820B0D
:1046B000930B60367A4E8105910580F4012B022B15
:1046C000032B61F012C00E947AE76093A6057093F5
:1046D000A7058093A8059093A905DDCF60E086E04B
:1046E0000E949CE960E070E006C06FEF86E00E94E7
:1046F0009CE96FEF70E086E01F910F910C944DE8FC
:104700001F910F910895F8940E94789E5F9A1092DD
:1047100086078A9A109287079FB7F89480910801BC
:104720008160809308019FBF10928807129A60E011
:104730008CE00E9463E9E4E7FBE08491882341F088
:104740009091C00095FFFCCF8093C6003196F5CFC5
:10475000EBE2F4E08491882341F09091C00095FF52
:10476000FCCF8093C6003196F5CF8091C00085FFC5
:10477000FCCF8AE08093C60082E294E00E9424BAD3
:104780007894C6E0D0E02197209749F068EC70E07B
:1047900080E090E00E94A9E70E94A4BAF4CFF894C8
:1047A000FFCF2F923F924F925F926F927F928F92A4
:1047B0009F92AF92BF92CF92DF92EF92FF920F93B0
:1047C0001F93CF93DF93CDB7DEB76E970FB6F894F4
:1047D000DEBF0FBECDBF60E6B62E74E0E72EF12C33
:1047E000E1E0CE2EE9E0DE2EFAE0AF2E992493949C
:1047F00080919B0590919C0520919D0530919E058F
:10480000821B930B8F779927892B09F418C280910B
:10481000C3059091C40504970CF011C28AE195E09C
:104820000E9430178093C2052091C0053091C105C8
:104830008A3061F08D3051F08A3321F49091BF05B8
:10484000992321F02F3531050CF41BC121153105B9
:1048500009F435C18091C5059091C605B89E300117
:10486000B99E700C1124F301E20FF31FE353FA4FCA
:1048700010822091BF052111FFC0FC01E753FA4FC0
:104880001082830103531A4F6EE470E0C8010E9446
:10489000E8F40097F1F19093BE058093BD05801B6D
:1048A000910B860D971D4AE050E060E070E0825366
:1048B0009A4F0E9421F36093560770935707809395
:1048C00058079093590740905207509053076090B3
:1048D0005407709055072FEF421A520A620A720A63
:1048E0000091C5051091C6056415750586059705E7
:1048F00009F4E8C0B09EC001B19E900D11246DE195
:104900007AE083539A4F0E949AF4892B09F0DAC017
:1049100069C16AE270E0C8010E94E8F4892B09F4D9
:1049200044C0E4E7FBE08491882341F09091C0000B
:1049300095FFFCCF8093C6003196F5CFE7E7F9E00D
:104940008491882341F09091C00095FFFCCF809323
:10495000C6003196F5CF40915207509153076091B0
:104960005407709155072AE030E08AE195E00E94F3
:10497000EB178091C00085FFFCCF8AE08093C600D2
:104980001092C1051092C005C0C280915607909147
:104990005707A0915807B0915907809352079093F9
:1049A0005307A0935407B09355078091C505909184
:1049B000C605B89E8001B99E100D1124C80183530D
:1049C0009A4F3C0167E470E00E94E8F4009781F19F
:1049D0009093BE058093BD0586199709800F911F9E
:1049E00060E070E082539A4F0E94B9F10E9466ED38
:1049F00064307105E8F48091AB058823C9F0F601B5
:104A00008491E1E0F9E0882349F09091C00095FF9E
:104A1000FCCF8093C60031968491F5CF8091C00081
:104A200085FFFCCFA092C60087EF98E00E9417BADE
:104A30000091C5051091C605B09EC001B19E900DB4
:104A4000112463E173E083539A4F0E94F3F4892B9E
:104A500009F459DEC8010196B7010E94A3EB9093B7
:104A6000C6058093C5058091C3059091C405019644
:104A70009093C4058093C3051092C1051092C005A0
:104A8000B7CE8B3311F49092BF059091BF05911171
:104A9000AFCE4091C5055091C605B9016F5F7F4FFC
:104AA0007093C1056093C005B49EF001B59EF00DF2
:104AB0001124E20FF31FE353FA4F808399CE109233
:104AC000BF0523C2B09E3001B19E700C1124C301FA
:104AD00083539A4F1C016AE270E00E94E8F4009749
:104AE00089F5E4E7FBE08491882341F09091C000D0
:104AF00095FFFCCF8093C6003196F5CFE1EAF9E04F
:104B00008491882341F09091C00095FFFCCF809361
:104B1000C6003196F5CF40915207509153076091EE
:104B20005407709155072AE030E08AE195E00E9431
:104B3000EB178091C00085FFFCCF8AE08093C60010
:104B400045DA1ECF20E010E0F301E20FF11DE35340
:104B5000FA4F30813A3219F02F5F1327F5CF909337
:104B6000BE058093BD0582199309860D971D60E0EF
:104B700070E082539A4F0E94B9F10E9466ED212F96
:104B800030E02617370709F400CFE4E7FBE0849113
:104B9000882341F09091C00095FFFCCF8093C60020
:104BA0003196F5CFEBECF9E08491882341F09091B8
:104BB000C00095FFFCCF8093C6003196F5CF4091A1
:104BC00052075091530760915407709155072AE09E
:104BD00030E08AE195E00E94EB178091C00085FFEC
:104BE000FCCFABCFE4E7FBE08491882341F09091C8
:104BF000C00095FFFCCF8093C6003196F5CFEAEE5A
:104C0000F9E08491882341F09091C00095FFFCCF9A
:104C10008093C6003196F5CF4091520750915307CB
:104C200060915407709155072AE030E08AE195E0E1
:104C30000E94EB178091C00085FFFCCF7ECF809152
:104C4000BA07882309F461C18091C0059091C1051C
:104C5000892B09F05AC18091C3059091C405892B15
:104C600011F41092A10548EE242E43E0342E412C7D
:104C7000512C5CE3C52ED12CE12CF12C8E010F5F61
:104C80001F4F30E6632E7724739440913B0A509176
:104C90003C0A60913D0A70913E0A8091330A9091DE
:104CA000340AA091350AB091360A481759076A07A5
:104CB0007B0708F02AC18091C3059091C405049731
:104CC0000CF023C18091A10581111FC180918E0933
:104CD00090918F09A0919009B091910980933B0A1E
:104CE00090933C0AA0933D0AB0933E0A86E899E06F
:104CF0000E943553482F8093C2058A30B9F04D3059
:104D0000A9F0433229F42091BF05211103C00EC040
:104D10004A33C9F32091C0053091C1052F353105C3
:104D20002CF48F3FFFEF9F0709F0D1C040913B0A61
:104D300050913C0A60913D0A70913E0A8091330A7D
:104D40009091340AA091350AB091360A4817590754
:104D50006A077B0708F481C0E4EEF8E084918823B9
:104D600041F09091C00095FFFCCF8093C600319632
:104D7000F5CF8091C00085FFFCCFFAE0F093C6002C
:104D80000E947AE76093AD057093AE058093AF05FE
:104D90009093B0058090B1059090B205A090B305B6
:104DA000B090B405681979098A099B09A20191019B
:104DB0000E94B6EB49015A01CA01B901A701960147
:104DC0000E94B6EBCA01B901A70196010E94B6EB99
:104DD0007F936F93C501B40120E13EE040E050E0D5
:104DE0000E94B6EB3F932F93A0EDB8E0BF93AF9333
:104DF0001F930F930E9420F5EEE6FBE084910FB61F
:104E0000F894DEBF0FBECDBF882349F09091C0005B
:104E100095FFFCCF8093C60031968491F5CFF801C1
:104E20008191882339F09091C00095FFFCCF809349
:104E3000C600F6CF8091C00085FFFCCF3AE03093EA
:104E4000C600C8010E9434B788EB97E00E94A069B1
:104E500061E088EB97E00E94D8638091C2058332BD
:104E600011F47092A1052091C0053091C105211562
:104E7000310509F424CE8091C5059091C605689E40
:104E8000F001699EF00D1124E20FF31FE353FA4F76
:104E90001082FC01E753FA4F70822091C3053091D4
:104EA000C4052F5F3F4F3093C4052093C30501967F
:104EB00064E070E00E94A3EB9093C6058093C50563
:104EC0001092BF051092C1051092C005DECE4B3383
:104ED00011F47092BF054091BF054111D2CE4091AF
:104EE000C5055091C605B9016F5F7F4F7093C1052D
:104EF0006093C005649EF001659EF00D1124E20FE1
:104F0000F31FE353FA4F8083C0CE6E960FB6F8942A
:104F1000DEBF0FBECDBFDF91CF911F910F91FF90EC
:104F2000EF90DF90CF90BF90AF909F908F907F9049
:104F30006F905F904F903F902F900895CF92DF92A7
:104F4000EF92FF920F931F93CF93C82F8091C305C9
:104F50009091C40503970CF424DC0E947AE7009139
:104F6000B5051091B6052091B7053091B805C090F0
:104F7000B905D090BA05E090BB05F090BC056C195E
:104F80007D098E099F09061717072807390728F496
:104F9000012B022B032B09F0B6DB40910702509145
:104FA00008026091090270910A02452B462B472B9B
:104FB00019F10E947AE70091B9051091BA05209184
:104FC000BB053091BC05601B710B820B930B0091EC
:104FD0000702109108022091090230910A02061777
:104FE00017072807390740F49091580C8091570C07
:104FF000981302C0CC2311F180919F059091A005D8
:10500000909902C0019604C0181619062CF4019755
:105010009093A00580939F0580919F059091A00596
:10502000803197420CF0B8CF08DBCF911F910F91E0
:10503000FF90EF90DF90CF900C949E725F9A109249
:1050400086078A9A109287079FB7F8948091080183
:105050008160809308019FBF10928807129ACCCF7D
:105060000E94789E8091AB05811138C081E08093C9
:10507000AB058091520790915307A0915407B091CE
:10508000550780934E0790934F07A0935007B09316
:105090005107E4E7FBE08491882341F09091C00040
:1050A00095FFFCCF8093C6003196F5CFECEAF3E094
:1050B0008491882341F09091C00095FFFCCF8093AC
:1050C000C6003196F5CF8091C00085FFFCCF8AE005
:1050D0008093C60082EA93E00C9417BA08958091F9
:1050E000AB050895CF93DF93EC0180918107809306
:1050F000AC0584E50E94971F811102C080E075C055
:105100000E94831F0E946BED6093AC056623B1F390
:10511000EEE6FBE08491882341F09091C00095FF7A
:10512000FCCF8093C6003196F5CFCD36D105B9F0CE
:1051300054F4C836D105B1F0C936D10509F045C0DF
:10514000EDE5F3E021C0CA3DD10531F0CD3DD105FB
:10515000E1F5E8E1F3E036C0EFE2F3E029C0E6E490
:10516000F3E01CC0E4E7F3E08191882371F19091B2
:10517000C00095FFFCCF8093C600F6CF9091C00091
:1051800095FFFCCF8093C60081918111F7CF1DC0A0
:105190009091C00095FFFCCF8093C6008191811152
:1051A000F7CF13C09091C00095FFFCCF8093C6004D
:1051B00081918111F7CF09C09091C00095FFFCCF7C
:1051C0008093C60081918111F7CF40E050E060915B
:1051D000AC058AE195E00E9445188091C00085FFEA
:1051E000FCCF8AE08093C60081E0DF91CF910895E3
:1051F000CF92DF92EF92FF922091B1072223F1F03C
:1052000020E030E040E05FE30E94CCEF6B017C01E6
:1052100020E030E0A9010E94F7EC882379F0A70193
:105220009601C701B6010E94CCEF2BED3FE049E4A7
:1052300050E40E94CCEF9B01AC0104C020E030E0C0
:1052400040E85FE360E070E080E89FE30E94FEECEE
:10525000FF90EF90DF90CF900895609121027091C0
:1052600022028091230290912402C2DF60931D02EA
:1052700070931E0280931F029093200208952F9234
:105280003F924F925F926F927F928F929F92AF92D6
:10529000BF92CF92DF92EF92FF920F931F93CF9323
:1052A000DF93CDB7DEB7CB56D1400FB6F894DEBF53
:1052B0000FBECDBF87E40E94971F882311F40C9482
:1052C000D0310E94831F0E9466ED6C31710509F494
:1052D000AEC09CF46230710509F44BC024F477FF32
:1052E0003DC00C946F4B6330710509F44DC06430C0
:1052F000710509F454C00C946F4B6A35710509F4BB
:10530000E4C714F56D31710509F48EC36E31710572
:1053100011F00C946F4B0E94B1980E94EB18809191
:10532000330290913402A0913502B09136028093FD
:105330000B0290930C02A0930D02B0930E020E94F8
:105340000A1AE9E3F8E05CC76B35710509F4C1C7D7
:105350006C35710509F4C2C70C946F4B8091AB0595
:1053600081110C946F4B0E9411200E9470210C94AB
:105370006F4B8091AB0581110C946F4B0E94902074
:1053800081E0A9D80C946F4B8091AB0581110C94EE
:105390006F4B0E94902080E09ED80C946F4B87EC5E
:1053A00098E00E9417BA80E50E94971F882339F081
:1053B0000E94831F0E946BED4B015C0103C0812C96
:1053C000912C540183E50E94971F882361F00E946D
:1053D000831F20E030E04AE754E40E94CCEF0E94B3
:1053E0006BED4B015C010E94B1980E947AE76B0162
:1053F0007C01C80CD91CEA1CFB1C0E947AE7609354
:10540000B9057093BA058093BB059093BC050E94C3
:105410007AE76C157D058E059F0510F00C946F4B97
:105420000E949F9B80E08ADD0E94A4BAF0CF8BE4AB
:1054300092E00E945DE180910B0290910C02A0919C
:105440000D02B0910E0280935A0790935B07A093D0
:105450005C07B0935D078091290290912A02909396
:10546000B3078093B20784E690E090932A0280937A
:1054700029020E947AE76093B9057093BA05809378
:10548000BB059093BC0581E00E94E4908091A10748
:105490009091A207A091A307B091A40780936E07F3
:1054A00090936F07A0937007B09371078091A50741
:1054B0009091A607A091A707B091A80780937207C3
:1054C00090937307A0937407B09375078091A90711
:1054D0009091AA07A091AB07B091AC078093760793
:1054E00090937707A0937807B09379078091AD07E1
:1054F0009091AE07A091AF07B091B00780937A0763
:1055000090937B07A0937C07B0937D0710920B02CA
:1055100010920C0210920D0210920E0288E50E9469
:10552000971F882311F090E00AC089E50E94971F19
:105530008111F9CF8AE50E94971F91E098279093F7
:105540000F0291110C94724B88E50E94971F8111F4
:105550000C94724B80910F0281110C94784B89E569
:105560000E94971F81110C94784B88E50E94971F29
:105570008823D1F00E948C1F672B682B692BA1F028
:105580000E94831F209195073091960740919707BD
:10559000509198070E941EEC6093A1077093A20798
:1055A0008093A3079093A40789E50E94971F8823FF
:1055B000D1F00E948C1F672B682B692BA1F00E94F1
:1055C000831F2091990730919A0740919B07509132
:1055D0009C070E941EEC6093A5077093A60780931A
:1055E000A7079093A80780910F02882309F4ACC005
:1055F00080E090E0A6EFB2E480936E0790936F078F
:10560000A0937007B093710780E090E0A0E0B3E44E
:105610008093720790937307A0937407B0937507F4
:10562000E1E3FBE064912DEF6202B00111248827D1
:1056300077FD8095982F0E9499ED6093760770937F
:105640007707809378079093790780E090E0A5E052
:10565000B3E480930B0290930C02A0930D02B093DD
:105660000E021092A9071092AA071092AB0710928F
:10567000AC072091A5073091A6074091A70750914C
:10568000A8076091A1077091A2078091A30790914C
:10569000A407BDEACB2EB7E0DB2EE12CF12C87016D
:1056A0000E946A7D80900B0290900C02A0900D02E7
:1056B000B0900E02E0907607F0907707009178079F
:1056C0001091790720917207309173074091740708
:1056D0005091750760916E0770916F078091700708
:1056E00090917107E1E8F7E0FF93EF93EAE7CE2EA0
:1056F000E7E0DE2E0E94BB720E94B19880916E0797
:1057000090916F07A0917007B09171078093A107E6
:105710009093A207A093A307B093A4078091720768
:1057200090917307A0917407B09175078093A507B6
:105730009093A607A093A707B093A80782E090E0F4
:105740000E940D1B0F900F908AE50E94971F8823DF
:1057500009F4F9C080918607882309F4ACC08091D0
:105760008707882309F4A7C08090A1079090A2071B
:10577000A090A307B090A40720E030E048EB51E4EC
:10578000C501B4010E941DEC6B017C0120E030E0FA
:10579000A9010E94FAEE87FDB1C020E030E048E4A4
:1057A00053E4C701B6010E94F7EC18160CF4A6C02A
:1057B0004090A5075090A6076090A7077090A80793
:1057C00020E030E040EE51E4C301B2010E941DEC44
:1057D0006B017C0120E030E0A9010E94FAEE87FD18
:1057E0008DC020E030E048E453E4C701B6010E94D8
:1057F000F7EC18160CF482C01092A9071092AA07B1
:105800001092AB071092AC07FDEACF2EF7E0DF2E27
:10581000E12CF12C8701A3019201C501B4010E9482
:105820006A7DE1E3FBE064913DEF6302B001112486
:10583000882777FD8095982F0E9499ED7B018C0138
:105840006093760770937707809378079093790732
:105850008090A5119090A611A090A711B090A811CA
:1058600080920B0290920C02A0920D02B0920E0256
:10587000209172073091730740917407509175071A
:1058800060916E0770916F0780917007909171071A
:10589000E1E8F7E0FF93EF93AAE7CA2EA7E0DA2E3C
:1058A0000E94BB720E94B19882E090E00E940D1BA2
:1058B0000F900F9048C085EB98E00E9417BAEEE673
:1058C000FBE08491882341F09091C00095FFFCCFCC
:1058D0008093C6003196F5CFE3EAF8E084918823FF
:1058E00041F09091C00095FFFCCF8093C6003196A7
:1058F000F5CF8091C00085FFFCCF22C082E998E0FF
:105900000E9417BAEEE6FBE08491882341F0909163
:10591000C00095FFFCCF8093C6003196F5CFE1E83B
:10592000F8E08491882341F09091C00095FFFCCF6E
:105930008093C6003196F5CF8091C00085FFFCCFE3
:105940008AE08093C6008AE50E94971F8823D1F0E1
:105950000E948C1F672B682B692BA1F00E94831F6C
:1059600020919D0730919E0740919F075091A0077D
:105970000E941EEC6093A9077093AA078093AB075F
:105980009093AC0780910F0281110C947E4B8AE5B5
:105990000E94971F81110C947E4BE090A907F09014
:1059A000AA070091AB071091AC072091A507309191
:1059B000A6074091A7075091A8076091A107709191
:1059C000A2078091A3079091A407EDEACE2EE7E00D
:1059D000DE2E0E946A7D80E00E94E49080915A074A
:1059E00090915B07A0915C07B0915D0780930B02DB
:1059F00090930C02A0930D02B0930E028091B20717
:105A00009091B30790932A02809329020E947AE72B
:105A10006093B9057093BA058093BB059093BC055C
:105A20000E94DD900C946F4B80918607882321F0B3
:105A300080918707811127C08FE698E00E9417BAEE
:105A4000EEE6FBE08491882341F09091C00095FF41
:105A5000FCCF8093C6003196F5CFEDE5F8E0849158
:105A6000882341F09091C00095FFFCCF8093C60041
:105A70003196F5CF8091C00085FFFCCF8AE08093FE
:105A8000C6000C946F4B0E94B1988BE492E00E9488
:105A90005DE1CE018B5F9E4F0E94F37CCB5FDE4FBA
:105AA000688179818A819B81C550D1406093A1072B
:105AB0007093A2078093A3079093A407C75FDE4F5C
:105AC000288139814A815B81C950D1402093A50743
:105AD0003093A6074093A7075093A807C35FDE4FF4
